{
  "_format": "hh-sol-artifact-1",
  "contractName": "MultiEscrow",
  "sourceName": "contracts/MultiEscrow.sol",
  "abi": [
    {
      "inputs": [],
      "stateMutability": "nonpayable",
      "type": "constructor"
    },
    {
      "inputs": [],
      "name": "ClaimPeriodNotStarted",
      "type": "error"
    },
    {
      "inputs": [],
      "name": "ClaimSignerNotBuyer",
      "type": "error"
    },
    {
      "inputs": [],
      "name": "ClaimedAmountMismatch",
      "type": "error"
    },
    {
      "inputs": [],
      "name": "ERC20TransferFailed",
      "type": "error"
    },
    {
      "inputs": [],
      "name": "EscrowFeeTooHigh",
      "type": "error"
    },
    {
      "inputs": [],
      "name": "InvalidFactor",
      "type": "error"
    },
    {
      "inputs": [],
      "name": "InvalidFeeRecipient",
      "type": "error"
    },
    {
      "inputs": [],
      "name": "InvalidSignature",
      "type": "error"
    },
    {
      "inputs": [],
      "name": "InvalidSwapContract",
      "type": "error"
    },
    {
      "inputs": [],
      "name": "MustSendFunds",
      "type": "error"
    },
    {
      "inputs": [],
      "name": "NativeNotExpected",
      "type": "error"
    },
    {
      "inputs": [],
      "name": "NativeTransferFailed",
      "type": "error"
    },
    {
      "inputs": [],
      "name": "NoFundsToClaim",
      "type": "error"
    },
    {
      "inputs": [],
      "name": "NoFundsToRelease",
      "type": "error"
    },
    {
      "inputs": [],
      "name": "OnlyArbiter",
      "type": "error"
    },
    {
      "inputs": [],
      "name": "OnlyBuyerOrSeller",
      "type": "error"
    },
    {
      "inputs": [],
      "name": "OnlyOwner",
      "type": "error"
    },
    {
      "inputs": [],
      "name": "OnlySeller",
      "type": "error"
    },
    {
      "inputs": [],
      "name": "RelayFeeTooHigh",
      "type": "error"
    },
    {
      "inputs": [],
      "name": "SignatureExpired",
      "type": "error"
    },
    {
      "inputs": [],
      "name": "TokenMismatch",
      "type": "error"
    },
    {
      "inputs": [],
      "name": "TokenNotAllowed",
      "type": "error"
    },
    {
      "inputs": [],
      "name": "TradeAlreadyActive",
      "type": "error"
    },
    {
      "inputs": [],
      "name": "TradeIdAlreadyExists",
      "type": "error"
    },
    {
      "inputs": [],
      "name": "TradeNotActive",
      "type": "error"
    },
    {
      "anonymous": false,
      "inputs": [
        {
          "indexed": true,
          "internalType": "bytes32",
          "name": "tradeId",
          "type": "bytes32"
        },
        {
          "indexed": true,
          "internalType": "address",
          "name": "token",
          "type": "address"
        },
        {
          "indexed": false,
          "internalType": "address",
          "name": "seller",
          "type": "address"
        },
        {
          "indexed": false,
          "internalType": "address",
          "name": "buyer",
          "type": "address"
        },
        {
          "indexed": false,
          "internalType": "uint256",
          "name": "amount",
          "type": "uint256"
        },
        {
          "indexed": false,
          "internalType": "uint256",
          "name": "fractionForwarded",
          "type": "uint256"
        }
      ],
      "name": "Arbitrated",
      "type": "event"
    },
    {
      "anonymous": false,
      "inputs": [
        {
          "indexed": true,
          "internalType": "bytes32",
          "name": "tradeId",
          "type": "bytes32"
        },
        {
          "indexed": true,
          "internalType": "address",
          "name": "token",
          "type": "address"
        },
        {
          "indexed": false,
          "internalType": "address",
          "name": "seller",
          "type": "address"
        },
        {
          "indexed": false,
          "internalType": "address",
          "name": "buyer",
          "type": "address"
        },
        {
          "indexed": false,
          "internalType": "uint256",
          "name": "amount",
          "type": "uint256"
        }
      ],
      "name": "Claimed",
      "type": "event"
    },
    {
      "anonymous": false,
      "inputs": [
        {
          "indexed": true,
          "internalType": "address",
          "name": "previousOwner",
          "type": "address"
        },
        {
          "indexed": true,
          "internalType": "address",
          "name": "newOwner",
          "type": "address"
        }
      ],
      "name": "OwnershipTransferred",
      "type": "event"
    },
    {
      "anonymous": false,
      "inputs": [
        {
          "indexed": true,
          "internalType": "bytes32",
          "name": "tradeId",
          "type": "bytes32"
        },
        {
          "indexed": true,
          "internalType": "address",
          "name": "feeReceiver",
          "type": "address"
        },
        {
          "indexed": false,
          "internalType": "uint256",
          "name": "amount",
          "type": "uint256"
        }
      ],
      "name": "RelayFeePaid",
      "type": "event"
    },
    {
      "anonymous": false,
      "inputs": [
        {
          "indexed": true,
          "internalType": "bytes32",
          "name": "tradeId",
          "type": "bytes32"
        },
        {
          "indexed": true,
          "internalType": "address",
          "name": "token",
          "type": "address"
        },
        {
          "indexed": false,
          "internalType": "address",
          "name": "from",
          "type": "address"
        },
        {
          "indexed": false,
          "internalType": "address",
          "name": "to",
          "type": "address"
        },
        {
          "indexed": false,
          "internalType": "uint256",
          "name": "amount",
          "type": "uint256"
        }
      ],
      "name": "ReleasedToCounterparty",
      "type": "event"
    },
    {
      "anonymous": false,
      "inputs": [
        {
          "indexed": true,
          "internalType": "address",
          "name": "token",
          "type": "address"
        },
        {
          "indexed": false,
          "internalType": "bool",
          "name": "allowed",
          "type": "bool"
        }
      ],
      "name": "TokenAllowlistUpdated",
      "type": "event"
    },
    {
      "anonymous": false,
      "inputs": [
        {
          "indexed": true,
          "internalType": "bytes32",
          "name": "tradeId",
          "type": "bytes32"
        },
        {
          "indexed": true,
          "internalType": "address",
          "name": "token",
          "type": "address"
        },
        {
          "indexed": false,
          "internalType": "address",
          "name": "seller",
          "type": "address"
        },
        {
          "indexed": false,
          "internalType": "address",
          "name": "buyer",
          "type": "address"
        },
        {
          "indexed": true,
          "internalType": "address",
          "name": "arbiter",
          "type": "address"
        },
        {
          "indexed": false,
          "internalType": "uint256",
          "name": "amount",
          "type": "uint256"
        },
        {
          "indexed": false,
          "internalType": "uint256",
          "name": "unlockAt",
          "type": "uint256"
        },
        {
          "indexed": false,
          "internalType": "uint256",
          "name": "escrowFee",
          "type": "uint256"
        }
      ],
      "name": "TradeCreated",
      "type": "event"
    },
    {
      "inputs": [],
      "name": "DOMAIN_SEPARATOR",
      "outputs": [
        {
          "internalType": "bytes32",
          "name": "",
          "type": "bytes32"
        }
      ],
      "stateMutability": "view",
      "type": "function"
    },
    {
      "inputs": [],
      "name": "FACTOR_SCALE",
      "outputs": [
        {
          "internalType": "uint256",
          "name": "",
          "type": "uint256"
        }
      ],
      "stateMutability": "view",
      "type": "function"
    },
    {
      "inputs": [],
      "name": "NAME",
      "outputs": [
        {
          "internalType": "string",
          "name": "",
          "type": "string"
        }
      ],
      "stateMutability": "view",
      "type": "function"
    },
    {
      "inputs": [],
      "name": "VERSION",
      "outputs": [
        {
          "internalType": "string",
          "name": "",
          "type": "string"
        }
      ],
      "stateMutability": "view",
      "type": "function"
    },
    {
      "inputs": [
        {
          "internalType": "bytes32",
          "name": "tradeId",
          "type": "bytes32"
        }
      ],
      "name": "activeTrade",
      "outputs": [
        {
          "internalType": "bool",
          "name": "isActive",
          "type": "bool"
        },
        {
          "components": [
            {
              "internalType": "address",
              "name": "buyer",
              "type": "address"
            },
            {
              "internalType": "address",
              "name": "seller",
              "type": "address"
            },
            {
              "internalType": "address",
              "name": "arbiter",
              "type": "address"
            },
            {
              "internalType": "address",
              "name": "token",
              "type": "address"
            },
            {
              "internalType": "uint256",
              "name": "amount",
              "type": "uint256"
            },
            {
              "internalType": "uint256",
              "name": "unlockAt",
              "type": "uint256"
            },
            {
              "internalType": "uint256",
              "name": "escrowFee",
              "type": "uint256"
            }
          ],
          "internalType": "struct MultiEscrow.Trade",
          "name": "trade",
          "type": "tuple"
        }
      ],
      "stateMutability": "view",
      "type": "function"
    },
    {
      "inputs": [],
      "name": "activeTradeCount",
      "outputs": [
        {
          "internalType": "uint256",
          "name": "",
          "type": "uint256"
        }
      ],
      "stateMutability": "view",
      "type": "function"
    },
    {
      "inputs": [
        {
          "internalType": "address",
          "name": "",
          "type": "address"
        }
      ],
      "name": "allowedTokens",
      "outputs": [
        {
          "internalType": "bool",
          "name": "",
          "type": "bool"
        }
      ],
      "stateMutability": "view",
      "type": "function"
    },
    {
      "inputs": [
        {
          "internalType": "bytes32",
          "name": "tradeId",
          "type": "bytes32"
        },
        {
          "internalType": "uint256",
          "name": "factor",
          "type": "uint256"
        }
      ],
      "name": "arbitrate",
      "outputs": [],
      "stateMutability": "nonpayable",
      "type": "function"
    },
    {
      "inputs": [
        {
          "internalType": "bytes32",
          "name": "tradeId",
          "type": "bytes32"
        }
      ],
      "name": "claim",
      "outputs": [],
      "stateMutability": "nonpayable",
      "type": "function"
    },
    {
      "inputs": [
        {
          "internalType": "bytes32",
          "name": "tradeId",
          "type": "bytes32"
        },
        {
          "components": [
            {
              "internalType": "address",
              "name": "receiver",
              "type": "address"
            },
            {
              "internalType": "uint256",
              "name": "amount",
              "type": "uint256"
            },
            {
              "internalType": "uint256",
              "name": "deadline",
              "type": "uint256"
            }
          ],
          "internalType": "struct MultiEscrow.RelayFeeQuote",
          "name": "relayFeeQuote",
          "type": "tuple"
        },
        {
          "internalType": "bytes",
          "name": "signature",
          "type": "bytes"
        }
      ],
      "name": "claim",
      "outputs": [],
      "stateMutability": "nonpayable",
      "type": "function"
    },
    {
      "inputs": [
        {
          "components": [
            {
              "internalType": "address",
              "name": "swapContract",
              "type": "address"
            },
            {
              "internalType": "bytes32",
              "name": "preimage",
              "type": "bytes32"
            },
            {
              "internalType": "uint256",
              "name": "amount",
              "type": "uint256"
            },
            {
              "internalType": "address",
              "name": "tokenAddress",
              "type": "address"
            },
            {
              "internalType": "address",
              "name": "refundAddress",
              "type": "address"
            },
            {
              "internalType": "uint256",
              "name": "timelock",
              "type": "uint256"
            },
            {
              "internalType": "uint8",
              "name": "v",
              "type": "uint8"
            },
            {
              "internalType": "bytes32",
              "name": "r",
              "type": "bytes32"
            },
            {
              "internalType": "bytes32",
              "name": "s",
              "type": "bytes32"
            }
          ],
          "internalType": "struct MultiEscrow.ERC20ClaimArgs",
          "name": "claimArgs",
          "type": "tuple"
        },
        {
          "components": [
            {
              "internalType": "bytes32",
              "name": "tradeId",
              "type": "bytes32"
            },
            {
              "internalType": "address",
              "name": "buyer",
              "type": "address"
            },
            {
              "internalType": "address",
              "name": "seller",
              "type": "address"
            },
            {
              "internalType": "address",
              "name": "arbiter",
              "type": "address"
            },
            {
              "internalType": "address",
              "name": "token",
              "type": "address"
            },
            {
              "internalType": "uint256",
              "name": "unlockAt",
              "type": "uint256"
            },
            {
              "internalType": "uint256",
              "name": "escrowFee",
              "type": "uint256"
            }
          ],
          "internalType": "struct MultiEscrow.FundArgs",
          "name": "fundArgs",
          "type": "tuple"
        }
      ],
      "name": "claimERC20SwapAndFund",
      "outputs": [],
      "stateMutability": "nonpayable",
      "type": "function"
    },
    {
      "inputs": [
        {
          "components": [
            {
              "internalType": "address",
              "name": "swapContract",
              "type": "address"
            },
            {
              "internalType": "bytes32",
              "name": "preimage",
              "type": "bytes32"
            },
            {
              "internalType": "uint256",
              "name": "amount",
              "type": "uint256"
            },
            {
              "internalType": "address",
              "name": "refundAddress",
              "type": "address"
            },
            {
              "internalType": "uint256",
              "name": "timelock",
              "type": "uint256"
            },
            {
              "internalType": "uint8",
              "name": "v",
              "type": "uint8"
            },
            {
              "internalType": "bytes32",
              "name": "r",
              "type": "bytes32"
            },
            {
              "internalType": "bytes32",
              "name": "s",
              "type": "bytes32"
            }
          ],
          "internalType": "struct MultiEscrow.ClaimArgs",
          "name": "claimArgs",
          "type": "tuple"
        },
        {
          "components": [
            {
              "internalType": "bytes32",
              "name": "tradeId",
              "type": "bytes32"
            },
            {
              "internalType": "address",
              "name": "buyer",
              "type": "address"
            },
            {
              "internalType": "address",
              "name": "seller",
              "type": "address"
            },
            {
              "internalType": "address",
              "name": "arbiter",
              "type": "address"
            },
            {
              "internalType": "address",
              "name": "token",
              "type": "address"
            },
            {
              "internalType": "uint256",
              "name": "unlockAt",
              "type": "uint256"
            },
            {
              "internalType": "uint256",
              "name": "escrowFee",
              "type": "uint256"
            }
          ],
          "internalType": "struct MultiEscrow.FundArgs",
          "name": "fundArgs",
          "type": "tuple"
        }
      ],
      "name": "claimSwapAndFund",
      "outputs": [],
      "stateMutability": "nonpayable",
      "type": "function"
    },
    {
      "inputs": [
        {
          "internalType": "bytes32",
          "name": "tradeId",
          "type": "bytes32"
        },
        {
          "internalType": "address",
          "name": "_buyer",
          "type": "address"
        },
        {
          "internalType": "address",
          "name": "_seller",
          "type": "address"
        },
        {
          "internalType": "address",
          "name": "_arbiter",
          "type": "address"
        },
        {
          "internalType": "address",
          "name": "_token",
          "type": "address"
        },
        {
          "internalType": "uint256",
          "name": "_amount",
          "type": "uint256"
        },
        {
          "internalType": "uint256",
          "name": "_unlockAt",
          "type": "uint256"
        },
        {
          "internalType": "uint256",
          "name": "_escrowFee",
          "type": "uint256"
        }
      ],
      "name": "createTrade",
      "outputs": [],
      "stateMutability": "payable",
      "type": "function"
    },
    {
      "inputs": [],
      "name": "getActiveTradeIds",
      "outputs": [
        {
          "internalType": "bytes32[]",
          "name": "",
          "type": "bytes32[]"
        }
      ],
      "stateMutability": "view",
      "type": "function"
    },
    {
      "inputs": [
        {
          "internalType": "uint256",
          "name": "offset",
          "type": "uint256"
        },
        {
          "internalType": "uint256",
          "name": "limit",
          "type": "uint256"
        }
      ],
      "name": "getActiveTradeIdsPage",
      "outputs": [
        {
          "internalType": "bytes32[]",
          "name": "ids",
          "type": "bytes32[]"
        }
      ],
      "stateMutability": "view",
      "type": "function"
    },
    {
      "inputs": [
        {
          "internalType": "bytes32",
          "name": "tradeId",
          "type": "bytes32"
        },
        {
          "components": [
            {
              "internalType": "address",
              "name": "receiver",
              "type": "address"
            },
            {
              "internalType": "uint256",
              "name": "amount",
              "type": "uint256"
            },
            {
              "internalType": "uint256",
              "name": "deadline",
              "type": "uint256"
            }
          ],
          "internalType": "struct MultiEscrow.RelayFeeQuote",
          "name": "relayFeeQuote",
          "type": "tuple"
        }
      ],
      "name": "hashClaimAuthorization",
      "outputs": [
        {
          "internalType": "bytes32",
          "name": "",
          "type": "bytes32"
        }
      ],
      "stateMutability": "view",
      "type": "function"
    },
    {
      "inputs": [
        {
          "internalType": "bytes32",
          "name": "tradeId",
          "type": "bytes32"
        },
        {
          "components": [
            {
              "internalType": "address",
              "name": "receiver",
              "type": "address"
            },
            {
              "internalType": "uint256",
              "name": "amount",
              "type": "uint256"
            },
            {
              "internalType": "uint256",
              "name": "deadline",
              "type": "uint256"
            }
          ],
          "internalType": "struct MultiEscrow.RelayFeeQuote",
          "name": "relayFeeQuote",
          "type": "tuple"
        }
      ],
      "name": "hashReleaseAuthorization",
      "outputs": [
        {
          "internalType": "bytes32",
          "name": "",
          "type": "bytes32"
        }
      ],
      "stateMutability": "view",
      "type": "function"
    },
    {
      "inputs": [],
      "name": "owner",
      "outputs": [
        {
          "internalType": "address",
          "name": "",
          "type": "address"
        }
      ],
      "stateMutability": "view",
      "type": "function"
    },
    {
      "inputs": [
        {
          "internalType": "bytes32",
          "name": "tradeId",
          "type": "bytes32"
        },
        {
          "components": [
            {
              "internalType": "address",
              "name": "receiver",
              "type": "address"
            },
            {
              "internalType": "uint256",
              "name": "amount",
              "type": "uint256"
            },
            {
              "internalType": "uint256",
              "name": "deadline",
              "type": "uint256"
            }
          ],
          "internalType": "struct MultiEscrow.RelayFeeQuote",
          "name": "relayFeeQuote",
          "type": "tuple"
        },
        {
          "internalType": "bytes",
          "name": "signature",
          "type": "bytes"
        }
      ],
      "name": "releaseToCounterparty",
      "outputs": [],
      "stateMutability": "nonpayable",
      "type": "function"
    },
    {
      "inputs": [
        {
          "internalType": "bytes32",
          "name": "tradeId",
          "type": "bytes32"
        }
      ],
      "name": "releaseToCounterparty",
      "outputs": [],
      "stateMutability": "nonpayable",
      "type": "function"
    },
    {
      "inputs": [
        {
          "internalType": "address",
          "name": "token",
          "type": "address"
        },
        {
          "internalType": "bool",
          "name": "allowed",
          "type": "bool"
        }
      ],
      "name": "setTokenAllowed",
      "outputs": [],
      "stateMutability": "nonpayable",
      "type": "function"
    },
    {
      "inputs": [
        {
          "internalType": "bytes32",
          "name": "",
          "type": "bytes32"
        }
      ],
      "name": "trades",
      "outputs": [
        {
          "internalType": "address",
          "name": "buyer",
          "type": "address"
        },
        {
          "internalType": "address",
          "name": "seller",
          "type": "address"
        },
        {
          "internalType": "address",
          "name": "arbiter",
          "type": "address"
        },
        {
          "internalType": "address",
          "name": "token",
          "type": "address"
        },
        {
          "internalType": "uint256",
          "name": "amount",
          "type": "uint256"
        },
        {
          "internalType": "uint256",
          "name": "unlockAt",
          "type": "uint256"
        },
        {
          "internalType": "uint256",
          "name": "escrowFee",
          "type": "uint256"
        }
      ],
      "stateMutability": "view",
      "type": "function"
    },
    {
      "inputs": [
        {
          "internalType": "address",
          "name": "newOwner",
          "type": "address"
        }
      ],
      "name": "transferOwnership",
      "outputs": [],
      "stateMutability": "nonpayable",
      "type": "function"
    },
    {
      "stateMutability": "payable",
      "type": "receive"
    }
  ],
  "bytecode": "0x60a060405234801561001057600080fd5b50336000806101000a81548173ffffffffffffffffffffffffffffffffffffffff021916908373ffffffffffffffffffffffffffffffffffffffff1602179055507f8b73c3c69bb8fe3d512ecc4cf759cc79239f7b179b0ffacaa9a75d522b39400f6040518060400160405280601181526020017f486f737472204d756c7469457363726f77000000000000000000000000000000815250805190602001206040518060400160405280600181526020017f3300000000000000000000000000000000000000000000000000000000000000815250805190602001204630604051602001610102959493929190610197565b60405160208183030381529060405280519060200120608081815250506101ea565b6000819050919050565b61013781610124565b82525050565b6000819050919050565b6101508161013d565b82525050565b600073ffffffffffffffffffffffffffffffffffffffff82169050919050565b600061018182610156565b9050919050565b61019181610176565b82525050565b600060a0820190506101ac600083018861012e565b6101b9602083018761012e565b6101c6604083018661012e565b6101d36060830185610147565b6101e06080830184610188565b9695505050505050565b60805161440f61020c600039600081816109d10152611d4e015261440f6000f3fe6080604052600436106101435760003560e01c8063a1fb6345116100b6578063cedc44781161006f578063cedc44781461046e578063e744092e14610499578063e9a13bd8146104d6578063f2fde38b146104ff578063f429812414610528578063ffa1ad74146105535761014a565b8063a1fb634514610381578063a3f4df7e146103ac578063bd66528a146103d7578063c363875b14610400578063c6763cea14610429578063cb2e7212146104455761014a565b80633a6bde89116101085780633a6bde891461026157806356c48e831461028a5780636c1127c0146102c75780637a5b8584146103045780638da5cb5b1461032d5780639a67a3ad146103585761014a565b80621624201461014f57806306bee3481461019257806315f69012146101cf5780631ca82a93146101f85780633644e515146102365761014a565b3661014a57005b600080fd5b34801561015b57600080fd5b5061017660048036038101906101719190613398565b61057e565b604051610189979695949392919061341f565b60405180910390f35b34801561019e57600080fd5b506101b960048036038101906101b491906134b2565b610640565b6040516101c69190613501565b60405180910390f35b3480156101db57600080fd5b506101f660048036038101906101f19190613580565b6106b5565b005b34801561020457600080fd5b5061021f600480360381019061021a9190613398565b6107e3565b60405161022d92919061367b565b60405180910390f35b34801561024257600080fd5b5061024b6109cf565b6040516102589190613501565b60405180910390f35b34801561026d57600080fd5b506102886004803603810190610283919061370a565b6109f3565b005b34801561029657600080fd5b506102b160048036038101906102ac91906137aa565b610a6d565b6040516102be91906138a8565b60405180910390f35b3480156102d357600080fd5b506102ee60048036038101906102e991906134b2565b610bc0565b6040516102fb9190613501565b60405180910390f35b34801561031057600080fd5b5061032b60048036038101906103269190613398565b610c35565b005b34801561033957600080fd5b50610342610c78565b60405161034f91906138ca565b60405180910390f35b34801561036457600080fd5b5061037f600480360381019061037a9190613924565b610c9c565b005b34801561038d57600080fd5b50610396610f85565b6040516103a39190613966565b60405180910390f35b3480156103b857600080fd5b506103c1610f8b565b6040516103ce9190613a11565b60405180910390f35b3480156103e357600080fd5b506103fe60048036038101906103f99190613398565b610fc4565b005b34801561040c57600080fd5b506104276004803603810190610422919061370a565b611005565b005b610443600480360381019061043e9190613a33565b61111e565b005b34801561045157600080fd5b5061046c60048036038101906104679190613ae9565b611346565b005b34801561047a57600080fd5b506104836115a5565b6040516104909190613966565b60405180910390f35b3480156104a557600080fd5b506104c060048036038101906104bb9190613b29565b6115b2565b6040516104cd9190613b56565b60405180910390f35b3480156104e257600080fd5b506104fd60048036038101906104f89190613b91565b6115d2565b005b34801561050b57600080fd5b5061052660048036038101906105219190613b29565b611b15565b005b34801561053457600080fd5b5061053d611c57565b60405161054a91906138a8565b60405180910390f35b34801561055f57600080fd5b50610568611caf565b6040516105759190613a11565b60405180910390f35b60026020528060005260406000206000915090508060000160009054906101000a900473ffffffffffffffffffffffffffffffffffffffff16908060010160009054906101000a900473ffffffffffffffffffffffffffffffffffffffff16908060020160009054906101000a900473ffffffffffffffffffffffffffffffffffffffff16908060030160009054906101000a900473ffffffffffffffffffffffffffffffffffffffff16908060040154908060050154908060060154905087565b60006106ad7f03ef1cad4f4f0ecc82305809e4c7b95ef97e386da618e54fbc8199c1b1227f0d846106808580360381019061067b9190613cb7565b611ce8565b60405160200161069293929190613ce4565b60405160208183030381529060405280519060200120611d4a565b905092915050565b60008054906101000a900473ffffffffffffffffffffffffffffffffffffffff1673ffffffffffffffffffffffffffffffffffffffff163373ffffffffffffffffffffffffffffffffffffffff161461073a576040517f5fc483c500000000000000000000000000000000000000000000000000000000815260040160405180910390fd5b80600160008473ffffffffffffffffffffffffffffffffffffffff1673ffffffffffffffffffffffffffffffffffffffff16815260200190815260200160002060006101000a81548160ff0219169083151502179055508173ffffffffffffffffffffffffffffffffffffffff167f1da521c13439ac6ab125c52e0da7dd7de929f09e58aa0f89ebe3dbb12e63a52b826040516107d79190613b56565b60405180910390a25050565b60006107ed6132b9565b600260008481526020019081526020016000206040518060e00160405290816000820160009054906101000a900473ffffffffffffffffffffffffffffffffffffffff1673ffffffffffffffffffffffffffffffffffffffff1673ffffffffffffffffffffffffffffffffffffffff1681526020016001820160009054906101000a900473ffffffffffffffffffffffffffffffffffffffff1673ffffffffffffffffffffffffffffffffffffffff1673ffffffffffffffffffffffffffffffffffffffff1681526020016002820160009054906101000a900473ffffffffffffffffffffffffffffffffffffffff1673ffffffffffffffffffffffffffffffffffffffff1673ffffffffffffffffffffffffffffffffffffffff1681526020016003820160009054906101000a900473ffffffffffffffffffffffffffffffffffffffff1673ffffffffffffffffffffffffffffffffffffffff1673ffffffffffffffffffffffffffffffffffffffff16815260200160048201548152602001600582015481526020016006820154815250509050600073ffffffffffffffffffffffffffffffffffffffff16816000015173ffffffffffffffffffffffffffffffffffffffff16141580156109c8575060008160800151115b9150915091565b7f000000000000000000000000000000000000000000000000000000000000000081565b4283604001351015610a31576040517f0819bdcd00000000000000000000000000000000000000000000000000000000815260040160405180910390fd5b6000610a47610a408686610640565b8484611d9c565b9050610a64858286803603810190610a5f9190613cb7565b611f21565b50505050505050565b606060038054905083101580610a835750600082145b15610ad957600067ffffffffffffffff811115610aa357610aa2613bd8565b5b604051908082528060200260200182016040528015610ad15781602001602082028036833780820191505090505b509050610bba565b60008284610ae79190613d4a565b9050600380549050811115610aff5760038054905090505b8381610b0b9190613d7e565b67ffffffffffffffff811115610b2457610b23613bd8565b5b604051908082528060200260200182016040528015610b525781602001602082028036833780820191505090505b50915060008490505b81811015610bb75760038181548110610b7757610b76613db2565b5b9060005260206000200154838683610b8f9190613d7e565b81518110610ba057610b9f613db2565b5b602002602001018181525050806001019050610b5b565b50505b92915050565b6000610c2d7f13a45644d363281a7f20a6a405b1bda94dc8e46215533a87d1e3864c7843b3f084610c0085803603810190610bfb9190613cb7565b611ce8565b604051602001610c1293929190613ce4565b60405160208183030381529060405280519060200120611d4a565b905092915050565b610c7381336040518060600160405280600073ffffffffffffffffffffffffffffffffffffffff168152602001600081526020016000815250611f21565b505050565b60008054906101000a900473ffffffffffffffffffffffffffffffffffffffff1681565b600073ffffffffffffffffffffffffffffffffffffffff16826000016020810190610cc79190613b29565b73ffffffffffffffffffffffffffffffffffffffff1603610d14576040517fcd6cc6e200000000000000000000000000000000000000000000000000000000815260040160405180910390fd5b600073ffffffffffffffffffffffffffffffffffffffff16816080016020810190610d3f9190613b29565b73ffffffffffffffffffffffffffffffffffffffff1614610d8c576040517f936bb5ad00000000000000000000000000000000000000000000000000000000815260040160405180910390fd5b60004790506000836000016020810190610da69190613b29565b73ffffffffffffffffffffffffffffffffffffffff16633648a80785602001358660400135876060016020810190610dde9190613b29565b88608001358960a0016020810190610df69190613e1a565b8a60c001358b60e001356040518863ffffffff1660e01b8152600401610e229796959493929190613e56565b6020604051808303816000875af1158015610e41573d6000803e3d6000fd5b505050506040513d601f19601f82011682018060405250810190610e659190613eda565b9050826020016020810190610e7a9190613b29565b73ffffffffffffffffffffffffffffffffffffffff168173ffffffffffffffffffffffffffffffffffffffff1614610ede576040517f8957efdb00000000000000000000000000000000000000000000000000000000815260040160405180910390fd5b60008247610eec9190613d7e565b905084604001358114610f2b576040517f8fb40e6700000000000000000000000000000000000000000000000000000000815260040160405180910390fd5b610f7e8460000135856020016020810190610f469190613b29565b866040016020810190610f599190613b29565b876060016020810190610f6c9190613b29565b60008960a001358a60c00135886122ea565b5050505050565b6103e881565b6040518060400160405280601181526020017f486f737472204d756c7469457363726f7700000000000000000000000000000081525081565b611001816040518060600160405280600073ffffffffffffffffffffffffffffffffffffffff168152602001600081526020016000815250612656565b5050565b4283604001351015611043576040517f0819bdcd00000000000000000000000000000000000000000000000000000000815260040160405180910390fd5b600060026000868152602001908152602001600020905060006110706110698787610bc0565b8585611d9c565b90508160010160009054906101000a900473ffffffffffffffffffffffffffffffffffffffff1673ffffffffffffffffffffffffffffffffffffffff168173ffffffffffffffffffffffffffffffffffffffff16146110fb576040517f85d1f72600000000000000000000000000000000000000000000000000000000815260040160405180910390fd5b61111586868036038101906111109190613cb7565b612656565b50505050505050565b60008073ffffffffffffffffffffffffffffffffffffffff168573ffffffffffffffffffffffffffffffffffffffff160361115b5734905061132b565b600160008673ffffffffffffffffffffffffffffffffffffffff1673ffffffffffffffffffffffffffffffffffffffff16815260200190815260200160002060009054906101000a900460ff166111de576040517fa29c498600000000000000000000000000000000000000000000000000000000815260040160405180910390fd5b60003414611218576040517f3b40256e00000000000000000000000000000000000000000000000000000000815260040160405180910390fd5b60008573ffffffffffffffffffffffffffffffffffffffff166370a08231306040518263ffffffff1660e01b815260040161125391906138ca565b602060405180830381865afa158015611270573d6000803e3d6000fd5b505050506040513d601f19601f820116820180604052508101906112949190613f1c565b90506112a286333088612973565b808673ffffffffffffffffffffffffffffffffffffffff166370a08231306040518263ffffffff1660e01b81526004016112dc91906138ca565b602060405180830381865afa1580156112f9573d6000803e3d6000fd5b505050506040513d601f19601f8201168201806040525081019061131d9190613f1c565b6113279190613d7e565b9150505b61133b89898989898888886122ea565b505050505050505050565b816002600082815260200190815260200160002060020160009054906101000a900473ffffffffffffffffffffffffffffffffffffffff1673ffffffffffffffffffffffffffffffffffffffff163373ffffffffffffffffffffffffffffffffffffffff16146113e2576040517fe598e3ce00000000000000000000000000000000000000000000000000000000815260040160405180910390fd5b60006002600085815260200190815260200160002090506000816004015403611437576040517fb7cc22bc00000000000000000000000000000000000000000000000000000000815260040160405180910390fd5b6103e8831115611473576040517f3fb86fe200000000000000000000000000000000000000000000000000000000815260040160405180910390fd5b60008160010160009054906101000a900473ffffffffffffffffffffffffffffffffffffffff16905060008260000160009054906101000a900473ffffffffffffffffffffffffffffffffffffffff16905060008360030160009054906101000a900473ffffffffffffffffffffffffffffffffffffffff1690506000846006015485600401546115049190613d7e565b905060006103e888836115179190613f49565b6115219190613fba565b9050600081836115319190613d7e565b90506115438a87848885600080612ac5565b508373ffffffffffffffffffffffffffffffffffffffff168a7f623e377ab513cf936d61518f8661e47f2f4b431587b95c4f3520af5b644e25fe8888878e6040516115919493929190613feb565b60405180910390a350505050505050505050565b6000600380549050905090565b60016020528060005260406000206000915054906101000a900460ff1681565b600073ffffffffffffffffffffffffffffffffffffffff168260000160208101906115fd9190613b29565b73ffffffffffffffffffffffffffffffffffffffff160361164a576040517fcd6cc6e200000000000000000000000000000000000000000000000000000000815260040160405180910390fd5b600073ffffffffffffffffffffffffffffffffffffffff168160800160208101906116759190613b29565b73ffffffffffffffffffffffffffffffffffffffff16036116c2576040517f936bb5ad00000000000000000000000000000000000000000000000000000000815260040160405180910390fd5b600160008260800160208101906116d99190613b29565b73ffffffffffffffffffffffffffffffffffffffff1673ffffffffffffffffffffffffffffffffffffffff16815260200190815260200160002060009054906101000a900460ff16611757576040517fa29c498600000000000000000000000000000000000000000000000000000000815260040160405180910390fd5b81606001602081019061176a9190613b29565b73ffffffffffffffffffffffffffffffffffffffff168160800160208101906117939190613b29565b73ffffffffffffffffffffffffffffffffffffffff16146117e0576040517f936bb5ad00000000000000000000000000000000000000000000000000000000815260040160405180910390fd5b60008160800160208101906117f59190613b29565b73ffffffffffffffffffffffffffffffffffffffff166370a08231306040518263ffffffff1660e01b815260040161182d91906138ca565b602060405180830381865afa15801561184a573d6000803e3d6000fd5b505050506040513d601f19601f8201168201806040525081019061186e9190613f1c565b905060008360000160208101906118859190613b29565b73ffffffffffffffffffffffffffffffffffffffff1663b2b78df8856020013586604001358760600160208101906118bd9190613b29565b8860800160208101906118d09190613b29565b8960a001358a60c00160208101906118e89190613e1a565b8b60e001358c61010001356040518963ffffffff1660e01b8152600401611916989796959493929190614030565b6020604051808303816000875af1158015611935573d6000803e3d6000fd5b505050506040513d601f19601f820116820180604052508101906119599190613eda565b905082602001602081019061196e9190613b29565b73ffffffffffffffffffffffffffffffffffffffff168173ffffffffffffffffffffffffffffffffffffffff16146119d2576040517f8957efdb00000000000000000000000000000000000000000000000000000000815260040160405180910390fd5b6000828460800160208101906119e89190613b29565b73ffffffffffffffffffffffffffffffffffffffff166370a08231306040518263ffffffff1660e01b8152600401611a2091906138ca565b602060405180830381865afa158015611a3d573d6000803e3d6000fd5b505050506040513d601f19601f82011682018060405250810190611a619190613f1c565b611a6b9190613d7e565b905084604001358114611aaa576040517f8fb40e6700000000000000000000000000000000000000000000000000000000815260040160405180910390fd5b611b0e8460000135856020016020810190611ac59190613b29565b866040016020810190611ad89190613b29565b876060016020810190611aeb9190613b29565b886080016020810190611afe9190613b29565b8960a001358a60c00135886122ea565b5050505050565b60008054906101000a900473ffffffffffffffffffffffffffffffffffffffff1673ffffffffffffffffffffffffffffffffffffffff163373ffffffffffffffffffffffffffffffffffffffff1614611b9a576040517f5fc483c500000000000000000000000000000000000000000000000000000000815260040160405180910390fd5b8073ffffffffffffffffffffffffffffffffffffffff1660008054906101000a900473ffffffffffffffffffffffffffffffffffffffff1673ffffffffffffffffffffffffffffffffffffffff167f8be0079c531659141344cd1fd0a4f28419497f9722a3daafe3b4186f6b6457e060405160405180910390a3806000806101000a81548173ffffffffffffffffffffffffffffffffffffffff021916908373ffffffffffffffffffffffffffffffffffffffff16021790555050565b60606003805480602002602001604051908101604052809291908181526020018280548015611ca557602002820191906000526020600020905b815481526020019060010190808311611c91575b5050505050905090565b6040518060400160405280600181526020017f330000000000000000000000000000000000000000000000000000000000000081525081565b60007fce34b5cb5e3c72f18a8f249c48fb28ec4112ffa5f575d3a2fe8baf353e169793826000015183602001518460400151604051602001611d2d94939291906140ae565b604051602081830303815290604052805190602001209050919050565b60007f000000000000000000000000000000000000000000000000000000000000000082604051602001611d7f92919061416b565b604051602081830303815290604052805190602001209050919050565b600060418383905014611ddb576040517f8baa579f00000000000000000000000000000000000000000000000000000000815260040160405180910390fd5b60008060008535925060208601359150604086013560001a9050601b8160ff161015611e1157601b81611e0e91906141a2565b90505b601b8160ff1614158015611e295750601c8160ff1614155b15611e60576040517f8baa579f00000000000000000000000000000000000000000000000000000000815260040160405180910390fd5b60018782858560405160008152602001604052604051611e8394939291906141d7565b6020604051602081039080840390855afa158015611ea5573d6000803e3d6000fd5b505050602060405103519350600073ffffffffffffffffffffffffffffffffffffffff168473ffffffffffffffffffffffffffffffffffffffff1603611f17576040517f8baa579f00000000000000000000000000000000000000000000000000000000815260040160405180910390fd5b5050509392505050565b60008060006002600087815260200190815260200160002090506000816004015403611f79576040517fb7cc22bc00000000000000000000000000000000000000000000000000000000815260040160405180910390fd5b611f8284612dd7565b60008160030160009054906101000a900473ffffffffffffffffffffffffffffffffffffffff1690508160010160009054906101000a900473ffffffffffffffffffffffffffffffffffffffff1673ffffffffffffffffffffffffffffffffffffffff168673ffffffffffffffffffffffffffffffffffffffff160361202e578160000160009054906101000a900473ffffffffffffffffffffffffffffffffffffffff1693506120e4565b8160000160009054906101000a900473ffffffffffffffffffffffffffffffffffffffff1673ffffffffffffffffffffffffffffffffffffffff168673ffffffffffffffffffffffffffffffffffffffff16036120b1578160010160009054906101000a900473ffffffffffffffffffffffffffffffffffffffff1693506120e3565b6040517f39fc5e0a00000000000000000000000000000000000000000000000000000000815260040160405180910390fd5b5b61226f826040518060e00160405290816000820160009054906101000a900473ffffffffffffffffffffffffffffffffffffffff1673ffffffffffffffffffffffffffffffffffffffff1673ffffffffffffffffffffffffffffffffffffffff1681526020016001820160009054906101000a900473ffffffffffffffffffffffffffffffffffffffff1673ffffffffffffffffffffffffffffffffffffffff1673ffffffffffffffffffffffffffffffffffffffff1681526020016002820160009054906101000a900473ffffffffffffffffffffffffffffffffffffffff1673ffffffffffffffffffffffffffffffffffffffff1673ffffffffffffffffffffffffffffffffffffffff1681526020016003820160009054906101000a900473ffffffffffffffffffffffffffffffffffffffff1673ffffffffffffffffffffffffffffffffffffffff1673ffffffffffffffffffffffffffffffffffffffff168152602001600482015481526020016005820154815260200160068201548152505086612e55565b508093505061228c8785856000808a600001518b60200151612ac5565b508073ffffffffffffffffffffffffffffffffffffffff16877f07ef9f79b306ce9a89bf8e1f834a172a0a005ac528a32962db99b24acb9933ab8887876040516122d89392919061421c565b60405180910390a35050935093915050565b600073ffffffffffffffffffffffffffffffffffffffff16600260008a815260200190815260200160002060000160009054906101000a900473ffffffffffffffffffffffffffffffffffffffff1673ffffffffffffffffffffffffffffffffffffffff1614612386576040517f7505eadc00000000000000000000000000000000000000000000000000000000815260040160405180910390fd5b600081036123c0576040517f29ce3ded00000000000000000000000000000000000000000000000000000000815260040160405180910390fd5b808211156123fa576040517f3a4ffe3a00000000000000000000000000000000000000000000000000000000815260040160405180910390fd5b6040518060e001604052808873ffffffffffffffffffffffffffffffffffffffff1681526020018773ffffffffffffffffffffffffffffffffffffffff1681526020018673ffffffffffffffffffffffffffffffffffffffff1681526020018573ffffffffffffffffffffffffffffffffffffffff16815260200182815260200184815260200183815250600260008a815260200190815260200160002060008201518160000160006101000a81548173ffffffffffffffffffffffffffffffffffffffff021916908373ffffffffffffffffffffffffffffffffffffffff16021790555060208201518160010160006101000a81548173ffffffffffffffffffffffffffffffffffffffff021916908373ffffffffffffffffffffffffffffffffffffffff16021790555060408201518160020160006101000a81548173ffffffffffffffffffffffffffffffffffffffff021916908373ffffffffffffffffffffffffffffffffffffffff16021790555060608201518160030160006101000a81548173ffffffffffffffffffffffffffffffffffffffff021916908373ffffffffffffffffffffffffffffffffffffffff1602179055506080820151816004015560a0820151816005015560c082015181600601559050506125de88612ec4565b8473ffffffffffffffffffffffffffffffffffffffff168473ffffffffffffffffffffffffffffffffffffffff16897fd64d9285bd5f87d9d4796ea61b584fb4009ff23758a031710a6af3a6788bd69c898b868989604051612644959493929190614253565b60405180910390a45050505050505050565b600080600260008581526020019081526020016000209050806005015442116126ab576040517f916da0d100000000000000000000000000000000000000000000000000000000815260040160405180910390fd5b60008160040154036126e9576040517fdff46e2b00000000000000000000000000000000000000000000000000000000815260040160405180910390fd5b6126f283612dd7565b60008160010160009054906101000a900473ffffffffffffffffffffffffffffffffffffffff16905060008260000160009054906101000a900473ffffffffffffffffffffffffffffffffffffffff16905060008360030160009054906101000a900473ffffffffffffffffffffffffffffffffffffffff1690506128f8846040518060e00160405290816000820160009054906101000a900473ffffffffffffffffffffffffffffffffffffffff1673ffffffffffffffffffffffffffffffffffffffff1673ffffffffffffffffffffffffffffffffffffffff1681526020016001820160009054906101000a900473ffffffffffffffffffffffffffffffffffffffff1673ffffffffffffffffffffffffffffffffffffffff1673ffffffffffffffffffffffffffffffffffffffff1681526020016002820160009054906101000a900473ffffffffffffffffffffffffffffffffffffffff1673ffffffffffffffffffffffffffffffffffffffff1673ffffffffffffffffffffffffffffffffffffffff1681526020016003820160009054906101000a900473ffffffffffffffffffffffffffffffffffffffff1673ffffffffffffffffffffffffffffffffffffffff1673ffffffffffffffffffffffffffffffffffffffff168152602001600482015481526020016005820154815260200160068201548152505087612e55565b50809550506129158784876000808b600001518c60200151612ac5565b508073ffffffffffffffffffffffffffffffffffffffff16877f8c18dc0a2c06d397feb6dd44b409d75c443e6cfbe8cd39e19619d7809ff9b8748585896040516129619392919061421c565b60405180910390a35050505092915050565b6000808573ffffffffffffffffffffffffffffffffffffffff166323b872dd60e01b8686866040516024016129aa9392919061421c565b604051602081830303815290604052907bffffffffffffffffffffffffffffffffffffffffffffffffffffffff19166020820180517bffffffffffffffffffffffffffffffffffffffffffffffffffffffff8381831617835250505050604051612a1491906142ed565b6000604051808303816000865af19150503d8060008114612a51576040519150601f19603f3d011682016040523d82523d6000602084013e612a56565b606091505b5091509150811580612a86575060008151118015612a85575080806020019051810190612a839190614319565b155b5b15612abd576040517ff27f64e400000000000000000000000000000000000000000000000000000000815260040160405180910390fd5b505050505050565b600080600260008a81526020019081526020016000206040518060e00160405290816000820160009054906101000a900473ffffffffffffffffffffffffffffffffffffffff1673ffffffffffffffffffffffffffffffffffffffff1673ffffffffffffffffffffffffffffffffffffffff1681526020016001820160009054906101000a900473ffffffffffffffffffffffffffffffffffffffff1673ffffffffffffffffffffffffffffffffffffffff1673ffffffffffffffffffffffffffffffffffffffff1681526020016002820160009054906101000a900473ffffffffffffffffffffffffffffffffffffffff1673ffffffffffffffffffffffffffffffffffffffff1673ffffffffffffffffffffffffffffffffffffffff1681526020016003820160009054906101000a900473ffffffffffffffffffffffffffffffffffffffff1673ffffffffffffffffffffffffffffffffffffffff1673ffffffffffffffffffffffffffffffffffffffff168152602001600482015481526020016005820154815260200160068201548152505090508060c001519150600081606001519050612c778a612f5a565b600260008b8152602001908152602001600020600080820160006101000a81549073ffffffffffffffffffffffffffffffffffffffff02191690556001820160006101000a81549073ffffffffffffffffffffffffffffffffffffffff02191690556002820160006101000a81549073ffffffffffffffffffffffffffffffffffffffff02191690556003820160006101000a81549073ffffffffffffffffffffffffffffffffffffffff02191690556004820160009055600582016000905560068201600090555050612d5081836040015185613082565b612d5b818a8a613082565b612d66818888613082565b612d71818686613082565b6000841115612dca578473ffffffffffffffffffffffffffffffffffffffff168a7fa337b9dd1c538459002a493de188d901fe5329c1dc5b5a9e5eb3f05b0e5e350386604051612dc19190613966565b60405180910390a35b5050979650505050505050565b60008160200151118015612e1b5750600073ffffffffffffffffffffffffffffffffffffffff16816000015173ffffffffffffffffffffffffffffffffffffffff16145b15612e52576040517f768dc59800000000000000000000000000000000000000000000000000000000815260040160405180910390fd5b50565b6000808360c001518460800151612e6c9190613d7e565b91508260200151905081811115612eaf576040517f4d268ba900000000000000000000000000000000000000000000000000000000815260040160405180910390fd5b8082612ebb9190613d7e565b91509250929050565b6000600460008381526020019081526020016000205414612f11576040517fca4b8ad600000000000000000000000000000000000000000000000000000000815260040160405180910390fd5b6003819080600181540180825580915050600190039060005260206000200160009091909190915055600380549050600460008381526020019081526020016000208190555050565b60006004600083815260200190815260200160002054905060008103612fac576040517fb95c5dfc00000000000000000000000000000000000000000000000000000000815260040160405180910390fd5b600060018203905060006001600380549050612fc89190613d7e565b905080821461303d57600060038281548110612fe757612fe6613db2565b5b90600052602060002001549050806003848154811061300957613008613db2565b5b90600052602060002001819055506001836130249190613d4a565b6004600083815260200190815260200160002081905550505b600380548061304f5761304e614346565b5b60019003818190600052602060002001600090559055600460008581526020019081526020016000206000905550505050565b60008103156132b457600073ffffffffffffffffffffffffffffffffffffffff168373ffffffffffffffffffffffffffffffffffffffff16036131685760008273ffffffffffffffffffffffffffffffffffffffff16826040516130e59061439b565b60006040518083038185875af1925050503d8060008114613122576040519150601f19603f3d011682016040523d82523d6000602084013e613127565b606091505b5050905080613162576040517ff4b3b1bc00000000000000000000000000000000000000000000000000000000815260040160405180910390fd5b506132b3565b6000808473ffffffffffffffffffffffffffffffffffffffff1663a9059cbb60e01b858560405160240161319d9291906143b0565b604051602081830303815290604052907bffffffffffffffffffffffffffffffffffffffffffffffffffffffff19166020820180517bffffffffffffffffffffffffffffffffffffffffffffffffffffffff838183161783525050505060405161320791906142ed565b6000604051808303816000865af19150503d8060008114613244576040519150601f19603f3d011682016040523d82523d6000602084013e613249565b606091505b50915091508115806132795750600081511180156132785750808060200190518101906132769190614319565b155b5b156132b0576040517ff27f64e400000000000000000000000000000000000000000000000000000000815260040160405180910390fd5b50505b5b505050565b6040518060e00160405280600073ffffffffffffffffffffffffffffffffffffffff168152602001600073ffffffffffffffffffffffffffffffffffffffff168152602001600073ffffffffffffffffffffffffffffffffffffffff168152602001600073ffffffffffffffffffffffffffffffffffffffff1681526020016000815260200160008152602001600081525090565b6000604051905090565b600080fd5b600080fd5b6000819050919050565b61337581613362565b811461338057600080fd5b50565b6000813590506133928161336c565b92915050565b6000602082840312156133ae576133ad613358565b5b60006133bc84828501613383565b91505092915050565b600073ffffffffffffffffffffffffffffffffffffffff82169050919050565b60006133f0826133c5565b9050919050565b613400816133e5565b82525050565b6000819050919050565b61341981613406565b82525050565b600060e082019050613434600083018a6133f7565b61344160208301896133f7565b61344e60408301886133f7565b61345b60608301876133f7565b6134686080830186613410565b61347560a0830185613410565b61348260c0830184613410565b98975050505050505050565b600080fd5b6000606082840312156134a9576134a861348e565b5b81905092915050565b600080608083850312156134c9576134c8613358565b5b60006134d785828601613383565b92505060206134e885828601613493565b9150509250929050565b6134fb81613362565b82525050565b600060208201905061351660008301846134f2565b92915050565b613525816133e5565b811461353057600080fd5b50565b6000813590506135428161351c565b92915050565b60008115159050919050565b61355d81613548565b811461356857600080fd5b50565b60008135905061357a81613554565b92915050565b6000806040838503121561359757613596613358565b5b60006135a585828601613533565b92505060206135b68582860161356b565b9150509250929050565b6135c981613548565b82525050565b6135d8816133e5565b82525050565b6135e781613406565b82525050565b60e08201600082015161360360008501826135cf565b50602082015161361660208501826135cf565b50604082015161362960408501826135cf565b50606082015161363c60608501826135cf565b50608082015161364f60808501826135de565b5060a082015161366260a08501826135de565b5060c082015161367560c08501826135de565b50505050565b60006101008201905061369160008301856135c0565b61369e60208301846135ed565b9392505050565b600080fd5b600080fd5b600080fd5b60008083601f8401126136ca576136c96136a5565b5b8235905067ffffffffffffffff8111156136e7576136e66136aa565b5b602083019150836001820283011115613703576137026136af565b5b9250929050565b60008060008060a0858703121561372457613723613358565b5b600061373287828801613383565b945050602061374387828801613493565b935050608085013567ffffffffffffffff8111156137645761376361335d565b5b613770878288016136b4565b925092505092959194509250565b61378781613406565b811461379257600080fd5b50565b6000813590506137a48161377e565b92915050565b600080604083850312156137c1576137c0613358565b5b60006137cf85828601613795565b92505060206137e085828601613795565b9150509250929050565b600081519050919050565b600082825260208201905092915050565b6000819050602082019050919050565b61381f81613362565b82525050565b60006138318383613816565b60208301905092915050565b6000602082019050919050565b6000613855826137ea565b61385f81856137f5565b935061386a83613806565b8060005b8381101561389b5781516138828882613825565b975061388d8361383d565b92505060018101905061386e565b5085935050505092915050565b600060208201905081810360008301526138c2818461384a565b905092915050565b60006020820190506138df60008301846133f7565b92915050565b600061010082840312156138fc576138fb61348e565b5b81905092915050565b600060e0828403121561391b5761391a61348e565b5b81905092915050565b6000806101e0838503121561393c5761393b613358565b5b600061394a858286016138e5565b92505061010061395c85828601613905565b9150509250929050565b600060208201905061397b6000830184613410565b92915050565b600081519050919050565b600082825260208201905092915050565b60005b838110156139bb5780820151818401526020810190506139a0565b60008484015250505050565b6000601f19601f8301169050919050565b60006139e382613981565b6139ed818561398c565b93506139fd81856020860161399d565b613a06816139c7565b840191505092915050565b60006020820190508181036000830152613a2b81846139d8565b905092915050565b600080600080600080600080610100898b031215613a5457613a53613358565b5b6000613a628b828c01613383565b9850506020613a738b828c01613533565b9750506040613a848b828c01613533565b9650506060613a958b828c01613533565b9550506080613aa68b828c01613533565b94505060a0613ab78b828c01613795565b93505060c0613ac88b828c01613795565b92505060e0613ad98b828c01613795565b9150509295985092959890939650565b60008060408385031215613b0057613aff613358565b5b6000613b0e85828601613383565b9250506020613b1f85828601613795565b9150509250929050565b600060208284031215613b3f57613b3e613358565b5b6000613b4d84828501613533565b91505092915050565b6000602082019050613b6b60008301846135c0565b92915050565b60006101208284031215613b8857613b8761348e565b5b81905092915050565b6000806102008385031215613ba957613ba8613358565b5b6000613bb785828601613b71565b925050610120613bc985828601613905565b9150509250929050565b600080fd5b7f4e487b7100000000000000000000000000000000000000000000000000000000600052604160045260246000fd5b613c10826139c7565b810181811067ffffffffffffffff82111715613c2f57613c2e613bd8565b5b80604052505050565b6000613c4261334e565b9050613c4e8282613c07565b919050565b600060608284031215613c6957613c68613bd3565b5b613c736060613c38565b90506000613c8384828501613533565b6000830152506020613c9784828501613795565b6020830152506040613cab84828501613795565b60408301525092915050565b600060608284031215613ccd57613ccc613358565b5b6000613cdb84828501613c53565b91505092915050565b6000606082019050613cf960008301866134f2565b613d0660208301856134f2565b613d1360408301846134f2565b949350505050565b7f4e487b7100000000000000000000000000000000000000000000000000000000600052601160045260246000fd5b6000613d5582613406565b9150613d6083613406565b9250828201905080821115613d7857613d77613d1b565b5b92915050565b6000613d8982613406565b9150613d9483613406565b9250828203905081811115613dac57613dab613d1b565b5b92915050565b7f4e487b7100000000000000000000000000000000000000000000000000000000600052603260045260246000fd5b600060ff82169050919050565b613df781613de1565b8114613e0257600080fd5b50565b600081359050613e1481613dee565b92915050565b600060208284031215613e3057613e2f613358565b5b6000613e3e84828501613e05565b91505092915050565b613e5081613de1565b82525050565b600060e082019050613e6b600083018a6134f2565b613e786020830189613410565b613e8560408301886133f7565b613e926060830187613410565b613e9f6080830186613e47565b613eac60a08301856134f2565b613eb960c08301846134f2565b98975050505050505050565b600081519050613ed48161351c565b92915050565b600060208284031215613ef057613eef613358565b5b6000613efe84828501613ec5565b91505092915050565b600081519050613f168161377e565b92915050565b600060208284031215613f3257613f31613358565b5b6000613f4084828501613f07565b91505092915050565b6000613f5482613406565b9150613f5f83613406565b9250828202613f6d81613406565b91508282048414831517613f8457613f83613d1b565b5b5092915050565b7f4e487b7100000000000000000000000000000000000000000000000000000000600052601260045260246000fd5b6000613fc582613406565b9150613fd083613406565b925082613fe057613fdf613f8b565b5b828204905092915050565b600060808201905061400060008301876133f7565b61400d60208301866133f7565b61401a6040830185613410565b6140276060830184613410565b95945050505050565b600061010082019050614046600083018b6134f2565b614053602083018a613410565b61406060408301896133f7565b61406d60608301886133f7565b61407a6080830187613410565b61408760a0830186613e47565b61409460c08301856134f2565b6140a160e08301846134f2565b9998505050505050505050565b60006080820190506140c360008301876134f2565b6140d060208301866133f7565b6140dd6040830185613410565b6140ea6060830184613410565b95945050505050565b600081905092915050565b7f1901000000000000000000000000000000000000000000000000000000000000600082015250565b60006141346002836140f3565b915061413f826140fe565b600282019050919050565b6000819050919050565b61416561416082613362565b61414a565b82525050565b600061417682614127565b91506141828285614154565b6020820191506141928284614154565b6020820191508190509392505050565b60006141ad82613de1565b91506141b883613de1565b9250828201905060ff8111156141d1576141d0613d1b565b5b92915050565b60006080820190506141ec60008301876134f2565b6141f96020830186613e47565b61420660408301856134f2565b61421360608301846134f2565b95945050505050565b600060608201905061423160008301866133f7565b61423e60208301856133f7565b61424b6040830184613410565b949350505050565b600060a08201905061426860008301886133f7565b61427560208301876133f7565b6142826040830186613410565b61428f6060830185613410565b61429c6080830184613410565b9695505050505050565b600081519050919050565b600081905092915050565b60006142c7826142a6565b6142d181856142b1565b93506142e181856020860161399d565b80840191505092915050565b60006142f982846142bc565b915081905092915050565b60008151905061431381613554565b92915050565b60006020828403121561432f5761432e613358565b5b600061433d84828501614304565b91505092915050565b7f4e487b7100000000000000000000000000000000000000000000000000000000600052603160045260246000fd5b50565b60006143856000836142b1565b915061439082614375565b600082019050919050565b60006143a682614378565b9150819050919050565b60006040820190506143c560008301856133f7565b6143d26020830184613410565b939250505056fea26469706673582212200527a3f5a0b48bc8b85cf75d0f9e503ce76af142c72a6a70e6de9aee4769f3c664736f6c634300081c0033",
  "linkReferences": {},
  "deployedLinkReferences": {}
}