{
  "_format": "hh-sol-artifact-1",
  "contractName": "MultiEscrow",
  "sourceName": "contracts/MultiEscrow.sol",
  "abi": [
    {
      "inputs": [],
      "name": "ClaimPeriodNotStarted",
      "type": "error"
    },
    {
      "inputs": [],
      "name": "InvalidFactor",
      "type": "error"
    },
    {
      "inputs": [],
      "name": "InvalidUnlockAt",
      "type": "error"
    },
    {
      "inputs": [],
      "name": "MustSendFunds",
      "type": "error"
    },
    {
      "inputs": [],
      "name": "NoFundsToClaim",
      "type": "error"
    },
    {
      "inputs": [],
      "name": "NoFundsToRelease",
      "type": "error"
    },
    {
      "inputs": [],
      "name": "OnlyArbiter",
      "type": "error"
    },
    {
      "inputs": [],
      "name": "OnlyBuyerOrSeller",
      "type": "error"
    },
    {
      "inputs": [],
      "name": "OnlySeller",
      "type": "error"
    },
    {
      "inputs": [],
      "name": "TradeAlreadyActive",
      "type": "error"
    },
    {
      "inputs": [],
      "name": "TradeIdAlreadyExists",
      "type": "error"
    },
    {
      "inputs": [],
      "name": "TradeNotActive",
      "type": "error"
    },
    {
      "anonymous": false,
      "inputs": [
        {
          "indexed": true,
          "internalType": "bytes32",
          "name": "tradeId",
          "type": "bytes32"
        },
        {
          "indexed": false,
          "internalType": "address",
          "name": "seller",
          "type": "address"
        },
        {
          "indexed": false,
          "internalType": "address",
          "name": "buyer",
          "type": "address"
        },
        {
          "indexed": false,
          "internalType": "uint256",
          "name": "amount",
          "type": "uint256"
        },
        {
          "indexed": false,
          "internalType": "uint256",
          "name": "fractionForwarded",
          "type": "uint256"
        }
      ],
      "name": "Arbitrated",
      "type": "event"
    },
    {
      "anonymous": false,
      "inputs": [
        {
          "indexed": true,
          "internalType": "bytes32",
          "name": "tradeId",
          "type": "bytes32"
        },
        {
          "indexed": false,
          "internalType": "address",
          "name": "seller",
          "type": "address"
        },
        {
          "indexed": false,
          "internalType": "address",
          "name": "buyer",
          "type": "address"
        },
        {
          "indexed": false,
          "internalType": "uint256",
          "name": "amount",
          "type": "uint256"
        }
      ],
      "name": "Claimed",
      "type": "event"
    },
    {
      "anonymous": false,
      "inputs": [
        {
          "indexed": true,
          "internalType": "bytes32",
          "name": "tradeId",
          "type": "bytes32"
        },
        {
          "indexed": false,
          "internalType": "address",
          "name": "from",
          "type": "address"
        },
        {
          "indexed": false,
          "internalType": "address",
          "name": "to",
          "type": "address"
        },
        {
          "indexed": false,
          "internalType": "uint256",
          "name": "amount",
          "type": "uint256"
        }
      ],
      "name": "ReleasedToCounterparty",
      "type": "event"
    },
    {
      "anonymous": false,
      "inputs": [
        {
          "indexed": true,
          "internalType": "bytes32",
          "name": "tradeId",
          "type": "bytes32"
        },
        {
          "indexed": false,
          "internalType": "address",
          "name": "seller",
          "type": "address"
        },
        {
          "indexed": false,
          "internalType": "address",
          "name": "buyer",
          "type": "address"
        },
        {
          "indexed": true,
          "internalType": "address",
          "name": "arbiter",
          "type": "address"
        },
        {
          "indexed": false,
          "internalType": "uint256",
          "name": "unlockAt",
          "type": "uint256"
        },
        {
          "indexed": false,
          "internalType": "uint256",
          "name": "escrowFee",
          "type": "uint256"
        }
      ],
      "name": "TradeCreated",
      "type": "event"
    },
    {
      "inputs": [],
      "name": "FACTOR_SCALE",
      "outputs": [
        {
          "internalType": "uint256",
          "name": "",
          "type": "uint256"
        }
      ],
      "stateMutability": "view",
      "type": "function"
    },
    {
      "inputs": [
        {
          "internalType": "bytes32",
          "name": "tradeId",
          "type": "bytes32"
        }
      ],
      "name": "activeTrade",
      "outputs": [
        {
          "internalType": "bool",
          "name": "isActive",
          "type": "bool"
        },
        {
          "components": [
            {
              "internalType": "address",
              "name": "buyer",
              "type": "address"
            },
            {
              "internalType": "address",
              "name": "seller",
              "type": "address"
            },
            {
              "internalType": "address",
              "name": "arbiter",
              "type": "address"
            },
            {
              "internalType": "uint256",
              "name": "amount",
              "type": "uint256"
            },
            {
              "internalType": "uint256",
              "name": "unlockAt",
              "type": "uint256"
            },
            {
              "internalType": "uint256",
              "name": "escrowFee",
              "type": "uint256"
            }
          ],
          "internalType": "struct MultiEscrow.Trade",
          "name": "trade",
          "type": "tuple"
        }
      ],
      "stateMutability": "view",
      "type": "function"
    },
    {
      "inputs": [],
      "name": "activeTradeCount",
      "outputs": [
        {
          "internalType": "uint256",
          "name": "",
          "type": "uint256"
        }
      ],
      "stateMutability": "view",
      "type": "function"
    },
    {
      "inputs": [
        {
          "internalType": "bytes32",
          "name": "tradeId",
          "type": "bytes32"
        },
        {
          "internalType": "uint256",
          "name": "factor",
          "type": "uint256"
        }
      ],
      "name": "arbitrate",
      "outputs": [],
      "stateMutability": "nonpayable",
      "type": "function"
    },
    {
      "inputs": [
        {
          "internalType": "bytes32",
          "name": "tradeId",
          "type": "bytes32"
        }
      ],
      "name": "claim",
      "outputs": [],
      "stateMutability": "nonpayable",
      "type": "function"
    },
    {
      "inputs": [
        {
          "internalType": "bytes32",
          "name": "tradeId",
          "type": "bytes32"
        },
        {
          "internalType": "address",
          "name": "_buyer",
          "type": "address"
        },
        {
          "internalType": "address",
          "name": "_seller",
          "type": "address"
        },
        {
          "internalType": "address",
          "name": "_arbiter",
          "type": "address"
        },
        {
          "internalType": "uint256",
          "name": "_unlockAt",
          "type": "uint256"
        },
        {
          "internalType": "uint256",
          "name": "_escrowFee",
          "type": "uint256"
        }
      ],
      "name": "createTrade",
      "outputs": [],
      "stateMutability": "payable",
      "type": "function"
    },
    {
      "inputs": [],
      "name": "getActiveTradeIds",
      "outputs": [
        {
          "internalType": "bytes32[]",
          "name": "",
          "type": "bytes32[]"
        }
      ],
      "stateMutability": "view",
      "type": "function"
    },
    {
      "inputs": [
        {
          "internalType": "uint256",
          "name": "offset",
          "type": "uint256"
        },
        {
          "internalType": "uint256",
          "name": "limit",
          "type": "uint256"
        }
      ],
      "name": "getActiveTradeIdsPage",
      "outputs": [
        {
          "internalType": "bytes32[]",
          "name": "ids",
          "type": "bytes32[]"
        }
      ],
      "stateMutability": "view",
      "type": "function"
    },
    {
      "inputs": [
        {
          "internalType": "bytes32",
          "name": "tradeId",
          "type": "bytes32"
        }
      ],
      "name": "releaseToCounterparty",
      "outputs": [],
      "stateMutability": "nonpayable",
      "type": "function"
    },
    {
      "inputs": [
        {
          "internalType": "bytes32",
          "name": "",
          "type": "bytes32"
        }
      ],
      "name": "trades",
      "outputs": [
        {
          "internalType": "address",
          "name": "buyer",
          "type": "address"
        },
        {
          "internalType": "address",
          "name": "seller",
          "type": "address"
        },
        {
          "internalType": "address",
          "name": "arbiter",
          "type": "address"
        },
        {
          "internalType": "uint256",
          "name": "amount",
          "type": "uint256"
        },
        {
          "internalType": "uint256",
          "name": "unlockAt",
          "type": "uint256"
        },
        {
          "internalType": "uint256",
          "name": "escrowFee",
          "type": "uint256"
        }
      ],
      "stateMutability": "view",
      "type": "function"
    }
  ],
  "bytecode": "0x6080604052348015600f57600080fd5b50611a868061001f6000396000f3fe6080604052600436106100905760003560e01c8063a1fb634511610059578063a1fb634514610197578063bd66528a146101c2578063cb2e7212146101eb578063cedc447814610214578063f42981241461023f57610090565b8062162420146100955780631ca82a93146100d7578063369ea7fc1461011557806356c48e83146101315780637a5b85841461016e575b600080fd5b3480156100a157600080fd5b506100bc60048036038101906100b791906113e9565b61026a565b6040516100ce96959493929190611470565b60405180910390f35b3480156100e357600080fd5b506100fe60048036038101906100f991906113e9565b610306565b60405161010c929190611585565b60405180910390f35b61012f600480360381019061012a9190611606565b61049b565b005b34801561013d57600080fd5b5061015860048036038101906101539190611693565b610786565b6040516101659190611791565b60405180910390f35b34801561017a57600080fd5b50610195600480360381019061019091906113e9565b6108d9565b005b3480156101a357600080fd5b506101ac610ba5565b6040516101b991906117b3565b60405180910390f35b3480156101ce57600080fd5b506101e960048036038101906101e491906113e9565b610bab565b005b3480156101f757600080fd5b50610212600480360381019061020d91906117ce565b610dcc565b005b34801561022057600080fd5b50610229611114565b60405161023691906117b3565b60405180910390f35b34801561024b57600080fd5b50610254611121565b6040516102619190611791565b60405180910390f35b60006020528060005260406000206000915090508060000160009054906101000a900473ffffffffffffffffffffffffffffffffffffffff16908060010160009054906101000a900473ffffffffffffffffffffffffffffffffffffffff16908060020160009054906101000a900473ffffffffffffffffffffffffffffffffffffffff16908060030154908060040154908060050154905086565b6000610310611336565b6000808481526020019081526020016000206040518060c00160405290816000820160009054906101000a900473ffffffffffffffffffffffffffffffffffffffff1673ffffffffffffffffffffffffffffffffffffffff1673ffffffffffffffffffffffffffffffffffffffff1681526020016001820160009054906101000a900473ffffffffffffffffffffffffffffffffffffffff1673ffffffffffffffffffffffffffffffffffffffff1673ffffffffffffffffffffffffffffffffffffffff1681526020016002820160009054906101000a900473ffffffffffffffffffffffffffffffffffffffff1673ffffffffffffffffffffffffffffffffffffffff1673ffffffffffffffffffffffffffffffffffffffff16815260200160038201548152602001600482015481526020016005820154815250509050600073ffffffffffffffffffffffffffffffffffffffff16816000015173ffffffffffffffffffffffffffffffffffffffff1614158015610494575060008160600151115b9150915091565b600073ffffffffffffffffffffffffffffffffffffffff1660008088815260200190815260200160002060000160009054906101000a900473ffffffffffffffffffffffffffffffffffffffff1673ffffffffffffffffffffffffffffffffffffffff1614610536576040517f7505eadc00000000000000000000000000000000000000000000000000000000815260040160405180910390fd5b60003403610570576040517f29ce3ded00000000000000000000000000000000000000000000000000000000815260040160405180910390fd5b4282116105a9576040517f492ca43c00000000000000000000000000000000000000000000000000000000815260040160405180910390fd5b6040518060c001604052808673ffffffffffffffffffffffffffffffffffffffff1681526020018573ffffffffffffffffffffffffffffffffffffffff1681526020018473ffffffffffffffffffffffffffffffffffffffff1681526020013481526020018381526020018281525060008088815260200190815260200160002060008201518160000160006101000a81548173ffffffffffffffffffffffffffffffffffffffff021916908373ffffffffffffffffffffffffffffffffffffffff16021790555060208201518160010160006101000a81548173ffffffffffffffffffffffffffffffffffffffff021916908373ffffffffffffffffffffffffffffffffffffffff16021790555060408201518160020160006101000a81548173ffffffffffffffffffffffffffffffffffffffff021916908373ffffffffffffffffffffffffffffffffffffffff160217905550606082015181600301556080820151816004015560a0820151816005015590505061072986611179565b8273ffffffffffffffffffffffffffffffffffffffff16867f61fe62efd283b1563a16a9e31a5294efcb8b11ed366613a1a7120efde467d5a386888686604051610776949392919061180e565b60405180910390a3505050505050565b60606001805490508310158061079c5750600082145b156107f257600067ffffffffffffffff8111156107bc576107bb611853565b5b6040519080825280602002602001820160405280156107ea5781602001602082028036833780820191505090505b5090506108d3565b6000828461080091906118b1565b90506001805490508111156108185760018054905090505b838161082491906118e5565b67ffffffffffffffff81111561083d5761083c611853565b5b60405190808252806020026020018201604052801561086b5781602001602082028036833780820191505090505b50915060008490505b818110156108d057600181815481106108905761088f611919565b5b90600052602060002001548386836108a891906118e5565b815181106108b9576108b8611919565b5b602002602001018181525050806001019050610874565b50505b92915050565b60008060008381526020019081526020016000209050600081600301540361092d576040517fb7cc22bc00000000000000000000000000000000000000000000000000000000815260040160405180910390fd5b60008160010160009054906101000a900473ffffffffffffffffffffffffffffffffffffffff1673ffffffffffffffffffffffffffffffffffffffff163373ffffffffffffffffffffffffffffffffffffffff16036109b2578160000160009054906101000a900473ffffffffffffffffffffffffffffffffffffffff169050610a68565b8160000160009054906101000a900473ffffffffffffffffffffffffffffffffffffffff1673ffffffffffffffffffffffffffffffffffffffff163373ffffffffffffffffffffffffffffffffffffffff1603610a35578160010160009054906101000a900473ffffffffffffffffffffffffffffffffffffffff169050610a67565b6040517f39fc5e0a00000000000000000000000000000000000000000000000000000000815260040160405180910390fd5b5b6000826003015490508173ffffffffffffffffffffffffffffffffffffffff166108fc829081150290604051600060405180830381858888f19350505050158015610ab7573d6000803e3d6000fd5b50837fe4eaec739c6224a3245d008777b196becba9fde9b25b3aabac54b6e3a2d120a5338484604051610aec93929190611948565b60405180910390a2610afd8461120f565b600080858152602001908152602001600020600080820160006101000a81549073ffffffffffffffffffffffffffffffffffffffff02191690556001820160006101000a81549073ffffffffffffffffffffffffffffffffffffffff02191690556002820160006101000a81549073ffffffffffffffffffffffffffffffffffffffff0219169055600382016000905560048201600090556005820160009055505050505050565b6103e881565b6000806000838152602001908152602001600020905080600401544211610bfe576040517f916da0d100000000000000000000000000000000000000000000000000000000815260040160405180910390fd5b6000816003015403610c3c576040517fdff46e2b00000000000000000000000000000000000000000000000000000000815260040160405180910390fd5b60008160030154905060008260010160009054906101000a900473ffffffffffffffffffffffffffffffffffffffff16905060008360000160009054906101000a900473ffffffffffffffffffffffffffffffffffffffff1690508173ffffffffffffffffffffffffffffffffffffffff166108fc849081150290604051600060405180830381858888f19350505050158015610cdd573d6000803e3d6000fd5b50847f8b1927e0809f1e7682bb8c52fafe4c0445fea47afef60dd27e037e91fd104d2e838386604051610d1293929190611948565b60405180910390a2610d238561120f565b600080868152602001908152602001600020600080820160006101000a81549073ffffffffffffffffffffffffffffffffffffffff02191690556001820160006101000a81549073ffffffffffffffffffffffffffffffffffffffff02191690556002820160006101000a81549073ffffffffffffffffffffffffffffffffffffffff021916905560038201600090556004820160009055600582016000905550505050505050565b8160008082815260200190815260200160002060020160009054906101000a900473ffffffffffffffffffffffffffffffffffffffff1673ffffffffffffffffffffffffffffffffffffffff163373ffffffffffffffffffffffffffffffffffffffff1614610e67576040517fe598e3ce00000000000000000000000000000000000000000000000000000000815260040160405180910390fd5b600080600085815260200190815260200160002090506000831480610e8d57506103e883115b15610ec4576040517f3fb86fe200000000000000000000000000000000000000000000000000000000815260040160405180910390fd5b60008160030154905060008260010160009054906101000a900473ffffffffffffffffffffffffffffffffffffffff16905060008360000160009054906101000a900473ffffffffffffffffffffffffffffffffffffffff16905060006064856005015485610f33919061197f565b610f3d91906119f0565b905060008185610f4d91906118e5565b905060006103e88983610f60919061197f565b610f6a91906119f0565b905060008183610f7a91906118e5565b90506000821115610fcd578573ffffffffffffffffffffffffffffffffffffffff166108fc839081150290604051600060405180830381858888f19350505050158015610fcb573d6000803e3d6000fd5b505b600081111561101e578473ffffffffffffffffffffffffffffffffffffffff166108fc829081150290604051600060405180830381858888f1935050505015801561101c573d6000803e3d6000fd5b505b8a7fcc246de485760d7415de3512dd87394e9ca2cb6995809d8c7f34151defb815188787868e604051611054949392919061180e565b60405180910390a26110658b61120f565b6000808c8152602001908152602001600020600080820160006101000a81549073ffffffffffffffffffffffffffffffffffffffff02191690556001820160006101000a81549073ffffffffffffffffffffffffffffffffffffffff02191690556002820160006101000a81549073ffffffffffffffffffffffffffffffffffffffff021916905560038201600090556004820160009055600582016000905550505050505050505050505050565b6000600180549050905090565b6060600180548060200260200160405190810160405280929190818152602001828054801561116f57602002820191906000526020600020905b81548152602001906001019080831161115b575b5050505050905090565b60006002600083815260200190815260200160002054146111c6576040517fca4b8ad600000000000000000000000000000000000000000000000000000000815260040160405180910390fd5b6001819080600181540180825580915050600190039060005260206000200160009091909190915055600180549050600260008381526020019081526020016000208190555050565b60006002600083815260200190815260200160002054905060008103611261576040517fb95c5dfc00000000000000000000000000000000000000000000000000000000815260040160405180910390fd5b600060018203905060006001808054905061127c91906118e5565b90508082146112f15760006001828154811061129b5761129a611919565b5b9060005260206000200154905080600184815481106112bd576112bc611919565b5b90600052602060002001819055506001836112d891906118b1565b6002600083815260200190815260200160002081905550505b600180548061130357611302611a21565b5b60019003818190600052602060002001600090559055600260008581526020019081526020016000206000905550505050565b6040518060c00160405280600073ffffffffffffffffffffffffffffffffffffffff168152602001600073ffffffffffffffffffffffffffffffffffffffff168152602001600073ffffffffffffffffffffffffffffffffffffffff1681526020016000815260200160008152602001600081525090565b600080fd5b6000819050919050565b6113c6816113b3565b81146113d157600080fd5b50565b6000813590506113e3816113bd565b92915050565b6000602082840312156113ff576113fe6113ae565b5b600061140d848285016113d4565b91505092915050565b600073ffffffffffffffffffffffffffffffffffffffff82169050919050565b600061144182611416565b9050919050565b61145181611436565b82525050565b6000819050919050565b61146a81611457565b82525050565b600060c0820190506114856000830189611448565b6114926020830188611448565b61149f6040830187611448565b6114ac6060830186611461565b6114b96080830185611461565b6114c660a0830184611461565b979650505050505050565b60008115159050919050565b6114e6816114d1565b82525050565b6114f581611436565b82525050565b61150481611457565b82525050565b60c08201600082015161152060008501826114ec565b50602082015161153360208501826114ec565b50604082015161154660408501826114ec565b50606082015161155960608501826114fb565b50608082015161156c60808501826114fb565b5060a082015161157f60a08501826114fb565b50505050565b600060e08201905061159a60008301856114dd565b6115a7602083018461150a565b9392505050565b6115b781611436565b81146115c257600080fd5b50565b6000813590506115d4816115ae565b92915050565b6115e381611457565b81146115ee57600080fd5b50565b600081359050611600816115da565b92915050565b60008060008060008060c08789031215611623576116226113ae565b5b600061163189828a016113d4565b965050602061164289828a016115c5565b955050604061165389828a016115c5565b945050606061166489828a016115c5565b935050608061167589828a016115f1565b92505060a061168689828a016115f1565b9150509295509295509295565b600080604083850312156116aa576116a96113ae565b5b60006116b8858286016115f1565b92505060206116c9858286016115f1565b9150509250929050565b600081519050919050565b600082825260208201905092915050565b6000819050602082019050919050565b611708816113b3565b82525050565b600061171a83836116ff565b60208301905092915050565b6000602082019050919050565b600061173e826116d3565b61174881856116de565b9350611753836116ef565b8060005b8381101561178457815161176b888261170e565b975061177683611726565b925050600181019050611757565b5085935050505092915050565b600060208201905081810360008301526117ab8184611733565b905092915050565b60006020820190506117c86000830184611461565b92915050565b600080604083850312156117e5576117e46113ae565b5b60006117f3858286016113d4565b9250506020611804858286016115f1565b9150509250929050565b60006080820190506118236000830187611448565b6118306020830186611448565b61183d6040830185611461565b61184a6060830184611461565b95945050505050565b7f4e487b7100000000000000000000000000000000000000000000000000000000600052604160045260246000fd5b7f4e487b7100000000000000000000000000000000000000000000000000000000600052601160045260246000fd5b60006118bc82611457565b91506118c783611457565b92508282019050808211156118df576118de611882565b5b92915050565b60006118f082611457565b91506118fb83611457565b925082820390508181111561191357611912611882565b5b92915050565b7f4e487b7100000000000000000000000000000000000000000000000000000000600052603260045260246000fd5b600060608201905061195d6000830186611448565b61196a6020830185611448565b6119776040830184611461565b949350505050565b600061198a82611457565b915061199583611457565b92508282026119a381611457565b915082820484148315176119ba576119b9611882565b5b5092915050565b7f4e487b7100000000000000000000000000000000000000000000000000000000600052601260045260246000fd5b60006119fb82611457565b9150611a0683611457565b925082611a1657611a156119c1565b5b828204905092915050565b7f4e487b7100000000000000000000000000000000000000000000000000000000600052603160045260246000fdfea264697066735822122080d742d58eeb5de436322f94f377a7cc966f73de16e378c24f050a35af11cbb064736f6c634300081c0033",
  "linkReferences": {},
  "deployedLinkReferences": {}
}