{
  "_format": "hh-sol-artifact-1",
  "contractName": "MultiEscrow",
  "sourceName": "contracts/MultiEscrow.sol",
  "abi": [
    {
      "inputs": [],
      "stateMutability": "nonpayable",
      "type": "constructor"
    },
    {
      "inputs": [],
      "name": "ClaimPeriodNotStarted",
      "type": "error"
    },
    {
      "inputs": [],
      "name": "ERC20TransferFailed",
      "type": "error"
    },
    {
      "inputs": [],
      "name": "EscrowFeeTooHigh",
      "type": "error"
    },
    {
      "inputs": [],
      "name": "InvalidFactor",
      "type": "error"
    },
    {
      "inputs": [],
      "name": "InvalidFeeRecipient",
      "type": "error"
    },
    {
      "inputs": [],
      "name": "InvalidSignature",
      "type": "error"
    },
    {
      "inputs": [],
      "name": "MustSendFunds",
      "type": "error"
    },
    {
      "inputs": [],
      "name": "NativeNotExpected",
      "type": "error"
    },
    {
      "inputs": [],
      "name": "NativeTransferFailed",
      "type": "error"
    },
    {
      "inputs": [],
      "name": "NoFundsToClaim",
      "type": "error"
    },
    {
      "inputs": [],
      "name": "NoFundsToRelease",
      "type": "error"
    },
    {
      "inputs": [],
      "name": "OnlyArbiter",
      "type": "error"
    },
    {
      "inputs": [],
      "name": "OnlyBuyerOrSeller",
      "type": "error"
    },
    {
      "inputs": [],
      "name": "OnlyOwner",
      "type": "error"
    },
    {
      "inputs": [],
      "name": "OnlySeller",
      "type": "error"
    },
    {
      "inputs": [],
      "name": "RelayFeeTooHigh",
      "type": "error"
    },
    {
      "inputs": [],
      "name": "SignatureExpired",
      "type": "error"
    },
    {
      "inputs": [],
      "name": "TokenNotAllowed",
      "type": "error"
    },
    {
      "inputs": [],
      "name": "TradeAlreadyActive",
      "type": "error"
    },
    {
      "inputs": [],
      "name": "TradeIdAlreadyExists",
      "type": "error"
    },
    {
      "inputs": [],
      "name": "TradeNotActive",
      "type": "error"
    },
    {
      "anonymous": false,
      "inputs": [
        {
          "indexed": true,
          "internalType": "bytes32",
          "name": "tradeId",
          "type": "bytes32"
        },
        {
          "indexed": true,
          "internalType": "address",
          "name": "token",
          "type": "address"
        },
        {
          "indexed": false,
          "internalType": "address",
          "name": "seller",
          "type": "address"
        },
        {
          "indexed": false,
          "internalType": "address",
          "name": "buyer",
          "type": "address"
        },
        {
          "indexed": false,
          "internalType": "uint256",
          "name": "amount",
          "type": "uint256"
        },
        {
          "indexed": false,
          "internalType": "uint256",
          "name": "fractionForwarded",
          "type": "uint256"
        }
      ],
      "name": "Arbitrated",
      "type": "event"
    },
    {
      "anonymous": false,
      "inputs": [
        {
          "indexed": true,
          "internalType": "bytes32",
          "name": "tradeId",
          "type": "bytes32"
        },
        {
          "indexed": true,
          "internalType": "address",
          "name": "token",
          "type": "address"
        },
        {
          "indexed": false,
          "internalType": "address",
          "name": "seller",
          "type": "address"
        },
        {
          "indexed": false,
          "internalType": "address",
          "name": "buyer",
          "type": "address"
        },
        {
          "indexed": false,
          "internalType": "uint256",
          "name": "amount",
          "type": "uint256"
        }
      ],
      "name": "Claimed",
      "type": "event"
    },
    {
      "anonymous": false,
      "inputs": [
        {
          "indexed": true,
          "internalType": "address",
          "name": "previousOwner",
          "type": "address"
        },
        {
          "indexed": true,
          "internalType": "address",
          "name": "newOwner",
          "type": "address"
        }
      ],
      "name": "OwnershipTransferred",
      "type": "event"
    },
    {
      "anonymous": false,
      "inputs": [
        {
          "indexed": true,
          "internalType": "bytes32",
          "name": "tradeId",
          "type": "bytes32"
        },
        {
          "indexed": true,
          "internalType": "address",
          "name": "feeReceiver",
          "type": "address"
        },
        {
          "indexed": false,
          "internalType": "uint256",
          "name": "amount",
          "type": "uint256"
        }
      ],
      "name": "RelayFeePaid",
      "type": "event"
    },
    {
      "anonymous": false,
      "inputs": [
        {
          "indexed": true,
          "internalType": "bytes32",
          "name": "tradeId",
          "type": "bytes32"
        },
        {
          "indexed": true,
          "internalType": "address",
          "name": "token",
          "type": "address"
        },
        {
          "indexed": false,
          "internalType": "address",
          "name": "from",
          "type": "address"
        },
        {
          "indexed": false,
          "internalType": "address",
          "name": "to",
          "type": "address"
        },
        {
          "indexed": false,
          "internalType": "uint256",
          "name": "amount",
          "type": "uint256"
        }
      ],
      "name": "ReleasedToCounterparty",
      "type": "event"
    },
    {
      "anonymous": false,
      "inputs": [
        {
          "indexed": true,
          "internalType": "address",
          "name": "token",
          "type": "address"
        },
        {
          "indexed": false,
          "internalType": "bool",
          "name": "allowed",
          "type": "bool"
        }
      ],
      "name": "TokenAllowlistUpdated",
      "type": "event"
    },
    {
      "anonymous": false,
      "inputs": [
        {
          "indexed": true,
          "internalType": "bytes32",
          "name": "tradeId",
          "type": "bytes32"
        },
        {
          "indexed": true,
          "internalType": "address",
          "name": "token",
          "type": "address"
        },
        {
          "indexed": false,
          "internalType": "address",
          "name": "seller",
          "type": "address"
        },
        {
          "indexed": false,
          "internalType": "address",
          "name": "buyer",
          "type": "address"
        },
        {
          "indexed": true,
          "internalType": "address",
          "name": "arbiter",
          "type": "address"
        },
        {
          "indexed": false,
          "internalType": "uint256",
          "name": "amount",
          "type": "uint256"
        },
        {
          "indexed": false,
          "internalType": "uint256",
          "name": "unlockAt",
          "type": "uint256"
        },
        {
          "indexed": false,
          "internalType": "uint256",
          "name": "escrowFee",
          "type": "uint256"
        }
      ],
      "name": "TradeCreated",
      "type": "event"
    },
    {
      "inputs": [],
      "name": "DOMAIN_SEPARATOR",
      "outputs": [
        {
          "internalType": "bytes32",
          "name": "",
          "type": "bytes32"
        }
      ],
      "stateMutability": "view",
      "type": "function"
    },
    {
      "inputs": [],
      "name": "FACTOR_SCALE",
      "outputs": [
        {
          "internalType": "uint256",
          "name": "",
          "type": "uint256"
        }
      ],
      "stateMutability": "view",
      "type": "function"
    },
    {
      "inputs": [],
      "name": "NAME",
      "outputs": [
        {
          "internalType": "string",
          "name": "",
          "type": "string"
        }
      ],
      "stateMutability": "view",
      "type": "function"
    },
    {
      "inputs": [],
      "name": "VERSION",
      "outputs": [
        {
          "internalType": "string",
          "name": "",
          "type": "string"
        }
      ],
      "stateMutability": "view",
      "type": "function"
    },
    {
      "inputs": [
        {
          "internalType": "bytes32",
          "name": "tradeId",
          "type": "bytes32"
        }
      ],
      "name": "activeTrade",
      "outputs": [
        {
          "internalType": "bool",
          "name": "isActive",
          "type": "bool"
        },
        {
          "components": [
            {
              "internalType": "address",
              "name": "buyer",
              "type": "address"
            },
            {
              "internalType": "address",
              "name": "seller",
              "type": "address"
            },
            {
              "internalType": "address",
              "name": "arbiter",
              "type": "address"
            },
            {
              "internalType": "address",
              "name": "token",
              "type": "address"
            },
            {
              "internalType": "uint256",
              "name": "amount",
              "type": "uint256"
            },
            {
              "internalType": "uint256",
              "name": "unlockAt",
              "type": "uint256"
            },
            {
              "internalType": "uint256",
              "name": "escrowFee",
              "type": "uint256"
            }
          ],
          "internalType": "struct MultiEscrow.Trade",
          "name": "trade",
          "type": "tuple"
        }
      ],
      "stateMutability": "view",
      "type": "function"
    },
    {
      "inputs": [],
      "name": "activeTradeCount",
      "outputs": [
        {
          "internalType": "uint256",
          "name": "",
          "type": "uint256"
        }
      ],
      "stateMutability": "view",
      "type": "function"
    },
    {
      "inputs": [
        {
          "internalType": "address",
          "name": "",
          "type": "address"
        }
      ],
      "name": "allowedTokens",
      "outputs": [
        {
          "internalType": "bool",
          "name": "",
          "type": "bool"
        }
      ],
      "stateMutability": "view",
      "type": "function"
    },
    {
      "inputs": [
        {
          "internalType": "bytes32",
          "name": "tradeId",
          "type": "bytes32"
        },
        {
          "internalType": "uint256",
          "name": "factor",
          "type": "uint256"
        }
      ],
      "name": "arbitrate",
      "outputs": [],
      "stateMutability": "nonpayable",
      "type": "function"
    },
    {
      "inputs": [
        {
          "internalType": "bytes32",
          "name": "tradeId",
          "type": "bytes32"
        }
      ],
      "name": "claim",
      "outputs": [],
      "stateMutability": "nonpayable",
      "type": "function"
    },
    {
      "inputs": [
        {
          "internalType": "bytes32",
          "name": "tradeId",
          "type": "bytes32"
        },
        {
          "components": [
            {
              "internalType": "address",
              "name": "receiver",
              "type": "address"
            },
            {
              "internalType": "uint256",
              "name": "amount",
              "type": "uint256"
            },
            {
              "internalType": "uint256",
              "name": "deadline",
              "type": "uint256"
            }
          ],
          "internalType": "struct MultiEscrow.RelayFeeQuote",
          "name": "relayFeeQuote",
          "type": "tuple"
        },
        {
          "internalType": "bytes",
          "name": "signature",
          "type": "bytes"
        }
      ],
      "name": "claim",
      "outputs": [],
      "stateMutability": "nonpayable",
      "type": "function"
    },
    {
      "inputs": [
        {
          "internalType": "bytes32",
          "name": "tradeId",
          "type": "bytes32"
        },
        {
          "internalType": "address",
          "name": "_buyer",
          "type": "address"
        },
        {
          "internalType": "address",
          "name": "_seller",
          "type": "address"
        },
        {
          "internalType": "address",
          "name": "_arbiter",
          "type": "address"
        },
        {
          "internalType": "address",
          "name": "_token",
          "type": "address"
        },
        {
          "internalType": "uint256",
          "name": "_amount",
          "type": "uint256"
        },
        {
          "internalType": "uint256",
          "name": "_unlockAt",
          "type": "uint256"
        },
        {
          "internalType": "uint256",
          "name": "_escrowFee",
          "type": "uint256"
        }
      ],
      "name": "createTrade",
      "outputs": [],
      "stateMutability": "payable",
      "type": "function"
    },
    {
      "inputs": [],
      "name": "getActiveTradeIds",
      "outputs": [
        {
          "internalType": "bytes32[]",
          "name": "",
          "type": "bytes32[]"
        }
      ],
      "stateMutability": "view",
      "type": "function"
    },
    {
      "inputs": [
        {
          "internalType": "uint256",
          "name": "offset",
          "type": "uint256"
        },
        {
          "internalType": "uint256",
          "name": "limit",
          "type": "uint256"
        }
      ],
      "name": "getActiveTradeIdsPage",
      "outputs": [
        {
          "internalType": "bytes32[]",
          "name": "ids",
          "type": "bytes32[]"
        }
      ],
      "stateMutability": "view",
      "type": "function"
    },
    {
      "inputs": [
        {
          "internalType": "bytes32",
          "name": "tradeId",
          "type": "bytes32"
        },
        {
          "components": [
            {
              "internalType": "address",
              "name": "receiver",
              "type": "address"
            },
            {
              "internalType": "uint256",
              "name": "amount",
              "type": "uint256"
            },
            {
              "internalType": "uint256",
              "name": "deadline",
              "type": "uint256"
            }
          ],
          "internalType": "struct MultiEscrow.RelayFeeQuote",
          "name": "relayFeeQuote",
          "type": "tuple"
        }
      ],
      "name": "hashClaimAuthorization",
      "outputs": [
        {
          "internalType": "bytes32",
          "name": "",
          "type": "bytes32"
        }
      ],
      "stateMutability": "view",
      "type": "function"
    },
    {
      "inputs": [
        {
          "internalType": "bytes32",
          "name": "tradeId",
          "type": "bytes32"
        },
        {
          "components": [
            {
              "internalType": "address",
              "name": "receiver",
              "type": "address"
            },
            {
              "internalType": "uint256",
              "name": "amount",
              "type": "uint256"
            },
            {
              "internalType": "uint256",
              "name": "deadline",
              "type": "uint256"
            }
          ],
          "internalType": "struct MultiEscrow.RelayFeeQuote",
          "name": "relayFeeQuote",
          "type": "tuple"
        }
      ],
      "name": "hashReleaseAuthorization",
      "outputs": [
        {
          "internalType": "bytes32",
          "name": "",
          "type": "bytes32"
        }
      ],
      "stateMutability": "view",
      "type": "function"
    },
    {
      "inputs": [],
      "name": "owner",
      "outputs": [
        {
          "internalType": "address",
          "name": "",
          "type": "address"
        }
      ],
      "stateMutability": "view",
      "type": "function"
    },
    {
      "inputs": [
        {
          "internalType": "bytes32",
          "name": "tradeId",
          "type": "bytes32"
        },
        {
          "components": [
            {
              "internalType": "address",
              "name": "receiver",
              "type": "address"
            },
            {
              "internalType": "uint256",
              "name": "amount",
              "type": "uint256"
            },
            {
              "internalType": "uint256",
              "name": "deadline",
              "type": "uint256"
            }
          ],
          "internalType": "struct MultiEscrow.RelayFeeQuote",
          "name": "relayFeeQuote",
          "type": "tuple"
        },
        {
          "internalType": "bytes",
          "name": "signature",
          "type": "bytes"
        }
      ],
      "name": "releaseToCounterparty",
      "outputs": [],
      "stateMutability": "nonpayable",
      "type": "function"
    },
    {
      "inputs": [
        {
          "internalType": "bytes32",
          "name": "tradeId",
          "type": "bytes32"
        }
      ],
      "name": "releaseToCounterparty",
      "outputs": [],
      "stateMutability": "nonpayable",
      "type": "function"
    },
    {
      "inputs": [
        {
          "internalType": "address",
          "name": "token",
          "type": "address"
        },
        {
          "internalType": "bool",
          "name": "allowed",
          "type": "bool"
        }
      ],
      "name": "setTokenAllowed",
      "outputs": [],
      "stateMutability": "nonpayable",
      "type": "function"
    },
    {
      "inputs": [
        {
          "internalType": "bytes32",
          "name": "",
          "type": "bytes32"
        }
      ],
      "name": "trades",
      "outputs": [
        {
          "internalType": "address",
          "name": "buyer",
          "type": "address"
        },
        {
          "internalType": "address",
          "name": "seller",
          "type": "address"
        },
        {
          "internalType": "address",
          "name": "arbiter",
          "type": "address"
        },
        {
          "internalType": "address",
          "name": "token",
          "type": "address"
        },
        {
          "internalType": "uint256",
          "name": "amount",
          "type": "uint256"
        },
        {
          "internalType": "uint256",
          "name": "unlockAt",
          "type": "uint256"
        },
        {
          "internalType": "uint256",
          "name": "escrowFee",
          "type": "uint256"
        }
      ],
      "stateMutability": "view",
      "type": "function"
    },
    {
      "inputs": [
        {
          "internalType": "address",
          "name": "newOwner",
          "type": "address"
        }
      ],
      "name": "transferOwnership",
      "outputs": [],
      "stateMutability": "nonpayable",
      "type": "function"
    },
    {
      "stateMutability": "payable",
      "type": "receive"
    }
  ],
  "bytecode": "0x60a060405234801561001057600080fd5b50336000806101000a81548173ffffffffffffffffffffffffffffffffffffffff021916908373ffffffffffffffffffffffffffffffffffffffff1602179055507f8b73c3c69bb8fe3d512ecc4cf759cc79239f7b179b0ffacaa9a75d522b39400f6040518060400160405280601181526020017f486f737472204d756c7469457363726f77000000000000000000000000000000815250805190602001206040518060400160405280600181526020017f3300000000000000000000000000000000000000000000000000000000000000815250805190602001204630604051602001610102959493929190610197565b60405160208183030381529060405280519060200120608081815250506101ea565b6000819050919050565b61013781610124565b82525050565b6000819050919050565b6101508161013d565b82525050565b600073ffffffffffffffffffffffffffffffffffffffff82169050919050565b600061018182610156565b9050919050565b61019181610176565b82525050565b600060a0820190506101ac600083018861012e565b6101b9602083018761012e565b6101c6604083018661012e565b6101d36060830185610147565b6101e06080830184610188565b9695505050505050565b60805161391061020c6000396000818161096901526114ba01526139106000f3fe60806040526004361061012d5760003560e01c8063a1fb6345116100ab578063cb2e72121161006f578063cb2e721214610406578063cedc44781461042f578063e744092e1461045a578063f2fde38b14610497578063f4298124146104c0578063ffa1ad74146104eb57610134565b8063a1fb634514610342578063a3f4df7e1461036d578063bd66528a14610398578063c363875b146103c1578063c6763cea146103ea57610134565b80633a6bde89116100f25780633a6bde891461024b57806356c48e83146102745780636c1127c0146102b15780637a5b8584146102ee5780638da5cb5b1461031757610134565b80621624201461013957806306bee3481461017c57806315f69012146101b95780631ca82a93146101e25780633644e5151461022057610134565b3661013457005b600080fd5b34801561014557600080fd5b50610160600480360381019061015b9190612b04565b610516565b6040516101739796959493929190612b8b565b60405180910390f35b34801561018857600080fd5b506101a3600480360381019061019e9190612c1e565b6105d8565b6040516101b09190612c6d565b60405180910390f35b3480156101c557600080fd5b506101e060048036038101906101db9190612cec565b61064d565b005b3480156101ee57600080fd5b5061020960048036038101906102049190612b04565b61077b565b604051610217929190612de7565b60405180910390f35b34801561022c57600080fd5b50610235610967565b6040516102429190612c6d565b60405180910390f35b34801561025757600080fd5b50610272600480360381019061026d9190612e76565b61098b565b005b34801561028057600080fd5b5061029b60048036038101906102969190612f16565b610a05565b6040516102a89190613014565b60405180910390f35b3480156102bd57600080fd5b506102d860048036038101906102d39190612c1e565b610b58565b6040516102e59190612c6d565b60405180910390f35b3480156102fa57600080fd5b5061031560048036038101906103109190612b04565b610bcd565b005b34801561032357600080fd5b5061032c610c10565b6040516103399190613036565b60405180910390f35b34801561034e57600080fd5b50610357610c34565b6040516103649190613051565b60405180910390f35b34801561037957600080fd5b50610382610c3a565b60405161038f91906130fc565b60405180910390f35b3480156103a457600080fd5b506103bf60048036038101906103ba9190612b04565b610c73565b005b3480156103cd57600080fd5b506103e860048036038101906103e39190612e76565b610cb4565b005b61040460048036038101906103ff919061311e565b610dcd565b005b34801561041257600080fd5b5061042d600480360381019061042891906131d4565b610ff5565b005b34801561043b57600080fd5b50610444611254565b6040516104519190613051565b60405180910390f35b34801561046657600080fd5b50610481600480360381019061047c9190613214565b611261565b60405161048e9190613241565b60405180910390f35b3480156104a357600080fd5b506104be60048036038101906104b99190613214565b611281565b005b3480156104cc57600080fd5b506104d56113c3565b6040516104e29190613014565b60405180910390f35b3480156104f757600080fd5b5061050061141b565b60405161050d91906130fc565b60405180910390f35b60026020528060005260406000206000915090508060000160009054906101000a900473ffffffffffffffffffffffffffffffffffffffff16908060010160009054906101000a900473ffffffffffffffffffffffffffffffffffffffff16908060020160009054906101000a900473ffffffffffffffffffffffffffffffffffffffff16908060030160009054906101000a900473ffffffffffffffffffffffffffffffffffffffff16908060040154908060050154908060060154905087565b60006106457f03ef1cad4f4f0ecc82305809e4c7b95ef97e386da618e54fbc8199c1b1227f0d84610618858036038101906106139190613340565b611454565b60405160200161062a9392919061336d565b604051602081830303815290604052805190602001206114b6565b905092915050565b60008054906101000a900473ffffffffffffffffffffffffffffffffffffffff1673ffffffffffffffffffffffffffffffffffffffff163373ffffffffffffffffffffffffffffffffffffffff16146106d2576040517f5fc483c500000000000000000000000000000000000000000000000000000000815260040160405180910390fd5b80600160008473ffffffffffffffffffffffffffffffffffffffff1673ffffffffffffffffffffffffffffffffffffffff16815260200190815260200160002060006101000a81548160ff0219169083151502179055508173ffffffffffffffffffffffffffffffffffffffff167f1da521c13439ac6ab125c52e0da7dd7de929f09e58aa0f89ebe3dbb12e63a52b8260405161076f9190613241565b60405180910390a25050565b6000610785612a25565b600260008481526020019081526020016000206040518060e00160405290816000820160009054906101000a900473ffffffffffffffffffffffffffffffffffffffff1673ffffffffffffffffffffffffffffffffffffffff1673ffffffffffffffffffffffffffffffffffffffff1681526020016001820160009054906101000a900473ffffffffffffffffffffffffffffffffffffffff1673ffffffffffffffffffffffffffffffffffffffff1673ffffffffffffffffffffffffffffffffffffffff1681526020016002820160009054906101000a900473ffffffffffffffffffffffffffffffffffffffff1673ffffffffffffffffffffffffffffffffffffffff1673ffffffffffffffffffffffffffffffffffffffff1681526020016003820160009054906101000a900473ffffffffffffffffffffffffffffffffffffffff1673ffffffffffffffffffffffffffffffffffffffff1673ffffffffffffffffffffffffffffffffffffffff16815260200160048201548152602001600582015481526020016006820154815250509050600073ffffffffffffffffffffffffffffffffffffffff16816000015173ffffffffffffffffffffffffffffffffffffffff1614158015610960575060008160800151115b9150915091565b7f000000000000000000000000000000000000000000000000000000000000000081565b42836040013510156109c9576040517f0819bdcd00000000000000000000000000000000000000000000000000000000815260040160405180910390fd5b60006109df6109d886866105d8565b8484611508565b90506109fc8582868036038101906109f79190613340565b61168d565b50505050505050565b606060038054905083101580610a1b5750600082145b15610a7157600067ffffffffffffffff811115610a3b57610a3a613261565b5b604051908082528060200260200182016040528015610a695781602001602082028036833780820191505090505b509050610b52565b60008284610a7f91906133d3565b9050600380549050811115610a975760038054905090505b8381610aa39190613407565b67ffffffffffffffff811115610abc57610abb613261565b5b604051908082528060200260200182016040528015610aea5781602001602082028036833780820191505090505b50915060008490505b81811015610b4f5760038181548110610b0f57610b0e61343b565b5b9060005260206000200154838683610b279190613407565b81518110610b3857610b3761343b565b5b602002602001018181525050806001019050610af3565b50505b92915050565b6000610bc57f13a45644d363281a7f20a6a405b1bda94dc8e46215533a87d1e3864c7843b3f084610b9885803603810190610b939190613340565b611454565b604051602001610baa9392919061336d565b604051602081830303815290604052805190602001206114b6565b905092915050565b610c0b81336040518060600160405280600073ffffffffffffffffffffffffffffffffffffffff16815260200160008152602001600081525061168d565b505050565b60008054906101000a900473ffffffffffffffffffffffffffffffffffffffff1681565b6103e881565b6040518060400160405280601181526020017f486f737472204d756c7469457363726f7700000000000000000000000000000081525081565b610cb0816040518060600160405280600073ffffffffffffffffffffffffffffffffffffffff168152602001600081526020016000815250611a56565b5050565b4283604001351015610cf2576040517f0819bdcd00000000000000000000000000000000000000000000000000000000815260040160405180910390fd5b60006002600086815260200190815260200160002090506000610d1f610d188787610b58565b8585611508565b90508160010160009054906101000a900473ffffffffffffffffffffffffffffffffffffffff1673ffffffffffffffffffffffffffffffffffffffff168173ffffffffffffffffffffffffffffffffffffffff1614610daa576040517f85d1f72600000000000000000000000000000000000000000000000000000000815260040160405180910390fd5b610dc48686803603810190610dbf9190613340565b611a56565b50505050505050565b60008073ffffffffffffffffffffffffffffffffffffffff168573ffffffffffffffffffffffffffffffffffffffff1603610e0a57349050610fda565b600160008673ffffffffffffffffffffffffffffffffffffffff1673ffffffffffffffffffffffffffffffffffffffff16815260200190815260200160002060009054906101000a900460ff16610e8d576040517fa29c498600000000000000000000000000000000000000000000000000000000815260040160405180910390fd5b60003414610ec7576040517f3b40256e00000000000000000000000000000000000000000000000000000000815260040160405180910390fd5b60008573ffffffffffffffffffffffffffffffffffffffff166370a08231306040518263ffffffff1660e01b8152600401610f029190613036565b602060405180830381865afa158015610f1f573d6000803e3d6000fd5b505050506040513d601f19601f82011682018060405250810190610f43919061347f565b9050610f5186333088611d73565b808673ffffffffffffffffffffffffffffffffffffffff166370a08231306040518263ffffffff1660e01b8152600401610f8b9190613036565b602060405180830381865afa158015610fa8573d6000803e3d6000fd5b505050506040513d601f19601f82011682018060405250810190610fcc919061347f565b610fd69190613407565b9150505b610fea8989898989888888611ec5565b505050505050505050565b816002600082815260200190815260200160002060020160009054906101000a900473ffffffffffffffffffffffffffffffffffffffff1673ffffffffffffffffffffffffffffffffffffffff163373ffffffffffffffffffffffffffffffffffffffff1614611091576040517fe598e3ce00000000000000000000000000000000000000000000000000000000815260040160405180910390fd5b600060026000858152602001908152602001600020905060008160040154036110e6576040517fb7cc22bc00000000000000000000000000000000000000000000000000000000815260040160405180910390fd5b6103e8831115611122576040517f3fb86fe200000000000000000000000000000000000000000000000000000000815260040160405180910390fd5b60008160010160009054906101000a900473ffffffffffffffffffffffffffffffffffffffff16905060008260000160009054906101000a900473ffffffffffffffffffffffffffffffffffffffff16905060008360030160009054906101000a900473ffffffffffffffffffffffffffffffffffffffff1690506000846006015485600401546111b39190613407565b905060006103e888836111c691906134ac565b6111d0919061351d565b9050600081836111e09190613407565b90506111f28a87848885600080612231565b508373ffffffffffffffffffffffffffffffffffffffff168a7f623e377ab513cf936d61518f8661e47f2f4b431587b95c4f3520af5b644e25fe8888878e604051611240949392919061354e565b60405180910390a350505050505050505050565b6000600380549050905090565b60016020528060005260406000206000915054906101000a900460ff1681565b60008054906101000a900473ffffffffffffffffffffffffffffffffffffffff1673ffffffffffffffffffffffffffffffffffffffff163373ffffffffffffffffffffffffffffffffffffffff1614611306576040517f5fc483c500000000000000000000000000000000000000000000000000000000815260040160405180910390fd5b8073ffffffffffffffffffffffffffffffffffffffff1660008054906101000a900473ffffffffffffffffffffffffffffffffffffffff1673ffffffffffffffffffffffffffffffffffffffff167f8be0079c531659141344cd1fd0a4f28419497f9722a3daafe3b4186f6b6457e060405160405180910390a3806000806101000a81548173ffffffffffffffffffffffffffffffffffffffff021916908373ffffffffffffffffffffffffffffffffffffffff16021790555050565b6060600380548060200260200160405190810160405280929190818152602001828054801561141157602002820191906000526020600020905b8154815260200190600101908083116113fd575b5050505050905090565b6040518060400160405280600181526020017f330000000000000000000000000000000000000000000000000000000000000081525081565b60007fce34b5cb5e3c72f18a8f249c48fb28ec4112ffa5f575d3a2fe8baf353e1697938260000151836020015184604001516040516020016114999493929190613593565b604051602081830303815290604052805190602001209050919050565b60007f0000000000000000000000000000000000000000000000000000000000000000826040516020016114eb929190613650565b604051602081830303815290604052805190602001209050919050565b600060418383905014611547576040517f8baa579f00000000000000000000000000000000000000000000000000000000815260040160405180910390fd5b60008060008535925060208601359150604086013560001a9050601b8160ff16101561157d57601b8161157a9190613694565b90505b601b8160ff16141580156115955750601c8160ff1614155b156115cc576040517f8baa579f00000000000000000000000000000000000000000000000000000000815260040160405180910390fd5b600187828585604051600081526020016040526040516115ef94939291906136d8565b6020604051602081039080840390855afa158015611611573d6000803e3d6000fd5b505050602060405103519350600073ffffffffffffffffffffffffffffffffffffffff168473ffffffffffffffffffffffffffffffffffffffff1603611683576040517f8baa579f00000000000000000000000000000000000000000000000000000000815260040160405180910390fd5b5050509392505050565b600080600060026000878152602001908152602001600020905060008160040154036116e5576040517fb7cc22bc00000000000000000000000000000000000000000000000000000000815260040160405180910390fd5b6116ee84612543565b60008160030160009054906101000a900473ffffffffffffffffffffffffffffffffffffffff1690508160010160009054906101000a900473ffffffffffffffffffffffffffffffffffffffff1673ffffffffffffffffffffffffffffffffffffffff168673ffffffffffffffffffffffffffffffffffffffff160361179a578160000160009054906101000a900473ffffffffffffffffffffffffffffffffffffffff169350611850565b8160000160009054906101000a900473ffffffffffffffffffffffffffffffffffffffff1673ffffffffffffffffffffffffffffffffffffffff168673ffffffffffffffffffffffffffffffffffffffff160361181d578160010160009054906101000a900473ffffffffffffffffffffffffffffffffffffffff16935061184f565b6040517f39fc5e0a00000000000000000000000000000000000000000000000000000000815260040160405180910390fd5b5b6119db826040518060e00160405290816000820160009054906101000a900473ffffffffffffffffffffffffffffffffffffffff1673ffffffffffffffffffffffffffffffffffffffff1673ffffffffffffffffffffffffffffffffffffffff1681526020016001820160009054906101000a900473ffffffffffffffffffffffffffffffffffffffff1673ffffffffffffffffffffffffffffffffffffffff1673ffffffffffffffffffffffffffffffffffffffff1681526020016002820160009054906101000a900473ffffffffffffffffffffffffffffffffffffffff1673ffffffffffffffffffffffffffffffffffffffff1673ffffffffffffffffffffffffffffffffffffffff1681526020016003820160009054906101000a900473ffffffffffffffffffffffffffffffffffffffff1673ffffffffffffffffffffffffffffffffffffffff1673ffffffffffffffffffffffffffffffffffffffff1681526020016004820154815260200160058201548152602001600682015481525050866125c1565b50809350506119f88785856000808a600001518b60200151612231565b508073ffffffffffffffffffffffffffffffffffffffff16877f07ef9f79b306ce9a89bf8e1f834a172a0a005ac528a32962db99b24acb9933ab888787604051611a449392919061371d565b60405180910390a35050935093915050565b60008060026000858152602001908152602001600020905080600501544211611aab576040517f916da0d100000000000000000000000000000000000000000000000000000000815260040160405180910390fd5b6000816004015403611ae9576040517fdff46e2b00000000000000000000000000000000000000000000000000000000815260040160405180910390fd5b611af283612543565b60008160010160009054906101000a900473ffffffffffffffffffffffffffffffffffffffff16905060008260000160009054906101000a900473ffffffffffffffffffffffffffffffffffffffff16905060008360030160009054906101000a900473ffffffffffffffffffffffffffffffffffffffff169050611cf8846040518060e00160405290816000820160009054906101000a900473ffffffffffffffffffffffffffffffffffffffff1673ffffffffffffffffffffffffffffffffffffffff1673ffffffffffffffffffffffffffffffffffffffff1681526020016001820160009054906101000a900473ffffffffffffffffffffffffffffffffffffffff1673ffffffffffffffffffffffffffffffffffffffff1673ffffffffffffffffffffffffffffffffffffffff1681526020016002820160009054906101000a900473ffffffffffffffffffffffffffffffffffffffff1673ffffffffffffffffffffffffffffffffffffffff1673ffffffffffffffffffffffffffffffffffffffff1681526020016003820160009054906101000a900473ffffffffffffffffffffffffffffffffffffffff1673ffffffffffffffffffffffffffffffffffffffff1673ffffffffffffffffffffffffffffffffffffffff1681526020016004820154815260200160058201548152602001600682015481525050876125c1565b5080955050611d158784876000808b600001518c60200151612231565b508073ffffffffffffffffffffffffffffffffffffffff16877f8c18dc0a2c06d397feb6dd44b409d75c443e6cfbe8cd39e19619d7809ff9b874858589604051611d619392919061371d565b60405180910390a35050505092915050565b6000808573ffffffffffffffffffffffffffffffffffffffff166323b872dd60e01b868686604051602401611daa9392919061371d565b604051602081830303815290604052907bffffffffffffffffffffffffffffffffffffffffffffffffffffffff19166020820180517bffffffffffffffffffffffffffffffffffffffffffffffffffffffff8381831617835250505050604051611e14919061379b565b6000604051808303816000865af19150503d8060008114611e51576040519150601f19603f3d011682016040523d82523d6000602084013e611e56565b606091505b5091509150811580611e86575060008151118015611e85575080806020019051810190611e8391906137c7565b155b5b15611ebd576040517ff27f64e400000000000000000000000000000000000000000000000000000000815260040160405180910390fd5b505050505050565b600073ffffffffffffffffffffffffffffffffffffffff16600260008a815260200190815260200160002060000160009054906101000a900473ffffffffffffffffffffffffffffffffffffffff1673ffffffffffffffffffffffffffffffffffffffff1614611f61576040517f7505eadc00000000000000000000000000000000000000000000000000000000815260040160405180910390fd5b60008103611f9b576040517f29ce3ded00000000000000000000000000000000000000000000000000000000815260040160405180910390fd5b80821115611fd5576040517f3a4ffe3a00000000000000000000000000000000000000000000000000000000815260040160405180910390fd5b6040518060e001604052808873ffffffffffffffffffffffffffffffffffffffff1681526020018773ffffffffffffffffffffffffffffffffffffffff1681526020018673ffffffffffffffffffffffffffffffffffffffff1681526020018573ffffffffffffffffffffffffffffffffffffffff16815260200182815260200184815260200183815250600260008a815260200190815260200160002060008201518160000160006101000a81548173ffffffffffffffffffffffffffffffffffffffff021916908373ffffffffffffffffffffffffffffffffffffffff16021790555060208201518160010160006101000a81548173ffffffffffffffffffffffffffffffffffffffff021916908373ffffffffffffffffffffffffffffffffffffffff16021790555060408201518160020160006101000a81548173ffffffffffffffffffffffffffffffffffffffff021916908373ffffffffffffffffffffffffffffffffffffffff16021790555060608201518160030160006101000a81548173ffffffffffffffffffffffffffffffffffffffff021916908373ffffffffffffffffffffffffffffffffffffffff1602179055506080820151816004015560a0820151816005015560c082015181600601559050506121b988612630565b8473ffffffffffffffffffffffffffffffffffffffff168473ffffffffffffffffffffffffffffffffffffffff16897fd64d9285bd5f87d9d4796ea61b584fb4009ff23758a031710a6af3a6788bd69c898b86898960405161221f9594939291906137f4565b60405180910390a45050505050505050565b600080600260008a81526020019081526020016000206040518060e00160405290816000820160009054906101000a900473ffffffffffffffffffffffffffffffffffffffff1673ffffffffffffffffffffffffffffffffffffffff1673ffffffffffffffffffffffffffffffffffffffff1681526020016001820160009054906101000a900473ffffffffffffffffffffffffffffffffffffffff1673ffffffffffffffffffffffffffffffffffffffff1673ffffffffffffffffffffffffffffffffffffffff1681526020016002820160009054906101000a900473ffffffffffffffffffffffffffffffffffffffff1673ffffffffffffffffffffffffffffffffffffffff1673ffffffffffffffffffffffffffffffffffffffff1681526020016003820160009054906101000a900473ffffffffffffffffffffffffffffffffffffffff1673ffffffffffffffffffffffffffffffffffffffff1673ffffffffffffffffffffffffffffffffffffffff168152602001600482015481526020016005820154815260200160068201548152505090508060c0015191506000816060015190506123e38a6126c6565b600260008b8152602001908152602001600020600080820160006101000a81549073ffffffffffffffffffffffffffffffffffffffff02191690556001820160006101000a81549073ffffffffffffffffffffffffffffffffffffffff02191690556002820160006101000a81549073ffffffffffffffffffffffffffffffffffffffff02191690556003820160006101000a81549073ffffffffffffffffffffffffffffffffffffffff021916905560048201600090556005820160009055600682016000905550506124bc818360400151856127ee565b6124c7818a8a6127ee565b6124d28188886127ee565b6124dd8186866127ee565b6000841115612536578473ffffffffffffffffffffffffffffffffffffffff168a7fa337b9dd1c538459002a493de188d901fe5329c1dc5b5a9e5eb3f05b0e5e35038660405161252d9190613051565b60405180910390a35b5050979650505050505050565b600081602001511180156125875750600073ffffffffffffffffffffffffffffffffffffffff16816000015173ffffffffffffffffffffffffffffffffffffffff16145b156125be576040517f768dc59800000000000000000000000000000000000000000000000000000000815260040160405180910390fd5b50565b6000808360c0015184608001516125d89190613407565b9150826020015190508181111561261b576040517f4d268ba900000000000000000000000000000000000000000000000000000000815260040160405180910390fd5b80826126279190613407565b91509250929050565b600060046000838152602001908152602001600020541461267d576040517fca4b8ad600000000000000000000000000000000000000000000000000000000815260040160405180910390fd5b6003819080600181540180825580915050600190039060005260206000200160009091909190915055600380549050600460008381526020019081526020016000208190555050565b60006004600083815260200190815260200160002054905060008103612718576040517fb95c5dfc00000000000000000000000000000000000000000000000000000000815260040160405180910390fd5b6000600182039050600060016003805490506127349190613407565b90508082146127a9576000600382815481106127535761275261343b565b5b9060005260206000200154905080600384815481106127755761277461343b565b5b906000526020600020018190555060018361279091906133d3565b6004600083815260200190815260200160002081905550505b60038054806127bb576127ba613847565b5b60019003818190600052602060002001600090559055600460008581526020019081526020016000206000905550505050565b6000810315612a2057600073ffffffffffffffffffffffffffffffffffffffff168373ffffffffffffffffffffffffffffffffffffffff16036128d45760008273ffffffffffffffffffffffffffffffffffffffff16826040516128519061389c565b60006040518083038185875af1925050503d806000811461288e576040519150601f19603f3d011682016040523d82523d6000602084013e612893565b606091505b50509050806128ce576040517ff4b3b1bc00000000000000000000000000000000000000000000000000000000815260040160405180910390fd5b50612a1f565b6000808473ffffffffffffffffffffffffffffffffffffffff1663a9059cbb60e01b85856040516024016129099291906138b1565b604051602081830303815290604052907bffffffffffffffffffffffffffffffffffffffffffffffffffffffff19166020820180517bffffffffffffffffffffffffffffffffffffffffffffffffffffffff8381831617835250505050604051612973919061379b565b6000604051808303816000865af19150503d80600081146129b0576040519150601f19603f3d011682016040523d82523d6000602084013e6129b5565b606091505b50915091508115806129e55750600081511180156129e45750808060200190518101906129e291906137c7565b155b5b15612a1c576040517ff27f64e400000000000000000000000000000000000000000000000000000000815260040160405180910390fd5b50505b5b505050565b6040518060e00160405280600073ffffffffffffffffffffffffffffffffffffffff168152602001600073ffffffffffffffffffffffffffffffffffffffff168152602001600073ffffffffffffffffffffffffffffffffffffffff168152602001600073ffffffffffffffffffffffffffffffffffffffff1681526020016000815260200160008152602001600081525090565b6000604051905090565b600080fd5b600080fd5b6000819050919050565b612ae181612ace565b8114612aec57600080fd5b50565b600081359050612afe81612ad8565b92915050565b600060208284031215612b1a57612b19612ac4565b5b6000612b2884828501612aef565b91505092915050565b600073ffffffffffffffffffffffffffffffffffffffff82169050919050565b6000612b5c82612b31565b9050919050565b612b6c81612b51565b82525050565b6000819050919050565b612b8581612b72565b82525050565b600060e082019050612ba0600083018a612b63565b612bad6020830189612b63565b612bba6040830188612b63565b612bc76060830187612b63565b612bd46080830186612b7c565b612be160a0830185612b7c565b612bee60c0830184612b7c565b98975050505050505050565b600080fd5b600060608284031215612c1557612c14612bfa565b5b81905092915050565b60008060808385031215612c3557612c34612ac4565b5b6000612c4385828601612aef565b9250506020612c5485828601612bff565b9150509250929050565b612c6781612ace565b82525050565b6000602082019050612c826000830184612c5e565b92915050565b612c9181612b51565b8114612c9c57600080fd5b50565b600081359050612cae81612c88565b92915050565b60008115159050919050565b612cc981612cb4565b8114612cd457600080fd5b50565b600081359050612ce681612cc0565b92915050565b60008060408385031215612d0357612d02612ac4565b5b6000612d1185828601612c9f565b9250506020612d2285828601612cd7565b9150509250929050565b612d3581612cb4565b82525050565b612d4481612b51565b82525050565b612d5381612b72565b82525050565b60e082016000820151612d6f6000850182612d3b565b506020820151612d826020850182612d3b565b506040820151612d956040850182612d3b565b506060820151612da86060850182612d3b565b506080820151612dbb6080850182612d4a565b5060a0820151612dce60a0850182612d4a565b5060c0820151612de160c0850182612d4a565b50505050565b600061010082019050612dfd6000830185612d2c565b612e0a6020830184612d59565b9392505050565b600080fd5b600080fd5b600080fd5b60008083601f840112612e3657612e35612e11565b5b8235905067ffffffffffffffff811115612e5357612e52612e16565b5b602083019150836001820283011115612e6f57612e6e612e1b565b5b9250929050565b60008060008060a08587031215612e9057612e8f612ac4565b5b6000612e9e87828801612aef565b9450506020612eaf87828801612bff565b935050608085013567ffffffffffffffff811115612ed057612ecf612ac9565b5b612edc87828801612e20565b925092505092959194509250565b612ef381612b72565b8114612efe57600080fd5b50565b600081359050612f1081612eea565b92915050565b60008060408385031215612f2d57612f2c612ac4565b5b6000612f3b85828601612f01565b9250506020612f4c85828601612f01565b9150509250929050565b600081519050919050565b600082825260208201905092915050565b6000819050602082019050919050565b612f8b81612ace565b82525050565b6000612f9d8383612f82565b60208301905092915050565b6000602082019050919050565b6000612fc182612f56565b612fcb8185612f61565b9350612fd683612f72565b8060005b83811015613007578151612fee8882612f91565b9750612ff983612fa9565b925050600181019050612fda565b5085935050505092915050565b6000602082019050818103600083015261302e8184612fb6565b905092915050565b600060208201905061304b6000830184612b63565b92915050565b60006020820190506130666000830184612b7c565b92915050565b600081519050919050565b600082825260208201905092915050565b60005b838110156130a657808201518184015260208101905061308b565b60008484015250505050565b6000601f19601f8301169050919050565b60006130ce8261306c565b6130d88185613077565b93506130e8818560208601613088565b6130f1816130b2565b840191505092915050565b6000602082019050818103600083015261311681846130c3565b905092915050565b600080600080600080600080610100898b03121561313f5761313e612ac4565b5b600061314d8b828c01612aef565b985050602061315e8b828c01612c9f565b975050604061316f8b828c01612c9f565b96505060606131808b828c01612c9f565b95505060806131918b828c01612c9f565b94505060a06131a28b828c01612f01565b93505060c06131b38b828c01612f01565b92505060e06131c48b828c01612f01565b9150509295985092959890939650565b600080604083850312156131eb576131ea612ac4565b5b60006131f985828601612aef565b925050602061320a85828601612f01565b9150509250929050565b60006020828403121561322a57613229612ac4565b5b600061323884828501612c9f565b91505092915050565b60006020820190506132566000830184612d2c565b92915050565b600080fd5b7f4e487b7100000000000000000000000000000000000000000000000000000000600052604160045260246000fd5b613299826130b2565b810181811067ffffffffffffffff821117156132b8576132b7613261565b5b80604052505050565b60006132cb612aba565b90506132d78282613290565b919050565b6000606082840312156132f2576132f161325c565b5b6132fc60606132c1565b9050600061330c84828501612c9f565b600083015250602061332084828501612f01565b602083015250604061333484828501612f01565b60408301525092915050565b60006060828403121561335657613355612ac4565b5b6000613364848285016132dc565b91505092915050565b60006060820190506133826000830186612c5e565b61338f6020830185612c5e565b61339c6040830184612c5e565b949350505050565b7f4e487b7100000000000000000000000000000000000000000000000000000000600052601160045260246000fd5b60006133de82612b72565b91506133e983612b72565b9250828201905080821115613401576134006133a4565b5b92915050565b600061341282612b72565b915061341d83612b72565b9250828203905081811115613435576134346133a4565b5b92915050565b7f4e487b7100000000000000000000000000000000000000000000000000000000600052603260045260246000fd5b60008151905061347981612eea565b92915050565b60006020828403121561349557613494612ac4565b5b60006134a38482850161346a565b91505092915050565b60006134b782612b72565b91506134c283612b72565b92508282026134d081612b72565b915082820484148315176134e7576134e66133a4565b5b5092915050565b7f4e487b7100000000000000000000000000000000000000000000000000000000600052601260045260246000fd5b600061352882612b72565b915061353383612b72565b925082613543576135426134ee565b5b828204905092915050565b60006080820190506135636000830187612b63565b6135706020830186612b63565b61357d6040830185612b7c565b61358a6060830184612b7c565b95945050505050565b60006080820190506135a86000830187612c5e565b6135b56020830186612b63565b6135c26040830185612b7c565b6135cf6060830184612b7c565b95945050505050565b600081905092915050565b7f1901000000000000000000000000000000000000000000000000000000000000600082015250565b60006136196002836135d8565b9150613624826135e3565b600282019050919050565b6000819050919050565b61364a61364582612ace565b61362f565b82525050565b600061365b8261360c565b91506136678285613639565b6020820191506136778284613639565b6020820191508190509392505050565b600060ff82169050919050565b600061369f82613687565b91506136aa83613687565b9250828201905060ff8111156136c3576136c26133a4565b5b92915050565b6136d281613687565b82525050565b60006080820190506136ed6000830187612c5e565b6136fa60208301866136c9565b6137076040830185612c5e565b6137146060830184612c5e565b95945050505050565b60006060820190506137326000830186612b63565b61373f6020830185612b63565b61374c6040830184612b7c565b949350505050565b600081519050919050565b600081905092915050565b600061377582613754565b61377f818561375f565b935061378f818560208601613088565b80840191505092915050565b60006137a7828461376a565b915081905092915050565b6000815190506137c181612cc0565b92915050565b6000602082840312156137dd576137dc612ac4565b5b60006137eb848285016137b2565b91505092915050565b600060a0820190506138096000830188612b63565b6138166020830187612b63565b6138236040830186612b7c565b6138306060830185612b7c565b61383d6080830184612b7c565b9695505050505050565b7f4e487b7100000000000000000000000000000000000000000000000000000000600052603160045260246000fd5b50565b600061388660008361375f565b915061389182613876565b600082019050919050565b60006138a782613879565b9150819050919050565b60006040820190506138c66000830185612b63565b6138d36020830184612b7c565b939250505056fea2646970667358221220de03b367715d2a81ff7f58fc14e7d66acfb0207707ed124dcd47df4ae40128d264736f6c634300081c0033",
  "linkReferences": {},
  "deployedLinkReferences": {}
}