{
  "_format": "hh-sol-artifact-1",
  "contractName": "MultiEscrow",
  "sourceName": "contracts/MultiEscrow.sol",
  "abi": [
    {
      "inputs": [],
      "stateMutability": "nonpayable",
      "type": "constructor"
    },
    {
      "inputs": [],
      "name": "ClaimPeriodNotStarted",
      "type": "error"
    },
    {
      "inputs": [],
      "name": "ERC20TransferFailed",
      "type": "error"
    },
    {
      "inputs": [],
      "name": "EscrowFeeTooHigh",
      "type": "error"
    },
    {
      "inputs": [],
      "name": "InvalidFactor",
      "type": "error"
    },
    {
      "inputs": [],
      "name": "MustSendFunds",
      "type": "error"
    },
    {
      "inputs": [],
      "name": "NativeNotExpected",
      "type": "error"
    },
    {
      "inputs": [],
      "name": "NativeTransferFailed",
      "type": "error"
    },
    {
      "inputs": [],
      "name": "NoFundsToClaim",
      "type": "error"
    },
    {
      "inputs": [],
      "name": "NoFundsToRelease",
      "type": "error"
    },
    {
      "inputs": [],
      "name": "OnlyArbiter",
      "type": "error"
    },
    {
      "inputs": [],
      "name": "OnlyBuyerOrSeller",
      "type": "error"
    },
    {
      "inputs": [],
      "name": "OnlyOwner",
      "type": "error"
    },
    {
      "inputs": [],
      "name": "OnlySeller",
      "type": "error"
    },
    {
      "inputs": [],
      "name": "TradeAlreadyActive",
      "type": "error"
    },
    {
      "inputs": [],
      "name": "TradeIdAlreadyExists",
      "type": "error"
    },
    {
      "inputs": [],
      "name": "TradeNotActive",
      "type": "error"
    },
    {
      "anonymous": false,
      "inputs": [
        {
          "indexed": true,
          "internalType": "bytes32",
          "name": "tradeId",
          "type": "bytes32"
        },
        {
          "indexed": true,
          "internalType": "address",
          "name": "token",
          "type": "address"
        },
        {
          "indexed": false,
          "internalType": "address",
          "name": "seller",
          "type": "address"
        },
        {
          "indexed": false,
          "internalType": "address",
          "name": "buyer",
          "type": "address"
        },
        {
          "indexed": false,
          "internalType": "uint256",
          "name": "amount",
          "type": "uint256"
        },
        {
          "indexed": false,
          "internalType": "uint256",
          "name": "fractionForwarded",
          "type": "uint256"
        }
      ],
      "name": "Arbitrated",
      "type": "event"
    },
    {
      "anonymous": false,
      "inputs": [
        {
          "indexed": true,
          "internalType": "bytes32",
          "name": "tradeId",
          "type": "bytes32"
        },
        {
          "indexed": true,
          "internalType": "address",
          "name": "token",
          "type": "address"
        },
        {
          "indexed": false,
          "internalType": "address",
          "name": "seller",
          "type": "address"
        },
        {
          "indexed": false,
          "internalType": "address",
          "name": "buyer",
          "type": "address"
        },
        {
          "indexed": false,
          "internalType": "uint256",
          "name": "amount",
          "type": "uint256"
        }
      ],
      "name": "Claimed",
      "type": "event"
    },
    {
      "anonymous": false,
      "inputs": [
        {
          "indexed": true,
          "internalType": "address",
          "name": "previousOwner",
          "type": "address"
        },
        {
          "indexed": true,
          "internalType": "address",
          "name": "newOwner",
          "type": "address"
        }
      ],
      "name": "OwnershipTransferred",
      "type": "event"
    },
    {
      "anonymous": false,
      "inputs": [
        {
          "indexed": true,
          "internalType": "bytes32",
          "name": "tradeId",
          "type": "bytes32"
        },
        {
          "indexed": true,
          "internalType": "address",
          "name": "token",
          "type": "address"
        },
        {
          "indexed": false,
          "internalType": "address",
          "name": "from",
          "type": "address"
        },
        {
          "indexed": false,
          "internalType": "address",
          "name": "to",
          "type": "address"
        },
        {
          "indexed": false,
          "internalType": "uint256",
          "name": "amount",
          "type": "uint256"
        }
      ],
      "name": "ReleasedToCounterparty",
      "type": "event"
    },
    {
      "anonymous": false,
      "inputs": [
        {
          "indexed": true,
          "internalType": "bytes32",
          "name": "tradeId",
          "type": "bytes32"
        },
        {
          "indexed": true,
          "internalType": "address",
          "name": "token",
          "type": "address"
        },
        {
          "indexed": false,
          "internalType": "address",
          "name": "seller",
          "type": "address"
        },
        {
          "indexed": false,
          "internalType": "address",
          "name": "buyer",
          "type": "address"
        },
        {
          "indexed": true,
          "internalType": "address",
          "name": "arbiter",
          "type": "address"
        },
        {
          "indexed": false,
          "internalType": "uint256",
          "name": "amount",
          "type": "uint256"
        },
        {
          "indexed": false,
          "internalType": "uint256",
          "name": "unlockAt",
          "type": "uint256"
        },
        {
          "indexed": false,
          "internalType": "uint256",
          "name": "escrowFee",
          "type": "uint256"
        }
      ],
      "name": "TradeCreated",
      "type": "event"
    },
    {
      "inputs": [],
      "name": "FACTOR_SCALE",
      "outputs": [
        {
          "internalType": "uint256",
          "name": "",
          "type": "uint256"
        }
      ],
      "stateMutability": "view",
      "type": "function"
    },
    {
      "inputs": [],
      "name": "NAME",
      "outputs": [
        {
          "internalType": "string",
          "name": "",
          "type": "string"
        }
      ],
      "stateMutability": "view",
      "type": "function"
    },
    {
      "inputs": [],
      "name": "VERSION",
      "outputs": [
        {
          "internalType": "string",
          "name": "",
          "type": "string"
        }
      ],
      "stateMutability": "view",
      "type": "function"
    },
    {
      "inputs": [
        {
          "internalType": "bytes32",
          "name": "tradeId",
          "type": "bytes32"
        }
      ],
      "name": "activeTrade",
      "outputs": [
        {
          "internalType": "bool",
          "name": "isActive",
          "type": "bool"
        },
        {
          "components": [
            {
              "internalType": "address",
              "name": "buyer",
              "type": "address"
            },
            {
              "internalType": "address",
              "name": "seller",
              "type": "address"
            },
            {
              "internalType": "address",
              "name": "arbiter",
              "type": "address"
            },
            {
              "internalType": "address",
              "name": "token",
              "type": "address"
            },
            {
              "internalType": "uint256",
              "name": "amount",
              "type": "uint256"
            },
            {
              "internalType": "uint256",
              "name": "unlockAt",
              "type": "uint256"
            },
            {
              "internalType": "uint256",
              "name": "escrowFee",
              "type": "uint256"
            }
          ],
          "internalType": "struct MultiEscrow.Trade",
          "name": "trade",
          "type": "tuple"
        }
      ],
      "stateMutability": "view",
      "type": "function"
    },
    {
      "inputs": [],
      "name": "activeTradeCount",
      "outputs": [
        {
          "internalType": "uint256",
          "name": "",
          "type": "uint256"
        }
      ],
      "stateMutability": "view",
      "type": "function"
    },
    {
      "inputs": [
        {
          "internalType": "bytes32",
          "name": "tradeId",
          "type": "bytes32"
        },
        {
          "internalType": "uint256",
          "name": "factor",
          "type": "uint256"
        }
      ],
      "name": "arbitrate",
      "outputs": [],
      "stateMutability": "nonpayable",
      "type": "function"
    },
    {
      "inputs": [
        {
          "internalType": "bytes32",
          "name": "tradeId",
          "type": "bytes32"
        }
      ],
      "name": "claim",
      "outputs": [],
      "stateMutability": "nonpayable",
      "type": "function"
    },
    {
      "inputs": [
        {
          "internalType": "bytes32",
          "name": "tradeId",
          "type": "bytes32"
        },
        {
          "internalType": "address",
          "name": "_buyer",
          "type": "address"
        },
        {
          "internalType": "address",
          "name": "_seller",
          "type": "address"
        },
        {
          "internalType": "address",
          "name": "_arbiter",
          "type": "address"
        },
        {
          "internalType": "address",
          "name": "_token",
          "type": "address"
        },
        {
          "internalType": "uint256",
          "name": "_amount",
          "type": "uint256"
        },
        {
          "internalType": "uint256",
          "name": "_unlockAt",
          "type": "uint256"
        },
        {
          "internalType": "uint256",
          "name": "_escrowFee",
          "type": "uint256"
        }
      ],
      "name": "createTrade",
      "outputs": [],
      "stateMutability": "payable",
      "type": "function"
    },
    {
      "inputs": [],
      "name": "getActiveTradeIds",
      "outputs": [
        {
          "internalType": "bytes32[]",
          "name": "",
          "type": "bytes32[]"
        }
      ],
      "stateMutability": "view",
      "type": "function"
    },
    {
      "inputs": [
        {
          "internalType": "uint256",
          "name": "offset",
          "type": "uint256"
        },
        {
          "internalType": "uint256",
          "name": "limit",
          "type": "uint256"
        }
      ],
      "name": "getActiveTradeIdsPage",
      "outputs": [
        {
          "internalType": "bytes32[]",
          "name": "ids",
          "type": "bytes32[]"
        }
      ],
      "stateMutability": "view",
      "type": "function"
    },
    {
      "inputs": [],
      "name": "owner",
      "outputs": [
        {
          "internalType": "address",
          "name": "",
          "type": "address"
        }
      ],
      "stateMutability": "view",
      "type": "function"
    },
    {
      "inputs": [
        {
          "internalType": "bytes32",
          "name": "tradeId",
          "type": "bytes32"
        }
      ],
      "name": "releaseToCounterparty",
      "outputs": [],
      "stateMutability": "nonpayable",
      "type": "function"
    },
    {
      "inputs": [
        {
          "internalType": "bytes32",
          "name": "",
          "type": "bytes32"
        }
      ],
      "name": "trades",
      "outputs": [
        {
          "internalType": "address",
          "name": "buyer",
          "type": "address"
        },
        {
          "internalType": "address",
          "name": "seller",
          "type": "address"
        },
        {
          "internalType": "address",
          "name": "arbiter",
          "type": "address"
        },
        {
          "internalType": "address",
          "name": "token",
          "type": "address"
        },
        {
          "internalType": "uint256",
          "name": "amount",
          "type": "uint256"
        },
        {
          "internalType": "uint256",
          "name": "unlockAt",
          "type": "uint256"
        },
        {
          "internalType": "uint256",
          "name": "escrowFee",
          "type": "uint256"
        }
      ],
      "stateMutability": "view",
      "type": "function"
    },
    {
      "inputs": [
        {
          "internalType": "address",
          "name": "newOwner",
          "type": "address"
        }
      ],
      "name": "transferOwnership",
      "outputs": [],
      "stateMutability": "nonpayable",
      "type": "function"
    },
    {
      "stateMutability": "payable",
      "type": "receive"
    }
  ],
  "bytecode": "0x6080604052348015600f57600080fd5b50336000806101000a81548173ffffffffffffffffffffffffffffffffffffffff021916908373ffffffffffffffffffffffffffffffffffffffff1602179055506127588061005f6000396000f3fe6080604052600436106100e05760003560e01c8063bd66528a1161007f578063cedc447811610059578063cedc4478146102c2578063f2fde38b146102ed578063f429812414610316578063ffa1ad7414610341576100e7565b8063bd66528a14610254578063c6763cea1461027d578063cb2e721214610299576100e7565b80637a5b8584116100bb5780637a5b8584146101aa5780638da5cb5b146101d3578063a1fb6345146101fe578063a3f4df7e14610229576100e7565b8062162420146100ec5780631ca82a931461012f57806356c48e831461016d576100e7565b366100e757005b600080fd5b3480156100f857600080fd5b50610113600480360381019061010e9190611dc6565b61036c565b6040516101269796959493929190611e4d565b60405180910390f35b34801561013b57600080fd5b5061015660048036038101906101519190611dc6565b61042e565b604051610164929190611f83565b60405180910390f35b34801561017957600080fd5b50610194600480360381019061018f9190611fd9565b61061a565b6040516101a191906120d7565b60405180910390f35b3480156101b657600080fd5b506101d160048036038101906101cc9190611dc6565b61076d565b005b3480156101df57600080fd5b506101e861077c565b6040516101f591906120f9565b60405180910390f35b34801561020a57600080fd5b506102136107a0565b6040516102209190612114565b60405180910390f35b34801561023557600080fd5b5061023e6107a6565b60405161024b91906121bf565b60405180910390f35b34801561026057600080fd5b5061027b60048036038101906102769190611dc6565b6107df565b005b6102976004803603810190610292919061220d565b6107ec565b005b3480156102a557600080fd5b506102c060048036038101906102bb91906122c3565b610991565b005b3480156102ce57600080fd5b506102d7610bed565b6040516102e49190612114565b60405180910390f35b3480156102f957600080fd5b50610314600480360381019061030f9190612303565b610bfa565b005b34801561032257600080fd5b5061032b610d3c565b60405161033891906120d7565b60405180910390f35b34801561034d57600080fd5b50610356610d94565b60405161036391906121bf565b60405180910390f35b60016020528060005260406000206000915090508060000160009054906101000a900473ffffffffffffffffffffffffffffffffffffffff16908060010160009054906101000a900473ffffffffffffffffffffffffffffffffffffffff16908060020160009054906101000a900473ffffffffffffffffffffffffffffffffffffffff16908060030160009054906101000a900473ffffffffffffffffffffffffffffffffffffffff16908060040154908060050154908060060154905087565b6000610438611cf6565b600160008481526020019081526020016000206040518060e00160405290816000820160009054906101000a900473ffffffffffffffffffffffffffffffffffffffff1673ffffffffffffffffffffffffffffffffffffffff1673ffffffffffffffffffffffffffffffffffffffff1681526020016001820160009054906101000a900473ffffffffffffffffffffffffffffffffffffffff1673ffffffffffffffffffffffffffffffffffffffff1673ffffffffffffffffffffffffffffffffffffffff1681526020016002820160009054906101000a900473ffffffffffffffffffffffffffffffffffffffff1673ffffffffffffffffffffffffffffffffffffffff1673ffffffffffffffffffffffffffffffffffffffff1681526020016003820160009054906101000a900473ffffffffffffffffffffffffffffffffffffffff1673ffffffffffffffffffffffffffffffffffffffff1673ffffffffffffffffffffffffffffffffffffffff16815260200160048201548152602001600582015481526020016006820154815250509050600073ffffffffffffffffffffffffffffffffffffffff16816000015173ffffffffffffffffffffffffffffffffffffffff1614158015610613575060008160800151115b9150915091565b6060600280549050831015806106305750600082145b1561068657600067ffffffffffffffff8111156106505761064f612330565b5b60405190808252806020026020018201604052801561067e5781602001602082028036833780820191505090505b509050610767565b60008284610694919061238e565b90506002805490508111156106ac5760028054905090505b83816106b891906123c2565b67ffffffffffffffff8111156106d1576106d0612330565b5b6040519080825280602002602001820160405280156106ff5781602001602082028036833780820191505090505b50915060008490505b818110156107645760028181548110610724576107236123f6565b5b906000526020600020015483868361073c91906123c2565b8151811061074d5761074c6123f6565b5b602002602001018181525050806001019050610708565b50505b92915050565b6107778133610dcd565b505050565b60008054906101000a900473ffffffffffffffffffffffffffffffffffffffff1681565b6103e881565b6040518060400160405280601181526020017f486f737472204d756c7469457363726f7700000000000000000000000000000081525081565b6107e881611008565b5050565b60008073ffffffffffffffffffffffffffffffffffffffff168573ffffffffffffffffffffffffffffffffffffffff160361082957349050610976565b60003414610863576040517f3b40256e00000000000000000000000000000000000000000000000000000000815260040160405180910390fd5b60008573ffffffffffffffffffffffffffffffffffffffff166370a08231306040518263ffffffff1660e01b815260040161089e91906120f9565b602060405180830381865afa1580156108bb573d6000803e3d6000fd5b505050506040513d601f19601f820116820180604052508101906108df919061243a565b90506108ed86333088611197565b808673ffffffffffffffffffffffffffffffffffffffff166370a08231306040518263ffffffff1660e01b815260040161092791906120f9565b602060405180830381865afa158015610944573d6000803e3d6000fd5b505050506040513d601f19601f82011682018060405250810190610968919061243a565b61097291906123c2565b9150505b61098689898989898888886112e9565b505050505050505050565b816001600082815260200190815260200160002060020160009054906101000a900473ffffffffffffffffffffffffffffffffffffffff1673ffffffffffffffffffffffffffffffffffffffff163373ffffffffffffffffffffffffffffffffffffffff1614610a2d576040517fe598e3ce00000000000000000000000000000000000000000000000000000000815260040160405180910390fd5b60006001600085815260200190815260200160002090506000816004015403610a82576040517fb7cc22bc00000000000000000000000000000000000000000000000000000000815260040160405180910390fd5b6103e8831115610abe576040517f3fb86fe200000000000000000000000000000000000000000000000000000000815260040160405180910390fd5b60008160010160009054906101000a900473ffffffffffffffffffffffffffffffffffffffff16905060008260000160009054906101000a900473ffffffffffffffffffffffffffffffffffffffff16905060008360030160009054906101000a900473ffffffffffffffffffffffffffffffffffffffff169050600084600601548560040154610b4f91906123c2565b905060006103e88883610b629190612467565b610b6c91906124d8565b905060008183610b7c91906123c2565b9050610b8b8a87848885611655565b508373ffffffffffffffffffffffffffffffffffffffff168a7f623e377ab513cf936d61518f8661e47f2f4b431587b95c4f3520af5b644e25fe8888878e604051610bd99493929190612509565b60405180910390a350505050505050505050565b6000600280549050905090565b60008054906101000a900473ffffffffffffffffffffffffffffffffffffffff1673ffffffffffffffffffffffffffffffffffffffff163373ffffffffffffffffffffffffffffffffffffffff1614610c7f576040517f5fc483c500000000000000000000000000000000000000000000000000000000815260040160405180910390fd5b8073ffffffffffffffffffffffffffffffffffffffff1660008054906101000a900473ffffffffffffffffffffffffffffffffffffffff1673ffffffffffffffffffffffffffffffffffffffff167f8be0079c531659141344cd1fd0a4f28419497f9722a3daafe3b4186f6b6457e060405160405180910390a3806000806101000a81548173ffffffffffffffffffffffffffffffffffffffff021916908373ffffffffffffffffffffffffffffffffffffffff16021790555050565b60606002805480602002602001604051908101604052809291908181526020018280548015610d8a57602002820191906000526020600020905b815481526020019060010190808311610d76575b5050505050905090565b6040518060400160405280600181526020017f340000000000000000000000000000000000000000000000000000000000000081525081565b60008060006001600086815260200190815260200160002090506000816004015403610e25576040517fb7cc22bc00000000000000000000000000000000000000000000000000000000815260040160405180910390fd5b60008160030160009054906101000a900473ffffffffffffffffffffffffffffffffffffffff1690508160010160009054906101000a900473ffffffffffffffffffffffffffffffffffffffff1673ffffffffffffffffffffffffffffffffffffffff168573ffffffffffffffffffffffffffffffffffffffff1603610ed1578160000160009054906101000a900473ffffffffffffffffffffffffffffffffffffffff169350610f87565b8160000160009054906101000a900473ffffffffffffffffffffffffffffffffffffffff1673ffffffffffffffffffffffffffffffffffffffff168573ffffffffffffffffffffffffffffffffffffffff1603610f54578160010160009054906101000a900473ffffffffffffffffffffffffffffffffffffffff169350610f86565b6040517f39fc5e0a00000000000000000000000000000000000000000000000000000000815260040160405180910390fd5b5b81600601548260040154610f9b91906123c2565b9250610fab868585600080611655565b508073ffffffffffffffffffffffffffffffffffffffff16867f07ef9f79b306ce9a89bf8e1f834a172a0a005ac528a32962db99b24acb9933ab878787604051610ff79392919061254e565b60405180910390a350509250929050565b6000806001600084815260200190815260200160002090508060050154421161105d576040517f916da0d100000000000000000000000000000000000000000000000000000000815260040160405180910390fd5b600081600401540361109b576040517fdff46e2b00000000000000000000000000000000000000000000000000000000815260040160405180910390fd5b60008160010160009054906101000a900473ffffffffffffffffffffffffffffffffffffffff16905060008260000160009054906101000a900473ffffffffffffffffffffffffffffffffffffffff16905060008360030160009054906101000a900473ffffffffffffffffffffffffffffffffffffffff1690508360060154846004015461112a91906123c2565b945061113a868487600080611655565b508073ffffffffffffffffffffffffffffffffffffffff16867f8c18dc0a2c06d397feb6dd44b409d75c443e6cfbe8cd39e19619d7809ff9b8748585896040516111869392919061254e565b60405180910390a350505050919050565b6000808573ffffffffffffffffffffffffffffffffffffffff166323b872dd60e01b8686866040516024016111ce9392919061254e565b604051602081830303815290604052907bffffffffffffffffffffffffffffffffffffffffffffffffffffffff19166020820180517bffffffffffffffffffffffffffffffffffffffffffffffffffffffff838183161783525050505060405161123891906125cc565b6000604051808303816000865af19150503d8060008114611275576040519150601f19603f3d011682016040523d82523d6000602084013e61127a565b606091505b50915091508115806112aa5750600081511180156112a95750808060200190518101906112a7919061260f565b155b5b156112e1576040517ff27f64e400000000000000000000000000000000000000000000000000000000815260040160405180910390fd5b505050505050565b600073ffffffffffffffffffffffffffffffffffffffff16600160008a815260200190815260200160002060000160009054906101000a900473ffffffffffffffffffffffffffffffffffffffff1673ffffffffffffffffffffffffffffffffffffffff1614611385576040517f7505eadc00000000000000000000000000000000000000000000000000000000815260040160405180910390fd5b600081036113bf576040517f29ce3ded00000000000000000000000000000000000000000000000000000000815260040160405180910390fd5b808211156113f9576040517f3a4ffe3a00000000000000000000000000000000000000000000000000000000815260040160405180910390fd5b6040518060e001604052808873ffffffffffffffffffffffffffffffffffffffff1681526020018773ffffffffffffffffffffffffffffffffffffffff1681526020018673ffffffffffffffffffffffffffffffffffffffff1681526020018573ffffffffffffffffffffffffffffffffffffffff16815260200182815260200184815260200183815250600160008a815260200190815260200160002060008201518160000160006101000a81548173ffffffffffffffffffffffffffffffffffffffff021916908373ffffffffffffffffffffffffffffffffffffffff16021790555060208201518160010160006101000a81548173ffffffffffffffffffffffffffffffffffffffff021916908373ffffffffffffffffffffffffffffffffffffffff16021790555060408201518160020160006101000a81548173ffffffffffffffffffffffffffffffffffffffff021916908373ffffffffffffffffffffffffffffffffffffffff16021790555060608201518160030160006101000a81548173ffffffffffffffffffffffffffffffffffffffff021916908373ffffffffffffffffffffffffffffffffffffffff1602179055506080820151816004015560a0820151816005015560c082015181600601559050506115dd88611901565b8473ffffffffffffffffffffffffffffffffffffffff168473ffffffffffffffffffffffffffffffffffffffff16897fd64d9285bd5f87d9d4796ea61b584fb4009ff23758a031710a6af3a6788bd69c898b86898960405161164395949392919061263c565b60405180910390a45050505050505050565b600080600160008881526020019081526020016000206040518060e00160405290816000820160009054906101000a900473ffffffffffffffffffffffffffffffffffffffff1673ffffffffffffffffffffffffffffffffffffffff1673ffffffffffffffffffffffffffffffffffffffff1681526020016001820160009054906101000a900473ffffffffffffffffffffffffffffffffffffffff1673ffffffffffffffffffffffffffffffffffffffff1673ffffffffffffffffffffffffffffffffffffffff1681526020016002820160009054906101000a900473ffffffffffffffffffffffffffffffffffffffff1673ffffffffffffffffffffffffffffffffffffffff1673ffffffffffffffffffffffffffffffffffffffff1681526020016003820160009054906101000a900473ffffffffffffffffffffffffffffffffffffffff1673ffffffffffffffffffffffffffffffffffffffff1673ffffffffffffffffffffffffffffffffffffffff168152602001600482015481526020016005820154815260200160068201548152505090508060c00151915060008160600151905061180788611997565b60016000898152602001908152602001600020600080820160006101000a81549073ffffffffffffffffffffffffffffffffffffffff02191690556001820160006101000a81549073ffffffffffffffffffffffffffffffffffffffff02191690556002820160006101000a81549073ffffffffffffffffffffffffffffffffffffffff02191690556003820160006101000a81549073ffffffffffffffffffffffffffffffffffffffff021916905560048201600090556005820160009055600682016000905550506118e081836040015185611abf565b6118eb818888611abf565b6118f6818686611abf565b505095945050505050565b600060036000838152602001908152602001600020541461194e576040517fca4b8ad600000000000000000000000000000000000000000000000000000000815260040160405180910390fd5b6002819080600181540180825580915050600190039060005260206000200160009091909190915055600280549050600360008381526020019081526020016000208190555050565b600060036000838152602001908152602001600020549050600081036119e9576040517fb95c5dfc00000000000000000000000000000000000000000000000000000000815260040160405180910390fd5b600060018203905060006001600280549050611a0591906123c2565b9050808214611a7a57600060028281548110611a2457611a236123f6565b5b906000526020600020015490508060028481548110611a4657611a456123f6565b5b9060005260206000200181905550600183611a61919061238e565b6003600083815260200190815260200160002081905550505b6002805480611a8c57611a8b61268f565b5b60019003818190600052602060002001600090559055600360008581526020019081526020016000206000905550505050565b6000810315611cf157600073ffffffffffffffffffffffffffffffffffffffff168373ffffffffffffffffffffffffffffffffffffffff1603611ba55760008273ffffffffffffffffffffffffffffffffffffffff1682604051611b22906126e4565b60006040518083038185875af1925050503d8060008114611b5f576040519150601f19603f3d011682016040523d82523d6000602084013e611b64565b606091505b5050905080611b9f576040517ff4b3b1bc00000000000000000000000000000000000000000000000000000000815260040160405180910390fd5b50611cf0565b6000808473ffffffffffffffffffffffffffffffffffffffff1663a9059cbb60e01b8585604051602401611bda9291906126f9565b604051602081830303815290604052907bffffffffffffffffffffffffffffffffffffffffffffffffffffffff19166020820180517bffffffffffffffffffffffffffffffffffffffffffffffffffffffff8381831617835250505050604051611c4491906125cc565b6000604051808303816000865af19150503d8060008114611c81576040519150601f19603f3d011682016040523d82523d6000602084013e611c86565b606091505b5091509150811580611cb6575060008151118015611cb5575080806020019051810190611cb3919061260f565b155b5b15611ced576040517ff27f64e400000000000000000000000000000000000000000000000000000000815260040160405180910390fd5b50505b5b505050565b6040518060e00160405280600073ffffffffffffffffffffffffffffffffffffffff168152602001600073ffffffffffffffffffffffffffffffffffffffff168152602001600073ffffffffffffffffffffffffffffffffffffffff168152602001600073ffffffffffffffffffffffffffffffffffffffff1681526020016000815260200160008152602001600081525090565b600080fd5b6000819050919050565b611da381611d90565b8114611dae57600080fd5b50565b600081359050611dc081611d9a565b92915050565b600060208284031215611ddc57611ddb611d8b565b5b6000611dea84828501611db1565b91505092915050565b600073ffffffffffffffffffffffffffffffffffffffff82169050919050565b6000611e1e82611df3565b9050919050565b611e2e81611e13565b82525050565b6000819050919050565b611e4781611e34565b82525050565b600060e082019050611e62600083018a611e25565b611e6f6020830189611e25565b611e7c6040830188611e25565b611e896060830187611e25565b611e966080830186611e3e565b611ea360a0830185611e3e565b611eb060c0830184611e3e565b98975050505050505050565b60008115159050919050565b611ed181611ebc565b82525050565b611ee081611e13565b82525050565b611eef81611e34565b82525050565b60e082016000820151611f0b6000850182611ed7565b506020820151611f1e6020850182611ed7565b506040820151611f316040850182611ed7565b506060820151611f446060850182611ed7565b506080820151611f576080850182611ee6565b5060a0820151611f6a60a0850182611ee6565b5060c0820151611f7d60c0850182611ee6565b50505050565b600061010082019050611f996000830185611ec8565b611fa66020830184611ef5565b9392505050565b611fb681611e34565b8114611fc157600080fd5b50565b600081359050611fd381611fad565b92915050565b60008060408385031215611ff057611fef611d8b565b5b6000611ffe85828601611fc4565b925050602061200f85828601611fc4565b9150509250929050565b600081519050919050565b600082825260208201905092915050565b6000819050602082019050919050565b61204e81611d90565b82525050565b60006120608383612045565b60208301905092915050565b6000602082019050919050565b600061208482612019565b61208e8185612024565b935061209983612035565b8060005b838110156120ca5781516120b18882612054565b97506120bc8361206c565b92505060018101905061209d565b5085935050505092915050565b600060208201905081810360008301526120f18184612079565b905092915050565b600060208201905061210e6000830184611e25565b92915050565b60006020820190506121296000830184611e3e565b92915050565b600081519050919050565b600082825260208201905092915050565b60005b8381101561216957808201518184015260208101905061214e565b60008484015250505050565b6000601f19601f8301169050919050565b60006121918261212f565b61219b818561213a565b93506121ab81856020860161214b565b6121b481612175565b840191505092915050565b600060208201905081810360008301526121d98184612186565b905092915050565b6121ea81611e13565b81146121f557600080fd5b50565b600081359050612207816121e1565b92915050565b600080600080600080600080610100898b03121561222e5761222d611d8b565b5b600061223c8b828c01611db1565b985050602061224d8b828c016121f8565b975050604061225e8b828c016121f8565b965050606061226f8b828c016121f8565b95505060806122808b828c016121f8565b94505060a06122918b828c01611fc4565b93505060c06122a28b828c01611fc4565b92505060e06122b38b828c01611fc4565b9150509295985092959890939650565b600080604083850312156122da576122d9611d8b565b5b60006122e885828601611db1565b92505060206122f985828601611fc4565b9150509250929050565b60006020828403121561231957612318611d8b565b5b6000612327848285016121f8565b91505092915050565b7f4e487b7100000000000000000000000000000000000000000000000000000000600052604160045260246000fd5b7f4e487b7100000000000000000000000000000000000000000000000000000000600052601160045260246000fd5b600061239982611e34565b91506123a483611e34565b92508282019050808211156123bc576123bb61235f565b5b92915050565b60006123cd82611e34565b91506123d883611e34565b92508282039050818111156123f0576123ef61235f565b5b92915050565b7f4e487b7100000000000000000000000000000000000000000000000000000000600052603260045260246000fd5b60008151905061243481611fad565b92915050565b6000602082840312156124505761244f611d8b565b5b600061245e84828501612425565b91505092915050565b600061247282611e34565b915061247d83611e34565b925082820261248b81611e34565b915082820484148315176124a2576124a161235f565b5b5092915050565b7f4e487b7100000000000000000000000000000000000000000000000000000000600052601260045260246000fd5b60006124e382611e34565b91506124ee83611e34565b9250826124fe576124fd6124a9565b5b828204905092915050565b600060808201905061251e6000830187611e25565b61252b6020830186611e25565b6125386040830185611e3e565b6125456060830184611e3e565b95945050505050565b60006060820190506125636000830186611e25565b6125706020830185611e25565b61257d6040830184611e3e565b949350505050565b600081519050919050565b600081905092915050565b60006125a682612585565b6125b08185612590565b93506125c081856020860161214b565b80840191505092915050565b60006125d8828461259b565b915081905092915050565b6125ec81611ebc565b81146125f757600080fd5b50565b600081519050612609816125e3565b92915050565b60006020828403121561262557612624611d8b565b5b6000612633848285016125fa565b91505092915050565b600060a0820190506126516000830188611e25565b61265e6020830187611e25565b61266b6040830186611e3e565b6126786060830185611e3e565b6126856080830184611e3e565b9695505050505050565b7f4e487b7100000000000000000000000000000000000000000000000000000000600052603160045260246000fd5b50565b60006126ce600083612590565b91506126d9826126be565b600082019050919050565b60006126ef826126c1565b9150819050919050565b600060408201905061270e6000830185611e25565b61271b6020830184611e3e565b939250505056fea2646970667358221220453b31ff84a4ab4a9d16eb214a4f74856944eb35b90c9f8e1435be31c9e5ad2064736f6c634300081c0033",
  "linkReferences": {},
  "deployedLinkReferences": {}
}