{
  "_format": "hh-sol-artifact-1",
  "contractName": "MultiEscrow",
  "sourceName": "contracts/MultiEscrow.sol",
  "abi": [
    {
      "anonymous": false,
      "inputs": [
        {
          "indexed": true,
          "internalType": "bytes32",
          "name": "tradeId",
          "type": "bytes32"
        },
        {
          "indexed": false,
          "internalType": "address",
          "name": "seller",
          "type": "address"
        },
        {
          "indexed": false,
          "internalType": "address",
          "name": "buyer",
          "type": "address"
        },
        {
          "indexed": false,
          "internalType": "uint256",
          "name": "amount",
          "type": "uint256"
        },
        {
          "indexed": false,
          "internalType": "uint256",
          "name": "fractionForwarded",
          "type": "uint256"
        }
      ],
      "name": "Arbitrated",
      "type": "event"
    },
    {
      "anonymous": false,
      "inputs": [
        {
          "indexed": true,
          "internalType": "bytes32",
          "name": "tradeId",
          "type": "bytes32"
        },
        {
          "indexed": false,
          "internalType": "address",
          "name": "seller",
          "type": "address"
        },
        {
          "indexed": false,
          "internalType": "address",
          "name": "buyer",
          "type": "address"
        },
        {
          "indexed": false,
          "internalType": "uint256",
          "name": "amount",
          "type": "uint256"
        }
      ],
      "name": "Claimed",
      "type": "event"
    },
    {
      "anonymous": false,
      "inputs": [
        {
          "indexed": false,
          "internalType": "string",
          "name": "message",
          "type": "string"
        }
      ],
      "name": "DebugLog",
      "type": "event"
    },
    {
      "anonymous": false,
      "inputs": [
        {
          "indexed": true,
          "internalType": "bytes32",
          "name": "tradeId",
          "type": "bytes32"
        },
        {
          "indexed": false,
          "internalType": "address",
          "name": "from",
          "type": "address"
        },
        {
          "indexed": false,
          "internalType": "address",
          "name": "to",
          "type": "address"
        },
        {
          "indexed": false,
          "internalType": "uint256",
          "name": "amount",
          "type": "uint256"
        }
      ],
      "name": "ReleasedToCounterparty",
      "type": "event"
    },
    {
      "anonymous": false,
      "inputs": [
        {
          "indexed": true,
          "internalType": "bytes32",
          "name": "tradeId",
          "type": "bytes32"
        },
        {
          "indexed": false,
          "internalType": "address",
          "name": "seller",
          "type": "address"
        },
        {
          "indexed": false,
          "internalType": "address",
          "name": "buyer",
          "type": "address"
        },
        {
          "indexed": true,
          "internalType": "address",
          "name": "arbiter",
          "type": "address"
        },
        {
          "indexed": false,
          "internalType": "uint256",
          "name": "timelock",
          "type": "uint256"
        },
        {
          "indexed": false,
          "internalType": "uint256",
          "name": "escrowFee",
          "type": "uint256"
        }
      ],
      "name": "TradeCreated",
      "type": "event"
    },
    {
      "inputs": [
        {
          "internalType": "bytes32",
          "name": "tradeId",
          "type": "bytes32"
        }
      ],
      "name": "activeTrade",
      "outputs": [
        {
          "internalType": "bool",
          "name": "isActive",
          "type": "bool"
        },
        {
          "components": [
            {
              "internalType": "address",
              "name": "buyer",
              "type": "address"
            },
            {
              "internalType": "address",
              "name": "seller",
              "type": "address"
            },
            {
              "internalType": "address",
              "name": "arbiter",
              "type": "address"
            },
            {
              "internalType": "uint256",
              "name": "amount",
              "type": "uint256"
            },
            {
              "internalType": "uint256",
              "name": "timelock",
              "type": "uint256"
            },
            {
              "internalType": "uint256",
              "name": "escrowFee",
              "type": "uint256"
            }
          ],
          "internalType": "struct MultiEscrow.Trade",
          "name": "trade",
          "type": "tuple"
        }
      ],
      "stateMutability": "view",
      "type": "function"
    },
    {
      "inputs": [],
      "name": "activeTradeCount",
      "outputs": [
        {
          "internalType": "uint256",
          "name": "",
          "type": "uint256"
        }
      ],
      "stateMutability": "view",
      "type": "function"
    },
    {
      "inputs": [
        {
          "internalType": "bytes32",
          "name": "tradeId",
          "type": "bytes32"
        },
        {
          "internalType": "uint256",
          "name": "factor",
          "type": "uint256"
        }
      ],
      "name": "arbitrate",
      "outputs": [],
      "stateMutability": "nonpayable",
      "type": "function"
    },
    {
      "inputs": [
        {
          "internalType": "bytes32",
          "name": "tradeId",
          "type": "bytes32"
        }
      ],
      "name": "claim",
      "outputs": [],
      "stateMutability": "nonpayable",
      "type": "function"
    },
    {
      "inputs": [
        {
          "internalType": "bytes32",
          "name": "tradeId",
          "type": "bytes32"
        },
        {
          "internalType": "address",
          "name": "_buyer",
          "type": "address"
        },
        {
          "internalType": "address",
          "name": "_seller",
          "type": "address"
        },
        {
          "internalType": "address",
          "name": "_arbiter",
          "type": "address"
        },
        {
          "internalType": "uint256",
          "name": "_timelock",
          "type": "uint256"
        },
        {
          "internalType": "uint256",
          "name": "_escrowFee",
          "type": "uint256"
        }
      ],
      "name": "createTrade",
      "outputs": [],
      "stateMutability": "payable",
      "type": "function"
    },
    {
      "inputs": [],
      "name": "getActiveTradeIds",
      "outputs": [
        {
          "internalType": "bytes32[]",
          "name": "",
          "type": "bytes32[]"
        }
      ],
      "stateMutability": "view",
      "type": "function"
    },
    {
      "inputs": [
        {
          "internalType": "uint256",
          "name": "offset",
          "type": "uint256"
        },
        {
          "internalType": "uint256",
          "name": "limit",
          "type": "uint256"
        }
      ],
      "name": "getActiveTradeIdsPage",
      "outputs": [
        {
          "internalType": "bytes32[]",
          "name": "ids",
          "type": "bytes32[]"
        }
      ],
      "stateMutability": "view",
      "type": "function"
    },
    {
      "inputs": [
        {
          "internalType": "bytes32",
          "name": "tradeId",
          "type": "bytes32"
        }
      ],
      "name": "releaseToCounterparty",
      "outputs": [],
      "stateMutability": "nonpayable",
      "type": "function"
    },
    {
      "inputs": [
        {
          "internalType": "bytes32",
          "name": "",
          "type": "bytes32"
        }
      ],
      "name": "trades",
      "outputs": [
        {
          "internalType": "address",
          "name": "buyer",
          "type": "address"
        },
        {
          "internalType": "address",
          "name": "seller",
          "type": "address"
        },
        {
          "internalType": "address",
          "name": "arbiter",
          "type": "address"
        },
        {
          "internalType": "uint256",
          "name": "amount",
          "type": "uint256"
        },
        {
          "internalType": "uint256",
          "name": "timelock",
          "type": "uint256"
        },
        {
          "internalType": "uint256",
          "name": "escrowFee",
          "type": "uint256"
        }
      ],
      "stateMutability": "view",
      "type": "function"
    }
  ],
  "bytecode": "0x6080604052348015600f57600080fd5b506122498061001f6000396000f3fe6080604052600436106100855760003560e01c80637a5b8584116100595780637a5b858414610163578063bd66528a1461018c578063cb2e7212146101b5578063cedc4478146101de578063f42981241461020957610085565b80621624201461008a5780631ca82a93146100cc578063369ea7fc1461010a57806356c48e8314610126575b600080fd5b34801561009657600080fd5b506100b160048036038101906100ac9190611587565b610234565b6040516100c39695949392919061160e565b60405180910390f35b3480156100d857600080fd5b506100f360048036038101906100ee9190611587565b6102d0565b604051610101929190611723565b60405180910390f35b610124600480360381019061011f91906117a4565b610465565b005b34801561013257600080fd5b5061014d60048036038101906101489190611831565b6107ac565b60405161015a919061192f565b60405180910390f35b34801561016f57600080fd5b5061018a60048036038101906101859190611587565b610901565b005b34801561019857600080fd5b506101b360048036038101906101ae9190611587565b610be9565b005b3480156101c157600080fd5b506101dc60048036038101906101d79190611951565b610edc565b005b3480156101ea57600080fd5b506101f3611297565b6040516102009190611991565b60405180910390f35b34801561021557600080fd5b5061021e6112a4565b60405161022b919061192f565b60405180910390f35b60006020528060005260406000206000915090508060000160009054906101000a900473ffffffffffffffffffffffffffffffffffffffff16908060010160009054906101000a900473ffffffffffffffffffffffffffffffffffffffff16908060020160009054906101000a900473ffffffffffffffffffffffffffffffffffffffff16908060030154908060040154908060050154905086565b60006102da6114d4565b6000808481526020019081526020016000206040518060c00160405290816000820160009054906101000a900473ffffffffffffffffffffffffffffffffffffffff1673ffffffffffffffffffffffffffffffffffffffff1673ffffffffffffffffffffffffffffffffffffffff1681526020016001820160009054906101000a900473ffffffffffffffffffffffffffffffffffffffff1673ffffffffffffffffffffffffffffffffffffffff1673ffffffffffffffffffffffffffffffffffffffff1681526020016002820160009054906101000a900473ffffffffffffffffffffffffffffffffffffffff1673ffffffffffffffffffffffffffffffffffffffff1673ffffffffffffffffffffffffffffffffffffffff16815260200160038201548152602001600482015481526020016005820154815250509050600073ffffffffffffffffffffffffffffffffffffffff16816000015173ffffffffffffffffffffffffffffffffffffffff161415801561045e575060008160600151115b9150915091565b7f4be5e2ddd7b814bfc07153581bbbda6ea3d62d61c270f9788cae2f0297e18ae860405161049290611a09565b60405180910390a1600073ffffffffffffffffffffffffffffffffffffffff1660008088815260200190815260200160002060000160009054906101000a900473ffffffffffffffffffffffffffffffffffffffff1673ffffffffffffffffffffffffffffffffffffffff161461053e576040517f08c379a000000000000000000000000000000000000000000000000000000000815260040161053590611a75565b60405180910390fd5b60003411610581576040517f08c379a000000000000000000000000000000000000000000000000000000000815260040161057890611b07565b60405180910390fd5b600082116105c4576040517f08c379a00000000000000000000000000000000000000000000000000000000081526004016105bb90611b73565b60405180910390fd5b6040518060c001604052808673ffffffffffffffffffffffffffffffffffffffff1681526020018573ffffffffffffffffffffffffffffffffffffffff1681526020018473ffffffffffffffffffffffffffffffffffffffff16815260200134815260200183426106359190611bc2565b81526020018281525060008088815260200190815260200160002060008201518160000160006101000a81548173ffffffffffffffffffffffffffffffffffffffff021916908373ffffffffffffffffffffffffffffffffffffffff16021790555060208201518160010160006101000a81548173ffffffffffffffffffffffffffffffffffffffff021916908373ffffffffffffffffffffffffffffffffffffffff16021790555060408201518160020160006101000a81548173ffffffffffffffffffffffffffffffffffffffff021916908373ffffffffffffffffffffffffffffffffffffffff160217905550606082015181600301556080820151816004015560a0820151816005015590505061074f866112fc565b8273ffffffffffffffffffffffffffffffffffffffff16867f61fe62efd283b1563a16a9e31a5294efcb8b11ed366613a1a7120efde467d5a38688868660405161079c9493929190611bf6565b60405180910390a3505050505050565b6060600180549050831015806107c25750600082145b1561081857600067ffffffffffffffff8111156107e2576107e1611c3b565b5b6040519080825280602002602001820160405280156108105781602001602082028036833780820191505090505b5090506108fb565b600082846108269190611bc2565b905060018054905081111561083e5760018054905090505b838161084a9190611c6a565b67ffffffffffffffff81111561086357610862611c3b565b5b6040519080825280602002602001820160405280156108915781602001602082028036833780820191505090505b50915060008490505b818110156108f857600181815481106108b6576108b5611c9e565b5b90600052602060002001548386836108ce9190611c6a565b815181106108df576108de611c9e565b5b602002602001018181525050808060010191505061089a565b50505b92915050565b60008060008381526020019081526020016000209050600081600301541161095e576040517f08c379a000000000000000000000000000000000000000000000000000000000815260040161095590611d19565b60405180910390fd5b60008160010160009054906101000a900473ffffffffffffffffffffffffffffffffffffffff1673ffffffffffffffffffffffffffffffffffffffff163373ffffffffffffffffffffffffffffffffffffffff16036109e3578160000160009054906101000a900473ffffffffffffffffffffffffffffffffffffffff169050610aa2565b8160000160009054906101000a900473ffffffffffffffffffffffffffffffffffffffff1673ffffffffffffffffffffffffffffffffffffffff163373ffffffffffffffffffffffffffffffffffffffff1603610a66578160010160009054906101000a900473ffffffffffffffffffffffffffffffffffffffff169050610aa1565b6040517f08c379a0000000000000000000000000000000000000000000000000000000008152600401610a9890611dab565b60405180910390fd5b5b600082600301549050600083600301819055508173ffffffffffffffffffffffffffffffffffffffff166108fc829081150290604051600060405180830381858888f19350505050158015610afb573d6000803e3d6000fd5b50837fe4eaec739c6224a3245d008777b196becba9fde9b25b3aabac54b6e3a2d120a5338484604051610b3093929190611dcb565b60405180910390a2610b418461139b565b600080858152602001908152602001600020600080820160006101000a81549073ffffffffffffffffffffffffffffffffffffffff02191690556001820160006101000a81549073ffffffffffffffffffffffffffffffffffffffff02191690556002820160006101000a81549073ffffffffffffffffffffffffffffffffffffffff0219169055600382016000905560048201600090556005820160009055505050505050565b600080600083815260200190815260200160002090508060010160009054906101000a900473ffffffffffffffffffffffffffffffffffffffff1673ffffffffffffffffffffffffffffffffffffffff163373ffffffffffffffffffffffffffffffffffffffff1614610c91576040517f08c379a0000000000000000000000000000000000000000000000000000000008152600401610c8890611e74565b60405180910390fd5b621275008160040154610ca49190611bc2565b4211610ce5576040517f08c379a0000000000000000000000000000000000000000000000000000000008152600401610cdc90611ee0565b60405180910390fd5b6000816003015411610d2c576040517f08c379a0000000000000000000000000000000000000000000000000000000008152600401610d2390611f4c565b60405180910390fd5b8060010160009054906101000a900473ffffffffffffffffffffffffffffffffffffffff1673ffffffffffffffffffffffffffffffffffffffff166108fc82600301549081150290604051600060405180830381858888f19350505050158015610d9a573d6000803e3d6000fd5b5060008160030181905550817f8b1927e0809f1e7682bb8c52fafe4c0445fea47afef60dd27e037e91fd104d2e8260010160009054906101000a900473ffffffffffffffffffffffffffffffffffffffff168360000160009054906101000a900473ffffffffffffffffffffffffffffffffffffffff168460030154604051610e2593929190611dcb565b60405180910390a2610e368261139b565b600080838152602001908152602001600020600080820160006101000a81549073ffffffffffffffffffffffffffffffffffffffff02191690556001820160006101000a81549073ffffffffffffffffffffffffffffffffffffffff02191690556002820160006101000a81549073ffffffffffffffffffffffffffffffffffffffff021916905560038201600090556004820160009055600582016000905550505050565b8160008082815260200190815260200160002060020160009054906101000a900473ffffffffffffffffffffffffffffffffffffffff1673ffffffffffffffffffffffffffffffffffffffff163373ffffffffffffffffffffffffffffffffffffffff1614610f80576040517f08c379a0000000000000000000000000000000000000000000000000000000008152600401610f7790611fde565b60405180910390fd5b60008060008581526020019081526020016000209050600083118015610fa65750600183105b610fe5576040517f08c379a0000000000000000000000000000000000000000000000000000000008152600401610fdc9061204a565b60405180910390fd5b6000606482600501548360030154610ffd919061206a565b61100791906120db565b9050600081836003015461101b9190611c6a565b905060006001868361102d919061206a565b61103791906120db565b905060008111156110ae578360010160009054906101000a900473ffffffffffffffffffffffffffffffffffffffff1673ffffffffffffffffffffffffffffffffffffffff166108fc829081150290604051600060405180830381858888f193505050501580156110ac573d6000803e3d6000fd5b505b82816110ba9190611bc2565b8460030160008282546110cd9190611c6a565b925050819055506000846003015490506000811115611152578460000160009054906101000a900473ffffffffffffffffffffffffffffffffffffffff1673ffffffffffffffffffffffffffffffffffffffff166108fc829081150290604051600060405180830381858888f19350505050158015611150573d6000803e3d6000fd5b505b60008560030181905550877fcc246de485760d7415de3512dd87394e9ca2cb6995809d8c7f34151defb815188660010160009054906101000a900473ffffffffffffffffffffffffffffffffffffffff168760000160009054906101000a900473ffffffffffffffffffffffffffffffffffffffff16868b6040516111da9493929190611bf6565b60405180910390a26111eb8861139b565b600080898152602001908152602001600020600080820160006101000a81549073ffffffffffffffffffffffffffffffffffffffff02191690556001820160006101000a81549073ffffffffffffffffffffffffffffffffffffffff02191690556002820160006101000a81549073ffffffffffffffffffffffffffffffffffffffff021916905560038201600090556004820160009055600582016000905550505050505050505050565b6000600180549050905090565b606060018054806020026020016040519081016040528092919081815260200182805480156112f257602002820191906000526020600020905b8154815260200190600101908083116112de575b5050505050905090565b6000600260008381526020019081526020016000205414611352576040517f08c379a000000000000000000000000000000000000000000000000000000000815260040161134990612158565b60405180910390fd5b6001819080600181540180825580915050600190039060005260206000200160009091909190915055600180549050600260008381526020019081526020016000208190555050565b600060026000838152602001908152602001600020549050600081036113f6576040517f08c379a00000000000000000000000000000000000000000000000000000000081526004016113ed906121c4565b60405180910390fd5b60006001826114059190611c6a565b905060006001808054905061141a9190611c6a565b905080821461148f5760006001828154811061143957611438611c9e565b5b90600052602060002001549050806001848154811061145b5761145a611c9e565b5b90600052602060002001819055506001836114769190611bc2565b6002600083815260200190815260200160002081905550505b60018054806114a1576114a06121e4565b5b60019003818190600052602060002001600090559055600260008581526020019081526020016000206000905550505050565b6040518060c00160405280600073ffffffffffffffffffffffffffffffffffffffff168152602001600073ffffffffffffffffffffffffffffffffffffffff168152602001600073ffffffffffffffffffffffffffffffffffffffff1681526020016000815260200160008152602001600081525090565b600080fd5b6000819050919050565b61156481611551565b811461156f57600080fd5b50565b6000813590506115818161155b565b92915050565b60006020828403121561159d5761159c61154c565b5b60006115ab84828501611572565b91505092915050565b600073ffffffffffffffffffffffffffffffffffffffff82169050919050565b60006115df826115b4565b9050919050565b6115ef816115d4565b82525050565b6000819050919050565b611608816115f5565b82525050565b600060c08201905061162360008301896115e6565b61163060208301886115e6565b61163d60408301876115e6565b61164a60608301866115ff565b61165760808301856115ff565b61166460a08301846115ff565b979650505050505050565b60008115159050919050565b6116848161166f565b82525050565b611693816115d4565b82525050565b6116a2816115f5565b82525050565b60c0820160008201516116be600085018261168a565b5060208201516116d1602085018261168a565b5060408201516116e4604085018261168a565b5060608201516116f76060850182611699565b50608082015161170a6080850182611699565b5060a082015161171d60a0850182611699565b50505050565b600060e082019050611738600083018561167b565b61174560208301846116a8565b9392505050565b611755816115d4565b811461176057600080fd5b50565b6000813590506117728161174c565b92915050565b611781816115f5565b811461178c57600080fd5b50565b60008135905061179e81611778565b92915050565b60008060008060008060c087890312156117c1576117c061154c565b5b60006117cf89828a01611572565b96505060206117e089828a01611763565b95505060406117f189828a01611763565b945050606061180289828a01611763565b935050608061181389828a0161178f565b92505060a061182489828a0161178f565b9150509295509295509295565b600080604083850312156118485761184761154c565b5b60006118568582860161178f565b92505060206118678582860161178f565b9150509250929050565b600081519050919050565b600082825260208201905092915050565b6000819050602082019050919050565b6118a681611551565b82525050565b60006118b8838361189d565b60208301905092915050565b6000602082019050919050565b60006118dc82611871565b6118e6818561187c565b93506118f18361188d565b8060005b8381101561192257815161190988826118ac565b9750611914836118c4565b9250506001810190506118f5565b5085935050505092915050565b6000602082019050818103600083015261194981846118d1565b905092915050565b600080604083850312156119685761196761154c565b5b600061197685828601611572565b92505060206119878582860161178f565b9150509250929050565b60006020820190506119a660008301846115ff565b92915050565b600082825260208201905092915050565b7f547261646543726561746564206576656e7420656d6974746564000000000000600082015250565b60006119f3601a836119ac565b91506119fe826119bd565b602082019050919050565b60006020820190508181036000830152611a22816119e6565b9050919050565b7f547261646520494420616c726561647920657869737473000000000000000000600082015250565b6000611a5f6017836119ac565b9150611a6a82611a29565b602082019050919050565b60006020820190508181036000830152611a8e81611a52565b9050919050565b7f4d7573742073656e642066756e647320746f2063726561746520616e2065736360008201527f726f7720636f6e74726163740000000000000000000000000000000000000000602082015250565b6000611af1602c836119ac565b9150611afc82611a95565b604082019050919050565b60006020820190508181036000830152611b2081611ae4565b9050919050565b7f54696d656c6f636b206d7573742062652067726561746572207468616e203000600082015250565b6000611b5d601f836119ac565b9150611b6882611b27565b602082019050919050565b60006020820190508181036000830152611b8c81611b50565b9050919050565b7f4e487b7100000000000000000000000000000000000000000000000000000000600052601160045260246000fd5b6000611bcd826115f5565b9150611bd8836115f5565b9250828201905080821115611bf057611bef611b93565b5b92915050565b6000608082019050611c0b60008301876115e6565b611c1860208301866115e6565b611c2560408301856115ff565b611c3260608301846115ff565b95945050505050565b7f4e487b7100000000000000000000000000000000000000000000000000000000600052604160045260246000fd5b6000611c75826115f5565b9150611c80836115f5565b9250828203905081811115611c9857611c97611b93565b5b92915050565b7f4e487b7100000000000000000000000000000000000000000000000000000000600052603260045260246000fd5b7f4e6f2066756e647320746f2072656c6561736500000000000000000000000000600082015250565b6000611d036013836119ac565b9150611d0e82611ccd565b602082019050919050565b60006020820190508181036000830152611d3281611cf6565b9050919050565b7f4f6e6c79206275796572206f722073656c6c65722063616e2072656c6561736560008201527f2066756e64730000000000000000000000000000000000000000000000000000602082015250565b6000611d956026836119ac565b9150611da082611d39565b604082019050919050565b60006020820190508181036000830152611dc481611d88565b9050919050565b6000606082019050611de060008301866115e6565b611ded60208301856115e6565b611dfa60408301846115ff565b949350505050565b7f4f6e6c79207468652073656c6c65722063616e20636c61696d2074686520667560008201527f6e64730000000000000000000000000000000000000000000000000000000000602082015250565b6000611e5e6023836119ac565b9150611e6982611e02565b604082019050919050565b60006020820190508181036000830152611e8d81611e51565b9050919050565b7f436c61696d20706572696f6420686173206e6f74207374617274656420796574600082015250565b6000611eca6020836119ac565b9150611ed582611e94565b602082019050919050565b60006020820190508181036000830152611ef981611ebd565b9050919050565b7f4e6f2066756e647320746f20636c61696d000000000000000000000000000000600082015250565b6000611f366011836119ac565b9150611f4182611f00565b602082019050919050565b60006020820190508181036000830152611f6581611f29565b9050919050565b7f4f6e6c7920617262697465722063616e2063616c6c20746869732066756e637460008201527f696f6e0000000000000000000000000000000000000000000000000000000000602082015250565b6000611fc86023836119ac565b9150611fd382611f6c565b604082019050919050565b60006020820190508181036000830152611ff781611fbb565b9050919050565b7f466163746f72206d757374206265206265747765656e203020616e6420310000600082015250565b6000612034601e836119ac565b915061203f82611ffe565b602082019050919050565b6000602082019050818103600083015261206381612027565b9050919050565b6000612075826115f5565b9150612080836115f5565b925082820261208e816115f5565b915082820484148315176120a5576120a4611b93565b5b5092915050565b7f4e487b7100000000000000000000000000000000000000000000000000000000600052601260045260246000fd5b60006120e6826115f5565b91506120f1836115f5565b925082612101576121006120ac565b5b828204905092915050565b7f547261646520616c726561647920616374697665000000000000000000000000600082015250565b60006121426014836119ac565b915061214d8261210c565b602082019050919050565b6000602082019050818103600083015261217181612135565b9050919050565b7f5472616465206e6f742061637469766500000000000000000000000000000000600082015250565b60006121ae6010836119ac565b91506121b982612178565b602082019050919050565b600060208201905081810360008301526121dd816121a1565b9050919050565b7f4e487b7100000000000000000000000000000000000000000000000000000000600052603160045260246000fdfea264697066735822122088826c87dba8062b7bc00ce960e341f3598f58233f0d1ec50f6204532d8eaa5064736f6c634300081c0033",
  "linkReferences": {},
  "deployedLinkReferences": {}
}