{
  "_format": "hh-sol-artifact-1",
  "contractName": "MultiEscrow",
  "sourceName": "contracts/MultiEscrow.sol",
  "abi": [
    {
      "inputs": [],
      "stateMutability": "nonpayable",
      "type": "constructor"
    },
    {
      "inputs": [],
      "name": "ClaimPeriodNotStarted",
      "type": "error"
    },
    {
      "inputs": [],
      "name": "ClaimSignerNotBuyer",
      "type": "error"
    },
    {
      "inputs": [],
      "name": "ClaimedAmountMismatch",
      "type": "error"
    },
    {
      "inputs": [],
      "name": "EscrowFeeTooHigh",
      "type": "error"
    },
    {
      "inputs": [],
      "name": "InvalidFactor",
      "type": "error"
    },
    {
      "inputs": [],
      "name": "InvalidFeeRecipient",
      "type": "error"
    },
    {
      "inputs": [],
      "name": "InvalidSignature",
      "type": "error"
    },
    {
      "inputs": [],
      "name": "InvalidSwapContract",
      "type": "error"
    },
    {
      "inputs": [],
      "name": "MustSendFunds",
      "type": "error"
    },
    {
      "inputs": [],
      "name": "NativeTransferFailed",
      "type": "error"
    },
    {
      "inputs": [],
      "name": "NoFundsToClaim",
      "type": "error"
    },
    {
      "inputs": [],
      "name": "NoFundsToRelease",
      "type": "error"
    },
    {
      "inputs": [],
      "name": "OnlyArbiter",
      "type": "error"
    },
    {
      "inputs": [],
      "name": "OnlyBuyerOrSeller",
      "type": "error"
    },
    {
      "inputs": [],
      "name": "OnlySeller",
      "type": "error"
    },
    {
      "inputs": [],
      "name": "RelayFeeTooHigh",
      "type": "error"
    },
    {
      "inputs": [],
      "name": "SignatureExpired",
      "type": "error"
    },
    {
      "inputs": [],
      "name": "TradeAlreadyActive",
      "type": "error"
    },
    {
      "inputs": [],
      "name": "TradeIdAlreadyExists",
      "type": "error"
    },
    {
      "inputs": [],
      "name": "TradeNotActive",
      "type": "error"
    },
    {
      "anonymous": false,
      "inputs": [
        {
          "indexed": true,
          "internalType": "bytes32",
          "name": "tradeId",
          "type": "bytes32"
        },
        {
          "indexed": false,
          "internalType": "address",
          "name": "seller",
          "type": "address"
        },
        {
          "indexed": false,
          "internalType": "address",
          "name": "buyer",
          "type": "address"
        },
        {
          "indexed": false,
          "internalType": "uint256",
          "name": "amount",
          "type": "uint256"
        },
        {
          "indexed": false,
          "internalType": "uint256",
          "name": "fractionForwarded",
          "type": "uint256"
        }
      ],
      "name": "Arbitrated",
      "type": "event"
    },
    {
      "anonymous": false,
      "inputs": [
        {
          "indexed": true,
          "internalType": "bytes32",
          "name": "tradeId",
          "type": "bytes32"
        },
        {
          "indexed": false,
          "internalType": "address",
          "name": "seller",
          "type": "address"
        },
        {
          "indexed": false,
          "internalType": "address",
          "name": "buyer",
          "type": "address"
        },
        {
          "indexed": false,
          "internalType": "uint256",
          "name": "amount",
          "type": "uint256"
        }
      ],
      "name": "Claimed",
      "type": "event"
    },
    {
      "anonymous": false,
      "inputs": [
        {
          "indexed": true,
          "internalType": "bytes32",
          "name": "tradeId",
          "type": "bytes32"
        },
        {
          "indexed": true,
          "internalType": "address",
          "name": "feeReceiver",
          "type": "address"
        },
        {
          "indexed": false,
          "internalType": "uint256",
          "name": "amount",
          "type": "uint256"
        }
      ],
      "name": "RelayFeePaid",
      "type": "event"
    },
    {
      "anonymous": false,
      "inputs": [
        {
          "indexed": true,
          "internalType": "bytes32",
          "name": "tradeId",
          "type": "bytes32"
        },
        {
          "indexed": false,
          "internalType": "address",
          "name": "from",
          "type": "address"
        },
        {
          "indexed": false,
          "internalType": "address",
          "name": "to",
          "type": "address"
        },
        {
          "indexed": false,
          "internalType": "uint256",
          "name": "amount",
          "type": "uint256"
        }
      ],
      "name": "ReleasedToCounterparty",
      "type": "event"
    },
    {
      "anonymous": false,
      "inputs": [
        {
          "indexed": true,
          "internalType": "bytes32",
          "name": "tradeId",
          "type": "bytes32"
        },
        {
          "indexed": false,
          "internalType": "address",
          "name": "seller",
          "type": "address"
        },
        {
          "indexed": false,
          "internalType": "address",
          "name": "buyer",
          "type": "address"
        },
        {
          "indexed": true,
          "internalType": "address",
          "name": "arbiter",
          "type": "address"
        },
        {
          "indexed": false,
          "internalType": "uint256",
          "name": "unlockAt",
          "type": "uint256"
        },
        {
          "indexed": false,
          "internalType": "uint256",
          "name": "escrowFee",
          "type": "uint256"
        }
      ],
      "name": "TradeCreated",
      "type": "event"
    },
    {
      "inputs": [],
      "name": "DOMAIN_SEPARATOR",
      "outputs": [
        {
          "internalType": "bytes32",
          "name": "",
          "type": "bytes32"
        }
      ],
      "stateMutability": "view",
      "type": "function"
    },
    {
      "inputs": [],
      "name": "FACTOR_SCALE",
      "outputs": [
        {
          "internalType": "uint256",
          "name": "",
          "type": "uint256"
        }
      ],
      "stateMutability": "view",
      "type": "function"
    },
    {
      "inputs": [],
      "name": "NAME",
      "outputs": [
        {
          "internalType": "string",
          "name": "",
          "type": "string"
        }
      ],
      "stateMutability": "view",
      "type": "function"
    },
    {
      "inputs": [],
      "name": "VERSION",
      "outputs": [
        {
          "internalType": "string",
          "name": "",
          "type": "string"
        }
      ],
      "stateMutability": "view",
      "type": "function"
    },
    {
      "inputs": [
        {
          "internalType": "bytes32",
          "name": "tradeId",
          "type": "bytes32"
        }
      ],
      "name": "activeTrade",
      "outputs": [
        {
          "internalType": "bool",
          "name": "isActive",
          "type": "bool"
        },
        {
          "components": [
            {
              "internalType": "address",
              "name": "buyer",
              "type": "address"
            },
            {
              "internalType": "address",
              "name": "seller",
              "type": "address"
            },
            {
              "internalType": "address",
              "name": "arbiter",
              "type": "address"
            },
            {
              "internalType": "uint256",
              "name": "amount",
              "type": "uint256"
            },
            {
              "internalType": "uint256",
              "name": "unlockAt",
              "type": "uint256"
            },
            {
              "internalType": "uint256",
              "name": "escrowFee",
              "type": "uint256"
            }
          ],
          "internalType": "struct MultiEscrow.Trade",
          "name": "trade",
          "type": "tuple"
        }
      ],
      "stateMutability": "view",
      "type": "function"
    },
    {
      "inputs": [],
      "name": "activeTradeCount",
      "outputs": [
        {
          "internalType": "uint256",
          "name": "",
          "type": "uint256"
        }
      ],
      "stateMutability": "view",
      "type": "function"
    },
    {
      "inputs": [
        {
          "internalType": "bytes32",
          "name": "tradeId",
          "type": "bytes32"
        },
        {
          "internalType": "uint256",
          "name": "factor",
          "type": "uint256"
        }
      ],
      "name": "arbitrate",
      "outputs": [],
      "stateMutability": "nonpayable",
      "type": "function"
    },
    {
      "inputs": [
        {
          "internalType": "bytes32",
          "name": "tradeId",
          "type": "bytes32"
        }
      ],
      "name": "claim",
      "outputs": [],
      "stateMutability": "nonpayable",
      "type": "function"
    },
    {
      "inputs": [
        {
          "internalType": "bytes32",
          "name": "tradeId",
          "type": "bytes32"
        },
        {
          "components": [
            {
              "internalType": "address",
              "name": "receiver",
              "type": "address"
            },
            {
              "internalType": "uint256",
              "name": "amount",
              "type": "uint256"
            },
            {
              "internalType": "uint256",
              "name": "deadline",
              "type": "uint256"
            }
          ],
          "internalType": "struct MultiEscrow.RelayFeeQuote",
          "name": "relayFeeQuote",
          "type": "tuple"
        },
        {
          "internalType": "bytes",
          "name": "signature",
          "type": "bytes"
        }
      ],
      "name": "claim",
      "outputs": [],
      "stateMutability": "nonpayable",
      "type": "function"
    },
    {
      "inputs": [
        {
          "components": [
            {
              "internalType": "address",
              "name": "swapContract",
              "type": "address"
            },
            {
              "internalType": "bytes32",
              "name": "preimage",
              "type": "bytes32"
            },
            {
              "internalType": "uint256",
              "name": "amount",
              "type": "uint256"
            },
            {
              "internalType": "address",
              "name": "refundAddress",
              "type": "address"
            },
            {
              "internalType": "uint256",
              "name": "timelock",
              "type": "uint256"
            },
            {
              "internalType": "uint8",
              "name": "v",
              "type": "uint8"
            },
            {
              "internalType": "bytes32",
              "name": "r",
              "type": "bytes32"
            },
            {
              "internalType": "bytes32",
              "name": "s",
              "type": "bytes32"
            }
          ],
          "internalType": "struct MultiEscrow.ClaimArgs",
          "name": "claimArgs",
          "type": "tuple"
        },
        {
          "components": [
            {
              "internalType": "bytes32",
              "name": "tradeId",
              "type": "bytes32"
            },
            {
              "internalType": "address",
              "name": "buyer",
              "type": "address"
            },
            {
              "internalType": "address",
              "name": "seller",
              "type": "address"
            },
            {
              "internalType": "address",
              "name": "arbiter",
              "type": "address"
            },
            {
              "internalType": "uint256",
              "name": "unlockAt",
              "type": "uint256"
            },
            {
              "internalType": "uint256",
              "name": "escrowFee",
              "type": "uint256"
            }
          ],
          "internalType": "struct MultiEscrow.FundArgs",
          "name": "fundArgs",
          "type": "tuple"
        }
      ],
      "name": "claimSwapAndFund",
      "outputs": [],
      "stateMutability": "nonpayable",
      "type": "function"
    },
    {
      "inputs": [
        {
          "internalType": "bytes32",
          "name": "tradeId",
          "type": "bytes32"
        },
        {
          "internalType": "address",
          "name": "_buyer",
          "type": "address"
        },
        {
          "internalType": "address",
          "name": "_seller",
          "type": "address"
        },
        {
          "internalType": "address",
          "name": "_arbiter",
          "type": "address"
        },
        {
          "internalType": "uint256",
          "name": "_unlockAt",
          "type": "uint256"
        },
        {
          "internalType": "uint256",
          "name": "_escrowFee",
          "type": "uint256"
        }
      ],
      "name": "createTrade",
      "outputs": [],
      "stateMutability": "payable",
      "type": "function"
    },
    {
      "inputs": [],
      "name": "getActiveTradeIds",
      "outputs": [
        {
          "internalType": "bytes32[]",
          "name": "",
          "type": "bytes32[]"
        }
      ],
      "stateMutability": "view",
      "type": "function"
    },
    {
      "inputs": [
        {
          "internalType": "uint256",
          "name": "offset",
          "type": "uint256"
        },
        {
          "internalType": "uint256",
          "name": "limit",
          "type": "uint256"
        }
      ],
      "name": "getActiveTradeIdsPage",
      "outputs": [
        {
          "internalType": "bytes32[]",
          "name": "ids",
          "type": "bytes32[]"
        }
      ],
      "stateMutability": "view",
      "type": "function"
    },
    {
      "inputs": [
        {
          "internalType": "bytes32",
          "name": "tradeId",
          "type": "bytes32"
        },
        {
          "components": [
            {
              "internalType": "address",
              "name": "receiver",
              "type": "address"
            },
            {
              "internalType": "uint256",
              "name": "amount",
              "type": "uint256"
            },
            {
              "internalType": "uint256",
              "name": "deadline",
              "type": "uint256"
            }
          ],
          "internalType": "struct MultiEscrow.RelayFeeQuote",
          "name": "relayFeeQuote",
          "type": "tuple"
        }
      ],
      "name": "hashClaimAuthorization",
      "outputs": [
        {
          "internalType": "bytes32",
          "name": "",
          "type": "bytes32"
        }
      ],
      "stateMutability": "view",
      "type": "function"
    },
    {
      "inputs": [
        {
          "internalType": "bytes32",
          "name": "tradeId",
          "type": "bytes32"
        },
        {
          "components": [
            {
              "internalType": "address",
              "name": "receiver",
              "type": "address"
            },
            {
              "internalType": "uint256",
              "name": "amount",
              "type": "uint256"
            },
            {
              "internalType": "uint256",
              "name": "deadline",
              "type": "uint256"
            }
          ],
          "internalType": "struct MultiEscrow.RelayFeeQuote",
          "name": "relayFeeQuote",
          "type": "tuple"
        }
      ],
      "name": "hashReleaseAuthorization",
      "outputs": [
        {
          "internalType": "bytes32",
          "name": "",
          "type": "bytes32"
        }
      ],
      "stateMutability": "view",
      "type": "function"
    },
    {
      "inputs": [
        {
          "internalType": "bytes32",
          "name": "tradeId",
          "type": "bytes32"
        },
        {
          "components": [
            {
              "internalType": "address",
              "name": "receiver",
              "type": "address"
            },
            {
              "internalType": "uint256",
              "name": "amount",
              "type": "uint256"
            },
            {
              "internalType": "uint256",
              "name": "deadline",
              "type": "uint256"
            }
          ],
          "internalType": "struct MultiEscrow.RelayFeeQuote",
          "name": "relayFeeQuote",
          "type": "tuple"
        },
        {
          "internalType": "bytes",
          "name": "signature",
          "type": "bytes"
        }
      ],
      "name": "releaseToCounterparty",
      "outputs": [],
      "stateMutability": "nonpayable",
      "type": "function"
    },
    {
      "inputs": [
        {
          "internalType": "bytes32",
          "name": "tradeId",
          "type": "bytes32"
        }
      ],
      "name": "releaseToCounterparty",
      "outputs": [],
      "stateMutability": "nonpayable",
      "type": "function"
    },
    {
      "inputs": [
        {
          "internalType": "bytes32",
          "name": "",
          "type": "bytes32"
        }
      ],
      "name": "trades",
      "outputs": [
        {
          "internalType": "address",
          "name": "buyer",
          "type": "address"
        },
        {
          "internalType": "address",
          "name": "seller",
          "type": "address"
        },
        {
          "internalType": "address",
          "name": "arbiter",
          "type": "address"
        },
        {
          "internalType": "uint256",
          "name": "amount",
          "type": "uint256"
        },
        {
          "internalType": "uint256",
          "name": "unlockAt",
          "type": "uint256"
        },
        {
          "internalType": "uint256",
          "name": "escrowFee",
          "type": "uint256"
        }
      ],
      "stateMutability": "view",
      "type": "function"
    },
    {
      "stateMutability": "payable",
      "type": "receive"
    }
  ],
  "bytecode": "0x60a060405234801561001057600080fd5b507f8b73c3c69bb8fe3d512ecc4cf759cc79239f7b179b0ffacaa9a75d522b39400f6040518060400160405280601181526020017f486f737472204d756c7469457363726f77000000000000000000000000000000815250805190602001206040518060400160405280600181526020017f32000000000000000000000000000000000000000000000000000000000000008152508051906020012046306040516020016100c2959493929190610157565b60405160208183030381529060405280519060200120608081815250506101aa565b6000819050919050565b6100f7816100e4565b82525050565b6000819050919050565b610110816100fd565b82525050565b600073ffffffffffffffffffffffffffffffffffffffff82169050919050565b600061014182610116565b9050919050565b61015181610136565b82525050565b600060a08201905061016c60008301886100ee565b61017960208301876100ee565b61018660408301866100ee565b6101936060830185610107565b6101a06080830184610148565b9695505050505050565b608051612f606101cc6000396000818161070b01526110f00152612f606000f3fe60806040526004361061010c5760003560e01c8063a1fb634511610095578063cb2e721211610064578063cb2e721214610390578063cedc4478146103b9578063d6171757146103e4578063f42981241461040d578063ffa1ad741461043857610113565b8063a1fb6345146102e8578063a3f4df7e14610313578063bd66528a1461033e578063c363875b1461036757610113565b8063369ea7fc116100dc578063369ea7fc146102005780633a6bde891461021c57806356c48e83146102455780636c1127c0146102825780637a5b8584146102bf57610113565b80621624201461011857806306bee3481461015a5780631ca82a93146101975780633644e515146101d557610113565b3661011357005b600080fd5b34801561012457600080fd5b5061013f600480360381019061013a9190612209565b610463565b60405161015196959493929190612290565b60405180910390f35b34801561016657600080fd5b50610181600480360381019061017c9190612315565b6104ff565b60405161018e9190612364565b60405180910390f35b3480156101a357600080fd5b506101be60048036038101906101b99190612209565b610574565b6040516101cc929190612433565b60405180910390f35b3480156101e157600080fd5b506101ea610709565b6040516101f79190612364565b60405180910390f35b61021a600480360381019061021591906124b4565b61072d565b005b34801561022857600080fd5b50610243600480360381019061023e91906125a6565b610744565b005b34801561025157600080fd5b5061026c6004803603810190610267919061261a565b6107be565b6040516102799190612718565b60405180910390f35b34801561028e57600080fd5b506102a960048036038101906102a49190612315565b610911565b6040516102b69190612364565b60405180910390f35b3480156102cb57600080fd5b506102e660048036038101906102e19190612209565b610986565b005b3480156102f457600080fd5b506102fd6109c9565b60405161030a919061273a565b60405180910390f35b34801561031f57600080fd5b506103286109cf565b60405161033591906127e5565b60405180910390f35b34801561034a57600080fd5b5061036560048036038101906103609190612209565b610a08565b005b34801561037357600080fd5b5061038e600480360381019061038991906125a6565b610a49565b005b34801561039c57600080fd5b506103b760048036038101906103b29190612807565b610b61565b005b3480156103c557600080fd5b506103ce610d7d565b6040516103db919061273a565b60405180910390f35b3480156103f057600080fd5b5061040b60048036038101906104069190612886565b610d8a565b005b34801561041957600080fd5b50610422610ff9565b60405161042f9190612718565b60405180910390f35b34801561044457600080fd5b5061044d611051565b60405161045a91906127e5565b60405180910390f35b60006020528060005260406000206000915090508060000160009054906101000a900473ffffffffffffffffffffffffffffffffffffffff16908060010160009054906101000a900473ffffffffffffffffffffffffffffffffffffffff16908060020160009054906101000a900473ffffffffffffffffffffffffffffffffffffffff16908060030154908060040154908060050154905086565b600061056c7f03ef1cad4f4f0ecc82305809e4c7b95ef97e386da618e54fbc8199c1b1227f0d8461053f8580360381019061053a91906129ac565b61108a565b604051602001610551939291906129d9565b604051602081830303815290604052805190602001206110ec565b905092915050565b600061057e612147565b6000808481526020019081526020016000206040518060c00160405290816000820160009054906101000a900473ffffffffffffffffffffffffffffffffffffffff1673ffffffffffffffffffffffffffffffffffffffff1673ffffffffffffffffffffffffffffffffffffffff1681526020016001820160009054906101000a900473ffffffffffffffffffffffffffffffffffffffff1673ffffffffffffffffffffffffffffffffffffffff1673ffffffffffffffffffffffffffffffffffffffff1681526020016002820160009054906101000a900473ffffffffffffffffffffffffffffffffffffffff1673ffffffffffffffffffffffffffffffffffffffff1673ffffffffffffffffffffffffffffffffffffffff16815260200160038201548152602001600482015481526020016005820154815250509050600073ffffffffffffffffffffffffffffffffffffffff16816000015173ffffffffffffffffffffffffffffffffffffffff1614158015610702575060008160600151115b9150915091565b7f000000000000000000000000000000000000000000000000000000000000000081565b61073c8686868686863461113e565b505050505050565b4283604001351015610782576040517f0819bdcd00000000000000000000000000000000000000000000000000000000815260040160405180910390fd5b600061079861079186866104ff565b848461142b565b90506107b58582868036038101906107b091906129ac565b6115b0565b50505050505050565b6060600180549050831015806107d45750600082145b1561082a57600067ffffffffffffffff8111156107f4576107f36128cd565b5b6040519080825280602002602001820160405280156108225781602001602082028036833780820191505090505b50905061090b565b600082846108389190612a3f565b90506001805490508111156108505760018054905090505b838161085c9190612a73565b67ffffffffffffffff811115610875576108746128cd565b5b6040519080825280602002602001820160405280156108a35781602001602082028036833780820191505090505b50915060008490505b8181101561090857600181815481106108c8576108c7612aa7565b5b90600052602060002001548386836108e09190612a73565b815181106108f1576108f0612aa7565b5b6020026020010181815250508060010190506108ac565b50505b92915050565b600061097e7f13a45644d363281a7f20a6a405b1bda94dc8e46215533a87d1e3864c7843b3f0846109518580360381019061094c91906129ac565b61108a565b604051602001610963939291906129d9565b604051602081830303815290604052805190602001206110ec565b905092915050565b6109c481336040518060600160405280600073ffffffffffffffffffffffffffffffffffffffff1681526020016000815260200160008152506115b0565b505050565b6103e881565b6040518060400160405280601181526020017f486f737472204d756c7469457363726f7700000000000000000000000000000081525081565b610a45816040518060600160405280600073ffffffffffffffffffffffffffffffffffffffff1681526020016000815260200160008152506118e1565b5050565b4283604001351015610a87576040517f0819bdcd00000000000000000000000000000000000000000000000000000000815260040160405180910390fd5b600080600086815260200190815260200160002090506000610ab3610aac8787610911565b858561142b565b90508160010160009054906101000a900473ffffffffffffffffffffffffffffffffffffffff1673ffffffffffffffffffffffffffffffffffffffff168173ffffffffffffffffffffffffffffffffffffffff1614610b3e576040517f85d1f72600000000000000000000000000000000000000000000000000000000815260040160405180910390fd5b610b588686803603810190610b5391906129ac565b6118e1565b50505050505050565b8160008082815260200190815260200160002060020160009054906101000a900473ffffffffffffffffffffffffffffffffffffffff1673ffffffffffffffffffffffffffffffffffffffff163373ffffffffffffffffffffffffffffffffffffffff1614610bfc576040517fe598e3ce00000000000000000000000000000000000000000000000000000000815260040160405180910390fd5b600080600085815260200190815260200160002090506000816003015403610c50576040517fb7cc22bc00000000000000000000000000000000000000000000000000000000815260040160405180910390fd5b6103e8831115610c8c576040517f3fb86fe200000000000000000000000000000000000000000000000000000000815260040160405180910390fd5b60008160010160009054906101000a900473ffffffffffffffffffffffffffffffffffffffff16905060008260000160009054906101000a900473ffffffffffffffffffffffffffffffffffffffff169050600083600501548460030154610cf49190612a73565b905060006103e88783610d079190612ad6565b610d119190612b47565b905060008183610d219190612a73565b9050610d338986848785600080611b66565b50887fcc246de485760d7415de3512dd87394e9ca2cb6995809d8c7f34151defb815188686868c604051610d6a9493929190612b78565b60405180910390a2505050505050505050565b6000600180549050905090565b600073ffffffffffffffffffffffffffffffffffffffff16826000016020810190610db59190612bbd565b73ffffffffffffffffffffffffffffffffffffffff1603610e02576040517fcd6cc6e200000000000000000000000000000000000000000000000000000000815260040160405180910390fd5b60004790506000836000016020810190610e1c9190612bbd565b73ffffffffffffffffffffffffffffffffffffffff16633648a80785602001358660400135876060016020810190610e549190612bbd565b88608001358960a0016020810190610e6c9190612c23565b8a60c001358b60e001356040518863ffffffff1660e01b8152600401610e989796959493929190612c5f565b6020604051808303816000875af1158015610eb7573d6000803e3d6000fd5b505050506040513d601f19601f82011682018060405250810190610edb9190612ce3565b9050826020016020810190610ef09190612bbd565b73ffffffffffffffffffffffffffffffffffffffff168173ffffffffffffffffffffffffffffffffffffffff1614610f54576040517f8957efdb00000000000000000000000000000000000000000000000000000000815260040160405180910390fd5b60008247610f629190612a73565b905084604001358114610fa1576040517f8fb40e6700000000000000000000000000000000000000000000000000000000815260040160405180910390fd5b610ff28460000135856020016020810190610fbc9190612bbd565b866040016020810190610fcf9190612bbd565b876060016020810190610fe29190612bbd565b88608001358960a001358761113e565b5050505050565b6060600180548060200260200160405190810160405280929190818152602001828054801561104757602002820191906000526020600020905b815481526020019060010190808311611033575b5050505050905090565b6040518060400160405280600181526020017f320000000000000000000000000000000000000000000000000000000000000081525081565b60007fce34b5cb5e3c72f18a8f249c48fb28ec4112ffa5f575d3a2fe8baf353e1697938260000151836020015184604001516040516020016110cf9493929190612d10565b604051602081830303815290604052805190602001209050919050565b60007f000000000000000000000000000000000000000000000000000000000000000082604051602001611121929190612dcd565b604051602081830303815290604052805190602001209050919050565b600073ffffffffffffffffffffffffffffffffffffffff1660008089815260200190815260200160002060000160009054906101000a900473ffffffffffffffffffffffffffffffffffffffff1673ffffffffffffffffffffffffffffffffffffffff16146111d9576040517f7505eadc00000000000000000000000000000000000000000000000000000000815260040160405180910390fd5b60008103611213576040517f29ce3ded00000000000000000000000000000000000000000000000000000000815260040160405180910390fd5b8082111561124d576040517f3a4ffe3a00000000000000000000000000000000000000000000000000000000815260040160405180910390fd5b6040518060c001604052808773ffffffffffffffffffffffffffffffffffffffff1681526020018673ffffffffffffffffffffffffffffffffffffffff1681526020018573ffffffffffffffffffffffffffffffffffffffff1681526020018281526020018481526020018381525060008089815260200190815260200160002060008201518160000160006101000a81548173ffffffffffffffffffffffffffffffffffffffff021916908373ffffffffffffffffffffffffffffffffffffffff16021790555060208201518160010160006101000a81548173ffffffffffffffffffffffffffffffffffffffff021916908373ffffffffffffffffffffffffffffffffffffffff16021790555060408201518160020160006101000a81548173ffffffffffffffffffffffffffffffffffffffff021916908373ffffffffffffffffffffffffffffffffffffffff160217905550606082015181600301556080820151816004015560a082015181600501559050506113cd87611deb565b8373ffffffffffffffffffffffffffffffffffffffff16877f61fe62efd283b1563a16a9e31a5294efcb8b11ed366613a1a7120efde467d5a38789878760405161141a9493929190612b78565b60405180910390a350505050505050565b60006041838390501461146a576040517f8baa579f00000000000000000000000000000000000000000000000000000000815260040160405180910390fd5b60008060008535925060208601359150604086013560001a9050601b8160ff1610156114a057601b8161149d9190612e04565b90505b601b8160ff16141580156114b85750601c8160ff1614155b156114ef576040517f8baa579f00000000000000000000000000000000000000000000000000000000815260040160405180910390fd5b600187828585604051600081526020016040526040516115129493929190612e39565b6020604051602081039080840390855afa158015611534573d6000803e3d6000fd5b505050602060405103519350600073ffffffffffffffffffffffffffffffffffffffff168473ffffffffffffffffffffffffffffffffffffffff16036115a6576040517f8baa579f00000000000000000000000000000000000000000000000000000000815260040160405180910390fd5b5050509392505050565b600080600080600087815260200190815260200160002090506000816003015403611607576040517fb7cc22bc00000000000000000000000000000000000000000000000000000000815260040160405180910390fd5b61161084611e81565b8060010160009054906101000a900473ffffffffffffffffffffffffffffffffffffffff1673ffffffffffffffffffffffffffffffffffffffff168573ffffffffffffffffffffffffffffffffffffffff1603611693578060000160009054906101000a900473ffffffffffffffffffffffffffffffffffffffff169250611749565b8060000160009054906101000a900473ffffffffffffffffffffffffffffffffffffffff1673ffffffffffffffffffffffffffffffffffffffff168573ffffffffffffffffffffffffffffffffffffffff1603611716578060010160009054906101000a900473ffffffffffffffffffffffffffffffffffffffff169250611748565b6040517f39fc5e0a00000000000000000000000000000000000000000000000000000000815260040160405180910390fd5b5b61187e816040518060c00160405290816000820160009054906101000a900473ffffffffffffffffffffffffffffffffffffffff1673ffffffffffffffffffffffffffffffffffffffff1673ffffffffffffffffffffffffffffffffffffffff1681526020016001820160009054906101000a900473ffffffffffffffffffffffffffffffffffffffff1673ffffffffffffffffffffffffffffffffffffffff1673ffffffffffffffffffffffffffffffffffffffff1681526020016002820160009054906101000a900473ffffffffffffffffffffffffffffffffffffffff1673ffffffffffffffffffffffffffffffffffffffff1673ffffffffffffffffffffffffffffffffffffffff168152602001600382015481526020016004820154815260200160058201548152505085611eff565b508092505061189b86848460008089600001518a60200151611b66565b50857fe4eaec739c6224a3245d008777b196becba9fde9b25b3aabac54b6e3a2d120a58685856040516118d093929190612e7e565b60405180910390a250935093915050565b600080600080858152602001908152602001600020905080600401544211611935576040517f916da0d100000000000000000000000000000000000000000000000000000000815260040160405180910390fd5b6000816003015403611973576040517fdff46e2b00000000000000000000000000000000000000000000000000000000815260040160405180910390fd5b61197c83611e81565b60008160010160009054906101000a900473ffffffffffffffffffffffffffffffffffffffff16905060008260000160009054906101000a900473ffffffffffffffffffffffffffffffffffffffff169050611b03836040518060c00160405290816000820160009054906101000a900473ffffffffffffffffffffffffffffffffffffffff1673ffffffffffffffffffffffffffffffffffffffff1673ffffffffffffffffffffffffffffffffffffffff1681526020016001820160009054906101000a900473ffffffffffffffffffffffffffffffffffffffff1673ffffffffffffffffffffffffffffffffffffffff1673ffffffffffffffffffffffffffffffffffffffff1681526020016002820160009054906101000a900473ffffffffffffffffffffffffffffffffffffffff1673ffffffffffffffffffffffffffffffffffffffff1673ffffffffffffffffffffffffffffffffffffffff168152602001600382015481526020016004820154815260200160058201548152505086611eff565b5080945050611b208683866000808a600001518b60200151611b66565b50857f8b1927e0809f1e7682bb8c52fafe4c0445fea47afef60dd27e037e91fd104d2e838387604051611b5593929190612e7e565b60405180910390a250505092915050565b6000806000808a81526020019081526020016000206040518060c00160405290816000820160009054906101000a900473ffffffffffffffffffffffffffffffffffffffff1673ffffffffffffffffffffffffffffffffffffffff1673ffffffffffffffffffffffffffffffffffffffff1681526020016001820160009054906101000a900473ffffffffffffffffffffffffffffffffffffffff1673ffffffffffffffffffffffffffffffffffffffff1673ffffffffffffffffffffffffffffffffffffffff1681526020016002820160009054906101000a900473ffffffffffffffffffffffffffffffffffffffff1673ffffffffffffffffffffffffffffffffffffffff1673ffffffffffffffffffffffffffffffffffffffff168152602001600382015481526020016004820154815260200160058201548152505090508060a001519150611cb889611f6e565b6000808a8152602001908152602001600020600080820160006101000a81549073ffffffffffffffffffffffffffffffffffffffff02191690556001820160006101000a81549073ffffffffffffffffffffffffffffffffffffffff02191690556002820160006101000a81549073ffffffffffffffffffffffffffffffffffffffff02191690556003820160009055600482016000905560058201600090555050611d68816040015183612095565b611d728888612095565b611d7c8686612095565b611d868484612095565b6000831115611ddf578373ffffffffffffffffffffffffffffffffffffffff16897fa337b9dd1c538459002a493de188d901fe5329c1dc5b5a9e5eb3f05b0e5e350385604051611dd6919061273a565b60405180910390a35b50979650505050505050565b6000600260008381526020019081526020016000205414611e38576040517fca4b8ad600000000000000000000000000000000000000000000000000000000815260040160405180910390fd5b6001819080600181540180825580915050600190039060005260206000200160009091909190915055600180549050600260008381526020019081526020016000208190555050565b60008160200151118015611ec55750600073ffffffffffffffffffffffffffffffffffffffff16816000015173ffffffffffffffffffffffffffffffffffffffff16145b15611efc576040517f768dc59800000000000000000000000000000000000000000000000000000000815260040160405180910390fd5b50565b6000808360a001518460600151611f169190612a73565b91508260200151905081811115611f59576040517f4d268ba900000000000000000000000000000000000000000000000000000000815260040160405180910390fd5b8082611f659190612a73565b91509250929050565b60006002600083815260200190815260200160002054905060008103611fc0576040517fb95c5dfc00000000000000000000000000000000000000000000000000000000815260040160405180910390fd5b6000600182039050600060018080549050611fdb9190612a73565b905080821461205057600060018281548110611ffa57611ff9612aa7565b5b90600052602060002001549050806001848154811061201c5761201b612aa7565b5b90600052602060002001819055506001836120379190612a3f565b6002600083815260200190815260200160002081905550505b600180548061206257612061612eb5565b5b60019003818190600052602060002001600090559055600260008581526020019081526020016000206000905550505050565b60008103156121435760008273ffffffffffffffffffffffffffffffffffffffff16826040516120c490612f15565b60006040518083038185875af1925050503d8060008114612101576040519150601f19603f3d011682016040523d82523d6000602084013e612106565b606091505b5050905080612141576040517ff4b3b1bc00000000000000000000000000000000000000000000000000000000815260040160405180910390fd5b505b5050565b6040518060c00160405280600073ffffffffffffffffffffffffffffffffffffffff168152602001600073ffffffffffffffffffffffffffffffffffffffff168152602001600073ffffffffffffffffffffffffffffffffffffffff1681526020016000815260200160008152602001600081525090565b6000604051905090565b600080fd5b600080fd5b6000819050919050565b6121e6816121d3565b81146121f157600080fd5b50565b600081359050612203816121dd565b92915050565b60006020828403121561221f5761221e6121c9565b5b600061222d848285016121f4565b91505092915050565b600073ffffffffffffffffffffffffffffffffffffffff82169050919050565b600061226182612236565b9050919050565b61227181612256565b82525050565b6000819050919050565b61228a81612277565b82525050565b600060c0820190506122a56000830189612268565b6122b26020830188612268565b6122bf6040830187612268565b6122cc6060830186612281565b6122d96080830185612281565b6122e660a0830184612281565b979650505050505050565b600080fd5b60006060828403121561230c5761230b6122f1565b5b81905092915050565b6000806080838503121561232c5761232b6121c9565b5b600061233a858286016121f4565b925050602061234b858286016122f6565b9150509250929050565b61235e816121d3565b82525050565b60006020820190506123796000830184612355565b92915050565b60008115159050919050565b6123948161237f565b82525050565b6123a381612256565b82525050565b6123b281612277565b82525050565b60c0820160008201516123ce600085018261239a565b5060208201516123e1602085018261239a565b5060408201516123f4604085018261239a565b50606082015161240760608501826123a9565b50608082015161241a60808501826123a9565b5060a082015161242d60a08501826123a9565b50505050565b600060e082019050612448600083018561238b565b61245560208301846123b8565b9392505050565b61246581612256565b811461247057600080fd5b50565b6000813590506124828161245c565b92915050565b61249181612277565b811461249c57600080fd5b50565b6000813590506124ae81612488565b92915050565b60008060008060008060c087890312156124d1576124d06121c9565b5b60006124df89828a016121f4565b96505060206124f089828a01612473565b955050604061250189828a01612473565b945050606061251289828a01612473565b935050608061252389828a0161249f565b92505060a061253489828a0161249f565b9150509295509295509295565b600080fd5b600080fd5b600080fd5b60008083601f84011261256657612565612541565b5b8235905067ffffffffffffffff81111561258357612582612546565b5b60208301915083600182028301111561259f5761259e61254b565b5b9250929050565b60008060008060a085870312156125c0576125bf6121c9565b5b60006125ce878288016121f4565b94505060206125df878288016122f6565b935050608085013567ffffffffffffffff811115612600576125ff6121ce565b5b61260c87828801612550565b925092505092959194509250565b60008060408385031215612631576126306121c9565b5b600061263f8582860161249f565b92505060206126508582860161249f565b9150509250929050565b600081519050919050565b600082825260208201905092915050565b6000819050602082019050919050565b61268f816121d3565b82525050565b60006126a18383612686565b60208301905092915050565b6000602082019050919050565b60006126c58261265a565b6126cf8185612665565b93506126da83612676565b8060005b8381101561270b5781516126f28882612695565b97506126fd836126ad565b9250506001810190506126de565b5085935050505092915050565b6000602082019050818103600083015261273281846126ba565b905092915050565b600060208201905061274f6000830184612281565b92915050565b600081519050919050565b600082825260208201905092915050565b60005b8381101561278f578082015181840152602081019050612774565b60008484015250505050565b6000601f19601f8301169050919050565b60006127b782612755565b6127c18185612760565b93506127d1818560208601612771565b6127da8161279b565b840191505092915050565b600060208201905081810360008301526127ff81846127ac565b905092915050565b6000806040838503121561281e5761281d6121c9565b5b600061282c858286016121f4565b925050602061283d8582860161249f565b9150509250929050565b6000610100828403121561285e5761285d6122f1565b5b81905092915050565b600060c0828403121561287d5761287c6122f1565b5b81905092915050565b6000806101c0838503121561289e5761289d6121c9565b5b60006128ac85828601612847565b9250506101006128be85828601612867565b9150509250929050565b600080fd5b7f4e487b7100000000000000000000000000000000000000000000000000000000600052604160045260246000fd5b6129058261279b565b810181811067ffffffffffffffff82111715612924576129236128cd565b5b80604052505050565b60006129376121bf565b905061294382826128fc565b919050565b60006060828403121561295e5761295d6128c8565b5b612968606061292d565b9050600061297884828501612473565b600083015250602061298c8482850161249f565b60208301525060406129a08482850161249f565b60408301525092915050565b6000606082840312156129c2576129c16121c9565b5b60006129d084828501612948565b91505092915050565b60006060820190506129ee6000830186612355565b6129fb6020830185612355565b612a086040830184612355565b949350505050565b7f4e487b7100000000000000000000000000000000000000000000000000000000600052601160045260246000fd5b6000612a4a82612277565b9150612a5583612277565b9250828201905080821115612a6d57612a6c612a10565b5b92915050565b6000612a7e82612277565b9150612a8983612277565b9250828203905081811115612aa157612aa0612a10565b5b92915050565b7f4e487b7100000000000000000000000000000000000000000000000000000000600052603260045260246000fd5b6000612ae182612277565b9150612aec83612277565b9250828202612afa81612277565b91508282048414831517612b1157612b10612a10565b5b5092915050565b7f4e487b7100000000000000000000000000000000000000000000000000000000600052601260045260246000fd5b6000612b5282612277565b9150612b5d83612277565b925082612b6d57612b6c612b18565b5b828204905092915050565b6000608082019050612b8d6000830187612268565b612b9a6020830186612268565b612ba76040830185612281565b612bb46060830184612281565b95945050505050565b600060208284031215612bd357612bd26121c9565b5b6000612be184828501612473565b91505092915050565b600060ff82169050919050565b612c0081612bea565b8114612c0b57600080fd5b50565b600081359050612c1d81612bf7565b92915050565b600060208284031215612c3957612c386121c9565b5b6000612c4784828501612c0e565b91505092915050565b612c5981612bea565b82525050565b600060e082019050612c74600083018a612355565b612c816020830189612281565b612c8e6040830188612268565b612c9b6060830187612281565b612ca86080830186612c50565b612cb560a0830185612355565b612cc260c0830184612355565b98975050505050505050565b600081519050612cdd8161245c565b92915050565b600060208284031215612cf957612cf86121c9565b5b6000612d0784828501612cce565b91505092915050565b6000608082019050612d256000830187612355565b612d326020830186612268565b612d3f6040830185612281565b612d4c6060830184612281565b95945050505050565b600081905092915050565b7f1901000000000000000000000000000000000000000000000000000000000000600082015250565b6000612d96600283612d55565b9150612da182612d60565b600282019050919050565b6000819050919050565b612dc7612dc2826121d3565b612dac565b82525050565b6000612dd882612d89565b9150612de48285612db6565b602082019150612df48284612db6565b6020820191508190509392505050565b6000612e0f82612bea565b9150612e1a83612bea565b9250828201905060ff811115612e3357612e32612a10565b5b92915050565b6000608082019050612e4e6000830187612355565b612e5b6020830186612c50565b612e686040830185612355565b612e756060830184612355565b95945050505050565b6000606082019050612e936000830186612268565b612ea06020830185612268565b612ead6040830184612281565b949350505050565b7f4e487b7100000000000000000000000000000000000000000000000000000000600052603160045260246000fd5b600081905092915050565b50565b6000612eff600083612ee4565b9150612f0a82612eef565b600082019050919050565b6000612f2082612ef2565b915081905091905056fea2646970667358221220ba529cd3db86453212f56c53d50cc70a80ec34e5a057bde1f2d493afb99c03eb64736f6c634300081c0033",
  "linkReferences": {},
  "deployedLinkReferences": {}
}