{
  "_format": "hh-sol-artifact-1",
  "contractName": "MultiEscrow",
  "sourceName": "contracts/MultiEscrow.sol",
  "abi": [
    {
      "anonymous": false,
      "inputs": [
        {
          "indexed": true,
          "internalType": "bytes32",
          "name": "tradeId",
          "type": "bytes32"
        },
        {
          "indexed": false,
          "internalType": "address",
          "name": "seller",
          "type": "address"
        },
        {
          "indexed": false,
          "internalType": "address",
          "name": "buyer",
          "type": "address"
        },
        {
          "indexed": false,
          "internalType": "uint256",
          "name": "amount",
          "type": "uint256"
        },
        {
          "indexed": false,
          "internalType": "uint256",
          "name": "fractionForwarded",
          "type": "uint256"
        }
      ],
      "name": "Arbitrated",
      "type": "event"
    },
    {
      "anonymous": false,
      "inputs": [
        {
          "indexed": true,
          "internalType": "bytes32",
          "name": "tradeId",
          "type": "bytes32"
        },
        {
          "indexed": false,
          "internalType": "address",
          "name": "seller",
          "type": "address"
        },
        {
          "indexed": false,
          "internalType": "address",
          "name": "buyer",
          "type": "address"
        },
        {
          "indexed": false,
          "internalType": "uint256",
          "name": "amount",
          "type": "uint256"
        }
      ],
      "name": "Claimed",
      "type": "event"
    },
    {
      "anonymous": false,
      "inputs": [
        {
          "indexed": false,
          "internalType": "string",
          "name": "message",
          "type": "string"
        }
      ],
      "name": "DebugLog",
      "type": "event"
    },
    {
      "anonymous": false,
      "inputs": [
        {
          "indexed": true,
          "internalType": "bytes32",
          "name": "tradeId",
          "type": "bytes32"
        },
        {
          "indexed": false,
          "internalType": "address",
          "name": "from",
          "type": "address"
        },
        {
          "indexed": false,
          "internalType": "address",
          "name": "to",
          "type": "address"
        },
        {
          "indexed": false,
          "internalType": "uint256",
          "name": "amount",
          "type": "uint256"
        }
      ],
      "name": "ReleasedToCounterparty",
      "type": "event"
    },
    {
      "anonymous": false,
      "inputs": [
        {
          "indexed": true,
          "internalType": "bytes32",
          "name": "tradeId",
          "type": "bytes32"
        },
        {
          "indexed": false,
          "internalType": "address",
          "name": "buyer",
          "type": "address"
        },
        {
          "indexed": false,
          "internalType": "address",
          "name": "seller",
          "type": "address"
        },
        {
          "indexed": false,
          "internalType": "address",
          "name": "arbiter",
          "type": "address"
        },
        {
          "indexed": false,
          "internalType": "uint256",
          "name": "timelock",
          "type": "uint256"
        },
        {
          "indexed": false,
          "internalType": "uint256",
          "name": "escrowFee",
          "type": "uint256"
        }
      ],
      "name": "TradeCreated",
      "type": "event"
    },
    {
      "inputs": [
        {
          "internalType": "bytes32",
          "name": "tradeId",
          "type": "bytes32"
        },
        {
          "internalType": "uint256",
          "name": "factor",
          "type": "uint256"
        }
      ],
      "name": "arbitrate",
      "outputs": [],
      "stateMutability": "nonpayable",
      "type": "function"
    },
    {
      "inputs": [
        {
          "internalType": "bytes32",
          "name": "tradeId",
          "type": "bytes32"
        }
      ],
      "name": "claim",
      "outputs": [],
      "stateMutability": "nonpayable",
      "type": "function"
    },
    {
      "inputs": [
        {
          "internalType": "bytes32",
          "name": "tradeId",
          "type": "bytes32"
        },
        {
          "internalType": "address",
          "name": "_buyer",
          "type": "address"
        },
        {
          "internalType": "address",
          "name": "_seller",
          "type": "address"
        },
        {
          "internalType": "address",
          "name": "_arbiter",
          "type": "address"
        },
        {
          "internalType": "uint256",
          "name": "_timelock",
          "type": "uint256"
        },
        {
          "internalType": "uint256",
          "name": "_escrowFee",
          "type": "uint256"
        }
      ],
      "name": "createTrade",
      "outputs": [],
      "stateMutability": "payable",
      "type": "function"
    },
    {
      "inputs": [
        {
          "internalType": "bytes32",
          "name": "tradeId",
          "type": "bytes32"
        }
      ],
      "name": "releaseToCounterparty",
      "outputs": [],
      "stateMutability": "nonpayable",
      "type": "function"
    },
    {
      "inputs": [
        {
          "internalType": "bytes32",
          "name": "",
          "type": "bytes32"
        }
      ],
      "name": "trades",
      "outputs": [
        {
          "internalType": "address",
          "name": "buyer",
          "type": "address"
        },
        {
          "internalType": "address",
          "name": "seller",
          "type": "address"
        },
        {
          "internalType": "address",
          "name": "arbiter",
          "type": "address"
        },
        {
          "internalType": "uint256",
          "name": "amount",
          "type": "uint256"
        },
        {
          "internalType": "uint256",
          "name": "timelock",
          "type": "uint256"
        },
        {
          "internalType": "uint256",
          "name": "escrowFee",
          "type": "uint256"
        }
      ],
      "stateMutability": "view",
      "type": "function"
    }
  ],
  "bytecode": "0x6080604052348015600f57600080fd5b5061183a8061001f6000396000f3fe6080604052600436106100495760003560e01c80621624201461004e578063369ea7fc146100905780637a5b8584146100ac578063bd66528a146100d5578063cb2e7212146100fe575b600080fd5b34801561005a57600080fd5b5061007560048036038101906100709190610ea2565b610127565b60405161008796959493929190610f29565b60405180910390f35b6100aa60048036038101906100a59190610fe2565b6101c3565b005b3480156100b857600080fd5b506100d360048036038101906100ce9190610ea2565b6104ec565b005b3480156100e157600080fd5b506100fc60048036038101906100f79190610ea2565b6107cb565b005b34801561010a57600080fd5b506101256004803603810190610120919061106f565b610ab5565b005b60006020528060005260406000206000915090508060000160009054906101000a900473ffffffffffffffffffffffffffffffffffffffff16908060010160009054906101000a900473ffffffffffffffffffffffffffffffffffffffff16908060020160009054906101000a900473ffffffffffffffffffffffffffffffffffffffff16908060030154908060040154908060050154905086565b7f4be5e2ddd7b814bfc07153581bbbda6ea3d62d61c270f9788cae2f0297e18ae86040516101f09061110c565b60405180910390a1600073ffffffffffffffffffffffffffffffffffffffff1660008088815260200190815260200160002060000160009054906101000a900473ffffffffffffffffffffffffffffffffffffffff1673ffffffffffffffffffffffffffffffffffffffff161461029c576040517f08c379a000000000000000000000000000000000000000000000000000000000815260040161029390611178565b60405180910390fd5b600034116102df576040517f08c379a00000000000000000000000000000000000000000000000000000000081526004016102d69061120a565b60405180910390fd5b60008211610322576040517f08c379a000000000000000000000000000000000000000000000000000000000815260040161031990611276565b60405180910390fd5b6040518060c001604052808673ffffffffffffffffffffffffffffffffffffffff1681526020018573ffffffffffffffffffffffffffffffffffffffff1681526020018473ffffffffffffffffffffffffffffffffffffffff168152602001348152602001834261039391906112c5565b81526020018281525060008088815260200190815260200160002060008201518160000160006101000a81548173ffffffffffffffffffffffffffffffffffffffff021916908373ffffffffffffffffffffffffffffffffffffffff16021790555060208201518160010160006101000a81548173ffffffffffffffffffffffffffffffffffffffff021916908373ffffffffffffffffffffffffffffffffffffffff16021790555060408201518160020160006101000a81548173ffffffffffffffffffffffffffffffffffffffff021916908373ffffffffffffffffffffffffffffffffffffffff160217905550606082015181600301556080820151816004015560a08201518160050155905050857f61fe62efd283b1563a16a9e31a5294efcb8b11ed366613a1a7120efde467d5a386868686866040516104dc9594939291906112f9565b60405180910390a2505050505050565b600080600083815260200190815260200160002090506000816003015411610549576040517f08c379a000000000000000000000000000000000000000000000000000000000815260040161054090611398565b60405180910390fd5b60008160010160009054906101000a900473ffffffffffffffffffffffffffffffffffffffff1673ffffffffffffffffffffffffffffffffffffffff163373ffffffffffffffffffffffffffffffffffffffff16036105ce578160000160009054906101000a900473ffffffffffffffffffffffffffffffffffffffff16905061068d565b8160000160009054906101000a900473ffffffffffffffffffffffffffffffffffffffff1673ffffffffffffffffffffffffffffffffffffffff163373ffffffffffffffffffffffffffffffffffffffff1603610651578160010160009054906101000a900473ffffffffffffffffffffffffffffffffffffffff16905061068c565b6040517f08c379a00000000000000000000000000000000000000000000000000000000081526004016106839061142a565b60405180910390fd5b5b600082600301549050600083600301819055508173ffffffffffffffffffffffffffffffffffffffff166108fc829081150290604051600060405180830381858888f193505050501580156106e6573d6000803e3d6000fd5b50837fe4eaec739c6224a3245d008777b196becba9fde9b25b3aabac54b6e3a2d120a533848460405161071b9392919061144a565b60405180910390a2600080858152602001908152602001600020600080820160006101000a81549073ffffffffffffffffffffffffffffffffffffffff02191690556001820160006101000a81549073ffffffffffffffffffffffffffffffffffffffff02191690556002820160006101000a81549073ffffffffffffffffffffffffffffffffffffffff0219169055600382016000905560048201600090556005820160009055505050505050565b600080600083815260200190815260200160002090508060010160009054906101000a900473ffffffffffffffffffffffffffffffffffffffff1673ffffffffffffffffffffffffffffffffffffffff163373ffffffffffffffffffffffffffffffffffffffff1614610873576040517f08c379a000000000000000000000000000000000000000000000000000000000815260040161086a906114f3565b60405180910390fd5b62127500816004015461088691906112c5565b42116108c7576040517f08c379a00000000000000000000000000000000000000000000000000000000081526004016108be9061155f565b60405180910390fd5b600081600301541161090e576040517f08c379a0000000000000000000000000000000000000000000000000000000008152600401610905906115cb565b60405180910390fd5b8060010160009054906101000a900473ffffffffffffffffffffffffffffffffffffffff1673ffffffffffffffffffffffffffffffffffffffff166108fc82600301549081150290604051600060405180830381858888f1935050505015801561097c573d6000803e3d6000fd5b5060008160030181905550817f8b1927e0809f1e7682bb8c52fafe4c0445fea47afef60dd27e037e91fd104d2e8260010160009054906101000a900473ffffffffffffffffffffffffffffffffffffffff168360000160009054906101000a900473ffffffffffffffffffffffffffffffffffffffff168460030154604051610a079392919061144a565b60405180910390a2600080838152602001908152602001600020600080820160006101000a81549073ffffffffffffffffffffffffffffffffffffffff02191690556001820160006101000a81549073ffffffffffffffffffffffffffffffffffffffff02191690556002820160006101000a81549073ffffffffffffffffffffffffffffffffffffffff021916905560038201600090556004820160009055600582016000905550505050565b8160008082815260200190815260200160002060020160009054906101000a900473ffffffffffffffffffffffffffffffffffffffff1673ffffffffffffffffffffffffffffffffffffffff163373ffffffffffffffffffffffffffffffffffffffff1614610b59576040517f08c379a0000000000000000000000000000000000000000000000000000000008152600401610b509061165d565b60405180910390fd5b60008060008581526020019081526020016000209050600083118015610b7f5750600183105b610bbe576040517f08c379a0000000000000000000000000000000000000000000000000000000008152600401610bb5906116c9565b60405180910390fd5b6000606482600501548360030154610bd691906116e9565b610be0919061175a565b90506000818360030154610bf4919061178b565b9050600060018683610c0691906116e9565b610c10919061175a565b90506000811115610c87578360010160009054906101000a900473ffffffffffffffffffffffffffffffffffffffff1673ffffffffffffffffffffffffffffffffffffffff166108fc829081150290604051600060405180830381858888f19350505050158015610c85573d6000803e3d6000fd5b505b8281610c9391906112c5565b846003016000828254610ca6919061178b565b925050819055506000846003015490506000811115610d2b578460000160009054906101000a900473ffffffffffffffffffffffffffffffffffffffff1673ffffffffffffffffffffffffffffffffffffffff166108fc829081150290604051600060405180830381858888f19350505050158015610d29573d6000803e3d6000fd5b505b60008560030181905550877fcc246de485760d7415de3512dd87394e9ca2cb6995809d8c7f34151defb815188660010160009054906101000a900473ffffffffffffffffffffffffffffffffffffffff168760000160009054906101000a900473ffffffffffffffffffffffffffffffffffffffff16868b604051610db394939291906117bf565b60405180910390a2600080898152602001908152602001600020600080820160006101000a81549073ffffffffffffffffffffffffffffffffffffffff02191690556001820160006101000a81549073ffffffffffffffffffffffffffffffffffffffff02191690556002820160006101000a81549073ffffffffffffffffffffffffffffffffffffffff021916905560038201600090556004820160009055600582016000905550505050505050505050565b600080fd5b6000819050919050565b610e7f81610e6c565b8114610e8a57600080fd5b50565b600081359050610e9c81610e76565b92915050565b600060208284031215610eb857610eb7610e67565b5b6000610ec684828501610e8d565b91505092915050565b600073ffffffffffffffffffffffffffffffffffffffff82169050919050565b6000610efa82610ecf565b9050919050565b610f0a81610eef565b82525050565b6000819050919050565b610f2381610f10565b82525050565b600060c082019050610f3e6000830189610f01565b610f4b6020830188610f01565b610f586040830187610f01565b610f656060830186610f1a565b610f726080830185610f1a565b610f7f60a0830184610f1a565b979650505050505050565b610f9381610eef565b8114610f9e57600080fd5b50565b600081359050610fb081610f8a565b92915050565b610fbf81610f10565b8114610fca57600080fd5b50565b600081359050610fdc81610fb6565b92915050565b60008060008060008060c08789031215610fff57610ffe610e67565b5b600061100d89828a01610e8d565b965050602061101e89828a01610fa1565b955050604061102f89828a01610fa1565b945050606061104089828a01610fa1565b935050608061105189828a01610fcd565b92505060a061106289828a01610fcd565b9150509295509295509295565b6000806040838503121561108657611085610e67565b5b600061109485828601610e8d565b92505060206110a585828601610fcd565b9150509250929050565b600082825260208201905092915050565b7f547261646543726561746564206576656e7420656d6974746564000000000000600082015250565b60006110f6601a836110af565b9150611101826110c0565b602082019050919050565b60006020820190508181036000830152611125816110e9565b9050919050565b7f547261646520494420616c726561647920657869737473000000000000000000600082015250565b60006111626017836110af565b915061116d8261112c565b602082019050919050565b6000602082019050818103600083015261119181611155565b9050919050565b7f4d7573742073656e642066756e647320746f2063726561746520616e2065736360008201527f726f7720636f6e74726163740000000000000000000000000000000000000000602082015250565b60006111f4602c836110af565b91506111ff82611198565b604082019050919050565b60006020820190508181036000830152611223816111e7565b9050919050565b7f54696d656c6f636b206d7573742062652067726561746572207468616e203000600082015250565b6000611260601f836110af565b915061126b8261122a565b602082019050919050565b6000602082019050818103600083015261128f81611253565b9050919050565b7f4e487b7100000000000000000000000000000000000000000000000000000000600052601160045260246000fd5b60006112d082610f10565b91506112db83610f10565b92508282019050808211156112f3576112f2611296565b5b92915050565b600060a08201905061130e6000830188610f01565b61131b6020830187610f01565b6113286040830186610f01565b6113356060830185610f1a565b6113426080830184610f1a565b9695505050505050565b7f4e6f2066756e647320746f2072656c6561736500000000000000000000000000600082015250565b60006113826013836110af565b915061138d8261134c565b602082019050919050565b600060208201905081810360008301526113b181611375565b9050919050565b7f4f6e6c79206275796572206f722073656c6c65722063616e2072656c6561736560008201527f2066756e64730000000000000000000000000000000000000000000000000000602082015250565b60006114146026836110af565b915061141f826113b8565b604082019050919050565b6000602082019050818103600083015261144381611407565b9050919050565b600060608201905061145f6000830186610f01565b61146c6020830185610f01565b6114796040830184610f1a565b949350505050565b7f4f6e6c79207468652073656c6c65722063616e20636c61696d2074686520667560008201527f6e64730000000000000000000000000000000000000000000000000000000000602082015250565b60006114dd6023836110af565b91506114e882611481565b604082019050919050565b6000602082019050818103600083015261150c816114d0565b9050919050565b7f436c61696d20706572696f6420686173206e6f74207374617274656420796574600082015250565b60006115496020836110af565b915061155482611513565b602082019050919050565b600060208201905081810360008301526115788161153c565b9050919050565b7f4e6f2066756e647320746f20636c61696d000000000000000000000000000000600082015250565b60006115b56011836110af565b91506115c08261157f565b602082019050919050565b600060208201905081810360008301526115e4816115a8565b9050919050565b7f4f6e6c7920617262697465722063616e2063616c6c20746869732066756e637460008201527f696f6e0000000000000000000000000000000000000000000000000000000000602082015250565b60006116476023836110af565b9150611652826115eb565b604082019050919050565b600060208201905081810360008301526116768161163a565b9050919050565b7f466163746f72206d757374206265206265747765656e203020616e6420310000600082015250565b60006116b3601e836110af565b91506116be8261167d565b602082019050919050565b600060208201905081810360008301526116e2816116a6565b9050919050565b60006116f482610f10565b91506116ff83610f10565b925082820261170d81610f10565b9150828204841483151761172457611723611296565b5b5092915050565b7f4e487b7100000000000000000000000000000000000000000000000000000000600052601260045260246000fd5b600061176582610f10565b915061177083610f10565b9250826117805761177f61172b565b5b828204905092915050565b600061179682610f10565b91506117a183610f10565b92508282039050818111156117b9576117b8611296565b5b92915050565b60006080820190506117d46000830187610f01565b6117e16020830186610f01565b6117ee6040830185610f1a565b6117fb6060830184610f1a565b9594505050505056fea264697066735822122062e85ceb87469f4a3384e234220d5328673f500af49df6510be8a99370db443f64736f6c634300081c0033",
  "linkReferences": {},
  "deployedLinkReferences": {}
}