{
  "_format": "hh-sol-artifact-1",
  "contractName": "MultiEscrow",
  "sourceName": "contracts/MultiEscrow.sol",
  "abi": [
    {
      "inputs": [],
      "stateMutability": "nonpayable",
      "type": "constructor"
    },
    {
      "inputs": [],
      "name": "ClaimPeriodNotStarted",
      "type": "error"
    },
    {
      "inputs": [],
      "name": "ERC20TransferFailed",
      "type": "error"
    },
    {
      "inputs": [],
      "name": "EscrowFeeTooHigh",
      "type": "error"
    },
    {
      "inputs": [],
      "name": "InsufficientExcess",
      "type": "error"
    },
    {
      "inputs": [],
      "name": "InvalidFactor",
      "type": "error"
    },
    {
      "inputs": [],
      "name": "InvalidShortString",
      "type": "error"
    },
    {
      "inputs": [],
      "name": "InvalidSignature",
      "type": "error"
    },
    {
      "inputs": [],
      "name": "MustSendFunds",
      "type": "error"
    },
    {
      "inputs": [],
      "name": "NativeNotExpected",
      "type": "error"
    },
    {
      "inputs": [],
      "name": "NativeTransferFailed",
      "type": "error"
    },
    {
      "inputs": [],
      "name": "NoFundsToClaim",
      "type": "error"
    },
    {
      "inputs": [],
      "name": "NoFundsToRelease",
      "type": "error"
    },
    {
      "inputs": [],
      "name": "NotAContract",
      "type": "error"
    },
    {
      "inputs": [],
      "name": "NothingToWithdraw",
      "type": "error"
    },
    {
      "inputs": [],
      "name": "OnlyBuyerOrSeller",
      "type": "error"
    },
    {
      "inputs": [],
      "name": "OnlyOwner",
      "type": "error"
    },
    {
      "inputs": [],
      "name": "ReentrancyGuardReentrantCall",
      "type": "error"
    },
    {
      "inputs": [
        {
          "internalType": "string",
          "name": "str",
          "type": "string"
        }
      ],
      "name": "StringTooLong",
      "type": "error"
    },
    {
      "inputs": [],
      "name": "TradeAlreadyActive",
      "type": "error"
    },
    {
      "inputs": [],
      "name": "TradeIdAlreadyExists",
      "type": "error"
    },
    {
      "inputs": [],
      "name": "TradeNotActive",
      "type": "error"
    },
    {
      "anonymous": false,
      "inputs": [
        {
          "indexed": true,
          "internalType": "bytes32",
          "name": "tradeId",
          "type": "bytes32"
        },
        {
          "indexed": true,
          "internalType": "address",
          "name": "token",
          "type": "address"
        },
        {
          "indexed": false,
          "internalType": "address",
          "name": "seller",
          "type": "address"
        },
        {
          "indexed": false,
          "internalType": "address",
          "name": "buyer",
          "type": "address"
        },
        {
          "indexed": false,
          "internalType": "uint256",
          "name": "amount",
          "type": "uint256"
        },
        {
          "indexed": false,
          "internalType": "uint256",
          "name": "fractionForwarded",
          "type": "uint256"
        }
      ],
      "name": "Arbitrated",
      "type": "event"
    },
    {
      "anonymous": false,
      "inputs": [
        {
          "indexed": true,
          "internalType": "bytes32",
          "name": "tradeId",
          "type": "bytes32"
        },
        {
          "indexed": true,
          "internalType": "address",
          "name": "token",
          "type": "address"
        },
        {
          "indexed": false,
          "internalType": "address",
          "name": "seller",
          "type": "address"
        },
        {
          "indexed": false,
          "internalType": "address",
          "name": "buyer",
          "type": "address"
        },
        {
          "indexed": false,
          "internalType": "uint256",
          "name": "amount",
          "type": "uint256"
        }
      ],
      "name": "Claimed",
      "type": "event"
    },
    {
      "anonymous": false,
      "inputs": [],
      "name": "EIP712DomainChanged",
      "type": "event"
    },
    {
      "anonymous": false,
      "inputs": [
        {
          "indexed": true,
          "internalType": "address",
          "name": "previousOwner",
          "type": "address"
        },
        {
          "indexed": true,
          "internalType": "address",
          "name": "newOwner",
          "type": "address"
        }
      ],
      "name": "OwnershipTransferred",
      "type": "event"
    },
    {
      "anonymous": false,
      "inputs": [
        {
          "indexed": true,
          "internalType": "bytes32",
          "name": "tradeId",
          "type": "bytes32"
        },
        {
          "indexed": true,
          "internalType": "address",
          "name": "token",
          "type": "address"
        },
        {
          "indexed": false,
          "internalType": "address",
          "name": "from",
          "type": "address"
        },
        {
          "indexed": false,
          "internalType": "address",
          "name": "to",
          "type": "address"
        },
        {
          "indexed": false,
          "internalType": "uint256",
          "name": "amount",
          "type": "uint256"
        }
      ],
      "name": "ReleasedToCounterparty",
      "type": "event"
    },
    {
      "anonymous": false,
      "inputs": [
        {
          "indexed": true,
          "internalType": "bytes32",
          "name": "tradeId",
          "type": "bytes32"
        },
        {
          "indexed": true,
          "internalType": "address",
          "name": "token",
          "type": "address"
        },
        {
          "indexed": false,
          "internalType": "address",
          "name": "seller",
          "type": "address"
        },
        {
          "indexed": false,
          "internalType": "address",
          "name": "buyer",
          "type": "address"
        },
        {
          "indexed": true,
          "internalType": "address",
          "name": "arbiter",
          "type": "address"
        },
        {
          "indexed": false,
          "internalType": "uint256",
          "name": "amount",
          "type": "uint256"
        },
        {
          "indexed": false,
          "internalType": "uint256",
          "name": "unlockAt",
          "type": "uint256"
        },
        {
          "indexed": false,
          "internalType": "uint256",
          "name": "escrowFee",
          "type": "uint256"
        }
      ],
      "name": "TradeCreated",
      "type": "event"
    },
    {
      "anonymous": false,
      "inputs": [
        {
          "indexed": true,
          "internalType": "bytes32",
          "name": "tradeId",
          "type": "bytes32"
        },
        {
          "indexed": true,
          "internalType": "address",
          "name": "beneficiary",
          "type": "address"
        },
        {
          "indexed": true,
          "internalType": "address",
          "name": "token",
          "type": "address"
        },
        {
          "indexed": false,
          "internalType": "address",
          "name": "destination",
          "type": "address"
        },
        {
          "indexed": false,
          "internalType": "uint256",
          "name": "amount",
          "type": "uint256"
        }
      ],
      "name": "Withdrawn",
      "type": "event"
    },
    {
      "inputs": [],
      "name": "FACTOR_SCALE",
      "outputs": [
        {
          "internalType": "uint256",
          "name": "",
          "type": "uint256"
        }
      ],
      "stateMutability": "view",
      "type": "function"
    },
    {
      "inputs": [
        {
          "internalType": "bytes32",
          "name": "tradeId",
          "type": "bytes32"
        }
      ],
      "name": "activeTrade",
      "outputs": [
        {
          "internalType": "bool",
          "name": "isActive",
          "type": "bool"
        },
        {
          "components": [
            {
              "internalType": "address",
              "name": "buyer",
              "type": "address"
            },
            {
              "internalType": "address",
              "name": "seller",
              "type": "address"
            },
            {
              "internalType": "address",
              "name": "arbiter",
              "type": "address"
            },
            {
              "internalType": "address",
              "name": "token",
              "type": "address"
            },
            {
              "internalType": "uint256",
              "name": "amount",
              "type": "uint256"
            },
            {
              "internalType": "uint256",
              "name": "unlockAt",
              "type": "uint256"
            },
            {
              "internalType": "uint256",
              "name": "escrowFee",
              "type": "uint256"
            }
          ],
          "internalType": "struct MultiEscrow.Trade",
          "name": "trade",
          "type": "tuple"
        }
      ],
      "stateMutability": "view",
      "type": "function"
    },
    {
      "inputs": [],
      "name": "activeTradeCount",
      "outputs": [
        {
          "internalType": "uint256",
          "name": "",
          "type": "uint256"
        }
      ],
      "stateMutability": "view",
      "type": "function"
    },
    {
      "inputs": [
        {
          "internalType": "bytes32",
          "name": "tradeId",
          "type": "bytes32"
        },
        {
          "internalType": "uint256",
          "name": "factor",
          "type": "uint256"
        },
        {
          "internalType": "bytes",
          "name": "signature",
          "type": "bytes"
        }
      ],
      "name": "arbitrate",
      "outputs": [],
      "stateMutability": "nonpayable",
      "type": "function"
    },
    {
      "inputs": [
        {
          "internalType": "bytes32",
          "name": "tradeId",
          "type": "bytes32"
        },
        {
          "internalType": "bytes",
          "name": "signature",
          "type": "bytes"
        }
      ],
      "name": "claim",
      "outputs": [],
      "stateMutability": "nonpayable",
      "type": "function"
    },
    {
      "inputs": [
        {
          "internalType": "bytes32",
          "name": "tradeId",
          "type": "bytes32"
        },
        {
          "internalType": "address",
          "name": "_buyer",
          "type": "address"
        },
        {
          "internalType": "address",
          "name": "_seller",
          "type": "address"
        },
        {
          "internalType": "address",
          "name": "_arbiter",
          "type": "address"
        },
        {
          "internalType": "address",
          "name": "_token",
          "type": "address"
        },
        {
          "internalType": "uint256",
          "name": "_amount",
          "type": "uint256"
        },
        {
          "internalType": "uint256",
          "name": "_unlockAt",
          "type": "uint256"
        },
        {
          "internalType": "uint256",
          "name": "_escrowFee",
          "type": "uint256"
        }
      ],
      "name": "createTrade",
      "outputs": [],
      "stateMutability": "payable",
      "type": "function"
    },
    {
      "inputs": [],
      "name": "eip712Domain",
      "outputs": [
        {
          "internalType": "bytes1",
          "name": "fields",
          "type": "bytes1"
        },
        {
          "internalType": "string",
          "name": "name",
          "type": "string"
        },
        {
          "internalType": "string",
          "name": "version",
          "type": "string"
        },
        {
          "internalType": "uint256",
          "name": "chainId",
          "type": "uint256"
        },
        {
          "internalType": "address",
          "name": "verifyingContract",
          "type": "address"
        },
        {
          "internalType": "bytes32",
          "name": "salt",
          "type": "bytes32"
        },
        {
          "internalType": "uint256[]",
          "name": "extensions",
          "type": "uint256[]"
        }
      ],
      "stateMutability": "view",
      "type": "function"
    },
    {
      "inputs": [],
      "name": "getActiveTradeIds",
      "outputs": [
        {
          "internalType": "bytes32[]",
          "name": "",
          "type": "bytes32[]"
        }
      ],
      "stateMutability": "view",
      "type": "function"
    },
    {
      "inputs": [
        {
          "internalType": "uint256",
          "name": "offset",
          "type": "uint256"
        },
        {
          "internalType": "uint256",
          "name": "limit",
          "type": "uint256"
        }
      ],
      "name": "getActiveTradeIdsPage",
      "outputs": [
        {
          "internalType": "bytes32[]",
          "name": "ids",
          "type": "bytes32[]"
        }
      ],
      "stateMutability": "view",
      "type": "function"
    },
    {
      "inputs": [],
      "name": "owner",
      "outputs": [
        {
          "internalType": "address",
          "name": "",
          "type": "address"
        }
      ],
      "stateMutability": "view",
      "type": "function"
    },
    {
      "inputs": [
        {
          "internalType": "bytes32",
          "name": "",
          "type": "bytes32"
        },
        {
          "internalType": "address",
          "name": "",
          "type": "address"
        }
      ],
      "name": "pendingWithdrawals",
      "outputs": [
        {
          "internalType": "uint256",
          "name": "",
          "type": "uint256"
        }
      ],
      "stateMutability": "view",
      "type": "function"
    },
    {
      "inputs": [
        {
          "internalType": "bytes32",
          "name": "tradeId",
          "type": "bytes32"
        },
        {
          "internalType": "address",
          "name": "actor",
          "type": "address"
        },
        {
          "internalType": "bytes",
          "name": "signature",
          "type": "bytes"
        }
      ],
      "name": "releaseToCounterparty",
      "outputs": [],
      "stateMutability": "nonpayable",
      "type": "function"
    },
    {
      "inputs": [
        {
          "internalType": "address",
          "name": "token",
          "type": "address"
        },
        {
          "internalType": "address",
          "name": "to",
          "type": "address"
        },
        {
          "internalType": "uint256",
          "name": "amount",
          "type": "uint256"
        }
      ],
      "name": "rescueERC20",
      "outputs": [],
      "stateMutability": "nonpayable",
      "type": "function"
    },
    {
      "inputs": [
        {
          "internalType": "address",
          "name": "",
          "type": "address"
        }
      ],
      "name": "totalPending",
      "outputs": [
        {
          "internalType": "uint256",
          "name": "",
          "type": "uint256"
        }
      ],
      "stateMutability": "view",
      "type": "function"
    },
    {
      "inputs": [
        {
          "internalType": "bytes32",
          "name": "",
          "type": "bytes32"
        }
      ],
      "name": "trades",
      "outputs": [
        {
          "internalType": "address",
          "name": "buyer",
          "type": "address"
        },
        {
          "internalType": "address",
          "name": "seller",
          "type": "address"
        },
        {
          "internalType": "address",
          "name": "arbiter",
          "type": "address"
        },
        {
          "internalType": "address",
          "name": "token",
          "type": "address"
        },
        {
          "internalType": "uint256",
          "name": "amount",
          "type": "uint256"
        },
        {
          "internalType": "uint256",
          "name": "unlockAt",
          "type": "uint256"
        },
        {
          "internalType": "uint256",
          "name": "escrowFee",
          "type": "uint256"
        }
      ],
      "stateMutability": "view",
      "type": "function"
    },
    {
      "inputs": [
        {
          "internalType": "address",
          "name": "newOwner",
          "type": "address"
        }
      ],
      "name": "transferOwnership",
      "outputs": [],
      "stateMutability": "nonpayable",
      "type": "function"
    },
    {
      "inputs": [
        {
          "internalType": "bytes32",
          "name": "tradeId",
          "type": "bytes32"
        },
        {
          "internalType": "address",
          "name": "beneficiary",
          "type": "address"
        },
        {
          "internalType": "address",
          "name": "destination",
          "type": "address"
        },
        {
          "internalType": "bytes",
          "name": "signature",
          "type": "bytes"
        }
      ],
      "name": "withdraw",
      "outputs": [],
      "stateMutability": "nonpayable",
      "type": "function"
    },
    {
      "stateMutability": "payable",
      "type": "receive"
    }
  ],
  "bytecode": "0x610160604052348015610010575f5ffd5b506040518060400160405280601181526020017f486f737472204d756c7469457363726f770000000000000000000000000000008152506040518060400160405280600181526020017f35000000000000000000000000000000000000000000000000000000000000008152506100905f8361018f60201b90919060201c565b61012081815250506100ac60018261018f60201b90919060201c565b6101408181525050818051906020012060e08181525050808051906020012061010081815250504660a081815250506100e96101dc60201b60201c565b608081815250503073ffffffffffffffffffffffffffffffffffffffff1660c08173ffffffffffffffffffffffffffffffffffffffff16815250505050600161014461013961023660201b60201c565b61025f60201b60201c565b5f01819055503360025f6101000a81548173ffffffffffffffffffffffffffffffffffffffff021916908373ffffffffffffffffffffffffffffffffffffffff1602179055506107b2565b5f6020835110156101b0576101a98361026860201b60201c565b90506101d6565b826101c0836102cd60201b60201c565b5f0190816101ce9190610513565b5060ff5f1b90505b92915050565b5f7f8b73c3c69bb8fe3d512ecc4cf759cc79239f7b179b0ffacaa9a75d522b39400f60e05161010051463060405160200161021b959493929190610648565b60405160208183030381529060405280519060200120905090565b5f7f9b779b17422d0df92223018b32b4d1fa46e071723d6817e2486d003becc55f005f1b905090565b5f819050919050565b5f5f829050601f815111156102b457826040517f305a27a90000000000000000000000000000000000000000000000000000000081526004016102ab91906106ff565b60405180910390fd5b8051816102c09061074c565b5f1c175f1b915050919050565b5f819050919050565b5f81519050919050565b7f4e487b71000000000000000000000000000000000000000000000000000000005f52604160045260245ffd5b7f4e487b71000000000000000000000000000000000000000000000000000000005f52602260045260245ffd5b5f600282049050600182168061035157607f821691505b6020821081036103645761036361030d565b5b50919050565b5f819050815f5260205f209050919050565b5f6020601f8301049050919050565b5f82821b905092915050565b5f600883026103c67fffffffffffffffffffffffffffffffffffffffffffffffffffffffffffffffff8261038b565b6103d0868361038b565b95508019841693508086168417925050509392505050565b5f819050919050565b5f819050919050565b5f61041461040f61040a846103e8565b6103f1565b6103e8565b9050919050565b5f819050919050565b61042d836103fa565b6104416104398261041b565b848454610397565b825550505050565b5f5f905090565b610458610449565b610463818484610424565b505050565b5b818110156104865761047b5f82610450565b600181019050610469565b5050565b601f8211156104cb5761049c8161036a565b6104a58461037c565b810160208510156104b4578190505b6104c86104c08561037c565b830182610468565b50505b505050565b5f82821c905092915050565b5f6104eb5f19846008026104d0565b1980831691505092915050565b5f61050383836104dc565b9150826002028217905092915050565b61051c826102d6565b67ffffffffffffffff811115610535576105346102e0565b5b61053f825461033a565b61054a82828561048a565b5f60209050601f83116001811461057b575f8415610569578287015190505b61057385826104f8565b8655506105da565b601f1984166105898661036a565b5f5b828110156105b05784890151825560018201915060208501945060208101905061058b565b868310156105cd57848901516105c9601f8916826104dc565b8355505b6001600288020188555050505b505050505050565b5f819050919050565b6105f4816105e2565b82525050565b610603816103e8565b82525050565b5f73ffffffffffffffffffffffffffffffffffffffff82169050919050565b5f61063282610609565b9050919050565b61064281610628565b82525050565b5f60a08201905061065b5f8301886105eb565b61066860208301876105eb565b61067560408301866105eb565b61068260608301856105fa565b61068f6080830184610639565b9695505050505050565b5f82825260208201905092915050565b8281835e5f83830152505050565b5f601f19601f8301169050919050565b5f6106d1826102d6565b6106db8185610699565b93506106eb8185602086016106a9565b6106f4816106b7565b840191505092915050565b5f6020820190508181035f83015261071781846106c7565b905092915050565b5f81519050919050565b5f819050602082019050919050565b5f61074382516105e2565b80915050919050565b5f6107568261071f565b8261076084610729565b905061076b81610738565b925060208210156107ab576107a67fffffffffffffffffffffffffffffffffffffffffffffffffffffffffffffffff8360200360080261038b565b831692505b5050919050565b60805160a05160c05160e051610100516101205161014051613ecb6108035f395f611a2101525f6119e601525f612dc901525f612da801525f612b7901525f612bcf01525f612bf80152613ecb5ff3fe608060405260043610610100575f3560e01c8063b2118a8d11610094578063c6763cea11610063578063c6763cea14610362578063cedc44781461037e578063f0331024146103a8578063f2fde38b146103d0578063f4298124146103f857610107565b8063b2118a8d1461029a578063b732d9c2146102c2578063be44d38d146102ea578063c1b64f741461032657610107565b806384b0196e116100d057806384b0196e146101ee5780638da5cb5b1461021e578063a1fb634514610248578063af6eb8561461027257610107565b80621624201461010b5780631ca82a931461014d57806356c48e831461018a57806375513bb4146101c657610107565b3661010757005b5f5ffd5b348015610116575f5ffd5b50610131600480360381019061012c9190613017565b610422565b6040516101449796959493929190613099565b60405180910390f35b348015610158575f5ffd5b50610173600480360381019061016e9190613017565b6104dc565b6040516101819291906131ca565b60405180910390f35b348015610195575f5ffd5b506101b060048036038101906101ab919061321c565b6106bd565b6040516101bd9190613311565b60405180910390f35b3480156101d1575f5ffd5b506101ec60048036038101906101e791906133bc565b61080a565b005b3480156101f9575f5ffd5b50610202610a9e565b60405161021597969594939291906135a1565b60405180910390f35b348015610229575f5ffd5b50610232610b43565b60405161023f9190613623565b60405180910390f35b348015610253575f5ffd5b5061025c610b68565b604051610269919061363c565b60405180910390f35b34801561027d575f5ffd5b5061029860048036038101906102939190613655565b610b6e565b005b3480156102a5575f5ffd5b506102c060048036038101906102bb91906136c6565b610ecc565b005b3480156102cd575f5ffd5b506102e860048036038101906102e39190613716565b6111e4565b005b3480156102f5575f5ffd5b50610310600480360381019061030b9190613787565b61125c565b60405161031d919061363c565b60405180910390f35b348015610331575f5ffd5b5061034c600480360381019061034791906137c5565b61127c565b604051610359919061363c565b60405180910390f35b61037c600480360381019061037791906137f0565b611291565b005b348015610389575f5ffd5b5061039261143f565b60405161039f919061363c565b60405180910390f35b3480156103b3575f5ffd5b506103ce60048036038101906103c991906138a1565b61144b565b005b3480156103db575f5ffd5b506103f660048036038101906103f191906137c5565b6114f6565b005b348015610403575f5ffd5b5061040c61163a565b6040516104199190613311565b60405180910390f35b6003602052805f5260405f205f91509050805f015f9054906101000a900473ffffffffffffffffffffffffffffffffffffffff1690806001015f9054906101000a900473ffffffffffffffffffffffffffffffffffffffff1690806002015f9054906101000a900473ffffffffffffffffffffffffffffffffffffffff1690806003015f9054906101000a900473ffffffffffffffffffffffffffffffffffffffff16908060040154908060050154908060060154905087565b5f6104e5612f4e565b60035f8481526020019081526020015f206040518060e00160405290815f82015f9054906101000a900473ffffffffffffffffffffffffffffffffffffffff1673ffffffffffffffffffffffffffffffffffffffff1673ffffffffffffffffffffffffffffffffffffffff168152602001600182015f9054906101000a900473ffffffffffffffffffffffffffffffffffffffff1673ffffffffffffffffffffffffffffffffffffffff1673ffffffffffffffffffffffffffffffffffffffff168152602001600282015f9054906101000a900473ffffffffffffffffffffffffffffffffffffffff1673ffffffffffffffffffffffffffffffffffffffff1673ffffffffffffffffffffffffffffffffffffffff168152602001600382015f9054906101000a900473ffffffffffffffffffffffffffffffffffffffff1673ffffffffffffffffffffffffffffffffffffffff1673ffffffffffffffffffffffffffffffffffffffff168152602001600482015481526020016005820154815260200160068201548152505090505f73ffffffffffffffffffffffffffffffffffffffff16815f015173ffffffffffffffffffffffffffffffffffffffff16141580156106b657505f8160800151115b9150915091565b6060600480549050831015806106d257505f82145b15610727575f67ffffffffffffffff8111156106f1576106f06138fe565b5b60405190808252806020026020018201604052801561071f5781602001602082028036833780820191505090505b509050610804565b5f82846107349190613958565b905060048054905081111561074c5760048054905090505b8381610758919061398b565b67ffffffffffffffff811115610771576107706138fe565b5b60405190808252806020026020018201604052801561079f5781602001602082028036833780820191505090505b5091505f8490505b8181101561080157600481815481106107c3576107c26139be565b5b905f5260205f2001548386836107d9919061398b565b815181106107ea576107e96139be565b5b6020026020010181815250508060010190506107a7565b50505b92915050565b610812611690565b610868847f1d5568452dfac6c8c0634c3e4af845a7a395460af515542f0c9aaea0473e88d3878660405160200161084b939291906139eb565b6040516020818303038152906040528051906020012084846116b2565b5f60065f8781526020019081526020015f205f8673ffffffffffffffffffffffffffffffffffffffff1673ffffffffffffffffffffffffffffffffffffffff1681526020019081526020015f205490505f81036108f1576040517fd0d04f6000000000000000000000000000000000000000000000000000000000815260040160405180910390fd5b5f60075f8881526020019081526020015f205f9054906101000a900473ffffffffffffffffffffffffffffffffffffffff1690505f73eeeeeeeeeeeeeeeeeeeeeeeeeeeeeeeeeeeeeeee73ffffffffffffffffffffffffffffffffffffffff168273ffffffffffffffffffffffffffffffffffffffff16146109735781610975565b5f5b905060065f8981526020019081526020015f205f8873ffffffffffffffffffffffffffffffffffffffff1673ffffffffffffffffffffffffffffffffffffffff1681526020019081526020015f205f90558260085f8373ffffffffffffffffffffffffffffffffffffffff1673ffffffffffffffffffffffffffffffffffffffff1681526020019081526020015f205f828254610a12919061398b565b92505081905550610a24818785611749565b8073ffffffffffffffffffffffffffffffffffffffff168773ffffffffffffffffffffffffffffffffffffffff16897f8e92230cc4aee5f0acba946173665d245fc693dff827ec8a7f798524675075668987604051610a84929190613a20565b60405180910390a4505050610a976119c4565b5050505050565b5f6060805f5f5f6060610aaf6119de565b610ab7611a18565b46305f5f1b5f67ffffffffffffffff811115610ad657610ad56138fe565b5b604051908082528060200260200182016040528015610b045781602001602082028036833780820191505090505b507f0f00000000000000000000000000000000000000000000000000000000000000959493929190965096509650965096509650965090919293949596565b60025f9054906101000a900473ffffffffffffffffffffffffffffffffffffffff1681565b6103e881565b610b76611690565b610bff60035f8681526020019081526020015f206002015f9054906101000a900473ffffffffffffffffffffffffffffffffffffffff167fc22265fc1db385c0b61c5948dccf8e21001467683b2f997a455ae2b4a65de3078686604051602001610be293929190613a47565b6040516020818303038152906040528051906020012084846116b2565b5f60035f8681526020019081526020015f206040518060e00160405290815f82015f9054906101000a900473ffffffffffffffffffffffffffffffffffffffff1673ffffffffffffffffffffffffffffffffffffffff1673ffffffffffffffffffffffffffffffffffffffff168152602001600182015f9054906101000a900473ffffffffffffffffffffffffffffffffffffffff1673ffffffffffffffffffffffffffffffffffffffff1673ffffffffffffffffffffffffffffffffffffffff168152602001600282015f9054906101000a900473ffffffffffffffffffffffffffffffffffffffff1673ffffffffffffffffffffffffffffffffffffffff1673ffffffffffffffffffffffffffffffffffffffff168152602001600382015f9054906101000a900473ffffffffffffffffffffffffffffffffffffffff1673ffffffffffffffffffffffffffffffffffffffff1673ffffffffffffffffffffffffffffffffffffffff168152602001600482015481526020016005820154815260200160068201548152505090505f816080015103610dcc576040517fb7cc22bc00000000000000000000000000000000000000000000000000000000815260040160405180910390fd5b6103e8841115610e08576040517f3fb86fe200000000000000000000000000000000000000000000000000000000815260040160405180910390fd5b5f8160c001518260800151610e1d919061398b565b90505f6103e88683610e2f9190613a7c565b610e399190613aea565b9050610e5a87846020015183865f01518587610e55919061398b565b611a53565b50826060015173ffffffffffffffffffffffffffffffffffffffff16877f623e377ab513cf936d61518f8661e47f2f4b431587b95c4f3520af5b644e25fe8560200151865f0151868b604051610eb39493929190613b1a565b60405180910390a3505050610ec66119c4565b50505050565b60025f9054906101000a900473ffffffffffffffffffffffffffffffffffffffff1673ffffffffffffffffffffffffffffffffffffffff163373ffffffffffffffffffffffffffffffffffffffff1614610f52576040517f5fc483c500000000000000000000000000000000000000000000000000000000815260040160405180910390fd5b5f73ffffffffffffffffffffffffffffffffffffffff168373ffffffffffffffffffffffffffffffffffffffff1603610fb7576040517f3b40256e00000000000000000000000000000000000000000000000000000000815260040160405180910390fd5b5f8373ffffffffffffffffffffffffffffffffffffffff163b03611007576040517f09ee12d500000000000000000000000000000000000000000000000000000000815260040160405180910390fd5b5f5f60048054905090505f5b818110156110c0575f60035f60048481548110611033576110326139be565b5b905f5260205f20015481526020019081526020015f2090508673ffffffffffffffffffffffffffffffffffffffff16816003015f9054906101000a900473ffffffffffffffffffffffffffffffffffffffff1673ffffffffffffffffffffffffffffffffffffffff16036110b4578060040154846110b19190613958565b93505b81600101915050611013565b5060085f8673ffffffffffffffffffffffffffffffffffffffff1673ffffffffffffffffffffffffffffffffffffffff1681526020019081526020015f20548261110a9190613958565b91505f8573ffffffffffffffffffffffffffffffffffffffff166370a08231306040518263ffffffff1660e01b81526004016111469190613623565b602060405180830381865afa158015611161573d5f5f3e3d5ffd5b505050506040513d601f19601f820116820180604052508101906111859190613b71565b90505f8382611194919061398b565b9050808511156111d0576040517f638ffa3900000000000000000000000000000000000000000000000000000000815260040160405180910390fd5b6111db878787611749565b50505050505050565b6111ec611690565b611242837f93070a1972ace1f2a527268212dc14d04214db9d62da685be62a43c92ad499de8686604051602001611225939291906139eb565b6040516020818303038152906040528051906020012084846116b2565b61124c8484611f28565b50506112566119c4565b50505050565b6006602052815f5260405f20602052805f5260405f205f91509150505481565b6008602052805f5260405f205f915090505481565b611299611690565b5f5f73ffffffffffffffffffffffffffffffffffffffff168573ffffffffffffffffffffffffffffffffffffffff16036112d55734905061141c565b5f341461130e576040517f3b40256e00000000000000000000000000000000000000000000000000000000815260040160405180910390fd5b5f8573ffffffffffffffffffffffffffffffffffffffff166370a08231306040518263ffffffff1660e01b81526004016113489190613623565b602060405180830381865afa158015611363573d5f5f3e3d5ffd5b505050506040513d601f19601f820116820180604052508101906113879190613b71565b905061139586333088612155565b808673ffffffffffffffffffffffffffffffffffffffff166370a08231306040518263ffffffff1660e01b81526004016113cf9190613623565b602060405180830381865afa1580156113ea573d5f5f3e3d5ffd5b505050506040513d601f19601f8201168201806040525081019061140e9190613b71565b611418919061398b565b9150505b61142c89898989898888886122f1565b506114356119c4565b5050505050505050565b5f600480549050905090565b611453611690565b5f60035f8581526020019081526020015f206001015f9054906101000a900473ffffffffffffffffffffffffffffffffffffffff1690506114de817fca0316b2e6fe705913ddab20d140cadd891522328f82a68270eff03d1d1e4c26866040516020016114c1929190613b9c565b6040516020818303038152906040528051906020012085856116b2565b6114e78461264f565b50506114f16119c4565b505050565b60025f9054906101000a900473ffffffffffffffffffffffffffffffffffffffff1673ffffffffffffffffffffffffffffffffffffffff163373ffffffffffffffffffffffffffffffffffffffff161461157c576040517f5fc483c500000000000000000000000000000000000000000000000000000000815260040160405180910390fd5b8073ffffffffffffffffffffffffffffffffffffffff1660025f9054906101000a900473ffffffffffffffffffffffffffffffffffffffff1673ffffffffffffffffffffffffffffffffffffffff167f8be0079c531659141344cd1fd0a4f28419497f9722a3daafe3b4186f6b6457e060405160405180910390a38060025f6101000a81548173ffffffffffffffffffffffffffffffffffffffff021916908373ffffffffffffffffffffffffffffffffffffffff16021790555050565b6060600480548060200260200160405190810160405280929190818152602001828054801561168657602002820191905f5260205f20905b815481526020019060010190808311611672575b5050505050905090565b6116986127d2565b60026116aa6116a5612813565b61283c565b5f0181905550565b5f6116bc84612845565b905061170c858285858080601f0160208091040260200160405190810160405280939291908181526020018383808284375f81840152601f19601f8201169050808301925050505050505061285e565b611742576040517f8baa579f00000000000000000000000000000000000000000000000000000000815260040160405180910390fd5b5050505050565b5f8103156119bf575f73ffffffffffffffffffffffffffffffffffffffff168373ffffffffffffffffffffffffffffffffffffffff1603611829575f8273ffffffffffffffffffffffffffffffffffffffff16826040516117a990613bf0565b5f6040518083038185875af1925050503d805f81146117e3576040519150601f19603f3d011682016040523d82523d5f602084013e6117e8565b606091505b5050905080611823576040517ff4b3b1bc00000000000000000000000000000000000000000000000000000000815260040160405180910390fd5b506119be565b5f8373ffffffffffffffffffffffffffffffffffffffff163b03611879576040517f09ee12d500000000000000000000000000000000000000000000000000000000815260040160405180910390fd5b5f5f8473ffffffffffffffffffffffffffffffffffffffff1663a9059cbb60e01b85856040516024016118ad929190613a20565b604051602081830303815290604052907bffffffffffffffffffffffffffffffffffffffffffffffffffffffff19166020820180517bffffffffffffffffffffffffffffffffffffffffffffffffffffffff83818316178352505050506040516119179190613c3e565b5f604051808303815f865af19150503d805f8114611950576040519150601f19603f3d011682016040523d82523d5f602084013e611955565b606091505b509150915081158061198457505f81511180156119835750808060200190518101906119819190613c7e565b155b5b156119bb576040517ff27f64e400000000000000000000000000000000000000000000000000000000815260040160405180910390fd5b50505b5b505050565b60016119d66119d1612813565b61283c565b5f0181905550565b6060611a135f7f000000000000000000000000000000000000000000000000000000000000000061290a90919063ffffffff16565b905090565b6060611a4e60017f000000000000000000000000000000000000000000000000000000000000000061290a90919063ffffffff16565b905090565b5f5f60035f8881526020019081526020015f206040518060e00160405290815f82015f9054906101000a900473ffffffffffffffffffffffffffffffffffffffff1673ffffffffffffffffffffffffffffffffffffffff1673ffffffffffffffffffffffffffffffffffffffff168152602001600182015f9054906101000a900473ffffffffffffffffffffffffffffffffffffffff1673ffffffffffffffffffffffffffffffffffffffff1673ffffffffffffffffffffffffffffffffffffffff168152602001600282015f9054906101000a900473ffffffffffffffffffffffffffffffffffffffff1673ffffffffffffffffffffffffffffffffffffffff1673ffffffffffffffffffffffffffffffffffffffff168152602001600382015f9054906101000a900473ffffffffffffffffffffffffffffffffffffffff1673ffffffffffffffffffffffffffffffffffffffff1673ffffffffffffffffffffffffffffffffffffffff168152602001600482015481526020016005820154815260200160068201548152505090508060c0015191505f81606001519050611bfc886129b7565b60035f8981526020019081526020015f205f5f82015f6101000a81549073ffffffffffffffffffffffffffffffffffffffff0219169055600182015f6101000a81549073ffffffffffffffffffffffffffffffffffffffff0219169055600282015f6101000a81549073ffffffffffffffffffffffffffffffffffffffff0219169055600382015f6101000a81549073ffffffffffffffffffffffffffffffffffffffff0219169055600482015f9055600582015f9055600682015f905550505f73ffffffffffffffffffffffffffffffffffffffff168173ffffffffffffffffffffffffffffffffffffffff1614611cf55780611d0b565b73eeeeeeeeeeeeeeeeeeeeeeeeeeeeeeeeeeeeeeee5b60075f8a81526020019081526020015f205f6101000a81548173ffffffffffffffffffffffffffffffffffffffff021916908373ffffffffffffffffffffffffffffffffffffffff1602179055505f5f841115611dd7578360065f8b81526020019081526020015f205f856040015173ffffffffffffffffffffffffffffffffffffffff1673ffffffffffffffffffffffffffffffffffffffff1681526020019081526020015f205f828254611dc19190613958565b925050819055508381611dd49190613958565b90505b5f871115611e50578660065f8b81526020019081526020015f205f8a73ffffffffffffffffffffffffffffffffffffffff1673ffffffffffffffffffffffffffffffffffffffff1681526020019081526020015f205f828254611e3a9190613958565b925050819055508681611e4d9190613958565b90505b5f851115611ec9578460065f8b81526020019081526020015f205f8873ffffffffffffffffffffffffffffffffffffffff1673ffffffffffffffffffffffffffffffffffffffff1681526020019081526020015f205f828254611eb39190613958565b925050819055508481611ec69190613958565b90505b8060085f8473ffffffffffffffffffffffffffffffffffffffff1673ffffffffffffffffffffffffffffffffffffffff1681526020019081526020015f205f828254611f159190613958565b9250508190555050505095945050505050565b5f5f5f60035f8681526020019081526020015f2090505f816004015403611f7b576040517fb7cc22bc00000000000000000000000000000000000000000000000000000000815260040160405180910390fd5b5f816003015f9054906101000a900473ffffffffffffffffffffffffffffffffffffffff169050816001015f9054906101000a900473ffffffffffffffffffffffffffffffffffffffff1673ffffffffffffffffffffffffffffffffffffffff168573ffffffffffffffffffffffffffffffffffffffff160361202257815f015f9054906101000a900473ffffffffffffffffffffffffffffffffffffffff1693506120d5565b815f015f9054906101000a900473ffffffffffffffffffffffffffffffffffffffff1673ffffffffffffffffffffffffffffffffffffffff168573ffffffffffffffffffffffffffffffffffffffff16036120a257816001015f9054906101000a900473ffffffffffffffffffffffffffffffffffffffff1693506120d4565b6040517f39fc5e0a00000000000000000000000000000000000000000000000000000000815260040160405180910390fd5b5b816006015482600401546120e9919061398b565b92506120f88685855f5f611a53565b508073ffffffffffffffffffffffffffffffffffffffff16867f07ef9f79b306ce9a89bf8e1f834a172a0a005ac528a32962db99b24acb9933ab87878760405161214493929190613ca9565b60405180910390a350509250929050565b5f8473ffffffffffffffffffffffffffffffffffffffff163b036121a5576040517f09ee12d500000000000000000000000000000000000000000000000000000000815260040160405180910390fd5b5f5f8573ffffffffffffffffffffffffffffffffffffffff166323b872dd60e01b8686866040516024016121db93929190613ca9565b604051602081830303815290604052907bffffffffffffffffffffffffffffffffffffffffffffffffffffffff19166020820180517bffffffffffffffffffffffffffffffffffffffffffffffffffffffff83818316178352505050506040516122459190613c3e565b5f604051808303815f865af19150503d805f811461227e576040519150601f19603f3d011682016040523d82523d5f602084013e612283565b606091505b50915091508115806122b257505f81511180156122b15750808060200190518101906122af9190613c7e565b155b5b156122e9576040517ff27f64e400000000000000000000000000000000000000000000000000000000815260040160405180910390fd5b505050505050565b5f73ffffffffffffffffffffffffffffffffffffffff1660035f8a81526020019081526020015f205f015f9054906101000a900473ffffffffffffffffffffffffffffffffffffffff1673ffffffffffffffffffffffffffffffffffffffff1614612388576040517f7505eadc00000000000000000000000000000000000000000000000000000000815260040160405180910390fd5b5f81036123c1576040517f29ce3ded00000000000000000000000000000000000000000000000000000000815260040160405180910390fd5b808211156123fb576040517f3a4ffe3a00000000000000000000000000000000000000000000000000000000815260040160405180910390fd5b6040518060e001604052808873ffffffffffffffffffffffffffffffffffffffff1681526020018773ffffffffffffffffffffffffffffffffffffffff1681526020018673ffffffffffffffffffffffffffffffffffffffff1681526020018573ffffffffffffffffffffffffffffffffffffffff1681526020018281526020018481526020018381525060035f8a81526020019081526020015f205f820151815f015f6101000a81548173ffffffffffffffffffffffffffffffffffffffff021916908373ffffffffffffffffffffffffffffffffffffffff1602179055506020820151816001015f6101000a81548173ffffffffffffffffffffffffffffffffffffffff021916908373ffffffffffffffffffffffffffffffffffffffff1602179055506040820151816002015f6101000a81548173ffffffffffffffffffffffffffffffffffffffff021916908373ffffffffffffffffffffffffffffffffffffffff1602179055506060820151816003015f6101000a81548173ffffffffffffffffffffffffffffffffffffffff021916908373ffffffffffffffffffffffffffffffffffffffff1602179055506080820151816004015560a0820151816005015560c082015181600601559050506125d788612acc565b8473ffffffffffffffffffffffffffffffffffffffff168473ffffffffffffffffffffffffffffffffffffffff16897fd64d9285bd5f87d9d4796ea61b584fb4009ff23758a031710a6af3a6788bd69c898b86898960405161263d959493929190613cde565b60405180910390a45050505050505050565b5f5f60035f8481526020019081526020015f209050806005015442116126a1576040517f916da0d100000000000000000000000000000000000000000000000000000000815260040160405180910390fd5b5f8160040154036126de576040517fdff46e2b00000000000000000000000000000000000000000000000000000000815260040160405180910390fd5b5f816001015f9054906101000a900473ffffffffffffffffffffffffffffffffffffffff1690505f825f015f9054906101000a900473ffffffffffffffffffffffffffffffffffffffff1690505f836003015f9054906101000a900473ffffffffffffffffffffffffffffffffffffffff16905083600601548460040154612766919061398b565b94506127758684875f5f611a53565b508073ffffffffffffffffffffffffffffffffffffffff16867f8c18dc0a2c06d397feb6dd44b409d75c443e6cfbe8cd39e19619d7809ff9b8748585896040516127c193929190613ca9565b60405180910390a350505050919050565b6127da612b5a565b15612811576040517f3ee5aeb500000000000000000000000000000000000000000000000000000000815260040160405180910390fd5b565b5f7f9b779b17422d0df92223018b32b4d1fa46e071723d6817e2486d003becc55f005f1b905090565b5f819050919050565b5f612857612851612b76565b83612c2c565b9050919050565b5f5f8473ffffffffffffffffffffffffffffffffffffffff163b036128f5575f5f6128898585612c6c565b50915091505f60038111156128a1576128a0613d2f565b5b8160038111156128b4576128b3613d2f565b5b1480156128ec57508573ffffffffffffffffffffffffffffffffffffffff168273ffffffffffffffffffffffffffffffffffffffff16145b92505050612903565b612900848484612cc1565b90505b9392505050565b606060ff5f1b83146129265761291f83612d12565b90506129b1565b81805461293290613d89565b80601f016020809104026020016040519081016040528092919081815260200182805461295e90613d89565b80156129a95780601f10612980576101008083540402835291602001916129a9565b820191905f5260205f20905b81548152906001019060200180831161298c57829003601f168201915b505050505090505b92915050565b5f60055f8381526020019081526020015f205490505f8103612a05576040517fb95c5dfc00000000000000000000000000000000000000000000000000000000815260040160405180910390fd5b5f6001820390505f6001600480549050612a1f919061398b565b9050808214612a8d575f60048281548110612a3d57612a3c6139be565b5b905f5260205f20015490508060048481548110612a5d57612a5c6139be565b5b905f5260205f200181905550600183612a769190613958565b60055f8381526020019081526020015f2081905550505b6004805480612a9f57612a9e613db9565b5b600190038181905f5260205f20015f9055905560055f8581526020019081526020015f205f905550505050565b5f60055f8381526020019081526020015f205414612b16576040517fca4b8ad600000000000000000000000000000000000000000000000000000000815260040160405180910390fd5b600481908060018154018082558091505060019003905f5260205f20015f909190919091505560048054905060055f8381526020019081526020015f208190555050565b5f6002612b6d612b68612813565b61283c565b5f015414905090565b5f7f000000000000000000000000000000000000000000000000000000000000000073ffffffffffffffffffffffffffffffffffffffff163073ffffffffffffffffffffffffffffffffffffffff16148015612bf157507f000000000000000000000000000000000000000000000000000000000000000046145b15612c1e577f00000000000000000000000000000000000000000000000000000000000000009050612c29565b612c26612d84565b90505b90565b5f6040517f190100000000000000000000000000000000000000000000000000000000000081528360028201528260228201526042812091505092915050565b5f5f5f6041845103612cac575f5f5f602087015192506040870151915060608701515f1a9050612c9e88828585612e19565b955095509550505050612cba565b5f600285515f1b9250925092505b9250925092565b5f5f631626ba7e60e01b90505f83519050604051828152856004820152604060248201526020820185604483015e60205f60648401838a5afa835f5114601f3d111681169450505050509392505050565b60605f612d1e83612f00565b90505f602067ffffffffffffffff811115612d3c57612d3b6138fe565b5b6040519080825280601f01601f191660200182016040528015612d6e5781602001600182028036833780820191505090505b5090508181528360208201528092505050919050565b5f7f8b73c3c69bb8fe3d512ecc4cf759cc79239f7b179b0ffacaa9a75d522b39400f7f00000000000000000000000000000000000000000000000000000000000000007f00000000000000000000000000000000000000000000000000000000000000004630604051602001612dfe959493929190613de6565b60405160208183030381529060405280519060200120905090565b5f5f5f7f7fffffffffffffffffffffffffffffff5d576e7357a4501ddfe92f46681b20a0845f1c1115612e55575f600385925092509250612ef6565b5f6001888888886040515f8152602001604052604051612e789493929190613e52565b6020604051602081039080840390855afa158015612e98573d5f5f3e3d5ffd5b5050506020604051035190505f73ffffffffffffffffffffffffffffffffffffffff168173ffffffffffffffffffffffffffffffffffffffff1603612ee9575f60015f5f1b93509350935050612ef6565b805f5f5f1b935093509350505b9450945094915050565b5f5f60ff835f1c169050601f811115612f45576040517fb3512b0c00000000000000000000000000000000000000000000000000000000815260040160405180910390fd5b80915050919050565b6040518060e001604052805f73ffffffffffffffffffffffffffffffffffffffff1681526020015f73ffffffffffffffffffffffffffffffffffffffff1681526020015f73ffffffffffffffffffffffffffffffffffffffff1681526020015f73ffffffffffffffffffffffffffffffffffffffff1681526020015f81526020015f81526020015f81525090565b5f5ffd5b5f5ffd5b5f819050919050565b612ff681612fe4565b8114613000575f5ffd5b50565b5f8135905061301181612fed565b92915050565b5f6020828403121561302c5761302b612fdc565b5b5f61303984828501613003565b91505092915050565b5f73ffffffffffffffffffffffffffffffffffffffff82169050919050565b5f61306b82613042565b9050919050565b61307b81613061565b82525050565b5f819050919050565b61309381613081565b82525050565b5f60e0820190506130ac5f83018a613072565b6130b96020830189613072565b6130c66040830188613072565b6130d36060830187613072565b6130e0608083018661308a565b6130ed60a083018561308a565b6130fa60c083018461308a565b98975050505050505050565b5f8115159050919050565b61311a81613106565b82525050565b61312981613061565b82525050565b61313881613081565b82525050565b60e082015f8201516131525f850182613120565b5060208201516131656020850182613120565b5060408201516131786040850182613120565b50606082015161318b6060850182613120565b50608082015161319e608085018261312f565b5060a08201516131b160a085018261312f565b5060c08201516131c460c085018261312f565b50505050565b5f610100820190506131de5f830185613111565b6131eb602083018461313e565b9392505050565b6131fb81613081565b8114613205575f5ffd5b50565b5f81359050613216816131f2565b92915050565b5f5f6040838503121561323257613231612fdc565b5b5f61323f85828601613208565b925050602061325085828601613208565b9150509250929050565b5f81519050919050565b5f82825260208201905092915050565b5f819050602082019050919050565b61328c81612fe4565b82525050565b5f61329d8383613283565b60208301905092915050565b5f602082019050919050565b5f6132bf8261325a565b6132c98185613264565b93506132d483613274565b805f5b838110156133045781516132eb8882613292565b97506132f6836132a9565b9250506001810190506132d7565b5085935050505092915050565b5f6020820190508181035f83015261332981846132b5565b905092915050565b61333a81613061565b8114613344575f5ffd5b50565b5f8135905061335581613331565b92915050565b5f5ffd5b5f5ffd5b5f5ffd5b5f5f83601f84011261337c5761337b61335b565b5b8235905067ffffffffffffffff8111156133995761339861335f565b5b6020830191508360018202830111156133b5576133b4613363565b5b9250929050565b5f5f5f5f5f608086880312156133d5576133d4612fdc565b5b5f6133e288828901613003565b95505060206133f388828901613347565b945050604061340488828901613347565b935050606086013567ffffffffffffffff81111561342557613424612fe0565b5b61343188828901613367565b92509250509295509295909350565b5f7fff0000000000000000000000000000000000000000000000000000000000000082169050919050565b61347481613440565b82525050565b5f81519050919050565b5f82825260208201905092915050565b8281835e5f83830152505050565b5f601f19601f8301169050919050565b5f6134bc8261347a565b6134c68185613484565b93506134d6818560208601613494565b6134df816134a2565b840191505092915050565b6134f381612fe4565b82525050565b5f81519050919050565b5f82825260208201905092915050565b5f819050602082019050919050565b5f61352d838361312f565b60208301905092915050565b5f602082019050919050565b5f61354f826134f9565b6135598185613503565b935061356483613513565b805f5b8381101561359457815161357b8882613522565b975061358683613539565b925050600181019050613567565b5085935050505092915050565b5f60e0820190506135b45f83018a61346b565b81810360208301526135c681896134b2565b905081810360408301526135da81886134b2565b90506135e9606083018761308a565b6135f66080830186613072565b61360360a08301856134ea565b81810360c08301526136158184613545565b905098975050505050505050565b5f6020820190506136365f830184613072565b92915050565b5f60208201905061364f5f83018461308a565b92915050565b5f5f5f5f6060858703121561366d5761366c612fdc565b5b5f61367a87828801613003565b945050602061368b87828801613208565b935050604085013567ffffffffffffffff8111156136ac576136ab612fe0565b5b6136b887828801613367565b925092505092959194509250565b5f5f5f606084860312156136dd576136dc612fdc565b5b5f6136ea86828701613347565b93505060206136fb86828701613347565b925050604061370c86828701613208565b9150509250925092565b5f5f5f5f6060858703121561372e5761372d612fdc565b5b5f61373b87828801613003565b945050602061374c87828801613347565b935050604085013567ffffffffffffffff81111561376d5761376c612fe0565b5b61377987828801613367565b925092505092959194509250565b5f5f6040838503121561379d5761379c612fdc565b5b5f6137aa85828601613003565b92505060206137bb85828601613347565b9150509250929050565b5f602082840312156137da576137d9612fdc565b5b5f6137e784828501613347565b91505092915050565b5f5f5f5f5f5f5f5f610100898b03121561380d5761380c612fdc565b5b5f61381a8b828c01613003565b985050602061382b8b828c01613347565b975050604061383c8b828c01613347565b965050606061384d8b828c01613347565b955050608061385e8b828c01613347565b94505060a061386f8b828c01613208565b93505060c06138808b828c01613208565b92505060e06138918b828c01613208565b9150509295985092959890939650565b5f5f5f604084860312156138b8576138b7612fdc565b5b5f6138c586828701613003565b935050602084013567ffffffffffffffff8111156138e6576138e5612fe0565b5b6138f286828701613367565b92509250509250925092565b7f4e487b71000000000000000000000000000000000000000000000000000000005f52604160045260245ffd5b7f4e487b71000000000000000000000000000000000000000000000000000000005f52601160045260245ffd5b5f61396282613081565b915061396d83613081565b92508282019050808211156139855761398461392b565b5b92915050565b5f61399582613081565b91506139a083613081565b92508282039050818111156139b8576139b761392b565b5b92915050565b7f4e487b71000000000000000000000000000000000000000000000000000000005f52603260045260245ffd5b5f6060820190506139fe5f8301866134ea565b613a0b60208301856134ea565b613a186040830184613072565b949350505050565b5f604082019050613a335f830185613072565b613a40602083018461308a565b9392505050565b5f606082019050613a5a5f8301866134ea565b613a6760208301856134ea565b613a74604083018461308a565b949350505050565b5f613a8682613081565b9150613a9183613081565b9250828202613a9f81613081565b91508282048414831517613ab657613ab561392b565b5b5092915050565b7f4e487b71000000000000000000000000000000000000000000000000000000005f52601260045260245ffd5b5f613af482613081565b9150613aff83613081565b925082613b0f57613b0e613abd565b5b828204905092915050565b5f608082019050613b2d5f830187613072565b613b3a6020830186613072565b613b47604083018561308a565b613b54606083018461308a565b95945050505050565b5f81519050613b6b816131f2565b92915050565b5f60208284031215613b8657613b85612fdc565b5b5f613b9384828501613b5d565b91505092915050565b5f604082019050613baf5f8301856134ea565b613bbc60208301846134ea565b9392505050565b5f81905092915050565b50565b5f613bdb5f83613bc3565b9150613be682613bcd565b5f82019050919050565b5f613bfa82613bd0565b9150819050919050565b5f81519050919050565b5f613c1882613c04565b613c228185613bc3565b9350613c32818560208601613494565b80840191505092915050565b5f613c498284613c0e565b915081905092915050565b613c5d81613106565b8114613c67575f5ffd5b50565b5f81519050613c7881613c54565b92915050565b5f60208284031215613c9357613c92612fdc565b5b5f613ca084828501613c6a565b91505092915050565b5f606082019050613cbc5f830186613072565b613cc96020830185613072565b613cd6604083018461308a565b949350505050565b5f60a082019050613cf15f830188613072565b613cfe6020830187613072565b613d0b604083018661308a565b613d18606083018561308a565b613d25608083018461308a565b9695505050505050565b7f4e487b71000000000000000000000000000000000000000000000000000000005f52602160045260245ffd5b7f4e487b71000000000000000000000000000000000000000000000000000000005f52602260045260245ffd5b5f6002820490506001821680613da057607f821691505b602082108103613db357613db2613d5c565b5b50919050565b7f4e487b71000000000000000000000000000000000000000000000000000000005f52603160045260245ffd5b5f60a082019050613df95f8301886134ea565b613e0660208301876134ea565b613e1360408301866134ea565b613e20606083018561308a565b613e2d6080830184613072565b9695505050505050565b5f60ff82169050919050565b613e4c81613e37565b82525050565b5f608082019050613e655f8301876134ea565b613e726020830186613e43565b613e7f60408301856134ea565b613e8c60608301846134ea565b9594505050505056fea26469706673582212202369d74da1d7b701cfae4f0842c980c0b9453b775dbe41c4c1b2324fdfccc62564736f6c634300081c0033",
  "linkReferences": {},
  "deployedLinkReferences": {}
}