{"abi":[{"type":"constructor","inputs":[{"name":"name","type":"string","internalType":"string"},{"name":"symbol","type":"string","internalType":"string"},{"name":"_decimals","type":"uint8","internalType":"uint8"},{"name":"initialSupply","type":"uint256","internalType":"uint256"}],"stateMutability":"nonpayable"},{"type":"function","name":"allowance","inputs":[{"name":"owner","type":"address","internalType":"address"},{"name":"spender","type":"address","internalType":"address"}],"outputs":[{"name":"","type":"uint256","internalType":"uint256"}],"stateMutability":"view"},{"type":"function","name":"approve","inputs":[{"name":"spender","type":"address","internalType":"address"},{"name":"amount","type":"uint256","internalType":"uint256"}],"outputs":[],"stateMutability":"nonpayable"},{"type":"function","name":"balanceOf","inputs":[{"name":"account","type":"address","internalType":"address"}],"outputs":[{"name":"","type":"uint256","internalType":"uint256"}],"stateMutability":"view"},{"type":"function","name":"decimals","inputs":[],"outputs":[{"name":"","type":"uint8","internalType":"uint8"}],"stateMutability":"view"},{"type":"function","name":"transfer","inputs":[{"name":"recipient","type":"address","internalType":"address"},{"name":"amount","type":"uint256","internalType":"uint256"}],"outputs":[],"stateMutability":"nonpayable"},{"type":"function","name":"transferFrom","inputs":[{"name":"sender","type":"address","internalType":"address"},{"name":"recipient","type":"address","internalType":"address"},{"name":"amount","type":"uint256","internalType":"uint256"}],"outputs":[],"stateMutability":"nonpayable"},{"type":"event","name":"Approval","inputs":[{"name":"owner","type":"address","indexed":true,"internalType":"address"},{"name":"spender","type":"address","indexed":true,"internalType":"address"},{"name":"value","type":"uint256","indexed":false,"internalType":"uint256"}],"anonymous":false},{"type":"event","name":"Transfer","inputs":[{"name":"from","type":"address","indexed":true,"internalType":"address"},{"name":"to","type":"address","indexed":true,"internalType":"address"},{"name":"value","type":"uint256","indexed":false,"internalType":"uint256"}],"anonymous":false}],"bytecode":{"object":"0x608060405234801561000f575f5ffd5b5060405161148238038061148283398181016040528101906100319190610318565b815f5f6101000a81548160ff021916908360ff160217905550836003908161005991906105cc565b50826004908161006991906105cc565b508060015f3373ffffffffffffffffffffffffffffffffffffffff1673ffffffffffffffffffffffffffffffffffffffff1681526020019081526020015f20546100b391906106c8565b60015f3373ffffffffffffffffffffffffffffffffffffffff1673ffffffffffffffffffffffffffffffffffffffff1681526020019081526020015f20819055503373ffffffffffffffffffffffffffffffffffffffff165f73ffffffffffffffffffffffffffffffffffffffff167fddf252ad1be2c89b69c2b068fc378daa952ba7f163c4a11628f55a4df523b3ef83604051610151919061070a565b60405180910390a350505050610723565b5f604051905090565b5f5ffd5b5f5ffd5b5f5ffd5b5f5ffd5b5f601f19601f8301169050919050565b7f4e487b71000000000000000000000000000000000000000000000000000000005f52604160045260245ffd5b6101c18261017b565b810181811067ffffffffffffffff821117156101e0576101df61018b565b5b80604052505050565b5f6101f2610162565b90506101fe82826101b8565b919050565b5f67ffffffffffffffff82111561021d5761021c61018b565b5b6102268261017b565b9050602081019050919050565b8281835e5f83830152505050565b5f61025361024e84610203565b6101e9565b90508281526020810184848401111561026f5761026e610177565b5b61027a848285610233565b509392505050565b5f82601f83011261029657610295610173565b5b81516102a6848260208601610241565b91505092915050565b5f60ff82169050919050565b6102c4816102af565b81146102ce575f5ffd5b50565b5f815190506102df816102bb565b92915050565b5f819050919050565b6102f7816102e5565b8114610301575f5ffd5b50565b5f81519050610312816102ee565b92915050565b5f5f5f5f608085870312156103305761032f61016b565b5b5f85015167ffffffffffffffff81111561034d5761034c61016f565b5b61035987828801610282565b945050602085015167ffffffffffffffff81111561037a5761037961016f565b5b61038687828801610282565b9350506040610397878288016102d1565b92505060606103a887828801610304565b91505092959194509250565b5f81519050919050565b7f4e487b71000000000000000000000000000000000000000000000000000000005f52602260045260245ffd5b5f600282049050600182168061040257607f821691505b602082108103610415576104146103be565b5b50919050565b5f819050815f5260205f209050919050565b5f6020601f8301049050919050565b5f82821b905092915050565b5f600883026104777fffffffffffffffffffffffffffffffffffffffffffffffffffffffffffffffff8261043c565b610481868361043c565b95508019841693508086168417925050509392505050565b5f819050919050565b5f6104bc6104b76104b2846102e5565b610499565b6102e5565b9050919050565b5f819050919050565b6104d5836104a2565b6104e96104e1826104c3565b848454610448565b825550505050565b5f5f905090565b6105006104f1565b61050b8184846104cc565b505050565b5f5b82811015610531576105265f8284016104f8565b600181019050610512565b505050565b601f8211156105845782821115610583576105508161041b565b6105598361042d565b6105628561042d565b602086101561056f575f90505b80830161057e82840382610510565b505050505b5b505050565b5f82821c905092915050565b5f6105a45f1984600802610589565b1980831691505092915050565b5f6105bc8383610595565b9150826002028217905092915050565b6105d5826103b4565b67ffffffffffffffff8111156105ee576105ed61018b565b5b6105f882546103eb565b610603828285610536565b5f60209050601f831160018114610634575f8415610622578287015190505b61062c85826105b1565b865550610693565b601f1984166106428661041b565b5f5b8281101561066957848901518255600182019150602085019450602081019050610644565b868310156106865784890151610682601f891682610595565b8355505b6001600288020188555050505b505050505050565b7f4e487b71000000000000000000000000000000000000000000000000000000005f52601160045260245ffd5b5f6106d2826102e5565b91506106dd836102e5565b92508282019050808211156106f5576106f461069b565b5b92915050565b610704816102e5565b82525050565b5f60208201905061071d5f8301846106fb565b92915050565b610d52806107305f395ff3fe608060405234801561000f575f5ffd5b5060043610610060575f3560e01c8063095ea7b31461006457806323b872dd14610080578063313ce5671461009c57806370a08231146100ba578063a9059cbb146100ea578063dd62ed3e14610106575b5f5ffd5b61007e600480360381019061007991906107d2565b610136565b005b61009a60048036038101906100959190610810565b610145565b005b6100a461022b565b6040516100b1919061087b565b60405180910390f35b6100d460048036038101906100cf9190610894565b61023c565b6040516100e191906108ce565b60405180910390f35b61010460048036038101906100ff91906107d2565b610282565b005b610120600480360381019061011b91906108e7565b610291565b60405161012d91906108ce565b60405180910390f35b610141338383610313565b5050565b6101508383836104d6565b5f60025f8573ffffffffffffffffffffffffffffffffffffffff1673ffffffffffffffffffffffffffffffffffffffff1681526020019081526020015f205f3373ffffffffffffffffffffffffffffffffffffffff1673ffffffffffffffffffffffffffffffffffffffff1681526020019081526020015f205490508181101561020f576040517f08c379a0000000000000000000000000000000000000000000000000000000008152600401610206906109a5565b60405180910390fd5b6102258433848461022091906109f0565b610313565b50505050565b5f5f9054906101000a900460ff1681565b5f60015f8373ffffffffffffffffffffffffffffffffffffffff1673ffffffffffffffffffffffffffffffffffffffff1681526020019081526020015f20549050919050565b61028d3383836104d6565b5050565b5f60025f8473ffffffffffffffffffffffffffffffffffffffff1673ffffffffffffffffffffffffffffffffffffffff1681526020019081526020015f205f8373ffffffffffffffffffffffffffffffffffffffff1673ffffffffffffffffffffffffffffffffffffffff1681526020019081526020015f2054905092915050565b5f73ffffffffffffffffffffffffffffffffffffffff168373ffffffffffffffffffffffffffffffffffffffff1603610381576040517f08c379a000000000000000000000000000000000000000000000000000000000815260040161037890610a93565b60405180910390fd5b5f73ffffffffffffffffffffffffffffffffffffffff168273ffffffffffffffffffffffffffffffffffffffff16036103ef576040517f08c379a00000000000000000000000000000000000000000000000000000000081526004016103e690610b21565b60405180910390fd5b8060025f8573ffffffffffffffffffffffffffffffffffffffff1673ffffffffffffffffffffffffffffffffffffffff1681526020019081526020015f205f8473ffffffffffffffffffffffffffffffffffffffff1673ffffffffffffffffffffffffffffffffffffffff1681526020019081526020015f20819055508173ffffffffffffffffffffffffffffffffffffffff168373ffffffffffffffffffffffffffffffffffffffff167f8c5be1e5ebec7d5bd14f71427d1e84f3dd0314c0f7b2291e5b200ac8c7c3b925836040516104c991906108ce565b60405180910390a3505050565b5f73ffffffffffffffffffffffffffffffffffffffff168373ffffffffffffffffffffffffffffffffffffffff1603610544576040517f08c379a000000000000000000000000000000000000000000000000000000000815260040161053b90610baf565b60405180910390fd5b5f73ffffffffffffffffffffffffffffffffffffffff168273ffffffffffffffffffffffffffffffffffffffff16036105b2576040517f08c379a00000000000000000000000000000000000000000000000000000000081526004016105a990610c3d565b60405180910390fd5b5f60015f8573ffffffffffffffffffffffffffffffffffffffff1673ffffffffffffffffffffffffffffffffffffffff1681526020019081526020015f2054905081811015610636576040517f08c379a000000000000000000000000000000000000000000000000000000000815260040161062d90610ccb565b60405180910390fd5b818161064291906109f0565b60015f8673ffffffffffffffffffffffffffffffffffffffff1673ffffffffffffffffffffffffffffffffffffffff1681526020019081526020015f20819055508160015f8573ffffffffffffffffffffffffffffffffffffffff1673ffffffffffffffffffffffffffffffffffffffff1681526020019081526020015f205f8282546106cf9190610ce9565b925050819055508273ffffffffffffffffffffffffffffffffffffffff168473ffffffffffffffffffffffffffffffffffffffff167fddf252ad1be2c89b69c2b068fc378daa952ba7f163c4a11628f55a4df523b3ef8460405161073391906108ce565b60405180910390a350505050565b5f5ffd5b5f73ffffffffffffffffffffffffffffffffffffffff82169050919050565b5f61076e82610745565b9050919050565b61077e81610764565b8114610788575f5ffd5b50565b5f8135905061079981610775565b92915050565b5f819050919050565b6107b18161079f565b81146107bb575f5ffd5b50565b5f813590506107cc816107a8565b92915050565b5f5f604083850312156107e8576107e7610741565b5b5f6107f58582860161078b565b9250506020610806858286016107be565b9150509250929050565b5f5f5f6060848603121561082757610826610741565b5b5f6108348682870161078b565b93505060206108458682870161078b565b9250506040610856868287016107be565b9150509250925092565b5f60ff82169050919050565b61087581610860565b82525050565b5f60208201905061088e5f83018461086c565b92915050565b5f602082840312156108a9576108a8610741565b5b5f6108b68482850161078b565b91505092915050565b6108c88161079f565b82525050565b5f6020820190506108e15f8301846108bf565b92915050565b5f5f604083850312156108fd576108fc610741565b5b5f61090a8582860161078b565b925050602061091b8582860161078b565b9150509250929050565b5f82825260208201905092915050565b7f45524332303a207472616e7366657220616d6f756e74206578636565647320615f8201527f6c6c6f77616e6365000000000000000000000000000000000000000000000000602082015250565b5f61098f602883610925565b915061099a82610935565b604082019050919050565b5f6020820190508181035f8301526109bc81610983565b9050919050565b7f4e487b71000000000000000000000000000000000000000000000000000000005f52601160045260245ffd5b5f6109fa8261079f565b9150610a058361079f565b9250828203905081811115610a1d57610a1c6109c3565b5b92915050565b7f45524332303a20617070726f76652066726f6d20746865207a65726f206164645f8201527f7265737300000000000000000000000000000000000000000000000000000000602082015250565b5f610a7d602483610925565b9150610a8882610a23565b604082019050919050565b5f6020820190508181035f830152610aaa81610a71565b9050919050565b7f45524332303a20617070726f766520746f20746865207a65726f2061646472655f8201527f7373000000000000000000000000000000000000000000000000000000000000602082015250565b5f610b0b602283610925565b9150610b1682610ab1565b604082019050919050565b5f6020820190508181035f830152610b3881610aff565b9050919050565b7f45524332303a207472616e736665722066726f6d20746865207a65726f2061645f8201527f6472657373000000000000000000000000000000000000000000000000000000602082015250565b5f610b99602583610925565b9150610ba482610b3f565b604082019050919050565b5f6020820190508181035f830152610bc681610b8d565b9050919050565b7f45524332303a207472616e7366657220746f20746865207a65726f20616464725f8201527f6573730000000000000000000000000000000000000000000000000000000000602082015250565b5f610c27602383610925565b9150610c3282610bcd565b604082019050919050565b5f6020820190508181035f830152610c5481610c1b565b9050919050565b7f45524332303a207472616e7366657220616d6f756e74206578636565647320625f8201527f616c616e63650000000000000000000000000000000000000000000000000000602082015250565b5f610cb5602683610925565b9150610cc082610c5b565b604082019050919050565b5f6020820190508181035f830152610ce281610ca9565b9050919050565b5f610cf38261079f565b9150610cfe8361079f565b9250828201905080821115610d1657610d156109c3565b5b9291505056fea2646970667358221220e9fcd775d7eedd1add6e9eec1f5285eeb8837708d306c44453610a04909525df64736f6c63430008210033","linkReferences":{}},"methodIdentifiers":{"allowance(address,address)":"dd62ed3e","approve(address,uint256)":"095ea7b3","balanceOf(address)":"70a08231","decimals()":"313ce567","transfer(address,uint256)":"a9059cbb","transferFrom(address,address,uint256)":"23b872dd"},"id":0}