{"abi":[{"type":"function","name":"DOMAIN_SEPARATOR","inputs":[],"outputs":[{"name":"","type":"bytes32","internalType":"bytes32"}],"stateMutability":"view"},{"type":"function","name":"TYPEHASH_CLAIM","inputs":[],"outputs":[{"name":"","type":"bytes32","internalType":"bytes32"}],"stateMutability":"view"},{"type":"function","name":"TYPEHASH_COMMIT","inputs":[],"outputs":[{"name":"","type":"bytes32","internalType":"bytes32"}],"stateMutability":"view"},{"type":"function","name":"TYPEHASH_REFUND","inputs":[],"outputs":[{"name":"","type":"bytes32","internalType":"bytes32"}],"stateMutability":"view"},{"type":"function","name":"VERSION","inputs":[],"outputs":[{"name":"","type":"uint8","internalType":"uint8"}],"stateMutability":"view"},{"type":"function","name":"checkCommitmentSignature","inputs":[{"name":"preimageHash","type":"bytes32","internalType":"bytes32"},{"name":"amount","type":"uint256","internalType":"uint256"},{"name":"tokenAddress","type":"address","internalType":"address"},{"name":"claimAddress","type":"address","internalType":"address"},{"name":"refundAddress","type":"address","internalType":"address"},{"name":"timelock","type":"uint256","internalType":"uint256"},{"name":"v","type":"uint8","internalType":"uint8"},{"name":"r","type":"bytes32","internalType":"bytes32"},{"name":"s","type":"bytes32","internalType":"bytes32"}],"outputs":[{"name":"","type":"bool","internalType":"bool"}],"stateMutability":"view"},{"type":"function","name":"claim","inputs":[{"name":"preimage","type":"bytes32","internalType":"bytes32"},{"name":"amount","type":"uint256","internalType":"uint256"},{"name":"tokenAddress","type":"address","internalType":"address"},{"name":"claimAddress","type":"address","internalType":"address"},{"name":"refundAddress","type":"address","internalType":"address"},{"name":"timelock","type":"uint256","internalType":"uint256"},{"name":"v","type":"uint8","internalType":"uint8"},{"name":"r","type":"bytes32","internalType":"bytes32"},{"name":"s","type":"bytes32","internalType":"bytes32"}],"outputs":[],"stateMutability":"nonpayable"},{"type":"function","name":"claim","inputs":[{"name":"preimage","type":"bytes32","internalType":"bytes32"},{"name":"amount","type":"uint256","internalType":"uint256"},{"name":"tokenAddress","type":"address","internalType":"address"},{"name":"refundAddress","type":"address","internalType":"address"},{"name":"timelock","type":"uint256","internalType":"uint256"},{"name":"v","type":"uint8","internalType":"uint8"},{"name":"r","type":"bytes32","internalType":"bytes32"},{"name":"s","type":"bytes32","internalType":"bytes32"}],"outputs":[{"name":"","type":"address","internalType":"address"}],"stateMutability":"nonpayable"},{"type":"function","name":"claim","inputs":[{"name":"preimage","type":"bytes32","internalType":"bytes32"},{"name":"amount","type":"uint256","internalType":"uint256"},{"name":"tokenAddress","type":"address","internalType":"address"},{"name":"claimAddress","type":"address","internalType":"address"},{"name":"refundAddress","type":"address","internalType":"address"},{"name":"timelock","type":"uint256","internalType":"uint256"}],"outputs":[],"stateMutability":"nonpayable"},{"type":"function","name":"claim","inputs":[{"name":"preimage","type":"bytes32","internalType":"bytes32"},{"name":"amount","type":"uint256","internalType":"uint256"},{"name":"tokenAddress","type":"address","internalType":"address"},{"name":"refundAddress","type":"address","internalType":"address"},{"name":"timelock","type":"uint256","internalType":"uint256"}],"outputs":[],"stateMutability":"nonpayable"},{"type":"function","name":"claimBatch","inputs":[{"name":"tokenAddress","type":"address","internalType":"address"},{"name":"entries","type":"tuple[]","internalType":"struct ERC20Swap.BatchClaimEntry[]","components":[{"name":"preimage","type":"bytes32","internalType":"bytes32"},{"name":"amount","type":"uint256","internalType":"uint256"},{"name":"refundAddress","type":"address","internalType":"address"},{"name":"timelock","type":"uint256","internalType":"uint256"},{"name":"v","type":"uint8","internalType":"uint8"},{"name":"r","type":"bytes32","internalType":"bytes32"},{"name":"s","type":"bytes32","internalType":"bytes32"}]}],"outputs":[],"stateMutability":"nonpayable"},{"type":"function","name":"claimBatch","inputs":[{"name":"tokenAddress","type":"address","internalType":"address"},{"name":"preimages","type":"bytes32[]","internalType":"bytes32[]"},{"name":"amounts","type":"uint256[]","internalType":"uint256[]"},{"name":"refundAddresses","type":"address[]","internalType":"address[]"},{"name":"timelocks","type":"uint256[]","internalType":"uint256[]"}],"outputs":[],"stateMutability":"nonpayable"},{"type":"function","name":"hashValues","inputs":[{"name":"preimageHash","type":"bytes32","internalType":"bytes32"},{"name":"amount","type":"uint256","internalType":"uint256"},{"name":"tokenAddress","type":"address","internalType":"address"},{"name":"claimAddress","type":"address","internalType":"address"},{"name":"refundAddress","type":"address","internalType":"address"},{"name":"timelock","type":"uint256","internalType":"uint256"}],"outputs":[{"name":"result","type":"bytes32","internalType":"bytes32"}],"stateMutability":"pure"},{"type":"function","name":"lock","inputs":[{"name":"preimageHash","type":"bytes32","internalType":"bytes32"},{"name":"amount","type":"uint256","internalType":"uint256"},{"name":"tokenAddress","type":"address","internalType":"address"},{"name":"claimAddress","type":"address","internalType":"address"},{"name":"timelock","type":"uint256","internalType":"uint256"}],"outputs":[],"stateMutability":"nonpayable"},{"type":"function","name":"lock","inputs":[{"name":"preimageHash","type":"bytes32","internalType":"bytes32"},{"name":"amount","type":"uint256","internalType":"uint256"},{"name":"tokenAddress","type":"address","internalType":"address"},{"name":"claimAddress","type":"address","internalType":"address"},{"name":"refundAddress","type":"address","internalType":"address"},{"name":"timelock","type":"uint256","internalType":"uint256"}],"outputs":[],"stateMutability":"nonpayable"},{"type":"function","name":"lockPrepayMinerfee","inputs":[{"name":"preimageHash","type":"bytes32","internalType":"bytes32"},{"name":"amount","type":"uint256","internalType":"uint256"},{"name":"tokenAddress","type":"address","internalType":"address"},{"name":"claimAddress","type":"address","internalType":"address payable"},{"name":"timelock","type":"uint256","internalType":"uint256"}],"outputs":[],"stateMutability":"payable"},{"type":"function","name":"refund","inputs":[{"name":"preimageHash","type":"bytes32","internalType":"bytes32"},{"name":"amount","type":"uint256","internalType":"uint256"},{"name":"tokenAddress","type":"address","internalType":"address"},{"name":"claimAddress","type":"address","internalType":"address"},{"name":"refundAddress","type":"address","internalType":"address"},{"name":"timelock","type":"uint256","internalType":"uint256"}],"outputs":[],"stateMutability":"nonpayable"},{"type":"function","name":"refund","inputs":[{"name":"preimageHash","type":"bytes32","internalType":"bytes32"},{"name":"amount","type":"uint256","internalType":"uint256"},{"name":"tokenAddress","type":"address","internalType":"address"},{"name":"claimAddress","type":"address","internalType":"address"},{"name":"timelock","type":"uint256","internalType":"uint256"}],"outputs":[],"stateMutability":"nonpayable"},{"type":"function","name":"refundCooperative","inputs":[{"name":"preimageHash","type":"bytes32","internalType":"bytes32"},{"name":"amount","type":"uint256","internalType":"uint256"},{"name":"tokenAddress","type":"address","internalType":"address"},{"name":"claimAddress","type":"address","internalType":"address"},{"name":"refundAddress","type":"address","internalType":"address"},{"name":"timelock","type":"uint256","internalType":"uint256"},{"name":"v","type":"uint8","internalType":"uint8"},{"name":"r","type":"bytes32","internalType":"bytes32"},{"name":"s","type":"bytes32","internalType":"bytes32"}],"outputs":[],"stateMutability":"nonpayable"},{"type":"function","name":"refundCooperative","inputs":[{"name":"preimageHash","type":"bytes32","internalType":"bytes32"},{"name":"amount","type":"uint256","internalType":"uint256"},{"name":"tokenAddress","type":"address","internalType":"address"},{"name":"claimAddress","type":"address","internalType":"address"},{"name":"timelock","type":"uint256","internalType":"uint256"},{"name":"v","type":"uint8","internalType":"uint8"},{"name":"r","type":"bytes32","internalType":"bytes32"},{"name":"s","type":"bytes32","internalType":"bytes32"}],"outputs":[],"stateMutability":"nonpayable"},{"type":"function","name":"swaps","inputs":[{"name":"","type":"bytes32","internalType":"bytes32"}],"outputs":[{"name":"","type":"bool","internalType":"bool"}],"stateMutability":"view"},{"type":"function","name":"version","inputs":[],"outputs":[{"name":"","type":"uint8","internalType":"uint8"}],"stateMutability":"pure"},{"type":"event","name":"Claim","inputs":[{"name":"preimageHash","type":"bytes32","indexed":true,"internalType":"bytes32"},{"name":"preimage","type":"bytes32","indexed":false,"internalType":"bytes32"}],"anonymous":false},{"type":"event","name":"Lockup","inputs":[{"name":"preimageHash","type":"bytes32","indexed":true,"internalType":"bytes32"},{"name":"amount","type":"uint256","indexed":false,"internalType":"uint256"},{"name":"tokenAddress","type":"address","indexed":false,"internalType":"address"},{"name":"claimAddress","type":"address","indexed":true,"internalType":"address"},{"name":"refundAddress","type":"address","indexed":true,"internalType":"address"},{"name":"timelock","type":"uint256","indexed":false,"internalType":"uint256"}],"anonymous":false},{"type":"event","name":"Refund","inputs":[{"name":"preimageHash","type":"bytes32","indexed":true,"internalType":"bytes32"}],"anonymous":false},{"type":"error","name":"CommitmentCannotBeClaimedAsSwap","inputs":[]},{"type":"error","name":"InvalidSignature","inputs":[]},{"type":"error","name":"SwapAlreadyExists","inputs":[]},{"type":"error","name":"SwapNotFound","inputs":[]},{"type":"error","name":"SwapNotTimedOut","inputs":[]},{"type":"error","name":"ZeroAmount","inputs":[]}],"bytecode":{"object":"0x60a06040527f8b73c3c69bb8fe3d512ecc4cf759cc79239f7b179b0ffacaa9a75d522b39400f7f53904d715aff4cbf81a576b4cc3901f2c5f3e7c245cad96f11bec6c197b05ea27fe455bf8ea6e7463a1046a0b52804526e119b4bf5136279614e0b1e8e296a4e2d463060405160200161007d959493929190610119565b604051602081830303815290604052805190602001206080908152503480156100a4575f5ffd5b5061016a565b5f819050919050565b6100bc816100aa565b82525050565b5f819050919050565b6100d4816100c2565b82525050565b5f73ffffffffffffffffffffffffffffffffffffffff82169050919050565b5f610103826100da565b9050919050565b610113816100f9565b82525050565b5f60a08201905061012c5f8301886100b3565b61013960208301876100b3565b61014660408301866100b3565b61015360608301856100cb565b610160608083018461010a565b9695505050505050565b60805161232c6101975f395f8181610578015281816107ae015281816109d50152610bad015261232c5ff3fe608060405260043610610134575f3560e01c806391644b2b116100aa578063cd413efa1161006e578063cd413efa146103f0578063e64fafcc14610418578063eb84e7f214610440578063ebb7af921461047c578063fb35dd96146104a6578063ffa1ad74146104ce57610134565b806391644b2b1461031e578063a9ab4d5b14610346578063b2b78df814610370578063b8080ab8146103ac578063bc586b28146103c857610134565b80635073c277116100fc5780635073c2771461020257806354fd4d501461022c578063627b8bb7146102565780637beb9d6d146102925780638579dc5f146102ce5780638b4f3c23146102f657610134565b80630e5bbd5914610138578063107e1bb3146101605780633644e5151461018857806336504721146101b257806341bc6370146101da575b5f5ffd5b348015610143575f5ffd5b5061015e600480360381019061015991906115c0565b6104f8565b005b34801561016b575f5ffd5b506101866004803603810190610181919061167f565b61054f565b005b348015610193575f5ffd5b5061019c610576565b6040516101a99190611752565b60405180910390f35b3480156101bd575f5ffd5b506101d860048036038101906101d3919061176b565b61059a565b005b3480156101e5575f5ffd5b5061020060048036038101906101fb9190611843565b6105af565b005b34801561020d575f5ffd5b5061021661077c565b6040516102239190611752565b60405180910390f35b348015610237575f5ffd5b506102406107a0565b60405161024d91906118af565b60405180910390f35b348015610261575f5ffd5b5061027c6004803603810190610277919061167f565b6107a8565b60405161028991906118e2565b60405180910390f35b34801561029d575f5ffd5b506102b860048036038101906102b391906115c0565b6108d1565b6040516102c59190611752565b60405180910390f35b3480156102d9575f5ffd5b506102f460048036038101906102ef91906119fa565b610907565b005b348015610301575f5ffd5b5061031c6004803603810190610317919061167f565b6109d0565b005b348015610329575f5ffd5b50610344600480360381019061033f919061176b565b610b6e565b005b348015610351575f5ffd5b5061035a610b83565b6040516103679190611752565b60405180910390f35b34801561037b575f5ffd5b5061039660048036038101906103919190611af0565b610ba7565b6040516103a39190611bb0565b60405180910390f35b6103c660048036038101906103c19190611c04565b610cba565b005b3480156103d3575f5ffd5b506103ee60048036038101906103e991906115c0565b610cd9565b005b3480156103fb575f5ffd5b506104166004803603810190610411919061176b565b610cfa565b005b348015610423575f5ffd5b5061043e600480360381019061043991906115c0565b610d0f565b005b34801561044b575f5ffd5b5061046660048036038101906104619190611c7b565b610e54565b60405161047391906118e2565b60405180910390f35b348015610487575f5ffd5b50610490610e70565b60405161049d9190611752565b60405180910390f35b3480156104b1575f5ffd5b506104cc60048036038101906104c79190611af0565b610e94565b005b3480156104d9575f5ffd5b506104e2610eaf565b6040516104ef91906118af565b60405180910390f35b610500610eb4565b811115610539576040517f2782367700000000000000000000000000000000000000000000000000000000815260040160405180910390fd5b610547868686868686610ebb565b505050505050565b610560898989898989898989610f35565b61056b87878a61106c565b505050505050505050565b7f000000000000000000000000000000000000000000000000000000000000000081565b6105a88585858533866104f8565b5050505050565b5f5f90505f5f90505f8484905090505f5f90505b81811015610768578585828181106105de576105dd611ca6565b5b905060e002016020013592505f5f1b868683818110610600576105ff611ca6565b5b905060e0020160a00135146106e8576106e386868381811061062557610624611ca6565b5b905060e002015f01358489338a8a8781811061064457610643611ca6565b5b905060e00201604001602081019061065c9190611cd3565b8b8b8881811061066f5761066e611ca6565b5b905060e00201606001358c8c8981811061068c5761068b611ca6565b5b905060e0020160800160208101906106a49190611cfe565b8d8d8a8181106106b7576106b6611ca6565b5b905060e0020160a001358e8e8b8181106106d4576106d3611ca6565b5b905060e0020160c00135610f35565b610758565b6107578686838181106106fe576106fd611ca6565b5b905060e002015f01358489338a8a8781811061071d5761071c611ca6565b5b905060e0020160400160208101906107359190611cd3565b8b8b8881811061074857610747611ca6565b5b905060e002016060013561119c565b5b82840193508060010190506105c3565b505061077585338461106c565b5050505050565b7fb13bddd37ac9193ef6fd7865d7fcfd2255978b29aaf7317aac327fcb9c53951b81565b5f6006905090565b5f5f60017f00000000000000000000000000000000000000000000000000000000000000007fb13bddd37ac9193ef6fd7865d7fcfd2255978b29aaf7317aac327fcb9c53951b8d8d8d8d8d8d60405160200161080a9796959493929190611d38565b60405160208183030381529060405280519060200120604051602001610831929190611e19565b604051602081830303815290604052805190602001208686866040515f81526020016040526040516108669493929190611e4f565b6020604051602081039080840390855afa158015610886573d5f5f3e3d5ffd5b5050506020604051035190508673ffffffffffffffffffffffffffffffffffffffff168173ffffffffffffffffffffffffffffffffffffffff16149150509998505050505050505050565b5f6040518781528660208201528560408201528460608201528360808201528260a082015260c081209150509695505050505050565b5f5f90505f5f90505f8a8a905090505f5f90505b818110156109b65789898281811061093657610935611ca6565b5b9050602002013592506109a68c8c8381811061095557610954611ca6565b5b90506020020135848f338c8c8781811061097257610971611ca6565b5b90506020020160208101906109879190611cd3565b8b8b8881811061099a57610999611ca6565b5b9050602002013561119c565b828401935080600101905061091b565b50506109c38b338461106c565b5050505050505050505050565b5f60017f00000000000000000000000000000000000000000000000000000000000000007ff06c1ed74d5a145979b4b0602a00298e700feb0c04a27a49be9b6f0e7a4349dd8c8c8c8c8b604051602001610a2f96959493929190611e92565b60405160208183030381529060405280519060200120604051602001610a56929190611e19565b604051602081830303815290604052805190602001208585856040515f8152602001604052604051610a8b9493929190611e4f565b6020604051602081039080840390855afa158015610aab573d5f5f3e3d5ffd5b5050506020604051035190505f73ffffffffffffffffffffffffffffffffffffffff168173ffffffffffffffffffffffffffffffffffffffff1614158015610b1e57508673ffffffffffffffffffffffffffffffffffffffff168173ffffffffffffffffffffffffffffffffffffffff16145b610b54576040517f8baa579f00000000000000000000000000000000000000000000000000000000815260040160405180910390fd5b610b628a8a8a8a8a8a610ebb565b50505050505050505050565b610b7c858585853386610d0f565b5050505050565b7ff06c1ed74d5a145979b4b0602a00298e700feb0c04a27a49be9b6f0e7a4349dd81565b5f5f60017f00000000000000000000000000000000000000000000000000000000000000007f88d2eb81eeaf48c24a8e0c241c49b9f515812cf57db155ee3bba213131a67cf18c8c8c8c8c33604051602001610c099796959493929190611ef1565b60405160208183030381529060405280519060200120604051602001610c30929190611e19565b604051602081830303815290604052805190602001208686866040515f8152602001604052604051610c659493929190611e4f565b6020604051602081039080840390855afa158015610c85573d5f5f3e3d5ffd5b505050602060405103519050610c9f8a8a8a848b8b61119c565b610caa88338b61106c565b8091505098975050505050505050565b610cc8858585853386610d0f565b610cd282346112c2565b5050505050565b610ce786868686868661119c565b610cf284848761106c565b505050505050565b610d08858585338686610cd9565b5050505050565b5f8511610d48576040517f1f2a200500000000000000000000000000000000000000000000000000000000815260040160405180910390fd5b5f610d578787878787876108d1565b90505f5f8281526020019081526020015f205f9054906101000a900460ff1615610dad576040517f734530ce00000000000000000000000000000000000000000000000000000000815260040160405180910390fd5b60015f5f8381526020019081526020015f205f6101000a81548160ff0219169083151502179055508273ffffffffffffffffffffffffffffffffffffffff168473ffffffffffffffffffffffffffffffffffffffff16887fa98eaa2bd8230d87a1a4c356f5c1d41cb85ff88131122ec8b1931cb9d31ae145898987604051610e3793929190611f5e565b60405180910390a4610e4b8533308961136f565b50505050505050565b5f602052805f5260405f205f915054906101000a900460ff1681565b7f88d2eb81eeaf48c24a8e0c241c49b9f515812cf57db155ee3bba213131a67cf181565b610ea58888888833898989896109d0565b5050505050505050565b600681565b5f42905090565b5f610eca8787878787876108d1565b9050610ed5816114a2565b5f5f8281526020019081526020015f205f6101000a81549060ff0219169055867f3fbd469ec3a5ce074f975f76ce27e727ba21c99176917b97ae2e713695582a1260405160405180910390a2610f2c85848861106c565b50505050505050565b5f610f465f5f1b8a8a8a8a8a6108d1565b9050610f51816114a2565b5f60028b604051602001610f659190611f93565b604051602081830303815290604052604051610f819190611fff565b602060405180830381855afa158015610f9c573d5f5f3e3d5ffd5b5050506040513d601f19601f82011682018060405250810190610fbf9190612029565b9050610fd2818b8b8b8b8b8b8b8b6107a8565b611008576040517f8baa579f00000000000000000000000000000000000000000000000000000000815260040160405180910390fd5b5f5f8381526020019081526020015f205f6101000a81549060ff0219169055807f5664142af3dcfc3dc3de45a43f75c746bd1d8c11170a5037fdf98bdb357751378c6040516110579190611752565b60405180910390a25050505050505050505050565b5f5f8473ffffffffffffffffffffffffffffffffffffffff1663a9059cbb858560405160240161109d929190612054565b6040516020818303038152906040529060e01b6020820180517bffffffffffffffffffffffffffffffffffffffffffffffffffffffff83818316178352505050506040516110eb9190611fff565b5f604051808303815f865af19150503d805f8114611124576040519150601f19603f3d011682016040523d82523d5f602084013e611129565b606091505b509150915081801561115657505f8151148061115557508080602001905181019061115491906120a5565b5b5b611195576040517f08c379a000000000000000000000000000000000000000000000000000000000815260040161118c90612150565b60405180910390fd5b5050505050565b5f6002876040516020016111b09190611f93565b6040516020818303038152906040526040516111cc9190611fff565b602060405180830381855afa1580156111e7573d5f5f3e3d5ffd5b5050506040513d601f19601f8201168201806040525081019061120a9190612029565b90505f5f1b8103611247576040517f8b8dc8b000000000000000000000000000000000000000000000000000000000815260040160405180910390fd5b5f6112568288888888886108d1565b9050611261816114a2565b5f5f8281526020019081526020015f205f6101000a81549060ff0219169055817f5664142af3dcfc3dc3de45a43f75c746bd1d8c11170a5037fdf98bdb35775137896040516112b09190611752565b60405180910390a25050505050505050565b5f8273ffffffffffffffffffffffffffffffffffffffff16826040516112e790612191565b5f6040518083038185875af1925050503d805f8114611321576040519150601f19603f3d011682016040523d82523d5f602084013e611326565b606091505b505090508061136a576040517f08c379a000000000000000000000000000000000000000000000000000000000815260040161136190612215565b60405180910390fd5b505050565b5f5f8573ffffffffffffffffffffffffffffffffffffffff166323b872dd8686866040516024016113a293929190612233565b6040516020818303038152906040529060e01b6020820180517bffffffffffffffffffffffffffffffffffffffffffffffffffffffff83818316178352505050506040516113f09190611fff565b5f604051808303815f865af19150503d805f8114611429576040519150601f19603f3d011682016040523d82523d5f602084013e61142e565b606091505b509150915081801561145b57505f8151148061145a57508080602001905181019061145991906120a5565b5b5b61149a576040517f08c379a0000000000000000000000000000000000000000000000000000000008152600401611491906122d8565b60405180910390fd5b505050505050565b5f5f8281526020019081526020015f205f9054906101000a900460ff166114f5576040517f5ec69df000000000000000000000000000000000000000000000000000000000815260040160405180910390fd5b50565b5f5ffd5b5f5ffd5b5f819050919050565b61151281611500565b811461151c575f5ffd5b50565b5f8135905061152d81611509565b92915050565b5f819050919050565b61154581611533565b811461154f575f5ffd5b50565b5f813590506115608161153c565b92915050565b5f73ffffffffffffffffffffffffffffffffffffffff82169050919050565b5f61158f82611566565b9050919050565b61159f81611585565b81146115a9575f5ffd5b50565b5f813590506115ba81611596565b92915050565b5f5f5f5f5f5f60c087890312156115da576115d96114f8565b5b5f6115e789828a0161151f565b96505060206115f889828a01611552565b955050604061160989828a016115ac565b945050606061161a89828a016115ac565b935050608061162b89828a016115ac565b92505060a061163c89828a01611552565b9150509295509295509295565b5f60ff82169050919050565b61165e81611649565b8114611668575f5ffd5b50565b5f8135905061167981611655565b92915050565b5f5f5f5f5f5f5f5f5f6101208a8c03121561169d5761169c6114f8565b5b5f6116aa8c828d0161151f565b99505060206116bb8c828d01611552565b98505060406116cc8c828d016115ac565b97505060606116dd8c828d016115ac565b96505060806116ee8c828d016115ac565b95505060a06116ff8c828d01611552565b94505060c06117108c828d0161166b565b93505060e06117218c828d0161151f565b9250506101006117338c828d0161151f565b9150509295985092959850929598565b61174c81611500565b82525050565b5f6020820190506117655f830184611743565b92915050565b5f5f5f5f5f60a08688031215611784576117836114f8565b5b5f6117918882890161151f565b95505060206117a288828901611552565b94505060406117b3888289016115ac565b93505060606117c4888289016115ac565b92505060806117d588828901611552565b9150509295509295909350565b5f5ffd5b5f5ffd5b5f5ffd5b5f5f83601f840112611803576118026117e2565b5b8235905067ffffffffffffffff8111156118205761181f6117e6565b5b6020830191508360e082028301111561183c5761183b6117ea565b5b9250929050565b5f5f5f6040848603121561185a576118596114f8565b5b5f611867868287016115ac565b935050602084013567ffffffffffffffff811115611888576118876114fc565b5b611894868287016117ee565b92509250509250925092565b6118a981611649565b82525050565b5f6020820190506118c25f8301846118a0565b92915050565b5f8115159050919050565b6118dc816118c8565b82525050565b5f6020820190506118f55f8301846118d3565b92915050565b5f5f83601f8401126119105761190f6117e2565b5b8235905067ffffffffffffffff81111561192d5761192c6117e6565b5b602083019150836020820283011115611949576119486117ea565b5b9250929050565b5f5f83601f840112611965576119646117e2565b5b8235905067ffffffffffffffff811115611982576119816117e6565b5b60208301915083602082028301111561199e5761199d6117ea565b5b9250929050565b5f5f83601f8401126119ba576119b96117e2565b5b8235905067ffffffffffffffff8111156119d7576119d66117e6565b5b6020830191508360208202830111156119f3576119f26117ea565b5b9250929050565b5f5f5f5f5f5f5f5f5f60a08a8c031215611a1757611a166114f8565b5b5f611a248c828d016115ac565b99505060208a013567ffffffffffffffff811115611a4557611a446114fc565b5b611a518c828d016118fb565b985098505060408a013567ffffffffffffffff811115611a7457611a736114fc565b5b611a808c828d01611950565b965096505060608a013567ffffffffffffffff811115611aa357611aa26114fc565b5b611aaf8c828d016119a5565b945094505060808a013567ffffffffffffffff811115611ad257611ad16114fc565b5b611ade8c828d01611950565b92509250509295985092959850929598565b5f5f5f5f5f5f5f5f610100898b031215611b0d57611b0c6114f8565b5b5f611b1a8b828c0161151f565b9850506020611b2b8b828c01611552565b9750506040611b3c8b828c016115ac565b9650506060611b4d8b828c016115ac565b9550506080611b5e8b828c01611552565b94505060a0611b6f8b828c0161166b565b93505060c0611b808b828c0161151f565b92505060e0611b918b828c0161151f565b9150509295985092959890939650565b611baa81611585565b82525050565b5f602082019050611bc35f830184611ba1565b92915050565b5f611bd382611566565b9050919050565b611be381611bc9565b8114611bed575f5ffd5b50565b5f81359050611bfe81611bda565b92915050565b5f5f5f5f5f60a08688031215611c1d57611c1c6114f8565b5b5f611c2a8882890161151f565b9550506020611c3b88828901611552565b9450506040611c4c888289016115ac565b9350506060611c5d88828901611bf0565b9250506080611c6e88828901611552565b9150509295509295909350565b5f60208284031215611c9057611c8f6114f8565b5b5f611c9d8482850161151f565b91505092915050565b7f4e487b71000000000000000000000000000000000000000000000000000000005f52603260045260245ffd5b5f60208284031215611ce857611ce76114f8565b5b5f611cf5848285016115ac565b91505092915050565b5f60208284031215611d1357611d126114f8565b5b5f611d208482850161166b565b91505092915050565b611d3281611533565b82525050565b5f60e082019050611d4b5f83018a611743565b611d586020830189611743565b611d656040830188611d29565b611d726060830187611ba1565b611d7f6080830186611ba1565b611d8c60a0830185611ba1565b611d9960c0830184611d29565b98975050505050505050565b5f81905092915050565b7f19010000000000000000000000000000000000000000000000000000000000005f82015250565b5f611de3600283611da5565b9150611dee82611daf565b600282019050919050565b5f819050919050565b611e13611e0e82611500565b611df9565b82525050565b5f611e2382611dd7565b9150611e2f8285611e02565b602082019150611e3f8284611e02565b6020820191508190509392505050565b5f608082019050611e625f830187611743565b611e6f60208301866118a0565b611e7c6040830185611743565b611e896060830184611743565b95945050505050565b5f60c082019050611ea55f830189611743565b611eb26020830188611743565b611ebf6040830187611d29565b611ecc6060830186611ba1565b611ed96080830185611ba1565b611ee660a0830184611d29565b979650505050505050565b5f60e082019050611f045f83018a611743565b611f116020830189611743565b611f1e6040830188611d29565b611f2b6060830187611ba1565b611f386080830186611ba1565b611f4560a0830185611d29565b611f5260c0830184611ba1565b98975050505050505050565b5f606082019050611f715f830186611d29565b611f7e6020830185611ba1565b611f8b6040830184611d29565b949350505050565b5f611f9e8284611e02565b60208201915081905092915050565b5f81519050919050565b5f81905092915050565b8281835e5f83830152505050565b5f611fd982611fad565b611fe38185611fb7565b9350611ff3818560208601611fc1565b80840191505092915050565b5f61200a8284611fcf565b915081905092915050565b5f8151905061202381611509565b92915050565b5f6020828403121561203e5761203d6114f8565b5b5f61204b84828501612015565b91505092915050565b5f6040820190506120675f830185611ba1565b6120746020830184611d29565b9392505050565b612084816118c8565b811461208e575f5ffd5b50565b5f8151905061209f8161207b565b92915050565b5f602082840312156120ba576120b96114f8565b5b5f6120c784828501612091565b91505092915050565b5f82825260208201905092915050565b7f5472616e7366657248656c7065723a20636f756c64206e6f74207472616e73665f8201527f657220455243323020746f6b656e730000000000000000000000000000000000602082015250565b5f61213a602f836120d0565b9150612145826120e0565b604082019050919050565b5f6020820190508181035f8301526121678161212e565b9050919050565b50565b5f61217c5f83611fb7565b91506121878261216e565b5f82019050919050565b5f61219b82612171565b9150819050919050565b7f5472616e7366657248656c7065723a20636f756c64206e6f74207472616e73665f8201527f6572204574686572000000000000000000000000000000000000000000000000602082015250565b5f6121ff6028836120d0565b915061220a826121a5565b604082019050919050565b5f6020820190508181035f83015261222c816121f3565b9050919050565b5f6060820190506122465f830186611ba1565b6122536020830185611ba1565b6122606040830184611d29565b949350505050565b7f5472616e7366657248656c7065723a20636f756c64206e6f74207472616e73665f8201527f657246726f6d20455243323020746f6b656e7300000000000000000000000000602082015250565b5f6122c26033836120d0565b91506122cd82612268565b604082019050919050565b5f6020820190508181035f8301526122ef816122b6565b905091905056fea26469706673582212207b5d3902431c728b0b974ea00708fb05379e56a17b4f985790fd43f0cd0cd06264736f6c63430008210033","linkReferences":{}},"methodIdentifiers":{"DOMAIN_SEPARATOR()":"3644e515","TYPEHASH_CLAIM()":"ebb7af92","TYPEHASH_COMMIT()":"5073c277","TYPEHASH_REFUND()":"a9ab4d5b","VERSION()":"ffa1ad74","checkCommitmentSignature(bytes32,uint256,address,address,address,uint256,uint8,bytes32,bytes32)":"627b8bb7","claim(bytes32,uint256,address,address,address,uint256)":"bc586b28","claim(bytes32,uint256,address,address,address,uint256,uint8,bytes32,bytes32)":"107e1bb3","claim(bytes32,uint256,address,address,uint256)":"cd413efa","claim(bytes32,uint256,address,address,uint256,uint8,bytes32,bytes32)":"b2b78df8","claimBatch(address,(bytes32,uint256,address,uint256,uint8,bytes32,bytes32)[])":"41bc6370","claimBatch(address,bytes32[],uint256[],address[],uint256[])":"8579dc5f","hashValues(bytes32,uint256,address,address,address,uint256)":"7beb9d6d","lock(bytes32,uint256,address,address,address,uint256)":"e64fafcc","lock(bytes32,uint256,address,address,uint256)":"91644b2b","lockPrepayMinerfee(bytes32,uint256,address,address,uint256)":"b8080ab8","refund(bytes32,uint256,address,address,address,uint256)":"0e5bbd59","refund(bytes32,uint256,address,address,uint256)":"36504721","refundCooperative(bytes32,uint256,address,address,address,uint256,uint8,bytes32,bytes32)":"8b4f3c23","refundCooperative(bytes32,uint256,address,address,uint256,uint8,bytes32,bytes32)":"fb35dd96","swaps(bytes32)":"eb84e7f2","version()":"54fd4d50"},"id":2}