{"abi":[{"type":"function","name":"DOMAIN_SEPARATOR","inputs":[],"outputs":[{"name":"","type":"bytes32","internalType":"bytes32"}],"stateMutability":"view"},{"type":"function","name":"TYPEHASH_CLAIM","inputs":[],"outputs":[{"name":"","type":"bytes32","internalType":"bytes32"}],"stateMutability":"view"},{"type":"function","name":"TYPEHASH_COMMIT","inputs":[],"outputs":[{"name":"","type":"bytes32","internalType":"bytes32"}],"stateMutability":"view"},{"type":"function","name":"TYPEHASH_REFUND","inputs":[],"outputs":[{"name":"","type":"bytes32","internalType":"bytes32"}],"stateMutability":"view"},{"type":"function","name":"VERSION","inputs":[],"outputs":[{"name":"","type":"uint8","internalType":"uint8"}],"stateMutability":"view"},{"type":"function","name":"checkCommitmentSignature","inputs":[{"name":"preimageHash","type":"bytes32","internalType":"bytes32"},{"name":"amount","type":"uint256","internalType":"uint256"},{"name":"tokenAddress","type":"address","internalType":"address"},{"name":"claimAddress","type":"address","internalType":"address"},{"name":"refundAddress","type":"address","internalType":"address"},{"name":"timelock","type":"uint256","internalType":"uint256"},{"name":"v","type":"uint8","internalType":"uint8"},{"name":"r","type":"bytes32","internalType":"bytes32"},{"name":"s","type":"bytes32","internalType":"bytes32"}],"outputs":[{"name":"","type":"bool","internalType":"bool"}],"stateMutability":"view"},{"type":"function","name":"claim","inputs":[{"name":"preimage","type":"bytes32","internalType":"bytes32"},{"name":"amount","type":"uint256","internalType":"uint256"},{"name":"tokenAddress","type":"address","internalType":"address"},{"name":"claimAddress","type":"address","internalType":"address"},{"name":"refundAddress","type":"address","internalType":"address"},{"name":"timelock","type":"uint256","internalType":"uint256"},{"name":"v","type":"uint8","internalType":"uint8"},{"name":"r","type":"bytes32","internalType":"bytes32"},{"name":"s","type":"bytes32","internalType":"bytes32"}],"outputs":[],"stateMutability":"nonpayable"},{"type":"function","name":"claim","inputs":[{"name":"preimage","type":"bytes32","internalType":"bytes32"},{"name":"amount","type":"uint256","internalType":"uint256"},{"name":"tokenAddress","type":"address","internalType":"address"},{"name":"refundAddress","type":"address","internalType":"address"},{"name":"timelock","type":"uint256","internalType":"uint256"},{"name":"v","type":"uint8","internalType":"uint8"},{"name":"r","type":"bytes32","internalType":"bytes32"},{"name":"s","type":"bytes32","internalType":"bytes32"}],"outputs":[{"name":"","type":"address","internalType":"address"}],"stateMutability":"nonpayable"},{"type":"function","name":"claim","inputs":[{"name":"preimage","type":"bytes32","internalType":"bytes32"},{"name":"amount","type":"uint256","internalType":"uint256"},{"name":"tokenAddress","type":"address","internalType":"address"},{"name":"claimAddress","type":"address","internalType":"address"},{"name":"refundAddress","type":"address","internalType":"address"},{"name":"timelock","type":"uint256","internalType":"uint256"}],"outputs":[],"stateMutability":"nonpayable"},{"type":"function","name":"claim","inputs":[{"name":"preimage","type":"bytes32","internalType":"bytes32"},{"name":"amount","type":"uint256","internalType":"uint256"},{"name":"tokenAddress","type":"address","internalType":"address"},{"name":"refundAddress","type":"address","internalType":"address"},{"name":"timelock","type":"uint256","internalType":"uint256"}],"outputs":[],"stateMutability":"nonpayable"},{"type":"function","name":"claimBatch","inputs":[{"name":"tokenAddress","type":"address","internalType":"address"},{"name":"entries","type":"tuple[]","internalType":"struct ERC20Swap.BatchClaimEntry[]","components":[{"name":"preimage","type":"bytes32","internalType":"bytes32"},{"name":"amount","type":"uint256","internalType":"uint256"},{"name":"refundAddress","type":"address","internalType":"address"},{"name":"timelock","type":"uint256","internalType":"uint256"},{"name":"v","type":"uint8","internalType":"uint8"},{"name":"r","type":"bytes32","internalType":"bytes32"},{"name":"s","type":"bytes32","internalType":"bytes32"}]}],"outputs":[],"stateMutability":"nonpayable"},{"type":"function","name":"claimBatch","inputs":[{"name":"tokenAddress","type":"address","internalType":"address"},{"name":"preimages","type":"bytes32[]","internalType":"bytes32[]"},{"name":"amounts","type":"uint256[]","internalType":"uint256[]"},{"name":"refundAddresses","type":"address[]","internalType":"address[]"},{"name":"timelocks","type":"uint256[]","internalType":"uint256[]"}],"outputs":[],"stateMutability":"nonpayable"},{"type":"function","name":"hashValues","inputs":[{"name":"preimageHash","type":"bytes32","internalType":"bytes32"},{"name":"amount","type":"uint256","internalType":"uint256"},{"name":"tokenAddress","type":"address","internalType":"address"},{"name":"claimAddress","type":"address","internalType":"address"},{"name":"refundAddress","type":"address","internalType":"address"},{"name":"timelock","type":"uint256","internalType":"uint256"}],"outputs":[{"name":"result","type":"bytes32","internalType":"bytes32"}],"stateMutability":"pure"},{"type":"function","name":"lock","inputs":[{"name":"preimageHash","type":"bytes32","internalType":"bytes32"},{"name":"amount","type":"uint256","internalType":"uint256"},{"name":"tokenAddress","type":"address","internalType":"address"},{"name":"claimAddress","type":"address","internalType":"address"},{"name":"timelock","type":"uint256","internalType":"uint256"}],"outputs":[],"stateMutability":"nonpayable"},{"type":"function","name":"lock","inputs":[{"name":"preimageHash","type":"bytes32","internalType":"bytes32"},{"name":"amount","type":"uint256","internalType":"uint256"},{"name":"tokenAddress","type":"address","internalType":"address"},{"name":"claimAddress","type":"address","internalType":"address"},{"name":"refundAddress","type":"address","internalType":"address"},{"name":"timelock","type":"uint256","internalType":"uint256"}],"outputs":[],"stateMutability":"nonpayable"},{"type":"function","name":"lockPrepayMinerfee","inputs":[{"name":"preimageHash","type":"bytes32","internalType":"bytes32"},{"name":"amount","type":"uint256","internalType":"uint256"},{"name":"tokenAddress","type":"address","internalType":"address"},{"name":"claimAddress","type":"address","internalType":"address payable"},{"name":"timelock","type":"uint256","internalType":"uint256"}],"outputs":[],"stateMutability":"payable"},{"type":"function","name":"refund","inputs":[{"name":"preimageHash","type":"bytes32","internalType":"bytes32"},{"name":"amount","type":"uint256","internalType":"uint256"},{"name":"tokenAddress","type":"address","internalType":"address"},{"name":"claimAddress","type":"address","internalType":"address"},{"name":"refundAddress","type":"address","internalType":"address"},{"name":"timelock","type":"uint256","internalType":"uint256"}],"outputs":[],"stateMutability":"nonpayable"},{"type":"function","name":"refund","inputs":[{"name":"preimageHash","type":"bytes32","internalType":"bytes32"},{"name":"amount","type":"uint256","internalType":"uint256"},{"name":"tokenAddress","type":"address","internalType":"address"},{"name":"claimAddress","type":"address","internalType":"address"},{"name":"timelock","type":"uint256","internalType":"uint256"}],"outputs":[],"stateMutability":"nonpayable"},{"type":"function","name":"refundCooperative","inputs":[{"name":"preimageHash","type":"bytes32","internalType":"bytes32"},{"name":"amount","type":"uint256","internalType":"uint256"},{"name":"tokenAddress","type":"address","internalType":"address"},{"name":"claimAddress","type":"address","internalType":"address"},{"name":"refundAddress","type":"address","internalType":"address"},{"name":"timelock","type":"uint256","internalType":"uint256"},{"name":"v","type":"uint8","internalType":"uint8"},{"name":"r","type":"bytes32","internalType":"bytes32"},{"name":"s","type":"bytes32","internalType":"bytes32"}],"outputs":[],"stateMutability":"nonpayable"},{"type":"function","name":"refundCooperative","inputs":[{"name":"preimageHash","type":"bytes32","internalType":"bytes32"},{"name":"amount","type":"uint256","internalType":"uint256"},{"name":"tokenAddress","type":"address","internalType":"address"},{"name":"claimAddress","type":"address","internalType":"address"},{"name":"timelock","type":"uint256","internalType":"uint256"},{"name":"v","type":"uint8","internalType":"uint8"},{"name":"r","type":"bytes32","internalType":"bytes32"},{"name":"s","type":"bytes32","internalType":"bytes32"}],"outputs":[],"stateMutability":"nonpayable"},{"type":"function","name":"swaps","inputs":[{"name":"","type":"bytes32","internalType":"bytes32"}],"outputs":[{"name":"","type":"bool","internalType":"bool"}],"stateMutability":"view"},{"type":"function","name":"version","inputs":[],"outputs":[{"name":"","type":"uint8","internalType":"uint8"}],"stateMutability":"pure"},{"type":"event","name":"Claim","inputs":[{"name":"preimageHash","type":"bytes32","indexed":true,"internalType":"bytes32"},{"name":"preimage","type":"bytes32","indexed":false,"internalType":"bytes32"}],"anonymous":false},{"type":"event","name":"Lockup","inputs":[{"name":"preimageHash","type":"bytes32","indexed":true,"internalType":"bytes32"},{"name":"amount","type":"uint256","indexed":false,"internalType":"uint256"},{"name":"tokenAddress","type":"address","indexed":false,"internalType":"address"},{"name":"claimAddress","type":"address","indexed":true,"internalType":"address"},{"name":"refundAddress","type":"address","indexed":true,"internalType":"address"},{"name":"timelock","type":"uint256","indexed":false,"internalType":"uint256"}],"anonymous":false},{"type":"event","name":"Refund","inputs":[{"name":"preimageHash","type":"bytes32","indexed":true,"internalType":"bytes32"}],"anonymous":false}],"bytecode":{"object":"0x60a06040527f8b73c3c69bb8fe3d512ecc4cf759cc79239f7b179b0ffacaa9a75d522b39400f7f53904d715aff4cbf81a576b4cc3901f2c5f3e7c245cad96f11bec6c197b05ea27fe455bf8ea6e7463a1046a0b52804526e119b4bf5136279614e0b1e8e296a4e2d463060405160200161007d95949392919061011e565b604051602081830303815290604052805190602001206080908152503480156100a557600080fd5b50610171565b6000819050919050565b6100be816100ab565b82525050565b6000819050919050565b6100d7816100c4565b82525050565b600073ffffffffffffffffffffffffffffffffffffffff82169050919050565b6000610108826100dd565b9050919050565b610118816100fd565b82525050565b600060a08201905061013360008301886100b5565b61014060208301876100b5565b61014d60408301866100b5565b61015a60608301856100ce565b610167608083018461010f565b9695505050505050565b60805161276a6101a160003960008181610598015281816107c9015281816109eb0152610bd1015261276a6000f3fe6080604052600436106101355760003560e01c806391644b2b116100ab578063cd413efa1161006f578063cd413efa14610401578063e64fafcc1461042a578063eb84e7f214610453578063ebb7af9214610490578063fb35dd96146104bb578063ffa1ad74146104e457610135565b806391644b2b1461032b578063a9ab4d5b14610354578063b2b78df81461037f578063b8080ab8146103bc578063bc586b28146103d857610135565b80635073c277116100fd5780635073c2771461020957806354fd4d5014610234578063627b8bb71461025f5780637beb9d6d1461029c5780638579dc5f146102d95780638b4f3c231461030257610135565b80630e5bbd591461013a578063107e1bb3146101635780633644e5151461018c57806336504721146101b757806341bc6370146101e0575b600080fd5b34801561014657600080fd5b50610161600480360381019061015c9190611654565b61050f565b005b34801561016f57600080fd5b5061018a6004803603810190610185919061171a565b61056f565b005b34801561019857600080fd5b506101a1610596565b6040516101ae91906117f3565b60405180910390f35b3480156101c357600080fd5b506101de60048036038101906101d9919061180e565b6105ba565b005b3480156101ec57600080fd5b50610207600480360381019061020291906118ee565b6105cf565b005b34801561021557600080fd5b5061021e610795565b60405161022b91906117f3565b60405180910390f35b34801561024057600080fd5b506102496107b9565b604051610256919061195d565b60405180910390f35b34801561026b57600080fd5b506102866004803603810190610281919061171a565b6107c2565b6040516102939190611993565b60405180910390f35b3480156102a857600080fd5b506102c360048036038101906102be9190611654565b6108ef565b6040516102d091906117f3565b60405180910390f35b3480156102e557600080fd5b5061030060048036038101906102fb9190611ab0565b610926565b005b34801561030e57600080fd5b506103296004803603810190610324919061171a565b6109e5565b005b34801561033757600080fd5b50610352600480360381019061034d919061180e565b610b91565b005b34801561036057600080fd5b50610369610ba6565b60405161037691906117f3565b60405180910390f35b34801561038b57600080fd5b506103a660048036038101906103a19190611bac565b610bca565b6040516103b39190611c71565b60405180910390f35b6103d660048036038101906103d19190611cca565b610ce1565b005b3480156103e457600080fd5b506103ff60048036038101906103fa9190611654565b610d00565b005b34801561040d57600080fd5b506104286004803603810190610423919061180e565b610d21565b005b34801561043657600080fd5b50610451600480360381019061044c9190611654565b610d36565b005b34801561045f57600080fd5b5061047a60048036038101906104759190611d45565b610e95565b6040516104879190611993565b60405180910390f35b34801561049c57600080fd5b506104a5610eb5565b6040516104b291906117f3565b60405180910390f35b3480156104c757600080fd5b506104e260048036038101906104dd9190611bac565b610ed9565b005b3480156104f057600080fd5b506104f9610ef4565b604051610506919061195d565b60405180910390f35b610517610ef9565b811115610559576040517f08c379a000000000000000000000000000000000000000000000000000000000815260040161055090611df5565b60405180910390fd5b610567868686868686610f01565b505050505050565b610580898989898989898989610f7f565b61058b87878a6110c7565b505050505050505050565b7f000000000000000000000000000000000000000000000000000000000000000081565b6105c885858585338661050f565b5050505050565b60008060005b84849050811015610782578484828181106105f3576105f2611e15565b5b905060e002016020013591506000801b85858381811061061657610615611e15565b5b905060e0020160a00135146106ff576106fa85858381811061063b5761063a611e15565b5b905060e002016000013583883389898781811061065b5761065a611e15565b5b905060e0020160400160208101906106739190611e44565b8a8a8881811061068657610685611e15565b5b905060e00201606001358b8b898181106106a3576106a2611e15565b5b905060e0020160800160208101906106bb9190611e71565b8c8c8a8181106106ce576106cd611e15565b5b905060e0020160a001358d8d8b8181106106eb576106ea611e15565b5b905060e0020160c00135610f7f565b610770565b61076f85858381811061071557610714611e15565b5b905060e002016000013583883389898781811061073557610734611e15565b5b905060e00201604001602081019061074d9190611e44565b8a8a888181106107605761075f611e15565b5b905060e00201606001356111fd565b5b818301925080806001019150506105d5565b5061078e8533846110c7565b5050505050565b7fb13bddd37ac9193ef6fd7865d7fcfd2255978b29aaf7317aac327fcb9c53951b81565b60006006905090565b60008060017f00000000000000000000000000000000000000000000000000000000000000007fb13bddd37ac9193ef6fd7865d7fcfd2255978b29aaf7317aac327fcb9c53951b8d8d8d8d8d8d6040516020016108259796959493929190611ead565b6040516020818303038152906040528051906020012060405160200161084c929190611f94565b60405160208183030381529060405280519060200120868686604051600081526020016040526040516108829493929190611fcb565b6020604051602081039080840390855afa1580156108a4573d6000803e3d6000fd5b5050506020604051035190508673ffffffffffffffffffffffffffffffffffffffff168173ffffffffffffffffffffffffffffffffffffffff16149150509998505050505050505050565b60006040518781528660208201528560408201528460608201528360808201528260a082015260c081209150509695505050505050565b60008060005b8a8a90508110156109cc5788888281811061094a57610949611e15565b5b9050602002013591506109ba8b8b8381811061096957610968611e15565b5b90506020020135838e338b8b8781811061098657610985611e15565b5b905060200201602081019061099b9190611e44565b8a8a888181106109ae576109ad611e15565b5b905060200201356111fd565b8183019250808060010191505061092c565b506109d88b33846110c7565b5050505050505050505050565b600060017f00000000000000000000000000000000000000000000000000000000000000007ff06c1ed74d5a145979b4b0602a00298e700feb0c04a27a49be9b6f0e7a4349dd8c8c8c8c8b604051602001610a4596959493929190612010565b60405160208183030381529060405280519060200120604051602001610a6c929190611f94565b6040516020818303038152906040528051906020012085858560405160008152602001604052604051610aa29493929190611fcb565b6020604051602081039080840390855afa158015610ac4573d6000803e3d6000fd5b505050602060405103519050600073ffffffffffffffffffffffffffffffffffffffff168173ffffffffffffffffffffffffffffffffffffffff1614158015610b3857508673ffffffffffffffffffffffffffffffffffffffff168173ffffffffffffffffffffffffffffffffffffffff16145b610b77576040517f08c379a0000000000000000000000000000000000000000000000000000000008152600401610b6e906120bd565b60405180910390fd5b610b858a8a8a8a8a8a610f01565b50505050505050505050565b610b9f858585853386610d36565b5050505050565b7ff06c1ed74d5a145979b4b0602a00298e700feb0c04a27a49be9b6f0e7a4349dd81565b60008060017f00000000000000000000000000000000000000000000000000000000000000007f88d2eb81eeaf48c24a8e0c241c49b9f515812cf57db155ee3bba213131a67cf18c8c8c8c8c33604051602001610c2d97969594939291906120dd565b60405160208183030381529060405280519060200120604051602001610c54929190611f94565b6040516020818303038152906040528051906020012086868660405160008152602001604052604051610c8a9493929190611fcb565b6020604051602081039080840390855afa158015610cac573d6000803e3d6000fd5b505050602060405103519050610cc68a8a8a848b8b6111fd565b610cd188338b6110c7565b8091505098975050505050505050565b610cef858585853386610d36565b610cf98234611334565b5050505050565b610d0e8686868686866111fd565b610d198484876110c7565b505050505050565b610d2f858585338686610d00565b5050505050565b60008511610d79576040517f08c379a0000000000000000000000000000000000000000000000000000000008152600401610d70906121be565b60405180910390fd5b6000610d898787878787876108ef565b905060008082815260200190815260200160002060009054906101000a900460ff1615610deb576040517f08c379a0000000000000000000000000000000000000000000000000000000008152600401610de29061222a565b60405180910390fd5b600160008083815260200190815260200160002060006101000a81548160ff0219169083151502179055508273ffffffffffffffffffffffffffffffffffffffff168473ffffffffffffffffffffffffffffffffffffffff16887fa98eaa2bd8230d87a1a4c356f5c1d41cb85ff88131122ec8b1931cb9d31ae145898987604051610e789392919061224a565b60405180910390a4610e8c853330896113e5565b50505050505050565b60006020528060005260406000206000915054906101000a900460ff1681565b7f88d2eb81eeaf48c24a8e0c241c49b9f515812cf57db155ee3bba213131a67cf181565b610eea8888888833898989896109e5565b5050505050505050565b600681565b600042905090565b6000610f118787878787876108ef565b9050610f1c8161151e565b60008082815260200190815260200160002060006101000a81549060ff0219169055867f3fbd469ec3a5ce074f975f76ce27e727ba21c99176917b97ae2e713695582a1260405160405180910390a2610f768584886110c7565b50505050505050565b6000610f926000801b8a8a8a8a8a6108ef565b9050610f9d8161151e565b600060028b604051602001610fb29190612281565b604051602081830303815290604052604051610fce919061230d565b602060405180830381855afa158015610feb573d6000803e3d6000fd5b5050506040513d601f19601f8201168201806040525081019061100e9190612339565b9050611021818b8b8b8b8b8b8b8b6107c2565b611060576040517f08c379a0000000000000000000000000000000000000000000000000000000008152600401611057906120bd565b60405180910390fd5b60008083815260200190815260200160002060006101000a81549060ff0219169055807f5664142af3dcfc3dc3de45a43f75c746bd1d8c11170a5037fdf98bdb357751378c6040516110b291906117f3565b60405180910390a25050505050505050505050565b6000808473ffffffffffffffffffffffffffffffffffffffff1663a9059cbb85856040516024016110f9929190612366565b6040516020818303038152906040529060e01b6020820180517bffffffffffffffffffffffffffffffffffffffffffffffffffffffff8381831617835250505050604051611147919061230d565b6000604051808303816000865af19150503d8060008114611184576040519150601f19603f3d011682016040523d82523d6000602084013e611189565b606091505b50915091508180156111b757506000815114806111b65750808060200190518101906111b591906123bb565b5b5b6111f6576040517f08c379a00000000000000000000000000000000000000000000000000000000081526004016111ed9061245a565b60405180910390fd5b5050505050565b60006002876040516020016112129190612281565b60405160208183030381529060405260405161122e919061230d565b602060405180830381855afa15801561124b573d6000803e3d6000fd5b5050506040513d601f19601f8201168201806040525081019061126e9190612339565b90506000801b81036112b5576040517f08c379a00000000000000000000000000000000000000000000000000000000081526004016112ac906124ec565b60405180910390fd5b60006112c58288888888886108ef565b90506112d08161151e565b60008082815260200190815260200160002060006101000a81549060ff0219169055817f5664142af3dcfc3dc3de45a43f75c746bd1d8c11170a5037fdf98bdb357751378960405161132291906117f3565b60405180910390a25050505050505050565b60008273ffffffffffffffffffffffffffffffffffffffff168260405161135a90612532565b60006040518083038185875af1925050503d8060008114611397576040519150601f19603f3d011682016040523d82523d6000602084013e61139c565b606091505b50509050806113e0576040517f08c379a00000000000000000000000000000000000000000000000000000000081526004016113d7906125b9565b60405180910390fd5b505050565b6000808573ffffffffffffffffffffffffffffffffffffffff166323b872dd868686604051602401611419939291906125d9565b6040516020818303038152906040529060e01b6020820180517bffffffffffffffffffffffffffffffffffffffffffffffffffffffff8381831617835250505050604051611467919061230d565b6000604051808303816000865af19150503d80600081146114a4576040519150601f19603f3d011682016040523d82523d6000602084013e6114a9565b606091505b50915091508180156114d757506000815114806114d65750808060200190518101906114d591906123bb565b5b5b611516576040517f08c379a000000000000000000000000000000000000000000000000000000000815260040161150d90612682565b60405180910390fd5b505050505050565b60008082815260200190815260200160002060009054906101000a900460ff1661157d576040517f08c379a000000000000000000000000000000000000000000000000000000000815260040161157490612714565b60405180910390fd5b50565b600080fd5b600080fd5b6000819050919050565b61159d8161158a565b81146115a857600080fd5b50565b6000813590506115ba81611594565b92915050565b6000819050919050565b6115d3816115c0565b81146115de57600080fd5b50565b6000813590506115f0816115ca565b92915050565b600073ffffffffffffffffffffffffffffffffffffffff82169050919050565b6000611621826115f6565b9050919050565b61163181611616565b811461163c57600080fd5b50565b60008135905061164e81611628565b92915050565b60008060008060008060c0878903121561167157611670611580565b5b600061167f89828a016115ab565b965050602061169089828a016115e1565b95505060406116a189828a0161163f565b94505060606116b289828a0161163f565b93505060806116c389828a0161163f565b92505060a06116d489828a016115e1565b9150509295509295509295565b600060ff82169050919050565b6116f7816116e1565b811461170257600080fd5b50565b600081359050611714816116ee565b92915050565b60008060008060008060008060006101208a8c03121561173d5761173c611580565b5b600061174b8c828d016115ab565b995050602061175c8c828d016115e1565b985050604061176d8c828d0161163f565b975050606061177e8c828d0161163f565b965050608061178f8c828d0161163f565b95505060a06117a08c828d016115e1565b94505060c06117b18c828d01611705565b93505060e06117c28c828d016115ab565b9250506101006117d48c828d016115ab565b9150509295985092959850929598565b6117ed8161158a565b82525050565b600060208201905061180860008301846117e4565b92915050565b600080600080600060a0868803121561182a57611829611580565b5b6000611838888289016115ab565b9550506020611849888289016115e1565b945050604061185a8882890161163f565b935050606061186b8882890161163f565b925050608061187c888289016115e1565b9150509295509295909350565b600080fd5b600080fd5b600080fd5b60008083601f8401126118ae576118ad611889565b5b8235905067ffffffffffffffff8111156118cb576118ca61188e565b5b6020830191508360e08202830111156118e7576118e6611893565b5b9250929050565b60008060006040848603121561190757611906611580565b5b60006119158682870161163f565b935050602084013567ffffffffffffffff81111561193657611935611585565b5b61194286828701611898565b92509250509250925092565b611957816116e1565b82525050565b6000602082019050611972600083018461194e565b92915050565b60008115159050919050565b61198d81611978565b82525050565b60006020820190506119a86000830184611984565b92915050565b60008083601f8401126119c4576119c3611889565b5b8235905067ffffffffffffffff8111156119e1576119e061188e565b5b6020830191508360208202830111156119fd576119fc611893565b5b9250929050565b60008083601f840112611a1a57611a19611889565b5b8235905067ffffffffffffffff811115611a3757611a3661188e565b5b602083019150836020820283011115611a5357611a52611893565b5b9250929050565b60008083601f840112611a7057611a6f611889565b5b8235905067ffffffffffffffff811115611a8d57611a8c61188e565b5b602083019150836020820283011115611aa957611aa8611893565b5b9250929050565b600080600080600080600080600060a08a8c031215611ad257611ad1611580565b5b6000611ae08c828d0161163f565b99505060208a013567ffffffffffffffff811115611b0157611b00611585565b5b611b0d8c828d016119ae565b985098505060408a013567ffffffffffffffff811115611b3057611b2f611585565b5b611b3c8c828d01611a04565b965096505060608a013567ffffffffffffffff811115611b5f57611b5e611585565b5b611b6b8c828d01611a5a565b945094505060808a013567ffffffffffffffff811115611b8e57611b8d611585565b5b611b9a8c828d01611a04565b92509250509295985092959850929598565b600080600080600080600080610100898b031215611bcd57611bcc611580565b5b6000611bdb8b828c016115ab565b9850506020611bec8b828c016115e1565b9750506040611bfd8b828c0161163f565b9650506060611c0e8b828c0161163f565b9550506080611c1f8b828c016115e1565b94505060a0611c308b828c01611705565b93505060c0611c418b828c016115ab565b92505060e0611c528b828c016115ab565b9150509295985092959890939650565b611c6b81611616565b82525050565b6000602082019050611c866000830184611c62565b92915050565b6000611c97826115f6565b9050919050565b611ca781611c8c565b8114611cb257600080fd5b50565b600081359050611cc481611c9e565b92915050565b600080600080600060a08688031215611ce657611ce5611580565b5b6000611cf4888289016115ab565b9550506020611d05888289016115e1565b9450506040611d168882890161163f565b9350506060611d2788828901611cb5565b9250506080611d38888289016115e1565b9150509295509295909350565b600060208284031215611d5b57611d5a611580565b5b6000611d69848285016115ab565b91505092915050565b600082825260208201905092915050565b7f4552433230537761703a207377617020686173206e6f742074696d6564206f7560008201527f7420796574000000000000000000000000000000000000000000000000000000602082015250565b6000611ddf602583611d72565b9150611dea82611d83565b604082019050919050565b60006020820190508181036000830152611e0e81611dd2565b9050919050565b7f4e487b7100000000000000000000000000000000000000000000000000000000600052603260045260246000fd5b600060208284031215611e5a57611e59611580565b5b6000611e688482850161163f565b91505092915050565b600060208284031215611e8757611e86611580565b5b6000611e9584828501611705565b91505092915050565b611ea7816115c0565b82525050565b600060e082019050611ec2600083018a6117e4565b611ecf60208301896117e4565b611edc6040830188611e9e565b611ee96060830187611c62565b611ef66080830186611c62565b611f0360a0830185611c62565b611f1060c0830184611e9e565b98975050505050505050565b600081905092915050565b7f1901000000000000000000000000000000000000000000000000000000000000600082015250565b6000611f5d600283611f1c565b9150611f6882611f27565b600282019050919050565b6000819050919050565b611f8e611f898261158a565b611f73565b82525050565b6000611f9f82611f50565b9150611fab8285611f7d565b602082019150611fbb8284611f7d565b6020820191508190509392505050565b6000608082019050611fe060008301876117e4565b611fed602083018661194e565b611ffa60408301856117e4565b61200760608301846117e4565b95945050505050565b600060c08201905061202560008301896117e4565b61203260208301886117e4565b61203f6040830187611e9e565b61204c6060830186611c62565b6120596080830185611c62565b61206660a0830184611e9e565b979650505050505050565b7f4552433230537761703a20696e76616c6964207369676e617475726500000000600082015250565b60006120a7601c83611d72565b91506120b282612071565b602082019050919050565b600060208201905081810360008301526120d68161209a565b9050919050565b600060e0820190506120f2600083018a6117e4565b6120ff60208301896117e4565b61210c6040830188611e9e565b6121196060830187611c62565b6121266080830186611c62565b61213360a0830185611e9e565b61214060c0830184611c62565b98975050505050505050565b7f4552433230537761703a206c6f636b656420616d6f756e74206d757374206e6f60008201527f74206265207a65726f0000000000000000000000000000000000000000000000602082015250565b60006121a8602983611d72565b91506121b38261214c565b604082019050919050565b600060208201905081810360008301526121d78161219b565b9050919050565b7f4552433230537761703a20737761702065786973747320616c72656164790000600082015250565b6000612214601e83611d72565b915061221f826121de565b602082019050919050565b6000602082019050818103600083015261224381612207565b9050919050565b600060608201905061225f6000830186611e9e565b61226c6020830185611c62565b6122796040830184611e9e565b949350505050565b600061228d8284611f7d565b60208201915081905092915050565b600081519050919050565b600081905092915050565b60005b838110156122d05780820151818401526020810190506122b5565b60008484015250505050565b60006122e78261229c565b6122f181856122a7565b93506123018185602086016122b2565b80840191505092915050565b600061231982846122dc565b915081905092915050565b60008151905061233381611594565b92915050565b60006020828403121561234f5761234e611580565b5b600061235d84828501612324565b91505092915050565b600060408201905061237b6000830185611c62565b6123886020830184611e9e565b9392505050565b61239881611978565b81146123a357600080fd5b50565b6000815190506123b58161238f565b92915050565b6000602082840312156123d1576123d0611580565b5b60006123df848285016123a6565b91505092915050565b7f5472616e7366657248656c7065723a20636f756c64206e6f74207472616e736660008201527f657220455243323020746f6b656e730000000000000000000000000000000000602082015250565b6000612444602f83611d72565b915061244f826123e8565b604082019050919050565b6000602082019050818103600083015261247381612437565b9050919050565b7f4552433230537761703a20636f6d6d69746d656e742063616e6e6f742062652060008201527f636c61696d656420617320737761700000000000000000000000000000000000602082015250565b60006124d6602f83611d72565b91506124e18261247a565b604082019050919050565b60006020820190508181036000830152612505816124c9565b9050919050565b50565b600061251c6000836122a7565b91506125278261250c565b600082019050919050565b600061253d8261250f565b9150819050919050565b7f5472616e7366657248656c7065723a20636f756c64206e6f74207472616e736660008201527f6572204574686572000000000000000000000000000000000000000000000000602082015250565b60006125a3602883611d72565b91506125ae82612547565b604082019050919050565b600060208201905081810360008301526125d281612596565b9050919050565b60006060820190506125ee6000830186611c62565b6125fb6020830185611c62565b6126086040830184611e9e565b949350505050565b7f5472616e7366657248656c7065723a20636f756c64206e6f74207472616e736660008201527f657246726f6d20455243323020746f6b656e7300000000000000000000000000602082015250565b600061266c603383611d72565b915061267782612610565b604082019050919050565b6000602082019050818103600083015261269b8161265f565b9050919050565b7f4552433230537761703a207377617020686173206e6f20746f6b656e73206c6f60008201527f636b656420696e2074686520636f6e7472616374000000000000000000000000602082015250565b60006126fe603483611d72565b9150612709826126a2565b604082019050919050565b6000602082019050818103600083015261272d816126f1565b905091905056fea2646970667358221220bf6f3d015a9e89aade15d764517c42ee51a43409176d1625de13f88db2dd875464736f6c63430008210033","linkReferences":{}},"methodIdentifiers":{"DOMAIN_SEPARATOR()":"3644e515","TYPEHASH_CLAIM()":"ebb7af92","TYPEHASH_COMMIT()":"5073c277","TYPEHASH_REFUND()":"a9ab4d5b","VERSION()":"ffa1ad74","checkCommitmentSignature(bytes32,uint256,address,address,address,uint256,uint8,bytes32,bytes32)":"627b8bb7","claim(bytes32,uint256,address,address,address,uint256)":"bc586b28","claim(bytes32,uint256,address,address,address,uint256,uint8,bytes32,bytes32)":"107e1bb3","claim(bytes32,uint256,address,address,uint256)":"cd413efa","claim(bytes32,uint256,address,address,uint256,uint8,bytes32,bytes32)":"b2b78df8","claimBatch(address,(bytes32,uint256,address,uint256,uint8,bytes32,bytes32)[])":"41bc6370","claimBatch(address,bytes32[],uint256[],address[],uint256[])":"8579dc5f","hashValues(bytes32,uint256,address,address,address,uint256)":"7beb9d6d","lock(bytes32,uint256,address,address,address,uint256)":"e64fafcc","lock(bytes32,uint256,address,address,uint256)":"91644b2b","lockPrepayMinerfee(bytes32,uint256,address,address,uint256)":"b8080ab8","refund(bytes32,uint256,address,address,address,uint256)":"0e5bbd59","refund(bytes32,uint256,address,address,uint256)":"36504721","refundCooperative(bytes32,uint256,address,address,address,uint256,uint8,bytes32,bytes32)":"8b4f3c23","refundCooperative(bytes32,uint256,address,address,uint256,uint8,bytes32,bytes32)":"fb35dd96","swaps(bytes32)":"eb84e7f2","version()":"54fd4d50"},"id":2}