{"abi":[{"type":"function","name":"DOMAIN_SEPARATOR","inputs":[],"outputs":[{"name":"","type":"bytes32","internalType":"bytes32"}],"stateMutability":"view"},{"type":"function","name":"TYPEHASH_CLAIM","inputs":[],"outputs":[{"name":"","type":"bytes32","internalType":"bytes32"}],"stateMutability":"view"},{"type":"function","name":"TYPEHASH_COMMIT","inputs":[],"outputs":[{"name":"","type":"bytes32","internalType":"bytes32"}],"stateMutability":"view"},{"type":"function","name":"TYPEHASH_REFUND","inputs":[],"outputs":[{"name":"","type":"bytes32","internalType":"bytes32"}],"stateMutability":"view"},{"type":"function","name":"VERSION","inputs":[],"outputs":[{"name":"","type":"uint8","internalType":"uint8"}],"stateMutability":"view"},{"type":"function","name":"checkCommitmentSignature","inputs":[{"name":"preimageHash","type":"bytes32","internalType":"bytes32"},{"name":"amount","type":"uint256","internalType":"uint256"},{"name":"claimAddress","type":"address","internalType":"address"},{"name":"refundAddress","type":"address","internalType":"address"},{"name":"timelock","type":"uint256","internalType":"uint256"},{"name":"v","type":"uint8","internalType":"uint8"},{"name":"r","type":"bytes32","internalType":"bytes32"},{"name":"s","type":"bytes32","internalType":"bytes32"}],"outputs":[{"name":"","type":"bool","internalType":"bool"}],"stateMutability":"view"},{"type":"function","name":"claim","inputs":[{"name":"preimage","type":"bytes32","internalType":"bytes32"},{"name":"amount","type":"uint256","internalType":"uint256"},{"name":"refundAddress","type":"address","internalType":"address"},{"name":"timelock","type":"uint256","internalType":"uint256"},{"name":"v","type":"uint8","internalType":"uint8"},{"name":"r","type":"bytes32","internalType":"bytes32"},{"name":"s","type":"bytes32","internalType":"bytes32"}],"outputs":[{"name":"","type":"address","internalType":"address"}],"stateMutability":"nonpayable"},{"type":"function","name":"claim","inputs":[{"name":"preimage","type":"bytes32","internalType":"bytes32"},{"name":"amount","type":"uint256","internalType":"uint256"},{"name":"claimAddress","type":"address","internalType":"address"},{"name":"refundAddress","type":"address","internalType":"address"},{"name":"timelock","type":"uint256","internalType":"uint256"},{"name":"v","type":"uint8","internalType":"uint8"},{"name":"r","type":"bytes32","internalType":"bytes32"},{"name":"s","type":"bytes32","internalType":"bytes32"}],"outputs":[],"stateMutability":"nonpayable"},{"type":"function","name":"claim","inputs":[{"name":"preimage","type":"bytes32","internalType":"bytes32"},{"name":"amount","type":"uint256","internalType":"uint256"},{"name":"refundAddress","type":"address","internalType":"address"},{"name":"timelock","type":"uint256","internalType":"uint256"}],"outputs":[],"stateMutability":"nonpayable"},{"type":"function","name":"claim","inputs":[{"name":"preimage","type":"bytes32","internalType":"bytes32"},{"name":"amount","type":"uint256","internalType":"uint256"},{"name":"claimAddress","type":"address","internalType":"address"},{"name":"refundAddress","type":"address","internalType":"address"},{"name":"timelock","type":"uint256","internalType":"uint256"}],"outputs":[],"stateMutability":"nonpayable"},{"type":"function","name":"claimBatch","inputs":[{"name":"preimages","type":"bytes32[]","internalType":"bytes32[]"},{"name":"amounts","type":"uint256[]","internalType":"uint256[]"},{"name":"refundAddresses","type":"address[]","internalType":"address[]"},{"name":"timelocks","type":"uint256[]","internalType":"uint256[]"}],"outputs":[],"stateMutability":"nonpayable"},{"type":"function","name":"claimBatch","inputs":[{"name":"entries","type":"tuple[]","internalType":"struct EtherSwap.BatchClaimEntry[]","components":[{"name":"preimage","type":"bytes32","internalType":"bytes32"},{"name":"amount","type":"uint256","internalType":"uint256"},{"name":"refundAddress","type":"address","internalType":"address"},{"name":"timelock","type":"uint256","internalType":"uint256"},{"name":"v","type":"uint8","internalType":"uint8"},{"name":"r","type":"bytes32","internalType":"bytes32"},{"name":"s","type":"bytes32","internalType":"bytes32"}]}],"outputs":[],"stateMutability":"nonpayable"},{"type":"function","name":"hashValues","inputs":[{"name":"preimageHash","type":"bytes32","internalType":"bytes32"},{"name":"amount","type":"uint256","internalType":"uint256"},{"name":"claimAddress","type":"address","internalType":"address"},{"name":"refundAddress","type":"address","internalType":"address"},{"name":"timelock","type":"uint256","internalType":"uint256"}],"outputs":[{"name":"result","type":"bytes32","internalType":"bytes32"}],"stateMutability":"pure"},{"type":"function","name":"lock","inputs":[{"name":"preimageHash","type":"bytes32","internalType":"bytes32"},{"name":"claimAddress","type":"address","internalType":"address"},{"name":"timelock","type":"uint256","internalType":"uint256"}],"outputs":[],"stateMutability":"payable"},{"type":"function","name":"lock","inputs":[{"name":"preimageHash","type":"bytes32","internalType":"bytes32"},{"name":"claimAddress","type":"address","internalType":"address"},{"name":"refundAddress","type":"address","internalType":"address"},{"name":"timelock","type":"uint256","internalType":"uint256"}],"outputs":[],"stateMutability":"payable"},{"type":"function","name":"lockPrepayMinerfee","inputs":[{"name":"preimageHash","type":"bytes32","internalType":"bytes32"},{"name":"claimAddress","type":"address","internalType":"address payable"},{"name":"timelock","type":"uint256","internalType":"uint256"},{"name":"prepayAmount","type":"uint256","internalType":"uint256"}],"outputs":[],"stateMutability":"payable"},{"type":"function","name":"refund","inputs":[{"name":"preimageHash","type":"bytes32","internalType":"bytes32"},{"name":"amount","type":"uint256","internalType":"uint256"},{"name":"claimAddress","type":"address","internalType":"address"},{"name":"timelock","type":"uint256","internalType":"uint256"}],"outputs":[],"stateMutability":"nonpayable"},{"type":"function","name":"refund","inputs":[{"name":"preimageHash","type":"bytes32","internalType":"bytes32"},{"name":"amount","type":"uint256","internalType":"uint256"},{"name":"claimAddress","type":"address","internalType":"address"},{"name":"refundAddress","type":"address","internalType":"address"},{"name":"timelock","type":"uint256","internalType":"uint256"}],"outputs":[],"stateMutability":"nonpayable"},{"type":"function","name":"refundCooperative","inputs":[{"name":"preimageHash","type":"bytes32","internalType":"bytes32"},{"name":"amount","type":"uint256","internalType":"uint256"},{"name":"claimAddress","type":"address","internalType":"address"},{"name":"refundAddress","type":"address","internalType":"address"},{"name":"timelock","type":"uint256","internalType":"uint256"},{"name":"v","type":"uint8","internalType":"uint8"},{"name":"r","type":"bytes32","internalType":"bytes32"},{"name":"s","type":"bytes32","internalType":"bytes32"}],"outputs":[],"stateMutability":"nonpayable"},{"type":"function","name":"refundCooperative","inputs":[{"name":"preimageHash","type":"bytes32","internalType":"bytes32"},{"name":"amount","type":"uint256","internalType":"uint256"},{"name":"claimAddress","type":"address","internalType":"address"},{"name":"timelock","type":"uint256","internalType":"uint256"},{"name":"v","type":"uint8","internalType":"uint8"},{"name":"r","type":"bytes32","internalType":"bytes32"},{"name":"s","type":"bytes32","internalType":"bytes32"}],"outputs":[],"stateMutability":"nonpayable"},{"type":"function","name":"swaps","inputs":[{"name":"","type":"bytes32","internalType":"bytes32"}],"outputs":[{"name":"","type":"bool","internalType":"bool"}],"stateMutability":"view"},{"type":"function","name":"version","inputs":[],"outputs":[{"name":"","type":"uint8","internalType":"uint8"}],"stateMutability":"pure"},{"type":"event","name":"Claim","inputs":[{"name":"preimageHash","type":"bytes32","indexed":true,"internalType":"bytes32"},{"name":"preimage","type":"bytes32","indexed":false,"internalType":"bytes32"}],"anonymous":false},{"type":"event","name":"Lockup","inputs":[{"name":"preimageHash","type":"bytes32","indexed":true,"internalType":"bytes32"},{"name":"amount","type":"uint256","indexed":false,"internalType":"uint256"},{"name":"claimAddress","type":"address","indexed":true,"internalType":"address"},{"name":"refundAddress","type":"address","indexed":true,"internalType":"address"},{"name":"timelock","type":"uint256","indexed":false,"internalType":"uint256"}],"anonymous":false},{"type":"event","name":"Refund","inputs":[{"name":"preimageHash","type":"bytes32","indexed":true,"internalType":"bytes32"}],"anonymous":false},{"type":"error","name":"CommitmentCannotBeClaimedAsSwap","inputs":[]},{"type":"error","name":"InvalidPrepayAmount","inputs":[]},{"type":"error","name":"InvalidSignature","inputs":[]},{"type":"error","name":"SwapAlreadyExists","inputs":[]},{"type":"error","name":"SwapNotFound","inputs":[]},{"type":"error","name":"SwapNotTimedOut","inputs":[]},{"type":"error","name":"ZeroAmount","inputs":[]}],"bytecode":{"object":"0x60a06040527f8b73c3c69bb8fe3d512ecc4cf759cc79239f7b179b0ffacaa9a75d522b39400f7f0f435efbd794bc89b372127f0e96dcc927b729642a259c9b4dcbab48b107caec7fe455bf8ea6e7463a1046a0b52804526e119b4bf5136279614e0b1e8e296a4e2d463060405160200161007d959493929190610119565b604051602081830303815290604052805190602001206080908152503480156100a4575f5ffd5b5061016a565b5f819050919050565b6100bc816100aa565b82525050565b5f819050919050565b6100d4816100c2565b82525050565b5f73ffffffffffffffffffffffffffffffffffffffff82169050919050565b5f610103826100da565b9050919050565b610113816100f9565b82525050565b5f60a08201905061012c5f8301886100b3565b61013960208301876100b3565b61014660408301866100b3565b61015360608301856100cb565b610160608083018461010a565b9695505050505050565b608051611f4f6101975f395f81816104e60152818161062d015281816106550152610bce0152611f4f5ff3fe608060405260043610610134575f3560e01c8063a9ab4d5b116100aa578063eb84e7f21161006e578063eb84e7f2146103d8578063ebb7af9214610414578063f3382d571461043e578063fb35dd9614610466578063fe237d451461048e578063ffa1ad74146104b657610134565b8063a9ab4d5b1461030e578063b2b78df814610338578063c2c3a8c914610360578063c3c37fbc14610388578063cd413efa146103b057610134565b806336504721116100fc578063365047211461021e5780635073c2771461024657806354fd4d50146102705780636fa4ae601461029a578063799f212b146102b65780638b2f8f82146102d257610134565b80630685d21e146101385780630899146b1461017457806335cd4ccb146101905780633644e515146101b85780633648a807146101e2575b5f5ffd5b348015610143575f5ffd5b5061015e6004803603810190610159919061138d565b6104e0565b60405161016b9190611458565b60405180910390f35b61018e60048036038101906101899190611471565b610606565b005b34801561019b575f5ffd5b506101b660048036038101906101b191906114c1565b610618565b005b3480156101c3575f5ffd5b506101cc61062b565b6040516101d99190611534565b60405180910390f35b3480156101ed575f5ffd5b506102086004803603810190610203919061154d565b61064f565b60405161021591906115f9565b60405180910390f35b348015610229575f5ffd5b50610244600480360381019061023f9190611612565b61075d565b005b348015610251575f5ffd5b5061025a6107b2565b6040516102679190611534565b60405180910390f35b34801561027b575f5ffd5b506102846107d6565b6040516102919190611698565b60405180910390f35b6102b460048036038101906102af91906116ec565b6107de565b005b6102d060048036038101906102cb9190611750565b61083f565b005b3480156102dd575f5ffd5b506102f860048036038101906102f39190611612565b610852565b6040516103059190611534565b60405180910390f35b348015610319575f5ffd5b50610322610881565b60405161032f9190611534565b60405180910390f35b348015610343575f5ffd5b5061035e6004803603810190610359919061138d565b6108a5565b005b34801561036b575f5ffd5b50610386600480360381019061038191906118bf565b6108c9565b005b348015610393575f5ffd5b506103ae60048036038101906103a991906114c1565b61098f565b005b3480156103bb575f5ffd5b506103d660048036038101906103d19190611612565b6109a2565b005b3480156103e3575f5ffd5b506103fe60048036038101906103f991906119a3565b6109c0565b60405161040b9190611458565b60405180910390f35b34801561041f575f5ffd5b506104286109dc565b6040516104359190611534565b60405180910390f35b348015610449575f5ffd5b50610464600480360381019061045f9190611a23565b610a00565b005b348015610471575f5ffd5b5061048c6004803603810190610487919061138d565b610bc9565b005b348015610499575f5ffd5b506104b460048036038101906104af919061154d565b610d63565b005b3480156104c1575f5ffd5b506104ca610d7c565b6040516104d79190611698565b60405180910390f35b5f5f60017f00000000000000000000000000000000000000000000000000000000000000007f09a36cedee5cdca9c8804bc3bd501c303082427c9156e7b1f46a65c28e17ce588c8c8c8c8c60405160200161054096959493929190611a7d565b60405160208183030381529060405280519060200120604051602001610567929190611b50565b604051602081830303815290604052805190602001208686866040515f815260200160405260405161059c9493929190611b86565b6020604051602081039080840390855afa1580156105bc573d5f5f3e3d5ffd5b5050506020604051035190508673ffffffffffffffffffffffffffffffffffffffff168173ffffffffffffffffffffffffffffffffffffffff161491505098975050505050505050565b6106138334843385610d81565b505050565b610625848484338561075d565b50505050565b7f000000000000000000000000000000000000000000000000000000000000000081565b5f5f60017f00000000000000000000000000000000000000000000000000000000000000007fad247288102f13699d9a6cafb9cfb8fce14f10334c0f638ba03889ab655fc6e68b8b8b8b336040516020016106af96959493929190611bc9565b604051602081830303815290604052805190602001206040516020016106d6929190611b50565b604051602081830303815290604052805190602001208686866040515f815260200160405260405161070b9493929190611b86565b6020604051602081039080840390855afa15801561072b573d5f5f3e3d5ffd5b5050506020604051035190506107448989838a8a610eb6565b61074e3389610fda565b80915050979650505050505050565b610765611087565b81111561079e576040517f2782367700000000000000000000000000000000000000000000000000000000815260040160405180910390fd5b6107ab858585858561108e565b5050505050565b7f09a36cedee5cdca9c8804bc3bd501c303082427c9156e7b1f46a65c28e17ce5881565b5f6006905090565b803411610817576040517f8e7f710600000000000000000000000000000000000000000000000000000000815260040160405180910390fd5b61082f8482346108279190611c55565b853386610d81565b6108398382610fda565b50505050565b61084c8434858585610d81565b50505050565b5f60405186815285602082015284604082015283606082015282608082015260a0812091505095945050505050565b7fb58a7c79b5c8052bb2d380096e39f2ed848c68cdd21cb69f6ab5152ade26292681565b6108b58888888888888888611105565b6108bf8688610fda565b5050505050505050565b5f5f90505f5f90505f8a8a905090505f5f90505b81811015610977578989828181106108f8576108f7611c88565b5b9050602002013592506109678c8c8381811061091757610916611c88565b5b9050602002013584338b8b8681811061093357610932611c88565b5b90506020020160208101906109489190611cb5565b8a8a8781811061095b5761095a611c88565b5b90506020020135610eb6565b82840193508060010190506108dd565b50506109833383610fda565b50505050505050505050565b61099c84843385856109a2565b50505050565b6109af8585858585610eb6565b6109b98385610fda565b5050505050565b5f602052805f5260405f205f915054906101000a900460ff1681565b7fad247288102f13699d9a6cafb9cfb8fce14f10334c0f638ba03889ab655fc6e681565b5f5f90505f5f90505f8484905090505f5f90505b81811015610bb757858582818110610a2f57610a2e611c88565b5b905060e002016020013592505f5f1b868683818110610a5157610a50611c88565b5b905060e0020160a0013514610b3857610b33868683818110610a7657610a75611c88565b5b905060e002015f01358433898986818110610a9457610a93611c88565b5b905060e002016040016020810190610aac9190611cb5565b8a8a87818110610abf57610abe611c88565b5b905060e00201606001358b8b88818110610adc57610adb611c88565b5b905060e002016080016020810190610af49190611ce0565b8c8c89818110610b0757610b06611c88565b5b905060e0020160a001358d8d8a818110610b2457610b23611c88565b5b905060e0020160c00135611105565b610ba7565b610ba6868683818110610b4e57610b4d611c88565b5b905060e002015f01358433898986818110610b6c57610b6b611c88565b5b905060e002016040016020810190610b849190611cb5565b8a8a87818110610b9757610b96611c88565b5b905060e0020160600135610eb6565b5b8284019350806001019050610a14565b5050610bc33383610fda565b50505050565b5f60017f00000000000000000000000000000000000000000000000000000000000000007fb58a7c79b5c8052bb2d380096e39f2ed848c68cdd21cb69f6ab5152ade2629268b8b8b8a604051602001610c26959493929190611d0b565b60405160208183030381529060405280519060200120604051602001610c4d929190611b50565b604051602081830303815290604052805190602001208585856040515f8152602001604052604051610c829493929190611b86565b6020604051602081039080840390855afa158015610ca2573d5f5f3e3d5ffd5b5050506020604051035190505f73ffffffffffffffffffffffffffffffffffffffff168173ffffffffffffffffffffffffffffffffffffffff1614158015610d1557508673ffffffffffffffffffffffffffffffffffffffff168173ffffffffffffffffffffffffffffffffffffffff16145b610d4b576040517f8baa579f00000000000000000000000000000000000000000000000000000000815260040160405180910390fd5b610d58898989898961108e565b505050505050505050565b610d738787873388888888610bc9565b50505050505050565b600681565b5f8411610dba576040517f1f2a200500000000000000000000000000000000000000000000000000000000815260040160405180910390fd5b5f610dc88686868686610852565b90505f5f8281526020019081526020015f205f9054906101000a900460ff1615610e1e576040517f734530ce00000000000000000000000000000000000000000000000000000000815260040160405180910390fd5b60015f5f8381526020019081526020015f205f6101000a81548160ff0219169083151502179055508273ffffffffffffffffffffffffffffffffffffffff168473ffffffffffffffffffffffffffffffffffffffff16877f15b4b8206809535e547317cd5cedc86cff6e7d203551f93701786ddaf14fd9f98886604051610ea6929190611d5c565b60405180910390a4505050505050565b5f600286604051602001610eca9190611d83565b604051602081830303815290604052604051610ee69190611def565b602060405180830381855afa158015610f01573d5f5f3e3d5ffd5b5050506040513d601f19601f82011682018060405250810190610f249190611e19565b90505f5f1b8103610f61576040517f8b8dc8b000000000000000000000000000000000000000000000000000000000815260040160405180910390fd5b5f610f6f8287878787610852565b9050610f7a81611239565b5f5f8281526020019081526020015f205f6101000a81549060ff0219169055817f5664142af3dcfc3dc3de45a43f75c746bd1d8c11170a5037fdf98bdb3577513788604051610fc99190611534565b60405180910390a250505050505050565b5f8273ffffffffffffffffffffffffffffffffffffffff1682604051610fff90611e67565b5f6040518083038185875af1925050503d805f8114611039576040519150601f19603f3d011682016040523d82523d5f602084013e61103e565b606091505b5050905080611082576040517f08c379a000000000000000000000000000000000000000000000000000000000815260040161107990611efb565b60405180910390fd5b505050565b5f43905090565b5f61109c8686868686610852565b90506110a781611239565b5f5f8281526020019081526020015f205f6101000a81549060ff0219169055857f3fbd469ec3a5ce074f975f76ce27e727ba21c99176917b97ae2e713695582a1260405160405180910390a26110fd8386610fda565b505050505050565b5f6111155f5f1b89898989610852565b905061112081611239565b5f60028a6040516020016111349190611d83565b6040516020818303038152906040526040516111509190611def565b602060405180830381855afa15801561116b573d5f5f3e3d5ffd5b5050506040513d601f19601f8201168201806040525081019061118e9190611e19565b90506111a0818a8a8a8a8a8a8a6104e0565b6111d6576040517f8baa579f00000000000000000000000000000000000000000000000000000000815260040160405180910390fd5b5f5f8381526020019081526020015f205f6101000a81549060ff0219169055807f5664142af3dcfc3dc3de45a43f75c746bd1d8c11170a5037fdf98bdb357751378b6040516112259190611534565b60405180910390a250505050505050505050565b5f5f8281526020019081526020015f205f9054906101000a900460ff1661128c576040517f5ec69df000000000000000000000000000000000000000000000000000000000815260040160405180910390fd5b50565b5f5ffd5b5f5ffd5b5f819050919050565b6112a981611297565b81146112b3575f5ffd5b50565b5f813590506112c4816112a0565b92915050565b5f819050919050565b6112dc816112ca565b81146112e6575f5ffd5b50565b5f813590506112f7816112d3565b92915050565b5f73ffffffffffffffffffffffffffffffffffffffff82169050919050565b5f611326826112fd565b9050919050565b6113368161131c565b8114611340575f5ffd5b50565b5f813590506113518161132d565b92915050565b5f60ff82169050919050565b61136c81611357565b8114611376575f5ffd5b50565b5f8135905061138781611363565b92915050565b5f5f5f5f5f5f5f5f610100898b0312156113aa576113a961128f565b5b5f6113b78b828c016112b6565b98505060206113c88b828c016112e9565b97505060406113d98b828c01611343565b96505060606113ea8b828c01611343565b95505060806113fb8b828c016112e9565b94505060a061140c8b828c01611379565b93505060c061141d8b828c016112b6565b92505060e061142e8b828c016112b6565b9150509295985092959890939650565b5f8115159050919050565b6114528161143e565b82525050565b5f60208201905061146b5f830184611449565b92915050565b5f5f5f606084860312156114885761148761128f565b5b5f611495868287016112b6565b93505060206114a686828701611343565b92505060406114b7868287016112e9565b9150509250925092565b5f5f5f5f608085870312156114d9576114d861128f565b5b5f6114e6878288016112b6565b94505060206114f7878288016112e9565b935050604061150887828801611343565b9250506060611519878288016112e9565b91505092959194509250565b61152e81611297565b82525050565b5f6020820190506115475f830184611525565b92915050565b5f5f5f5f5f5f5f60e0888a0312156115685761156761128f565b5b5f6115758a828b016112b6565b97505060206115868a828b016112e9565b96505060406115978a828b01611343565b95505060606115a88a828b016112e9565b94505060806115b98a828b01611379565b93505060a06115ca8a828b016112b6565b92505060c06115db8a828b016112b6565b91505092959891949750929550565b6115f38161131c565b82525050565b5f60208201905061160c5f8301846115ea565b92915050565b5f5f5f5f5f60a0868803121561162b5761162a61128f565b5b5f611638888289016112b6565b9550506020611649888289016112e9565b945050604061165a88828901611343565b935050606061166b88828901611343565b925050608061167c888289016112e9565b9150509295509295909350565b61169281611357565b82525050565b5f6020820190506116ab5f830184611689565b92915050565b5f6116bb826112fd565b9050919050565b6116cb816116b1565b81146116d5575f5ffd5b50565b5f813590506116e6816116c2565b92915050565b5f5f5f5f608085870312156117045761170361128f565b5b5f611711878288016112b6565b9450506020611722878288016116d8565b9350506040611733878288016112e9565b9250506060611744878288016112e9565b91505092959194509250565b5f5f5f5f608085870312156117685761176761128f565b5b5f611775878288016112b6565b945050602061178687828801611343565b935050604061179787828801611343565b92505060606117a8878288016112e9565b91505092959194509250565b5f5ffd5b5f5ffd5b5f5ffd5b5f5f83601f8401126117d5576117d46117b4565b5b8235905067ffffffffffffffff8111156117f2576117f16117b8565b5b60208301915083602082028301111561180e5761180d6117bc565b5b9250929050565b5f5f83601f84011261182a576118296117b4565b5b8235905067ffffffffffffffff811115611847576118466117b8565b5b602083019150836020820283011115611863576118626117bc565b5b9250929050565b5f5f83601f84011261187f5761187e6117b4565b5b8235905067ffffffffffffffff81111561189c5761189b6117b8565b5b6020830191508360208202830111156118b8576118b76117bc565b5b9250929050565b5f5f5f5f5f5f5f5f6080898b0312156118db576118da61128f565b5b5f89013567ffffffffffffffff8111156118f8576118f7611293565b5b6119048b828c016117c0565b9850985050602089013567ffffffffffffffff81111561192757611926611293565b5b6119338b828c01611815565b9650965050604089013567ffffffffffffffff81111561195657611955611293565b5b6119628b828c0161186a565b9450945050606089013567ffffffffffffffff81111561198557611984611293565b5b6119918b828c01611815565b92509250509295985092959890939650565b5f602082840312156119b8576119b761128f565b5b5f6119c5848285016112b6565b91505092915050565b5f5f83601f8401126119e3576119e26117b4565b5b8235905067ffffffffffffffff811115611a00576119ff6117b8565b5b6020830191508360e0820283011115611a1c57611a1b6117bc565b5b9250929050565b5f5f60208385031215611a3957611a3861128f565b5b5f83013567ffffffffffffffff811115611a5657611a55611293565b5b611a62858286016119ce565b92509250509250929050565b611a77816112ca565b82525050565b5f60c082019050611a905f830189611525565b611a9d6020830188611525565b611aaa6040830187611a6e565b611ab760608301866115ea565b611ac460808301856115ea565b611ad160a0830184611a6e565b979650505050505050565b5f81905092915050565b7f19010000000000000000000000000000000000000000000000000000000000005f82015250565b5f611b1a600283611adc565b9150611b2582611ae6565b600282019050919050565b5f819050919050565b611b4a611b4582611297565b611b30565b82525050565b5f611b5a82611b0e565b9150611b668285611b39565b602082019150611b768284611b39565b6020820191508190509392505050565b5f608082019050611b995f830187611525565b611ba66020830186611689565b611bb36040830185611525565b611bc06060830184611525565b95945050505050565b5f60c082019050611bdc5f830189611525565b611be96020830188611525565b611bf66040830187611a6e565b611c0360608301866115ea565b611c106080830185611a6e565b611c1d60a08301846115ea565b979650505050505050565b7f4e487b71000000000000000000000000000000000000000000000000000000005f52601160045260245ffd5b5f611c5f826112ca565b9150611c6a836112ca565b9250828203905081811115611c8257611c81611c28565b5b92915050565b7f4e487b71000000000000000000000000000000000000000000000000000000005f52603260045260245ffd5b5f60208284031215611cca57611cc961128f565b5b5f611cd784828501611343565b91505092915050565b5f60208284031215611cf557611cf461128f565b5b5f611d0284828501611379565b91505092915050565b5f60a082019050611d1e5f830188611525565b611d2b6020830187611525565b611d386040830186611a6e565b611d4560608301856115ea565b611d526080830184611a6e565b9695505050505050565b5f604082019050611d6f5f830185611a6e565b611d7c6020830184611a6e565b9392505050565b5f611d8e8284611b39565b60208201915081905092915050565b5f81519050919050565b5f81905092915050565b8281835e5f83830152505050565b5f611dc982611d9d565b611dd38185611da7565b9350611de3818560208601611db1565b80840191505092915050565b5f611dfa8284611dbf565b915081905092915050565b5f81519050611e13816112a0565b92915050565b5f60208284031215611e2e57611e2d61128f565b5b5f611e3b84828501611e05565b91505092915050565b50565b5f611e525f83611da7565b9150611e5d82611e44565b5f82019050919050565b5f611e7182611e47565b9150819050919050565b5f82825260208201905092915050565b7f5472616e7366657248656c7065723a20636f756c64206e6f74207472616e73665f8201527f6572204574686572000000000000000000000000000000000000000000000000602082015250565b5f611ee5602883611e7b565b9150611ef082611e8b565b604082019050919050565b5f6020820190508181035f830152611f1281611ed9565b905091905056fea2646970667358221220cc72ad290d683ff54d32352a22d011716de60ad18e6c6bcf7f73e26a041ac46264736f6c63430008210033","linkReferences":{}},"methodIdentifiers":{"DOMAIN_SEPARATOR()":"3644e515","TYPEHASH_CLAIM()":"ebb7af92","TYPEHASH_COMMIT()":"5073c277","TYPEHASH_REFUND()":"a9ab4d5b","VERSION()":"ffa1ad74","checkCommitmentSignature(bytes32,uint256,address,address,uint256,uint8,bytes32,bytes32)":"0685d21e","claim(bytes32,uint256,address,address,uint256)":"cd413efa","claim(bytes32,uint256,address,address,uint256,uint8,bytes32,bytes32)":"b2b78df8","claim(bytes32,uint256,address,uint256)":"c3c37fbc","claim(bytes32,uint256,address,uint256,uint8,bytes32,bytes32)":"3648a807","claimBatch((bytes32,uint256,address,uint256,uint8,bytes32,bytes32)[])":"f3382d57","claimBatch(bytes32[],uint256[],address[],uint256[])":"c2c3a8c9","hashValues(bytes32,uint256,address,address,uint256)":"8b2f8f82","lock(bytes32,address,address,uint256)":"799f212b","lock(bytes32,address,uint256)":"0899146b","lockPrepayMinerfee(bytes32,address,uint256,uint256)":"6fa4ae60","refund(bytes32,uint256,address,address,uint256)":"36504721","refund(bytes32,uint256,address,uint256)":"35cd4ccb","refundCooperative(bytes32,uint256,address,address,uint256,uint8,bytes32,bytes32)":"fb35dd96","refundCooperative(bytes32,uint256,address,uint256,uint8,bytes32,bytes32)":"fe237d45","swaps(bytes32)":"eb84e7f2","version()":"54fd4d50"},"id":3}