{"abi":[{"type":"function","name":"DOMAIN_SEPARATOR","inputs":[],"outputs":[{"name":"","type":"bytes32","internalType":"bytes32"}],"stateMutability":"view"},{"type":"function","name":"TYPEHASH_CLAIM","inputs":[],"outputs":[{"name":"","type":"bytes32","internalType":"bytes32"}],"stateMutability":"view"},{"type":"function","name":"TYPEHASH_COMMIT","inputs":[],"outputs":[{"name":"","type":"bytes32","internalType":"bytes32"}],"stateMutability":"view"},{"type":"function","name":"TYPEHASH_REFUND","inputs":[],"outputs":[{"name":"","type":"bytes32","internalType":"bytes32"}],"stateMutability":"view"},{"type":"function","name":"VERSION","inputs":[],"outputs":[{"name":"","type":"uint8","internalType":"uint8"}],"stateMutability":"view"},{"type":"function","name":"checkCommitmentSignature","inputs":[{"name":"preimageHash","type":"bytes32","internalType":"bytes32"},{"name":"amount","type":"uint256","internalType":"uint256"},{"name":"claimAddress","type":"address","internalType":"address"},{"name":"refundAddress","type":"address","internalType":"address"},{"name":"timelock","type":"uint256","internalType":"uint256"},{"name":"v","type":"uint8","internalType":"uint8"},{"name":"r","type":"bytes32","internalType":"bytes32"},{"name":"s","type":"bytes32","internalType":"bytes32"}],"outputs":[{"name":"","type":"bool","internalType":"bool"}],"stateMutability":"view"},{"type":"function","name":"claim","inputs":[{"name":"preimage","type":"bytes32","internalType":"bytes32"},{"name":"amount","type":"uint256","internalType":"uint256"},{"name":"refundAddress","type":"address","internalType":"address"},{"name":"timelock","type":"uint256","internalType":"uint256"},{"name":"v","type":"uint8","internalType":"uint8"},{"name":"r","type":"bytes32","internalType":"bytes32"},{"name":"s","type":"bytes32","internalType":"bytes32"}],"outputs":[{"name":"","type":"address","internalType":"address"}],"stateMutability":"nonpayable"},{"type":"function","name":"claim","inputs":[{"name":"preimage","type":"bytes32","internalType":"bytes32"},{"name":"amount","type":"uint256","internalType":"uint256"},{"name":"claimAddress","type":"address","internalType":"address"},{"name":"refundAddress","type":"address","internalType":"address"},{"name":"timelock","type":"uint256","internalType":"uint256"},{"name":"v","type":"uint8","internalType":"uint8"},{"name":"r","type":"bytes32","internalType":"bytes32"},{"name":"s","type":"bytes32","internalType":"bytes32"}],"outputs":[],"stateMutability":"nonpayable"},{"type":"function","name":"claim","inputs":[{"name":"preimage","type":"bytes32","internalType":"bytes32"},{"name":"amount","type":"uint256","internalType":"uint256"},{"name":"refundAddress","type":"address","internalType":"address"},{"name":"timelock","type":"uint256","internalType":"uint256"}],"outputs":[],"stateMutability":"nonpayable"},{"type":"function","name":"claim","inputs":[{"name":"preimage","type":"bytes32","internalType":"bytes32"},{"name":"amount","type":"uint256","internalType":"uint256"},{"name":"claimAddress","type":"address","internalType":"address"},{"name":"refundAddress","type":"address","internalType":"address"},{"name":"timelock","type":"uint256","internalType":"uint256"}],"outputs":[],"stateMutability":"nonpayable"},{"type":"function","name":"claimBatch","inputs":[{"name":"preimages","type":"bytes32[]","internalType":"bytes32[]"},{"name":"amounts","type":"uint256[]","internalType":"uint256[]"},{"name":"refundAddresses","type":"address[]","internalType":"address[]"},{"name":"timelocks","type":"uint256[]","internalType":"uint256[]"}],"outputs":[],"stateMutability":"nonpayable"},{"type":"function","name":"claimBatch","inputs":[{"name":"entries","type":"tuple[]","internalType":"struct EtherSwap.BatchClaimEntry[]","components":[{"name":"preimage","type":"bytes32","internalType":"bytes32"},{"name":"amount","type":"uint256","internalType":"uint256"},{"name":"refundAddress","type":"address","internalType":"address"},{"name":"timelock","type":"uint256","internalType":"uint256"},{"name":"v","type":"uint8","internalType":"uint8"},{"name":"r","type":"bytes32","internalType":"bytes32"},{"name":"s","type":"bytes32","internalType":"bytes32"}]}],"outputs":[],"stateMutability":"nonpayable"},{"type":"function","name":"hashValues","inputs":[{"name":"preimageHash","type":"bytes32","internalType":"bytes32"},{"name":"amount","type":"uint256","internalType":"uint256"},{"name":"claimAddress","type":"address","internalType":"address"},{"name":"refundAddress","type":"address","internalType":"address"},{"name":"timelock","type":"uint256","internalType":"uint256"}],"outputs":[{"name":"result","type":"bytes32","internalType":"bytes32"}],"stateMutability":"pure"},{"type":"function","name":"lock","inputs":[{"name":"preimageHash","type":"bytes32","internalType":"bytes32"},{"name":"claimAddress","type":"address","internalType":"address"},{"name":"timelock","type":"uint256","internalType":"uint256"}],"outputs":[],"stateMutability":"payable"},{"type":"function","name":"lock","inputs":[{"name":"preimageHash","type":"bytes32","internalType":"bytes32"},{"name":"claimAddress","type":"address","internalType":"address"},{"name":"refundAddress","type":"address","internalType":"address"},{"name":"timelock","type":"uint256","internalType":"uint256"}],"outputs":[],"stateMutability":"payable"},{"type":"function","name":"lockPrepayMinerfee","inputs":[{"name":"preimageHash","type":"bytes32","internalType":"bytes32"},{"name":"claimAddress","type":"address","internalType":"address payable"},{"name":"timelock","type":"uint256","internalType":"uint256"},{"name":"prepayAmount","type":"uint256","internalType":"uint256"}],"outputs":[],"stateMutability":"payable"},{"type":"function","name":"refund","inputs":[{"name":"preimageHash","type":"bytes32","internalType":"bytes32"},{"name":"amount","type":"uint256","internalType":"uint256"},{"name":"claimAddress","type":"address","internalType":"address"},{"name":"timelock","type":"uint256","internalType":"uint256"}],"outputs":[],"stateMutability":"nonpayable"},{"type":"function","name":"refund","inputs":[{"name":"preimageHash","type":"bytes32","internalType":"bytes32"},{"name":"amount","type":"uint256","internalType":"uint256"},{"name":"claimAddress","type":"address","internalType":"address"},{"name":"refundAddress","type":"address","internalType":"address"},{"name":"timelock","type":"uint256","internalType":"uint256"}],"outputs":[],"stateMutability":"nonpayable"},{"type":"function","name":"refundCooperative","inputs":[{"name":"preimageHash","type":"bytes32","internalType":"bytes32"},{"name":"amount","type":"uint256","internalType":"uint256"},{"name":"claimAddress","type":"address","internalType":"address"},{"name":"refundAddress","type":"address","internalType":"address"},{"name":"timelock","type":"uint256","internalType":"uint256"},{"name":"v","type":"uint8","internalType":"uint8"},{"name":"r","type":"bytes32","internalType":"bytes32"},{"name":"s","type":"bytes32","internalType":"bytes32"}],"outputs":[],"stateMutability":"nonpayable"},{"type":"function","name":"refundCooperative","inputs":[{"name":"preimageHash","type":"bytes32","internalType":"bytes32"},{"name":"amount","type":"uint256","internalType":"uint256"},{"name":"claimAddress","type":"address","internalType":"address"},{"name":"timelock","type":"uint256","internalType":"uint256"},{"name":"v","type":"uint8","internalType":"uint8"},{"name":"r","type":"bytes32","internalType":"bytes32"},{"name":"s","type":"bytes32","internalType":"bytes32"}],"outputs":[],"stateMutability":"nonpayable"},{"type":"function","name":"swaps","inputs":[{"name":"","type":"bytes32","internalType":"bytes32"}],"outputs":[{"name":"","type":"bool","internalType":"bool"}],"stateMutability":"view"},{"type":"function","name":"version","inputs":[],"outputs":[{"name":"","type":"uint8","internalType":"uint8"}],"stateMutability":"pure"},{"type":"event","name":"Claim","inputs":[{"name":"preimageHash","type":"bytes32","indexed":true,"internalType":"bytes32"},{"name":"preimage","type":"bytes32","indexed":false,"internalType":"bytes32"}],"anonymous":false},{"type":"event","name":"Lockup","inputs":[{"name":"preimageHash","type":"bytes32","indexed":true,"internalType":"bytes32"},{"name":"amount","type":"uint256","indexed":false,"internalType":"uint256"},{"name":"claimAddress","type":"address","indexed":true,"internalType":"address"},{"name":"refundAddress","type":"address","indexed":true,"internalType":"address"},{"name":"timelock","type":"uint256","indexed":false,"internalType":"uint256"}],"anonymous":false},{"type":"event","name":"Refund","inputs":[{"name":"preimageHash","type":"bytes32","indexed":true,"internalType":"bytes32"}],"anonymous":false}],"bytecode":{"object":"0x60a06040527f8b73c3c69bb8fe3d512ecc4cf759cc79239f7b179b0ffacaa9a75d522b39400f7f0f435efbd794bc89b372127f0e96dcc927b729642a259c9b4dcbab48b107caec7fe455bf8ea6e7463a1046a0b52804526e119b4bf5136279614e0b1e8e296a4e2d463060405160200161007d95949392919061011e565b604051602081830303815290604052805190602001206080908152503480156100a557600080fd5b50610171565b6000819050919050565b6100be816100ab565b82525050565b6000819050919050565b6100d7816100c4565b82525050565b600073ffffffffffffffffffffffffffffffffffffffff82169050919050565b6000610108826100dd565b9050919050565b610118816100fd565b82525050565b600060a08201905061013360008301886100b5565b61014060208301876100b5565b61014d60408301866100b5565b61015a60608301856100ce565b610167608083018461010f565b9695505050505050565b60805161240e6101a1600039600081816104fc015281816106460152818161066f0152610bf3015261240e6000f3fe6080604052600436106101355760003560e01c8063a9ab4d5b116100ab578063eb84e7f21161006f578063eb84e7f2146103e7578063ebb7af9214610424578063f3382d571461044f578063fb35dd9614610478578063fe237d45146104a1578063ffa1ad74146104ca57610135565b8063a9ab4d5b14610318578063b2b78df814610343578063c2c3a8c91461036c578063c3c37fbc14610395578063cd413efa146103be57610135565b806336504721116100fd57806336504721146102245780635073c2771461024d57806354fd4d50146102785780636fa4ae60146102a3578063799f212b146102bf5780638b2f8f82146102db57610135565b80630685d21e1461013a5780630899146b1461017757806335cd4ccb146101935780633644e515146101bc5780633648a807146101e7575b600080fd5b34801561014657600080fd5b50610161600480360381019061015c919061141f565b6104f5565b60405161016e91906114f0565b60405180910390f35b610191600480360381019061018c919061150b565b61061f565b005b34801561019f57600080fd5b506101ba60048036038101906101b5919061155e565b610631565b005b3480156101c857600080fd5b506101d1610644565b6040516101de91906115d4565b60405180910390f35b3480156101f357600080fd5b5061020e600480360381019061020991906115ef565b610668565b60405161021b91906116a0565b60405180910390f35b34801561023057600080fd5b5061024b600480360381019061024691906116bb565b61077a565b005b34801561025957600080fd5b506102626107d8565b60405161026f91906115d4565b60405180910390f35b34801561028457600080fd5b5061028d6107fc565b60405161029a9190611745565b60405180910390f35b6102bd60048036038101906102b8919061179e565b610805565b005b6102d960048036038101906102d49190611805565b61086f565b005b3480156102e757600080fd5b5061030260048036038101906102fd91906116bb565b610882565b60405161030f91906115d4565b60405180910390f35b34801561032457600080fd5b5061032d6108b2565b60405161033a91906115d4565b60405180910390f35b34801561034f57600080fd5b5061036a6004803603810190610365919061141f565b6108d6565b005b34801561037857600080fd5b50610393600480360381019061038e919061197d565b6108fa565b005b3480156103a157600080fd5b506103bc60048036038101906103b7919061155e565b6109b6565b005b3480156103ca57600080fd5b506103e560048036038101906103e091906116bb565b6109c9565b005b3480156103f357600080fd5b5061040e60048036038101906104099190611a66565b6109e7565b60405161041b91906114f0565b60405180910390f35b34801561043057600080fd5b50610439610a07565b60405161044691906115d4565b60405180910390f35b34801561045b57600080fd5b5061047660048036038101906104719190611ae9565b610a2b565b005b34801561048457600080fd5b5061049f600480360381019061049a919061141f565b610bed565b005b3480156104ad57600080fd5b506104c860048036038101906104c391906115ef565b610d95565b005b3480156104d657600080fd5b506104df610dae565b6040516104ec9190611745565b60405180910390f35b60008060017f00000000000000000000000000000000000000000000000000000000000000007f09a36cedee5cdca9c8804bc3bd501c303082427c9156e7b1f46a65c28e17ce588c8c8c8c8c60405160200161055696959493929190611b45565b6040516020818303038152906040528051906020012060405160200161057d929190611c1e565b60405160208183030381529060405280519060200120868686604051600081526020016040526040516105b39493929190611c55565b6020604051602081039080840390855afa1580156105d5573d6000803e3d6000fd5b5050506020604051035190508673ffffffffffffffffffffffffffffffffffffffff168173ffffffffffffffffffffffffffffffffffffffff161491505098975050505050505050565b61062c8334843385610db3565b505050565b61063e848484338561077a565b50505050565b7f000000000000000000000000000000000000000000000000000000000000000081565b60008060017f00000000000000000000000000000000000000000000000000000000000000007fad247288102f13699d9a6cafb9cfb8fce14f10334c0f638ba03889ab655fc6e68b8b8b8b336040516020016106c996959493929190611c9a565b604051602081830303815290604052805190602001206040516020016106f0929190611c1e565b60405160208183030381529060405280519060200120868686604051600081526020016040526040516107269493929190611c55565b6020604051602081039080840390855afa158015610748573d6000803e3d6000fd5b5050506020604051035190506107618989838a8a610f02565b61076b3389611037565b80915050979650505050505050565b6107826110e8565b8111156107c4576040517f08c379a00000000000000000000000000000000000000000000000000000000081526004016107bb90611d7e565b60405180910390fd5b6107d185858585856110f0565b5050505050565b7f09a36cedee5cdca9c8804bc3bd501c303082427c9156e7b1f46a65c28e17ce5881565b60006006905090565b803411610847576040517f08c379a000000000000000000000000000000000000000000000000000000000815260040161083e90611e10565b60405180910390fd5b61085f8482346108579190611e5f565b853386610db3565b6108698382611037565b50505050565b61087c8434858585610db3565b50505050565b600060405186815285602082015284604082015283606082015282608082015260a0812091505095945050505050565b7fb58a7c79b5c8052bb2d380096e39f2ed848c68cdd21cb69f6ab5152ade26292681565b6108e6888888888888888861116b565b6108f08688611037565b5050505050505050565b60008060005b8a8a905081101561099f5788888281811061091e5761091d611e93565b5b90506020020135915061098d8b8b8381811061093d5761093c611e93565b5b9050602002013583338a8a8681811061095957610958611e93565b5b905060200201602081019061096e9190611ec2565b89898781811061098157610980611e93565b5b90506020020135610f02565b81830192508080600101915050610900565b506109aa3383611037565b50505050505050505050565b6109c384843385856109c9565b50505050565b6109d68585858585610f02565b6109e08385611037565b5050505050565b60006020528060005260406000206000915054906101000a900460ff1681565b7fad247288102f13699d9a6cafb9cfb8fce14f10334c0f638ba03889ab655fc6e681565b60008060005b84849050811015610bdc57848482818110610a4f57610a4e611e93565b5b905060e002016020013591506000801b858583818110610a7257610a71611e93565b5b905060e0020160a0013514610b5a57610b55858583818110610a9757610a96611e93565b5b905060e00201600001358333888886818110610ab657610ab5611e93565b5b905060e002016040016020810190610ace9190611ec2565b898987818110610ae157610ae0611e93565b5b905060e00201606001358a8a88818110610afe57610afd611e93565b5b905060e002016080016020810190610b169190611eef565b8b8b89818110610b2957610b28611e93565b5b905060e0020160a001358c8c8a818110610b4657610b45611e93565b5b905060e0020160c0013561116b565b610bca565b610bc9858583818110610b7057610b6f611e93565b5b905060e00201600001358333888886818110610b8f57610b8e611e93565b5b905060e002016040016020810190610ba79190611ec2565b898987818110610bba57610bb9611e93565b5b905060e0020160600135610f02565b5b81830192508080600101915050610a31565b50610be73383611037565b50505050565b600060017f00000000000000000000000000000000000000000000000000000000000000007fb58a7c79b5c8052bb2d380096e39f2ed848c68cdd21cb69f6ab5152ade2629268b8b8b8a604051602001610c4b959493929190611f1c565b60405160208183030381529060405280519060200120604051602001610c72929190611c1e565b6040516020818303038152906040528051906020012085858560405160008152602001604052604051610ca89493929190611c55565b6020604051602081039080840390855afa158015610cca573d6000803e3d6000fd5b505050602060405103519050600073ffffffffffffffffffffffffffffffffffffffff168173ffffffffffffffffffffffffffffffffffffffff1614158015610d3e57508673ffffffffffffffffffffffffffffffffffffffff168173ffffffffffffffffffffffffffffffffffffffff16145b610d7d576040517f08c379a0000000000000000000000000000000000000000000000000000000008152600401610d7490611fbb565b60405180910390fd5b610d8a89898989896110f0565b505050505050505050565b610da58787873388888888610bed565b50505050505050565b600681565b60008411610df6576040517f08c379a0000000000000000000000000000000000000000000000000000000008152600401610ded9061204d565b60405180910390fd5b6000610e058686868686610882565b905060008082815260200190815260200160002060009054906101000a900460ff1615610e67576040517f08c379a0000000000000000000000000000000000000000000000000000000008152600401610e5e906120b9565b60405180910390fd5b600160008083815260200190815260200160002060006101000a81548160ff0219169083151502179055508273ffffffffffffffffffffffffffffffffffffffff168473ffffffffffffffffffffffffffffffffffffffff16877f15b4b8206809535e547317cd5cedc86cff6e7d203551f93701786ddaf14fd9f98886604051610ef29291906120d9565b60405180910390a4505050505050565b6000600286604051602001610f179190612102565b604051602081830303815290604052604051610f33919061218e565b602060405180830381855afa158015610f50573d6000803e3d6000fd5b5050506040513d601f19601f82011682018060405250810190610f7391906121ba565b90506000801b8103610fba576040517f08c379a0000000000000000000000000000000000000000000000000000000008152600401610fb190612259565b60405180910390fd5b6000610fc98287878787610882565b9050610fd4816112b0565b60008082815260200190815260200160002060006101000a81549060ff0219169055817f5664142af3dcfc3dc3de45a43f75c746bd1d8c11170a5037fdf98bdb357751378860405161102691906115d4565b60405180910390a250505050505050565b60008273ffffffffffffffffffffffffffffffffffffffff168260405161105d9061229f565b60006040518083038185875af1925050503d806000811461109a576040519150601f19603f3d011682016040523d82523d6000602084013e61109f565b606091505b50509050806110e3576040517f08c379a00000000000000000000000000000000000000000000000000000000081526004016110da90612326565b60405180910390fd5b505050565b600042905090565b60006110ff8686868686610882565b905061110a816112b0565b60008082815260200190815260200160002060006101000a81549060ff0219169055857f3fbd469ec3a5ce074f975f76ce27e727ba21c99176917b97ae2e713695582a1260405160405180910390a26111638386611037565b505050505050565b600061117d6000801b89898989610882565b9050611188816112b0565b600060028a60405160200161119d9190612102565b6040516020818303038152906040526040516111b9919061218e565b602060405180830381855afa1580156111d6573d6000803e3d6000fd5b5050506040513d601f19601f820116820180604052508101906111f991906121ba565b905061120b818a8a8a8a8a8a8a6104f5565b61124a576040517f08c379a000000000000000000000000000000000000000000000000000000000815260040161124190611fbb565b60405180910390fd5b60008083815260200190815260200160002060006101000a81549060ff0219169055807f5664142af3dcfc3dc3de45a43f75c746bd1d8c11170a5037fdf98bdb357751378b60405161129c91906115d4565b60405180910390a250505050505050505050565b60008082815260200190815260200160002060009054906101000a900460ff1661130f576040517f08c379a0000000000000000000000000000000000000000000000000000000008152600401611306906123b8565b60405180910390fd5b50565b600080fd5b600080fd5b6000819050919050565b61132f8161131c565b811461133a57600080fd5b50565b60008135905061134c81611326565b92915050565b6000819050919050565b61136581611352565b811461137057600080fd5b50565b6000813590506113828161135c565b92915050565b600073ffffffffffffffffffffffffffffffffffffffff82169050919050565b60006113b382611388565b9050919050565b6113c3816113a8565b81146113ce57600080fd5b50565b6000813590506113e0816113ba565b92915050565b600060ff82169050919050565b6113fc816113e6565b811461140757600080fd5b50565b600081359050611419816113f3565b92915050565b600080600080600080600080610100898b0312156114405761143f611312565b5b600061144e8b828c0161133d565b985050602061145f8b828c01611373565b97505060406114708b828c016113d1565b96505060606114818b828c016113d1565b95505060806114928b828c01611373565b94505060a06114a38b828c0161140a565b93505060c06114b48b828c0161133d565b92505060e06114c58b828c0161133d565b9150509295985092959890939650565b60008115159050919050565b6114ea816114d5565b82525050565b600060208201905061150560008301846114e1565b92915050565b60008060006060848603121561152457611523611312565b5b60006115328682870161133d565b9350506020611543868287016113d1565b925050604061155486828701611373565b9150509250925092565b6000806000806080858703121561157857611577611312565b5b60006115868782880161133d565b945050602061159787828801611373565b93505060406115a8878288016113d1565b92505060606115b987828801611373565b91505092959194509250565b6115ce8161131c565b82525050565b60006020820190506115e960008301846115c5565b92915050565b600080600080600080600060e0888a03121561160e5761160d611312565b5b600061161c8a828b0161133d565b975050602061162d8a828b01611373565b965050604061163e8a828b016113d1565b955050606061164f8a828b01611373565b94505060806116608a828b0161140a565b93505060a06116718a828b0161133d565b92505060c06116828a828b0161133d565b91505092959891949750929550565b61169a816113a8565b82525050565b60006020820190506116b56000830184611691565b92915050565b600080600080600060a086880312156116d7576116d6611312565b5b60006116e58882890161133d565b95505060206116f688828901611373565b9450506040611707888289016113d1565b9350506060611718888289016113d1565b925050608061172988828901611373565b9150509295509295909350565b61173f816113e6565b82525050565b600060208201905061175a6000830184611736565b92915050565b600061176b82611388565b9050919050565b61177b81611760565b811461178657600080fd5b50565b60008135905061179881611772565b92915050565b600080600080608085870312156117b8576117b7611312565b5b60006117c68782880161133d565b94505060206117d787828801611789565b93505060406117e887828801611373565b92505060606117f987828801611373565b91505092959194509250565b6000806000806080858703121561181f5761181e611312565b5b600061182d8782880161133d565b945050602061183e878288016113d1565b935050604061184f878288016113d1565b925050606061186087828801611373565b91505092959194509250565b600080fd5b600080fd5b600080fd5b60008083601f8401126118915761189061186c565b5b8235905067ffffffffffffffff8111156118ae576118ad611871565b5b6020830191508360208202830111156118ca576118c9611876565b5b9250929050565b60008083601f8401126118e7576118e661186c565b5b8235905067ffffffffffffffff81111561190457611903611871565b5b6020830191508360208202830111156119205761191f611876565b5b9250929050565b60008083601f84011261193d5761193c61186c565b5b8235905067ffffffffffffffff81111561195a57611959611871565b5b60208301915083602082028301111561197657611975611876565b5b9250929050565b6000806000806000806000806080898b03121561199d5761199c611312565b5b600089013567ffffffffffffffff8111156119bb576119ba611317565b5b6119c78b828c0161187b565b9850985050602089013567ffffffffffffffff8111156119ea576119e9611317565b5b6119f68b828c016118d1565b9650965050604089013567ffffffffffffffff811115611a1957611a18611317565b5b611a258b828c01611927565b9450945050606089013567ffffffffffffffff811115611a4857611a47611317565b5b611a548b828c016118d1565b92509250509295985092959890939650565b600060208284031215611a7c57611a7b611312565b5b6000611a8a8482850161133d565b91505092915050565b60008083601f840112611aa957611aa861186c565b5b8235905067ffffffffffffffff811115611ac657611ac5611871565b5b6020830191508360e0820283011115611ae257611ae1611876565b5b9250929050565b60008060208385031215611b0057611aff611312565b5b600083013567ffffffffffffffff811115611b1e57611b1d611317565b5b611b2a85828601611a93565b92509250509250929050565b611b3f81611352565b82525050565b600060c082019050611b5a60008301896115c5565b611b6760208301886115c5565b611b746040830187611b36565b611b816060830186611691565b611b8e6080830185611691565b611b9b60a0830184611b36565b979650505050505050565b600081905092915050565b7f1901000000000000000000000000000000000000000000000000000000000000600082015250565b6000611be7600283611ba6565b9150611bf282611bb1565b600282019050919050565b6000819050919050565b611c18611c138261131c565b611bfd565b82525050565b6000611c2982611bda565b9150611c358285611c07565b602082019150611c458284611c07565b6020820191508190509392505050565b6000608082019050611c6a60008301876115c5565b611c776020830186611736565b611c8460408301856115c5565b611c9160608301846115c5565b95945050505050565b600060c082019050611caf60008301896115c5565b611cbc60208301886115c5565b611cc96040830187611b36565b611cd66060830186611691565b611ce36080830185611b36565b611cf060a0830184611691565b979650505050505050565b600082825260208201905092915050565b7f4574686572537761703a207377617020686173206e6f742074696d6564206f7560008201527f7420796574000000000000000000000000000000000000000000000000000000602082015250565b6000611d68602583611cfb565b9150611d7382611d0c565b604082019050919050565b60006020820190508181036000830152611d9781611d5b565b9050919050565b7f4574686572537761703a2073656e7420616d6f756e74206d757374206265206760008201527f726561746572207468616e207468652070726570617920616d6f756e74000000602082015250565b6000611dfa603d83611cfb565b9150611e0582611d9e565b604082019050919050565b60006020820190508181036000830152611e2981611ded565b9050919050565b7f4e487b7100000000000000000000000000000000000000000000000000000000600052601160045260246000fd5b6000611e6a82611352565b9150611e7583611352565b9250828203905081811115611e8d57611e8c611e30565b5b92915050565b7f4e487b7100000000000000000000000000000000000000000000000000000000600052603260045260246000fd5b600060208284031215611ed857611ed7611312565b5b6000611ee6848285016113d1565b91505092915050565b600060208284031215611f0557611f04611312565b5b6000611f138482850161140a565b91505092915050565b600060a082019050611f3160008301886115c5565b611f3e60208301876115c5565b611f4b6040830186611b36565b611f586060830185611691565b611f656080830184611b36565b9695505050505050565b7f4574686572537761703a20696e76616c6964207369676e617475726500000000600082015250565b6000611fa5601c83611cfb565b9150611fb082611f6f565b602082019050919050565b60006020820190508181036000830152611fd481611f98565b9050919050565b7f4574686572537761703a206c6f636b656420616d6f756e74206d757374206e6f60008201527f74206265207a65726f0000000000000000000000000000000000000000000000602082015250565b6000612037602983611cfb565b915061204282611fdb565b604082019050919050565b600060208201905081810360008301526120668161202a565b9050919050565b7f4574686572537761703a20737761702065786973747320616c72656164790000600082015250565b60006120a3601e83611cfb565b91506120ae8261206d565b602082019050919050565b600060208201905081810360008301526120d281612096565b9050919050565b60006040820190506120ee6000830185611b36565b6120fb6020830184611b36565b9392505050565b600061210e8284611c07565b60208201915081905092915050565b600081519050919050565b600081905092915050565b60005b83811015612151578082015181840152602081019050612136565b60008484015250505050565b60006121688261211d565b6121728185612128565b9350612182818560208601612133565b80840191505092915050565b600061219a828461215d565b915081905092915050565b6000815190506121b481611326565b92915050565b6000602082840312156121d0576121cf611312565b5b60006121de848285016121a5565b91505092915050565b7f4574686572537761703a20636f6d6d69746d656e742063616e6e6f742062652060008201527f636c61696d656420617320737761700000000000000000000000000000000000602082015250565b6000612243602f83611cfb565b915061224e826121e7565b604082019050919050565b6000602082019050818103600083015261227281612236565b9050919050565b50565b6000612289600083612128565b915061229482612279565b600082019050919050565b60006122aa8261227c565b9150819050919050565b7f5472616e7366657248656c7065723a20636f756c64206e6f74207472616e736660008201527f6572204574686572000000000000000000000000000000000000000000000000602082015250565b6000612310602883611cfb565b915061231b826122b4565b604082019050919050565b6000602082019050818103600083015261233f81612303565b9050919050565b7f4574686572537761703a207377617020686173206e6f204574686572206c6f6360008201527f6b656420696e2074686520636f6e747261637400000000000000000000000000602082015250565b60006123a2603383611cfb565b91506123ad82612346565b604082019050919050565b600060208201905081810360008301526123d181612395565b905091905056fea2646970667358221220d15eeacddce9e2b77f27ffc66ba4eb535908b2905aa93c4268dda16f14a33a2264736f6c63430008210033","linkReferences":{}},"methodIdentifiers":{"DOMAIN_SEPARATOR()":"3644e515","TYPEHASH_CLAIM()":"ebb7af92","TYPEHASH_COMMIT()":"5073c277","TYPEHASH_REFUND()":"a9ab4d5b","VERSION()":"ffa1ad74","checkCommitmentSignature(bytes32,uint256,address,address,uint256,uint8,bytes32,bytes32)":"0685d21e","claim(bytes32,uint256,address,address,uint256)":"cd413efa","claim(bytes32,uint256,address,address,uint256,uint8,bytes32,bytes32)":"b2b78df8","claim(bytes32,uint256,address,uint256)":"c3c37fbc","claim(bytes32,uint256,address,uint256,uint8,bytes32,bytes32)":"3648a807","claimBatch((bytes32,uint256,address,uint256,uint8,bytes32,bytes32)[])":"f3382d57","claimBatch(bytes32[],uint256[],address[],uint256[])":"c2c3a8c9","hashValues(bytes32,uint256,address,address,uint256)":"8b2f8f82","lock(bytes32,address,address,uint256)":"799f212b","lock(bytes32,address,uint256)":"0899146b","lockPrepayMinerfee(bytes32,address,uint256,uint256)":"6fa4ae60","refund(bytes32,uint256,address,address,uint256)":"36504721","refund(bytes32,uint256,address,uint256)":"35cd4ccb","refundCooperative(bytes32,uint256,address,address,uint256,uint8,bytes32,bytes32)":"fb35dd96","refundCooperative(bytes32,uint256,address,uint256,uint8,bytes32,bytes32)":"fe237d45","swaps(bytes32)":"eb84e7f2","version()":"54fd4d50"},"id":4}