{"abi":[{"type":"constructor","inputs":[{"name":"inputToken","type":"address","internalType":"contract TestERC20"},{"name":"outputToken","type":"address","internalType":"contract TestERC20"}],"stateMutability":"nonpayable"},{"type":"function","name":"swap","inputs":[{"name":"amount","type":"uint256","internalType":"uint256"}],"outputs":[],"stateMutability":"nonpayable"}],"bytecode":{"object":"0x60c060405234801561000f575f5ffd5b506040516104a23803806104a28339818101604052810190610031919061010f565b8173ffffffffffffffffffffffffffffffffffffffff1660808173ffffffffffffffffffffffffffffffffffffffff16815250508073ffffffffffffffffffffffffffffffffffffffff1660a08173ffffffffffffffffffffffffffffffffffffffff1681525050505061014d565b5f5ffd5b5f73ffffffffffffffffffffffffffffffffffffffff82169050919050565b5f6100cd826100a4565b9050919050565b5f6100de826100c3565b9050919050565b6100ee816100d4565b81146100f8575f5ffd5b50565b5f81519050610109816100e5565b92915050565b5f5f60408385031215610125576101246100a0565b5b5f610132858286016100fb565b9250506020610143858286016100fb565b9150509250929050565b60805160a05161033661016c5f395f60f001525f604b01526103365ff3fe608060405234801561000f575f5ffd5b5060043610610029575f3560e01c806394b918de1461002d575b5f5ffd5b610047600480360381019061004291906101cb565b610049565b005b7f000000000000000000000000000000000000000000000000000000000000000073ffffffffffffffffffffffffffffffffffffffff166323b872dd3330846040518463ffffffff1660e01b81526004016100a693929190610244565b6020604051808303815f875af11580156100c2573d5f5f3e3d5ffd5b505050506040513d601f19601f820116820180604052508101906100e691906102ae565b6100ee575f5ffd5b7f000000000000000000000000000000000000000000000000000000000000000073ffffffffffffffffffffffffffffffffffffffff1663a9059cbb33836040518363ffffffff1660e01b81526004016101499291906102d9565b6020604051808303815f875af1158015610165573d5f5f3e3d5ffd5b505050506040513d601f19601f8201168201806040525081019061018991906102ae565b610191575f5ffd5b50565b5f5ffd5b5f819050919050565b6101aa81610198565b81146101b4575f5ffd5b50565b5f813590506101c5816101a1565b92915050565b5f602082840312156101e0576101df610194565b5b5f6101ed848285016101b7565b91505092915050565b5f73ffffffffffffffffffffffffffffffffffffffff82169050919050565b5f61021f826101f6565b9050919050565b61022f81610215565b82525050565b61023e81610198565b82525050565b5f6060820190506102575f830186610226565b6102646020830185610226565b6102716040830184610235565b949350505050565b5f8115159050919050565b61028d81610279565b8114610297575f5ffd5b50565b5f815190506102a881610284565b92915050565b5f602082840312156102c3576102c2610194565b5b5f6102d08482850161029a565b91505092915050565b5f6040820190506102ec5f830185610226565b6102f96020830184610235565b939250505056fea26469706673582212200b095c458f333519fd555eb9df1235b274eec64b9ba96fbfd3ffca8612f5ebd964736f6c63430008210033","linkReferences":{}},"methodIdentifiers":{"swap(uint256)":"94b918de"},"id":16}