{"abi":[{"type":"constructor","inputs":[{"name":"token","type":"address","internalType":"contract TestERC20"}],"stateMutability":"nonpayable"},{"type":"function","name":"lastAmountLD","inputs":[],"outputs":[{"name":"","type":"uint256","internalType":"uint256"}],"stateMutability":"view"},{"type":"function","name":"lastComposeMsg","inputs":[],"outputs":[{"name":"","type":"bytes","internalType":"bytes"}],"stateMutability":"view"},{"type":"function","name":"lastDstEid","inputs":[],"outputs":[{"name":"","type":"uint32","internalType":"uint32"}],"stateMutability":"view"},{"type":"function","name":"lastExtraOptions","inputs":[],"outputs":[{"name":"","type":"bytes","internalType":"bytes"}],"stateMutability":"view"},{"type":"function","name":"lastLzTokenFee","inputs":[],"outputs":[{"name":"","type":"uint256","internalType":"uint256"}],"stateMutability":"view"},{"type":"function","name":"lastMinAmountLD","inputs":[],"outputs":[{"name":"","type":"uint256","internalType":"uint256"}],"stateMutability":"view"},{"type":"function","name":"lastMsgValue","inputs":[],"outputs":[{"name":"","type":"uint256","internalType":"uint256"}],"stateMutability":"view"},{"type":"function","name":"lastNativeFee","inputs":[],"outputs":[{"name":"","type":"uint256","internalType":"uint256"}],"stateMutability":"view"},{"type":"function","name":"lastOftCmd","inputs":[],"outputs":[{"name":"","type":"bytes","internalType":"bytes"}],"stateMutability":"view"},{"type":"function","name":"lastRefundAddress","inputs":[],"outputs":[{"name":"","type":"address","internalType":"address"}],"stateMutability":"view"},{"type":"function","name":"lastSender","inputs":[],"outputs":[{"name":"","type":"address","internalType":"address"}],"stateMutability":"view"},{"type":"function","name":"lastTo","inputs":[],"outputs":[{"name":"","type":"bytes32","internalType":"bytes32"}],"stateMutability":"view"},{"type":"function","name":"send","inputs":[{"name":"_sendParam","type":"tuple","internalType":"struct OFT.SendParam","components":[{"name":"dstEid","type":"uint32","internalType":"uint32"},{"name":"to","type":"bytes32","internalType":"bytes32"},{"name":"amountLD","type":"uint256","internalType":"uint256"},{"name":"minAmountLD","type":"uint256","internalType":"uint256"},{"name":"extraOptions","type":"bytes","internalType":"bytes"},{"name":"composeMsg","type":"bytes","internalType":"bytes"},{"name":"oftCmd","type":"bytes","internalType":"bytes"}]},{"name":"_fee","type":"tuple","internalType":"struct OFT.MessagingFee","components":[{"name":"nativeFee","type":"uint256","internalType":"uint256"},{"name":"lzTokenFee","type":"uint256","internalType":"uint256"}]},{"name":"_refundAddress","type":"address","internalType":"address"}],"outputs":[{"name":"msgReceipt","type":"tuple","internalType":"struct OFT.MessagingReceipt","components":[{"name":"guid","type":"bytes32","internalType":"bytes32"},{"name":"nonce","type":"uint64","internalType":"uint64"},{"name":"fee","type":"tuple","internalType":"struct OFT.MessagingFee","components":[{"name":"nativeFee","type":"uint256","internalType":"uint256"},{"name":"lzTokenFee","type":"uint256","internalType":"uint256"}]}]},{"name":"oftReceipt","type":"tuple","internalType":"struct OFT.OFTReceipt","components":[{"name":"amountSentLD","type":"uint256","internalType":"uint256"},{"name":"amountReceivedLD","type":"uint256","internalType":"uint256"}]}],"stateMutability":"payable"}],"bytecode":{"object":"0x60a060405234801561000f575f5ffd5b506040516111f23803806111f2833981810160405281019061003191906100da565b8073ffffffffffffffffffffffffffffffffffffffff1660808173ffffffffffffffffffffffffffffffffffffffff168152505050610105565b5f5ffd5b5f73ffffffffffffffffffffffffffffffffffffffff82169050919050565b5f6100988261006f565b9050919050565b5f6100a98261008e565b9050919050565b6100b98161009f565b81146100c3575f5ffd5b50565b5f815190506100d4816100b0565b92915050565b5f602082840312156100ef576100ee61006b565b5b5f6100fc848285016100c6565b91505092915050565b6080516110d561011d5f395f61051a01526110d55ff3fe6080604052600436106100c1575f3560e01c806386c285b01161007e578063c146844711610058578063c14684471461023f578063c7c7f5b314610269578063d01594b11461029a578063f20cd6a9146102c4576100c1565b806386c285b0146101c15780638c226741146101eb5780639d35670814610215576100c1565b80630974250d146100c557806321c43217146100ef578063256fec88146101195780633b86a4011461014357806340d140a91461016d578063463d1fca14610197575b5f5ffd5b3480156100d0575f5ffd5b506100d96102ee565b6040516100e6919061084b565b60405180910390f35b3480156100fa575f5ffd5b5061010361037a565b60405161011091906108aa565b60405180910390f35b348015610124575f5ffd5b5061012d61039f565b60405161013a91906108aa565b60405180910390f35b34801561014e575f5ffd5b506101576103c3565b60405161016491906108db565b60405180910390f35b348015610178575f5ffd5b506101816103c9565b60405161018e919061084b565b60405180910390f35b3480156101a2575f5ffd5b506101ab610455565b6040516101b891906108db565b60405180910390f35b3480156101cc575f5ffd5b506101d561045b565b6040516101e291906108db565b60405180910390f35b3480156101f6575f5ffd5b506101ff610461565b60405161020c9190610912565b60405180910390f35b348015610220575f5ffd5b50610229610476565b604051610236919061084b565b60405180910390f35b34801561024a575f5ffd5b50610253610502565b6040516102609190610943565b60405180910390f35b610283600480360381019061027e91906109d7565b610508565b604051610291929190610b1d565b60405180910390f35b3480156102a5575f5ffd5b506102ae610770565b6040516102bb91906108db565b60405180910390f35b3480156102cf575f5ffd5b506102d8610776565b6040516102e591906108db565b60405180910390f35b600680546102fb90610b71565b80601f016020809104026020016040519081016040528092919081815260200182805461032790610b71565b80156103725780601f1061034957610100808354040283529160200191610372565b820191905f5260205f20905b81548152906001019060200180831161035557829003601f168201915b505050505081565b60095f9054906101000a900473ffffffffffffffffffffffffffffffffffffffff1681565b5f5f9054906101000a900473ffffffffffffffffffffffffffffffffffffffff1681565b60075481565b600580546103d690610b71565b80601f016020809104026020016040519081016040528092919081815260200182805461040290610b71565b801561044d5780601f106104245761010080835404028352916020019161044d565b820191905f5260205f20905b81548152906001019060200180831161043057829003601f168201915b505050505081565b600a5481565b60025481565b5f60149054906101000a900463ffffffff1681565b6004805461048390610b71565b80601f01602080910402602001604051908101604052809291908181526020018280546104af90610b71565b80156104fa5780601f106104d1576101008083540402835291602001916104fa565b820191905f5260205f20905b8154815290600101906020018083116104dd57829003601f168201915b505050505081565b60015481565b61051061077c565b6105186107ab565b7f000000000000000000000000000000000000000000000000000000000000000073ffffffffffffffffffffffffffffffffffffffff166323b872dd333088604001356040518463ffffffff1660e01b815260040161057993929190610ba1565b6020604051808303815f875af1158015610595573d5f5f3e3d5ffd5b505050506040513d601f19601f820116820180604052508101906105b99190610c0b565b6105c1575f5ffd5b335f5f6101000a81548173ffffffffffffffffffffffffffffffffffffffff021916908373ffffffffffffffffffffffffffffffffffffffff160217905550845f0160208101906106129190610c60565b5f60146101000a81548163ffffffff021916908363ffffffff1602179055508460200135600181905550846040013560028190555084606001356003819055508480608001906106629190610c97565b60049182610671929190610ee1565b50848060a001906106829190610c97565b60059182610691929190610ee1565b50848060c001906106a29190610c97565b600691826106b1929190610ee1565b50835f013560078190555083602001356008819055508260095f6101000a81548173ffffffffffffffffffffffffffffffffffffffff021916908373ffffffffffffffffffffffffffffffffffffffff16021790555034600a81905550604051806060016040528060015f1b8152602001600167ffffffffffffffff168152602001858036038101906107449190611074565b815250915060405180604001604052808660400135815260200186606001358152509050935093915050565b60085481565b60035481565b60405180606001604052805f81526020015f67ffffffffffffffff1681526020016107a56107c3565b81525090565b60405180604001604052805f81526020015f81525090565b60405180604001604052805f81526020015f81525090565b5f81519050919050565b5f82825260208201905092915050565b8281835e5f83830152505050565b5f601f19601f8301169050919050565b5f61081d826107db565b61082781856107e5565b93506108378185602086016107f5565b61084081610803565b840191505092915050565b5f6020820190508181035f8301526108638184610813565b905092915050565b5f73ffffffffffffffffffffffffffffffffffffffff82169050919050565b5f6108948261086b565b9050919050565b6108a48161088a565b82525050565b5f6020820190506108bd5f83018461089b565b92915050565b5f819050919050565b6108d5816108c3565b82525050565b5f6020820190506108ee5f8301846108cc565b92915050565b5f63ffffffff82169050919050565b61090c816108f4565b82525050565b5f6020820190506109255f830184610903565b92915050565b5f819050919050565b61093d8161092b565b82525050565b5f6020820190506109565f830184610934565b92915050565b5f604051905090565b5f5ffd5b5f5ffd5b5f5ffd5b5f60e082840312156109865761098561096d565b5b81905092915050565b5f604082840312156109a4576109a361096d565b5b81905092915050565b6109b68161088a565b81146109c0575f5ffd5b50565b5f813590506109d1816109ad565b92915050565b5f5f5f608084860312156109ee576109ed610965565b5b5f84013567ffffffffffffffff811115610a0b57610a0a610969565b5b610a1786828701610971565b9350506020610a288682870161098f565b9250506060610a39868287016109c3565b9150509250925092565b610a4c8161092b565b82525050565b5f67ffffffffffffffff82169050919050565b610a6e81610a52565b82525050565b610a7d816108c3565b82525050565b604082015f820151610a975f850182610a74565b506020820151610aaa6020850182610a74565b50505050565b608082015f820151610ac45f850182610a43565b506020820151610ad76020850182610a65565b506040820151610aea6040850182610a83565b50505050565b604082015f820151610b045f850182610a74565b506020820151610b176020850182610a74565b50505050565b5f60c082019050610b305f830185610ab0565b610b3d6080830184610af0565b9392505050565b7f4e487b71000000000000000000000000000000000000000000000000000000005f52602260045260245ffd5b5f6002820490506001821680610b8857607f821691505b602082108103610b9b57610b9a610b44565b5b50919050565b5f606082019050610bb45f83018661089b565b610bc1602083018561089b565b610bce60408301846108cc565b949350505050565b5f8115159050919050565b610bea81610bd6565b8114610bf4575f5ffd5b50565b5f81519050610c0581610be1565b92915050565b5f60208284031215610c2057610c1f610965565b5b5f610c2d84828501610bf7565b91505092915050565b610c3f816108f4565b8114610c49575f5ffd5b50565b5f81359050610c5a81610c36565b92915050565b5f60208284031215610c7557610c74610965565b5b5f610c8284828501610c4c565b91505092915050565b5f5ffd5b5f5ffd5b5f5ffd5b5f5f83356001602003843603038112610cb357610cb2610c8b565b5b80840192508235915067ffffffffffffffff821115610cd557610cd4610c8f565b5b602083019250600182023603831315610cf157610cf0610c93565b5b509250929050565b5f82905092915050565b7f4e487b71000000000000000000000000000000000000000000000000000000005f52604160045260245ffd5b5f819050815f5260205f209050919050565b5f6020601f8301049050919050565b5f82821b905092915050565b5f60088302610d8c7fffffffffffffffffffffffffffffffffffffffffffffffffffffffffffffffff82610d51565b610d968683610d51565b95508019841693508086168417925050509392505050565b5f819050919050565b5f610dd1610dcc610dc7846108c3565b610dae565b6108c3565b9050919050565b5f819050919050565b610dea83610db7565b610dfe610df682610dd8565b848454610d5d565b825550505050565b5f5f905090565b610e15610e06565b610e20818484610de1565b505050565b5f5b82811015610e4657610e3b5f828401610e0d565b600181019050610e27565b505050565b601f821115610e995782821115610e9857610e6581610d30565b610e6e83610d42565b610e7785610d42565b6020861015610e84575f90505b808301610e9382840382610e25565b505050505b5b505050565b5f82821c905092915050565b5f610eb95f1984600802610e9e565b1980831691505092915050565b5f610ed18383610eaa565b9150826002028217905092915050565b610eeb8383610cf9565b67ffffffffffffffff811115610f0457610f03610d03565b5b610f0e8254610b71565b610f19828285610e4b565b5f601f831160018114610f46575f8415610f34578287013590505b610f3e8582610ec6565b865550610fa5565b601f198416610f5486610d30565b5f5b82811015610f7b57848901358255600182019150602085019450602081019050610f56565b86831015610f985784890135610f94601f891682610eaa565b8355505b6001600288020188555050505b50505050505050565b5f5ffd5b610fbb82610803565b810181811067ffffffffffffffff82111715610fda57610fd9610d03565b5b80604052505050565b5f610fec61095c565b9050610ff88282610fb2565b919050565b611006816108c3565b8114611010575f5ffd5b50565b5f8135905061102181610ffd565b92915050565b5f6040828403121561103c5761103b610fae565b5b6110466040610fe3565b90505f61105584828501611013565b5f83015250602061106884828501611013565b60208301525092915050565b5f6040828403121561108957611088610965565b5b5f61109684828501611027565b9150509291505056fea26469706673582212204e8b0f8c9750c8a24c6129fd4b4834cd6dd5d10d9f8b496ac98147ef1da5859b64736f6c63430008210033","linkReferences":{}},"methodIdentifiers":{"lastAmountLD()":"86c285b0","lastComposeMsg()":"40d140a9","lastDstEid()":"8c226741","lastExtraOptions()":"9d356708","lastLzTokenFee()":"d01594b1","lastMinAmountLD()":"f20cd6a9","lastMsgValue()":"463d1fca","lastNativeFee()":"3b86a401","lastOftCmd()":"0974250d","lastRefundAddress()":"21c43217","lastSender()":"256fec88","lastTo()":"c1468447","send((uint32,bytes32,uint256,uint256,bytes,bytes,bytes),(uint256,uint256),address)":"c7c7f5b3"},"id":16}