{"abi":[{"type":"constructor","inputs":[{"name":"token","type":"address","internalType":"contract TestERC20"}],"stateMutability":"nonpayable"},{"type":"function","name":"swap","inputs":[],"outputs":[],"stateMutability":"payable"}],"bytecode":{"object":"0x60a060405234801561000f575f5ffd5b50604051610304380380610304833981810160405281019061003191906100da565b8073ffffffffffffffffffffffffffffffffffffffff1660808173ffffffffffffffffffffffffffffffffffffffff168152505050610105565b5f5ffd5b5f73ffffffffffffffffffffffffffffffffffffffff82169050919050565b5f6100988261006f565b9050919050565b5f6100a98261008e565b9050919050565b6100b98161009f565b81146100c3575f5ffd5b50565b5f815190506100d4816100b0565b92915050565b5f602082840312156100ef576100ee61006b565b5b5f6100fc848285016100c6565b91505092915050565b6080516101e861011c5f395f602d01526101e85ff3fe60806040526004361061001d575f3560e01c80638119c06514610021575b5f5ffd5b61002961002b565b005b7f000000000000000000000000000000000000000000000000000000000000000073ffffffffffffffffffffffffffffffffffffffff1663a9059cbb33346040518363ffffffff1660e01b8152600401610086929190610127565b6020604051808303815f875af11580156100a2573d5f5f3e3d5ffd5b505050506040513d601f19601f820116820180604052508101906100c69190610187565b6100ce575f5ffd5b565b5f73ffffffffffffffffffffffffffffffffffffffff82169050919050565b5f6100f9826100d0565b9050919050565b610109816100ef565b82525050565b5f819050919050565b6101218161010f565b82525050565b5f60408201905061013a5f830185610100565b6101476020830184610118565b9392505050565b5f5ffd5b5f8115159050919050565b61016681610152565b8114610170575f5ffd5b50565b5f815190506101818161015d565b92915050565b5f6020828403121561019c5761019b61014e565b5b5f6101a984828501610173565b9150509291505056fea2646970667358221220596c6868b03a21969d842687ea3cef3f2e70b8b4d10b1fdcb959181fb96cba9564736f6c63430008210033","linkReferences":{}},"methodIdentifiers":{"swap()":"8119c065"},"id":16}