{"abi":[{"type":"constructor","inputs":[{"name":"name","type":"string","internalType":"string"},{"name":"symbol","type":"string","internalType":"string"},{"name":"initialDecimals","type":"uint8","internalType":"uint8"},{"name":"initialSupply","type":"uint256","internalType":"uint256"}],"stateMutability":"nonpayable"},{"type":"function","name":"allowance","inputs":[{"name":"owner","type":"address","internalType":"address"},{"name":"spender","type":"address","internalType":"address"}],"outputs":[{"name":"","type":"uint256","internalType":"uint256"}],"stateMutability":"view"},{"type":"function","name":"approve","inputs":[{"name":"spender","type":"address","internalType":"address"},{"name":"value","type":"uint256","internalType":"uint256"}],"outputs":[{"name":"","type":"bool","internalType":"bool"}],"stateMutability":"nonpayable"},{"type":"function","name":"balanceOf","inputs":[{"name":"account","type":"address","internalType":"address"}],"outputs":[{"name":"","type":"uint256","internalType":"uint256"}],"stateMutability":"view"},{"type":"function","name":"decimals","inputs":[],"outputs":[{"name":"","type":"uint8","internalType":"uint8"}],"stateMutability":"view"},{"type":"function","name":"lastAmountLD","inputs":[],"outputs":[{"name":"","type":"uint256","internalType":"uint256"}],"stateMutability":"view"},{"type":"function","name":"lastComposeMsg","inputs":[],"outputs":[{"name":"","type":"bytes","internalType":"bytes"}],"stateMutability":"view"},{"type":"function","name":"lastDstEid","inputs":[],"outputs":[{"name":"","type":"uint32","internalType":"uint32"}],"stateMutability":"view"},{"type":"function","name":"lastExtraOptions","inputs":[],"outputs":[{"name":"","type":"bytes","internalType":"bytes"}],"stateMutability":"view"},{"type":"function","name":"lastLzTokenFee","inputs":[],"outputs":[{"name":"","type":"uint256","internalType":"uint256"}],"stateMutability":"view"},{"type":"function","name":"lastMinAmountLD","inputs":[],"outputs":[{"name":"","type":"uint256","internalType":"uint256"}],"stateMutability":"view"},{"type":"function","name":"lastMsgValue","inputs":[],"outputs":[{"name":"","type":"uint256","internalType":"uint256"}],"stateMutability":"view"},{"type":"function","name":"lastNativeFee","inputs":[],"outputs":[{"name":"","type":"uint256","internalType":"uint256"}],"stateMutability":"view"},{"type":"function","name":"lastOftCmd","inputs":[],"outputs":[{"name":"","type":"bytes","internalType":"bytes"}],"stateMutability":"view"},{"type":"function","name":"lastRefundAddress","inputs":[],"outputs":[{"name":"","type":"address","internalType":"address"}],"stateMutability":"view"},{"type":"function","name":"lastSender","inputs":[],"outputs":[{"name":"","type":"address","internalType":"address"}],"stateMutability":"view"},{"type":"function","name":"lastTo","inputs":[],"outputs":[{"name":"","type":"bytes32","internalType":"bytes32"}],"stateMutability":"view"},{"type":"function","name":"name","inputs":[],"outputs":[{"name":"","type":"string","internalType":"string"}],"stateMutability":"view"},{"type":"function","name":"send","inputs":[{"name":"_sendParam","type":"tuple","internalType":"struct OFT.SendParam","components":[{"name":"dstEid","type":"uint32","internalType":"uint32"},{"name":"to","type":"bytes32","internalType":"bytes32"},{"name":"amountLD","type":"uint256","internalType":"uint256"},{"name":"minAmountLD","type":"uint256","internalType":"uint256"},{"name":"extraOptions","type":"bytes","internalType":"bytes"},{"name":"composeMsg","type":"bytes","internalType":"bytes"},{"name":"oftCmd","type":"bytes","internalType":"bytes"}]},{"name":"_fee","type":"tuple","internalType":"struct OFT.MessagingFee","components":[{"name":"nativeFee","type":"uint256","internalType":"uint256"},{"name":"lzTokenFee","type":"uint256","internalType":"uint256"}]},{"name":"_refundAddress","type":"address","internalType":"address"}],"outputs":[{"name":"msgReceipt","type":"tuple","internalType":"struct OFT.MessagingReceipt","components":[{"name":"guid","type":"bytes32","internalType":"bytes32"},{"name":"nonce","type":"uint64","internalType":"uint64"},{"name":"fee","type":"tuple","internalType":"struct OFT.MessagingFee","components":[{"name":"nativeFee","type":"uint256","internalType":"uint256"},{"name":"lzTokenFee","type":"uint256","internalType":"uint256"}]}]},{"name":"oftReceipt","type":"tuple","internalType":"struct OFT.OFTReceipt","components":[{"name":"amountSentLD","type":"uint256","internalType":"uint256"},{"name":"amountReceivedLD","type":"uint256","internalType":"uint256"}]}],"stateMutability":"payable"},{"type":"function","name":"symbol","inputs":[],"outputs":[{"name":"","type":"string","internalType":"string"}],"stateMutability":"view"},{"type":"function","name":"tokenDecimals","inputs":[],"outputs":[{"name":"","type":"uint8","internalType":"uint8"}],"stateMutability":"view"},{"type":"function","name":"totalSupply","inputs":[],"outputs":[{"name":"","type":"uint256","internalType":"uint256"}],"stateMutability":"view"},{"type":"function","name":"transfer","inputs":[{"name":"to","type":"address","internalType":"address"},{"name":"value","type":"uint256","internalType":"uint256"}],"outputs":[{"name":"","type":"bool","internalType":"bool"}],"stateMutability":"nonpayable"},{"type":"function","name":"transferFrom","inputs":[{"name":"from","type":"address","internalType":"address"},{"name":"to","type":"address","internalType":"address"},{"name":"value","type":"uint256","internalType":"uint256"}],"outputs":[{"name":"","type":"bool","internalType":"bool"}],"stateMutability":"nonpayable"},{"type":"event","name":"Approval","inputs":[{"name":"owner","type":"address","indexed":true,"internalType":"address"},{"name":"spender","type":"address","indexed":true,"internalType":"address"},{"name":"value","type":"uint256","indexed":false,"internalType":"uint256"}],"anonymous":false},{"type":"event","name":"Transfer","inputs":[{"name":"from","type":"address","indexed":true,"internalType":"address"},{"name":"to","type":"address","indexed":true,"internalType":"address"},{"name":"value","type":"uint256","indexed":false,"internalType":"uint256"}],"anonymous":false},{"type":"error","name":"ERC20InsufficientAllowance","inputs":[{"name":"spender","type":"address","internalType":"address"},{"name":"allowance","type":"uint256","internalType":"uint256"},{"name":"needed","type":"uint256","internalType":"uint256"}]},{"type":"error","name":"ERC20InsufficientBalance","inputs":[{"name":"sender","type":"address","internalType":"address"},{"name":"balance","type":"uint256","internalType":"uint256"},{"name":"needed","type":"uint256","internalType":"uint256"}]},{"type":"error","name":"ERC20InvalidApprover","inputs":[{"name":"approver","type":"address","internalType":"address"}]},{"type":"error","name":"ERC20InvalidReceiver","inputs":[{"name":"receiver","type":"address","internalType":"address"}]},{"type":"error","name":"ERC20InvalidSender","inputs":[{"name":"sender","type":"address","internalType":"address"}]},{"type":"error","name":"ERC20InvalidSpender","inputs":[{"name":"spender","type":"address","internalType":"address"}]}],"bytecode":{"object":"0x608060405234801561000f575f5ffd5b50604051612623380380612623833981810160405281019061003191906104e4565b83838383838381600390816100469190610798565b5080600490816100569190610798565b5050508160055f6101000a81548160ff021916908360ff160217905550610083338261009060201b60201c565b505050505050505061097c565b5f73ffffffffffffffffffffffffffffffffffffffff168273ffffffffffffffffffffffffffffffffffffffff1603610100575f6040517fec442f050000000000000000000000000000000000000000000000000000000081526004016100f791906108a6565b60405180910390fd5b6101115f838361011560201b60201c565b5050565b5f73ffffffffffffffffffffffffffffffffffffffff168373ffffffffffffffffffffffffffffffffffffffff1603610165578060025f82825461015991906108ec565b92505081905550610233565b5f5f5f8573ffffffffffffffffffffffffffffffffffffffff1673ffffffffffffffffffffffffffffffffffffffff1681526020019081526020015f20549050818110156101ee578381836040517fe450d38c0000000000000000000000000000000000000000000000000000000081526004016101e59392919061092e565b60405180910390fd5b8181035f5f8673ffffffffffffffffffffffffffffffffffffffff1673ffffffffffffffffffffffffffffffffffffffff1681526020019081526020015f2081905550505b5f73ffffffffffffffffffffffffffffffffffffffff168273ffffffffffffffffffffffffffffffffffffffff160361027a578060025f82825403925050819055506102c4565b805f5f8473ffffffffffffffffffffffffffffffffffffffff1673ffffffffffffffffffffffffffffffffffffffff1681526020019081526020015f205f82825401925050819055505b8173ffffffffffffffffffffffffffffffffffffffff168373ffffffffffffffffffffffffffffffffffffffff167fddf252ad1be2c89b69c2b068fc378daa952ba7f163c4a11628f55a4df523b3ef836040516103219190610963565b60405180910390a3505050565b5f604051905090565b5f5ffd5b5f5ffd5b5f5ffd5b5f5ffd5b5f601f19601f8301169050919050565b7f4e487b71000000000000000000000000000000000000000000000000000000005f52604160045260245ffd5b61038d82610347565b810181811067ffffffffffffffff821117156103ac576103ab610357565b5b80604052505050565b5f6103be61032e565b90506103ca8282610384565b919050565b5f67ffffffffffffffff8211156103e9576103e8610357565b5b6103f282610347565b9050602081019050919050565b8281835e5f83830152505050565b5f61041f61041a846103cf565b6103b5565b90508281526020810184848401111561043b5761043a610343565b5b6104468482856103ff565b509392505050565b5f82601f8301126104625761046161033f565b5b815161047284826020860161040d565b91505092915050565b5f60ff82169050919050565b6104908161047b565b811461049a575f5ffd5b50565b5f815190506104ab81610487565b92915050565b5f819050919050565b6104c3816104b1565b81146104cd575f5ffd5b50565b5f815190506104de816104ba565b92915050565b5f5f5f5f608085870312156104fc576104fb610337565b5b5f85015167ffffffffffffffff8111156105195761051861033b565b5b6105258782880161044e565b945050602085015167ffffffffffffffff8111156105465761054561033b565b5b6105528782880161044e565b93505060406105638782880161049d565b9250506060610574878288016104d0565b91505092959194509250565b5f81519050919050565b7f4e487b71000000000000000000000000000000000000000000000000000000005f52602260045260245ffd5b5f60028204905060018216806105ce57607f821691505b6020821081036105e1576105e061058a565b5b50919050565b5f819050815f5260205f209050919050565b5f6020601f8301049050919050565b5f82821b905092915050565b5f600883026106437fffffffffffffffffffffffffffffffffffffffffffffffffffffffffffffffff82610608565b61064d8683610608565b95508019841693508086168417925050509392505050565b5f819050919050565b5f61068861068361067e846104b1565b610665565b6104b1565b9050919050565b5f819050919050565b6106a18361066e565b6106b56106ad8261068f565b848454610614565b825550505050565b5f5f905090565b6106cc6106bd565b6106d7818484610698565b505050565b5f5b828110156106fd576106f25f8284016106c4565b6001810190506106de565b505050565b601f821115610750578282111561074f5761071c816105e7565b610725836105f9565b61072e856105f9565b602086101561073b575f90505b80830161074a828403826106dc565b505050505b5b505050565b5f82821c905092915050565b5f6107705f1984600802610755565b1980831691505092915050565b5f6107888383610761565b9150826002028217905092915050565b6107a182610580565b67ffffffffffffffff8111156107ba576107b9610357565b5b6107c482546105b7565b6107cf828285610702565b5f60209050601f831160018114610800575f84156107ee578287015190505b6107f8858261077d565b86555061085f565b601f19841661080e866105e7565b5f5b8281101561083557848901518255600182019150602085019450602081019050610810565b86831015610852578489015161084e601f891682610761565b8355505b6001600288020188555050505b505050505050565b5f73ffffffffffffffffffffffffffffffffffffffff82169050919050565b5f61089082610867565b9050919050565b6108a081610886565b82525050565b5f6020820190506108b95f830184610897565b92915050565b7f4e487b71000000000000000000000000000000000000000000000000000000005f52601160045260245ffd5b5f6108f6826104b1565b9150610901836104b1565b9250828201905080821115610919576109186108bf565b5b92915050565b610928816104b1565b82525050565b5f6060820190506109415f830186610897565b61094e602083018561091f565b61095b604083018461091f565b949350505050565b5f6020820190506109765f83018461091f565b92915050565b611c9a806109895f395ff3fe60806040526004361061013f575f3560e01c8063463d1fca116100b5578063a9059cbb1161006e578063a9059cbb14610443578063c14684471461047f578063c7c7f5b3146104a9578063d01594b1146104da578063dd62ed3e14610504578063f20cd6a9146105405761013f565b8063463d1fca1461033557806370a082311461035f57806386c285b01461039b5780638c226741146103c557806395d89b41146103ef5780639d356708146104195761013f565b806323b872dd1161010757806323b872dd14610227578063256fec8814610263578063313ce5671461028d5780633b86a401146102b75780633b97e856146102e157806340d140a91461030b5761013f565b806306fdde0314610143578063095ea7b31461016d5780630974250d146101a957806318160ddd146101d357806321c43217146101fd575b5f5ffd5b34801561014e575f5ffd5b5061015761056a565b6040516101649190611240565b60405180910390f35b348015610178575f5ffd5b50610193600480360381019061018e91906112fe565b6105fa565b6040516101a09190611356565b60405180910390f35b3480156101b4575f5ffd5b506101bd61061c565b6040516101ca91906113c1565b60405180910390f35b3480156101de575f5ffd5b506101e76106a8565b6040516101f491906113f0565b60405180910390f35b348015610208575f5ffd5b506102116106b1565b60405161021e9190611418565b60405180910390f35b348015610232575f5ffd5b5061024d60048036038101906102489190611431565b6106d6565b60405161025a9190611356565b60405180910390f35b34801561026e575f5ffd5b50610277610704565b6040516102849190611418565b60405180910390f35b348015610298575f5ffd5b506102a161072a565b6040516102ae919061149c565b60405180910390f35b3480156102c2575f5ffd5b506102cb61073f565b6040516102d891906113f0565b60405180910390f35b3480156102ec575f5ffd5b506102f5610745565b604051610302919061149c565b60405180910390f35b348015610316575f5ffd5b5061031f610757565b60405161032c91906113c1565b60405180910390f35b348015610340575f5ffd5b506103496107e3565b60405161035691906113f0565b60405180910390f35b34801561036a575f5ffd5b50610385600480360381019061038091906114b5565b6107e9565b60405161039291906113f0565b60405180910390f35b3480156103a6575f5ffd5b506103af61082e565b6040516103bc91906113f0565b60405180910390f35b3480156103d0575f5ffd5b506103d9610834565b6040516103e691906114fe565b60405180910390f35b3480156103fa575f5ffd5b5061040361084a565b6040516104109190611240565b60405180910390f35b348015610424575f5ffd5b5061042d6108da565b60405161043a91906113c1565b60405180910390f35b34801561044e575f5ffd5b50610469600480360381019061046491906112fe565b610966565b6040516104769190611356565b60405180910390f35b34801561048a575f5ffd5b50610493610988565b6040516104a0919061152f565b60405180910390f35b6104c360048036038101906104be9190611588565b61098e565b6040516104d19291906116ce565b60405180910390f35b3480156104e5575f5ffd5b506104ee610b5f565b6040516104fb91906113f0565b60405180910390f35b34801561050f575f5ffd5b5061052a600480360381019061052591906116f5565b610b65565b60405161053791906113f0565b60405180910390f35b34801561054b575f5ffd5b50610554610be7565b60405161056191906113f0565b60405180910390f35b60606003805461057990611760565b80601f01602080910402602001604051908101604052809291908181526020018280546105a590611760565b80156105f05780601f106105c7576101008083540402835291602001916105f0565b820191905f5260205f20905b8154815290600101906020018083116105d357829003601f168201915b5050505050905090565b5f5f610604610bed565b9050610611818585610bf4565b600191505092915050565b600b805461062990611760565b80601f016020809104026020016040519081016040528092919081815260200182805461065590611760565b80156106a05780601f10610677576101008083540402835291602001916106a0565b820191905f5260205f20905b81548152906001019060200180831161068357829003601f168201915b505050505081565b5f600254905090565b600e5f9054906101000a900473ffffffffffffffffffffffffffffffffffffffff1681565b5f5f6106e0610bed565b90506106ed858285610c06565b6106f8858585610c99565b60019150509392505050565b600560019054906101000a900473ffffffffffffffffffffffffffffffffffffffff1681565b5f60055f9054906101000a900460ff16905090565b600c5481565b60055f9054906101000a900460ff1681565b600a805461076490611760565b80601f016020809104026020016040519081016040528092919081815260200182805461079090611760565b80156107db5780601f106107b2576101008083540402835291602001916107db565b820191905f5260205f20905b8154815290600101906020018083116107be57829003601f168201915b505050505081565b600f5481565b5f5f5f8373ffffffffffffffffffffffffffffffffffffffff1673ffffffffffffffffffffffffffffffffffffffff1681526020019081526020015f20549050919050565b60075481565b600560159054906101000a900463ffffffff1681565b60606004805461085990611760565b80601f016020809104026020016040519081016040528092919081815260200182805461088590611760565b80156108d05780601f106108a7576101008083540402835291602001916108d0565b820191905f5260205f20905b8154815290600101906020018083116108b357829003601f168201915b5050505050905090565b600980546108e790611760565b80601f016020809104026020016040519081016040528092919081815260200182805461091390611760565b801561095e5780601f106109355761010080835404028352916020019161095e565b820191905f5260205f20905b81548152906001019060200180831161094157829003601f168201915b505050505081565b5f5f610970610bed565b905061097d818585610c99565b600191505092915050565b60065481565b610996611171565b61099e6111a0565b6109ad33308760400135610c99565b33600560016101000a81548173ffffffffffffffffffffffffffffffffffffffff021916908373ffffffffffffffffffffffffffffffffffffffff160217905550845f016020810190610a0091906117ba565b600560156101000a81548163ffffffff021916908363ffffffff160217905550846020013560068190555084604001356007819055508460600135600881905550848060800190610a5191906117f1565b60099182610a60929190611a3b565b50848060a00190610a7191906117f1565b600a9182610a80929190611a3b565b50848060c00190610a9191906117f1565b600b9182610aa0929190611a3b565b50835f0135600c819055508360200135600d8190555082600e5f6101000a81548173ffffffffffffffffffffffffffffffffffffffff021916908373ffffffffffffffffffffffffffffffffffffffff16021790555034600f81905550604051806060016040528060015f1b8152602001600167ffffffffffffffff16815260200185803603810190610b339190611ba4565b815250915060405180604001604052808660400135815260200186606001358152509050935093915050565b600d5481565b5f60015f8473ffffffffffffffffffffffffffffffffffffffff1673ffffffffffffffffffffffffffffffffffffffff1681526020019081526020015f205f8373ffffffffffffffffffffffffffffffffffffffff1673ffffffffffffffffffffffffffffffffffffffff1681526020019081526020015f2054905092915050565b60085481565b5f33905090565b610c018383836001610d89565b505050565b5f610c118484610b65565b90507fffffffffffffffffffffffffffffffffffffffffffffffffffffffffffffffff811015610c935781811015610c84578281836040517ffb8f41b2000000000000000000000000000000000000000000000000000000008152600401610c7b93929190611bcf565b60405180910390fd5b610c9284848484035f610d89565b5b50505050565b5f73ffffffffffffffffffffffffffffffffffffffff168373ffffffffffffffffffffffffffffffffffffffff1603610d09575f6040517f96c6fd1e000000000000000000000000000000000000000000000000000000008152600401610d009190611418565b60405180910390fd5b5f73ffffffffffffffffffffffffffffffffffffffff168273ffffffffffffffffffffffffffffffffffffffff1603610d79575f6040517fec442f05000000000000000000000000000000000000000000000000000000008152600401610d709190611418565b60405180910390fd5b610d84838383610f58565b505050565b5f73ffffffffffffffffffffffffffffffffffffffff168473ffffffffffffffffffffffffffffffffffffffff1603610df9575f6040517fe602df05000000000000000000000000000000000000000000000000000000008152600401610df09190611418565b60405180910390fd5b5f73ffffffffffffffffffffffffffffffffffffffff168373ffffffffffffffffffffffffffffffffffffffff1603610e69575f6040517f94280d62000000000000000000000000000000000000000000000000000000008152600401610e609190611418565b60405180910390fd5b8160015f8673ffffffffffffffffffffffffffffffffffffffff1673ffffffffffffffffffffffffffffffffffffffff1681526020019081526020015f205f8573ffffffffffffffffffffffffffffffffffffffff1673ffffffffffffffffffffffffffffffffffffffff1681526020019081526020015f20819055508015610f52578273ffffffffffffffffffffffffffffffffffffffff168473ffffffffffffffffffffffffffffffffffffffff167f8c5be1e5ebec7d5bd14f71427d1e84f3dd0314c0f7b2291e5b200ac8c7c3b92584604051610f4991906113f0565b60405180910390a35b50505050565b5f73ffffffffffffffffffffffffffffffffffffffff168373ffffffffffffffffffffffffffffffffffffffff1603610fa8578060025f828254610f9c9190611c31565b92505081905550611076565b5f5f5f8573ffffffffffffffffffffffffffffffffffffffff1673ffffffffffffffffffffffffffffffffffffffff1681526020019081526020015f2054905081811015611031578381836040517fe450d38c00000000000000000000000000000000000000000000000000000000815260040161102893929190611bcf565b60405180910390fd5b8181035f5f8673ffffffffffffffffffffffffffffffffffffffff1673ffffffffffffffffffffffffffffffffffffffff1681526020019081526020015f2081905550505b5f73ffffffffffffffffffffffffffffffffffffffff168273ffffffffffffffffffffffffffffffffffffffff16036110bd578060025f8282540392505081905550611107565b805f5f8473ffffffffffffffffffffffffffffffffffffffff1673ffffffffffffffffffffffffffffffffffffffff1681526020019081526020015f205f82825401925050819055505b8173ffffffffffffffffffffffffffffffffffffffff168373ffffffffffffffffffffffffffffffffffffffff167fddf252ad1be2c89b69c2b068fc378daa952ba7f163c4a11628f55a4df523b3ef8360405161116491906113f0565b60405180910390a3505050565b60405180606001604052805f81526020015f67ffffffffffffffff16815260200161119a6111b8565b81525090565b60405180604001604052805f81526020015f81525090565b60405180604001604052805f81526020015f81525090565b5f81519050919050565b5f82825260208201905092915050565b8281835e5f83830152505050565b5f601f19601f8301169050919050565b5f611212826111d0565b61121c81856111da565b935061122c8185602086016111ea565b611235816111f8565b840191505092915050565b5f6020820190508181035f8301526112588184611208565b905092915050565b5f604051905090565b5f5ffd5b5f5ffd5b5f73ffffffffffffffffffffffffffffffffffffffff82169050919050565b5f61129a82611271565b9050919050565b6112aa81611290565b81146112b4575f5ffd5b50565b5f813590506112c5816112a1565b92915050565b5f819050919050565b6112dd816112cb565b81146112e7575f5ffd5b50565b5f813590506112f8816112d4565b92915050565b5f5f6040838503121561131457611313611269565b5b5f611321858286016112b7565b9250506020611332858286016112ea565b9150509250929050565b5f8115159050919050565b6113508161133c565b82525050565b5f6020820190506113695f830184611347565b92915050565b5f81519050919050565b5f82825260208201905092915050565b5f6113938261136f565b61139d8185611379565b93506113ad8185602086016111ea565b6113b6816111f8565b840191505092915050565b5f6020820190508181035f8301526113d98184611389565b905092915050565b6113ea816112cb565b82525050565b5f6020820190506114035f8301846113e1565b92915050565b61141281611290565b82525050565b5f60208201905061142b5f830184611409565b92915050565b5f5f5f6060848603121561144857611447611269565b5b5f611455868287016112b7565b9350506020611466868287016112b7565b9250506040611477868287016112ea565b9150509250925092565b5f60ff82169050919050565b61149681611481565b82525050565b5f6020820190506114af5f83018461148d565b92915050565b5f602082840312156114ca576114c9611269565b5b5f6114d7848285016112b7565b91505092915050565b5f63ffffffff82169050919050565b6114f8816114e0565b82525050565b5f6020820190506115115f8301846114ef565b92915050565b5f819050919050565b61152981611517565b82525050565b5f6020820190506115425f830184611520565b92915050565b5f5ffd5b5f60e0828403121561156157611560611548565b5b81905092915050565b5f6040828403121561157f5761157e611548565b5b81905092915050565b5f5f5f6080848603121561159f5761159e611269565b5b5f84013567ffffffffffffffff8111156115bc576115bb61126d565b5b6115c88682870161154c565b93505060206115d98682870161156a565b92505060606115ea868287016112b7565b9150509250925092565b6115fd81611517565b82525050565b5f67ffffffffffffffff82169050919050565b61161f81611603565b82525050565b61162e816112cb565b82525050565b604082015f8201516116485f850182611625565b50602082015161165b6020850182611625565b50505050565b608082015f8201516116755f8501826115f4565b5060208201516116886020850182611616565b50604082015161169b6040850182611634565b50505050565b604082015f8201516116b55f850182611625565b5060208201516116c86020850182611625565b50505050565b5f60c0820190506116e15f830185611661565b6116ee60808301846116a1565b9392505050565b5f5f6040838503121561170b5761170a611269565b5b5f611718858286016112b7565b9250506020611729858286016112b7565b9150509250929050565b7f4e487b71000000000000000000000000000000000000000000000000000000005f52602260045260245ffd5b5f600282049050600182168061177757607f821691505b60208210810361178a57611789611733565b5b50919050565b611799816114e0565b81146117a3575f5ffd5b50565b5f813590506117b481611790565b92915050565b5f602082840312156117cf576117ce611269565b5b5f6117dc848285016117a6565b91505092915050565b5f5ffd5b5f5ffd5b5f5ffd5b5f5f8335600160200384360303811261180d5761180c6117e5565b5b80840192508235915067ffffffffffffffff82111561182f5761182e6117e9565b5b60208301925060018202360383131561184b5761184a6117ed565b5b509250929050565b5f82905092915050565b7f4e487b71000000000000000000000000000000000000000000000000000000005f52604160045260245ffd5b5f819050815f5260205f209050919050565b5f6020601f8301049050919050565b5f82821b905092915050565b5f600883026118e67fffffffffffffffffffffffffffffffffffffffffffffffffffffffffffffffff826118ab565b6118f086836118ab565b95508019841693508086168417925050509392505050565b5f819050919050565b5f61192b611926611921846112cb565b611908565b6112cb565b9050919050565b5f819050919050565b61194483611911565b61195861195082611932565b8484546118b7565b825550505050565b5f5f905090565b61196f611960565b61197a81848461193b565b505050565b5f5b828110156119a0576119955f828401611967565b600181019050611981565b505050565b601f8211156119f357828211156119f2576119bf8161188a565b6119c88361189c565b6119d18561189c565b60208610156119de575f90505b8083016119ed8284038261197f565b505050505b5b505050565b5f82821c905092915050565b5f611a135f19846008026119f8565b1980831691505092915050565b5f611a2b8383611a04565b9150826002028217905092915050565b611a458383611853565b67ffffffffffffffff811115611a5e57611a5d61185d565b5b611a688254611760565b611a738282856119a5565b5f601f831160018114611aa0575f8415611a8e578287013590505b611a988582611a20565b865550611aff565b601f198416611aae8661188a565b5f5b82811015611ad557848901358255600182019150602085019450602081019050611ab0565b86831015611af25784890135611aee601f891682611a04565b8355505b6001600288020188555050505b50505050505050565b5f5ffd5b611b15826111f8565b810181811067ffffffffffffffff82111715611b3457611b3361185d565b5b80604052505050565b5f611b46611260565b9050611b528282611b0c565b919050565b5f60408284031215611b6c57611b6b611b08565b5b611b766040611b3d565b90505f611b85848285016112ea565b5f830152506020611b98848285016112ea565b60208301525092915050565b5f60408284031215611bb957611bb8611269565b5b5f611bc684828501611b57565b91505092915050565b5f606082019050611be25f830186611409565b611bef60208301856113e1565b611bfc60408301846113e1565b949350505050565b7f4e487b71000000000000000000000000000000000000000000000000000000005f52601160045260245ffd5b5f611c3b826112cb565b9150611c46836112cb565b9250828201905080821115611c5e57611c5d611c04565b5b9291505056fea2646970667358221220c1a4ce3b824613f32e0fda121ec7679f82bc5483891b56332c4957dd2cde6a0e64736f6c63430008210033","linkReferences":{}},"methodIdentifiers":{"allowance(address,address)":"dd62ed3e","approve(address,uint256)":"095ea7b3","balanceOf(address)":"70a08231","decimals()":"313ce567","lastAmountLD()":"86c285b0","lastComposeMsg()":"40d140a9","lastDstEid()":"8c226741","lastExtraOptions()":"9d356708","lastLzTokenFee()":"d01594b1","lastMinAmountLD()":"f20cd6a9","lastMsgValue()":"463d1fca","lastNativeFee()":"3b86a401","lastOftCmd()":"0974250d","lastRefundAddress()":"21c43217","lastSender()":"256fec88","lastTo()":"c1468447","name()":"06fdde03","send((uint32,bytes32,uint256,uint256,bytes,bytes,bytes),(uint256,uint256),address)":"c7c7f5b3","symbol()":"95d89b41","tokenDecimals()":"3b97e856","totalSupply()":"18160ddd","transfer(address,uint256)":"a9059cbb","transferFrom(address,address,uint256)":"23b872dd"},"id":16}