{"abi":[{"type":"constructor","inputs":[{"name":"swapContract","type":"address","internalType":"address"},{"name":"erc20SwapContract","type":"address","internalType":"address"},{"name":"permit2Contract","type":"address","internalType":"address"}],"stateMutability":"nonpayable"},{"type":"receive","stateMutability":"payable"},{"type":"function","name":"DOMAIN_SEPARATOR","inputs":[],"outputs":[{"name":"","type":"bytes32","internalType":"bytes32"}],"stateMutability":"view"},{"type":"function","name":"ERC20_SWAP_CONTRACT","inputs":[],"outputs":[{"name":"","type":"address","internalType":"contract ERC20Swap"}],"stateMutability":"view"},{"type":"function","name":"PERMIT2","inputs":[],"outputs":[{"name":"","type":"address","internalType":"contract ISignatureTransfer"}],"stateMutability":"view"},{"type":"function","name":"SWAP_CONTRACT","inputs":[],"outputs":[{"name":"","type":"address","internalType":"contract EtherSwap"}],"stateMutability":"view"},{"type":"function","name":"TYPEHASH_CLAIM","inputs":[],"outputs":[{"name":"","type":"bytes32","internalType":"bytes32"}],"stateMutability":"view"},{"type":"function","name":"TYPEHASH_CLAIM_CALL","inputs":[],"outputs":[{"name":"","type":"bytes32","internalType":"bytes32"}],"stateMutability":"view"},{"type":"function","name":"TYPEHASH_CLAIM_SEND","inputs":[],"outputs":[{"name":"","type":"bytes32","internalType":"bytes32"}],"stateMutability":"view"},{"type":"function","name":"TYPEHASH_EXECUTE_LOCK_ERC20","inputs":[],"outputs":[{"name":"","type":"bytes32","internalType":"bytes32"}],"stateMutability":"view"},{"type":"function","name":"TYPEHASH_SEND_DATA","inputs":[],"outputs":[{"name":"","type":"bytes32","internalType":"bytes32"}],"stateMutability":"view"},{"type":"function","name":"TYPESTRING_EXECUTE_LOCK_ERC20","inputs":[],"outputs":[{"name":"","type":"string","internalType":"string"}],"stateMutability":"view"},{"type":"function","name":"VERSION","inputs":[],"outputs":[{"name":"","type":"uint8","internalType":"uint8"}],"stateMutability":"view"},{"type":"function","name":"claimCall","inputs":[{"name":"claim","type":"tuple","internalType":"struct Router.Claim","components":[{"name":"preimage","type":"bytes32","internalType":"bytes32"},{"name":"amount","type":"uint256","internalType":"uint256"},{"name":"refundAddress","type":"address","internalType":"address"},{"name":"timelock","type":"uint256","internalType":"uint256"},{"name":"v","type":"uint8","internalType":"uint8"},{"name":"r","type":"bytes32","internalType":"bytes32"},{"name":"s","type":"bytes32","internalType":"bytes32"}]},{"name":"callee","type":"address","internalType":"address"},{"name":"callData","type":"bytes","internalType":"bytes"}],"outputs":[],"stateMutability":"nonpayable"},{"type":"function","name":"claimCall","inputs":[{"name":"claim","type":"tuple","internalType":"struct Router.Claim","components":[{"name":"preimage","type":"bytes32","internalType":"bytes32"},{"name":"amount","type":"uint256","internalType":"uint256"},{"name":"refundAddress","type":"address","internalType":"address"},{"name":"timelock","type":"uint256","internalType":"uint256"},{"name":"v","type":"uint8","internalType":"uint8"},{"name":"r","type":"bytes32","internalType":"bytes32"},{"name":"s","type":"bytes32","internalType":"bytes32"}]},{"name":"callee","type":"address","internalType":"address"},{"name":"callData","type":"bytes","internalType":"bytes"},{"name":"v","type":"uint8","internalType":"uint8"},{"name":"r","type":"bytes32","internalType":"bytes32"},{"name":"s","type":"bytes32","internalType":"bytes32"}],"outputs":[],"stateMutability":"nonpayable"},{"type":"function","name":"claimERC20Call","inputs":[{"name":"claim","type":"tuple","internalType":"struct Router.Erc20Claim","components":[{"name":"preimage","type":"bytes32","internalType":"bytes32"},{"name":"amount","type":"uint256","internalType":"uint256"},{"name":"tokenAddress","type":"address","internalType":"address"},{"name":"refundAddress","type":"address","internalType":"address"},{"name":"timelock","type":"uint256","internalType":"uint256"},{"name":"v","type":"uint8","internalType":"uint8"},{"name":"r","type":"bytes32","internalType":"bytes32"},{"name":"s","type":"bytes32","internalType":"bytes32"}]},{"name":"callee","type":"address","internalType":"address"},{"name":"callData","type":"bytes","internalType":"bytes"},{"name":"v","type":"uint8","internalType":"uint8"},{"name":"r","type":"bytes32","internalType":"bytes32"},{"name":"s","type":"bytes32","internalType":"bytes32"}],"outputs":[],"stateMutability":"nonpayable"},{"type":"function","name":"claimERC20Call","inputs":[{"name":"claim","type":"tuple","internalType":"struct Router.Erc20Claim","components":[{"name":"preimage","type":"bytes32","internalType":"bytes32"},{"name":"amount","type":"uint256","internalType":"uint256"},{"name":"tokenAddress","type":"address","internalType":"address"},{"name":"refundAddress","type":"address","internalType":"address"},{"name":"timelock","type":"uint256","internalType":"uint256"},{"name":"v","type":"uint8","internalType":"uint8"},{"name":"r","type":"bytes32","internalType":"bytes32"},{"name":"s","type":"bytes32","internalType":"bytes32"}]},{"name":"callee","type":"address","internalType":"address"},{"name":"callData","type":"bytes","internalType":"bytes"}],"outputs":[],"stateMutability":"nonpayable"},{"type":"function","name":"claimERC20Execute","inputs":[{"name":"claim","type":"tuple","internalType":"struct Router.Erc20Claim","components":[{"name":"preimage","type":"bytes32","internalType":"bytes32"},{"name":"amount","type":"uint256","internalType":"uint256"},{"name":"tokenAddress","type":"address","internalType":"address"},{"name":"refundAddress","type":"address","internalType":"address"},{"name":"timelock","type":"uint256","internalType":"uint256"},{"name":"v","type":"uint8","internalType":"uint8"},{"name":"r","type":"bytes32","internalType":"bytes32"},{"name":"s","type":"bytes32","internalType":"bytes32"}]},{"name":"calls","type":"tuple[]","internalType":"struct Router.Call[]","components":[{"name":"target","type":"address","internalType":"address"},{"name":"value","type":"uint256","internalType":"uint256"},{"name":"callData","type":"bytes","internalType":"bytes"}]},{"name":"token","type":"address","internalType":"address"},{"name":"minAmountOut","type":"uint256","internalType":"uint256"},{"name":"destination","type":"address","internalType":"address"},{"name":"v","type":"uint8","internalType":"uint8"},{"name":"r","type":"bytes32","internalType":"bytes32"},{"name":"s","type":"bytes32","internalType":"bytes32"}],"outputs":[],"stateMutability":"nonpayable"},{"type":"function","name":"claimERC20Execute","inputs":[{"name":"claim","type":"tuple","internalType":"struct Router.Erc20Claim","components":[{"name":"preimage","type":"bytes32","internalType":"bytes32"},{"name":"amount","type":"uint256","internalType":"uint256"},{"name":"tokenAddress","type":"address","internalType":"address"},{"name":"refundAddress","type":"address","internalType":"address"},{"name":"timelock","type":"uint256","internalType":"uint256"},{"name":"v","type":"uint8","internalType":"uint8"},{"name":"r","type":"bytes32","internalType":"bytes32"},{"name":"s","type":"bytes32","internalType":"bytes32"}]},{"name":"calls","type":"tuple[]","internalType":"struct Router.Call[]","components":[{"name":"target","type":"address","internalType":"address"},{"name":"value","type":"uint256","internalType":"uint256"},{"name":"callData","type":"bytes","internalType":"bytes"}]},{"name":"token","type":"address","internalType":"address"},{"name":"minAmountOut","type":"uint256","internalType":"uint256"}],"outputs":[],"stateMutability":"nonpayable"},{"type":"function","name":"claimERC20ExecuteOft","inputs":[{"name":"claim","type":"tuple","internalType":"struct Router.Erc20Claim","components":[{"name":"preimage","type":"bytes32","internalType":"bytes32"},{"name":"amount","type":"uint256","internalType":"uint256"},{"name":"tokenAddress","type":"address","internalType":"address"},{"name":"refundAddress","type":"address","internalType":"address"},{"name":"timelock","type":"uint256","internalType":"uint256"},{"name":"v","type":"uint8","internalType":"uint8"},{"name":"r","type":"bytes32","internalType":"bytes32"},{"name":"s","type":"bytes32","internalType":"bytes32"}]},{"name":"calls","type":"tuple[]","internalType":"struct Router.Call[]","components":[{"name":"target","type":"address","internalType":"address"},{"name":"value","type":"uint256","internalType":"uint256"},{"name":"callData","type":"bytes","internalType":"bytes"}]},{"name":"token","type":"address","internalType":"address"},{"name":"oft","type":"address","internalType":"address"},{"name":"sendData","type":"tuple","internalType":"struct Router.SendData","components":[{"name":"dstEid","type":"uint32","internalType":"uint32"},{"name":"to","type":"bytes32","internalType":"bytes32"},{"name":"extraOptions","type":"bytes","internalType":"bytes"},{"name":"composeMsg","type":"bytes","internalType":"bytes"},{"name":"oftCmd","type":"bytes","internalType":"bytes"}]},{"name":"auth","type":"tuple","internalType":"struct Router.ClaimSendAuthorization","components":[{"name":"minAmountLd","type":"uint256","internalType":"uint256"},{"name":"lzTokenFee","type":"uint256","internalType":"uint256"},{"name":"refundAddress","type":"address","internalType":"address"},{"name":"v","type":"uint8","internalType":"uint8"},{"name":"r","type":"bytes32","internalType":"bytes32"},{"name":"s","type":"bytes32","internalType":"bytes32"}]}],"outputs":[],"stateMutability":"payable"},{"type":"function","name":"claimExecute","inputs":[{"name":"claim","type":"tuple","internalType":"struct Router.Claim","components":[{"name":"preimage","type":"bytes32","internalType":"bytes32"},{"name":"amount","type":"uint256","internalType":"uint256"},{"name":"refundAddress","type":"address","internalType":"address"},{"name":"timelock","type":"uint256","internalType":"uint256"},{"name":"v","type":"uint8","internalType":"uint8"},{"name":"r","type":"bytes32","internalType":"bytes32"},{"name":"s","type":"bytes32","internalType":"bytes32"}]},{"name":"calls","type":"tuple[]","internalType":"struct Router.Call[]","components":[{"name":"target","type":"address","internalType":"address"},{"name":"value","type":"uint256","internalType":"uint256"},{"name":"callData","type":"bytes","internalType":"bytes"}]},{"name":"token","type":"address","internalType":"address"},{"name":"minAmountOut","type":"uint256","internalType":"uint256"}],"outputs":[],"stateMutability":"nonpayable"},{"type":"function","name":"claimExecute","inputs":[{"name":"claim","type":"tuple","internalType":"struct Router.Claim","components":[{"name":"preimage","type":"bytes32","internalType":"bytes32"},{"name":"amount","type":"uint256","internalType":"uint256"},{"name":"refundAddress","type":"address","internalType":"address"},{"name":"timelock","type":"uint256","internalType":"uint256"},{"name":"v","type":"uint8","internalType":"uint8"},{"name":"r","type":"bytes32","internalType":"bytes32"},{"name":"s","type":"bytes32","internalType":"bytes32"}]},{"name":"calls","type":"tuple[]","internalType":"struct Router.Call[]","components":[{"name":"target","type":"address","internalType":"address"},{"name":"value","type":"uint256","internalType":"uint256"},{"name":"callData","type":"bytes","internalType":"bytes"}]},{"name":"token","type":"address","internalType":"address"},{"name":"minAmountOut","type":"uint256","internalType":"uint256"},{"name":"destination","type":"address","internalType":"address"},{"name":"v","type":"uint8","internalType":"uint8"},{"name":"r","type":"bytes32","internalType":"bytes32"},{"name":"s","type":"bytes32","internalType":"bytes32"}],"outputs":[],"stateMutability":"nonpayable"},{"type":"function","name":"executeAndLock","inputs":[{"name":"preimageHash","type":"bytes32","internalType":"bytes32"},{"name":"claimAddress","type":"address","internalType":"address"},{"name":"refundAddress","type":"address","internalType":"address"},{"name":"timelock","type":"uint256","internalType":"uint256"},{"name":"calls","type":"tuple[]","internalType":"struct Router.Call[]","components":[{"name":"target","type":"address","internalType":"address"},{"name":"value","type":"uint256","internalType":"uint256"},{"name":"callData","type":"bytes","internalType":"bytes"}]}],"outputs":[],"stateMutability":"payable"},{"type":"function","name":"executeAndLockERC20","inputs":[{"name":"preimageHash","type":"bytes32","internalType":"bytes32"},{"name":"tokenAddress","type":"address","internalType":"address"},{"name":"claimAddress","type":"address","internalType":"address"},{"name":"refundAddress","type":"address","internalType":"address"},{"name":"timelock","type":"uint256","internalType":"uint256"},{"name":"calls","type":"tuple[]","internalType":"struct Router.Call[]","components":[{"name":"target","type":"address","internalType":"address"},{"name":"value","type":"uint256","internalType":"uint256"},{"name":"callData","type":"bytes","internalType":"bytes"}]}],"outputs":[],"stateMutability":"payable"},{"type":"function","name":"executeAndLockERC20WithPermit2","inputs":[{"name":"preimageHash","type":"bytes32","internalType":"bytes32"},{"name":"tokenAddress","type":"address","internalType":"address"},{"name":"claimAddress","type":"address","internalType":"address"},{"name":"refundAddress","type":"address","internalType":"address"},{"name":"timelock","type":"uint256","internalType":"uint256"},{"name":"calls","type":"tuple[]","internalType":"struct Router.Call[]","components":[{"name":"target","type":"address","internalType":"address"},{"name":"value","type":"uint256","internalType":"uint256"},{"name":"callData","type":"bytes","internalType":"bytes"}]},{"name":"permit","type":"tuple","internalType":"struct ISignatureTransfer.PermitTransferFrom","components":[{"name":"permitted","type":"tuple","internalType":"struct ISignatureTransfer.TokenPermissions","components":[{"name":"token","type":"address","internalType":"address"},{"name":"amount","type":"uint256","internalType":"uint256"}]},{"name":"nonce","type":"uint256","internalType":"uint256"},{"name":"deadline","type":"uint256","internalType":"uint256"}]},{"name":"owner","type":"address","internalType":"address"},{"name":"signature","type":"bytes","internalType":"bytes"}],"outputs":[],"stateMutability":"payable"},{"type":"error","name":"CallFailed","inputs":[{"name":"index","type":"uint256","internalType":"uint256"}]},{"type":"error","name":"ClaimInvalidAddress","inputs":[]},{"type":"error","name":"InsufficientBalance","inputs":[]},{"type":"error","name":"ReentrancyGuardReentrantCall","inputs":[]},{"type":"error","name":"SafeERC20FailedOperation","inputs":[{"name":"token","type":"address","internalType":"address"}]},{"type":"error","name":"SwapCallNotAllowed","inputs":[]}],"bytecode":{"object":"0x6101006040527f8b73c3c69bb8fe3d512ecc4cf759cc79239f7b179b0ffacaa9a75d522b39400f7f3f0593d90c203cedd52beaf1f2e33ef6958a48ee6bc9180eb653d00d34ee618d7fad7c5bef027816a800da1736444fb58a807ef4c9603b7848673f7e3a68eb14a5463060405160200161007e959493929190610230565b6040516020818303038152906040528051906020012060e0908152503480156100a5575f5ffd5b5060405161454d38038061454d83398181016040528101906100c791906102af565b60016100e56100da61018f60201b60201c565b6101b860201b60201c565b5f01819055508273ffffffffffffffffffffffffffffffffffffffff1660808173ffffffffffffffffffffffffffffffffffffffff16815250508173ffffffffffffffffffffffffffffffffffffffff1660a08173ffffffffffffffffffffffffffffffffffffffff16815250508073ffffffffffffffffffffffffffffffffffffffff1660c08173ffffffffffffffffffffffffffffffffffffffff16815250505050506102ff565b5f7f9b779b17422d0df92223018b32b4d1fa46e071723d6817e2486d003becc55f005f1b905090565b5f819050919050565b5f819050919050565b6101d3816101c1565b82525050565b5f819050919050565b6101eb816101d9565b82525050565b5f73ffffffffffffffffffffffffffffffffffffffff82169050919050565b5f61021a826101f1565b9050919050565b61022a81610210565b82525050565b5f60a0820190506102435f8301886101ca565b61025060208301876101ca565b61025d60408301866101ca565b61026a60608301856101e2565b6102776080830184610221565b9695505050505050565b5f5ffd5b61028e81610210565b8114610298575f5ffd5b50565b5f815190506102a981610285565b92915050565b5f5f5f606084860312156102c6576102c5610281565b5b5f6102d38682870161029b565b93505060206102e48682870161029b565b92505060406102f58682870161029b565b9150509250925092565b60805160a05160c05160e0516141b96103945f395f81816104d801528181610a0801528181610cbe01528181610d1001528181611160015261132201525f8181610f6501528181611d7e0152611e6601525f81816109da0152818161188601528181611d2801528181611fd0015261201801525f818161093c015281816112f401528181611bf00152611cd301526141b95ff3fe608060405260043610610143575f3560e01c8063891d6080116100b5578063da2271c31161006e578063da2271c3146103e2578063ea81272e1461040a578063ea8cd08814610426578063ebb7af9214610450578063fe54c2401461047a578063ffa1ad74146104a25761014a565b8063891d6080146102fa5780639667434f14610322578063a66bd06e1461034a578063a7b77acb14610366578063b47ec1a01461038e578063cf3afa51146103b85761014a565b80633644e515116101075780633644e515146102005780634a0870ff1461022a5780635b2acb70146102545780636531efdf1461027c5780636afdd850146102a657806373e09a78146102d05761014a565b806315ee82d31461014e5780631bcd0c091461016a5780632067b7ca14610186578063211f3440146101b05780633503c73d146101d85761014a565b3661014a57005b5f5ffd5b61016860048036038101906101639190612569565b6104cc565b005b610184600480360381019061017f919061269b565b610928565b005b348015610191575f5ffd5b5061019a6109d8565b6040516101a7919061278c565b60405180910390f35b3480156101bb575f5ffd5b506101d660048036038101906101d191906127db565b6109fc565b005b3480156101e3575f5ffd5b506101fe60048036038101906101f99190612925565b610b7d565b005b34801561020b575f5ffd5b50610214610cbc565b60405161022191906129a7565b60405180910390f35b348015610235575f5ffd5b5061023e610ce0565b60405161024b91906129a7565b60405180910390f35b34801561025f575f5ffd5b5061027a600480360381019061027591906129c0565b610d04565b005b348015610287575f5ffd5b50610290610f3f565b60405161029d91906129a7565b60405180910390f35b3480156102b1575f5ffd5b506102ba610f63565b6040516102c79190612a8f565b60405180910390f35b3480156102db575f5ffd5b506102e4610f87565b6040516102f191906129a7565b60405180910390f35b348015610305575f5ffd5b50610320600480360381019061031b9190612aa8565b610fab565b005b34801561032d575f5ffd5b5061034860048036038101906103439190612b2f565b611044565b005b610364600480360381019061035f9190612bd5565b6110dd565b005b348015610371575f5ffd5b5061038c60048036038101906103879190612cdb565b611154565b005b348015610399575f5ffd5b506103a26112d5565b6040516103af9190612e21565b60405180910390f35b3480156103c3575f5ffd5b506103cc6112f2565b6040516103d99190612e61565b60405180910390f35b3480156103ed575f5ffd5b5061040860048036038101906104039190612e7a565b611316565b005b610424600480360381019061041f9190612f2a565b61158c565b005b348015610431575f5ffd5b5061043a6115bc565b60405161044791906129a7565b60405180910390f35b34801561045b575f5ffd5b506104646115e0565b60405161047191906129a7565b60405180910390f35b348015610485575f5ffd5b506104a0600480360381019061049b9190612fd4565b611604565b005b3480156104ad575f5ffd5b506104b661177e565b6040516104c39190613057565b60405180910390f35b6104d4611783565b60017f00000000000000000000000000000000000000000000000000000000000000007fd574e98ae922e812083482a53f290e4a94af4ec6bc2d9490b0386edcf40dfecf895f01358787610527886117a5565b875f013588602001358960400160208101906105439190613070565b60405160200161055a9897969594939291906130b9565b604051602081830303815290604052805190602001206040516020016105819291906131a9565b604051602081830303815290604052805190602001208260600160208101906105aa91906131df565b83608001358460a001356040515f81526020016040526040516105d0949392919061320a565b6020604051602081039080840390855afa1580156105f0573d5f5f3e3d5ffd5b5050506020604051035173ffffffffffffffffffffffffffffffffffffffff1661061988611883565b73ffffffffffffffffffffffffffffffffffffffff1614610666576040517f8fdad36100000000000000000000000000000000000000000000000000000000815260040160405180910390fd5b610670868661197b565b5f8473ffffffffffffffffffffffffffffffffffffffff166370a08231306040518263ffffffff1660e01b81526004016106aa919061324d565b602060405180830381865afa1580156106c5573d5f5f3e3d5ffd5b505050506040513d601f19601f820116820180604052508101906106e9919061327a565b9050815f0135811015610728576040517ff4d678b800000000000000000000000000000000000000000000000000000000815260040160405180910390fd5b8373ffffffffffffffffffffffffffffffffffffffff1663c7c7f5b3476040518060e00160405280875f01602081019061076291906132de565b63ffffffff16815260200187602001358152602001858152602001865f013581526020018780604001906107969190613315565b8080601f0160208091040260200160405190810160405280939291908181526020018383808284375f81840152601f19601f8201169050808301925050505050505081526020018780606001906107ed9190613315565b8080601f0160208091040260200160405190810160405280939291908181526020018383808284375f81840152601f19601f8201169050808301925050505050505081526020018780608001906108449190613315565b8080601f0160208091040260200160405190810160405280939291908181526020018383808284375f81840152601f19601f82011690508083019250505050505050815250604051806040016040528047815260200187602001358152508660400160208101906108b59190613070565b6040518563ffffffff1660e01b81526004016108d3939291906134ca565b60c06040518083038185885af11580156108ef573d5f5f3e3d5ffd5b50505050506040513d601f19601f8201168201806040525081019061091491906136ce565b50505061091f611ab5565b50505050505050565b610930611783565b61093a828261197b565b7f000000000000000000000000000000000000000000000000000000000000000073ffffffffffffffffffffffffffffffffffffffff1663799f212b47888888886040518663ffffffff1660e01b815260040161099a949392919061370c565b5f604051808303818588803b1580156109b1575f5ffd5b505af11580156109c3573d5f5f3e3d5ffd5b50505050506109d0611ab5565b505050505050565b7f000000000000000000000000000000000000000000000000000000000000000081565b610a04611783565b60017f00000000000000000000000000000000000000000000000000000000000000007fa47e6983ae363f2a4c612ca9d2c8acd221ad9a6dd1ae17020ccfa05f14074fcf8b5f0135898989604051602001610a6395949392919061374f565b60405160208183030381529060405280519060200120604051602001610a8a9291906131a9565b604051602081830303815290604052805190602001208484846040515f8152602001604052604051610abf949392919061320a565b6020604051602081039080840390855afa158015610adf573d5f5f3e3d5ffd5b5050506020604051035173ffffffffffffffffffffffffffffffffffffffff16610b088a611883565b73ffffffffffffffffffffffffffffffffffffffff1614610b55576040517f8fdad36100000000000000000000000000000000000000000000000000000000815260040160405180910390fd5b610b5f888861197b565b610b6a848787611acf565b610b72611ab5565b505050505050505050565b610b85611783565b3373ffffffffffffffffffffffffffffffffffffffff16610ba585611bed565b73ffffffffffffffffffffffffffffffffffffffff1614610bf2576040517f8fdad36100000000000000000000000000000000000000000000000000000000815260040160405180910390fd5b610bfb83611cd1565b5f8373ffffffffffffffffffffffffffffffffffffffff1685602001358484604051610c289291906137dc565b5f6040518083038185875af1925050503d805f8114610c62576040519150601f19603f3d011682016040523d82523d5f602084013e610c67565b606091505b5050905080610cad575f6040517f3f9a3b48000000000000000000000000000000000000000000000000000000008152600401610ca4919061382d565b60405180910390fd5b50610cb6611ab5565b50505050565b7f000000000000000000000000000000000000000000000000000000000000000081565b7ff9191232ae0d81b1acc28544153c0b08c23469adb796613e7689fff1685328c081565b610d0c611783565b60017f00000000000000000000000000000000000000000000000000000000000000007f19ac9140b08b00506c1962f90ff8781be79b2632dcbd9e86df54bcbd18cc62f9895f0135898989604051610d659291906137dc565b6040518091039020604051602001610d809493929190613846565b60405160208183030381529060405280519060200120604051602001610da79291906131a9565b604051602081830303815290604052805190602001208484846040515f8152602001604052604051610ddc949392919061320a565b6020604051602081039080840390855afa158015610dfc573d5f5f3e3d5ffd5b5050506020604051035173ffffffffffffffffffffffffffffffffffffffff16610e2588611bed565b73ffffffffffffffffffffffffffffffffffffffff1614610e72576040517f8fdad36100000000000000000000000000000000000000000000000000000000815260040160405180910390fd5b610e7b86611cd1565b5f8673ffffffffffffffffffffffffffffffffffffffff1688602001358787604051610ea89291906137dc565b5f6040518083038185875af1925050503d805f8114610ee2576040519150601f19603f3d011682016040523d82523d5f602084013e610ee7565b606091505b5050905080610f2d575f6040517f3f9a3b48000000000000000000000000000000000000000000000000000000008152600401610f24919061382d565b60405180910390fd5b50610f36611ab5565b50505050505050565b7fd574e98ae922e812083482a53f290e4a94af4ec6bc2d9490b0386edcf40dfecf81565b7f000000000000000000000000000000000000000000000000000000000000000081565b7f19ac9140b08b00506c1962f90ff8781be79b2632dcbd9e86df54bcbd18cc62f981565b610fb3611783565b3373ffffffffffffffffffffffffffffffffffffffff16610fd386611bed565b73ffffffffffffffffffffffffffffffffffffffff1614611020576040517f8fdad36100000000000000000000000000000000000000000000000000000000815260040160405180910390fd5b61102a848461197b565b611035338383611acf565b61103d611ab5565b5050505050565b61104c611783565b3373ffffffffffffffffffffffffffffffffffffffff1661106c86611883565b73ffffffffffffffffffffffffffffffffffffffff16146110b9576040517f8fdad36100000000000000000000000000000000000000000000000000000000815260040160405180910390fd5b6110c3848461197b565b6110ce338383611acf565b6110d6611ab5565b5050505050565b6110e5611783565b5f5f87876040516020016110fa929190613a96565b6040516020818303038152906040529050805160208201209150506111278c8c8c8c8c868b8b8b8b611e06565b611131878761197b565b61113e8c8c8c8c8c611f4c565b50611147611ab5565b5050505050505050505050565b61115c611783565b60017f00000000000000000000000000000000000000000000000000000000000000007fa47e6983ae363f2a4c612ca9d2c8acd221ad9a6dd1ae17020ccfa05f14074fcf8b5f01358989896040516020016111bb95949392919061374f565b604051602081830303815290604052805190602001206040516020016111e29291906131a9565b604051602081830303815290604052805190602001208484846040515f8152602001604052604051611217949392919061320a565b6020604051602081039080840390855afa158015611237573d5f5f3e3d5ffd5b5050506020604051035173ffffffffffffffffffffffffffffffffffffffff166112608a611bed565b73ffffffffffffffffffffffffffffffffffffffff16146112ad576040517f8fdad36100000000000000000000000000000000000000000000000000000000815260040160405180910390fd5b6112b7888861197b565b6112c2848787611acf565b6112ca611ab5565b505050505050505050565b60405180610100016040528060cf81526020016140b560cf913981565b7f000000000000000000000000000000000000000000000000000000000000000081565b61131e611783565b60017f00000000000000000000000000000000000000000000000000000000000000007f19ac9140b08b00506c1962f90ff8781be79b2632dcbd9e86df54bcbd18cc62f9895f01358989896040516113779291906137dc565b60405180910390206040516020016113929493929190613846565b604051602081830303815290604052805190602001206040516020016113b99291906131a9565b604051602081830303815290604052805190602001208484846040515f81526020016040526040516113ee949392919061320a565b6020604051602081039080840390855afa15801561140e573d5f5f3e3d5ffd5b5050506020604051035173ffffffffffffffffffffffffffffffffffffffff1661143788611883565b73ffffffffffffffffffffffffffffffffffffffff1614611484576040517f8fdad36100000000000000000000000000000000000000000000000000000000815260040160405180910390fd5b61148d86611cd1565b6114ce8688602001358960400160208101906114a99190613070565b73ffffffffffffffffffffffffffffffffffffffff166120af9092919063ffffffff16565b5f8673ffffffffffffffffffffffffffffffffffffffff1686866040516114f69291906137dc565b5f604051808303815f865af19150503d805f811461152f576040519150601f19603f3d011682016040523d82523d5f602084013e611534565b606091505b505090508061157a575f6040517f3f9a3b48000000000000000000000000000000000000000000000000000000008152600401611571919061382d565b60405180910390fd5b50611583611ab5565b50505050505050565b611594611783565b61159e828261197b565b6115ab8787878787611f4c565b6115b3611ab5565b50505050505050565b7f08487e29c43aa652b8d92ae7f71993123179f4cef490c858f3443d3c76fba69881565b7fa47e6983ae363f2a4c612ca9d2c8acd221ad9a6dd1ae17020ccfa05f14074fcf81565b61160c611783565b3373ffffffffffffffffffffffffffffffffffffffff1661162c85611883565b73ffffffffffffffffffffffffffffffffffffffff1614611679576040517f8fdad36100000000000000000000000000000000000000000000000000000000815260040160405180910390fd5b61168283611cd1565b6116c383856020013586604001602081019061169e9190613070565b73ffffffffffffffffffffffffffffffffffffffff166120af9092919063ffffffff16565b5f8373ffffffffffffffffffffffffffffffffffffffff1683836040516116eb9291906137dc565b5f604051808303815f865af19150503d805f8114611724576040519150601f19603f3d011682016040523d82523d5f602084013e611729565b606091505b505090508061176f575f6040517f3f9a3b48000000000000000000000000000000000000000000000000000000008152600401611766919061382d565b60405180910390fd5b50611778611ab5565b50505050565b600281565b61178b612161565b600261179d6117986121a2565b6121cb565b5f0181905550565b5f61187c7ff9191232ae0d81b1acc28544153c0b08c23469adb796613e7689fff1685328c0835f0160208101906117dc91906132de565b84602001358580604001906117f19190613315565b6040516117ff9291906137dc565b60405180910390208680606001906118179190613315565b6040516118259291906137dc565b604051809103902087806080019061183d9190613315565b60405161184b9291906137dc565b604051809103902060405160200161186896959493929190613ac7565b6040516020818303038152906040526121d4565b9050919050565b5f7f000000000000000000000000000000000000000000000000000000000000000073ffffffffffffffffffffffffffffffffffffffff1663b2b78df8835f013584602001358560400160208101906118dc9190613070565b8660600160208101906118ef9190613070565b87608001358860a001602081019061190791906131df565b8960c001358a60e001356040518963ffffffff1660e01b8152600401611934989796959493929190613b26565b6020604051808303815f875af1158015611950573d5f5f3e3d5ffd5b505050506040513d601f19601f820116820180604052508101906119749190613bb6565b9050919050565b5f828290509050365f5f90505b82811015611aae578484828181106119a3576119a2613be1565b5b90506020028101906119b59190613c0e565b91506119d1825f0160208101906119cc9190613070565b611cd1565b5f825f0160208101906119e49190613070565b73ffffffffffffffffffffffffffffffffffffffff168360200135848060400190611a0f9190613315565b604051611a1d9291906137dc565b5f6040518083038185875af1925050503d805f8114611a57576040519150601f19603f3d011682016040523d82523d5f602084013e611a5c565b606091505b5050905080611aa257816040517f3f9a3b48000000000000000000000000000000000000000000000000000000008152600401611a999190613c35565b60405180910390fd5b50806001019050611988565b5050505050565b6001611ac7611ac26121a2565b6121cb565b5f0181905550565b5f5f5f73ffffffffffffffffffffffffffffffffffffffff168473ffffffffffffffffffffffffffffffffffffffff161490508015611b1057479150611b8b565b8373ffffffffffffffffffffffffffffffffffffffff166370a08231306040518263ffffffff1660e01b8152600401611b49919061324d565b602060405180830381865afa158015611b64573d5f5f3e3d5ffd5b505050506040513d601f19601f82011682018060405250810190611b88919061327a565b91505b82821015611bc5576040517ff4d678b800000000000000000000000000000000000000000000000000000000815260040160405180910390fd5b8015611bda57611bd585836121e3565b611be6565b611be5848684612290565b5b5050505050565b5f7f000000000000000000000000000000000000000000000000000000000000000073ffffffffffffffffffffffffffffffffffffffff16633648a807835f01358460200135856040016020810190611c469190613070565b8660600135876080016020810190611c5e91906131df565b8860a001358960c001356040518863ffffffff1660e01b8152600401611c8a9796959493929190613c4e565b6020604051808303815f875af1158015611ca6573d5f5f3e3d5ffd5b505050506040513d601f19601f82011682018060405250810190611cca9190613bb6565b9050919050565b7f000000000000000000000000000000000000000000000000000000000000000073ffffffffffffffffffffffffffffffffffffffff168173ffffffffffffffffffffffffffffffffffffffff161480611d7657507f000000000000000000000000000000000000000000000000000000000000000073ffffffffffffffffffffffffffffffffffffffff168173ffffffffffffffffffffffffffffffffffffffff16145b80611dcc57507f000000000000000000000000000000000000000000000000000000000000000073ffffffffffffffffffffffffffffffffffffffff168173ffffffffffffffffffffffffffffffffffffffff16145b15611e03576040517f513d660100000000000000000000000000000000000000000000000000000000815260040160405180910390fd5b50565b5f5f7f08487e29c43aa652b8d92ae7f71993123179f4cef490c858f3443d3c76fba69890506040518181528c60208201528b60408201528a60608201528960808201528860a08201528760c082015260e08120925060e0810160405250507f000000000000000000000000000000000000000000000000000000000000000073ffffffffffffffffffffffffffffffffffffffff1663137c29fe8660405180604001604052803073ffffffffffffffffffffffffffffffffffffffff168152602001895f0160200135815250878560405180610100016040528060cf81526020016140b560cf913989896040518863ffffffff1660e01b8152600401611f129796959493929190613dc3565b5f604051808303815f87803b158015611f29575f5ffd5b505af1158015611f3b573d5f5f3e3d5ffd5b505050505050505050505050505050565b5f8490505f8173ffffffffffffffffffffffffffffffffffffffff166370a08231306040518263ffffffff1660e01b8152600401611f8a919061324d565b602060405180830381865afa158015611fa5573d5f5f3e3d5ffd5b505050506040513d601f19601f82011682018060405250810190611fc9919061327a565b90506120167f0000000000000000000000000000000000000000000000000000000000000000828473ffffffffffffffffffffffffffffffffffffffff166120af9092919063ffffffff16565b7f000000000000000000000000000000000000000000000000000000000000000073ffffffffffffffffffffffffffffffffffffffff1663e64fafcc8883898989896040518763ffffffff1660e01b815260040161207996959493929190613e35565b5f604051808303815f87803b158015612090575f5ffd5b505af11580156120a2573d5f5f3e3d5ffd5b5050505050505050505050565b6120bb8383835f6123c0565b61215c576120cc83835f60016123c0565b61210d57826040517f5274afe7000000000000000000000000000000000000000000000000000000008152600401612104919061324d565b60405180910390fd5b61211a83838360016123c0565b61215b57826040517f5274afe7000000000000000000000000000000000000000000000000000000008152600401612152919061324d565b60405180910390fd5b5b505050565b612169612422565b156121a0576040517f3ee5aeb500000000000000000000000000000000000000000000000000000000815260040160405180910390fd5b565b5f7f9b779b17422d0df92223018b32b4d1fa46e071723d6817e2486d003becc55f005f1b905090565b5f819050919050565b5f815160208301209050919050565b5f8273ffffffffffffffffffffffffffffffffffffffff168260405161220890613eb7565b5f6040518083038185875af1925050503d805f8114612242576040519150601f19603f3d011682016040523d82523d5f602084013e612247565b606091505b505090508061228b576040517f08c379a000000000000000000000000000000000000000000000000000000000815260040161228290613f3b565b60405180910390fd5b505050565b5f5f8473ffffffffffffffffffffffffffffffffffffffff1663a9059cbb85856040516024016122c1929190613f59565b6040516020818303038152906040529060e01b6020820180517bffffffffffffffffffffffffffffffffffffffffffffffffffffffff838183161783525050505060405161230f9190613fb0565b5f604051808303815f865af19150503d805f8114612348576040519150601f19603f3d011682016040523d82523d5f602084013e61234d565b606091505b509150915081801561237a57505f815114806123795750808060200190518101906123789190613ffb565b5b5b6123b9576040517f08c379a00000000000000000000000000000000000000000000000000000000081526004016123b090614096565b60405180910390fd5b5050505050565b5f5f63095ea7b360e01b9050604051815f525f1960601c86166004528460245260205f60445f5f8b5af1925060015f51148316612414578383151615612408573d5f823e3d81fd5b5f873b113d1516831692505b806040525050949350505050565b5f60026124356124306121a2565b6121cb565b5f015414905090565b5f604051905090565b5f5ffd5b5f5ffd5b5f5ffd5b5f61010082840312156124695761246861244f565b5b81905092915050565b5f5ffd5b5f5ffd5b5f5ffd5b5f5f83601f84011261249357612492612472565b5b8235905067ffffffffffffffff8111156124b0576124af612476565b5b6020830191508360208202830111156124cc576124cb61247a565b5b9250929050565b5f73ffffffffffffffffffffffffffffffffffffffff82169050919050565b5f6124fc826124d3565b9050919050565b61250c816124f2565b8114612516575f5ffd5b50565b5f8135905061252781612503565b92915050565b5f60a082840312156125425761254161244f565b5b81905092915050565b5f60c082840312156125605761255f61244f565b5b81905092915050565b5f5f5f5f5f5f5f610240888a03121561258557612584612447565b5b5f6125928a828b01612453565b97505061010088013567ffffffffffffffff8111156125b4576125b361244b565b5b6125c08a828b0161247e565b96509650506101206125d48a828b01612519565b9450506101406125e68a828b01612519565b93505061016088013567ffffffffffffffff8111156126085761260761244b565b5b6126148a828b0161252d565b9250506101806126268a828b0161254b565b91505092959891949750929550565b5f819050919050565b61264781612635565b8114612651575f5ffd5b50565b5f813590506126628161263e565b92915050565b5f819050919050565b61267a81612668565b8114612684575f5ffd5b50565b5f8135905061269581612671565b92915050565b5f5f5f5f5f5f60a087890312156126b5576126b4612447565b5b5f6126c289828a01612654565b96505060206126d389828a01612519565b95505060406126e489828a01612519565b94505060606126f589828a01612687565b935050608087013567ffffffffffffffff8111156127165761271561244b565b5b61272289828a0161247e565b92509250509295509295509295565b5f819050919050565b5f61275461274f61274a846124d3565b612731565b6124d3565b9050919050565b5f6127658261273a565b9050919050565b5f6127768261275b565b9050919050565b6127868161276c565b82525050565b5f60208201905061279f5f83018461277d565b92915050565b5f60ff82169050919050565b6127ba816127a5565b81146127c4575f5ffd5b50565b5f813590506127d5816127b1565b92915050565b5f5f5f5f5f5f5f5f5f6101e08a8c0312156127f9576127f8612447565b5b5f6128068c828d01612453565b9950506101008a013567ffffffffffffffff8111156128285761282761244b565b5b6128348c828d0161247e565b98509850506101206128488c828d01612519565b96505061014061285a8c828d01612687565b95505061016061286c8c828d01612519565b94505061018061287e8c828d016127c7565b9350506101a06128908c828d01612654565b9250506101c06128a28c828d01612654565b9150509295985092959850929598565b5f60e082840312156128c7576128c661244f565b5b81905092915050565b5f5f83601f8401126128e5576128e4612472565b5b8235905067ffffffffffffffff81111561290257612901612476565b5b60208301915083600182028301111561291e5761291d61247a565b5b9250929050565b5f5f5f5f610120858703121561293e5761293d612447565b5b5f61294b878288016128b2565b94505060e061295c87828801612519565b93505061010085013567ffffffffffffffff81111561297e5761297d61244b565b5b61298a878288016128d0565b925092505092959194509250565b6129a181612635565b82525050565b5f6020820190506129ba5f830184612998565b92915050565b5f5f5f5f5f5f5f610180888a0312156129dc576129db612447565b5b5f6129e98a828b016128b2565b97505060e06129fa8a828b01612519565b96505061010088013567ffffffffffffffff811115612a1c57612a1b61244b565b5b612a288a828b016128d0565b9550955050610120612a3c8a828b016127c7565b935050610140612a4e8a828b01612654565b925050610160612a608a828b01612654565b91505092959891949750929550565b5f612a798261275b565b9050919050565b612a8981612a6f565b82525050565b5f602082019050612aa25f830184612a80565b92915050565b5f5f5f5f5f6101408688031215612ac257612ac1612447565b5b5f612acf888289016128b2565b95505060e086013567ffffffffffffffff811115612af057612aef61244b565b5b612afc8882890161247e565b9450945050610100612b1088828901612519565b925050610120612b2288828901612687565b9150509295509295909350565b5f5f5f5f5f6101608688031215612b4957612b48612447565b5b5f612b5688828901612453565b95505061010086013567ffffffffffffffff811115612b7857612b7761244b565b5b612b848882890161247e565b9450945050610120612b9888828901612519565b925050610140612baa88828901612687565b9150509295509295909350565b5f60808284031215612bcc57612bcb61244f565b5b81905092915050565b5f5f5f5f5f5f5f5f5f5f5f6101808c8e031215612bf557612bf4612447565b5b5f612c028e828f01612654565b9b50506020612c138e828f01612519565b9a50506040612c248e828f01612519565b9950506060612c358e828f01612519565b9850506080612c468e828f01612687565b97505060a08c013567ffffffffffffffff811115612c6757612c6661244b565b5b612c738e828f0161247e565b965096505060c0612c868e828f01612bb7565b945050610140612c988e828f01612519565b9350506101608c013567ffffffffffffffff811115612cba57612cb961244b565b5b612cc68e828f016128d0565b92509250509295989b509295989b9093969950565b5f5f5f5f5f5f5f5f5f6101c08a8c031215612cf957612cf8612447565b5b5f612d068c828d016128b2565b99505060e08a013567ffffffffffffffff811115612d2757612d2661244b565b5b612d338c828d0161247e565b9850985050610100612d478c828d01612519565b965050610120612d598c828d01612687565b955050610140612d6b8c828d01612519565b945050610160612d7d8c828d016127c7565b935050610180612d8f8c828d01612654565b9250506101a0612da18c828d01612654565b9150509295985092959850929598565b5f81519050919050565b5f82825260208201905092915050565b8281835e5f83830152505050565b5f601f19601f8301169050919050565b5f612df382612db1565b612dfd8185612dbb565b9350612e0d818560208601612dcb565b612e1681612dd9565b840191505092915050565b5f6020820190508181035f830152612e398184612de9565b905092915050565b5f612e4b8261275b565b9050919050565b612e5b81612e41565b82525050565b5f602082019050612e745f830184612e52565b92915050565b5f5f5f5f5f5f5f6101a0888a031215612e9657612e95612447565b5b5f612ea38a828b01612453565b975050610100612eb58a828b01612519565b96505061012088013567ffffffffffffffff811115612ed757612ed661244b565b5b612ee38a828b016128d0565b9550955050610140612ef78a828b016127c7565b935050610160612f098a828b01612654565b925050610180612f1b8a828b01612654565b91505092959891949750929550565b5f5f5f5f5f5f5f60c0888a031215612f4557612f44612447565b5b5f612f528a828b01612654565b9750506020612f638a828b01612519565b9650506040612f748a828b01612519565b9550506060612f858a828b01612519565b9450506080612f968a828b01612687565b93505060a088013567ffffffffffffffff811115612fb757612fb661244b565b5b612fc38a828b0161247e565b925092505092959891949750929550565b5f5f5f5f6101408587031215612fed57612fec612447565b5b5f612ffa87828801612453565b94505061010061300c87828801612519565b93505061012085013567ffffffffffffffff81111561302e5761302d61244b565b5b61303a878288016128d0565b925092505092959194509250565b613051816127a5565b82525050565b5f60208201905061306a5f830184613048565b92915050565b5f6020828403121561308557613084612447565b5b5f61309284828501612519565b91505092915050565b6130a4816124f2565b82525050565b6130b381612668565b82525050565b5f610100820190506130cd5f83018b612998565b6130da602083018a612998565b6130e7604083018961309b565b6130f4606083018861309b565b6131016080830187612998565b61310e60a08301866130aa565b61311b60c08301856130aa565b61312860e083018461309b565b9998505050505050505050565b5f81905092915050565b7f19010000000000000000000000000000000000000000000000000000000000005f82015250565b5f613173600283613135565b915061317e8261313f565b600282019050919050565b5f819050919050565b6131a361319e82612635565b613189565b82525050565b5f6131b382613167565b91506131bf8285613192565b6020820191506131cf8284613192565b6020820191508190509392505050565b5f602082840312156131f4576131f3612447565b5b5f613201848285016127c7565b91505092915050565b5f60808201905061321d5f830187612998565b61322a6020830186613048565b6132376040830185612998565b6132446060830184612998565b95945050505050565b5f6020820190506132605f83018461309b565b92915050565b5f8151905061327481612671565b92915050565b5f6020828403121561328f5761328e612447565b5b5f61329c84828501613266565b91505092915050565b5f63ffffffff82169050919050565b6132bd816132a5565b81146132c7575f5ffd5b50565b5f813590506132d8816132b4565b92915050565b5f602082840312156132f3576132f2612447565b5b5f613300848285016132ca565b91505092915050565b5f5ffd5b5f5ffd5b5f5ffd5b5f5f8335600160200384360303811261333157613330613309565b5b80840192508235915067ffffffffffffffff8211156133535761335261330d565b5b60208301925060018202360383131561336f5761336e613311565b5b509250929050565b613380816132a5565b82525050565b61338f81612635565b82525050565b61339e81612668565b82525050565b5f81519050919050565b5f82825260208201905092915050565b5f6133c8826133a4565b6133d281856133ae565b93506133e2818560208601612dcb565b6133eb81612dd9565b840191505092915050565b5f60e083015f83015161340b5f860182613377565b50602083015161341e6020860182613386565b5060408301516134316040860182613395565b5060608301516134446060860182613395565b506080830151848203608086015261345c82826133be565b91505060a083015184820360a086015261347682826133be565b91505060c083015184820360c086015261349082826133be565b9150508091505092915050565b604082015f8201516134b15f850182613395565b5060208201516134c46020850182613395565b50505050565b5f6080820190508181035f8301526134e281866133f6565b90506134f1602083018561349d565b6134fe606083018461309b565b949350505050565b5f5ffd5b7f4e487b71000000000000000000000000000000000000000000000000000000005f52604160045260245ffd5b61354082612dd9565b810181811067ffffffffffffffff8211171561355f5761355e61350a565b5b80604052505050565b5f61357161243e565b905061357d8282613537565b919050565b5f815190506135908161263e565b92915050565b5f67ffffffffffffffff82169050919050565b6135b281613596565b81146135bc575f5ffd5b50565b5f815190506135cd816135a9565b92915050565b5f604082840312156135e8576135e7613506565b5b6135f26040613568565b90505f61360184828501613266565b5f83015250602061361484828501613266565b60208301525092915050565b5f6080828403121561363557613634613506565b5b61363f6060613568565b90505f61364e84828501613582565b5f830152506020613661848285016135bf565b6020830152506040613675848285016135d3565b60408301525092915050565b5f6040828403121561369657613695613506565b5b6136a06040613568565b90505f6136af84828501613266565b5f8301525060206136c284828501613266565b60208301525092915050565b5f5f60c083850312156136e4576136e3612447565b5b5f6136f185828601613620565b925050608061370285828601613681565b9150509250929050565b5f60808201905061371f5f830187612998565b61372c602083018661309b565b613739604083018561309b565b61374660608301846130aa565b95945050505050565b5f60a0820190506137625f830188612998565b61376f6020830187612998565b61377c604083018661309b565b61378960608301856130aa565b613796608083018461309b565b9695505050505050565b5f81905092915050565b828183375f83830152505050565b5f6137c383856137a0565b93506137d08385846137aa565b82840190509392505050565b5f6137e88284866137b8565b91508190509392505050565b5f819050919050565b5f61381761381261380d846137f4565b612731565b612668565b9050919050565b613827816137fd565b82525050565b5f6020820190506138405f83018461381e565b92915050565b5f6080820190506138595f830187612998565b6138666020830186612998565b613873604083018561309b565b6138806060830184612998565b95945050505050565b5f82825260208201905092915050565b5f819050919050565b5f6138b06020840184612519565b905092915050565b6138c1816124f2565b82525050565b5f6138d56020840184612687565b905092915050565b5f5ffd5b5f5ffd5b5f5ffd5b5f5f83356001602003843603038112613905576139046138e5565b5b83810192508235915060208301925067ffffffffffffffff82111561392d5761392c6138dd565b5b600182023603831315613943576139426138e1565b5b509250929050565b5f61395683856133ae565b93506139638385846137aa565b61396c83612dd9565b840190509392505050565b5f606083016139885f8401846138a2565b6139945f8601826138b8565b506139a260208401846138c7565b6139af6020860182613395565b506139bd60408401846138e9565b85830360408701526139d083828461394b565b925050508091505092915050565b5f6139e98383613977565b905092915050565b5f82356001606003833603038112613a0c57613a0b6138e5565b5b82810191505092915050565b5f602082019050919050565b5f613a2f8385613889565b935083602084028501613a4184613899565b805f5b87811015613a84578484038952613a5b82846139f1565b613a6585826139de565b9450613a7083613a18565b925060208a01995050600181019050613a44565b50829750879450505050509392505050565b5f6020820190508181035f830152613aaf818486613a24565b90509392505050565b613ac1816132a5565b82525050565b5f60c082019050613ada5f830189612998565b613ae76020830188613ab8565b613af46040830187612998565b613b016060830186612998565b613b0e6080830185612998565b613b1b60a0830184612998565b979650505050505050565b5f61010082019050613b3a5f83018b612998565b613b47602083018a6130aa565b613b54604083018961309b565b613b61606083018861309b565b613b6e60808301876130aa565b613b7b60a0830186613048565b613b8860c0830185612998565b613b9560e0830184612998565b9998505050505050505050565b5f81519050613bb081612503565b92915050565b5f60208284031215613bcb57613bca612447565b5b5f613bd884828501613ba2565b91505092915050565b7f4e487b71000000000000000000000000000000000000000000000000000000005f52603260045260245ffd5b5f82356001606003833603038112613c2957613c28613309565b5b80830191505092915050565b5f602082019050613c485f8301846130aa565b92915050565b5f60e082019050613c615f83018a612998565b613c6e60208301896130aa565b613c7b604083018861309b565b613c8860608301876130aa565b613c956080830186613048565b613ca260a0830185612998565b613caf60c0830184612998565b98975050505050505050565b5f82905092915050565b60408201613cd55f8301836138a2565b613ce15f8501826138b8565b50613cef60208301836138c7565b613cfc6020850182613395565b50505050565b60808201613d125f830183613cbb565b613d1e5f850182613cc5565b50613d2c60408301836138c7565b613d396040850182613395565b50613d4760608301836138c7565b613d546060850182613395565b50505050565b604082015f820151613d6e5f8501826138b8565b506020820151613d816020850182613395565b50505050565b5f82825260208201905092915050565b5f613da28385613d87565b9350613daf8385846137aa565b613db883612dd9565b840190509392505050565b5f61014082019050613dd75f83018a613d02565b613de46080830189613d5a565b613df160c083018861309b565b613dfe60e0830187612998565b818103610100830152613e118186612de9565b9050818103610120830152613e27818486613d97565b905098975050505050505050565b5f60c082019050613e485f830189612998565b613e5560208301886130aa565b613e62604083018761309b565b613e6f606083018661309b565b613e7c608083018561309b565b613e8960a08301846130aa565b979650505050505050565b50565b5f613ea25f836137a0565b9150613ead82613e94565b5f82019050919050565b5f613ec182613e97565b9150819050919050565b7f5472616e7366657248656c7065723a20636f756c64206e6f74207472616e73665f8201527f6572204574686572000000000000000000000000000000000000000000000000602082015250565b5f613f25602883612dbb565b9150613f3082613ecb565b604082019050919050565b5f6020820190508181035f830152613f5281613f19565b9050919050565b5f604082019050613f6c5f83018561309b565b613f7960208301846130aa565b9392505050565b5f613f8a826133a4565b613f9481856137a0565b9350613fa4818560208601612dcb565b80840191505092915050565b5f613fbb8284613f80565b915081905092915050565b5f8115159050919050565b613fda81613fc6565b8114613fe4575f5ffd5b50565b5f81519050613ff581613fd1565b92915050565b5f602082840312156140105761400f612447565b5b5f61401d84828501613fe7565b91505092915050565b7f5472616e7366657248656c7065723a20636f756c64206e6f74207472616e73665f8201527f657220455243323020746f6b656e730000000000000000000000000000000000602082015250565b5f614080602f83612dbb565b915061408b82614026565b604082019050919050565b5f6020820190508181035f8301526140ad81614074565b905091905056fe45786563757465416e644c6f636b4552433230207769746e6573732945786563757465416e644c6f636b4552433230286279746573333220707265696d616765486173682c6164647265737320746f6b656e2c6164647265737320636c61696d416464726573732c6164647265737320726566756e64416464726573732c75696e743235362074696d656c6f636b2c627974657333322063616c6c734861736829546f6b656e5065726d697373696f6e73286164647265737320746f6b656e2c75696e7432353620616d6f756e7429a2646970667358221220688ad2a0756081db108df58d217d9af343e92f2ed9c4a8879f8ca24f9f024d3c64736f6c63430008210033","linkReferences":{}},"methodIdentifiers":{"DOMAIN_SEPARATOR()":"3644e515","ERC20_SWAP_CONTRACT()":"2067b7ca","PERMIT2()":"6afdd850","SWAP_CONTRACT()":"cf3afa51","TYPEHASH_CLAIM()":"ebb7af92","TYPEHASH_CLAIM_CALL()":"73e09a78","TYPEHASH_CLAIM_SEND()":"6531efdf","TYPEHASH_EXECUTE_LOCK_ERC20()":"ea8cd088","TYPEHASH_SEND_DATA()":"4a0870ff","TYPESTRING_EXECUTE_LOCK_ERC20()":"b47ec1a0","VERSION()":"ffa1ad74","claimCall((bytes32,uint256,address,uint256,uint8,bytes32,bytes32),address,bytes)":"3503c73d","claimCall((bytes32,uint256,address,uint256,uint8,bytes32,bytes32),address,bytes,uint8,bytes32,bytes32)":"5b2acb70","claimERC20Call((bytes32,uint256,address,address,uint256,uint8,bytes32,bytes32),address,bytes)":"fe54c240","claimERC20Call((bytes32,uint256,address,address,uint256,uint8,bytes32,bytes32),address,bytes,uint8,bytes32,bytes32)":"da2271c3","claimERC20Execute((bytes32,uint256,address,address,uint256,uint8,bytes32,bytes32),(address,uint256,bytes)[],address,uint256)":"9667434f","claimERC20Execute((bytes32,uint256,address,address,uint256,uint8,bytes32,bytes32),(address,uint256,bytes)[],address,uint256,address,uint8,bytes32,bytes32)":"211f3440","claimERC20ExecuteOft((bytes32,uint256,address,address,uint256,uint8,bytes32,bytes32),(address,uint256,bytes)[],address,address,(uint32,bytes32,bytes,bytes,bytes),(uint256,uint256,address,uint8,bytes32,bytes32))":"15ee82d3","claimExecute((bytes32,uint256,address,uint256,uint8,bytes32,bytes32),(address,uint256,bytes)[],address,uint256)":"891d6080","claimExecute((bytes32,uint256,address,uint256,uint8,bytes32,bytes32),(address,uint256,bytes)[],address,uint256,address,uint8,bytes32,bytes32)":"a7b77acb","executeAndLock(bytes32,address,address,uint256,(address,uint256,bytes)[])":"1bcd0c09","executeAndLockERC20(bytes32,address,address,address,uint256,(address,uint256,bytes)[])":"ea81272e","executeAndLockERC20WithPermit2(bytes32,address,address,address,uint256,(address,uint256,bytes)[],((address,uint256),uint256,uint256),address,bytes)":"a66bd06e"},"id":5}