{"abi":[{"type":"constructor","inputs":[{"name":"domainSeparator","type":"bytes32","internalType":"bytes32"}],"stateMutability":"nonpayable"},{"type":"function","name":"DOMAIN_SEPARATOR","inputs":[],"outputs":[{"name":"","type":"bytes32","internalType":"bytes32"}],"stateMutability":"view"},{"type":"function","name":"getTypedDataHash","inputs":[{"name":"message","type":"bytes32","internalType":"bytes32"}],"outputs":[{"name":"","type":"bytes32","internalType":"bytes32"}],"stateMutability":"view"},{"type":"function","name":"hashErc20SwapClaim","inputs":[{"name":"typehash","type":"bytes32","internalType":"bytes32"},{"name":"preimage","type":"bytes32","internalType":"bytes32"},{"name":"amount","type":"uint256","internalType":"uint256"},{"name":"tokenAddress","type":"address","internalType":"address"},{"name":"refundAddress","type":"address","internalType":"address"},{"name":"timelock","type":"uint256","internalType":"uint256"},{"name":"destination","type":"address","internalType":"address"}],"outputs":[{"name":"","type":"bytes32","internalType":"bytes32"}],"stateMutability":"pure"},{"type":"function","name":"hashErc20SwapCommit","inputs":[{"name":"typehash","type":"bytes32","internalType":"bytes32"},{"name":"preimageHash","type":"bytes32","internalType":"bytes32"},{"name":"amount","type":"uint256","internalType":"uint256"},{"name":"tokenAddress","type":"address","internalType":"address"},{"name":"claimAddress","type":"address","internalType":"address"},{"name":"refundAddress","type":"address","internalType":"address"},{"name":"timelock","type":"uint256","internalType":"uint256"}],"outputs":[{"name":"","type":"bytes32","internalType":"bytes32"}],"stateMutability":"pure"},{"type":"function","name":"hashErc20SwapRefund","inputs":[{"name":"typehash","type":"bytes32","internalType":"bytes32"},{"name":"preimageHash","type":"bytes32","internalType":"bytes32"},{"name":"amount","type":"uint256","internalType":"uint256"},{"name":"tokenAddress","type":"address","internalType":"address"},{"name":"claimAddress","type":"address","internalType":"address"},{"name":"timelock","type":"uint256","internalType":"uint256"}],"outputs":[{"name":"","type":"bytes32","internalType":"bytes32"}],"stateMutability":"pure"},{"type":"function","name":"hashEtherSwapClaim","inputs":[{"name":"typehash","type":"bytes32","internalType":"bytes32"},{"name":"preimage","type":"bytes32","internalType":"bytes32"},{"name":"amount","type":"uint256","internalType":"uint256"},{"name":"refundAddress","type":"address","internalType":"address"},{"name":"timelock","type":"uint256","internalType":"uint256"},{"name":"destination","type":"address","internalType":"address"}],"outputs":[{"name":"","type":"bytes32","internalType":"bytes32"}],"stateMutability":"pure"},{"type":"function","name":"hashEtherSwapCommit","inputs":[{"name":"typehash","type":"bytes32","internalType":"bytes32"},{"name":"preimageHash","type":"bytes32","internalType":"bytes32"},{"name":"amount","type":"uint256","internalType":"uint256"},{"name":"claimAddress","type":"address","internalType":"address"},{"name":"refundAddress","type":"address","internalType":"address"},{"name":"timelock","type":"uint256","internalType":"uint256"}],"outputs":[{"name":"","type":"bytes32","internalType":"bytes32"}],"stateMutability":"pure"},{"type":"function","name":"hashEtherSwapRefund","inputs":[{"name":"typehash","type":"bytes32","internalType":"bytes32"},{"name":"preimageHash","type":"bytes32","internalType":"bytes32"},{"name":"amount","type":"uint256","internalType":"uint256"},{"name":"claimAddress","type":"address","internalType":"address"},{"name":"timelock","type":"uint256","internalType":"uint256"}],"outputs":[{"name":"","type":"bytes32","internalType":"bytes32"}],"stateMutability":"pure"}],"bytecode":{"object":"0x60a060405234801561000f575f5ffd5b50604051610b65380380610b6583398181016040528101906100319190610076565b8060808181525050506100a1565b5f5ffd5b5f819050919050565b61005581610043565b811461005f575f5ffd5b50565b5f815190506100708161004c565b92915050565b5f6020828403121561008b5761008a61003f565b5b5f61009884828501610062565b91505092915050565b608051610aa56100c05f395f81816101fa015261029b0152610aa55ff3fe608060405234801561000f575f5ffd5b5060043610610086575f3560e01c8063aafd5f9111610059578063aafd5f9114610138578063ae1f299014610168578063c835444814610198578063dc088b7e146101c857610086565b80633644e5151461008a57806354297c12146100a8578063a526b998146100d8578063a981b0c514610108575b5f5ffd5b6100926101f8565b60405161009f91906103fc565b60405180910390f35b6100c260048036038101906100bd91906104d0565b61021c565b6040516100cf91906103fc565b60405180910390f35b6100f260048036038101906100ed919061056d565b61025d565b6040516100ff91906103fc565b60405180910390f35b610122600480360381019061011d91906105e4565b610298565b60405161012f91906103fc565b60405180910390f35b610152600480360381019061014d919061060f565b6102e9565b60405161015f91906103fc565b60405180910390f35b610182600480360381019061017d9190610698565b610327565b60405161018f91906103fc565b60405180910390f35b6101b260048036038101906101ad9190610735565b610368565b6040516101bf91906103fc565b60405180910390f35b6101e260048036038101906101dd9190610735565b6103a6565b6040516101ef91906103fc565b60405180910390f35b7f000000000000000000000000000000000000000000000000000000000000000081565b5f8787878787878760405160200161023a97969594939291906107dc565b604051602081830303815290604052805190602001209050979650505050505050565b5f8585858585604051602001610277959493929190610849565b60405160208183030381529060405280519060200120905095945050505050565b5f7f0000000000000000000000000000000000000000000000000000000000000000826040516020016102cc92919061090e565b604051602081830303815290604052805190602001209050919050565b5f86868686868660405160200161030596959493929190610944565b6040516020818303038152906040528051906020012090509695505050505050565b5f8787878787878760405160200161034597969594939291906109a3565b604051602081830303815290604052805190602001209050979650505050505050565b5f86868686868660405160200161038496959493929190610a10565b6040516020818303038152906040528051906020012090509695505050505050565b5f8686868686866040516020016103c296959493929190610a10565b6040516020818303038152906040528051906020012090509695505050505050565b5f819050919050565b6103f6816103e4565b82525050565b5f60208201905061040f5f8301846103ed565b92915050565b5f5ffd5b610422816103e4565b811461042c575f5ffd5b50565b5f8135905061043d81610419565b92915050565b5f819050919050565b61045581610443565b811461045f575f5ffd5b50565b5f813590506104708161044c565b92915050565b5f73ffffffffffffffffffffffffffffffffffffffff82169050919050565b5f61049f82610476565b9050919050565b6104af81610495565b81146104b9575f5ffd5b50565b5f813590506104ca816104a6565b92915050565b5f5f5f5f5f5f5f60e0888a0312156104eb576104ea610415565b5b5f6104f88a828b0161042f565b97505060206105098a828b0161042f565b965050604061051a8a828b01610462565b955050606061052b8a828b016104bc565b945050608061053c8a828b016104bc565b93505060a061054d8a828b016104bc565b92505060c061055e8a828b01610462565b91505092959891949750929550565b5f5f5f5f5f60a0868803121561058657610585610415565b5b5f6105938882890161042f565b95505060206105a48882890161042f565b94505060406105b588828901610462565b93505060606105c6888289016104bc565b92505060806105d788828901610462565b9150509295509295909350565b5f602082840312156105f9576105f8610415565b5b5f6106068482850161042f565b91505092915050565b5f5f5f5f5f5f60c0878903121561062957610628610415565b5b5f61063689828a0161042f565b965050602061064789828a0161042f565b955050604061065889828a01610462565b945050606061066989828a016104bc565b935050608061067a89828a01610462565b92505060a061068b89828a016104bc565b9150509295509295509295565b5f5f5f5f5f5f5f60e0888a0312156106b3576106b2610415565b5b5f6106c08a828b0161042f565b97505060206106d18a828b0161042f565b96505060406106e28a828b01610462565b95505060606106f38a828b016104bc565b94505060806107048a828b016104bc565b93505060a06107158a828b01610462565b92505060c06107268a828b016104bc565b91505092959891949750929550565b5f5f5f5f5f5f60c0878903121561074f5761074e610415565b5b5f61075c89828a0161042f565b965050602061076d89828a0161042f565b955050604061077e89828a01610462565b945050606061078f89828a016104bc565b93505060806107a089828a016104bc565b92505060a06107b189828a01610462565b9150509295509295509295565b6107c781610443565b82525050565b6107d681610495565b82525050565b5f60e0820190506107ef5f83018a6103ed565b6107fc60208301896103ed565b61080960408301886107be565b61081660608301876107cd565b61082360808301866107cd565b61083060a08301856107cd565b61083d60c08301846107be565b98975050505050505050565b5f60a08201905061085c5f8301886103ed565b61086960208301876103ed565b61087660408301866107be565b61088360608301856107cd565b61089060808301846107be565b9695505050505050565b5f81905092915050565b7f19010000000000000000000000000000000000000000000000000000000000005f82015250565b5f6108d860028361089a565b91506108e3826108a4565b600282019050919050565b5f819050919050565b610908610903826103e4565b6108ee565b82525050565b5f610918826108cc565b915061092482856108f7565b60208201915061093482846108f7565b6020820191508190509392505050565b5f60c0820190506109575f8301896103ed565b61096460208301886103ed565b61097160408301876107be565b61097e60608301866107cd565b61098b60808301856107be565b61099860a08301846107cd565b979650505050505050565b5f60e0820190506109b65f83018a6103ed565b6109c360208301896103ed565b6109d060408301886107be565b6109dd60608301876107cd565b6109ea60808301866107cd565b6109f760a08301856107be565b610a0460c08301846107cd565b98975050505050505050565b5f60c082019050610a235f8301896103ed565b610a3060208301886103ed565b610a3d60408301876107be565b610a4a60608301866107cd565b610a5760808301856107cd565b610a6460a08301846107be565b97965050505050505056fea2646970667358221220acc32057779f39225133775c68afebdf46c71f21a4aaa8669c7f35c887d8b44264736f6c63430008210033","linkReferences":{}},"methodIdentifiers":{"DOMAIN_SEPARATOR()":"3644e515","getTypedDataHash(bytes32)":"a981b0c5","hashErc20SwapClaim(bytes32,bytes32,uint256,address,address,uint256,address)":"ae1f2990","hashErc20SwapCommit(bytes32,bytes32,uint256,address,address,address,uint256)":"54297c12","hashErc20SwapRefund(bytes32,bytes32,uint256,address,address,uint256)":"dc088b7e","hashEtherSwapClaim(bytes32,bytes32,uint256,address,uint256,address)":"aafd5f91","hashEtherSwapCommit(bytes32,bytes32,uint256,address,address,uint256)":"c8354448","hashEtherSwapRefund(bytes32,bytes32,uint256,address,uint256)":"a526b998"},"id":17}