{"abi":[{"type":"constructor","inputs":[{"name":"domainSeparator","type":"bytes32","internalType":"bytes32"}],"stateMutability":"nonpayable"},{"type":"function","name":"DOMAIN_SEPARATOR","inputs":[],"outputs":[{"name":"","type":"bytes32","internalType":"bytes32"}],"stateMutability":"view"},{"type":"function","name":"getTypedDataHash","inputs":[{"name":"message","type":"bytes32","internalType":"bytes32"}],"outputs":[{"name":"","type":"bytes32","internalType":"bytes32"}],"stateMutability":"view"},{"type":"function","name":"hashErc20SwapClaim","inputs":[{"name":"typehash","type":"bytes32","internalType":"bytes32"},{"name":"preimage","type":"bytes32","internalType":"bytes32"},{"name":"amount","type":"uint256","internalType":"uint256"},{"name":"tokenAddress","type":"address","internalType":"address"},{"name":"refundAddress","type":"address","internalType":"address"},{"name":"timelock","type":"uint256","internalType":"uint256"},{"name":"destination","type":"address","internalType":"address"}],"outputs":[{"name":"","type":"bytes32","internalType":"bytes32"}],"stateMutability":"pure"},{"type":"function","name":"hashErc20SwapCommit","inputs":[{"name":"typehash","type":"bytes32","internalType":"bytes32"},{"name":"preimageHash","type":"bytes32","internalType":"bytes32"},{"name":"amount","type":"uint256","internalType":"uint256"},{"name":"tokenAddress","type":"address","internalType":"address"},{"name":"claimAddress","type":"address","internalType":"address"},{"name":"refundAddress","type":"address","internalType":"address"},{"name":"timelock","type":"uint256","internalType":"uint256"}],"outputs":[{"name":"","type":"bytes32","internalType":"bytes32"}],"stateMutability":"pure"},{"type":"function","name":"hashErc20SwapRefund","inputs":[{"name":"typehash","type":"bytes32","internalType":"bytes32"},{"name":"preimageHash","type":"bytes32","internalType":"bytes32"},{"name":"amount","type":"uint256","internalType":"uint256"},{"name":"tokenAddress","type":"address","internalType":"address"},{"name":"claimAddress","type":"address","internalType":"address"},{"name":"timelock","type":"uint256","internalType":"uint256"}],"outputs":[{"name":"","type":"bytes32","internalType":"bytes32"}],"stateMutability":"pure"},{"type":"function","name":"hashEtherSwapClaim","inputs":[{"name":"typehash","type":"bytes32","internalType":"bytes32"},{"name":"preimage","type":"bytes32","internalType":"bytes32"},{"name":"amount","type":"uint256","internalType":"uint256"},{"name":"refundAddress","type":"address","internalType":"address"},{"name":"timelock","type":"uint256","internalType":"uint256"},{"name":"destination","type":"address","internalType":"address"}],"outputs":[{"name":"","type":"bytes32","internalType":"bytes32"}],"stateMutability":"pure"},{"type":"function","name":"hashEtherSwapCommit","inputs":[{"name":"typehash","type":"bytes32","internalType":"bytes32"},{"name":"preimageHash","type":"bytes32","internalType":"bytes32"},{"name":"amount","type":"uint256","internalType":"uint256"},{"name":"claimAddress","type":"address","internalType":"address"},{"name":"refundAddress","type":"address","internalType":"address"},{"name":"timelock","type":"uint256","internalType":"uint256"}],"outputs":[{"name":"","type":"bytes32","internalType":"bytes32"}],"stateMutability":"pure"},{"type":"function","name":"hashEtherSwapRefund","inputs":[{"name":"typehash","type":"bytes32","internalType":"bytes32"},{"name":"preimageHash","type":"bytes32","internalType":"bytes32"},{"name":"amount","type":"uint256","internalType":"uint256"},{"name":"claimAddress","type":"address","internalType":"address"},{"name":"timelock","type":"uint256","internalType":"uint256"}],"outputs":[{"name":"","type":"bytes32","internalType":"bytes32"}],"stateMutability":"pure"}],"bytecode":{"object":"0x60a060405234801561001057600080fd5b50604051610bad380380610bad8339818101604052810190610032919061007b565b8060808181525050506100a8565b600080fd5b6000819050919050565b61005881610045565b811461006357600080fd5b50565b6000815190506100758161004f565b92915050565b60006020828403121561009157610090610040565b5b600061009f84828501610066565b91505092915050565b608051610ae36100ca600039600081816101fd01526102a10152610ae36000f3fe608060405234801561001057600080fd5b50600436106100885760003560e01c8063aafd5f911161005b578063aafd5f911461013b578063ae1f29901461016b578063c83544481461019b578063dc088b7e146101cb57610088565b80633644e5151461008d57806354297c12146100ab578063a526b998146100db578063a981b0c51461010b575b600080fd5b6100956101fb565b6040516100a29190610407565b60405180910390f35b6100c560048036038101906100c091906104e7565b61021f565b6040516100d29190610407565b60405180910390f35b6100f560048036038101906100f09190610589565b610261565b6040516101029190610407565b60405180910390f35b61012560048036038101906101209190610604565b61029d565b6040516101329190610407565b60405180910390f35b61015560048036038101906101509190610631565b6102ef565b6040516101629190610407565b60405180910390f35b610185600480360381019061018091906106be565b61032e565b6040516101929190610407565b60405180910390f35b6101b560048036038101906101b09190610760565b610370565b6040516101c29190610407565b60405180910390f35b6101e560048036038101906101e09190610760565b6103af565b6040516101f29190610407565b60405180910390f35b7f000000000000000000000000000000000000000000000000000000000000000081565b60008787878787878760405160200161023e979695949392919061080b565b604051602081830303815290604052805190602001209050979650505050505050565b6000858585858560405160200161027c95949392919061087a565b60405160208183030381529060405280519060200120905095945050505050565b60007f0000000000000000000000000000000000000000000000000000000000000000826040516020016102d2929190610945565b604051602081830303815290604052805190602001209050919050565b600086868686868660405160200161030c9695949392919061097c565b6040516020818303038152906040528051906020012090509695505050505050565b60008787878787878760405160200161034d97969594939291906109dd565b604051602081830303815290604052805190602001209050979650505050505050565b600086868686868660405160200161038d96959493929190610a4c565b6040516020818303038152906040528051906020012090509695505050505050565b60008686868686866040516020016103cc96959493929190610a4c565b6040516020818303038152906040528051906020012090509695505050505050565b6000819050919050565b610401816103ee565b82525050565b600060208201905061041c60008301846103f8565b92915050565b600080fd5b610430816103ee565b811461043b57600080fd5b50565b60008135905061044d81610427565b92915050565b6000819050919050565b61046681610453565b811461047157600080fd5b50565b6000813590506104838161045d565b92915050565b600073ffffffffffffffffffffffffffffffffffffffff82169050919050565b60006104b482610489565b9050919050565b6104c4816104a9565b81146104cf57600080fd5b50565b6000813590506104e1816104bb565b92915050565b600080600080600080600060e0888a03121561050657610505610422565b5b60006105148a828b0161043e565b97505060206105258a828b0161043e565b96505060406105368a828b01610474565b95505060606105478a828b016104d2565b94505060806105588a828b016104d2565b93505060a06105698a828b016104d2565b92505060c061057a8a828b01610474565b91505092959891949750929550565b600080600080600060a086880312156105a5576105a4610422565b5b60006105b38882890161043e565b95505060206105c48882890161043e565b94505060406105d588828901610474565b93505060606105e6888289016104d2565b92505060806105f788828901610474565b9150509295509295909350565b60006020828403121561061a57610619610422565b5b60006106288482850161043e565b91505092915050565b60008060008060008060c0878903121561064e5761064d610422565b5b600061065c89828a0161043e565b965050602061066d89828a0161043e565b955050604061067e89828a01610474565b945050606061068f89828a016104d2565b93505060806106a089828a01610474565b92505060a06106b189828a016104d2565b9150509295509295509295565b600080600080600080600060e0888a0312156106dd576106dc610422565b5b60006106eb8a828b0161043e565b97505060206106fc8a828b0161043e565b965050604061070d8a828b01610474565b955050606061071e8a828b016104d2565b945050608061072f8a828b016104d2565b93505060a06107408a828b01610474565b92505060c06107518a828b016104d2565b91505092959891949750929550565b60008060008060008060c0878903121561077d5761077c610422565b5b600061078b89828a0161043e565b965050602061079c89828a0161043e565b95505060406107ad89828a01610474565b94505060606107be89828a016104d2565b93505060806107cf89828a016104d2565b92505060a06107e089828a01610474565b9150509295509295509295565b6107f681610453565b82525050565b610805816104a9565b82525050565b600060e082019050610820600083018a6103f8565b61082d60208301896103f8565b61083a60408301886107ed565b61084760608301876107fc565b61085460808301866107fc565b61086160a08301856107fc565b61086e60c08301846107ed565b98975050505050505050565b600060a08201905061088f60008301886103f8565b61089c60208301876103f8565b6108a960408301866107ed565b6108b660608301856107fc565b6108c360808301846107ed565b9695505050505050565b600081905092915050565b7f1901000000000000000000000000000000000000000000000000000000000000600082015250565b600061090e6002836108cd565b9150610919826108d8565b600282019050919050565b6000819050919050565b61093f61093a826103ee565b610924565b82525050565b600061095082610901565b915061095c828561092e565b60208201915061096c828461092e565b6020820191508190509392505050565b600060c08201905061099160008301896103f8565b61099e60208301886103f8565b6109ab60408301876107ed565b6109b860608301866107fc565b6109c560808301856107ed565b6109d260a08301846107fc565b979650505050505050565b600060e0820190506109f2600083018a6103f8565b6109ff60208301896103f8565b610a0c60408301886107ed565b610a1960608301876107fc565b610a2660808301866107fc565b610a3360a08301856107ed565b610a4060c08301846107fc565b98975050505050505050565b600060c082019050610a6160008301896103f8565b610a6e60208301886103f8565b610a7b60408301876107ed565b610a8860608301866107fc565b610a9560808301856107fc565b610aa260a08301846107ed565b97965050505050505056fea26469706673582212203e54c69aa34fa6f8d92fe5b5d79d7acb2a06ae1480ab406827f1b4ce90e2c14664736f6c63430008210033","linkReferences":{}},"methodIdentifiers":{"DOMAIN_SEPARATOR()":"3644e515","getTypedDataHash(bytes32)":"a981b0c5","hashErc20SwapClaim(bytes32,bytes32,uint256,address,address,uint256,address)":"ae1f2990","hashErc20SwapCommit(bytes32,bytes32,uint256,address,address,address,uint256)":"54297c12","hashErc20SwapRefund(bytes32,bytes32,uint256,address,address,uint256)":"dc088b7e","hashEtherSwapClaim(bytes32,bytes32,uint256,address,uint256,address)":"aafd5f91","hashEtherSwapCommit(bytes32,bytes32,uint256,address,address,uint256)":"c8354448","hashEtherSwapRefund(bytes32,bytes32,uint256,address,uint256)":"a526b998"},"id":66}