{"abi":[{"type":"constructor","inputs":[{"name":"configFilePath","type":"string","internalType":"string"},{"name":"writeToFile","type":"bool","internalType":"bool"}],"stateMutability":"nonpayable"},{"type":"function","name":"exists","inputs":[{"name":"key","type":"string","internalType":"string"}],"outputs":[{"name":"","type":"bool","internalType":"bool"}],"stateMutability":"view"},{"type":"function","name":"exists","inputs":[{"name":"chain_id","type":"uint256","internalType":"uint256"},{"name":"key","type":"string","internalType":"string"}],"outputs":[{"name":"","type":"bool","internalType":"bool"}],"stateMutability":"view"},{"type":"function","name":"get","inputs":[{"name":"key","type":"string","internalType":"string"}],"outputs":[{"name":"","type":"tuple","internalType":"struct Variable","components":[{"name":"ty","type":"tuple","internalType":"struct Type","components":[{"name":"kind","type":"uint8","internalType":"enum TypeKind"},{"name":"isArray","type":"bool","internalType":"bool"}]},{"name":"data","type":"bytes","internalType":"bytes"}]}],"stateMutability":"view"},{"type":"function","name":"get","inputs":[{"name":"chain_id","type":"uint256","internalType":"uint256"},{"name":"key","type":"string","internalType":"string"}],"outputs":[{"name":"","type":"tuple","internalType":"struct Variable","components":[{"name":"ty","type":"tuple","internalType":"struct Type","components":[{"name":"kind","type":"uint8","internalType":"enum TypeKind"},{"name":"isArray","type":"bool","internalType":"bool"}]},{"name":"data","type":"bytes","internalType":"bytes"}]}],"stateMutability":"view"},{"type":"function","name":"getChainIds","inputs":[],"outputs":[{"name":"","type":"uint256[]","internalType":"uint256[]"}],"stateMutability":"view"},{"type":"function","name":"getRpcUrl","inputs":[],"outputs":[{"name":"","type":"string","internalType":"string"}],"stateMutability":"view"},{"type":"function","name":"getRpcUrl","inputs":[{"name":"chainId","type":"uint256","internalType":"uint256"}],"outputs":[{"name":"","type":"string","internalType":"string"}],"stateMutability":"view"},{"type":"function","name":"resolveChainId","inputs":[{"name":"aliasOrId","type":"string","internalType":"string"}],"outputs":[{"name":"","type":"uint256","internalType":"uint256"}],"stateMutability":"view"},{"type":"function","name":"set","inputs":[{"name":"chainId","type":"uint256","internalType":"uint256"},{"name":"key","type":"string","internalType":"string"},{"name":"value","type":"int256","internalType":"int256"}],"outputs":[],"stateMutability":"nonpayable"},{"type":"function","name":"set","inputs":[{"name":"chainId","type":"uint256","internalType":"uint256"},{"name":"key","type":"string","internalType":"string"},{"name":"value","type":"bytes32[]","internalType":"bytes32[]"}],"outputs":[],"stateMutability":"nonpayable"},{"type":"function","name":"set","inputs":[{"name":"chainId","type":"uint256","internalType":"uint256"},{"name":"key","type":"string","internalType":"string"},{"name":"value","type":"uint256","internalType":"uint256"}],"outputs":[],"stateMutability":"nonpayable"},{"type":"function","name":"set","inputs":[{"name":"key","type":"string","internalType":"string"},{"name":"value","type":"bytes","internalType":"bytes"}],"outputs":[],"stateMutability":"nonpayable"},{"type":"function","name":"set","inputs":[{"name":"key","type":"string","internalType":"string"},{"name":"value","type":"bytes32","internalType":"bytes32"}],"outputs":[],"stateMutability":"nonpayable"},{"type":"function","name":"set","inputs":[{"name":"key","type":"string","internalType":"string"},{"name":"value","type":"int256","internalType":"int256"}],"outputs":[],"stateMutability":"nonpayable"},{"type":"function","name":"set","inputs":[{"name":"chainId","type":"uint256","internalType":"uint256"},{"name":"key","type":"string","internalType":"string"},{"name":"value","type":"bytes","internalType":"bytes"}],"outputs":[],"stateMutability":"nonpayable"},{"type":"function","name":"set","inputs":[{"name":"key","type":"string","internalType":"string"},{"name":"value","type":"string[]","internalType":"string[]"}],"outputs":[],"stateMutability":"nonpayable"},{"type":"function","name":"set","inputs":[{"name":"chainId","type":"uint256","internalType":"uint256"},{"name":"key","type":"string","internalType":"string"},{"name":"value","type":"address","internalType":"address"}],"outputs":[],"stateMutability":"nonpayable"},{"type":"function","name":"set","inputs":[{"name":"chainId","type":"uint256","internalType":"uint256"},{"name":"key","type":"string","internalType":"string"},{"name":"value","type":"address[]","internalType":"address[]"}],"outputs":[],"stateMutability":"nonpayable"},{"type":"function","name":"set","inputs":[{"name":"chainId","type":"uint256","internalType":"uint256"},{"name":"key","type":"string","internalType":"string"},{"name":"value","type":"string","internalType":"string"}],"outputs":[],"stateMutability":"nonpayable"},{"type":"function","name":"set","inputs":[{"name":"key","type":"string","internalType":"string"},{"name":"value","type":"uint256[]","internalType":"uint256[]"}],"outputs":[],"stateMutability":"nonpayable"},{"type":"function","name":"set","inputs":[{"name":"key","type":"string","internalType":"string"},{"name":"value","type":"address[]","internalType":"address[]"}],"outputs":[],"stateMutability":"nonpayable"},{"type":"function","name":"set","inputs":[{"name":"key","type":"string","internalType":"string"},{"name":"value","type":"uint256","internalType":"uint256"}],"outputs":[],"stateMutability":"nonpayable"},{"type":"function","name":"set","inputs":[{"name":"chainId","type":"uint256","internalType":"uint256"},{"name":"key","type":"string","internalType":"string"},{"name":"value","type":"int256[]","internalType":"int256[]"}],"outputs":[],"stateMutability":"nonpayable"},{"type":"function","name":"set","inputs":[{"name":"chainId","type":"uint256","internalType":"uint256"},{"name":"key","type":"string","internalType":"string"},{"name":"value","type":"bytes[]","internalType":"bytes[]"}],"outputs":[],"stateMutability":"nonpayable"},{"type":"function","name":"set","inputs":[{"name":"key","type":"string","internalType":"string"},{"name":"value","type":"address","internalType":"address"}],"outputs":[],"stateMutability":"nonpayable"},{"type":"function","name":"set","inputs":[{"name":"chainId","type":"uint256","internalType":"uint256"},{"name":"key","type":"string","internalType":"string"},{"name":"value","type":"bool","internalType":"bool"}],"outputs":[],"stateMutability":"nonpayable"},{"type":"function","name":"set","inputs":[{"name":"key","type":"string","internalType":"string"},{"name":"value","type":"bool","internalType":"bool"}],"outputs":[],"stateMutability":"nonpayable"},{"type":"function","name":"set","inputs":[{"name":"key","type":"string","internalType":"string"},{"name":"value","type":"bytes[]","internalType":"bytes[]"}],"outputs":[],"stateMutability":"nonpayable"},{"type":"function","name":"set","inputs":[{"name":"chainId","type":"uint256","internalType":"uint256"},{"name":"key","type":"string","internalType":"string"},{"name":"value","type":"bytes32","internalType":"bytes32"}],"outputs":[],"stateMutability":"nonpayable"},{"type":"function","name":"set","inputs":[{"name":"chainId","type":"uint256","internalType":"uint256"},{"name":"key","type":"string","internalType":"string"},{"name":"value","type":"string[]","internalType":"string[]"}],"outputs":[],"stateMutability":"nonpayable"},{"type":"function","name":"set","inputs":[{"name":"chainId","type":"uint256","internalType":"uint256"},{"name":"key","type":"string","internalType":"string"},{"name":"value","type":"uint256[]","internalType":"uint256[]"}],"outputs":[],"stateMutability":"nonpayable"},{"type":"function","name":"set","inputs":[{"name":"key","type":"string","internalType":"string"},{"name":"value","type":"int256[]","internalType":"int256[]"}],"outputs":[],"stateMutability":"nonpayable"},{"type":"function","name":"set","inputs":[{"name":"chainId","type":"uint256","internalType":"uint256"},{"name":"key","type":"string","internalType":"string"},{"name":"value","type":"bool[]","internalType":"bool[]"}],"outputs":[],"stateMutability":"nonpayable"},{"type":"function","name":"set","inputs":[{"name":"key","type":"string","internalType":"string"},{"name":"value","type":"bytes32[]","internalType":"bytes32[]"}],"outputs":[],"stateMutability":"nonpayable"},{"type":"function","name":"set","inputs":[{"name":"key","type":"string","internalType":"string"},{"name":"value","type":"string","internalType":"string"}],"outputs":[],"stateMutability":"nonpayable"},{"type":"function","name":"set","inputs":[{"name":"key","type":"string","internalType":"string"},{"name":"value","type":"bool[]","internalType":"bool[]"}],"outputs":[],"stateMutability":"nonpayable"},{"type":"function","name":"writeUpdatesBackToFile","inputs":[{"name":"enabled","type":"bool","internalType":"bool"}],"outputs":[],"stateMutability":"nonpayable"},{"type":"error","name":"AlreadyInitialized","inputs":[{"name":"key","type":"string","internalType":"string"}]},{"type":"error","name":"ChainNotInitialized","inputs":[{"name":"chainId","type":"uint256","internalType":"uint256"}]},{"type":"error","name":"InvalidChainKey","inputs":[{"name":"aliasOrId","type":"string","internalType":"string"}]},{"type":"error","name":"TypeMismatch","inputs":[{"name":"expected","type":"string","internalType":"string"},{"name":"actual","type":"string","internalType":"string"}]},{"type":"error","name":"UnableToParseVariable","inputs":[{"name":"key","type":"string","internalType":"string"}]},{"type":"error","name":"WriteToFileInForbiddenCtxt","inputs":[]}],"bytecode":{"object":"0x608060405234801561001057600080fd5b5060405161aec938038061aec98339818101604052810190610032919061296f565b8080156100da57507f885cb69240a935d632d79c317109709ecfa91a80626ff3989d68f67f5b1dd12d60001c73ffffffffffffffffffffffffffffffffffffffff166364af255d60046040518263ffffffff1660e01b81526004016100979190612a42565b602060405180830381865afa1580156100b4573d6000803e3d6000fd5b505050506040513d601f19601f820116820180604052508101906100d89190612a5d565b155b15610111576040517f2ebcd21800000000000000000000000000000000000000000000000000000000815260040160405180910390fd5b81600090816101209190612cbe565b5080600560006101000a81548160ff02191690831515021790555060007f885cb69240a935d632d79c317109709ecfa91a80626ff3989d68f67f5b1dd12d60001c73ffffffffffffffffffffffffffffffffffffffff1663ddd2128d7f885cb69240a935d632d79c317109709ecfa91a80626ff3989d68f67f5b1dd12d60001c73ffffffffffffffffffffffffffffffffffffffff166360f9bb11866040518263ffffffff1660e01b81526004016101d89190612dda565b600060405180830381865afa1580156101f5573d6000803e3d6000fd5b505050506040513d6000823e3d601f19601f8201168201806040525081019061021e9190612dfc565b6040518263ffffffff1660e01b815260040161023a9190612dda565b6000604051808303816000875af1158015610259573d6000803e3d6000fd5b505050506040513d6000823e3d601f19601f820116820180604052508101906102829190612dfc565b905060007f885cb69240a935d632d79c317109709ecfa91a80626ff3989d68f67f5b1dd12d60001c73ffffffffffffffffffffffffffffffffffffffff1663812a44b2836040518263ffffffff1660e01b81526004016102e29190612e91565b600060405180830381865afa1580156102ff573d6000803e3d6000fd5b505050506040513d6000823e3d601f19601f820116820180604052508101906103289190612fac565b905060005b81518110156109b857600082828151811061034b5761034a612ff5565b5b6020026020010151905060007f885cb69240a935d632d79c317109709ecfa91a80626ff3989d68f67f5b1dd12d60001c73ffffffffffffffffffffffffffffffffffffffff1663812a44b286846040516020016103a89190613086565b6040516020818303038152906040526040518363ffffffff1660e01b81526004016103d49291906130ac565b600060405180830381865afa1580156103f1573d6000803e3d6000fd5b505050506040513d6000823e3d601f19601f8201168201806040525081019061041a9190612fac565b510361042657506109ab565b6000610437826109c260201b60201c565b905060018290806001815401808255809150506001900390600052602060002001600090919091909150908161046d9190612cbe565b507f885cb69240a935d632d79c317109709ecfa91a80626ff3989d68f67f5b1dd12d60001c73ffffffffffffffffffffffffffffffffffffffff16638bb8dd4386846040516020016104bf9190613109565b6040516020818303038152906040526040518363ffffffff1660e01b81526004016104eb9291906130ac565b600060405180830381865afa92505050801561052a57506040513d6000823e3d601f19601f820116820180604052508101906105279190612dfc565b60015b610698577f885cb69240a935d632d79c317109709ecfa91a80626ff3989d68f67f5b1dd12d60001c73ffffffffffffffffffffffffffffffffffffffff1663ddd2128d7f885cb69240a935d632d79c317109709ecfa91a80626ff3989d68f67f5b1dd12d60001c73ffffffffffffffffffffffffffffffffffffffff1663975a6ce9856040518263ffffffff1660e01b81526004016105c99190612dda565b600060405180830381865afa1580156105e6573d6000803e3d6000fd5b505050506040513d6000823e3d601f19601f8201168201806040525081019061060f9190612dfc565b6040518263ffffffff1660e01b815260040161062b9190612dda565b6000604051808303816000875af115801561064a573d6000803e3d6000fd5b505050506040513d6000823e3d601f19601f820116820180604052508101906106739190612dfc565b6002600083815260200190815260200160002090816106929190612cbe565b5061075e565b7f885cb69240a935d632d79c317109709ecfa91a80626ff3989d68f67f5b1dd12d60001c73ffffffffffffffffffffffffffffffffffffffff1663ddd2128d826040518263ffffffff1660e01b81526004016106f49190612dda565b6000604051808303816000875af1158015610713573d6000803e3d6000fd5b505050506040513d6000823e3d601f19601f8201168201806040525081019061073c9190612dfc565b60026000848152602001908152602001600020908161075b9190612cbe565b50505b6000600190505b600760ff168160ff16116109a75760008160ff16600781111561078b5761078a6129cb565b5b90506000846107b18360078111156107a6576107a56129cb565b5b610b5160201b60201c565b6040516020016107c2929190613164565b60405160208183030381529060405290507f885cb69240a935d632d79c317109709ecfa91a80626ff3989d68f67f5b1dd12d60001c73ffffffffffffffffffffffffffffffffffffffff1663812a44b289836040518363ffffffff1660e01b81526004016108319291906130ac565b600060405180830381865afa92505050801561087057506040513d6000823e3d601f19601f8201168201806040525081019061086d9190612fac565b60015b156109925760005b815181101561098f57600082828151811061089657610895612ff5565b5b60200260200101519050600060078111156108b4576108b36129cb565b5b60046000898152602001908152602001600020826040516108d591906131a6565b908152602001604051809103902060000160009054906101000a900460ff166007811115610906576109056129cb565b5b036109445761093f8b85836040516020016109229291906131bd565b604051602081830303815290604052898489610e6f60201b60201c565b610981565b806040517f7140fee00000000000000000000000000000000000000000000000000000000081526004016109789190612dda565b60405180910390fd5b508080600101915050610878565b50505b5050808061099f9061322c565b915050610765565b5050505b808060010191505061032d565b50505050506145ae565b60007f885cb69240a935d632d79c317109709ecfa91a80626ff3989d68f67f5b1dd12d60001c73ffffffffffffffffffffffffffffffffffffffff1663fa91454d836040518263ffffffff1660e01b8152600401610a209190612dda565b602060405180830381865afa925050508015610a5a57506040513d601f19601f82011682018060405250810190610a579190613281565b60015b610b47577f885cb69240a935d632d79c317109709ecfa91a80626ff3989d68f67f5b1dd12d60001c73ffffffffffffffffffffffffffffffffffffffff16634cc1c2bb836040518263ffffffff1660e01b8152600401610aba9190612dda565b600060405180830381865afa925050508015610af957506040513d6000823e3d601f19601f82011682018060405250810190610af69190613384565b60015b610b3a57816040517f97aa94df000000000000000000000000000000000000000000000000000000008152600401610b319190612dda565b60405180910390fd5b8060200151915050610b4c565b809150505b919050565b606060016007811115610b6757610b666129cb565b5b826007811115610b7a57610b796129cb565b5b03610bbc576040518060400160405280600481526020017f626f6f6c000000000000000000000000000000000000000000000000000000008152509050610e6a565b60026007811115610bd057610bcf6129cb565b5b826007811115610be357610be26129cb565b5b03610c25576040518060400160405280600781526020017f61646472657373000000000000000000000000000000000000000000000000008152509050610e6a565b60036007811115610c3957610c386129cb565b5b826007811115610c4c57610c4b6129cb565b5b03610c8e576040518060400160405280600781526020017f62797465733332000000000000000000000000000000000000000000000000008152509050610e6a565b60046007811115610ca257610ca16129cb565b5b826007811115610cb557610cb46129cb565b5b03610cf7576040518060400160405280600481526020017f75696e74000000000000000000000000000000000000000000000000000000008152509050610e6a565b60056007811115610d0b57610d0a6129cb565b5b826007811115610d1e57610d1d6129cb565b5b03610d60576040518060400160405280600381526020017f696e7400000000000000000000000000000000000000000000000000000000008152509050610e6a565b60066007811115610d7457610d736129cb565b5b826007811115610d8757610d866129cb565b5b03610dc9576040518060400160405280600681526020017f737472696e6700000000000000000000000000000000000000000000000000008152509050610e6a565b600780811115610ddc57610ddb6129cb565b5b826007811115610def57610dee6129cb565b5b03610e31576040518060400160405280600581526020017f62797465730000000000000000000000000000000000000000000000000000008152509050610e6a565b6040518060400160405280600481526020017f6e6f6e650000000000000000000000000000000000000000000000000000000081525090505b919050565b600060016007811115610e8557610e846129cb565b5b826007811115610e9857610e976129cb565b5b03611203577f885cb69240a935d632d79c317109709ecfa91a80626ff3989d68f67f5b1dd12d60001c73ffffffffffffffffffffffffffffffffffffffff1663d30dced687876040518363ffffffff1660e01b8152600401610efb9291906130ac565b602060405180830381865afa925050508015610f3557506040513d601f19601f82011682018060405250810190610f329190612a5d565b60015b6110ef577f885cb69240a935d632d79c317109709ecfa91a80626ff3989d68f67f5b1dd12d60001c73ffffffffffffffffffffffffffffffffffffffff1663127cfe9a87876040518363ffffffff1660e01b8152600401610f979291906130ac565b600060405180830381865afa925050508015610fd657506040513d6000823e3d601f19601f82011682018060405250810190610fd39190613490565b60015b156110ea5780604051602001610fec9190613597565b604051602081830303815290604052600360008781526020019081526020016000208560405161101c91906131a6565b90815260200160405180910390209081611036919061362d565b50604051806040016040528060016007811115611056576110556129cb565b5b815260200160011515815250600460008781526020019081526020016000208560405161108391906131a6565b908152602001604051809103902060008201518160000160006101000a81548160ff021916908360078111156110bc576110bb6129cb565b5b021790555060208201518160000160016101000a81548160ff02191690831515021790555090505060019150505b6111fe565b80604051602001611100919061370e565b604051602081830303815290604052600360008781526020019081526020016000208560405161113091906131a6565b9081526020016040518091039020908161114a919061362d565b5060405180604001604052806001600781111561116a576111696129cb565b5b815260200160001515815250600460008781526020019081526020016000208560405161119791906131a6565b908152602001604051809103902060008201518160000160006101000a81548160ff021916908360078111156111d0576111cf6129cb565b5b021790555060208201518160000160016101000a81548160ff02191690831515021790555090505060019150505b612778565b60026007811115611217576112166129cb565b5b82600781111561122a576112296129cb565b5b03611595577f885cb69240a935d632d79c317109709ecfa91a80626ff3989d68f67f5b1dd12d60001c73ffffffffffffffffffffffffffffffffffffffff166365e7c84487876040518363ffffffff1660e01b815260040161128d9291906130ac565b602060405180830381865afa9250505080156112c757506040513d601f19601f820116820180604052508101906112c49190613787565b60015b611481577f885cb69240a935d632d79c317109709ecfa91a80626ff3989d68f67f5b1dd12d60001c73ffffffffffffffffffffffffffffffffffffffff166365c428e787876040518363ffffffff1660e01b81526004016113299291906130ac565b600060405180830381865afa92505050801561136857506040513d6000823e3d601f19601f820116820180604052508101906113659190613877565b60015b1561147c578060405160200161137e919061397e565b60405160208183030381529060405260036000878152602001908152602001600020856040516113ae91906131a6565b908152602001604051809103902090816113c8919061362d565b506040518060400160405280600260078111156113e8576113e76129cb565b5b815260200160011515815250600460008781526020019081526020016000208560405161141591906131a6565b908152602001604051809103902060008201518160000160006101000a81548160ff0219169083600781111561144e5761144d6129cb565b5b021790555060208201518160000160016101000a81548160ff02191690831515021790555090505060019150505b611590565b8060405160200161149291906139af565b60405160208183030381529060405260036000878152602001908152602001600020856040516114c291906131a6565b908152602001604051809103902090816114dc919061362d565b506040518060400160405280600260078111156114fc576114fb6129cb565b5b815260200160001515815250600460008781526020019081526020016000208560405161152991906131a6565b908152602001604051809103902060008201518160000160006101000a81548160ff02191690836007811115611562576115616129cb565b5b021790555060208201518160000160016101000a81548160ff02191690831515021790555090505060019150505b612777565b600360078111156115a9576115a86129cb565b5b8260078111156115bc576115bb6129cb565b5b03611927577f885cb69240a935d632d79c317109709ecfa91a80626ff3989d68f67f5b1dd12d60001c73ffffffffffffffffffffffffffffffffffffffff16638e21481087876040518363ffffffff1660e01b815260040161161f9291906130ac565b602060405180830381865afa92505050801561165957506040513d601f19601f820116820180604052508101906116569190613a00565b60015b611813577f885cb69240a935d632d79c317109709ecfa91a80626ff3989d68f67f5b1dd12d60001c73ffffffffffffffffffffffffffffffffffffffff16633e716f8187876040518363ffffffff1660e01b81526004016116bb9291906130ac565b600060405180830381865afa9250505080156116fa57506040513d6000823e3d601f19601f820116820180604052508101906116f79190613af0565b60015b1561180e57806040516020016117109190613bf7565b604051602081830303815290604052600360008781526020019081526020016000208560405161174091906131a6565b9081526020016040518091039020908161175a919061362d565b5060405180604001604052806003600781111561177a576117796129cb565b5b81526020016001151581525060046000878152602001908152602001600020856040516117a791906131a6565b908152602001604051809103902060008201518160000160006101000a81548160ff021916908360078111156117e0576117df6129cb565b5b021790555060208201518160000160016101000a81548160ff02191690831515021790555090505060019150505b611922565b806040516020016118249190613c28565b604051602081830303815290604052600360008781526020019081526020016000208560405161185491906131a6565b9081526020016040518091039020908161186e919061362d565b5060405180604001604052806003600781111561188e5761188d6129cb565b5b81526020016000151581525060046000878152602001908152602001600020856040516118bb91906131a6565b908152602001604051809103902060008201518160000160006101000a81548160ff021916908360078111156118f4576118f36129cb565b5b021790555060208201518160000160016101000a81548160ff02191690831515021790555090505060019150505b612776565b6004600781111561193b5761193a6129cb565b5b82600781111561194e5761194d6129cb565b5b03611cb9577f885cb69240a935d632d79c317109709ecfa91a80626ff3989d68f67f5b1dd12d60001c73ffffffffffffffffffffffffffffffffffffffff1663cc7b048787876040518363ffffffff1660e01b81526004016119b19291906130ac565b602060405180830381865afa9250505080156119eb57506040513d601f19601f820116820180604052508101906119e89190613281565b60015b611ba5577f885cb69240a935d632d79c317109709ecfa91a80626ff3989d68f67f5b1dd12d60001c73ffffffffffffffffffffffffffffffffffffffff1663b5df27c887876040518363ffffffff1660e01b8152600401611a4d9291906130ac565b600060405180830381865afa925050508015611a8c57506040513d6000823e3d601f19601f82011682018060405250810190611a899190613d06565b60015b15611ba05780604051602001611aa29190613e0d565b6040516020818303038152906040526003600087815260200190815260200160002085604051611ad291906131a6565b90815260200160405180910390209081611aec919061362d565b50604051806040016040528060046007811115611b0c57611b0b6129cb565b5b8152602001600115158152506004600087815260200190815260200160002085604051611b3991906131a6565b908152602001604051809103902060008201518160000160006101000a81548160ff02191690836007811115611b7257611b716129cb565b5b021790555060208201518160000160016101000a81548160ff02191690831515021790555090505060019150505b611cb4565b80604051602001611bb69190613e3e565b6040516020818303038152906040526003600087815260200190815260200160002085604051611be691906131a6565b90815260200160405180910390209081611c00919061362d565b50604051806040016040528060046007811115611c2057611c1f6129cb565b5b8152602001600015158152506004600087815260200190815260200160002085604051611c4d91906131a6565b908152602001604051809103902060008201518160000160006101000a81548160ff02191690836007811115611c8657611c856129cb565b5b021790555060208201518160000160016101000a81548160ff02191690831515021790555090505060019150505b612775565b60056007811115611ccd57611ccc6129cb565b5b826007811115611ce057611cdf6129cb565b5b0361204b577f885cb69240a935d632d79c317109709ecfa91a80626ff3989d68f67f5b1dd12d60001c73ffffffffffffffffffffffffffffffffffffffff1663c135073987876040518363ffffffff1660e01b8152600401611d439291906130ac565b602060405180830381865afa925050508015611d7d57506040513d601f19601f82011682018060405250810190611d7a9190613e8f565b60015b611f37577f885cb69240a935d632d79c317109709ecfa91a80626ff3989d68f67f5b1dd12d60001c73ffffffffffffffffffffffffffffffffffffffff1663d3522ae687876040518363ffffffff1660e01b8152600401611ddf9291906130ac565b600060405180830381865afa925050508015611e1e57506040513d6000823e3d601f19601f82011682018060405250810190611e1b9190613f7f565b60015b15611f325780604051602001611e349190614086565b6040516020818303038152906040526003600087815260200190815260200160002085604051611e6491906131a6565b90815260200160405180910390209081611e7e919061362d565b50604051806040016040528060056007811115611e9e57611e9d6129cb565b5b8152602001600115158152506004600087815260200190815260200160002085604051611ecb91906131a6565b908152602001604051809103902060008201518160000160006101000a81548160ff02191690836007811115611f0457611f036129cb565b5b021790555060208201518160000160016101000a81548160ff02191690831515021790555090505060019150505b612046565b80604051602001611f4891906140b7565b6040516020818303038152906040526003600087815260200190815260200160002085604051611f7891906131a6565b90815260200160405180910390209081611f92919061362d565b50604051806040016040528060056007811115611fb257611fb16129cb565b5b8152602001600015158152506004600087815260200190815260200160002085604051611fdf91906131a6565b908152602001604051809103902060008201518160000160006101000a81548160ff02191690836007811115612018576120176129cb565b5b021790555060208201518160000160016101000a81548160ff02191690831515021790555090505060019150505b612774565b60078081111561205e5761205d6129cb565b5b826007811115612071576120706129cb565b5b036123df577f885cb69240a935d632d79c317109709ecfa91a80626ff3989d68f67f5b1dd12d60001c73ffffffffffffffffffffffffffffffffffffffff1663d77bfdb987876040518363ffffffff1660e01b81526004016120d49291906130ac565b600060405180830381865afa92505050801561211357506040513d6000823e3d601f19601f820116820180604052508101906121109190614173565b60015b6122cc577f885cb69240a935d632d79c317109709ecfa91a80626ff3989d68f67f5b1dd12d60001c73ffffffffffffffffffffffffffffffffffffffff1663b197c24787876040518363ffffffff1660e01b81526004016121759291906130ac565b600060405180830381865afa9250505080156121b457506040513d6000823e3d601f19601f820116820180604052508101906121b1919061429d565b60015b156122c757806040516020016121ca91906143f2565b60405160208183030381529060405260036000878152602001908152602001600020856040516121fa91906131a6565b90815260200160405180910390209081612214919061362d565b506040518060400160405280600780811115612233576122326129cb565b5b815260200160011515815250600460008781526020019081526020016000208560405161226091906131a6565b908152602001604051809103902060008201518160000160006101000a81548160ff02191690836007811115612299576122986129cb565b5b021790555060208201518160000160016101000a81548160ff02191690831515021790555090505060019150505b6123da565b806040516020016122dd919061445e565b604051602081830303815290604052600360008781526020019081526020016000208560405161230d91906131a6565b90815260200160405180910390209081612327919061362d565b506040518060400160405280600780811115612346576123456129cb565b5b815260200160001515815250600460008781526020019081526020016000208560405161237391906131a6565b908152602001604051809103902060008201518160000160006101000a81548160ff021916908360078111156123ac576123ab6129cb565b5b021790555060208201518160000160016101000a81548160ff02191690831515021790555090505060019150505b612773565b600660078111156123f3576123f26129cb565b5b826007811115612406576124056129cb565b5b03612772577f885cb69240a935d632d79c317109709ecfa91a80626ff3989d68f67f5b1dd12d60001c73ffffffffffffffffffffffffffffffffffffffff16638bb8dd4387876040518363ffffffff1660e01b81526004016124699291906130ac565b600060405180830381865afa9250505080156124a857506040513d6000823e3d601f19601f820116820180604052508101906124a59190612dfc565b60015b612662577f885cb69240a935d632d79c317109709ecfa91a80626ff3989d68f67f5b1dd12d60001c73ffffffffffffffffffffffffffffffffffffffff16639f62928187876040518363ffffffff1660e01b815260040161250a9291906130ac565b600060405180830381865afa92505050801561254957506040513d6000823e3d601f19601f820116820180604052508101906125469190612fac565b60015b1561265d578060405160200161255f919061458c565b604051602081830303815290604052600360008781526020019081526020016000208560405161258f91906131a6565b908152602001604051809103902090816125a9919061362d565b506040518060400160405280600660078111156125c9576125c86129cb565b5b81526020016001151581525060046000878152602001908152602001600020856040516125f691906131a6565b908152602001604051809103902060008201518160000160006101000a81548160ff0219169083600781111561262f5761262e6129cb565b5b021790555060208201518160000160016101000a81548160ff02191690831515021790555090505060019150505b612771565b806040516020016126739190612dda565b60405160208183030381529060405260036000878152602001908152602001600020856040516126a391906131a6565b908152602001604051809103902090816126bd919061362d565b506040518060400160405280600660078111156126dd576126dc6129cb565b5b815260200160001515815250600460008781526020019081526020016000208560405161270a91906131a6565b908152602001604051809103902060008201518160000160006101000a81548160ff02191690836007811115612743576127426129cb565b5b021790555060208201518160000160016101000a81548160ff02191690831515021790555090505060019150505b5b5b5b5b5b5b5b806127ba57826040517fea00fa130000000000000000000000000000000000000000000000000000000081526004016127b19190612dda565b60405180910390fd5b505050505050565b6000604051905090565b600080fd5b600080fd5b600080fd5b600080fd5b6000601f19601f8301169050919050565b7f4e487b7100000000000000000000000000000000000000000000000000000000600052604160045260246000fd5b612829826127e0565b810181811067ffffffffffffffff82111715612848576128476127f1565b5b80604052505050565b600061285b6127c2565b90506128678282612820565b919050565b600067ffffffffffffffff821115612887576128866127f1565b5b612890826127e0565b9050602081019050919050565b60005b838110156128bb5780820151818401526020810190506128a0565b60008484015250505050565b60006128da6128d58461286c565b612851565b9050828152602081018484840111156128f6576128f56127db565b5b61290184828561289d565b509392505050565b600082601f83011261291e5761291d6127d6565b5b815161292e8482602086016128c7565b91505092915050565b60008115159050919050565b61294c81612937565b811461295757600080fd5b50565b60008151905061296981612943565b92915050565b60008060408385031215612986576129856127cc565b5b600083015167ffffffffffffffff8111156129a4576129a36127d1565b5b6129b085828601612909565b92505060206129c18582860161295a565b9150509250929050565b7f4e487b7100000000000000000000000000000000000000000000000000000000600052602160045260246000fd5b60098110612a0b57612a0a6129cb565b5b50565b6000819050612a1c826129fa565b919050565b6000612a2c82612a0e565b9050919050565b612a3c81612a21565b82525050565b6000602082019050612a576000830184612a33565b92915050565b600060208284031215612a7357612a726127cc565b5b6000612a818482850161295a565b91505092915050565b600081519050919050565b7f4e487b7100000000000000000000000000000000000000000000000000000000600052602260045260246000fd5b60006002820490506001821680612adc57607f821691505b602082108103612aef57612aee612a95565b5b50919050565b60008190508160005260206000209050919050565b60006020601f8301049050919050565b600082821b905092915050565b600060088302612b577fffffffffffffffffffffffffffffffffffffffffffffffffffffffffffffffff82612b1a565b612b618683612b1a565b95508019841693508086168417925050509392505050565b6000819050919050565b6000819050919050565b6000612ba8612ba3612b9e84612b79565b612b83565b612b79565b9050919050565b6000819050919050565b612bc283612b8d565b612bd6612bce82612baf565b848454612b27565b825550505050565b600090565b612beb612bde565b612bf6818484612bb9565b505050565b60005b82811015612c1e57612c136000828401612be3565b600181019050612bfe565b505050565b601f821115612c725782821115612c7157612c3d81612af5565b612c4683612b0a565b612c4f85612b0a565b6020861015612c5d57600090505b808301612c6c82840382612bfb565b505050505b5b505050565b600082821c905092915050565b6000612c9560001984600802612c77565b1980831691505092915050565b6000612cae8383612c84565b9150826002028217905092915050565b612cc782612a8a565b67ffffffffffffffff811115612ce057612cdf6127f1565b5b612cea8254612ac4565b612cf5828285612c23565b600060209050601f831160018114612d285760008415612d16578287015190505b612d208582612ca2565b865550612d88565b601f198416612d3686612af5565b60005b82811015612d5e57848901518255600182019150602085019450602081019050612d39565b86831015612d7b5784890151612d77601f891682612c84565b8355505b6001600288020188555050505b505050505050565b600082825260208201905092915050565b6000612dac82612a8a565b612db68185612d90565b9350612dc681856020860161289d565b612dcf816127e0565b840191505092915050565b60006020820190508181036000830152612df48184612da1565b905092915050565b600060208284031215612e1257612e116127cc565b5b600082015167ffffffffffffffff811115612e3057612e2f6127d1565b5b612e3c84828501612909565b91505092915050565b7f2400000000000000000000000000000000000000000000000000000000000000600082015250565b6000612e7b600183612d90565b9150612e8682612e45565b602082019050919050565b60006040820190508181036000830152612eab8184612da1565b90508181036020830152612ebe81612e6e565b905092915050565b600067ffffffffffffffff821115612ee157612ee06127f1565b5b602082029050602081019050919050565b600080fd5b6000612f0a612f0584612ec6565b612851565b90508083825260208201905060208402830185811115612f2d57612f2c612ef2565b5b835b81811015612f7457805167ffffffffffffffff811115612f5257612f516127d6565b5b808601612f5f8982612909565b85526020850194505050602081019050612f2f565b5050509392505050565b600082601f830112612f9357612f926127d6565b5b8151612fa3848260208601612ef7565b91505092915050565b600060208284031215612fc257612fc16127cc565b5b600082015167ffffffffffffffff811115612fe057612fdf6127d1565b5b612fec84828501612f7e565b91505092915050565b7f4e487b7100000000000000000000000000000000000000000000000000000000600052603260045260246000fd5b7f242e000000000000000000000000000000000000000000000000000000000000815250565b600081905092915050565b600061306082612a8a565b61306a818561304a565b935061307a81856020860161289d565b80840191505092915050565b600061309182613024565b6002820191506130a18284613055565b915081905092915050565b600060408201905081810360008301526130c68185612da1565b905081810360208301526130da8184612da1565b90509392505050565b7f2e656e64706f696e745f75726c00000000000000000000000000000000000000815250565b600061311482613024565b6002820191506131248284613055565b915061312f826130e3565b600d8201915081905092915050565b7f2e00000000000000000000000000000000000000000000000000000000000000815250565b600061316f82613024565b60028201915061317f8285613055565b915061318a8261313e565b60018201915061319a8284613055565b91508190509392505050565b60006131b28284613055565b915081905092915050565b60006131c98285613055565b91506131d48261313e565b6001820191506131e48284613055565b91508190509392505050565b7f4e487b7100000000000000000000000000000000000000000000000000000000600052601160045260246000fd5b600060ff82169050919050565b60006132378261321f565b915060ff820361324a576132496131f0565b5b600182019050919050565b61325e81612b79565b811461326957600080fd5b50565b60008151905061327b81613255565b92915050565b600060208284031215613297576132966127cc565b5b60006132a58482850161326c565b91505092915050565b600080fd5b600080fd5b6000608082840312156132ce576132cd6132ae565b5b6132d86080612851565b9050600082015167ffffffffffffffff8111156132f8576132f76132b3565b5b61330484828501612909565b60008301525060206133188482850161326c565b602083015250604082015167ffffffffffffffff81111561333c5761333b6132b3565b5b61334884828501612909565b604083015250606082015167ffffffffffffffff81111561336c5761336b6132b3565b5b61337884828501612909565b60608301525092915050565b60006020828403121561339a576133996127cc565b5b600082015167ffffffffffffffff8111156133b8576133b76127d1565b5b6133c4848285016132b8565b91505092915050565b600067ffffffffffffffff8211156133e8576133e76127f1565b5b602082029050602081019050919050565b600061340c613407846133cd565b612851565b9050808382526020820190506020840283018581111561342f5761342e612ef2565b5b835b818110156134585780613444888261295a565b845260208401935050602081019050613431565b5050509392505050565b600082601f830112613477576134766127d6565b5b81516134878482602086016133f9565b91505092915050565b6000602082840312156134a6576134a56127cc565b5b600082015167ffffffffffffffff8111156134c4576134c36127d1565b5b6134d084828501613462565b91505092915050565b600081519050919050565b600082825260208201905092915050565b6000819050602082019050919050565b61350e81612937565b82525050565b60006135208383613505565b60208301905092915050565b6000602082019050919050565b6000613544826134d9565b61354e81856134e4565b9350613559836134f5565b8060005b8381101561358a5781516135718882613514565b975061357c8361352c565b92505060018101905061355d565b5085935050505092915050565b600060208201905081810360008301526135b18184613539565b905092915050565b600081519050919050565b60008190508160005260206000209050919050565b601f8211156136285782821115613627576135f3816135c4565b6135fc83612b0a565b61360585612b0a565b602086101561361357600090505b80830161362282840382612bfb565b505050505b5b505050565b613636826135b9565b67ffffffffffffffff81111561364f5761364e6127f1565b5b6136598254612ac4565b6136648282856135d9565b600060209050601f8311600181146136975760008415613685578287015190505b61368f8582612ca2565b8655506136f7565b601f1984166136a5866135c4565b60005b828110156136cd578489015182556001820191506020850194506020810190506136a8565b868310156136ea57848901516136e6601f891682612c84565b8355505b6001600288020188555050505b505050505050565b61370881612937565b82525050565b600060208201905061372360008301846136ff565b92915050565b600073ffffffffffffffffffffffffffffffffffffffff82169050919050565b600061375482613729565b9050919050565b61376481613749565b811461376f57600080fd5b50565b6000815190506137818161375b565b92915050565b60006020828403121561379d5761379c6127cc565b5b60006137ab84828501613772565b91505092915050565b600067ffffffffffffffff8211156137cf576137ce6127f1565b5b602082029050602081019050919050565b60006137f36137ee846137b4565b612851565b9050808382526020820190506020840283018581111561381657613815612ef2565b5b835b8181101561383f578061382b8882613772565b845260208401935050602081019050613818565b5050509392505050565b600082601f83011261385e5761385d6127d6565b5b815161386e8482602086016137e0565b91505092915050565b60006020828403121561388d5761388c6127cc565b5b600082015167ffffffffffffffff8111156138ab576138aa6127d1565b5b6138b784828501613849565b91505092915050565b600081519050919050565b600082825260208201905092915050565b6000819050602082019050919050565b6138f581613749565b82525050565b600061390783836138ec565b60208301905092915050565b6000602082019050919050565b600061392b826138c0565b61393581856138cb565b9350613940836138dc565b8060005b8381101561397157815161395888826138fb565b975061396383613913565b925050600181019050613944565b5085935050505092915050565b600060208201905081810360008301526139988184613920565b905092915050565b6139a981613749565b82525050565b60006020820190506139c460008301846139a0565b92915050565b6000819050919050565b6139dd816139ca565b81146139e857600080fd5b50565b6000815190506139fa816139d4565b92915050565b600060208284031215613a1657613a156127cc565b5b6000613a24848285016139eb565b91505092915050565b600067ffffffffffffffff821115613a4857613a476127f1565b5b602082029050602081019050919050565b6000613a6c613a6784613a2d565b612851565b90508083825260208201905060208402830185811115613a8f57613a8e612ef2565b5b835b81811015613ab85780613aa488826139eb565b845260208401935050602081019050613a91565b5050509392505050565b600082601f830112613ad757613ad66127d6565b5b8151613ae7848260208601613a59565b91505092915050565b600060208284031215613b0657613b056127cc565b5b600082015167ffffffffffffffff811115613b2457613b236127d1565b5b613b3084828501613ac2565b91505092915050565b600081519050919050565b600082825260208201905092915050565b6000819050602082019050919050565b613b6e816139ca565b82525050565b6000613b808383613b65565b60208301905092915050565b6000602082019050919050565b6000613ba482613b39565b613bae8185613b44565b9350613bb983613b55565b8060005b83811015613bea578151613bd18882613b74565b9750613bdc83613b8c565b925050600181019050613bbd565b5085935050505092915050565b60006020820190508181036000830152613c118184613b99565b905092915050565b613c22816139ca565b82525050565b6000602082019050613c3d6000830184613c19565b92915050565b600067ffffffffffffffff821115613c5e57613c5d6127f1565b5b602082029050602081019050919050565b6000613c82613c7d84613c43565b612851565b90508083825260208201905060208402830185811115613ca557613ca4612ef2565b5b835b81811015613cce5780613cba888261326c565b845260208401935050602081019050613ca7565b5050509392505050565b600082601f830112613ced57613cec6127d6565b5b8151613cfd848260208601613c6f565b91505092915050565b600060208284031215613d1c57613d1b6127cc565b5b600082015167ffffffffffffffff811115613d3a57613d396127d1565b5b613d4684828501613cd8565b91505092915050565b600081519050919050565b600082825260208201905092915050565b6000819050602082019050919050565b613d8481612b79565b82525050565b6000613d968383613d7b565b60208301905092915050565b6000602082019050919050565b6000613dba82613d4f565b613dc48185613d5a565b9350613dcf83613d6b565b8060005b83811015613e00578151613de78882613d8a565b9750613df283613da2565b925050600181019050613dd3565b5085935050505092915050565b60006020820190508181036000830152613e278184613daf565b905092915050565b613e3881612b79565b82525050565b6000602082019050613e536000830184613e2f565b92915050565b6000819050919050565b613e6c81613e59565b8114613e7757600080fd5b50565b600081519050613e8981613e63565b92915050565b600060208284031215613ea557613ea46127cc565b5b6000613eb384828501613e7a565b91505092915050565b600067ffffffffffffffff821115613ed757613ed66127f1565b5b602082029050602081019050919050565b6000613efb613ef684613ebc565b612851565b90508083825260208201905060208402830185811115613f1e57613f1d612ef2565b5b835b81811015613f475780613f338882613e7a565b845260208401935050602081019050613f20565b5050509392505050565b600082601f830112613f6657613f656127d6565b5b8151613f76848260208601613ee8565b91505092915050565b600060208284031215613f9557613f946127cc565b5b600082015167ffffffffffffffff811115613fb357613fb26127d1565b5b613fbf84828501613f51565b91505092915050565b600081519050919050565b600082825260208201905092915050565b6000819050602082019050919050565b613ffd81613e59565b82525050565b600061400f8383613ff4565b60208301905092915050565b6000602082019050919050565b600061403382613fc8565b61403d8185613fd3565b935061404883613fe4565b8060005b838110156140795781516140608882614003565b975061406b8361401b565b92505060018101905061404c565b5085935050505092915050565b600060208201905081810360008301526140a08184614028565b905092915050565b6140b181613e59565b82525050565b60006020820190506140cc60008301846140a8565b92915050565b600067ffffffffffffffff8211156140ed576140ec6127f1565b5b6140f6826127e0565b9050602081019050919050565b6000614116614111846140d2565b612851565b905082815260208101848484011115614132576141316127db565b5b61413d84828561289d565b509392505050565b600082601f83011261415a576141596127d6565b5b815161416a848260208601614103565b91505092915050565b600060208284031215614189576141886127cc565b5b600082015167ffffffffffffffff8111156141a7576141a66127d1565b5b6141b384828501614145565b91505092915050565b600067ffffffffffffffff8211156141d7576141d66127f1565b5b602082029050602081019050919050565b60006141fb6141f6846141bc565b612851565b9050808382526020820190506020840283018581111561421e5761421d612ef2565b5b835b8181101561426557805167ffffffffffffffff811115614243576142426127d6565b5b8086016142508982614145565b85526020850194505050602081019050614220565b5050509392505050565b600082601f830112614284576142836127d6565b5b81516142948482602086016141e8565b91505092915050565b6000602082840312156142b3576142b26127cc565b5b600082015167ffffffffffffffff8111156142d1576142d06127d1565b5b6142dd8482850161426f565b91505092915050565b600081519050919050565b600082825260208201905092915050565b6000819050602082019050919050565b600082825260208201905092915050565b600061432e826135b9565b6143388185614312565b935061434881856020860161289d565b614351816127e0565b840191505092915050565b60006143688383614323565b905092915050565b6000602082019050919050565b6000614388826142e6565b61439281856142f1565b9350836020820285016143a485614302565b8060005b858110156143e057848403895281516143c1858261435c565b94506143cc83614370565b925060208a019950506001810190506143a8565b50829750879550505050505092915050565b6000602082019050818103600083015261440c818461437d565b905092915050565b600082825260208201905092915050565b6000614430826135b9565b61443a8185614414565b935061444a81856020860161289d565b614453816127e0565b840191505092915050565b600060208201905081810360008301526144788184614425565b905092915050565b600081519050919050565b600082825260208201905092915050565b6000819050602082019050919050565b600082825260208201905092915050565b60006144c882612a8a565b6144d281856144ac565b93506144e281856020860161289d565b6144eb816127e0565b840191505092915050565b600061450283836144bd565b905092915050565b6000602082019050919050565b600061452282614480565b61452c818561448b565b93508360208202850161453e8561449c565b8060005b8581101561457a578484038952815161455b85826144f6565b94506145668361450a565b925060208a01995050600181019050614542565b50829750879550505050505092915050565b600060208201905081810360008301526145a68184614517565b905092915050565b61690c806145bd6000396000f3fe608060405234801561001057600080fd5b50600436106102275760003560e01c80637df3ef1211610130578063c91ca7ba116100b8578063de0fc9b31161007c578063de0fc9b314610628578063e298d00b14610644578063e605325014610660578063e942b5161461067c578063fa3c074a1461069857610227565b8063c91ca7ba1461059c578063cf1cfa99146105b8578063cf72a2f3146105d4578063d6698dc4146105f0578063db0075df1461060c57610227565b80638be19924116100ff5780638be199241461051057806393dbe6e01461052c578063a815ff1514610548578063b3a6400114610564578063ba0ff22c1461058057610227565b80637df3ef1214610478578063805da4ad146104a857806388c63d45146104d85780638a42ebe9146104f457610227565b806343d9eb7b116101b35780635eba0df0116101825780635eba0df0146103d857806361141c97146103f45780636556095014610410578063693ec85e1461042c5780637b8fed811461045c57610227565b806343d9eb7b1461035257806343ec8b6a146103825780634d85ce80146103a057806359b39526146103bc57610227565b8063261a323e116101fa578063261a323e1461029e5780632b29c0fa146102ce5780632e3196a5146102ea5780632ef8ba74146103065780633f3a75881461032257610227565b806307d79d9a1461022c57806308f7b4b2146102485780631d7763231461026457806322dc48fd14610282575b600080fd5b61024660048036038101906102419190614059565b6106b4565b005b610262600480360381019061025d91906141c6565b610831565b005b61026c610aa3565b604051610279919061430f565b60405180910390f35b61029c60048036038101906102979190614331565b610c2d565b005b6102b860048036038101906102b391906143a0565b610daa565b6040516102c59190614404565b60405180910390f35b6102e860048036038101906102e391906144c0565b610e4e565b005b61030460048036038101906102ff9190614538565b610eee565b005b610320600480360381019061031b9190614594565b610f8e565b005b61033c600480360381019061033791906143a0565b61102e565b60405161034991906145ff565b60405180910390f35b61036c6004803603810190610367919061461a565b6111bd565b6040516103799190614404565b60405180910390f35b61038a611205565b60405161039791906146f5565b60405180910390f35b6103ba60048036038101906103b59190614717565b611339565b005b6103d660048036038101906103d19190614883565b6114bd565b005b6103f260048036038101906103ed9190614959565b61155d565b005b61040e60048036038101906104099190614a8b565b6116e2565b005b61042a60048036038101906104259190614b16565b611954565b005b610446600480360381019061044191906143a0565b611a38565b6040516104539190614ce8565b60405180910390f35b61047660048036038101906104719190614dcd565b611ae2565b005b610492600480360381019061048d9190614e45565b611b82565b60405161049f91906146f5565b60405180910390f35b6104c260048036038101906104bd919061461a565b611c27565b6040516104cf9190614ce8565b60405180910390f35b6104f260048036038101906104ed9190614e72565b611d92565b005b61050e60048036038101906105099190614eea565b611e32565b005b61052a60048036038101906105259190615009565b611ed2565b005b61054660048036038101906105419190615175565b61213c565b005b610562600480360381019061055d9190615200565b6123ad565b005b61057e60048036038101906105799190615288565b61244d565b005b61059a600480360381019061059591906152f7565b6125ca565b005b6105b660048036038101906105b19190615353565b61266a565b005b6105d260048036038101906105cd91906153cb565b61270a565b005b6105ee60048036038101906105e9919061543a565b61288f565b005b61060a600480360381019061060591906154c5565b612a60565b005b610626600480360381019061062191906154f2565b612b5c565b005b610642600480360381019061063d919061557d565b612dc6565b005b61065e600480360381019061065991906156b8565b612e66565b005b61067a60048036038101906106759190615743565b6130d0565b005b610696600480360381019061069191906157bb565b613170565b005b6106b260048036038101906106ad9190615833565b613210565b005b60006040518060400160405280600560078111156106d5576106d4614ba1565b5b81526020016000151581525090506106ee8484836132b0565b816040516020016106ff91906158ba565b604051602081830303815290604052600360008681526020019081526020016000208460405161072f9190615911565b908152602001604051809103902090816107499190615b47565b50600560009054906101000a900460ff161561082b5761082a846107828360000151600781111561077d5761077c614ba1565b5b613416565b857f885cb69240a935d632d79c317109709ecfa91a80626ff3989d68f67f5b1dd12d60001c73ffffffffffffffffffffffffffffffffffffffff1663a322c40e876040518263ffffffff1660e01b81526004016107df91906158ba565b600060405180830381865afa1580156107fc573d6000803e3d6000fd5b505050506040513d6000823e3d601f19601f820116820180604052508101906108259190615c89565b613734565b5b50505050565b600060405180604001604052806003600781111561085257610851614ba1565b5b815260200160011515815250905061086b8484836132b0565b8160405160200161087c9190615d90565b60405160208183030381529060405260036000868152602001908152602001600020846040516108ac9190615911565b908152602001604051809103902090816108c69190615b47565b50600560009054906101000a900460ff1615610a9d5760006040518060400160405280600181526020017f5b00000000000000000000000000000000000000000000000000000000000000815250905060005b8351811015610a4e57816109e77f885cb69240a935d632d79c317109709ecfa91a80626ff3989d68f67f5b1dd12d60001c73ffffffffffffffffffffffffffffffffffffffff1663b11a19e887858151811061097857610977615db2565b5b60200260200101516040518263ffffffff1660e01b815260040161099c9190615df0565b600060405180830381865afa1580156109b9573d6000803e3d6000fd5b505050506040513d6000823e3d601f19601f820116820180604052508101906109e29190615c89565b613804565b6040516020016109f8929190615e0b565b604051602081830303815290604052915060018451610a179190615e5e565b811015610a415781604051602001610a2f9190615eb8565b60405160208183030381529060405291505b8080600101915050610919565b5080604051602001610a609190615f04565b6040516020818303038152906040529050610a9b85610a9484600001516007811115610a8f57610a8e614ba1565b5b613416565b8684613734565b505b50505050565b606060006001805480602002602001604051908101604052809291908181526020016000905b82821015610b75578382906000526020600020018054610ae890615957565b80601f0160208091040260200160405190810160405280929190818152602001828054610b1490615957565b8015610b615780601f10610b3657610100808354040283529160200191610b61565b820191906000526020600020905b815481529060010190602001808311610b4457829003601f168201915b505050505081526020019060010190610ac9565b5050505090506000815167ffffffffffffffff811115610b9857610b97613ef8565b5b604051908082528060200260200182016040528015610bc65781602001602082028036833780820191505090505b50905060005b8251811015610c2457610bf8838281518110610beb57610bea615db2565b5b602002602001015161102e565b828281518110610c0b57610c0a615db2565b5b6020026020010181815250508080600101915050610bcc565b50809250505090565b6000604051806040016040528060046007811115610c4e57610c4d614ba1565b5b8152602001600015158152509050610c678484836132b0565b81604051602001610c7891906145ff565b6040516020818303038152906040526003600086815260200190815260200160002084604051610ca89190615911565b90815260200160405180910390209081610cc29190615b47565b50600560009054906101000a900460ff1615610da457610da384610cfb83600001516007811115610cf657610cf5614ba1565b5b613416565b857f885cb69240a935d632d79c317109709ecfa91a80626ff3989d68f67f5b1dd12d60001c73ffffffffffffffffffffffffffffffffffffffff16636900a3ae876040518263ffffffff1660e01b8152600401610d5891906145ff565b600060405180830381865afa158015610d75573d6000803e3d6000fd5b505050506040513d6000823e3d601f19601f82011682018060405250810190610d9e9190615c89565b613734565b5b50505050565b6000610e477f885cb69240a935d632d79c317109709ecfa91a80626ff3989d68f67f5b1dd12d60001c73ffffffffffffffffffffffffffffffffffffffff16633408e4706040518163ffffffff1660e01b8152600401602060405180830381865afa158015610e1d573d6000803e3d6000fd5b505050506040513d601f19601f82011682018060405250810190610e419190615f3f565b836111bd565b9050919050565b610eea7f885cb69240a935d632d79c317109709ecfa91a80626ff3989d68f67f5b1dd12d60001c73ffffffffffffffffffffffffffffffffffffffff16633408e4706040518163ffffffff1660e01b8152600401602060405180830381865afa158015610ebf573d6000803e3d6000fd5b505050506040513d601f19601f82011682018060405250810190610ee39190615f3f565b8383611339565b5050565b610f8a7f885cb69240a935d632d79c317109709ecfa91a80626ff3989d68f67f5b1dd12d60001c73ffffffffffffffffffffffffffffffffffffffff16633408e4706040518163ffffffff1660e01b8152600401602060405180830381865afa158015610f5f573d6000803e3d6000fd5b505050506040513d601f19601f82011682018060405250810190610f839190615f3f565b838361270a565b5050565b61102a7f885cb69240a935d632d79c317109709ecfa91a80626ff3989d68f67f5b1dd12d60001c73ffffffffffffffffffffffffffffffffffffffff16633408e4706040518163ffffffff1660e01b8152600401602060405180830381865afa158015610fff573d6000803e3d6000fd5b505050506040513d601f19601f820116820180604052508101906110239190615f3f565b83836106b4565b5050565b60007f885cb69240a935d632d79c317109709ecfa91a80626ff3989d68f67f5b1dd12d60001c73ffffffffffffffffffffffffffffffffffffffff1663fa91454d836040518263ffffffff1660e01b815260040161108c91906146f5565b602060405180830381865afa9250505080156110c657506040513d601f19601f820116820180604052508101906110c39190615f3f565b60015b6111b3577f885cb69240a935d632d79c317109709ecfa91a80626ff3989d68f67f5b1dd12d60001c73ffffffffffffffffffffffffffffffffffffffff16634cc1c2bb836040518263ffffffff1660e01b815260040161112691906146f5565b600060405180830381865afa92505050801561116557506040513d6000823e3d601f19601f820116820180604052508101906111629190616042565b60015b6111a657816040517f97aa94df00000000000000000000000000000000000000000000000000000000815260040161119d91906146f5565b60405180910390fd5b80602001519150506111b8565b809150505b919050565b60008060036000858152602001908152602001600020836040516111e19190615911565b908152602001604051809103902080546111fa90615957565b905011905092915050565b6060600260007f885cb69240a935d632d79c317109709ecfa91a80626ff3989d68f67f5b1dd12d60001c73ffffffffffffffffffffffffffffffffffffffff16633408e4706040518163ffffffff1660e01b8152600401602060405180830381865afa158015611279573d6000803e3d6000fd5b505050506040513d601f19601f8201168201806040525081019061129d9190615f3f565b815260200190815260200160002080546112b690615957565b80601f01602080910402602001604051908101604052809291908181526020018280546112e290615957565b801561132f5780601f106113045761010080835404028352916020019161132f565b820191906000526020600020905b81548152906001019060200180831161131257829003601f168201915b5050505050905090565b6000604051806040016040528060078081111561135957611358614ba1565b5b81526020016000151581525090506113728484836132b0565b8160405160200161138391906160d5565b60405160208183030381529060405260036000868152602001908152602001600020846040516113b39190615911565b908152602001604051809103902090816113cd9190615b47565b50600560009054906101000a900460ff16156114b7576114b6846114068360000151600781111561140157611400614ba1565b5b613416565b856114b17f885cb69240a935d632d79c317109709ecfa91a80626ff3989d68f67f5b1dd12d60001c73ffffffffffffffffffffffffffffffffffffffff166371aad10d886040518263ffffffff1660e01b815260040161146691906160d5565b600060405180830381865afa158015611483573d6000803e3d6000fd5b505050506040513d6000823e3d601f19601f820116820180604052508101906114ac9190615c89565b613804565b613734565b5b50505050565b6115597f885cb69240a935d632d79c317109709ecfa91a80626ff3989d68f67f5b1dd12d60001c73ffffffffffffffffffffffffffffffffffffffff16633408e4706040518163ffffffff1660e01b8152600401602060405180830381865afa15801561152e573d6000803e3d6000fd5b505050506040513d601f19601f820116820180604052508101906115529190615f3f565b838361288f565b5050565b600060405180604001604052806002600781111561157e5761157d614ba1565b5b81526020016000151581525090506115978484836132b0565b816040516020016115a89190616106565b60405160208183030381529060405260036000868152602001908152602001600020846040516115d89190615911565b908152602001604051809103902090816115f29190615b47565b50600560009054906101000a900460ff16156116dc576116db8461162b8360000151600781111561162657611625614ba1565b5b613416565b856116d67f885cb69240a935d632d79c317109709ecfa91a80626ff3989d68f67f5b1dd12d60001c73ffffffffffffffffffffffffffffffffffffffff166356ca623e886040518263ffffffff1660e01b815260040161168b9190616106565b600060405180830381865afa1580156116a8573d6000803e3d6000fd5b505050506040513d6000823e3d601f19601f820116820180604052508101906116d19190615c89565b613804565b613734565b5b50505050565b600060405180604001604052806002600781111561170357611702614ba1565b5b815260200160011515815250905061171c8484836132b0565b8160405160200161172d91906161df565b604051602081830303815290604052600360008681526020019081526020016000208460405161175d9190615911565b908152602001604051809103902090816117779190615b47565b50600560009054906101000a900460ff161561194e5760006040518060400160405280600181526020017f5b00000000000000000000000000000000000000000000000000000000000000815250905060005b83518110156118ff57816118987f885cb69240a935d632d79c317109709ecfa91a80626ff3989d68f67f5b1dd12d60001c73ffffffffffffffffffffffffffffffffffffffff166356ca623e87858151811061182957611828615db2565b5b60200260200101516040518263ffffffff1660e01b815260040161184d9190616106565b600060405180830381865afa15801561186a573d6000803e3d6000fd5b505050506040513d6000823e3d601f19601f820116820180604052508101906118939190615c89565b613804565b6040516020016118a9929190615e0b565b6040516020818303038152906040529150600184516118c89190615e5e565b8110156118f257816040516020016118e09190615eb8565b60405160208183030381529060405291505b80806001019150506117ca565b50806040516020016119119190615f04565b604051602081830303815290604052905061194c85611945846000015160078111156119405761193f614ba1565b5b613416565b8684613734565b505b50505050565b600060405180604001604052806006600781111561197557611974614ba1565b5b815260200160001515815250905061198e8484836132b0565b8160405160200161199f91906146f5565b60405160208183030381529060405260036000868152602001908152602001600020846040516119cf9190615911565b908152602001604051809103902090816119e99190615b47565b50600560009054906101000a900460ff1615611a3257611a3184611a2283600001516007811115611a1d57611a1c614ba1565b5b613416565b85611a2c86613804565b613734565b5b50505050565b611a40613e45565b611adb7f885cb69240a935d632d79c317109709ecfa91a80626ff3989d68f67f5b1dd12d60001c73ffffffffffffffffffffffffffffffffffffffff16633408e4706040518163ffffffff1660e01b8152600401602060405180830381865afa158015611ab1573d6000803e3d6000fd5b505050506040513d601f19601f82011682018060405250810190611ad59190615f3f565b83611c27565b9050919050565b611b7e7f885cb69240a935d632d79c317109709ecfa91a80626ff3989d68f67f5b1dd12d60001c73ffffffffffffffffffffffffffffffffffffffff16633408e4706040518163ffffffff1660e01b8152600401602060405180830381865afa158015611b53573d6000803e3d6000fd5b505050506040513d601f19601f82011682018060405250810190611b779190615f3f565b8383612b5c565b5050565b6060600260008381526020019081526020016000208054611ba290615957565b80601f0160208091040260200160405190810160405280929190818152602001828054611bce90615957565b8015611c1b5780601f10611bf057610100808354040283529160200191611c1b565b820191906000526020600020905b815481529060010190602001808311611bfe57829003601f168201915b50505050509050919050565b611c2f613e45565b60405180604001604052806004600086815260200190815260200160002084604051611c5b9190615911565b90815260200160405180910390206040518060400160405290816000820160009054906101000a900460ff166007811115611c9957611c98614ba1565b5b6007811115611cab57611caa614ba1565b5b81526020016000820160019054906101000a900460ff16151515158152505081526020016003600086815260200190815260200160002084604051611cf09190615911565b90815260200160405180910390208054611d0990615957565b80601f0160208091040260200160405190810160405280929190818152602001828054611d3590615957565b8015611d825780601f10611d5757610100808354040283529160200191611d82565b820191906000526020600020905b815481529060010190602001808311611d6557829003601f168201915b5050505050815250905092915050565b611e2e7f885cb69240a935d632d79c317109709ecfa91a80626ff3989d68f67f5b1dd12d60001c73ffffffffffffffffffffffffffffffffffffffff16633408e4706040518163ffffffff1660e01b8152600401602060405180830381865afa158015611e03573d6000803e3d6000fd5b505050506040513d601f19601f82011682018060405250810190611e279190615f3f565b83836116e2565b5050565b611ece7f885cb69240a935d632d79c317109709ecfa91a80626ff3989d68f67f5b1dd12d60001c73ffffffffffffffffffffffffffffffffffffffff16633408e4706040518163ffffffff1660e01b8152600401602060405180830381865afa158015611ea3573d6000803e3d6000fd5b505050506040513d601f19601f82011682018060405250810190611ec79190615f3f565b8383610c2d565b5050565b6000604051806040016040528060056007811115611ef357611ef2614ba1565b5b8152602001600115158152509050611f0c8484836132b0565b81604051602001611f1d91906162bf565b6040516020818303038152906040526003600086815260200190815260200160002084604051611f4d9190615911565b90815260200160405180910390209081611f679190615b47565b50600560009054906101000a900460ff16156121365760006040518060400160405280600181526020017f5b00000000000000000000000000000000000000000000000000000000000000815250905060005b83518110156120e757817f885cb69240a935d632d79c317109709ecfa91a80626ff3989d68f67f5b1dd12d60001c73ffffffffffffffffffffffffffffffffffffffff1663a322c40e86848151811061201657612015615db2565b5b60200260200101516040518263ffffffff1660e01b815260040161203a91906158ba565b600060405180830381865afa158015612057573d6000803e3d6000fd5b505050506040513d6000823e3d601f19601f820116820180604052508101906120809190615c89565b604051602001612091929190615e0b565b6040516020818303038152906040529150600184516120b09190615e5e565b8110156120da57816040516020016120c89190615eb8565b60405160208183030381529060405291505b8080600101915050611fba565b50806040516020016120f99190615f04565b60405160208183030381529060405290506121348561212d8460000151600781111561212857612127614ba1565b5b613416565b8684613734565b505b50505050565b6000604051806040016040528060078081111561215c5761215b614ba1565b5b81526020016001151581525090506121758484836132b0565b8160405160200161218691906163a3565b60405160208183030381529060405260036000868152602001908152602001600020846040516121b69190615911565b908152602001604051809103902090816121d09190615b47565b50600560009054906101000a900460ff16156123a75760006040518060400160405280600181526020017f5b00000000000000000000000000000000000000000000000000000000000000815250905060005b835181101561235857816122f17f885cb69240a935d632d79c317109709ecfa91a80626ff3989d68f67f5b1dd12d60001c73ffffffffffffffffffffffffffffffffffffffff166371aad10d87858151811061228257612281615db2565b5b60200260200101516040518263ffffffff1660e01b81526004016122a691906160d5565b600060405180830381865afa1580156122c3573d6000803e3d6000fd5b505050506040513d6000823e3d601f19601f820116820180604052508101906122ec9190615c89565b613804565b604051602001612302929190615e0b565b6040516020818303038152906040529150600184516123219190615e5e565b81101561234b57816040516020016123399190615eb8565b60405160208183030381529060405291505b8080600101915050612223565b508060405160200161236a9190615f04565b60405160208183030381529060405290506123a58561239e8460000151600781111561239957612398614ba1565b5b613416565b8684613734565b505b50505050565b6124497f885cb69240a935d632d79c317109709ecfa91a80626ff3989d68f67f5b1dd12d60001c73ffffffffffffffffffffffffffffffffffffffff16633408e4706040518163ffffffff1660e01b8152600401602060405180830381865afa15801561241e573d6000803e3d6000fd5b505050506040513d601f19601f820116820180604052508101906124429190615f3f565b838361155d565b5050565b600060405180604001604052806001600781111561246e5761246d614ba1565b5b81526020016000151581525090506124878484836132b0565b816040516020016124989190614404565b60405160208183030381529060405260036000868152602001908152602001600020846040516124c89190615911565b908152602001604051809103902090816124e29190615b47565b50600560009054906101000a900460ff16156125c4576125c38461251b8360000151600781111561251657612515614ba1565b5b613416565b857f885cb69240a935d632d79c317109709ecfa91a80626ff3989d68f67f5b1dd12d60001c73ffffffffffffffffffffffffffffffffffffffff166371dce7da876040518263ffffffff1660e01b81526004016125789190614404565b600060405180830381865afa158015612595573d6000803e3d6000fd5b505050506040513d6000823e3d601f19601f820116820180604052508101906125be9190615c89565b613734565b5b50505050565b6126667f885cb69240a935d632d79c317109709ecfa91a80626ff3989d68f67f5b1dd12d60001c73ffffffffffffffffffffffffffffffffffffffff16633408e4706040518163ffffffff1660e01b8152600401602060405180830381865afa15801561263b573d6000803e3d6000fd5b505050506040513d601f19601f8201168201806040525081019061265f9190615f3f565b838361244d565b5050565b6127067f885cb69240a935d632d79c317109709ecfa91a80626ff3989d68f67f5b1dd12d60001c73ffffffffffffffffffffffffffffffffffffffff16633408e4706040518163ffffffff1660e01b8152600401602060405180830381865afa1580156126db573d6000803e3d6000fd5b505050506040513d601f19601f820116820180604052508101906126ff9190615f3f565b838361213c565b5050565b600060405180604001604052806003600781111561272b5761272a614ba1565b5b81526020016000151581525090506127448484836132b0565b816040516020016127559190615df0565b60405160208183030381529060405260036000868152602001908152602001600020846040516127859190615911565b9081526020016040518091039020908161279f9190615b47565b50600560009054906101000a900460ff161561288957612888846127d8836000015160078111156127d3576127d2614ba1565b5b613416565b856128837f885cb69240a935d632d79c317109709ecfa91a80626ff3989d68f67f5b1dd12d60001c73ffffffffffffffffffffffffffffffffffffffff1663b11a19e8886040518263ffffffff1660e01b81526004016128389190615df0565b600060405180830381865afa158015612855573d6000803e3d6000fd5b505050506040513d6000823e3d601f19601f8201168201806040525081019061287e9190615c89565b613804565b613734565b5b50505050565b60006040518060400160405280600660078111156128b0576128af614ba1565b5b81526020016001151581525090506128c98484836132b0565b816040516020016128da91906164d1565b604051602081830303815290604052600360008681526020019081526020016000208460405161290a9190615911565b908152602001604051809103902090816129249190615b47565b50600560009054906101000a900460ff1615612a5a5760006040518060400160405280600181526020017f5b00000000000000000000000000000000000000000000000000000000000000815250905060005b8351811015612a0b57816129a485838151811061299757612996615db2565b5b6020026020010151613804565b6040516020016129b5929190615e0b565b6040516020818303038152906040529150600184516129d49190615e5e565b8110156129fe57816040516020016129ec9190615eb8565b60405160208183030381529060405291505b8080600101915050612977565b5080604051602001612a1d9190615f04565b6040516020818303038152906040529050612a5885612a5184600001516007811115612a4c57612a4b614ba1565b5b613416565b8684613734565b505b50505050565b808015612b0857507f885cb69240a935d632d79c317109709ecfa91a80626ff3989d68f67f5b1dd12d60001c73ffffffffffffffffffffffffffffffffffffffff166364af255d60046040518263ffffffff1660e01b8152600401612ac5919061653b565b602060405180830381865afa158015612ae2573d6000803e3d6000fd5b505050506040513d601f19601f82011682018060405250810190612b06919061656b565b155b15612b3f576040517f2ebcd21800000000000000000000000000000000000000000000000000000000815260040160405180910390fd5b80600560006101000a81548160ff02191690831515021790555050565b6000604051806040016040528060046007811115612b7d57612b7c614ba1565b5b8152602001600115158152509050612b968484836132b0565b81604051602001612ba7919061430f565b6040516020818303038152906040526003600086815260200190815260200160002084604051612bd79190615911565b90815260200160405180910390209081612bf19190615b47565b50600560009054906101000a900460ff1615612dc05760006040518060400160405280600181526020017f5b00000000000000000000000000000000000000000000000000000000000000815250905060005b8351811015612d7157817f885cb69240a935d632d79c317109709ecfa91a80626ff3989d68f67f5b1dd12d60001c73ffffffffffffffffffffffffffffffffffffffff16636900a3ae868481518110612ca057612c9f615db2565b5b60200260200101516040518263ffffffff1660e01b8152600401612cc491906145ff565b600060405180830381865afa158015612ce1573d6000803e3d6000fd5b505050506040513d6000823e3d601f19601f82011682018060405250810190612d0a9190615c89565b604051602001612d1b929190615e0b565b604051602081830303815290604052915060018451612d3a9190615e5e565b811015612d645781604051602001612d529190615eb8565b60405160208183030381529060405291505b8080600101915050612c44565b5080604051602001612d839190615f04565b6040516020818303038152906040529050612dbe85612db784600001516007811115612db257612db1614ba1565b5b613416565b8684613734565b505b50505050565b612e627f885cb69240a935d632d79c317109709ecfa91a80626ff3989d68f67f5b1dd12d60001c73ffffffffffffffffffffffffffffffffffffffff16633408e4706040518163ffffffff1660e01b8152600401602060405180830381865afa158015612e37573d6000803e3d6000fd5b505050506040513d601f19601f82011682018060405250810190612e5b9190615f3f565b8383611ed2565b5050565b6000604051806040016040528060016007811115612e8757612e86614ba1565b5b8152602001600115158152509050612ea08484836132b0565b81604051602001612eb19190616647565b6040516020818303038152906040526003600086815260200190815260200160002084604051612ee19190615911565b90815260200160405180910390209081612efb9190615b47565b50600560009054906101000a900460ff16156130ca5760006040518060400160405280600181526020017f5b00000000000000000000000000000000000000000000000000000000000000815250905060005b835181101561307b57817f885cb69240a935d632d79c317109709ecfa91a80626ff3989d68f67f5b1dd12d60001c73ffffffffffffffffffffffffffffffffffffffff166371dce7da868481518110612faa57612fa9615db2565b5b60200260200101516040518263ffffffff1660e01b8152600401612fce9190614404565b600060405180830381865afa158015612feb573d6000803e3d6000fd5b505050506040513d6000823e3d601f19601f820116820180604052508101906130149190615c89565b604051602001613025929190615e0b565b6040516020818303038152906040529150600184516130449190615e5e565b81101561306e578160405160200161305c9190615eb8565b60405160208183030381529060405291505b8080600101915050612f4e565b508060405160200161308d9190615f04565b60405160208183030381529060405290506130c8856130c1846000015160078111156130bc576130bb614ba1565b5b613416565b8684613734565b505b50505050565b61316c7f885cb69240a935d632d79c317109709ecfa91a80626ff3989d68f67f5b1dd12d60001c73ffffffffffffffffffffffffffffffffffffffff16633408e4706040518163ffffffff1660e01b8152600401602060405180830381865afa158015613141573d6000803e3d6000fd5b505050506040513d601f19601f820116820180604052508101906131659190615f3f565b8383610831565b5050565b61320c7f885cb69240a935d632d79c317109709ecfa91a80626ff3989d68f67f5b1dd12d60001c73ffffffffffffffffffffffffffffffffffffffff16633408e4706040518163ffffffff1660e01b8152600401602060405180830381865afa1580156131e1573d6000803e3d6000fd5b505050506040513d601f19601f820116820180604052508101906132059190615f3f565b8383611954565b5050565b6132ac7f885cb69240a935d632d79c317109709ecfa91a80626ff3989d68f67f5b1dd12d60001c73ffffffffffffffffffffffffffffffffffffffff16633408e4706040518163ffffffff1660e01b8152600401602060405180830381865afa158015613281573d6000803e3d6000fd5b505050506040513d601f19601f820116820180604052508101906132a59190615f3f565b8383612e66565b5050565b600060046000858152602001908152602001600020836040516132d39190615911565b90815260200160405180910390206040518060400160405290816000820160009054906101000a900460ff16600781111561331157613310614ba1565b5b600781111561332357613322614ba1565b5b81526020016000820160019054906101000a900460ff16151515158152505090506000600781111561335857613357614ba1565b5b8160000151600781111561336f5761336e614ba1565b5b036133fc578160046000868152602001908152602001600020846040516133969190615911565b908152602001604051809103902060008201518160000160006101000a81548160ff021916908360078111156133cf576133ce614ba1565b5b021790555060208201518160000160016101000a81548160ff021916908315150217905550905050613410565b61340f828261382d90919063ffffffff16565b5b50505050565b60606001600781111561342c5761342b614ba1565b5b82600781111561343f5761343e614ba1565b5b03613481576040518060400160405280600481526020017f626f6f6c00000000000000000000000000000000000000000000000000000000815250905061372f565b6002600781111561349557613494614ba1565b5b8260078111156134a8576134a7614ba1565b5b036134ea576040518060400160405280600781526020017f6164647265737300000000000000000000000000000000000000000000000000815250905061372f565b600360078111156134fe576134fd614ba1565b5b82600781111561351157613510614ba1565b5b03613553576040518060400160405280600781526020017f6279746573333200000000000000000000000000000000000000000000000000815250905061372f565b6004600781111561356757613566614ba1565b5b82600781111561357a57613579614ba1565b5b036135bc576040518060400160405280600481526020017f75696e7400000000000000000000000000000000000000000000000000000000815250905061372f565b600560078111156135d0576135cf614ba1565b5b8260078111156135e3576135e2614ba1565b5b03613625576040518060400160405280600381526020017f696e740000000000000000000000000000000000000000000000000000000000815250905061372f565b6006600781111561363957613638614ba1565b5b82600781111561364c5761364b614ba1565b5b0361368e576040518060400160405280600681526020017f737472696e670000000000000000000000000000000000000000000000000000815250905061372f565b6007808111156136a1576136a0614ba1565b5b8260078111156136b4576136b3614ba1565b5b036136f6576040518060400160405280600581526020017f6279746573000000000000000000000000000000000000000000000000000000815250905061372f565b6040518060400160405280600481526020017f6e6f6e650000000000000000000000000000000000000000000000000000000081525090505b919050565b600061373f8561388e565b90506000818585604051602001613758939291906166b5565b60405160208183030381529060405290507f885cb69240a935d632d79c317109709ecfa91a80626ff3989d68f67f5b1dd12d60001c73ffffffffffffffffffffffffffffffffffffffff166351ac6a33846000846040518463ffffffff1660e01b81526004016137ca939291906167ac565b600060405180830381600087803b1580156137e457600080fd5b505af11580156137f8573d6000803e3d6000fd5b50505050505050505050565b606081604051602001613817919061681e565b6040516020818303038152906040529050919050565b6138378282613a54565b61388a5761384481613aa4565b61384d83613aa4565b6040517fb02cf71d000000000000000000000000000000000000000000000000000000008152600401613881929190616853565b60405180910390fd5b5050565b606060005b600180549050811015613a115782613950600183815481106138b8576138b7615db2565b5b9060005260206000200180546138cd90615957565b80601f01602080910402602001604051908101604052809291908181526020018280546138f990615957565b80156139465780601f1061391b57610100808354040283529160200191613946565b820191906000526020600020905b81548152906001019060200180831161392957829003601f168201915b505050505061102e565b03613a04576001818154811061396957613968615db2565b5b90600052602060002001805461397e90615957565b80601f01602080910402602001604051908101604052809291908181526020018280546139aa90615957565b80156139f75780601f106139cc576101008083540402835291602001916139f7565b820191906000526020600020905b8154815290600101906020018083116139da57829003601f168201915b5050505050915050613a4f565b8080600101915050613893565b50816040517f3ff29f06000000000000000000000000000000000000000000000000000000008152600401613a4691906145ff565b60405180910390fd5b919050565b600081600001516007811115613a6d57613a6c614ba1565b5b83600001516007811115613a8457613a83614ba1565b5b148015613a9c57508160200151151583602001511515145b905092915050565b60606000613ab58360000151613b27565b905082602001511580613af0575060006007811115613ad757613ad6614ba1565b5b83600001516007811115613aee57613aed614ba1565b5b145b15613afe5780915050613b22565b80604051602001613b0f91906168b0565b6040516020818303038152906040529150505b919050565b606060016007811115613b3d57613b3c614ba1565b5b826007811115613b5057613b4f614ba1565b5b03613b92576040518060400160405280600481526020017f626f6f6c000000000000000000000000000000000000000000000000000000008152509050613e40565b60026007811115613ba657613ba5614ba1565b5b826007811115613bb957613bb8614ba1565b5b03613bfb576040518060400160405280600781526020017f61646472657373000000000000000000000000000000000000000000000000008152509050613e40565b60036007811115613c0f57613c0e614ba1565b5b826007811115613c2257613c21614ba1565b5b03613c64576040518060400160405280600781526020017f62797465733332000000000000000000000000000000000000000000000000008152509050613e40565b60046007811115613c7857613c77614ba1565b5b826007811115613c8b57613c8a614ba1565b5b03613ccd576040518060400160405280600781526020017f75696e74323536000000000000000000000000000000000000000000000000008152509050613e40565b60056007811115613ce157613ce0614ba1565b5b826007811115613cf457613cf3614ba1565b5b03613d36576040518060400160405280600681526020017f696e7432353600000000000000000000000000000000000000000000000000008152509050613e40565b60066007811115613d4a57613d49614ba1565b5b826007811115613d5d57613d5c614ba1565b5b03613d9f576040518060400160405280600681526020017f737472696e6700000000000000000000000000000000000000000000000000008152509050613e40565b600780811115613db257613db1614ba1565b5b826007811115613dc557613dc4614ba1565b5b03613e07576040518060400160405280600581526020017f62797465730000000000000000000000000000000000000000000000000000008152509050613e40565b6040518060400160405280600481526020017f6e6f6e650000000000000000000000000000000000000000000000000000000081525090505b919050565b6040518060400160405280613e58613e65565b8152602001606081525090565b604051806040016040528060006007811115613e8457613e83614ba1565b5b81526020016000151581525090565b6000604051905090565b600080fd5b600080fd5b6000819050919050565b613eba81613ea7565b8114613ec557600080fd5b50565b600081359050613ed781613eb1565b92915050565b600080fd5b600080fd5b6000601f19601f8301169050919050565b7f4e487b7100000000000000000000000000000000000000000000000000000000600052604160045260246000fd5b613f3082613ee7565b810181811067ffffffffffffffff82111715613f4f57613f4e613ef8565b5b80604052505050565b6000613f62613e93565b9050613f6e8282613f27565b919050565b600067ffffffffffffffff821115613f8e57613f8d613ef8565b5b613f9782613ee7565b9050602081019050919050565b82818337600083830152505050565b6000613fc6613fc184613f73565b613f58565b905082815260208101848484011115613fe257613fe1613ee2565b5b613fed848285613fa4565b509392505050565b600082601f83011261400a57614009613edd565b5b813561401a848260208601613fb3565b91505092915050565b6000819050919050565b61403681614023565b811461404157600080fd5b50565b6000813590506140538161402d565b92915050565b60008060006060848603121561407257614071613e9d565b5b600061408086828701613ec8565b935050602084013567ffffffffffffffff8111156140a1576140a0613ea2565b5b6140ad86828701613ff5565b92505060406140be86828701614044565b9150509250925092565b600067ffffffffffffffff8211156140e3576140e2613ef8565b5b602082029050602081019050919050565b600080fd5b6000819050919050565b61410c816140f9565b811461411757600080fd5b50565b60008135905061412981614103565b92915050565b600061414261413d846140c8565b613f58565b90508083825260208201905060208402830185811115614165576141646140f4565b5b835b8181101561418e578061417a888261411a565b845260208401935050602081019050614167565b5050509392505050565b600082601f8301126141ad576141ac613edd565b5b81356141bd84826020860161412f565b91505092915050565b6000806000606084860312156141df576141de613e9d565b5b60006141ed86828701613ec8565b935050602084013567ffffffffffffffff81111561420e5761420d613ea2565b5b61421a86828701613ff5565b925050604084013567ffffffffffffffff81111561423b5761423a613ea2565b5b61424786828701614198565b9150509250925092565b600081519050919050565b600082825260208201905092915050565b6000819050602082019050919050565b61428681613ea7565b82525050565b6000614298838361427d565b60208301905092915050565b6000602082019050919050565b60006142bc82614251565b6142c6818561425c565b93506142d18361426d565b8060005b838110156143025781516142e9888261428c565b97506142f4836142a4565b9250506001810190506142d5565b5085935050505092915050565b6000602082019050818103600083015261432981846142b1565b905092915050565b60008060006060848603121561434a57614349613e9d565b5b600061435886828701613ec8565b935050602084013567ffffffffffffffff81111561437957614378613ea2565b5b61438586828701613ff5565b925050604061439686828701613ec8565b9150509250925092565b6000602082840312156143b6576143b5613e9d565b5b600082013567ffffffffffffffff8111156143d4576143d3613ea2565b5b6143e084828501613ff5565b91505092915050565b60008115159050919050565b6143fe816143e9565b82525050565b600060208201905061441960008301846143f5565b92915050565b600067ffffffffffffffff82111561443a57614439613ef8565b5b61444382613ee7565b9050602081019050919050565b600061446361445e8461441f565b613f58565b90508281526020810184848401111561447f5761447e613ee2565b5b61448a848285613fa4565b509392505050565b600082601f8301126144a7576144a6613edd565b5b81356144b7848260208601614450565b91505092915050565b600080604083850312156144d7576144d6613e9d565b5b600083013567ffffffffffffffff8111156144f5576144f4613ea2565b5b61450185828601613ff5565b925050602083013567ffffffffffffffff81111561452257614521613ea2565b5b61452e85828601614492565b9150509250929050565b6000806040838503121561454f5761454e613e9d565b5b600083013567ffffffffffffffff81111561456d5761456c613ea2565b5b61457985828601613ff5565b925050602061458a8582860161411a565b9150509250929050565b600080604083850312156145ab576145aa613e9d565b5b600083013567ffffffffffffffff8111156145c9576145c8613ea2565b5b6145d585828601613ff5565b92505060206145e685828601614044565b9150509250929050565b6145f981613ea7565b82525050565b600060208201905061461460008301846145f0565b92915050565b6000806040838503121561463157614630613e9d565b5b600061463f85828601613ec8565b925050602083013567ffffffffffffffff8111156146605761465f613ea2565b5b61466c85828601613ff5565b9150509250929050565b600081519050919050565b600082825260208201905092915050565b60005b838110156146b0578082015181840152602081019050614695565b60008484015250505050565b60006146c782614676565b6146d18185614681565b93506146e1818560208601614692565b6146ea81613ee7565b840191505092915050565b6000602082019050818103600083015261470f81846146bc565b905092915050565b6000806000606084860312156147305761472f613e9d565b5b600061473e86828701613ec8565b935050602084013567ffffffffffffffff81111561475f5761475e613ea2565b5b61476b86828701613ff5565b925050604084013567ffffffffffffffff81111561478c5761478b613ea2565b5b61479886828701614492565b9150509250925092565b600067ffffffffffffffff8211156147bd576147bc613ef8565b5b602082029050602081019050919050565b60006147e16147dc846147a2565b613f58565b90508083825260208201905060208402830185811115614804576148036140f4565b5b835b8181101561484b57803567ffffffffffffffff81111561482957614828613edd565b5b8086016148368982613ff5565b85526020850194505050602081019050614806565b5050509392505050565b600082601f83011261486a57614869613edd565b5b813561487a8482602086016147ce565b91505092915050565b6000806040838503121561489a57614899613e9d565b5b600083013567ffffffffffffffff8111156148b8576148b7613ea2565b5b6148c485828601613ff5565b925050602083013567ffffffffffffffff8111156148e5576148e4613ea2565b5b6148f185828601614855565b9150509250929050565b600073ffffffffffffffffffffffffffffffffffffffff82169050919050565b6000614926826148fb565b9050919050565b6149368161491b565b811461494157600080fd5b50565b6000813590506149538161492d565b92915050565b60008060006060848603121561497257614971613e9d565b5b600061498086828701613ec8565b935050602084013567ffffffffffffffff8111156149a1576149a0613ea2565b5b6149ad86828701613ff5565b92505060406149be86828701614944565b9150509250925092565b600067ffffffffffffffff8211156149e3576149e2613ef8565b5b602082029050602081019050919050565b6000614a07614a02846149c8565b613f58565b90508083825260208201905060208402830185811115614a2a57614a296140f4565b5b835b81811015614a535780614a3f8882614944565b845260208401935050602081019050614a2c565b5050509392505050565b600082601f830112614a7257614a71613edd565b5b8135614a828482602086016149f4565b91505092915050565b600080600060608486031215614aa457614aa3613e9d565b5b6000614ab286828701613ec8565b935050602084013567ffffffffffffffff811115614ad357614ad2613ea2565b5b614adf86828701613ff5565b925050604084013567ffffffffffffffff811115614b0057614aff613ea2565b5b614b0c86828701614a5d565b9150509250925092565b600080600060608486031215614b2f57614b2e613e9d565b5b6000614b3d86828701613ec8565b935050602084013567ffffffffffffffff811115614b5e57614b5d613ea2565b5b614b6a86828701613ff5565b925050604084013567ffffffffffffffff811115614b8b57614b8a613ea2565b5b614b9786828701613ff5565b9150509250925092565b7f4e487b7100000000000000000000000000000000000000000000000000000000600052602160045260246000fd5b60088110614be157614be0614ba1565b5b50565b6000819050614bf282614bd0565b919050565b6000614c0282614be4565b9050919050565b614c1281614bf7565b82525050565b614c21816143e9565b82525050565b604082016000820151614c3d6000850182614c09565b506020820151614c506020850182614c18565b50505050565b600081519050919050565b600082825260208201905092915050565b6000614c7d82614c56565b614c878185614c61565b9350614c97818560208601614692565b614ca081613ee7565b840191505092915050565b6000606083016000830151614cc36000860182614c27565b5060208301518482036040860152614cdb8282614c72565b9150508091505092915050565b60006020820190508181036000830152614d028184614cab565b905092915050565b600067ffffffffffffffff821115614d2557614d24613ef8565b5b602082029050602081019050919050565b6000614d49614d4484614d0a565b613f58565b90508083825260208201905060208402830185811115614d6c57614d6b6140f4565b5b835b81811015614d955780614d818882613ec8565b845260208401935050602081019050614d6e565b5050509392505050565b600082601f830112614db457614db3613edd565b5b8135614dc4848260208601614d36565b91505092915050565b60008060408385031215614de457614de3613e9d565b5b600083013567ffffffffffffffff811115614e0257614e01613ea2565b5b614e0e85828601613ff5565b925050602083013567ffffffffffffffff811115614e2f57614e2e613ea2565b5b614e3b85828601614d9f565b9150509250929050565b600060208284031215614e5b57614e5a613e9d565b5b6000614e6984828501613ec8565b91505092915050565b60008060408385031215614e8957614e88613e9d565b5b600083013567ffffffffffffffff811115614ea757614ea6613ea2565b5b614eb385828601613ff5565b925050602083013567ffffffffffffffff811115614ed457614ed3613ea2565b5b614ee085828601614a5d565b9150509250929050565b60008060408385031215614f0157614f00613e9d565b5b600083013567ffffffffffffffff811115614f1f57614f1e613ea2565b5b614f2b85828601613ff5565b9250506020614f3c85828601613ec8565b9150509250929050565b600067ffffffffffffffff821115614f6157614f60613ef8565b5b602082029050602081019050919050565b6000614f85614f8084614f46565b613f58565b90508083825260208201905060208402830185811115614fa857614fa76140f4565b5b835b81811015614fd15780614fbd8882614044565b845260208401935050602081019050614faa565b5050509392505050565b600082601f830112614ff057614fef613edd565b5b8135615000848260208601614f72565b91505092915050565b60008060006060848603121561502257615021613e9d565b5b600061503086828701613ec8565b935050602084013567ffffffffffffffff81111561505157615050613ea2565b5b61505d86828701613ff5565b925050604084013567ffffffffffffffff81111561507e5761507d613ea2565b5b61508a86828701614fdb565b9150509250925092565b600067ffffffffffffffff8211156150af576150ae613ef8565b5b602082029050602081019050919050565b60006150d36150ce84615094565b613f58565b905080838252602082019050602084028301858111156150f6576150f56140f4565b5b835b8181101561513d57803567ffffffffffffffff81111561511b5761511a613edd565b5b8086016151288982614492565b855260208501945050506020810190506150f8565b5050509392505050565b600082601f83011261515c5761515b613edd565b5b813561516c8482602086016150c0565b91505092915050565b60008060006060848603121561518e5761518d613e9d565b5b600061519c86828701613ec8565b935050602084013567ffffffffffffffff8111156151bd576151bc613ea2565b5b6151c986828701613ff5565b925050604084013567ffffffffffffffff8111156151ea576151e9613ea2565b5b6151f686828701615147565b9150509250925092565b6000806040838503121561521757615216613e9d565b5b600083013567ffffffffffffffff81111561523557615234613ea2565b5b61524185828601613ff5565b925050602061525285828601614944565b9150509250929050565b615265816143e9565b811461527057600080fd5b50565b6000813590506152828161525c565b92915050565b6000806000606084860312156152a1576152a0613e9d565b5b60006152af86828701613ec8565b935050602084013567ffffffffffffffff8111156152d0576152cf613ea2565b5b6152dc86828701613ff5565b92505060406152ed86828701615273565b9150509250925092565b6000806040838503121561530e5761530d613e9d565b5b600083013567ffffffffffffffff81111561532c5761532b613ea2565b5b61533885828601613ff5565b925050602061534985828601615273565b9150509250929050565b6000806040838503121561536a57615369613e9d565b5b600083013567ffffffffffffffff81111561538857615387613ea2565b5b61539485828601613ff5565b925050602083013567ffffffffffffffff8111156153b5576153b4613ea2565b5b6153c185828601615147565b9150509250929050565b6000806000606084860312156153e4576153e3613e9d565b5b60006153f286828701613ec8565b935050602084013567ffffffffffffffff81111561541357615412613ea2565b5b61541f86828701613ff5565b92505060406154308682870161411a565b9150509250925092565b60008060006060848603121561545357615452613e9d565b5b600061546186828701613ec8565b935050602084013567ffffffffffffffff81111561548257615481613ea2565b5b61548e86828701613ff5565b925050604084013567ffffffffffffffff8111156154af576154ae613ea2565b5b6154bb86828701614855565b9150509250925092565b6000602082840312156154db576154da613e9d565b5b60006154e984828501615273565b91505092915050565b60008060006060848603121561550b5761550a613e9d565b5b600061551986828701613ec8565b935050602084013567ffffffffffffffff81111561553a57615539613ea2565b5b61554686828701613ff5565b925050604084013567ffffffffffffffff81111561556757615566613ea2565b5b61557386828701614d9f565b9150509250925092565b6000806040838503121561559457615593613e9d565b5b600083013567ffffffffffffffff8111156155b2576155b1613ea2565b5b6155be85828601613ff5565b925050602083013567ffffffffffffffff8111156155df576155de613ea2565b5b6155eb85828601614fdb565b9150509250929050565b600067ffffffffffffffff8211156156105761560f613ef8565b5b602082029050602081019050919050565b600061563461562f846155f5565b613f58565b90508083825260208201905060208402830185811115615657576156566140f4565b5b835b81811015615680578061566c8882615273565b845260208401935050602081019050615659565b5050509392505050565b600082601f83011261569f5761569e613edd565b5b81356156af848260208601615621565b91505092915050565b6000806000606084860312156156d1576156d0613e9d565b5b60006156df86828701613ec8565b935050602084013567ffffffffffffffff811115615700576156ff613ea2565b5b61570c86828701613ff5565b925050604084013567ffffffffffffffff81111561572d5761572c613ea2565b5b6157398682870161568a565b9150509250925092565b6000806040838503121561575a57615759613e9d565b5b600083013567ffffffffffffffff81111561577857615777613ea2565b5b61578485828601613ff5565b925050602083013567ffffffffffffffff8111156157a5576157a4613ea2565b5b6157b185828601614198565b9150509250929050565b600080604083850312156157d2576157d1613e9d565b5b600083013567ffffffffffffffff8111156157f0576157ef613ea2565b5b6157fc85828601613ff5565b925050602083013567ffffffffffffffff81111561581d5761581c613ea2565b5b61582985828601613ff5565b9150509250929050565b6000806040838503121561584a57615849613e9d565b5b600083013567ffffffffffffffff81111561586857615867613ea2565b5b61587485828601613ff5565b925050602083013567ffffffffffffffff81111561589557615894613ea2565b5b6158a18582860161568a565b9150509250929050565b6158b481614023565b82525050565b60006020820190506158cf60008301846158ab565b92915050565b600081905092915050565b60006158eb82614676565b6158f581856158d5565b9350615905818560208601614692565b80840191505092915050565b600061591d82846158e0565b915081905092915050565b7f4e487b7100000000000000000000000000000000000000000000000000000000600052602260045260246000fd5b6000600282049050600182168061596f57607f821691505b60208210810361598257615981615928565b5b50919050565b60008190508160005260206000209050919050565b60006020601f8301049050919050565b600082821b905092915050565b6000600883026159ea7fffffffffffffffffffffffffffffffffffffffffffffffffffffffffffffffff826159ad565b6159f486836159ad565b95508019841693508086168417925050509392505050565b6000819050919050565b6000615a31615a2c615a2784613ea7565b615a0c565b613ea7565b9050919050565b6000819050919050565b615a4b83615a16565b615a5f615a5782615a38565b8484546159ba565b825550505050565b600090565b615a74615a67565b615a7f818484615a42565b505050565b60005b82811015615aa757615a9c6000828401615a6c565b600181019050615a87565b505050565b601f821115615afb5782821115615afa57615ac681615988565b615acf8361599d565b615ad88561599d565b6020861015615ae657600090505b808301615af582840382615a84565b505050505b5b505050565b600082821c905092915050565b6000615b1e60001984600802615b00565b1980831691505092915050565b6000615b378383615b0d565b9150826002028217905092915050565b615b5082614c56565b67ffffffffffffffff811115615b6957615b68613ef8565b5b615b738254615957565b615b7e828285615aac565b600060209050601f831160018114615bb15760008415615b9f578287015190505b615ba98582615b2b565b865550615c11565b601f198416615bbf86615988565b60005b82811015615be757848901518255600182019150602085019450602081019050615bc2565b86831015615c045784890151615c00601f891682615b0d565b8355505b6001600288020188555050505b505050505050565b6000615c2c615c2784613f73565b613f58565b905082815260208101848484011115615c4857615c47613ee2565b5b615c53848285614692565b509392505050565b600082601f830112615c7057615c6f613edd565b5b8151615c80848260208601615c19565b91505092915050565b600060208284031215615c9f57615c9e613e9d565b5b600082015167ffffffffffffffff811115615cbd57615cbc613ea2565b5b615cc984828501615c5b565b91505092915050565b600081519050919050565b600082825260208201905092915050565b6000819050602082019050919050565b615d07816140f9565b82525050565b6000615d198383615cfe565b60208301905092915050565b6000602082019050919050565b6000615d3d82615cd2565b615d478185615cdd565b9350615d5283615cee565b8060005b83811015615d83578151615d6a8882615d0d565b9750615d7583615d25565b925050600181019050615d56565b5085935050505092915050565b60006020820190508181036000830152615daa8184615d32565b905092915050565b7f4e487b7100000000000000000000000000000000000000000000000000000000600052603260045260246000fd5b615dea816140f9565b82525050565b6000602082019050615e056000830184615de1565b92915050565b6000615e1782856158e0565b9150615e2382846158e0565b91508190509392505050565b7f4e487b7100000000000000000000000000000000000000000000000000000000600052601160045260246000fd5b6000615e6982613ea7565b9150615e7483613ea7565b9250828203905081811115615e8c57615e8b615e2f565b5b92915050565b7f2c00000000000000000000000000000000000000000000000000000000000000815250565b6000615ec482846158e0565b9150615ecf82615e92565b60018201915081905092915050565b7f5d00000000000000000000000000000000000000000000000000000000000000815250565b6000615f1082846158e0565b9150615f1b82615ede565b60018201915081905092915050565b600081519050615f3981613eb1565b92915050565b600060208284031215615f5557615f54613e9d565b5b6000615f6384828501615f2a565b91505092915050565b600080fd5b600080fd5b600060808284031215615f8c57615f8b615f6c565b5b615f966080613f58565b9050600082015167ffffffffffffffff811115615fb657615fb5615f71565b5b615fc284828501615c5b565b6000830152506020615fd684828501615f2a565b602083015250604082015167ffffffffffffffff811115615ffa57615ff9615f71565b5b61600684828501615c5b565b604083015250606082015167ffffffffffffffff81111561602a57616029615f71565b5b61603684828501615c5b565b60608301525092915050565b60006020828403121561605857616057613e9d565b5b600082015167ffffffffffffffff81111561607657616075613ea2565b5b61608284828501615f76565b91505092915050565b600082825260208201905092915050565b60006160a782614c56565b6160b1818561608b565b93506160c1818560208601614692565b6160ca81613ee7565b840191505092915050565b600060208201905081810360008301526160ef818461609c565b905092915050565b6161008161491b565b82525050565b600060208201905061611b60008301846160f7565b92915050565b600081519050919050565b600082825260208201905092915050565b6000819050602082019050919050565b6161568161491b565b82525050565b6000616168838361614d565b60208301905092915050565b6000602082019050919050565b600061618c82616121565b616196818561612c565b93506161a18361613d565b8060005b838110156161d25781516161b9888261615c565b97506161c483616174565b9250506001810190506161a5565b5085935050505092915050565b600060208201905081810360008301526161f98184616181565b905092915050565b600081519050919050565b600082825260208201905092915050565b6000819050602082019050919050565b61623681614023565b82525050565b6000616248838361622d565b60208301905092915050565b6000602082019050919050565b600061626c82616201565b616276818561620c565b93506162818361621d565b8060005b838110156162b2578151616299888261623c565b97506162a483616254565b925050600181019050616285565b5085935050505092915050565b600060208201905081810360008301526162d98184616261565b905092915050565b600081519050919050565b600082825260208201905092915050565b6000819050602082019050919050565b60006163198383614c72565b905092915050565b6000602082019050919050565b6000616339826162e1565b61634381856162ec565b935083602082028501616355856162fd565b8060005b858110156163915784840389528151616372858261630d565b945061637d83616321565b925060208a01995050600181019050616359565b50829750879550505050505092915050565b600060208201905081810360008301526163bd818461632e565b905092915050565b600081519050919050565b600082825260208201905092915050565b6000819050602082019050919050565b600082825260208201905092915050565b600061640d82614676565b61641781856163f1565b9350616427818560208601614692565b61643081613ee7565b840191505092915050565b60006164478383616402565b905092915050565b6000602082019050919050565b6000616467826163c5565b61647181856163d0565b935083602082028501616483856163e1565b8060005b858110156164bf57848403895281516164a0858261643b565b94506164ab8361644f565b925060208a01995050600181019050616487565b50829750879550505050505092915050565b600060208201905081810360008301526164eb818461645c565b905092915050565b6009811061650457616503614ba1565b5b50565b6000819050616515826164f3565b919050565b600061652582616507565b9050919050565b6165358161651a565b82525050565b6000602082019050616550600083018461652c565b92915050565b6000815190506165658161525c565b92915050565b60006020828403121561658157616580613e9d565b5b600061658f84828501616556565b91505092915050565b600081519050919050565b600082825260208201905092915050565b6000819050602082019050919050565b60006165d08383614c18565b60208301905092915050565b6000602082019050919050565b60006165f482616598565b6165fe81856165a3565b9350616609836165b4565b8060005b8381101561663a57815161662188826165c4565b975061662c836165dc565b92505060018101905061660d565b5085935050505092915050565b6000602082019050818103600083015261666181846165e9565b905092915050565b7f242e000000000000000000000000000000000000000000000000000000000000815250565b7f2e00000000000000000000000000000000000000000000000000000000000000815250565b60006166c082616669565b6002820191506166d082866158e0565b91506166db8261668f565b6001820191506166eb82856158e0565b91506166f68261668f565b60018201915061670682846158e0565b9150819050949350505050565b60008190508160005260206000209050919050565b6000815461673581615957565b61673f8186614681565b9450600182166000811461675a5760018114616770576167a3565b60ff1983168652811515602002860193506167a3565b61677985616713565b60005b8381101561679b5781548189015260018201915060208101905061677c565b808801955050505b50505092915050565b600060608201905081810360008301526167c681866146bc565b905081810360208301526167da8185616728565b905081810360408301526167ee81846146bc565b9050949350505050565b7f2200000000000000000000000000000000000000000000000000000000000000815250565b6000616829826167f8565b60018201915061683982846158e0565b9150616844826167f8565b60018201915081905092915050565b6000604082019050818103600083015261686d81856146bc565b9050818103602083015261688181846146bc565b90509392505050565b7f5b5d000000000000000000000000000000000000000000000000000000000000815250565b60006168bc82846158e0565b91506168c78261688a565b6002820191508190509291505056fea26469706673582212200fc1a3b02b48676eaee04c6dd3a481425aefdbc6dbbb6cf8fff0cafc1693ca9364736f6c63430008210033","linkReferences":{}},"methodIdentifiers":{"exists(string)":"261a323e","exists(uint256,string)":"43d9eb7b","get(string)":"693ec85e","get(uint256,string)":"805da4ad","getChainIds()":"1d776323","getRpcUrl()":"43ec8b6a","getRpcUrl(uint256)":"7df3ef12","resolveChainId(string)":"3f3a7588","set(string,address)":"a815ff15","set(string,address[])":"88c63d45","set(string,bool)":"ba0ff22c","set(string,bool[])":"fa3c074a","set(string,bytes)":"2b29c0fa","set(string,bytes32)":"2e3196a5","set(string,bytes32[])":"e6053250","set(string,bytes[])":"c91ca7ba","set(string,int256)":"2ef8ba74","set(string,int256[])":"de0fc9b3","set(string,string)":"e942b516","set(string,string[])":"59b39526","set(string,uint256)":"8a42ebe9","set(string,uint256[])":"7b8fed81","set(uint256,string,address)":"5eba0df0","set(uint256,string,address[])":"61141c97","set(uint256,string,bool)":"b3a64001","set(uint256,string,bool[])":"e298d00b","set(uint256,string,bytes)":"4d85ce80","set(uint256,string,bytes32)":"cf1cfa99","set(uint256,string,bytes32[])":"08f7b4b2","set(uint256,string,bytes[])":"93dbe6e0","set(uint256,string,int256)":"07d79d9a","set(uint256,string,int256[])":"8be19924","set(uint256,string,string)":"65560950","set(uint256,string,string[])":"cf72a2f3","set(uint256,string,uint256)":"22dc48fd","set(uint256,string,uint256[])":"db0075df","writeUpdatesBackToFile(bool)":"d6698dc4"},"id":15}