{"abi":[{"type":"constructor","inputs":[{"name":"name","type":"string","internalType":"string"},{"name":"symbol","type":"string","internalType":"string"},{"name":"initialDecimals","type":"uint8","internalType":"uint8"},{"name":"initialSupply","type":"uint256","internalType":"uint256"}],"stateMutability":"nonpayable"},{"type":"function","name":"allowance","inputs":[{"name":"owner","type":"address","internalType":"address"},{"name":"spender","type":"address","internalType":"address"}],"outputs":[{"name":"","type":"uint256","internalType":"uint256"}],"stateMutability":"view"},{"type":"function","name":"approve","inputs":[{"name":"spender","type":"address","internalType":"address"},{"name":"value","type":"uint256","internalType":"uint256"}],"outputs":[{"name":"","type":"bool","internalType":"bool"}],"stateMutability":"nonpayable"},{"type":"function","name":"balanceOf","inputs":[{"name":"account","type":"address","internalType":"address"}],"outputs":[{"name":"","type":"uint256","internalType":"uint256"}],"stateMutability":"view"},{"type":"function","name":"decimals","inputs":[],"outputs":[{"name":"","type":"uint8","internalType":"uint8"}],"stateMutability":"view"},{"type":"function","name":"name","inputs":[],"outputs":[{"name":"","type":"string","internalType":"string"}],"stateMutability":"view"},{"type":"function","name":"symbol","inputs":[],"outputs":[{"name":"","type":"string","internalType":"string"}],"stateMutability":"view"},{"type":"function","name":"tokenDecimals","inputs":[],"outputs":[{"name":"","type":"uint8","internalType":"uint8"}],"stateMutability":"view"},{"type":"function","name":"totalSupply","inputs":[],"outputs":[{"name":"","type":"uint256","internalType":"uint256"}],"stateMutability":"view"},{"type":"function","name":"transfer","inputs":[{"name":"to","type":"address","internalType":"address"},{"name":"value","type":"uint256","internalType":"uint256"}],"outputs":[{"name":"","type":"bool","internalType":"bool"}],"stateMutability":"nonpayable"},{"type":"function","name":"transferFrom","inputs":[{"name":"from","type":"address","internalType":"address"},{"name":"to","type":"address","internalType":"address"},{"name":"value","type":"uint256","internalType":"uint256"}],"outputs":[{"name":"","type":"bool","internalType":"bool"}],"stateMutability":"nonpayable"},{"type":"event","name":"Approval","inputs":[{"name":"owner","type":"address","indexed":true,"internalType":"address"},{"name":"spender","type":"address","indexed":true,"internalType":"address"},{"name":"value","type":"uint256","indexed":false,"internalType":"uint256"}],"anonymous":false},{"type":"event","name":"Transfer","inputs":[{"name":"from","type":"address","indexed":true,"internalType":"address"},{"name":"to","type":"address","indexed":true,"internalType":"address"},{"name":"value","type":"uint256","indexed":false,"internalType":"uint256"}],"anonymous":false},{"type":"error","name":"ERC20InsufficientAllowance","inputs":[{"name":"spender","type":"address","internalType":"address"},{"name":"allowance","type":"uint256","internalType":"uint256"},{"name":"needed","type":"uint256","internalType":"uint256"}]},{"type":"error","name":"ERC20InsufficientBalance","inputs":[{"name":"sender","type":"address","internalType":"address"},{"name":"balance","type":"uint256","internalType":"uint256"},{"name":"needed","type":"uint256","internalType":"uint256"}]},{"type":"error","name":"ERC20InvalidApprover","inputs":[{"name":"approver","type":"address","internalType":"address"}]},{"type":"error","name":"ERC20InvalidReceiver","inputs":[{"name":"receiver","type":"address","internalType":"address"}]},{"type":"error","name":"ERC20InvalidSender","inputs":[{"name":"sender","type":"address","internalType":"address"}]},{"type":"error","name":"ERC20InvalidSpender","inputs":[{"name":"spender","type":"address","internalType":"address"}]}],"bytecode":{"object":"0x608060405234801561000f575f5ffd5b506040516117ab3803806117ab833981810160405281019061003191906104dc565b838381600390816100429190610790565b5080600490816100529190610790565b5050508160055f6101000a81548160ff021916908360ff16021790555061007f338261008860201b60201c565b50505050610974565b5f73ffffffffffffffffffffffffffffffffffffffff168273ffffffffffffffffffffffffffffffffffffffff16036100f8575f6040517fec442f050000000000000000000000000000000000000000000000000000000081526004016100ef919061089e565b60405180910390fd5b6101095f838361010d60201b60201c565b5050565b5f73ffffffffffffffffffffffffffffffffffffffff168373ffffffffffffffffffffffffffffffffffffffff160361015d578060025f82825461015191906108e4565b9250508190555061022b565b5f5f5f8573ffffffffffffffffffffffffffffffffffffffff1673ffffffffffffffffffffffffffffffffffffffff1681526020019081526020015f20549050818110156101e6578381836040517fe450d38c0000000000000000000000000000000000000000000000000000000081526004016101dd93929190610926565b60405180910390fd5b8181035f5f8673ffffffffffffffffffffffffffffffffffffffff1673ffffffffffffffffffffffffffffffffffffffff1681526020019081526020015f2081905550505b5f73ffffffffffffffffffffffffffffffffffffffff168273ffffffffffffffffffffffffffffffffffffffff1603610272578060025f82825403925050819055506102bc565b805f5f8473ffffffffffffffffffffffffffffffffffffffff1673ffffffffffffffffffffffffffffffffffffffff1681526020019081526020015f205f82825401925050819055505b8173ffffffffffffffffffffffffffffffffffffffff168373ffffffffffffffffffffffffffffffffffffffff167fddf252ad1be2c89b69c2b068fc378daa952ba7f163c4a11628f55a4df523b3ef83604051610319919061095b565b60405180910390a3505050565b5f604051905090565b5f5ffd5b5f5ffd5b5f5ffd5b5f5ffd5b5f601f19601f8301169050919050565b7f4e487b71000000000000000000000000000000000000000000000000000000005f52604160045260245ffd5b6103858261033f565b810181811067ffffffffffffffff821117156103a4576103a361034f565b5b80604052505050565b5f6103b6610326565b90506103c2828261037c565b919050565b5f67ffffffffffffffff8211156103e1576103e061034f565b5b6103ea8261033f565b9050602081019050919050565b8281835e5f83830152505050565b5f610417610412846103c7565b6103ad565b9050828152602081018484840111156104335761043261033b565b5b61043e8482856103f7565b509392505050565b5f82601f83011261045a57610459610337565b5b815161046a848260208601610405565b91505092915050565b5f60ff82169050919050565b61048881610473565b8114610492575f5ffd5b50565b5f815190506104a38161047f565b92915050565b5f819050919050565b6104bb816104a9565b81146104c5575f5ffd5b50565b5f815190506104d6816104b2565b92915050565b5f5f5f5f608085870312156104f4576104f361032f565b5b5f85015167ffffffffffffffff81111561051157610510610333565b5b61051d87828801610446565b945050602085015167ffffffffffffffff81111561053e5761053d610333565b5b61054a87828801610446565b935050604061055b87828801610495565b925050606061056c878288016104c8565b91505092959194509250565b5f81519050919050565b7f4e487b71000000000000000000000000000000000000000000000000000000005f52602260045260245ffd5b5f60028204905060018216806105c657607f821691505b6020821081036105d9576105d8610582565b5b50919050565b5f819050815f5260205f209050919050565b5f6020601f8301049050919050565b5f82821b905092915050565b5f6008830261063b7fffffffffffffffffffffffffffffffffffffffffffffffffffffffffffffffff82610600565b6106458683610600565b95508019841693508086168417925050509392505050565b5f819050919050565b5f61068061067b610676846104a9565b61065d565b6104a9565b9050919050565b5f819050919050565b61069983610666565b6106ad6106a582610687565b84845461060c565b825550505050565b5f5f905090565b6106c46106b5565b6106cf818484610690565b505050565b5f5b828110156106f5576106ea5f8284016106bc565b6001810190506106d6565b505050565b601f821115610748578282111561074757610714816105df565b61071d836105f1565b610726856105f1565b6020861015610733575f90505b808301610742828403826106d4565b505050505b5b505050565b5f82821c905092915050565b5f6107685f198460080261074d565b1980831691505092915050565b5f6107808383610759565b9150826002028217905092915050565b61079982610578565b67ffffffffffffffff8111156107b2576107b161034f565b5b6107bc82546105af565b6107c78282856106fa565b5f60209050601f8311600181146107f8575f84156107e6578287015190505b6107f08582610775565b865550610857565b601f198416610806866105df565b5f5b8281101561082d57848901518255600182019150602085019450602081019050610808565b8683101561084a5784890151610846601f891682610759565b8355505b6001600288020188555050505b505050505050565b5f73ffffffffffffffffffffffffffffffffffffffff82169050919050565b5f6108888261085f565b9050919050565b6108988161087e565b82525050565b5f6020820190506108b15f83018461088f565b92915050565b7f4e487b71000000000000000000000000000000000000000000000000000000005f52601160045260245ffd5b5f6108ee826104a9565b91506108f9836104a9565b9250828201905080821115610911576109106108b7565b5b92915050565b610920816104a9565b82525050565b5f6060820190506109395f83018661088f565b6109466020830185610917565b6109536040830184610917565b949350505050565b5f60208201905061096e5f830184610917565b92915050565b610e2a806109815f395ff3fe608060405234801561000f575f5ffd5b506004361061009c575f3560e01c80633b97e856116100645780633b97e8561461015a57806370a082311461017857806395d89b41146101a8578063a9059cbb146101c6578063dd62ed3e146101f65761009c565b806306fdde03146100a0578063095ea7b3146100be57806318160ddd146100ee57806323b872dd1461010c578063313ce5671461013c575b5f5ffd5b6100a8610226565b6040516100b59190610aa3565b60405180910390f35b6100d860048036038101906100d39190610b54565b6102b6565b6040516100e59190610bac565b60405180910390f35b6100f66102d8565b6040516101039190610bd4565b60405180910390f35b61012660048036038101906101219190610bed565b6102e1565b6040516101339190610bac565b60405180910390f35b61014461030f565b6040516101519190610c58565b60405180910390f35b610162610324565b60405161016f9190610c58565b60405180910390f35b610192600480360381019061018d9190610c71565b610336565b60405161019f9190610bd4565b60405180910390f35b6101b061037b565b6040516101bd9190610aa3565b60405180910390f35b6101e060048036038101906101db9190610b54565b61040b565b6040516101ed9190610bac565b60405180910390f35b610210600480360381019061020b9190610c9c565b61042d565b60405161021d9190610bd4565b60405180910390f35b60606003805461023590610d07565b80601f016020809104026020016040519081016040528092919081815260200182805461026190610d07565b80156102ac5780601f10610283576101008083540402835291602001916102ac565b820191905f5260205f20905b81548152906001019060200180831161028f57829003601f168201915b5050505050905090565b5f5f6102c06104af565b90506102cd8185856104b6565b600191505092915050565b5f600254905090565b5f5f6102eb6104af565b90506102f88582856104c8565b61030385858561055b565b60019150509392505050565b5f60055f9054906101000a900460ff16905090565b60055f9054906101000a900460ff1681565b5f5f5f8373ffffffffffffffffffffffffffffffffffffffff1673ffffffffffffffffffffffffffffffffffffffff1681526020019081526020015f20549050919050565b60606004805461038a90610d07565b80601f01602080910402602001604051908101604052809291908181526020018280546103b690610d07565b80156104015780601f106103d857610100808354040283529160200191610401565b820191905f5260205f20905b8154815290600101906020018083116103e457829003601f168201915b5050505050905090565b5f5f6104156104af565b905061042281858561055b565b600191505092915050565b5f60015f8473ffffffffffffffffffffffffffffffffffffffff1673ffffffffffffffffffffffffffffffffffffffff1681526020019081526020015f205f8373ffffffffffffffffffffffffffffffffffffffff1673ffffffffffffffffffffffffffffffffffffffff1681526020019081526020015f2054905092915050565b5f33905090565b6104c3838383600161064b565b505050565b5f6104d3848461042d565b90507fffffffffffffffffffffffffffffffffffffffffffffffffffffffffffffffff8110156105555781811015610546578281836040517ffb8f41b200000000000000000000000000000000000000000000000000000000815260040161053d93929190610d46565b60405180910390fd5b61055484848484035f61064b565b5b50505050565b5f73ffffffffffffffffffffffffffffffffffffffff168373ffffffffffffffffffffffffffffffffffffffff16036105cb575f6040517f96c6fd1e0000000000000000000000000000000000000000000000000000000081526004016105c29190610d7b565b60405180910390fd5b5f73ffffffffffffffffffffffffffffffffffffffff168273ffffffffffffffffffffffffffffffffffffffff160361063b575f6040517fec442f050000000000000000000000000000000000000000000000000000000081526004016106329190610d7b565b60405180910390fd5b61064683838361081a565b505050565b5f73ffffffffffffffffffffffffffffffffffffffff168473ffffffffffffffffffffffffffffffffffffffff16036106bb575f6040517fe602df050000000000000000000000000000000000000000000000000000000081526004016106b29190610d7b565b60405180910390fd5b5f73ffffffffffffffffffffffffffffffffffffffff168373ffffffffffffffffffffffffffffffffffffffff160361072b575f6040517f94280d620000000000000000000000000000000000000000000000000000000081526004016107229190610d7b565b60405180910390fd5b8160015f8673ffffffffffffffffffffffffffffffffffffffff1673ffffffffffffffffffffffffffffffffffffffff1681526020019081526020015f205f8573ffffffffffffffffffffffffffffffffffffffff1673ffffffffffffffffffffffffffffffffffffffff1681526020019081526020015f20819055508015610814578273ffffffffffffffffffffffffffffffffffffffff168473ffffffffffffffffffffffffffffffffffffffff167f8c5be1e5ebec7d5bd14f71427d1e84f3dd0314c0f7b2291e5b200ac8c7c3b9258460405161080b9190610bd4565b60405180910390a35b50505050565b5f73ffffffffffffffffffffffffffffffffffffffff168373ffffffffffffffffffffffffffffffffffffffff160361086a578060025f82825461085e9190610dc1565b92505081905550610938565b5f5f5f8573ffffffffffffffffffffffffffffffffffffffff1673ffffffffffffffffffffffffffffffffffffffff1681526020019081526020015f20549050818110156108f3578381836040517fe450d38c0000000000000000000000000000000000000000000000000000000081526004016108ea93929190610d46565b60405180910390fd5b8181035f5f8673ffffffffffffffffffffffffffffffffffffffff1673ffffffffffffffffffffffffffffffffffffffff1681526020019081526020015f2081905550505b5f73ffffffffffffffffffffffffffffffffffffffff168273ffffffffffffffffffffffffffffffffffffffff160361097f578060025f82825403925050819055506109c9565b805f5f8473ffffffffffffffffffffffffffffffffffffffff1673ffffffffffffffffffffffffffffffffffffffff1681526020019081526020015f205f82825401925050819055505b8173ffffffffffffffffffffffffffffffffffffffff168373ffffffffffffffffffffffffffffffffffffffff167fddf252ad1be2c89b69c2b068fc378daa952ba7f163c4a11628f55a4df523b3ef83604051610a269190610bd4565b60405180910390a3505050565b5f81519050919050565b5f82825260208201905092915050565b8281835e5f83830152505050565b5f601f19601f8301169050919050565b5f610a7582610a33565b610a7f8185610a3d565b9350610a8f818560208601610a4d565b610a9881610a5b565b840191505092915050565b5f6020820190508181035f830152610abb8184610a6b565b905092915050565b5f5ffd5b5f73ffffffffffffffffffffffffffffffffffffffff82169050919050565b5f610af082610ac7565b9050919050565b610b0081610ae6565b8114610b0a575f5ffd5b50565b5f81359050610b1b81610af7565b92915050565b5f819050919050565b610b3381610b21565b8114610b3d575f5ffd5b50565b5f81359050610b4e81610b2a565b92915050565b5f5f60408385031215610b6a57610b69610ac3565b5b5f610b7785828601610b0d565b9250506020610b8885828601610b40565b9150509250929050565b5f8115159050919050565b610ba681610b92565b82525050565b5f602082019050610bbf5f830184610b9d565b92915050565b610bce81610b21565b82525050565b5f602082019050610be75f830184610bc5565b92915050565b5f5f5f60608486031215610c0457610c03610ac3565b5b5f610c1186828701610b0d565b9350506020610c2286828701610b0d565b9250506040610c3386828701610b40565b9150509250925092565b5f60ff82169050919050565b610c5281610c3d565b82525050565b5f602082019050610c6b5f830184610c49565b92915050565b5f60208284031215610c8657610c85610ac3565b5b5f610c9384828501610b0d565b91505092915050565b5f5f60408385031215610cb257610cb1610ac3565b5b5f610cbf85828601610b0d565b9250506020610cd085828601610b0d565b9150509250929050565b7f4e487b71000000000000000000000000000000000000000000000000000000005f52602260045260245ffd5b5f6002820490506001821680610d1e57607f821691505b602082108103610d3157610d30610cda565b5b50919050565b610d4081610ae6565b82525050565b5f606082019050610d595f830186610d37565b610d666020830185610bc5565b610d736040830184610bc5565b949350505050565b5f602082019050610d8e5f830184610d37565b92915050565b7f4e487b71000000000000000000000000000000000000000000000000000000005f52601160045260245ffd5b5f610dcb82610b21565b9150610dd683610b21565b9250828201905080821115610dee57610ded610d94565b5b9291505056fea2646970667358221220ae85a6346fdf87941c5b52f720089e6e4aea42b61ba158e8aa88b0232ca0a71764736f6c63430008210033","linkReferences":{}},"methodIdentifiers":{"allowance(address,address)":"dd62ed3e","approve(address,uint256)":"095ea7b3","balanceOf(address)":"70a08231","decimals()":"313ce567","name()":"06fdde03","symbol()":"95d89b41","tokenDecimals()":"3b97e856","totalSupply()":"18160ddd","transfer(address,uint256)":"a9059cbb","transferFrom(address,address,uint256)":"23b872dd"},"id":6}