{
  "_format": "hh-sol-artifact-1",
  "contractName": "MultiEscrow",
  "sourceName": "contracts/MultiEscrow.sol",
  "abi": [
    {
      "anonymous": false,
      "inputs": [
        {
          "indexed": true,
          "internalType": "bytes32",
          "name": "tradeId",
          "type": "bytes32"
        },
        {
          "indexed": false,
          "internalType": "address",
          "name": "seller",
          "type": "address"
        },
        {
          "indexed": false,
          "internalType": "address",
          "name": "buyer",
          "type": "address"
        },
        {
          "indexed": false,
          "internalType": "uint256",
          "name": "amount",
          "type": "uint256"
        },
        {
          "indexed": false,
          "internalType": "uint256",
          "name": "fractionForwarded",
          "type": "uint256"
        }
      ],
      "name": "Arbitrated",
      "type": "event"
    },
    {
      "anonymous": false,
      "inputs": [
        {
          "indexed": true,
          "internalType": "bytes32",
          "name": "tradeId",
          "type": "bytes32"
        },
        {
          "indexed": false,
          "internalType": "address",
          "name": "seller",
          "type": "address"
        },
        {
          "indexed": false,
          "internalType": "address",
          "name": "buyer",
          "type": "address"
        },
        {
          "indexed": false,
          "internalType": "uint256",
          "name": "amount",
          "type": "uint256"
        }
      ],
      "name": "Claimed",
      "type": "event"
    },
    {
      "anonymous": false,
      "inputs": [
        {
          "indexed": false,
          "internalType": "string",
          "name": "message",
          "type": "string"
        }
      ],
      "name": "DebugLog",
      "type": "event"
    },
    {
      "anonymous": false,
      "inputs": [
        {
          "indexed": true,
          "internalType": "bytes32",
          "name": "tradeId",
          "type": "bytes32"
        },
        {
          "indexed": false,
          "internalType": "address",
          "name": "buyer",
          "type": "address"
        },
        {
          "indexed": false,
          "internalType": "address",
          "name": "seller",
          "type": "address"
        },
        {
          "indexed": false,
          "internalType": "address",
          "name": "arbiter",
          "type": "address"
        },
        {
          "indexed": false,
          "internalType": "uint256",
          "name": "timelock",
          "type": "uint256"
        },
        {
          "indexed": false,
          "internalType": "uint256",
          "name": "escrowFee",
          "type": "uint256"
        }
      ],
      "name": "TradeCreated",
      "type": "event"
    },
    {
      "inputs": [
        {
          "internalType": "bytes32",
          "name": "tradeId",
          "type": "bytes32"
        },
        {
          "internalType": "uint256",
          "name": "factor",
          "type": "uint256"
        }
      ],
      "name": "arbitrate",
      "outputs": [],
      "stateMutability": "nonpayable",
      "type": "function"
    },
    {
      "inputs": [
        {
          "internalType": "bytes32",
          "name": "tradeId",
          "type": "bytes32"
        }
      ],
      "name": "claim",
      "outputs": [],
      "stateMutability": "nonpayable",
      "type": "function"
    },
    {
      "inputs": [
        {
          "internalType": "bytes32",
          "name": "tradeId",
          "type": "bytes32"
        },
        {
          "internalType": "address",
          "name": "_buyer",
          "type": "address"
        },
        {
          "internalType": "address",
          "name": "_seller",
          "type": "address"
        },
        {
          "internalType": "address",
          "name": "_arbiter",
          "type": "address"
        },
        {
          "internalType": "uint256",
          "name": "_timelock",
          "type": "uint256"
        },
        {
          "internalType": "uint256",
          "name": "_escrowFee",
          "type": "uint256"
        }
      ],
      "name": "createTrade",
      "outputs": [],
      "stateMutability": "payable",
      "type": "function"
    },
    {
      "inputs": [
        {
          "internalType": "bytes32",
          "name": "",
          "type": "bytes32"
        }
      ],
      "name": "trades",
      "outputs": [
        {
          "internalType": "address",
          "name": "buyer",
          "type": "address"
        },
        {
          "internalType": "address",
          "name": "seller",
          "type": "address"
        },
        {
          "internalType": "address",
          "name": "arbiter",
          "type": "address"
        },
        {
          "internalType": "uint256",
          "name": "amount",
          "type": "uint256"
        },
        {
          "internalType": "uint256",
          "name": "timelock",
          "type": "uint256"
        },
        {
          "internalType": "uint256",
          "name": "escrowFee",
          "type": "uint256"
        }
      ],
      "stateMutability": "view",
      "type": "function"
    }
  ],
  "bytecode": "0x6080604052348015600f57600080fd5b5061142a8061001f6000396000f3fe60806040526004361061003e5760003560e01c806216242014610043578063369ea7fc14610085578063bd66528a146100a1578063cb2e7212146100ca575b600080fd5b34801561004f57600080fd5b5061006a60048036038101906100659190610b90565b6100f3565b60405161007c96959493929190610c17565b60405180910390f35b61009f600480360381019061009a9190610cd0565b61018f565b005b3480156100ad57600080fd5b506100c860048036038101906100c39190610b90565b6104b9565b005b3480156100d657600080fd5b506100f160048036038101906100ec9190610d5d565b6107a3565b005b60006020528060005260406000206000915090508060000160009054906101000a900473ffffffffffffffffffffffffffffffffffffffff16908060010160009054906101000a900473ffffffffffffffffffffffffffffffffffffffff16908060020160009054906101000a900473ffffffffffffffffffffffffffffffffffffffff16908060030154908060040154908060050154905086565b7f4be5e2ddd7b814bfc07153581bbbda6ea3d62d61c270f9788cae2f0297e18ae86040516101bc90610dfa565b60405180910390a1600073ffffffffffffffffffffffffffffffffffffffff1660008088815260200190815260200160002060000160009054906101000a900473ffffffffffffffffffffffffffffffffffffffff1673ffffffffffffffffffffffffffffffffffffffff1614610268576040517f08c379a000000000000000000000000000000000000000000000000000000000815260040161025f90610e66565b60405180910390fd5b600034116102ab576040517f08c379a00000000000000000000000000000000000000000000000000000000081526004016102a290610ef8565b60405180910390fd5b600082116102ee576040517f08c379a00000000000000000000000000000000000000000000000000000000081526004016102e590610f64565b60405180910390fd5b6040518060c001604052808673ffffffffffffffffffffffffffffffffffffffff1681526020018573ffffffffffffffffffffffffffffffffffffffff1681526020018473ffffffffffffffffffffffffffffffffffffffff1681526020016000815260200183426103609190610fb3565b81526020018281525060008088815260200190815260200160002060008201518160000160006101000a81548173ffffffffffffffffffffffffffffffffffffffff021916908373ffffffffffffffffffffffffffffffffffffffff16021790555060208201518160010160006101000a81548173ffffffffffffffffffffffffffffffffffffffff021916908373ffffffffffffffffffffffffffffffffffffffff16021790555060408201518160020160006101000a81548173ffffffffffffffffffffffffffffffffffffffff021916908373ffffffffffffffffffffffffffffffffffffffff160217905550606082015181600301556080820151816004015560a08201518160050155905050857f61fe62efd283b1563a16a9e31a5294efcb8b11ed366613a1a7120efde467d5a386868686866040516104a9959493929190610fe7565b60405180910390a2505050505050565b600080600083815260200190815260200160002090508060010160009054906101000a900473ffffffffffffffffffffffffffffffffffffffff1673ffffffffffffffffffffffffffffffffffffffff163373ffffffffffffffffffffffffffffffffffffffff1614610561576040517f08c379a0000000000000000000000000000000000000000000000000000000008152600401610558906110ac565b60405180910390fd5b6212750081600401546105749190610fb3565b42116105b5576040517f08c379a00000000000000000000000000000000000000000000000000000000081526004016105ac90611118565b60405180910390fd5b60008160030154116105fc576040517f08c379a00000000000000000000000000000000000000000000000000000000081526004016105f390611184565b60405180910390fd5b8060010160009054906101000a900473ffffffffffffffffffffffffffffffffffffffff1673ffffffffffffffffffffffffffffffffffffffff166108fc82600301549081150290604051600060405180830381858888f1935050505015801561066a573d6000803e3d6000fd5b5060008160030181905550817f8b1927e0809f1e7682bb8c52fafe4c0445fea47afef60dd27e037e91fd104d2e8260010160009054906101000a900473ffffffffffffffffffffffffffffffffffffffff168360000160009054906101000a900473ffffffffffffffffffffffffffffffffffffffff1684600301546040516106f5939291906111a4565b60405180910390a2600080838152602001908152602001600020600080820160006101000a81549073ffffffffffffffffffffffffffffffffffffffff02191690556001820160006101000a81549073ffffffffffffffffffffffffffffffffffffffff02191690556002820160006101000a81549073ffffffffffffffffffffffffffffffffffffffff021916905560038201600090556004820160009055600582016000905550505050565b8160008082815260200190815260200160002060020160009054906101000a900473ffffffffffffffffffffffffffffffffffffffff1673ffffffffffffffffffffffffffffffffffffffff163373ffffffffffffffffffffffffffffffffffffffff1614610847576040517f08c379a000000000000000000000000000000000000000000000000000000000815260040161083e9061124d565b60405180910390fd5b6000806000858152602001908152602001600020905060008311801561086d5750600183105b6108ac576040517f08c379a00000000000000000000000000000000000000000000000000000000081526004016108a3906112b9565b60405180910390fd5b60006064826005015483600301546108c491906112d9565b6108ce919061134a565b905060008183600301546108e2919061137b565b90506000600186836108f491906112d9565b6108fe919061134a565b90506000811115610975578360010160009054906101000a900473ffffffffffffffffffffffffffffffffffffffff1673ffffffffffffffffffffffffffffffffffffffff166108fc829081150290604051600060405180830381858888f19350505050158015610973573d6000803e3d6000fd5b505b82816109819190610fb3565b846003016000828254610994919061137b565b925050819055506000846003015490506000811115610a19578460000160009054906101000a900473ffffffffffffffffffffffffffffffffffffffff1673ffffffffffffffffffffffffffffffffffffffff166108fc829081150290604051600060405180830381858888f19350505050158015610a17573d6000803e3d6000fd5b505b60008560030181905550877fcc246de485760d7415de3512dd87394e9ca2cb6995809d8c7f34151defb815188660010160009054906101000a900473ffffffffffffffffffffffffffffffffffffffff168760000160009054906101000a900473ffffffffffffffffffffffffffffffffffffffff16868b604051610aa194939291906113af565b60405180910390a2600080898152602001908152602001600020600080820160006101000a81549073ffffffffffffffffffffffffffffffffffffffff02191690556001820160006101000a81549073ffffffffffffffffffffffffffffffffffffffff02191690556002820160006101000a81549073ffffffffffffffffffffffffffffffffffffffff021916905560038201600090556004820160009055600582016000905550505050505050505050565b600080fd5b6000819050919050565b610b6d81610b5a565b8114610b7857600080fd5b50565b600081359050610b8a81610b64565b92915050565b600060208284031215610ba657610ba5610b55565b5b6000610bb484828501610b7b565b91505092915050565b600073ffffffffffffffffffffffffffffffffffffffff82169050919050565b6000610be882610bbd565b9050919050565b610bf881610bdd565b82525050565b6000819050919050565b610c1181610bfe565b82525050565b600060c082019050610c2c6000830189610bef565b610c396020830188610bef565b610c466040830187610bef565b610c536060830186610c08565b610c606080830185610c08565b610c6d60a0830184610c08565b979650505050505050565b610c8181610bdd565b8114610c8c57600080fd5b50565b600081359050610c9e81610c78565b92915050565b610cad81610bfe565b8114610cb857600080fd5b50565b600081359050610cca81610ca4565b92915050565b60008060008060008060c08789031215610ced57610cec610b55565b5b6000610cfb89828a01610b7b565b9650506020610d0c89828a01610c8f565b9550506040610d1d89828a01610c8f565b9450506060610d2e89828a01610c8f565b9350506080610d3f89828a01610cbb565b92505060a0610d5089828a01610cbb565b9150509295509295509295565b60008060408385031215610d7457610d73610b55565b5b6000610d8285828601610b7b565b9250506020610d9385828601610cbb565b9150509250929050565b600082825260208201905092915050565b7f547261646543726561746564206576656e7420656d6974746564000000000000600082015250565b6000610de4601a83610d9d565b9150610def82610dae565b602082019050919050565b60006020820190508181036000830152610e1381610dd7565b9050919050565b7f547261646520494420616c726561647920657869737473000000000000000000600082015250565b6000610e50601783610d9d565b9150610e5b82610e1a565b602082019050919050565b60006020820190508181036000830152610e7f81610e43565b9050919050565b7f4d7573742073656e642066756e647320746f2063726561746520616e2065736360008201527f726f7720636f6e74726163740000000000000000000000000000000000000000602082015250565b6000610ee2602c83610d9d565b9150610eed82610e86565b604082019050919050565b60006020820190508181036000830152610f1181610ed5565b9050919050565b7f54696d656c6f636b206d7573742062652067726561746572207468616e203000600082015250565b6000610f4e601f83610d9d565b9150610f5982610f18565b602082019050919050565b60006020820190508181036000830152610f7d81610f41565b9050919050565b7f4e487b7100000000000000000000000000000000000000000000000000000000600052601160045260246000fd5b6000610fbe82610bfe565b9150610fc983610bfe565b9250828201905080821115610fe157610fe0610f84565b5b92915050565b600060a082019050610ffc6000830188610bef565b6110096020830187610bef565b6110166040830186610bef565b6110236060830185610c08565b6110306080830184610c08565b9695505050505050565b7f4f6e6c79207468652073656c6c65722063616e20636c61696d2074686520667560008201527f6e64730000000000000000000000000000000000000000000000000000000000602082015250565b6000611096602383610d9d565b91506110a18261103a565b604082019050919050565b600060208201905081810360008301526110c581611089565b9050919050565b7f436c61696d20706572696f6420686173206e6f74207374617274656420796574600082015250565b6000611102602083610d9d565b915061110d826110cc565b602082019050919050565b60006020820190508181036000830152611131816110f5565b9050919050565b7f4e6f2066756e647320746f20636c61696d000000000000000000000000000000600082015250565b600061116e601183610d9d565b915061117982611138565b602082019050919050565b6000602082019050818103600083015261119d81611161565b9050919050565b60006060820190506111b96000830186610bef565b6111c66020830185610bef565b6111d36040830184610c08565b949350505050565b7f4f6e6c7920617262697465722063616e2063616c6c20746869732066756e637460008201527f696f6e0000000000000000000000000000000000000000000000000000000000602082015250565b6000611237602383610d9d565b9150611242826111db565b604082019050919050565b600060208201905081810360008301526112668161122a565b9050919050565b7f466163746f72206d757374206265206265747765656e203020616e6420310000600082015250565b60006112a3601e83610d9d565b91506112ae8261126d565b602082019050919050565b600060208201905081810360008301526112d281611296565b9050919050565b60006112e482610bfe565b91506112ef83610bfe565b92508282026112fd81610bfe565b9150828204841483151761131457611313610f84565b5b5092915050565b7f4e487b7100000000000000000000000000000000000000000000000000000000600052601260045260246000fd5b600061135582610bfe565b915061136083610bfe565b9250826113705761136f61131b565b5b828204905092915050565b600061138682610bfe565b915061139183610bfe565b92508282039050818111156113a9576113a8610f84565b5b92915050565b60006080820190506113c46000830187610bef565b6113d16020830186610bef565b6113de6040830185610c08565b6113eb6060830184610c08565b9594505050505056fea264697066735822122038b81a161544eff736e1e43ec6858612c7f0242d5cac67f1fa7e5e94337e8c0064736f6c634300081c0033",
  "linkReferences": {},
  "deployedLinkReferences": {}
}