{
  "_format": "hh-sol-artifact-1",
  "contractName": "MultiEscrow",
  "sourceName": "contracts/MultiEscrow.sol",
  "abi": [
    {
      "anonymous": false,
      "inputs": [
        {
          "indexed": false,
          "internalType": "string",
          "name": "tradeId",
          "type": "string"
        },
        {
          "indexed": false,
          "internalType": "address",
          "name": "seller",
          "type": "address"
        },
        {
          "indexed": false,
          "internalType": "address",
          "name": "buyer",
          "type": "address"
        },
        {
          "indexed": false,
          "internalType": "uint256",
          "name": "amount",
          "type": "uint256"
        },
        {
          "indexed": false,
          "internalType": "uint256",
          "name": "fractionForwarded",
          "type": "uint256"
        }
      ],
      "name": "Arbitrated",
      "type": "event"
    },
    {
      "anonymous": false,
      "inputs": [
        {
          "indexed": false,
          "internalType": "string",
          "name": "tradeId",
          "type": "string"
        },
        {
          "indexed": false,
          "internalType": "address",
          "name": "seller",
          "type": "address"
        },
        {
          "indexed": false,
          "internalType": "address",
          "name": "buyer",
          "type": "address"
        },
        {
          "indexed": false,
          "internalType": "uint256",
          "name": "amount",
          "type": "uint256"
        }
      ],
      "name": "Claimed",
      "type": "event"
    },
    {
      "anonymous": false,
      "inputs": [
        {
          "indexed": false,
          "internalType": "string",
          "name": "message",
          "type": "string"
        }
      ],
      "name": "DebugLog",
      "type": "event"
    },
    {
      "anonymous": false,
      "inputs": [
        {
          "indexed": false,
          "internalType": "string",
          "name": "tradeId",
          "type": "string"
        },
        {
          "indexed": false,
          "internalType": "address",
          "name": "buyer",
          "type": "address"
        },
        {
          "indexed": false,
          "internalType": "address",
          "name": "seller",
          "type": "address"
        },
        {
          "indexed": false,
          "internalType": "address",
          "name": "arbiter",
          "type": "address"
        },
        {
          "indexed": false,
          "internalType": "uint256",
          "name": "timelock",
          "type": "uint256"
        },
        {
          "indexed": false,
          "internalType": "uint256",
          "name": "escrowFee",
          "type": "uint256"
        }
      ],
      "name": "TradeCreated",
      "type": "event"
    },
    {
      "inputs": [
        {
          "internalType": "string",
          "name": "tradeId",
          "type": "string"
        },
        {
          "internalType": "uint256",
          "name": "factor",
          "type": "uint256"
        }
      ],
      "name": "arbitrate",
      "outputs": [],
      "stateMutability": "nonpayable",
      "type": "function"
    },
    {
      "inputs": [
        {
          "internalType": "string",
          "name": "tradeId",
          "type": "string"
        }
      ],
      "name": "claim",
      "outputs": [],
      "stateMutability": "nonpayable",
      "type": "function"
    },
    {
      "inputs": [
        {
          "internalType": "string",
          "name": "tradeId",
          "type": "string"
        },
        {
          "internalType": "address",
          "name": "_buyer",
          "type": "address"
        },
        {
          "internalType": "address",
          "name": "_seller",
          "type": "address"
        },
        {
          "internalType": "address",
          "name": "_arbiter",
          "type": "address"
        },
        {
          "internalType": "uint256",
          "name": "_timelock",
          "type": "uint256"
        },
        {
          "internalType": "uint256",
          "name": "_escrowFee",
          "type": "uint256"
        }
      ],
      "name": "createTrade",
      "outputs": [],
      "stateMutability": "payable",
      "type": "function"
    },
    {
      "inputs": [
        {
          "internalType": "string",
          "name": "",
          "type": "string"
        }
      ],
      "name": "trades",
      "outputs": [
        {
          "internalType": "address",
          "name": "buyer",
          "type": "address"
        },
        {
          "internalType": "address",
          "name": "seller",
          "type": "address"
        },
        {
          "internalType": "address",
          "name": "arbiter",
          "type": "address"
        },
        {
          "internalType": "uint256",
          "name": "amount",
          "type": "uint256"
        },
        {
          "internalType": "uint256",
          "name": "timelock",
          "type": "uint256"
        },
        {
          "internalType": "uint256",
          "name": "escrowFee",
          "type": "uint256"
        }
      ],
      "stateMutability": "view",
      "type": "function"
    }
  ],
  "bytecode": "0x6080604052348015600f57600080fd5b506117098061001f6000396000f3fe60806040526004361061003f5760003560e01c806347a04100146100445780639499f40314610086578063d9dc7620146100af578063f3fe12c9146100cb575b600080fd5b34801561005057600080fd5b5061006b60048036038101906100669190610d1b565b6100f4565b60405161007d96959493929190610dbe565b60405180910390f35b34801561009257600080fd5b506100ad60048036038101906100a89190610e4b565b6101a6565b005b6100c960048036038101906100c49190610ed3565b61057c565b005b3480156100d757600080fd5b506100f260048036038101906100ed9190610d1b565b6108bf565b005b6000818051602081018201805184825260208301602085012081835280955050505050506000915090508060000160009054906101000a900473ffffffffffffffffffffffffffffffffffffffff16908060010160009054906101000a900473ffffffffffffffffffffffffffffffffffffffff16908060020160009054906101000a900473ffffffffffffffffffffffffffffffffffffffff16908060030154908060040154908060050154905086565b816000816040516101b79190610fed565b908152602001604051809103902060020160009054906101000a900473ffffffffffffffffffffffffffffffffffffffff1673ffffffffffffffffffffffffffffffffffffffff163373ffffffffffffffffffffffffffffffffffffffff1614610256576040517f08c379a000000000000000000000000000000000000000000000000000000000815260040161024d90611087565b60405180910390fd5b600080846040516102679190610fed565b908152602001604051809103902090506000831180156102875750600183105b6102c6576040517f08c379a00000000000000000000000000000000000000000000000000000000081526004016102bd906110f3565b60405180910390fd5b60006064826005015483600301546102de9190611142565b6102e891906111b3565b905060008183600301546102fc91906111e4565b905060006001868361030e9190611142565b61031891906111b3565b9050600081111561038f578360010160009054906101000a900473ffffffffffffffffffffffffffffffffffffffff1673ffffffffffffffffffffffffffffffffffffffff166108fc829081150290604051600060405180830381858888f1935050505015801561038d573d6000803e3d6000fd5b505b828161039b9190611218565b8460030160008282546103ae91906111e4565b925050819055506000846003015490506000811115610433578460000160009054906101000a900473ffffffffffffffffffffffffffffffffffffffff1673ffffffffffffffffffffffffffffffffffffffff166108fc829081150290604051600060405180830381858888f19350505050158015610431573d6000803e3d6000fd5b505b600085600301819055507fda52b70f3482b0760cf0fbc377496021f9c36eebe5710285c3edd737a135dacd888660010160009054906101000a900473ffffffffffffffffffffffffffffffffffffffff168760000160009054906101000a900473ffffffffffffffffffffffffffffffffffffffff16868b6040516104bc959493929190611285565b60405180910390a16000886040516104d49190610fed565b9081526020016040518091039020600080820160006101000a81549073ffffffffffffffffffffffffffffffffffffffff02191690556001820160006101000a81549073ffffffffffffffffffffffffffffffffffffffff02191690556002820160006101000a81549073ffffffffffffffffffffffffffffffffffffffff021916905560038201600090556004820160009055600582016000905550505050505050505050565b7f4be5e2ddd7b814bfc07153581bbbda6ea3d62d61c270f9788cae2f0297e18ae86040516105a99061132b565b60405180910390a1600073ffffffffffffffffffffffffffffffffffffffff166000876040516105d99190610fed565b908152602001604051809103902060000160009054906101000a900473ffffffffffffffffffffffffffffffffffffffff1673ffffffffffffffffffffffffffffffffffffffff1614610661576040517f08c379a000000000000000000000000000000000000000000000000000000000815260040161065890611397565b60405180910390fd5b600034116106a4576040517f08c379a000000000000000000000000000000000000000000000000000000000815260040161069b90611429565b60405180910390fd5b600082116106e7576040517f08c379a00000000000000000000000000000000000000000000000000000000081526004016106de90611495565b60405180910390fd5b6040518060c001604052808673ffffffffffffffffffffffffffffffffffffffff1681526020018573ffffffffffffffffffffffffffffffffffffffff1681526020018473ffffffffffffffffffffffffffffffffffffffff1681526020016000815260200183426107599190611218565b8152602001828152506000876040516107729190610fed565b908152602001604051809103902060008201518160000160006101000a81548173ffffffffffffffffffffffffffffffffffffffff021916908373ffffffffffffffffffffffffffffffffffffffff16021790555060208201518160010160006101000a81548173ffffffffffffffffffffffffffffffffffffffff021916908373ffffffffffffffffffffffffffffffffffffffff16021790555060408201518160020160006101000a81548173ffffffffffffffffffffffffffffffffffffffff021916908373ffffffffffffffffffffffffffffffffffffffff160217905550606082015181600301556080820151816004015560a082015181600501559050507f70c32ba1a3e7ddf23296dc9e251f1c54bcf8aa48365a9001ea9c0621927505e68686868686866040516108af969594939291906114b5565b60405180910390a1505050505050565b600080826040516108d09190610fed565b908152602001604051809103902090508060010160009054906101000a900473ffffffffffffffffffffffffffffffffffffffff1673ffffffffffffffffffffffffffffffffffffffff163373ffffffffffffffffffffffffffffffffffffffff1614610972576040517f08c379a00000000000000000000000000000000000000000000000000000000081526004016109699061158f565b60405180910390fd5b6212750081600401546109859190611218565b42116109c6576040517f08c379a00000000000000000000000000000000000000000000000000000000081526004016109bd906115fb565b60405180910390fd5b6000816003015411610a0d576040517f08c379a0000000000000000000000000000000000000000000000000000000008152600401610a0490611667565b60405180910390fd5b8060010160009054906101000a900473ffffffffffffffffffffffffffffffffffffffff1673ffffffffffffffffffffffffffffffffffffffff166108fc82600301549081150290604051600060405180830381858888f19350505050158015610a7b573d6000803e3d6000fd5b50600081600301819055507fad0c006487cb4960db6b4c33e9c3af90353d172ab27ed6d48158abf220956508828260010160009054906101000a900473ffffffffffffffffffffffffffffffffffffffff168360000160009054906101000a900473ffffffffffffffffffffffffffffffffffffffff168460030154604051610b079493929190611687565b60405180910390a1600082604051610b1f9190610fed565b9081526020016040518091039020600080820160006101000a81549073ffffffffffffffffffffffffffffffffffffffff02191690556001820160006101000a81549073ffffffffffffffffffffffffffffffffffffffff02191690556002820160006101000a81549073ffffffffffffffffffffffffffffffffffffffff021916905560038201600090556004820160009055600582016000905550505050565b6000604051905090565b600080fd5b600080fd5b600080fd5b600080fd5b6000601f19601f8301169050919050565b7f4e487b7100000000000000000000000000000000000000000000000000000000600052604160045260246000fd5b610c2882610bdf565b810181811067ffffffffffffffff82111715610c4757610c46610bf0565b5b80604052505050565b6000610c5a610bc1565b9050610c668282610c1f565b919050565b600067ffffffffffffffff821115610c8657610c85610bf0565b5b610c8f82610bdf565b9050602081019050919050565b82818337600083830152505050565b6000610cbe610cb984610c6b565b610c50565b905082815260208101848484011115610cda57610cd9610bda565b5b610ce5848285610c9c565b509392505050565b600082601f830112610d0257610d01610bd5565b5b8135610d12848260208601610cab565b91505092915050565b600060208284031215610d3157610d30610bcb565b5b600082013567ffffffffffffffff811115610d4f57610d4e610bd0565b5b610d5b84828501610ced565b91505092915050565b600073ffffffffffffffffffffffffffffffffffffffff82169050919050565b6000610d8f82610d64565b9050919050565b610d9f81610d84565b82525050565b6000819050919050565b610db881610da5565b82525050565b600060c082019050610dd36000830189610d96565b610de06020830188610d96565b610ded6040830187610d96565b610dfa6060830186610daf565b610e076080830185610daf565b610e1460a0830184610daf565b979650505050505050565b610e2881610da5565b8114610e3357600080fd5b50565b600081359050610e4581610e1f565b92915050565b60008060408385031215610e6257610e61610bcb565b5b600083013567ffffffffffffffff811115610e8057610e7f610bd0565b5b610e8c85828601610ced565b9250506020610e9d85828601610e36565b9150509250929050565b610eb081610d84565b8114610ebb57600080fd5b50565b600081359050610ecd81610ea7565b92915050565b60008060008060008060c08789031215610ef057610eef610bcb565b5b600087013567ffffffffffffffff811115610f0e57610f0d610bd0565b5b610f1a89828a01610ced565b9650506020610f2b89828a01610ebe565b9550506040610f3c89828a01610ebe565b9450506060610f4d89828a01610ebe565b9350506080610f5e89828a01610e36565b92505060a0610f6f89828a01610e36565b9150509295509295509295565b600081519050919050565b600081905092915050565b60005b83811015610fb0578082015181840152602081019050610f95565b60008484015250505050565b6000610fc782610f7c565b610fd18185610f87565b9350610fe1818560208601610f92565b80840191505092915050565b6000610ff98284610fbc565b915081905092915050565b600082825260208201905092915050565b7f4f6e6c7920617262697465722063616e2063616c6c20746869732066756e637460008201527f696f6e0000000000000000000000000000000000000000000000000000000000602082015250565b6000611071602383611004565b915061107c82611015565b604082019050919050565b600060208201905081810360008301526110a081611064565b9050919050565b7f466163746f72206d757374206265206265747765656e203020616e6420310000600082015250565b60006110dd601e83611004565b91506110e8826110a7565b602082019050919050565b6000602082019050818103600083015261110c816110d0565b9050919050565b7f4e487b7100000000000000000000000000000000000000000000000000000000600052601160045260246000fd5b600061114d82610da5565b915061115883610da5565b925082820261116681610da5565b9150828204841483151761117d5761117c611113565b5b5092915050565b7f4e487b7100000000000000000000000000000000000000000000000000000000600052601260045260246000fd5b60006111be82610da5565b91506111c983610da5565b9250826111d9576111d8611184565b5b828204905092915050565b60006111ef82610da5565b91506111fa83610da5565b925082820390508181111561121257611211611113565b5b92915050565b600061122382610da5565b915061122e83610da5565b925082820190508082111561124657611245611113565b5b92915050565b600061125782610f7c565b6112618185611004565b9350611271818560208601610f92565b61127a81610bdf565b840191505092915050565b600060a082019050818103600083015261129f818861124c565b90506112ae6020830187610d96565b6112bb6040830186610d96565b6112c86060830185610daf565b6112d56080830184610daf565b9695505050505050565b7f547261646543726561746564206576656e7420656d6974746564000000000000600082015250565b6000611315601a83611004565b9150611320826112df565b602082019050919050565b6000602082019050818103600083015261134481611308565b9050919050565b7f547261646520494420616c726561647920657869737473000000000000000000600082015250565b6000611381601783611004565b915061138c8261134b565b602082019050919050565b600060208201905081810360008301526113b081611374565b9050919050565b7f4d7573742073656e642066756e647320746f2063726561746520616e2065736360008201527f726f7720636f6e74726163740000000000000000000000000000000000000000602082015250565b6000611413602c83611004565b915061141e826113b7565b604082019050919050565b6000602082019050818103600083015261144281611406565b9050919050565b7f54696d656c6f636b206d7573742062652067726561746572207468616e203000600082015250565b600061147f601f83611004565b915061148a82611449565b602082019050919050565b600060208201905081810360008301526114ae81611472565b9050919050565b600060c08201905081810360008301526114cf818961124c565b90506114de6020830188610d96565b6114eb6040830187610d96565b6114f86060830186610d96565b6115056080830185610daf565b61151260a0830184610daf565b979650505050505050565b7f4f6e6c79207468652073656c6c65722063616e20636c61696d2074686520667560008201527f6e64730000000000000000000000000000000000000000000000000000000000602082015250565b6000611579602383611004565b91506115848261151d565b604082019050919050565b600060208201905081810360008301526115a88161156c565b9050919050565b7f436c61696d20706572696f6420686173206e6f74207374617274656420796574600082015250565b60006115e5602083611004565b91506115f0826115af565b602082019050919050565b60006020820190508181036000830152611614816115d8565b9050919050565b7f4e6f2066756e647320746f20636c61696d000000000000000000000000000000600082015250565b6000611651601183611004565b915061165c8261161b565b602082019050919050565b6000602082019050818103600083015261168081611644565b9050919050565b600060808201905081810360008301526116a1818761124c565b90506116b06020830186610d96565b6116bd6040830185610d96565b6116ca6060830184610daf565b9594505050505056fea2646970667358221220e326e9f79703a0e9126d703b0cd59456720015ad32f59d4abfc136a6ad60f13964736f6c634300081c0033",
  "linkReferences": {},
  "deployedLinkReferences": {}
}