{
  "_format": "hh-sol-artifact-1",
  "contractName": "CustomSmartWalletFactory",
  "sourceName": "contracts/factory/CustomSmartWalletFactory.sol",
  "abi": [
    {
      "inputs": [
        {
          "internalType": "address",
          "name": "forwarderTemplate",
          "type": "address"
        }
      ],
      "stateMutability": "nonpayable",
      "type": "constructor"
    },
    {
      "anonymous": false,
      "inputs": [
        {
          "indexed": true,
          "internalType": "address",
          "name": "addr",
          "type": "address"
        },
        {
          "indexed": false,
          "internalType": "uint256",
          "name": "salt",
          "type": "uint256"
        }
      ],
      "name": "Deployed",
      "type": "event"
    },
    {
      "inputs": [],
      "name": "DATA_VERSION_HASH",
      "outputs": [
        {
          "internalType": "bytes32",
          "name": "",
          "type": "bytes32"
        }
      ],
      "stateMutability": "view",
      "type": "function"
    },
    {
      "inputs": [
        {
          "internalType": "address",
          "name": "owner",
          "type": "address"
        },
        {
          "internalType": "address",
          "name": "recoverer",
          "type": "address"
        },
        {
          "internalType": "address",
          "name": "logic",
          "type": "address"
        },
        {
          "internalType": "uint256",
          "name": "index",
          "type": "uint256"
        },
        {
          "internalType": "bytes",
          "name": "initParams",
          "type": "bytes"
        },
        {
          "internalType": "bytes",
          "name": "sig",
          "type": "bytes"
        }
      ],
      "name": "createUserSmartWallet",
      "outputs": [],
      "stateMutability": "nonpayable",
      "type": "function"
    },
    {
      "inputs": [],
      "name": "domainSeparator",
      "outputs": [
        {
          "internalType": "bytes32",
          "name": "",
          "type": "bytes32"
        }
      ],
      "stateMutability": "view",
      "type": "function"
    },
    {
      "inputs": [],
      "name": "getCreationBytecode",
      "outputs": [
        {
          "internalType": "bytes",
          "name": "",
          "type": "bytes"
        }
      ],
      "stateMutability": "view",
      "type": "function"
    },
    {
      "inputs": [
        {
          "internalType": "address",
          "name": "owner",
          "type": "address"
        },
        {
          "internalType": "address",
          "name": "recoverer",
          "type": "address"
        },
        {
          "internalType": "address",
          "name": "logic",
          "type": "address"
        },
        {
          "internalType": "bytes32",
          "name": "initParamsHash",
          "type": "bytes32"
        },
        {
          "internalType": "uint256",
          "name": "index",
          "type": "uint256"
        }
      ],
      "name": "getSmartWalletAddress",
      "outputs": [
        {
          "internalType": "address",
          "name": "",
          "type": "address"
        }
      ],
      "stateMutability": "view",
      "type": "function"
    },
    {
      "inputs": [],
      "name": "masterCopy",
      "outputs": [
        {
          "internalType": "address",
          "name": "",
          "type": "address"
        }
      ],
      "stateMutability": "view",
      "type": "function"
    },
    {
      "inputs": [
        {
          "internalType": "address",
          "name": "from",
          "type": "address"
        }
      ],
      "name": "nonce",
      "outputs": [
        {
          "internalType": "uint256",
          "name": "",
          "type": "uint256"
        }
      ],
      "stateMutability": "view",
      "type": "function"
    },
    {
      "inputs": [
        {
          "components": [
            {
              "internalType": "address",
              "name": "relayHub",
              "type": "address"
            },
            {
              "internalType": "address",
              "name": "from",
              "type": "address"
            },
            {
              "internalType": "address",
              "name": "to",
              "type": "address"
            },
            {
              "internalType": "address",
              "name": "tokenContract",
              "type": "address"
            },
            {
              "internalType": "address",
              "name": "recoverer",
              "type": "address"
            },
            {
              "internalType": "uint256",
              "name": "value",
              "type": "uint256"
            },
            {
              "internalType": "uint256",
              "name": "nonce",
              "type": "uint256"
            },
            {
              "internalType": "uint256",
              "name": "tokenAmount",
              "type": "uint256"
            },
            {
              "internalType": "uint256",
              "name": "tokenGas",
              "type": "uint256"
            },
            {
              "internalType": "uint256",
              "name": "validUntilTime",
              "type": "uint256"
            },
            {
              "internalType": "uint256",
              "name": "index",
              "type": "uint256"
            },
            {
              "internalType": "bytes",
              "name": "data",
              "type": "bytes"
            }
          ],
          "internalType": "struct IForwarder.DeployRequest",
          "name": "req",
          "type": "tuple"
        },
        {
          "internalType": "bytes32",
          "name": "suffixData",
          "type": "bytes32"
        },
        {
          "internalType": "address",
          "name": "feesReceiver",
          "type": "address"
        },
        {
          "internalType": "bytes",
          "name": "sig",
          "type": "bytes"
        }
      ],
      "name": "relayedUserSmartWalletCreation",
      "outputs": [],
      "stateMutability": "nonpayable",
      "type": "function"
    },
    {
      "inputs": [],
      "name": "runtimeCodeHash",
      "outputs": [
        {
          "internalType": "bytes32",
          "name": "",
          "type": "bytes32"
        }
      ],
      "stateMutability": "view",
      "type": "function"
    }
  ],
  "bytecode": "0x60c06040527f8b73c3c69bb8fe3d512ecc4cf759cc79239f7b179b0ffacaa9a75d522b39400f7fd41b7f69f4d7734774d21b5548d74704ad02f9f1545db63927a1d58479c576c87fad7c5bef027816a800da1736444fb58a807ef4c9603b7848673f7e3a68eb14a561006f6100df565b30604051602001610084959493929190610111565b60408051601f19818403018152919052805160209091012060a0523480156100ab57600080fd5b506040516116243803806116248339810160408190526100ca916100e3565b60601b6001600160601b03191660805261013d565b4690565b6000602082840312156100f4578081fd5b81516001600160a01b038116811461010a578182fd5b9392505050565b9485526020850193909352604084019190915260608301526001600160a01b0316608082015260a00190565b60805160601c60a0516114b26101726000398061065252806106bc5250806102ff528061051852806105ea52506114b26000f3fe608060405234801561001057600080fd5b50600436106100a35760003560e01c8063a619486e11610076578063c63ae75b1161005b578063c63ae75b1461011e578063f5e87b3914610131578063f698da2514610146576100a3565b8063a619486e14610101578063b3104ef614610116576100a3565b806312c3754c146100a85780632046776e146100bd57806370ae92d2146100db57806375caeafa146100ee575b600080fd5b6100bb6100b6366004610c6a565b61014e565b005b6100c56102ec565b6040516100d291906111af565b60405180910390f35b6100c56100e9366004610b4d565b61036c565b6100bb6100fc366004610bbf565b610387565b610109610516565b6040516100d2919061106c565b6100c561053a565b61010961012c366004610b68565b61055e565b6101396105d7565b6040516100d291906111d6565b6100c5610650565b84516001600160a01b031633146101805760405162461bcd60e51b81526004016101779061128e565b60405180910390fd5b6101c1858584848080601f01602080910402602001604051908101604052809392919081815260200183838082843760009201919091525061067492505050565b61012085015115806101d7575042856101200151115b6101f35760405162461bcd60e51b81526004016101779061133e565b6020808601516001600160a01b031660009081529081905260409020805460010190556102e46102216105d7565b866020015187608001518860400151896101600151805190602001208a6101400151604051602001610257959493929190610e44565b60408051601f198184030181528282528051602091820120908a0151918a015160608b015160e08c01516101008d01516101608e015194966102a096958d93929160240161115a565b60408051601f198184030181529190526020810180517bffffffffffffffffffffffffffffffffffffffffffffffffffffffff1663736ee38d60e11b17905261074a565b505050505050565b60006a363d3d373d3d3d3d363d7360a81b7f00000000000000000000000000000000000000000000000000000000000000007f5af43d923d90803e602b57fd5bf300000000000000000000000000000000000060405160200161035193929190610e87565b60405160208183030381529060405280519060200120905090565b6001600160a01b031660009081526020819052604090205490565b6000308989898989896040516020016103a69796959493929190610deb565b6040516020818303038152906040528051906020012090506000816040516020016103d19190610f88565b60405160208183030381529060405280519060200120905061043461042e85858080601f016020809104026020016040519081016040528093929190818152602001838380828437600092019190915250869392505061082c9050565b8b610879565b6104505760405162461bcd60e51b8152600401610177906112c5565b60608a896000806000808c8c604051602401610473989796959493929190611080565b60408051601f198184030181529190526020810180517bffffffffffffffffffffffffffffffffffffffffffffffffffffffff1663736ee38d60e11b17905290506105086104bf6105d7565b8c8c8c8b8b6040516104d2929190610f5c565b6040519081900381206104ec949392918f90602001610e44565b604051602081830303815290604052805190602001208361074a565b505050505050505050505050565b7f000000000000000000000000000000000000000000000000000000000000000081565b7fad7c5bef027816a800da1736444fb58a807ef4c9603b7848673f7e3a68eb14a581565b600060ff60f81b30878787878760405160200161057f959493929190610e44565b6040516020818303038152906040528051906020012061059d6105d7565b80516020918201206040516105b59594939201610ede565b60408051601f1981840301815291905280516020909101209695505050505050565b60606a363d3d373d3d3d3d363d7360a81b7f00000000000000000000000000000000000000000000000000000000000000007f5af43d923d90803e602b57fd5bf300000000000000000000000000000000000060405160200161063c93929190610fef565b604051602081830303815290604052905090565b7f000000000000000000000000000000000000000000000000000000000000000081565b60c08301516020808501516001600160a01b03166000908152908190526040902054146106b35760405162461bcd60e51b815260040161017790611257565b61072961071f827f00000000000000000000000000000000000000000000000000000000000000006106e587876108d4565b80516020918201206040516106fb939201610fb9565b6040516020818303038152906040528051906020012061082c90919063ffffffff16565b8460200151610879565b6107455760405162461bcd60e51b8152600401610177906113b7565b505050565b6000828451602086016000f59050803b61076357600080fd5b6000816001600160a01b03168360405161077d9190610f6c565b6000604051808303816000865af19150503d80600081146107ba576040519150601f19603f3d011682016040523d82523d6000602084013e6107bf565b606091505b50509050806107e05760405162461bcd60e51b8152600401610177906113ee565b816001600160a01b03167fb03c53b28e78a88e31607a27e1fa48234dce28d5d9d9ec7b295aeb02e674a1e18560001c60405161081c91906111af565b60405180910390a2509392505050565b6000815160411461084f5760405162461bcd60e51b815260040161017790611220565b60208201516040830151606084015160001a61086d86828585610990565b93505050505b92915050565b6000816001600160a01b0316836001600160a01b03161480156108b9575073dcc703c0e500b653ca82273b7bfad8045d85a4706001600160a01b03841614155b80156108cd57506001600160a01b03831615155b9392505050565b60607fcfc8dd5219e39f43cc81cdcbf3b09a47b13a20a7e09d743bc2266fb814ee2f01836000015184602001518560400151866060015187608001518860a001518960c001518a60e001518b61010001518c61012001518d61014001518e6101600151805190602001206040516020016109599c9b9a999897969594939291906110ef565b60408051601f198184030181529082905261097992918590602001610f2f565b604051602081830303815290604052905092915050565b60007f7fffffffffffffffffffffffffffffff5d576e7357a4501ddfe92f46681b20a08211156109d25760405162461bcd60e51b8152600401610177906112fc565b8360ff16601b14806109e757508360ff16601c145b610a035760405162461bcd60e51b815260040161017790611375565b600060018686868660405160008152602001604052604051610a2894939291906111b8565b6020604051602081039080840390855afa158015610a4a573d6000803e3d6000fd5b5050604051601f1901519150506001600160a01b038116610a7d5760405162461bcd60e51b8152600401610177906111e9565b95945050505050565b80356001600160a01b038116811461087357600080fd5b60008083601f840112610aae578182fd5b50813567ffffffffffffffff811115610ac5578182fd5b602083019150836020828501011115610add57600080fd5b9250929050565b600082601f830112610af4578081fd5b813567ffffffffffffffff811115610b0a578182fd5b610b1d601f8201601f1916602001611425565b9150808252836020828501011115610b3457600080fd5b8060208401602084013760009082016020015292915050565b600060208284031215610b5e578081fd5b6108cd8383610a86565b600080600080600060a08688031215610b7f578081fd5b610b898787610a86565b9450610b988760208801610a86565b9350610ba78760408801610a86565b94979396509394606081013594506080013592915050565b60008060008060008060008060c0898b031215610bda578283fd5b610be48a8a610a86565b9750610bf38a60208b01610a86565b9650610c028a60408b01610a86565b955060608901359450608089013567ffffffffffffffff80821115610c25578485fd5b610c318c838d01610a9d565b909650945060a08b0135915080821115610c49578384fd5b50610c568b828c01610a9d565b999c989b5096995094979396929594505050565b600080600080600060808688031215610c81578081fd5b853567ffffffffffffffff80821115610c98578283fd5b818801915061018080838b031215610cae578384fd5b610cb781611425565b9050610cc38a84610a86565b8152610cd28a60208501610a86565b6020820152610ce48a60408501610a86565b6040820152610cf68a60608501610a86565b6060820152610d088a60808501610a86565b608082015260a083013560a082015260c083013560c082015260e083013560e08201526101008084013581830152506101208084013581830152506101408084013581830152506101608084013583811115610d62578586fd5b610d6e8c828701610ae4565b8284015250508097505060208801359550610d8c8960408a01610a86565b94506060880135915080821115610da1578283fd5b50610dae88828901610a9d565b969995985093965092949392505050565b60008151808452610dd781602086016020860161144c565b601f01601f19169290920160200192915050565b60006bffffffffffffffffffffffff19808a60601b168352808960601b166014840152808860601b166028840152808760601b16603c840152508460508301528284607084013791016070019081529695505050505050565b6bffffffffffffffffffffffff19606096871b8116825294861b851660148201529290941b9092166028820152603c810191909152605c810191909152607c0190565b74ffffffffffffffffffffffffffffffffffffffffff1993909316835260609190911b6bffffffffffffffffffffffff1916600b83015271ffffffffffffffffffffffffffffffffffff1916601f820152602d0190565b7fff0000000000000000000000000000000000000000000000000000000000000094909416845260609290921b6bffffffffffffffffffffffff191660018401526015830152603582015260550190565b60008482528351610f4781602085016020880161144c565b60209201918201929092526040019392505050565b6000828483379101908152919050565b60008251610f7e81846020870161144c565b9190910192915050565b7f19457468657265756d205369676e6564204d6573736167653a0a3332000000008152601c810191909152603c0190565b7f190100000000000000000000000000000000000000000000000000000000000081526002810192909252602282015260420190565b7f602d3d8160093d39f30000000000000000000000000000000000000000000000815274ffffffffffffffffffffffffffffffffffffffffff1993909316600984015260609190911b6bffffffffffffffffffffffff1916601483015271ffffffffffffffffffffffffffffffffffff1916602882015260360190565b6001600160a01b0391909116815260200190565b60006001600160a01b03808b168352808a166020840152808916604084015280881660608401525060ff8616608083015260ff851660a083015260e060c08301528260e0830152610100838582850137828401810191909152601f909201601f19160101979650505050505050565b6001600160a01b039c8d1681529a8c1660208c0152988b1660408b0152968a1660608a015294909816608088015260a087019290925260c086015260e08501526101008401949094526101208301939093526101408201929092526101608101919091526101800190565b60006001600160a01b03808a168352808916602084015280881660408401528087166060840152508460808301528360a083015260e060c08301526111a260e0830184610dbf565b9998505050505050505050565b90815260200190565b93845260ff9290921660208401526040830152606082015260800190565b6000602082526108cd6020830184610dbf565b60208082526018908201527f45434453413a20696e76616c6964207369676e61747572650000000000000000604082015260600190565b6020808252601f908201527f45434453413a20696e76616c6964207369676e6174757265206c656e67746800604082015260600190565b6020808252600e908201527f6e6f6e6365206d69736d61746368000000000000000000000000000000000000604082015260600190565b6020808252600e908201527f496e76616c69642063616c6c6572000000000000000000000000000000000000604082015260600190565b60208082526011908201527f496e76616c6964207369676e6174757265000000000000000000000000000000604082015260600190565b60208082526022908201527f45434453413a20696e76616c6964207369676e6174757265202773272076616c604082015261756560f01b606082015260800190565b60208082526013908201527f53573a2072657175657374206578706972656400000000000000000000000000604082015260600190565b60208082526022908201527f45434453413a20696e76616c6964207369676e6174757265202776272076616c604082015261756560f01b606082015260800190565b60208082526012908201527f5369676e6174757265206d69736d617463680000000000000000000000000000604082015260600190565b60208082526017908201527f556e61626c6520746f20696e697469616c697a65205357000000000000000000604082015260600190565b60405181810167ffffffffffffffff8111828210171561144457600080fd5b604052919050565b60005b8381101561146757818101518382015260200161144f565b83811115611476576000848401525b5050505056fea264697066735822122051070b8db9d7a2601b98c7572d7deb7d01d3b837d11d26d0d073e9502cf5268964736f6c634300060c0033",
  "linkReferences": {},
  "deployedLinkReferences": {}
}