{
  "_format": "hh-sol-artifact-1",
  "contractName": "NativeHolderSmartWallet",
  "sourceName": "contracts/smartwallet/NativeHolderSmartWallet.sol",
  "abi": [
    {
      "inputs": [],
      "name": "DATA_VERSION_HASH",
      "outputs": [
        {
          "internalType": "bytes32",
          "name": "",
          "type": "bytes32"
        }
      ],
      "stateMutability": "view",
      "type": "function"
    },
    {
      "inputs": [
        {
          "internalType": "address",
          "name": "to",
          "type": "address"
        },
        {
          "internalType": "bytes",
          "name": "data",
          "type": "bytes"
        }
      ],
      "name": "directExecute",
      "outputs": [
        {
          "internalType": "bool",
          "name": "success",
          "type": "bool"
        },
        {
          "internalType": "bytes",
          "name": "ret",
          "type": "bytes"
        }
      ],
      "stateMutability": "payable",
      "type": "function"
    },
    {
      "inputs": [
        {
          "internalType": "address",
          "name": "to",
          "type": "address"
        },
        {
          "internalType": "uint256",
          "name": "value",
          "type": "uint256"
        },
        {
          "internalType": "bytes",
          "name": "data",
          "type": "bytes"
        }
      ],
      "name": "directExecute",
      "outputs": [
        {
          "internalType": "bool",
          "name": "success",
          "type": "bool"
        },
        {
          "internalType": "bytes",
          "name": "ret",
          "type": "bytes"
        }
      ],
      "stateMutability": "payable",
      "type": "function"
    },
    {
      "inputs": [],
      "name": "domainSeparator",
      "outputs": [
        {
          "internalType": "bytes32",
          "name": "",
          "type": "bytes32"
        }
      ],
      "stateMutability": "view",
      "type": "function"
    },
    {
      "inputs": [
        {
          "internalType": "bytes32",
          "name": "suffixData",
          "type": "bytes32"
        },
        {
          "components": [
            {
              "internalType": "address",
              "name": "relayHub",
              "type": "address"
            },
            {
              "internalType": "address",
              "name": "from",
              "type": "address"
            },
            {
              "internalType": "address",
              "name": "to",
              "type": "address"
            },
            {
              "internalType": "address",
              "name": "tokenContract",
              "type": "address"
            },
            {
              "internalType": "uint256",
              "name": "value",
              "type": "uint256"
            },
            {
              "internalType": "uint256",
              "name": "gas",
              "type": "uint256"
            },
            {
              "internalType": "uint256",
              "name": "nonce",
              "type": "uint256"
            },
            {
              "internalType": "uint256",
              "name": "tokenAmount",
              "type": "uint256"
            },
            {
              "internalType": "uint256",
              "name": "tokenGas",
              "type": "uint256"
            },
            {
              "internalType": "uint256",
              "name": "validUntilTime",
              "type": "uint256"
            },
            {
              "internalType": "bytes",
              "name": "data",
              "type": "bytes"
            }
          ],
          "internalType": "struct IForwarder.ForwardRequest",
          "name": "req",
          "type": "tuple"
        },
        {
          "internalType": "address",
          "name": "feesReceiver",
          "type": "address"
        },
        {
          "internalType": "bytes",
          "name": "sig",
          "type": "bytes"
        }
      ],
      "name": "execute",
      "outputs": [
        {
          "internalType": "bool",
          "name": "success",
          "type": "bool"
        },
        {
          "internalType": "bytes",
          "name": "ret",
          "type": "bytes"
        }
      ],
      "stateMutability": "payable",
      "type": "function"
    },
    {
      "inputs": [],
      "name": "getOwner",
      "outputs": [
        {
          "internalType": "bytes32",
          "name": "owner",
          "type": "bytes32"
        }
      ],
      "stateMutability": "view",
      "type": "function"
    },
    {
      "inputs": [
        {
          "internalType": "address",
          "name": "owner",
          "type": "address"
        },
        {
          "internalType": "address",
          "name": "tokenAddr",
          "type": "address"
        },
        {
          "internalType": "address",
          "name": "tokenRecipient",
          "type": "address"
        },
        {
          "internalType": "uint256",
          "name": "tokenAmount",
          "type": "uint256"
        },
        {
          "internalType": "uint256",
          "name": "tokenGas",
          "type": "uint256"
        }
      ],
      "name": "initialize",
      "outputs": [],
      "stateMutability": "nonpayable",
      "type": "function"
    },
    {
      "inputs": [],
      "name": "isInitialized",
      "outputs": [
        {
          "internalType": "bool",
          "name": "",
          "type": "bool"
        }
      ],
      "stateMutability": "view",
      "type": "function"
    },
    {
      "inputs": [],
      "name": "nonce",
      "outputs": [
        {
          "internalType": "uint256",
          "name": "",
          "type": "uint256"
        }
      ],
      "stateMutability": "view",
      "type": "function"
    },
    {
      "inputs": [
        {
          "internalType": "address",
          "name": "owner",
          "type": "address"
        },
        {
          "internalType": "address",
          "name": "factory",
          "type": "address"
        },
        {
          "internalType": "address",
          "name": "swTemplate",
          "type": "address"
        },
        {
          "internalType": "address",
          "name": "destinationContract",
          "type": "address"
        },
        {
          "internalType": "uint256",
          "name": "index",
          "type": "uint256"
        },
        {
          "internalType": "bytes",
          "name": "data",
          "type": "bytes"
        }
      ],
      "name": "recover",
      "outputs": [
        {
          "internalType": "bool",
          "name": "success",
          "type": "bool"
        },
        {
          "internalType": "bytes",
          "name": "ret",
          "type": "bytes"
        }
      ],
      "stateMutability": "payable",
      "type": "function"
    },
    {
      "inputs": [
        {
          "internalType": "bytes32",
          "name": "suffixData",
          "type": "bytes32"
        },
        {
          "components": [
            {
              "internalType": "address",
              "name": "relayHub",
              "type": "address"
            },
            {
              "internalType": "address",
              "name": "from",
              "type": "address"
            },
            {
              "internalType": "address",
              "name": "to",
              "type": "address"
            },
            {
              "internalType": "address",
              "name": "tokenContract",
              "type": "address"
            },
            {
              "internalType": "uint256",
              "name": "value",
              "type": "uint256"
            },
            {
              "internalType": "uint256",
              "name": "gas",
              "type": "uint256"
            },
            {
              "internalType": "uint256",
              "name": "nonce",
              "type": "uint256"
            },
            {
              "internalType": "uint256",
              "name": "tokenAmount",
              "type": "uint256"
            },
            {
              "internalType": "uint256",
              "name": "tokenGas",
              "type": "uint256"
            },
            {
              "internalType": "uint256",
              "name": "validUntilTime",
              "type": "uint256"
            },
            {
              "internalType": "bytes",
              "name": "data",
              "type": "bytes"
            }
          ],
          "internalType": "struct IForwarder.ForwardRequest",
          "name": "req",
          "type": "tuple"
        },
        {
          "internalType": "bytes",
          "name": "sig",
          "type": "bytes"
        }
      ],
      "name": "verify",
      "outputs": [],
      "stateMutability": "view",
      "type": "function"
    },
    {
      "stateMutability": "payable",
      "type": "receive"
    }
  ],
  "bytecode": "0x608060405234801561001057600080fd5b5061001a3361001f565b610088565b6000816040516020016100329190610070565b60408051601f1981840301815291905280516020909101207fa7b53796fd2d99cb1f5ae019b54f9e024446c3d12b483f733ccc62ed04eb126a555050565b60609190911b6001600160601b031916815260140190565b611825806100976000396000f3fe6080604052600436106100c05760003560e01c806375a6dad711610074578063affed0e01161004e578063affed0e0146101b5578063b3104ef6146101ca578063f698da25146101df576100c7565b806375a6dad714610160578063893d20e814610173578063a6b63eb814610195576100c7565b8063392e53cd116100a5578063392e53cd146101185780633b0848be1461013a5780633b54ccc31461014d576100c7565b806306105d29146100cc578063244f53b5146100ee576100c7565b366100c757005b600080fd5b3480156100d857600080fd5b506100ec6100e7366004611164565b6101f4565b005b6101016100fc366004611014565b61023b565b60405161010f9291906113df565b60405180910390f35b34801561012457600080fd5b5061012d610333565b60405161010f91906113d4565b610101610148366004611067565b610353565b61010161015b366004610f28565b61040e565b61010161016e3660046110e1565b610575565b34801561017f57600080fd5b506101886107d3565b60405161010f919061141b565b3480156101a157600080fd5b506100ec6101b0366004610fba565b6107f8565b3480156101c157600080fd5b50610188610935565b3480156101d657600080fd5b5061018861093b565b3480156101eb57600080fd5b5061018861095f565b610235848484848080601f01602080910402602001604051908101604052809392919081815260200183838082843760009201919091525061096592505050565b50505050565b600060603360405160200161025091906111c5565b6040516020818303038152906040528051906020012061026e6107d3565b146102945760405162461bcd60e51b815260040161028b9061174f565b60405180910390fd5b846001600160a01b03163485856040516102af92919061128e565b60006040518083038185875af1925050503d80600081146102ec576040519150601f19603f3d011682016040523d82523d6000602084013e6102f1565b606091505b509092509050471561032b5760405133904780156108fc02916000818181858888f19350505050158015610329573d6000803e3d6000fd5b505b935093915050565b60008061033e6107d3565b141561034c57506000610350565b5060015b90565b600060603360405160200161036891906111c5565b604051602081830303815290604052805190602001206103866107d3565b146103a35760405162461bcd60e51b815260040161028b9061174f565b856001600160a01b03168585856040516103be92919061128e565b60006040518083038185875af1925050503d80600081146103fb576040519150601f19603f3d011682016040523d82523d6000602084013e610400565b606091505b509097909650945050505050565b60006060600060ff60f81b898b338960405160200161042f939291906111e2565b604051602081830303815290604052805190602001208a60405160200161045691906112ba565b6040516020818303038152906040528051906020012060405160200161047f9493929190611210565b60408051601f19818403018152919052805160209091012090506001600160a01b03811630146104c15760405162461bcd60e51b815260040161028b906114a5565b6001600160a01b0387161561053457866001600160a01b03163486866040516104eb92919061128e565b60006040518083038185875af1925050503d8060008114610528576040519150601f19603f3d011682016040523d82523d6000602084013e61052d565b606091505b5090935091505b47156105685760405133904780156108fc02916000818181858888f19350505050158015610566573d6000803e3d6000fd5b505b5097509795505050505050565b6000606085600001516001600160a01b0316336001600160a01b0316146105ae5760405162461bcd60e51b815260040161028b9061154a565b6105ef878786868080601f01602080910402602001604051908101604052809392919081815260200183838082843760009201919091525061096592505050565b6101208601511580610605575042866101200151115b6106215760405162461bcd60e51b815260040161028b906115c3565b60008054600101905560e0860151156107335785606001516001600160a01b0316866101000151868860e0015160405160240161065f9291906113bb565b60408051601f198184030181529181526020820180517bffffffffffffffffffffffffffffffffffffffffffffffffffffffff1663a9059cbb60e01b179052516106a9919061129e565b60006040518083038160008787f1925050503d80600081146106e7576040519150601f19603f3d011682016040523d82523d6000602084013e6106ec565b606091505b50909250905081801561071757508051158061071757508080602001905181019061071791906110c1565b6107335760405162461bcd60e51b815260040161028b9061163c565b8560a001515a116107565760405162461bcd60e51b815260040161028b906116e1565b85604001516001600160a01b03168660a001518760800151886101400151604051610781919061129e565b600060405180830381858888f193505050503d80600081146107bf576040519150601f19603f3d011682016040523d82523d6000602084013e6107c4565b606091505b50909890975095505050505050565b7fa7b53796fd2d99cb1f5ae019b54f9e024446c3d12b483f733ccc62ed04eb126a5490565b60006108026107d3565b1461081f5760405162461bcd60e51b815260040161028b90611718565b61082885610a51565b81156109265760006060856001600160a01b03168386866040516024016108509291906113bb565b60408051601f198184030181529181526020820180517bffffffffffffffffffffffffffffffffffffffffffffffffffffffff1663a9059cbb60e01b1790525161089a919061129e565b60006040518083038160008787f1925050503d80600081146108d8576040519150601f19603f3d011682016040523d82523d6000602084013e6108dd565b606091505b509150915081801561090757508051158061090757508080602001905181019061090791906110c1565b6109235760405162461bcd60e51b815260040161028b906116aa565b50505b61092e610aa2565b5050505050565b60005481565b7fad7c5bef027816a800da1736444fb58a807ef4c9603b7848673f7e3a68eb14a581565b60015481565b60208083015160405161097892016111c5565b604051602081830303815290604052805190602001206109966107d3565b146109b35760405162461bcd60e51b815260040161028b9061174f565b8160c00151600054146109d85760405162461bcd60e51b815260040161028b90611513565b610a30610a26826001546109ec8787610b3f565b8051602091820120604051610a02939201611323565b60405160208183030381529060405280519060200120610bec90919063ffffffff16565b8360200151610c37565b610a4c5760405162461bcd60e51b815260040161028b90611673565b505050565b600081604051602001610a6491906111c5565b60408051601f1981840301815291905280516020909101207fa7b53796fd2d99cb1f5ae019b54f9e024446c3d12b483f733ccc62ed04eb126a555050565b7f8b73c3c69bb8fe3d512ecc4cf759cc79239f7b179b0ffacaa9a75d522b39400f7fd41b7f69f4d7734774d21b5548d74704ad02f9f1545db63927a1d58479c576c87fad7c5bef027816a800da1736444fb58a807ef4c9603b7848673f7e3a68eb14a5610b0d610c92565b30604051602001610b22959493929190611424565b60408051601f198184030181529190528051602090910120600155565b8051602080830151604080850151606086810151608088015160a089015160c08a015160e08b01516101008c01516101208d01516101408e01518051908d01209951979c7fdbc4f1d96529fadae86244f9c7b2dc871009d2ad633f32fb7833efcc2c0d53709c610bb49c919b919a9901611359565b60408051601f1981840301815290829052610bd492918690602001611261565b60405160208183030381529060405290505b92915050565b60008151604114610c0f5760405162461bcd60e51b815260040161028b906114dc565b60208201516040830151606084015160001a610c2d86828585610c96565b9695505050505050565b6000816001600160a01b0316836001600160a01b0316148015610c77575073dcc703c0e500b653ca82273b7bfad8045d85a4706001600160a01b03841614155b8015610c8b57506001600160a01b03831615155b9392505050565b4690565b60007f7fffffffffffffffffffffffffffffff5d576e7357a4501ddfe92f46681b20a0821115610cd85760405162461bcd60e51b815260040161028b90611581565b8360ff16601b1480610ced57508360ff16601c145b610d095760405162461bcd60e51b815260040161028b906115fa565b600060018686868660405160008152602001604052604051610d2e9493929190611450565b6020604051602081039080840390855afa158015610d50573d6000803e3d6000fd5b5050604051601f1901519150506001600160a01b038116610d835760405162461bcd60e51b815260040161028b9061146e565b95945050505050565b80356001600160a01b0381168114610be657600080fd5b60008083601f840112610db4578182fd5b50813567ffffffffffffffff811115610dcb578182fd5b602083019150836020828501011115610de357600080fd5b9250929050565b600082601f830112610dfa578081fd5b813567ffffffffffffffff811115610e10578182fd5b610e23601f8201601f1916602001611784565b9150808252836020828501011115610e3a57600080fd5b8060208401602084013760009082016020015292915050565b6000610160808385031215610e66578182fd5b610e6f81611784565b915050610e7c8383610d8c565b8152610e8b8360208401610d8c565b6020820152610e9d8360408401610d8c565b6040820152610eaf8360608401610d8c565b60608201526080820135608082015260a082013560a082015260c082013560c082015260e082013560e08201526101008083013581830152506101208083013581830152506101408083013567ffffffffffffffff811115610f1057600080fd5b610f1c85828601610dea565b82840152505092915050565b600080600080600080600060c0888a031215610f42578283fd5b610f4c8989610d8c565b9650610f5b8960208a01610d8c565b9550610f6a8960408a01610d8c565b9450610f798960608a01610d8c565b93506080880135925060a088013567ffffffffffffffff811115610f9b578283fd5b610fa78a828b01610da3565b989b979a50959850939692959293505050565b600080600080600060a08688031215610fd1578081fd5b8535610fdc816117d7565b94506020860135610fec816117d7565b93506040860135610ffc816117d7565b94979396509394606081013594506080013592915050565b600080600060408486031215611028578283fd5b8335611033816117d7565b9250602084013567ffffffffffffffff81111561104e578283fd5b61105a86828701610da3565b9497909650939450505050565b6000806000806060858703121561107c578384fd5b8435611087816117d7565b935060208501359250604085013567ffffffffffffffff8111156110a9578283fd5b6110b587828801610da3565b95989497509550505050565b6000602082840312156110d2578081fd5b81518015158114610c8b578182fd5b6000806000806000608086880312156110f8578081fd5b85359450602086013567ffffffffffffffff80821115611116578283fd5b61112289838a01610e53565b95506111318960408a01610d8c565b94506060880135915080821115611146578283fd5b5061115388828901610da3565b969995985093965092949392505050565b60008060008060608587031215611179578384fd5b84359350602085013567ffffffffffffffff80821115611197578485fd5b6111a388838901610e53565b945060408701359150808211156111b8578384fd5b506110b587828801610da3565b60609190911b6bffffffffffffffffffffffff1916815260140190565b6bffffffffffffffffffffffff19606094851b811682529290931b9091166014830152602882015260480190565b7fff0000000000000000000000000000000000000000000000000000000000000094909416845260609290921b6bffffffffffffffffffffffff191660018401526015830152603582015260550190565b600084825283516112798160208501602088016117ab565b60209201918201929092526040019392505050565b6000828483379101908152919050565b600082516112b08184602087016117ab565b9190910192915050565b7f602d3d8160093d39f3363d3d373d3d3d3d363d73000000000000000000000000815260609190911b6bffffffffffffffffffffffff191660148201527f5af43d923d90803e602b57fd5bf3000000000000000000000000000000000000602882015260360190565b7f190100000000000000000000000000000000000000000000000000000000000081526002810192909252602282015260420190565b6001600160a01b039b8c168152998b1660208b0152978a1660408a0152959098166060880152608087019390935260a086019190915260c085015260e08401526101008301939093526101208201929092526101408101919091526101600190565b6001600160a01b03929092168252602082015260400190565b901515815260200190565b600083151582526040602083015282518060408401526114068160608501602087016117ab565b601f01601f1916919091016060019392505050565b90815260200190565b9485526020850193909352604084019190915260608301526001600160a01b0316608082015260a00190565b93845260ff9290921660208401526040830152606082015260800190565b60208082526018908201527f45434453413a20696e76616c6964207369676e61747572650000000000000000604082015260600190565b60208082526011908201527f496e76616c6964207265636f7665726572000000000000000000000000000000604082015260600190565b6020808252601f908201527f45434453413a20696e76616c6964207369676e6174757265206c656e67746800604082015260600190565b6020808252600e908201527f6e6f6e6365206d69736d61746368000000000000000000000000000000000000604082015260600190565b6020808252600e908201527f496e76616c69642063616c6c6572000000000000000000000000000000000000604082015260600190565b60208082526022908201527f45434453413a20696e76616c6964207369676e6174757265202773272076616c604082015261756560f01b606082015260800190565b60208082526013908201527f53573a2072657175657374206578706972656400000000000000000000000000604082015260600190565b60208082526022908201527f45434453413a20696e76616c6964207369676e6174757265202776272076616c604082015261756560f01b606082015260800190565b60208082526017908201527f556e61626c6520746f2070617920666f722072656c6179000000000000000000604082015260600190565b60208082526012908201527f5369676e6174757265206d69736d617463680000000000000000000000000000604082015260600190565b6020808252601c908201527f556e61626c6520746f2070617920666f72206465706c6f796d656e7400000000604082015260600190565b60208082526013908201527f4e6f7420656e6f75676820676173206c65667400000000000000000000000000604082015260600190565b60208082526013908201527f416c726561647920696e697469616c697a656400000000000000000000000000604082015260600190565b6020808252818101527f4e6f7420746865206f776e6572206f662074686520536d61727457616c6c6574604082015260600190565b60405181810167ffffffffffffffff811182821017156117a357600080fd5b604052919050565b60005b838110156117c65781810151838201526020016117ae565b838111156102355750506000910152565b6001600160a01b03811681146117ec57600080fd5b5056fea26469706673582212201658f8c469a3352aaf19028a739d3c7a822c52739ee4c7aa2da673de080fae8e64736f6c634300060c0033",
  "linkReferences": {},
  "deployedLinkReferences": {}
}