{
  "_format": "hh-sol-artifact-1",
  "contractName": "RelayHub",
  "sourceName": "contracts/RelayHub.sol",
  "abi": [
    {
      "inputs": [
        {
          "internalType": "address",
          "name": "_penalizer",
          "type": "address"
        },
        {
          "internalType": "uint256",
          "name": "_maxWorkerCount",
          "type": "uint256"
        },
        {
          "internalType": "uint256",
          "name": "_minimumEntryDepositValue",
          "type": "uint256"
        },
        {
          "internalType": "uint256",
          "name": "_minimumUnstakeDelay",
          "type": "uint256"
        },
        {
          "internalType": "uint256",
          "name": "_minimumStake",
          "type": "uint256"
        }
      ],
      "stateMutability": "nonpayable",
      "type": "constructor"
    },
    {
      "anonymous": false,
      "inputs": [
        {
          "indexed": true,
          "internalType": "address",
          "name": "relayWorker",
          "type": "address"
        },
        {
          "indexed": false,
          "internalType": "address",
          "name": "sender",
          "type": "address"
        },
        {
          "indexed": false,
          "internalType": "uint256",
          "name": "reward",
          "type": "uint256"
        }
      ],
      "name": "Penalized",
      "type": "event"
    },
    {
      "anonymous": false,
      "inputs": [
        {
          "indexed": true,
          "internalType": "address",
          "name": "relayManager",
          "type": "address"
        },
        {
          "indexed": false,
          "internalType": "string",
          "name": "relayUrl",
          "type": "string"
        }
      ],
      "name": "RelayServerRegistered",
      "type": "event"
    },
    {
      "anonymous": false,
      "inputs": [
        {
          "indexed": true,
          "internalType": "address",
          "name": "relayManager",
          "type": "address"
        },
        {
          "indexed": false,
          "internalType": "address[]",
          "name": "newRelayWorkers",
          "type": "address[]"
        },
        {
          "indexed": false,
          "internalType": "uint256",
          "name": "workersCount",
          "type": "uint256"
        }
      ],
      "name": "RelayWorkersAdded",
      "type": "event"
    },
    {
      "anonymous": false,
      "inputs": [
        {
          "indexed": true,
          "internalType": "address",
          "name": "relayManager",
          "type": "address"
        },
        {
          "indexed": false,
          "internalType": "address[]",
          "name": "relayWorkers",
          "type": "address[]"
        },
        {
          "indexed": false,
          "internalType": "uint256",
          "name": "workersCount",
          "type": "uint256"
        }
      ],
      "name": "RelayWorkersDisabled",
      "type": "event"
    },
    {
      "anonymous": false,
      "inputs": [
        {
          "indexed": true,
          "internalType": "address",
          "name": "relayManager",
          "type": "address"
        },
        {
          "indexed": true,
          "internalType": "address",
          "name": "owner",
          "type": "address"
        },
        {
          "indexed": false,
          "internalType": "uint256",
          "name": "stake",
          "type": "uint256"
        },
        {
          "indexed": false,
          "internalType": "uint256",
          "name": "unstakeDelay",
          "type": "uint256"
        }
      ],
      "name": "StakeAdded",
      "type": "event"
    },
    {
      "anonymous": false,
      "inputs": [
        {
          "indexed": true,
          "internalType": "address",
          "name": "relayManager",
          "type": "address"
        },
        {
          "indexed": true,
          "internalType": "address",
          "name": "beneficiary",
          "type": "address"
        },
        {
          "indexed": false,
          "internalType": "uint256",
          "name": "reward",
          "type": "uint256"
        }
      ],
      "name": "StakePenalized",
      "type": "event"
    },
    {
      "anonymous": false,
      "inputs": [
        {
          "indexed": true,
          "internalType": "address",
          "name": "relayManager",
          "type": "address"
        },
        {
          "indexed": true,
          "internalType": "address",
          "name": "owner",
          "type": "address"
        },
        {
          "indexed": false,
          "internalType": "uint256",
          "name": "withdrawBlock",
          "type": "uint256"
        }
      ],
      "name": "StakeUnlocked",
      "type": "event"
    },
    {
      "anonymous": false,
      "inputs": [
        {
          "indexed": true,
          "internalType": "address",
          "name": "relayManager",
          "type": "address"
        },
        {
          "indexed": true,
          "internalType": "address",
          "name": "owner",
          "type": "address"
        },
        {
          "indexed": false,
          "internalType": "uint256",
          "name": "amount",
          "type": "uint256"
        }
      ],
      "name": "StakeWithdrawn",
      "type": "event"
    },
    {
      "anonymous": false,
      "inputs": [
        {
          "indexed": true,
          "internalType": "address",
          "name": "relayManager",
          "type": "address"
        },
        {
          "indexed": false,
          "internalType": "address",
          "name": "relayWorker",
          "type": "address"
        },
        {
          "indexed": false,
          "internalType": "bytes32",
          "name": "relayRequestSigHash",
          "type": "bytes32"
        },
        {
          "indexed": false,
          "internalType": "bytes",
          "name": "relayedCallReturnValue",
          "type": "bytes"
        }
      ],
      "name": "TransactionRelayed",
      "type": "event"
    },
    {
      "anonymous": false,
      "inputs": [
        {
          "indexed": true,
          "internalType": "address",
          "name": "relayManager",
          "type": "address"
        },
        {
          "indexed": false,
          "internalType": "address",
          "name": "relayWorker",
          "type": "address"
        },
        {
          "indexed": false,
          "internalType": "bytes32",
          "name": "relayRequestSigHash",
          "type": "bytes32"
        },
        {
          "indexed": false,
          "internalType": "bytes",
          "name": "reason",
          "type": "bytes"
        }
      ],
      "name": "TransactionRelayedButRevertedByRecipient",
      "type": "event"
    },
    {
      "anonymous": false,
      "inputs": [
        {
          "indexed": false,
          "internalType": "bytes",
          "name": "returnValue",
          "type": "bytes"
        }
      ],
      "name": "TransactionResult",
      "type": "event"
    },
    {
      "inputs": [
        {
          "internalType": "address[]",
          "name": "newRelayWorkers",
          "type": "address[]"
        }
      ],
      "name": "addRelayWorkers",
      "outputs": [],
      "stateMutability": "nonpayable",
      "type": "function"
    },
    {
      "inputs": [
        {
          "components": [
            {
              "components": [
                {
                  "internalType": "address",
                  "name": "relayHub",
                  "type": "address"
                },
                {
                  "internalType": "address",
                  "name": "from",
                  "type": "address"
                },
                {
                  "internalType": "address",
                  "name": "to",
                  "type": "address"
                },
                {
                  "internalType": "address",
                  "name": "tokenContract",
                  "type": "address"
                },
                {
                  "internalType": "address",
                  "name": "recoverer",
                  "type": "address"
                },
                {
                  "internalType": "uint256",
                  "name": "value",
                  "type": "uint256"
                },
                {
                  "internalType": "uint256",
                  "name": "nonce",
                  "type": "uint256"
                },
                {
                  "internalType": "uint256",
                  "name": "tokenAmount",
                  "type": "uint256"
                },
                {
                  "internalType": "uint256",
                  "name": "tokenGas",
                  "type": "uint256"
                },
                {
                  "internalType": "uint256",
                  "name": "validUntilTime",
                  "type": "uint256"
                },
                {
                  "internalType": "uint256",
                  "name": "index",
                  "type": "uint256"
                },
                {
                  "internalType": "bytes",
                  "name": "data",
                  "type": "bytes"
                }
              ],
              "internalType": "struct IForwarder.DeployRequest",
              "name": "request",
              "type": "tuple"
            },
            {
              "components": [
                {
                  "internalType": "uint256",
                  "name": "gasPrice",
                  "type": "uint256"
                },
                {
                  "internalType": "address",
                  "name": "feesReceiver",
                  "type": "address"
                },
                {
                  "internalType": "address",
                  "name": "callForwarder",
                  "type": "address"
                },
                {
                  "internalType": "address",
                  "name": "callVerifier",
                  "type": "address"
                }
              ],
              "internalType": "struct EnvelopingTypes.RelayData",
              "name": "relayData",
              "type": "tuple"
            }
          ],
          "internalType": "struct EnvelopingTypes.DeployRequest",
          "name": "deployRequest",
          "type": "tuple"
        },
        {
          "internalType": "bytes",
          "name": "signature",
          "type": "bytes"
        }
      ],
      "name": "deployCall",
      "outputs": [],
      "stateMutability": "nonpayable",
      "type": "function"
    },
    {
      "inputs": [
        {
          "internalType": "address[]",
          "name": "relayWorkers",
          "type": "address[]"
        }
      ],
      "name": "disableRelayWorkers",
      "outputs": [],
      "stateMutability": "nonpayable",
      "type": "function"
    },
    {
      "inputs": [
        {
          "internalType": "address",
          "name": "relayManager",
          "type": "address"
        }
      ],
      "name": "getRelayInfo",
      "outputs": [
        {
          "components": [
            {
              "internalType": "address",
              "name": "manager",
              "type": "address"
            },
            {
              "internalType": "bool",
              "name": "currentlyStaked",
              "type": "bool"
            },
            {
              "internalType": "bool",
              "name": "registered",
              "type": "bool"
            },
            {
              "internalType": "string",
              "name": "url",
              "type": "string"
            }
          ],
          "internalType": "struct IRelayHub.RelayManagerData",
          "name": "relayManagerData",
          "type": "tuple"
        }
      ],
      "stateMutability": "view",
      "type": "function"
    },
    {
      "inputs": [
        {
          "internalType": "address",
          "name": "relayManager",
          "type": "address"
        }
      ],
      "name": "getStakeInfo",
      "outputs": [
        {
          "components": [
            {
              "internalType": "uint256",
              "name": "stake",
              "type": "uint256"
            },
            {
              "internalType": "uint256",
              "name": "unstakeDelay",
              "type": "uint256"
            },
            {
              "internalType": "uint256",
              "name": "withdrawBlock",
              "type": "uint256"
            },
            {
              "internalType": "address payable",
              "name": "owner",
              "type": "address"
            }
          ],
          "internalType": "struct IRelayHub.StakeInfo",
          "name": "stakeInfo",
          "type": "tuple"
        }
      ],
      "stateMutability": "view",
      "type": "function"
    },
    {
      "inputs": [
        {
          "internalType": "address",
          "name": "relayManager",
          "type": "address"
        }
      ],
      "name": "isRelayManagerStaked",
      "outputs": [
        {
          "internalType": "bool",
          "name": "",
          "type": "bool"
        }
      ],
      "stateMutability": "view",
      "type": "function"
    },
    {
      "inputs": [],
      "name": "maxWorkerCount",
      "outputs": [
        {
          "internalType": "uint256",
          "name": "",
          "type": "uint256"
        }
      ],
      "stateMutability": "view",
      "type": "function"
    },
    {
      "inputs": [],
      "name": "minimumEntryDepositValue",
      "outputs": [
        {
          "internalType": "uint256",
          "name": "",
          "type": "uint256"
        }
      ],
      "stateMutability": "view",
      "type": "function"
    },
    {
      "inputs": [],
      "name": "minimumStake",
      "outputs": [
        {
          "internalType": "uint256",
          "name": "",
          "type": "uint256"
        }
      ],
      "stateMutability": "view",
      "type": "function"
    },
    {
      "inputs": [],
      "name": "minimumUnstakeDelay",
      "outputs": [
        {
          "internalType": "uint256",
          "name": "",
          "type": "uint256"
        }
      ],
      "stateMutability": "view",
      "type": "function"
    },
    {
      "inputs": [
        {
          "internalType": "address",
          "name": "relayWorker",
          "type": "address"
        },
        {
          "internalType": "address payable",
          "name": "beneficiary",
          "type": "address"
        }
      ],
      "name": "penalize",
      "outputs": [],
      "stateMutability": "nonpayable",
      "type": "function"
    },
    {
      "inputs": [],
      "name": "penalizer",
      "outputs": [
        {
          "internalType": "address",
          "name": "",
          "type": "address"
        }
      ],
      "stateMutability": "view",
      "type": "function"
    },
    {
      "inputs": [
        {
          "internalType": "string",
          "name": "url",
          "type": "string"
        }
      ],
      "name": "registerRelayServer",
      "outputs": [],
      "stateMutability": "nonpayable",
      "type": "function"
    },
    {
      "inputs": [
        {
          "components": [
            {
              "components": [
                {
                  "internalType": "address",
                  "name": "relayHub",
                  "type": "address"
                },
                {
                  "internalType": "address",
                  "name": "from",
                  "type": "address"
                },
                {
                  "internalType": "address",
                  "name": "to",
                  "type": "address"
                },
                {
                  "internalType": "address",
                  "name": "tokenContract",
                  "type": "address"
                },
                {
                  "internalType": "uint256",
                  "name": "value",
                  "type": "uint256"
                },
                {
                  "internalType": "uint256",
                  "name": "gas",
                  "type": "uint256"
                },
                {
                  "internalType": "uint256",
                  "name": "nonce",
                  "type": "uint256"
                },
                {
                  "internalType": "uint256",
                  "name": "tokenAmount",
                  "type": "uint256"
                },
                {
                  "internalType": "uint256",
                  "name": "tokenGas",
                  "type": "uint256"
                },
                {
                  "internalType": "uint256",
                  "name": "validUntilTime",
                  "type": "uint256"
                },
                {
                  "internalType": "bytes",
                  "name": "data",
                  "type": "bytes"
                }
              ],
              "internalType": "struct IForwarder.ForwardRequest",
              "name": "request",
              "type": "tuple"
            },
            {
              "components": [
                {
                  "internalType": "uint256",
                  "name": "gasPrice",
                  "type": "uint256"
                },
                {
                  "internalType": "address",
                  "name": "feesReceiver",
                  "type": "address"
                },
                {
                  "internalType": "address",
                  "name": "callForwarder",
                  "type": "address"
                },
                {
                  "internalType": "address",
                  "name": "callVerifier",
                  "type": "address"
                }
              ],
              "internalType": "struct EnvelopingTypes.RelayData",
              "name": "relayData",
              "type": "tuple"
            }
          ],
          "internalType": "struct EnvelopingTypes.RelayRequest",
          "name": "relayRequest",
          "type": "tuple"
        },
        {
          "internalType": "bytes",
          "name": "signature",
          "type": "bytes"
        }
      ],
      "name": "relayCall",
      "outputs": [
        {
          "internalType": "bool",
          "name": "destinationCallSuccess",
          "type": "bool"
        }
      ],
      "stateMutability": "nonpayable",
      "type": "function"
    },
    {
      "inputs": [
        {
          "internalType": "address",
          "name": "",
          "type": "address"
        }
      ],
      "name": "relayData",
      "outputs": [
        {
          "internalType": "address",
          "name": "manager",
          "type": "address"
        },
        {
          "internalType": "bool",
          "name": "currentlyStaked",
          "type": "bool"
        },
        {
          "internalType": "bool",
          "name": "registered",
          "type": "bool"
        },
        {
          "internalType": "string",
          "name": "url",
          "type": "string"
        }
      ],
      "stateMutability": "view",
      "type": "function"
    },
    {
      "inputs": [
        {
          "internalType": "address",
          "name": "relayManager",
          "type": "address"
        },
        {
          "internalType": "uint256",
          "name": "unstakeDelay",
          "type": "uint256"
        }
      ],
      "name": "stakeForAddress",
      "outputs": [],
      "stateMutability": "payable",
      "type": "function"
    },
    {
      "inputs": [
        {
          "internalType": "address",
          "name": "",
          "type": "address"
        }
      ],
      "name": "stakes",
      "outputs": [
        {
          "internalType": "uint256",
          "name": "stake",
          "type": "uint256"
        },
        {
          "internalType": "uint256",
          "name": "unstakeDelay",
          "type": "uint256"
        },
        {
          "internalType": "uint256",
          "name": "withdrawBlock",
          "type": "uint256"
        },
        {
          "internalType": "address payable",
          "name": "owner",
          "type": "address"
        }
      ],
      "stateMutability": "view",
      "type": "function"
    },
    {
      "inputs": [
        {
          "internalType": "address",
          "name": "relayManager",
          "type": "address"
        }
      ],
      "name": "unlockStake",
      "outputs": [],
      "stateMutability": "nonpayable",
      "type": "function"
    },
    {
      "inputs": [],
      "name": "versionHub",
      "outputs": [
        {
          "internalType": "string",
          "name": "",
          "type": "string"
        }
      ],
      "stateMutability": "view",
      "type": "function"
    },
    {
      "inputs": [
        {
          "internalType": "address",
          "name": "relayManager",
          "type": "address"
        }
      ],
      "name": "withdrawStake",
      "outputs": [],
      "stateMutability": "nonpayable",
      "type": "function"
    },
    {
      "inputs": [
        {
          "internalType": "address",
          "name": "",
          "type": "address"
        }
      ],
      "name": "workerCount",
      "outputs": [
        {
          "internalType": "uint256",
          "name": "",
          "type": "uint256"
        }
      ],
      "stateMutability": "view",
      "type": "function"
    },
    {
      "inputs": [
        {
          "internalType": "address",
          "name": "",
          "type": "address"
        }
      ],
      "name": "workerToManager",
      "outputs": [
        {
          "internalType": "bytes32",
          "name": "",
          "type": "bytes32"
        }
      ],
      "stateMutability": "view",
      "type": "function"
    }
  ],
  "bytecode": "0x60c0604052601e60808190527f322e302e312b656e76656c6f70696e672e6875622e6972656c6179687562000060a090815262000040916005919062000100565b503480156200004e57600080fd5b506040516200282f3803806200282f83398101604081905262000071916200019c565b600084118015620000825750600081115b80156200008f5750600083115b80156200009c5750600082115b620000c45760405162461bcd60e51b8152600401620000bb90620001f1565b60405180910390fd5b600480546001600160a01b0319166001600160a01b03969096169590951790945560039290925560019190915560009190915560025562000228565b828054600181600116156101000203166002900490600052602060002090601f016020900481019282601f106200014357805160ff191683800117855562000173565b8280016001018555821562000173579182015b828111156200017357825182559160200191906001019062000156565b506200018192915062000185565b5090565b5b8082111562000181576000815560010162000186565b600080600080600060a08688031215620001b4578081fd5b85516001600160a01b0381168114620001cb578182fd5b602087015160408801516060890151608090990151929a91995097965090945092505050565b60208082526017908201527f696e76616c69642068756220696e697420706172616d73000000000000000000604082015260600190565b6125f780620002386000396000f3fe6080604052600436106101755760003560e01c8063c3453153116100cb578063ca998f561161007f578063ebcd31ac11610059578063ebcd31ac1461040f578063ec5ffac21461042f578063ecb399401461044457610175565b8063ca998f56146103b8578063d904c732146103d8578063e5fad978146103fa57610175565b8063c4464b29116100b0578063c4464b2914610346578063c4775a6814610366578063c5a716cc1461038857610175565b8063c3453153146102f9578063c425c6a51461032657610175565b80634b84219e1161012d578063711163201161010757806371116320146102a4578063c23a5cea146102b9578063c2da0786146102d957610175565b80634b84219e14610244578063528ab2ad146102715780635d2fb7681461029157610175565b80631c9faa891161015e5780631c9faa89146101e05780632ad311b5146101f55780634a1ce5991461022257610175565b806316934fc41461017a578063194ac307146101b3575b600080fd5b34801561018657600080fd5b5061019a610195366004611899565b610464565b6040516101aa94939291906124c9565b60405180910390f35b3480156101bf57600080fd5b506101d36101ce366004611899565b610494565b6040516101aa9190611c9b565b3480156101ec57600080fd5b506101d36104a6565b34801561020157600080fd5b50610215610210366004611899565b6104ac565b6040516101aa9190611c90565b34801561022e57600080fd5b5061024261023d366004611899565b6104f1565b005b34801561025057600080fd5b5061026461025f366004611899565b6105d5565b6040516101aa9190612441565b34801561027d57600080fd5b5061021561028c366004611ade565b6106cb565b61024261029f3660046118ed565b61083d565b3480156102b057600080fd5b506101d3610a19565b3480156102c557600080fd5b506102426102d4366004611899565b610a1f565b3480156102e557600080fd5b506102426102f4366004611918565b610b5d565b34801561030557600080fd5b50610319610314366004611899565b610ccf565b6040516101aa9190612487565b34801561033257600080fd5b50610242610341366004611a38565b610d2a565b34801561035257600080fd5b50610242610361366004611918565b610e14565b34801561037257600080fd5b5061037b610f74565b6040516101aa9190611bb9565b34801561039457600080fd5b506103a86103a3366004611899565b610f83565b6040516101aa9493929190611bfe565b3480156103c457600080fd5b506101d36103d3366004611899565b611049565b3480156103e457600080fd5b506103ed61105b565b6040516101aa9190611dff565b34801561040657600080fd5b506101d36110e9565b34801561041b57600080fd5b5061024261042a3660046118b5565b6110ef565b34801561043b57600080fd5b506101d3611286565b34801561045057600080fd5b5061024261045f366004611a78565b61128c565b6008602052600090815260409020805460018201546002830154600390930154919290916001600160a01b031684565b60076020526000908152604090205481565b60025481565b6001600160a01b038116600090815260086020526040812081548154108015906104dc5750600154816001015410155b80156104ea57506002810154155b9392505050565b6001600160a01b038082166000908152600860205260409020600381015490911633146105395760405162461bcd60e51b8152600401610530906122ff565b60405180910390fd5b60028101541561055b5760405162461bcd60e51b815260040161053090611eb5565b600181015461056b904390611338565b600282019081556001600160a01b03831660008181526009602052604090819020805460ff60a01b191690559154915133927f9ffc6168de1eb7f1d16200f614753cd7edce5a2186aab1c612199dd7316cd7c4916105c99190611c9b565b60405180910390a35050565b6105dd611746565b6001600160a01b0380831660009081526009602090815260409182902082516080810184528154948516815260ff600160a01b86048116151582850152600160a81b909504909416151584840152600180820180548551601f600260001995841615610100029590950190921693909304908101859004850283018501909552848252919360608601939192918301828280156106bb5780601f10610690576101008083540402835291602001916106bb565b820191906000526020600020905b81548152906001019060200180831161069e57829003601f168201915b5050505050815250509050919050565b60003332146106ec5760405162461bcd60e51b815260040161053090611e12565b3a602085013511156107105760405162461bcd60e51b815260040161053090611eec565b336000908152600660205260409020546001808216146107425760405162461bcd60e51b81526004016105309061225a565b600481901c61075081611366565b6000606061075f8888886113c4565b90965090925090508161077457805160208201fd5b84156107d857826001600160a01b03167fdf198d2c3963f45c88b865617cc67ce19c4857c2e764157f09d482bebc7d26943389896040516107b6929190611b8d565b6040519081900381206107cb92918690611bcd565b60405180910390a2610832565b826001600160a01b03167f1b6a6ede6c95fbbcfcda7be07a07972d087a6bcd66b05a460c44408b580c649b338989604051610814929190611b8d565b60405190819003812061082992918690611bcd565b60405180910390a25b505050509392505050565b6001600160a01b03808316600090815260086020526040902060038101549091161580610876575060038101546001600160a01b031633145b6108925760405162461bcd60e51b8152600401610530906122ff565b6001548210156108b45760405162461bcd60e51b81526004016105309061206d565b80600101548210156108d85760405162461bcd60e51b8152600401610530906120a4565b336001600160a01b03841614156109015760405162461bcd60e51b815260040161053090612036565b336000908152600860205260409020600301546001600160a01b03161561093a5760405162461bcd60e51b8152600401610530906120d9565b60038101546001600160a01b031661096e5760025434101561096e5760405162461bcd60e51b815260040161053090612291565b60038101805473ffffffffffffffffffffffffffffffffffffffff1990811633178255825434018355600183018481556001600160a01b0386811660008181526009602052604090819020805460ff60a01b199616831795909516600160a01b179094559354855492549351911693927fef7c8dfef14cbefdf829b8f066b068b677992411137321d64b3ed4538c2b363792610a0c929091906124bb565b60405180910390a3505050565b60015481565b6001600160a01b03808216600090815260086020526040902060038101549091163314610a5e5760405162461bcd60e51b8152600401610530906122ff565b6000816002015411610a825760405162461bcd60e51b815260040161053090612147565b4381600201541115610aa65760405162461bcd60e51b815260040161053090611f5a565b80546001600160a01b0383166000908152600860205260408082208281556001810183905560028101839055600301805473ffffffffffffffffffffffffffffffffffffffff1916905551339183156108fc02918491818181858888f19350505050158015610b19573d6000803e3d6000fd5b50336001600160a01b0316836001600160a01b03167fb7c918e0e249f999e965cafeb6c664271b3f4317d296461500e71da39f0cbda383604051610a0c9190611c9b565b33600081815260076020526040902080548301908190556003541015610b955760405162461bcd60e51b8152600401610530906121ec565b610b9e81611366565b6001740ffffffffffffffffffffffffffffffffffffffff0600483901b161760005b83811015610c74576000600681878785818110610bd957fe5b9050602002016020810190610bee9190611899565b6001600160a01b03166001600160a01b031681526020019081526020016000205414610c2c5760405162461bcd60e51b815260040161053090611e47565b8160066000878785818110610c3d57fe5b9050602002016020810190610c529190611899565b6001600160a01b03168152602081019190915260400160002055600101610bc0565b506001600160a01b038216600081815260076020526040908190205490517febf4a9bffb39f7c5dbf3f65540183b9381ae226ac3d0a45b4cad484713bd4a2891610cc19188918891611c3a565b60405180910390a250505050565b610cd761176c565b506001600160a01b03908116600090815260086020908152604091829020825160808101845281548152600182015492810192909252600281015492820192909252600390910154909116606082015290565b610d3333611366565b33600090815260076020526040902054610d5f5760405162461bcd60e51b815260040161053090612110565b336000818152600960205260409020805473ffffffffffffffffffffffffffffffffffffffff19169091178155610d9a90600101838361179d565b50336000818152600960205260409081902080547fffffffffffffffffffff00ffffffffffffffffffffffffffffffffffffffffff16600160a81b179055517f2eac352dc0e358bc5310067728e308674f806dbea7538355fd9da0ba0e9078ef90610e089085908590611de3565b60405180910390a25050565b3360009081526007602052604090205481811015610e445760405162461bcd60e51b815260040161053090611fc8565b3360008181526007602052604090208383039055610e6190611366565b3360041b600181179060005b84811015610f21578260066000888885818110610e8657fe5b9050602002016020810190610e9b9190611899565b6001600160a01b03166001600160a01b031681526020019081526020016000205414610ed95760405162461bcd60e51b815260040161053090612223565b8160066000888885818110610eea57fe5b9050602002016020810190610eff9190611899565b6001600160a01b03168152602081019190915260400160002055600101610e6d565b5033600081815260076020526040908190205490517f8649769f616f939414e9f75b3c6397d707076c7d0bba032dbcef34e3509cce8391610f659189918991611c3a565b60405180910390a25050505050565b6004546001600160a01b031681565b6009602090815260009182526040918290208054600180830180548651601f6002600019958416156101000295909501909216939093049081018690048602830186019096528582526001600160a01b0383169560ff600160a01b8504811696600160a81b90950416949383018282801561103f5780601f106110145761010080835404028352916020019161103f565b820191906000526020600020905b81548152906001019060200180831161102257829003601f168201915b5050505050905084565b60066020526000908152604090205481565b6005805460408051602060026001851615610100026000190190941693909304601f810184900484028201840190925281815292918301828280156110e15780601f106110b6576101008083540402835291602001916110e1565b820191906000526020600020905b8154815290600101906020018083116110c457829003601f168201915b505050505081565b60035481565b6004546001600160a01b031633146111195760405162461bcd60e51b81526004016105309061217e565b6001600160a01b0380831660009081526006602052604090205460041c9081166111555760405162461bcd60e51b8152600401610530906122c8565b6001600160a01b038116600090815260086020526040902080548061118c5760405162461bcd60e51b8152600401610530906121b5565b600080835561119c826002611526565b905060006111aa8383611558565b6001600160a01b038616600090815260096020526040808220805460ff60a01b19169055519192509083156108fc0290849083818181858288f193505050501580156111fa573d6000803e3d6000fd5b506040516001600160a01b0387169082156108fc029083906000818181858888f19350505050158015611231573d6000803e3d6000fd5b50856001600160a01b0316856001600160a01b03167f2f2ba0bf4c9bedc2210a4da5b5811c2a4fd28e62c51bb90c3ea6fdce00808eb0836040516112759190611c9b565b60405180910390a350505050505050565b60005481565b336000908152600660205260409020546001808216146112be5760405162461bcd60e51b81526004016105309061225a565b600481901c3332146112e25760405162461bcd60e51b815260040161053090611e12565b6112eb81611366565b3a6020860135111561130f5760405162461bcd60e51b815260040161053090611eec565b6000606061131e878787611580565b915091508161132f57805160208201fd5b50505050505050565b60008282018381101561135d5760405162461bcd60e51b815260040161053090611e7e565b90505b92915050565b6001600160a01b038116600090815260086020526040812090548154108015906113965750600154816001015410155b80156113a457506002810154155b6113c05760405162461bcd60e51b815260040161053090611f23565b5050565b60008060606113d860808701878301611899565b6001600160a01b03167f75a6dad70000000000000000000000000000000000000000000000000000000061140e602089016116b3565b6114188980612503565b61142860608b0160408c01611899565b898960405160240161143e959493929190611ca4565b60408051601f198184030181529181526020820180517bffffffffffffffffffffffffffffffffffffffffffffffffffffffff167fffffffff000000000000000000000000000000000000000000000000000000009094169390931790925290516114a99190611b9d565b6000604051808303816000865af19150503d80600081146114e6576040519150601f19603f3d011682016040523d82523d6000602084013e6114eb565b606091505b5090935090508215611511578080602001905181019061150b9190611987565b90925090505b61151d81610400611739565b93509350939050565b60008082116115475760405162461bcd60e51b815260040161053090611fff565b81838161155057fe5b049392505050565b60008282111561157a5760405162461bcd60e51b815260040161053090611f91565b50900390565b6000606061159360808601868301611899565b6001600160a01b03167f12c3754c000000000000000000000000000000000000000000000000000000006115c787806124ed565b6115d3886020016116b3565b6115e360608a0160408b01611899565b88886040516024016115f9959493929190612336565b60408051601f198184030181529181526020820180517bffffffffffffffffffffffffffffffffffffffffffffffffffffffff167fffffffff000000000000000000000000000000000000000000000000000000009094169390931790925290516116649190611b9d565b6000604051808303816000865af19150503d80600081146116a1576040519150601f19603f3d011682016040523d82523d6000602084013e6116a6565b606091505b5090969095509350505050565b60007f5ac7e082f84953f36d641103da716f31c3a2eb7cb983e2cd032f2c7b261031dd82356116e86040850160208601611899565b6116f86060860160408701611899565b6117086080870160608801611899565b60405160200161171c959493929190611db5565b604051602081830303815290604052805190602001209050919050565b80825111156113c0579052565b604080516080810182526000808252602082018190529181019190915260608082015290565b604051806080016040528060008152602001600081526020016000815260200160006001600160a01b031681525090565b828054600181600116156101000203166002900490600052602060002090601f016020900481019282601f106117de5782800160ff1982351617855561180b565b8280016001018555821561180b579182015b8281111561180b5782358255916020019190600101906117f0565b5061181792915061181b565b5090565b5b80821115611817576000815560010161181c565b80356113608161259b565b60008083601f84011261184c578182fd5b50813567ffffffffffffffff811115611863578182fd5b60208301915083602082850101111561187b57600080fd5b9250929050565b600060a08284031215611893578081fd5b50919050565b6000602082840312156118aa578081fd5b813561135d8161259b565b600080604083850312156118c7578081fd5b82356118d28161259b565b915060208301356118e28161259b565b809150509250929050565b600080604083850312156118ff578182fd5b823561190a8161259b565b946020939093013593505050565b6000806020838503121561192a578182fd5b823567ffffffffffffffff80821115611941578384fd5b818501915085601f830112611954578384fd5b813581811115611962578485fd5b8660208083028501011115611975578485fd5b60209290920196919550909350505050565b60008060408385031215611999578182fd5b82516119a4816125b3565b602084015190925067ffffffffffffffff808211156119c1578283fd5b818501915085601f8301126119d4578283fd5b8151818111156119e2578384fd5b604051601f8201601f191681016020018381118282101715611a02578586fd5b604052818152838201602001881015611a19578485fd5b611a2a82602083016020870161256b565b809450505050509250929050565b60008060208385031215611a4a578182fd5b823567ffffffffffffffff811115611a60578283fd5b611a6c8582860161183b565b90969095509350505050565b600080600060408486031215611a8c578081fd5b833567ffffffffffffffff80821115611aa3578283fd5b611aaf87838801611882565b94506020860135915080821115611ac4578283fd5b50611ad18682870161183b565b9497909650939450505050565b600080600060408486031215611af2578283fd5b833567ffffffffffffffff80821115611b09578485fd5b611b1587838801611882565b94506020860135915080821115611ac4578384fd5b6001600160a01b03169052565b60008284528282602086013780602084860101526020601f19601f85011685010190509392505050565b60008151808452611b7981602086016020860161256b565b601f01601f19169290920160200192915050565b6000828483379101908152919050565b60008251611baf81846020870161256b565b9190910192915050565b6001600160a01b0391909116815260200190565b60006001600160a01b038516825283602083015260606040830152611bf56060830184611b61565b95945050505050565b60006001600160a01b03861682528415156020830152831515604083015260806060830152611c306080830184611b61565b9695505050505050565b6040808252810183905260008460608301825b86811015611c7d5760208335611c628161259b565b6001600160a01b031683529283019290910190600101611c4d565b5060209390930193909352509392505050565b901515815260200190565b90815260200190565b60008682526080602083015260208601611cca60808401611cc5838a611830565b611b2a565b611cd48188612519565b9050611ce360a0840182611b2a565b50611cf16040870187612519565b611cfe60c0840182611b2a565b50611d0c6060870187612519565b611d1960e0840182611b2a565b5061010060808701358184015261012060a08801358185015261014060c08901358186015261016060e08a013581870152838a0135610180870152828a01356101a0870152611d6a828b018b612526565b94509250806101c08701525050611d866101e085018383611b37565b915050611d966040840187611b2a565b8281036060840152611da9818587611b37565b98975050505050505050565b94855260208501939093526001600160a01b0391821660408501528116606084015216608082015260a00190565b600060208252611df7602083018486611b37565b949350505050565b6000602082526104ea6020830184611b61565b6020808252818101527f52656c6179576f726b65722063616e6e6f74206265206120636f6e7472616374604082015260600190565b60208082526019908201527f7468697320776f726b6572206861732061206d616e6167657200000000000000604082015260600190565b6020808252601b908201527f536166654d6174683a206164646974696f6e206f766572666c6f770000000000604082015260600190565b6020808252600f908201527f616c72656164792070656e64696e670000000000000000000000000000000000604082015260600190565b60208082526011908201527f496e76616c696420676173207072696365000000000000000000000000000000604082015260600190565b60208082526017908201527f52656c61794d616e61676572206e6f74207374616b6564000000000000000000604082015260600190565b60208082526015908201527f5769746864726177616c206973206e6f74206475650000000000000000000000604082015260600190565b6020808252601e908201527f536166654d6174683a207375627472616374696f6e206f766572666c6f770000604082015260600190565b6020808252601b908201527f696e76616c6964207175616e74697479206f6620776f726b6572730000000000604082015260600190565b6020808252601a908201527f536166654d6174683a206469766973696f6e206279207a65726f000000000000604082015260600190565b6020808252601a908201527f63616c6c6572206973207468652072656c61794d616e61676572000000000000604082015260600190565b60208082526017908201527f756e7374616b6544656c617920697320746f6f206c6f77000000000000000000604082015260600190565b6020808252818101527f756e7374616b6544656c61792063616e6e6f7420626520646563726561736564604082015260600190565b6020808252601f908201527f73656e64657220697320612072656c61794d616e6167657220697473656c6600604082015260600190565b60208082526010908201527f6e6f2072656c617920776f726b65727300000000000000000000000000000000604082015260600190565b6020808252601b908201527f5769746864726177616c206973206e6f74207363686564756c65640000000000604082015260600190565b6020808252600d908201527f4e6f742070656e616c697a657200000000000000000000000000000000000000604082015260600190565b60208082526016908201527f556e7374616b65642072656c6179206d616e6167657200000000000000000000604082015260600190565b60208082526010908201527f746f6f206d616e7920776f726b65727300000000000000000000000000000000604082015260600190565b60208082526011908201527f496e636f7272656374204d616e61676572000000000000000000000000000000604082015260600190565b60208082526015908201527f4e6f7420616e20656e61626c656420776f726b65720000000000000000000000604082015260600190565b6020808252601a908201527f496e73756666696369656e7420696e697469616c207374616b65000000000000604082015260600190565b60208082526014908201527f556e6b6e6f776e2072656c617920776f726b6572000000000000000000000000604082015260600190565b60208082526009908201527f6e6f74206f776e65720000000000000000000000000000000000000000000000604082015260600190565b6000608082526020870161235160808401611cc5838b611830565b61235b8189612519565b905061236a60a0840182611b2a565b506123786040880188612519565b61238560c0840182611b2a565b506123936060880188612519565b6123a060e0840182611b2a565b506123ae6080880188612519565b6101006123bd81850183611b2a565b610120915060a08901358285015261014060c08a01358186015261016060e08b013581870152610180838c013581880152848c01356101a0880152828c01356101c088015261240e828d018d612526565b95509350806101e088015250505061242b61020085018383611b37565b915050866020840152611d966040840187611b2a565b6000602082526001600160a01b0383511660208301526020830151151560408301526040830151151560608301526060830151608080840152611df760a0840182611b61565b8151815260208083015190820152604080830151908201526060918201516001600160a01b03169181019190915260800190565b918252602082015260400190565b938452602084019290925260408301526001600160a01b0316606082015260800190565b6000823561017e19833603018112611baf578182fd5b6000823561015e19833603018112611baf578182fd5b6000823561135d8161259b565b6000808335601e1984360301811261253c578283fd5b830160208101925035905067ffffffffffffffff81111561255c57600080fd5b80360383131561187b57600080fd5b60005b8381101561258657818101518382015260200161256e565b83811115612595576000848401525b50505050565b6001600160a01b03811681146125b057600080fd5b50565b80151581146125b057600080fdfea2646970667358221220b5272f5b03902bc4fad3e5f0b47310f3b7ead5d14fafb4ff0a1bcdbe43bce8fa64736f6c634300060c0033",
  "linkReferences": {},
  "deployedLinkReferences": {}
}