{
  "_format": "hh-sol-artifact-1",
  "contractName": "BoltzSmartWallet",
  "sourceName": "contracts/smartwallet/BoltzSmartWallet.sol",
  "abi": [
    {
      "inputs": [],
      "name": "DATA_VERSION_HASH",
      "outputs": [
        {
          "internalType": "bytes32",
          "name": "",
          "type": "bytes32"
        }
      ],
      "stateMutability": "view",
      "type": "function"
    },
    {
      "inputs": [
        {
          "internalType": "address",
          "name": "to",
          "type": "address"
        },
        {
          "internalType": "bytes",
          "name": "data",
          "type": "bytes"
        }
      ],
      "name": "directExecute",
      "outputs": [
        {
          "internalType": "bool",
          "name": "success",
          "type": "bool"
        },
        {
          "internalType": "bytes",
          "name": "ret",
          "type": "bytes"
        }
      ],
      "stateMutability": "payable",
      "type": "function"
    },
    {
      "inputs": [],
      "name": "domainSeparator",
      "outputs": [
        {
          "internalType": "bytes32",
          "name": "",
          "type": "bytes32"
        }
      ],
      "stateMutability": "view",
      "type": "function"
    },
    {
      "inputs": [
        {
          "internalType": "bytes32",
          "name": "suffixData",
          "type": "bytes32"
        },
        {
          "components": [
            {
              "internalType": "address",
              "name": "relayHub",
              "type": "address"
            },
            {
              "internalType": "address",
              "name": "from",
              "type": "address"
            },
            {
              "internalType": "address",
              "name": "to",
              "type": "address"
            },
            {
              "internalType": "address",
              "name": "tokenContract",
              "type": "address"
            },
            {
              "internalType": "uint256",
              "name": "value",
              "type": "uint256"
            },
            {
              "internalType": "uint256",
              "name": "gas",
              "type": "uint256"
            },
            {
              "internalType": "uint256",
              "name": "nonce",
              "type": "uint256"
            },
            {
              "internalType": "uint256",
              "name": "tokenAmount",
              "type": "uint256"
            },
            {
              "internalType": "uint256",
              "name": "tokenGas",
              "type": "uint256"
            },
            {
              "internalType": "uint256",
              "name": "validUntilTime",
              "type": "uint256"
            },
            {
              "internalType": "bytes",
              "name": "data",
              "type": "bytes"
            }
          ],
          "internalType": "struct IForwarder.ForwardRequest",
          "name": "req",
          "type": "tuple"
        },
        {
          "internalType": "address",
          "name": "feesReceiver",
          "type": "address"
        },
        {
          "internalType": "bytes",
          "name": "sig",
          "type": "bytes"
        }
      ],
      "name": "execute",
      "outputs": [
        {
          "internalType": "bool",
          "name": "success",
          "type": "bool"
        },
        {
          "internalType": "bytes",
          "name": "ret",
          "type": "bytes"
        }
      ],
      "stateMutability": "payable",
      "type": "function"
    },
    {
      "inputs": [],
      "name": "getOwner",
      "outputs": [
        {
          "internalType": "bytes32",
          "name": "owner",
          "type": "bytes32"
        }
      ],
      "stateMutability": "view",
      "type": "function"
    },
    {
      "inputs": [
        {
          "internalType": "address",
          "name": "owner",
          "type": "address"
        },
        {
          "internalType": "address",
          "name": "tokenContract",
          "type": "address"
        },
        {
          "internalType": "address",
          "name": "feesReceiver",
          "type": "address"
        },
        {
          "internalType": "uint256",
          "name": "tokenAmount",
          "type": "uint256"
        },
        {
          "internalType": "uint256",
          "name": "tokenGas",
          "type": "uint256"
        },
        {
          "internalType": "address",
          "name": "to",
          "type": "address"
        },
        {
          "internalType": "uint256",
          "name": "value",
          "type": "uint256"
        },
        {
          "internalType": "uint256",
          "name": "gasLimit",
          "type": "uint256"
        },
        {
          "internalType": "bytes",
          "name": "data",
          "type": "bytes"
        }
      ],
      "name": "initialize",
      "outputs": [],
      "stateMutability": "nonpayable",
      "type": "function"
    },
    {
      "inputs": [],
      "name": "isInitialized",
      "outputs": [
        {
          "internalType": "bool",
          "name": "",
          "type": "bool"
        }
      ],
      "stateMutability": "view",
      "type": "function"
    },
    {
      "inputs": [],
      "name": "nonce",
      "outputs": [
        {
          "internalType": "uint256",
          "name": "",
          "type": "uint256"
        }
      ],
      "stateMutability": "view",
      "type": "function"
    },
    {
      "inputs": [
        {
          "internalType": "address",
          "name": "owner",
          "type": "address"
        },
        {
          "internalType": "address",
          "name": "factory",
          "type": "address"
        },
        {
          "internalType": "address",
          "name": "swTemplate",
          "type": "address"
        },
        {
          "internalType": "address",
          "name": "destinationContract",
          "type": "address"
        },
        {
          "internalType": "uint256",
          "name": "index",
          "type": "uint256"
        },
        {
          "internalType": "bytes",
          "name": "data",
          "type": "bytes"
        }
      ],
      "name": "recover",
      "outputs": [
        {
          "internalType": "bool",
          "name": "success",
          "type": "bool"
        },
        {
          "internalType": "bytes",
          "name": "ret",
          "type": "bytes"
        }
      ],
      "stateMutability": "payable",
      "type": "function"
    },
    {
      "inputs": [
        {
          "internalType": "bytes32",
          "name": "suffixData",
          "type": "bytes32"
        },
        {
          "components": [
            {
              "internalType": "address",
              "name": "relayHub",
              "type": "address"
            },
            {
              "internalType": "address",
              "name": "from",
              "type": "address"
            },
            {
              "internalType": "address",
              "name": "to",
              "type": "address"
            },
            {
              "internalType": "address",
              "name": "tokenContract",
              "type": "address"
            },
            {
              "internalType": "uint256",
              "name": "value",
              "type": "uint256"
            },
            {
              "internalType": "uint256",
              "name": "gas",
              "type": "uint256"
            },
            {
              "internalType": "uint256",
              "name": "nonce",
              "type": "uint256"
            },
            {
              "internalType": "uint256",
              "name": "tokenAmount",
              "type": "uint256"
            },
            {
              "internalType": "uint256",
              "name": "tokenGas",
              "type": "uint256"
            },
            {
              "internalType": "uint256",
              "name": "validUntilTime",
              "type": "uint256"
            },
            {
              "internalType": "bytes",
              "name": "data",
              "type": "bytes"
            }
          ],
          "internalType": "struct IForwarder.ForwardRequest",
          "name": "req",
          "type": "tuple"
        },
        {
          "internalType": "bytes",
          "name": "sig",
          "type": "bytes"
        }
      ],
      "name": "verify",
      "outputs": [],
      "stateMutability": "view",
      "type": "function"
    },
    {
      "stateMutability": "payable",
      "type": "receive"
    }
  ],
  "bytecode": "0x608060405234801561001057600080fd5b5061001a3361001f565b610088565b6000816040516020016100329190610070565b60408051601f1981840301815291905280516020909101207fa7b53796fd2d99cb1f5ae019b54f9e024446c3d12b483f733ccc62ed04eb126a555050565b60609190911b6001600160601b031916815260140190565b611902806100976000396000f3fe6080604052600436106100b55760003560e01c806388903efe11610069578063affed0e01161004e578063affed0e014610197578063b3104ef6146101ac578063f698da25146101c1576100bc565b806388903efe14610155578063893d20e814610175576100bc565b8063392e53cd1161009a578063392e53cd1461010d5780633b54ccc31461012f57806375a6dad714610142576100bc565b806306105d29146100c1578063244f53b5146100e3576100bc565b366100bc57005b600080fd5b3480156100cd57600080fd5b506100e16100dc3660046112cc565b6101d6565b005b6100f66100f13660046111cb565b61021d565b60405161010492919061157f565b60405180910390f35b34801561011957600080fd5b50610122610315565b6040516101049190611574565b6100f661013d366004611086565b610335565b6100f6610150366004611249565b61049c565b34801561016157600080fd5b506100e1610170366004611118565b610671565b34801561018157600080fd5b5061018a6107da565b60405161010491906115a2565b3480156101a357600080fd5b5061018a6107ff565b3480156101b857600080fd5b5061018a610805565b3480156101cd57600080fd5b5061018a610829565b610217848484848080601f01602080910402602001604051908101604052809392919081815260200183838082843760009201919091525061082f92505050565b50505050565b60006060336040516020016102329190611365565b604051602081830303815290604052805190602001206102506107da565b146102765760405162461bcd60e51b815260040161026d90611844565b60405180910390fd5b846001600160a01b031634858560405161029192919061142e565b60006040518083038185875af1925050503d80600081146102ce576040519150601f19603f3d011682016040523d82523d6000602084013e6102d3565b606091505b509092509050471561030d5760405133904780156108fc02916000818181858888f1935050505015801561030b573d6000803e3d6000fd5b505b935093915050565b6000806103206107da565b141561032e57506000610332565b5060015b90565b60006060600060ff60f81b898b338960405160200161035693929190611382565b604051602081830303815290604052805190602001208a60405160200161037d919061145a565b604051602081830303815290604052805190602001206040516020016103a694939291906113b0565b60408051601f19818403018152919052805160209091012090506001600160a01b03811630146103e85760405162461bcd60e51b815260040161026d9061163f565b6001600160a01b0387161561045b57866001600160a01b031634868660405161041292919061142e565b60006040518083038185875af1925050503d806000811461044f576040519150601f19603f3d011682016040523d82523d6000602084013e610454565b606091505b5090935091505b471561048f5760405133904780156108fc02916000818181858888f1935050505015801561048d573d6000803e3d6000fd5b505b5097509795505050505050565b6000606085600001516001600160a01b0316336001600160a01b0316146104d55760405162461bcd60e51b815260040161026d906116e4565b610516878786868080601f01602080910402602001604051908101604052809392919081815260200183838082843760009201919091525061082f92505050565b610120860151158061052c575042866101200151115b6105485760405162461bcd60e51b815260040161026d9061175d565b60008054600101905560408087015160a088015160808901516101408a015193516001600160a01b0390931693919290916105829161143e565b600060405180830381858888f193505050503d80600081146105c0576040519150601f19603f3d011682016040523d82523d6000602084013e6105c5565b606091505b5060e0880151919350915015610624576106248660600151868860e001518961010001516040518060400160405280601781526020017f556e61626c6520746f2070617920666f722072656c617900000000000000000081525061091b565b47156106675760208601516040516001600160a01b03909116904780156108fc02916000818181858888f19350505050158015610665573d6000803e3d6000fd5b505b9550959350505050565b600061067b6107da565b146106985760405162461bcd60e51b815260040161026d9061180d565b6106a18a610aad565b6001600160a01b0385161561074157600060606106f687878787878080601f016020809104026020016040519081016040528093929190818152602001838380828437600092019190915250610afe92505050565b915091508161073e5761073e816040518060400160405280601181526020017f556e61626c6520746f2065786563757465000000000000000000000000000000815250610bd8565b50505b861561078957610789898989896040518060400160405280601c81526020017f556e61626c6520746f2070617920666f72206465706c6f796d656e740000000081525061091b565b610791610c00565b47156107ce576040516001600160a01b038b16904780156108fc02916000818181858888f193505050501580156107cc573d6000803e3d6000fd5b505b50505050505050505050565b7fa7b53796fd2d99cb1f5ae019b54f9e024446c3d12b483f733ccc62ed04eb126a5490565b60005481565b7fad7c5bef027816a800da1736444fb58a807ef4c9603b7848673f7e3a68eb14a581565b60015481565b6020808301516040516108429201611365565b604051602081830303815290604052805190602001206108606107da565b1461087d5760405162461bcd60e51b815260040161026d90611844565b8160c00151600054146108a25760405162461bcd60e51b815260040161026d906116ad565b6108fa6108f0826001546108b68787610c9d565b80516020918201206040516108cc9392016114c3565b60405160208183030381529060405280519060200120610d4a90919063ffffffff16565b8360200151610d95565b6109165760405162461bcd60e51b815260040161026d906117d6565b505050565b600060606001600160a01b03871661099457856001600160a01b031685859060405161094690610332565b600060405180830381858888f193505050503d8060008114610984576040519150601f19603f3d011682016040523d82523d6000602084013e610989565b606091505b509092509050610a5f565b866001600160a01b03168487876040516024016109b292919061155b565b60408051601f198184030181529181526020820180517bffffffffffffffffffffffffffffffffffffffffffffffffffffffff167fa9059cbb0000000000000000000000000000000000000000000000000000000017905251610a15919061143e565b60006040518083038160008787f1925050503d8060008114610a53576040519150601f19603f3d011682016040523d82523d6000602084013e610a58565b606091505b5090925090505b818015610a84575080511580610a84575080806020019051810190610a849190611229565b8390610aa35760405162461bcd60e51b815260040161026d91906115f5565b5050505050505050565b600081604051602001610ac09190611365565b60408051601f1981840301815291905280516020909101207fa7b53796fd2d99cb1f5ae019b54f9e024446c3d12b483f733ccc62ed04eb126a555050565b6000606083610b6c57856001600160a01b03168584604051610b20919061143e565b60006040518083038185875af1925050503d8060008114610b5d576040519150601f19603f3d011682016040523d82523d6000602084013e610b62565b606091505b5091509150610bcf565b856001600160a01b0316848685604051610b86919061143e565b600060405180830381858888f193505050503d8060008114610bc4576040519150601f19603f3d011682016040523d82523d6000602084013e610bc9565b606091505b50915091505b94509492505050565b8151610bf8578060405162461bcd60e51b815260040161026d91906115f5565b815160208301fd5b7f8b73c3c69bb8fe3d512ecc4cf759cc79239f7b179b0ffacaa9a75d522b39400f7fd41b7f69f4d7734774d21b5548d74704ad02f9f1545db63927a1d58479c576c87fad7c5bef027816a800da1736444fb58a807ef4c9603b7848673f7e3a68eb14a5610c6b610df0565b30604051602001610c809594939291906115ab565b60408051601f198184030181529190528051602090910120600155565b8051602080830151604080850151606086810151608088015160a089015160c08a015160e08b01516101008c01516101208d01516101408e01518051908d01209951979c7fdbc4f1d96529fadae86244f9c7b2dc871009d2ad633f32fb7833efcc2c0d53709c610d129c919b919a99016114f9565b60408051601f1981840301815290829052610d3292918690602001611401565b60405160208183030381529060405290505b92915050565b60008151604114610d6d5760405162461bcd60e51b815260040161026d90611676565b60208201516040830151606084015160001a610d8b86828585610df4565b9695505050505050565b6000816001600160a01b0316836001600160a01b0316148015610dd5575073dcc703c0e500b653ca82273b7bfad8045d85a4706001600160a01b03841614155b8015610de957506001600160a01b03831615155b9392505050565b4690565b60007f7fffffffffffffffffffffffffffffff5d576e7357a4501ddfe92f46681b20a0821115610e365760405162461bcd60e51b815260040161026d9061171b565b8360ff16601b1480610e4b57508360ff16601c145b610e675760405162461bcd60e51b815260040161026d90611794565b600060018686868660405160008152602001604052604051610e8c94939291906115d7565b6020604051602081039080840390855afa158015610eae573d6000803e3d6000fd5b5050604051601f1901519150506001600160a01b038116610ee15760405162461bcd60e51b815260040161026d90611608565b95945050505050565b80356001600160a01b0381168114610d4457600080fd5b60008083601f840112610f12578182fd5b50813567ffffffffffffffff811115610f29578182fd5b602083019150836020828501011115610f4157600080fd5b9250929050565b600082601f830112610f58578081fd5b813567ffffffffffffffff811115610f6e578182fd5b610f81601f8201601f1916602001611879565b9150808252836020828501011115610f9857600080fd5b8060208401602084013760009082016020015292915050565b6000610160808385031215610fc4578182fd5b610fcd81611879565b915050610fda8383610eea565b8152610fe98360208401610eea565b6020820152610ffb8360408401610eea565b604082015261100d8360608401610eea565b60608201526080820135608082015260a082013560a082015260c082013560c082015260e082013560e08201526101008083013581830152506101208083013581830152506101408083013567ffffffffffffffff81111561106e57600080fd5b61107a85828601610f48565b82840152505092915050565b600080600080600080600060c0888a0312156110a0578283fd5b6110aa8989610eea565b96506110b98960208a01610eea565b95506110c88960408a01610eea565b94506110d78960608a01610eea565b93506080880135925060a088013567ffffffffffffffff8111156110f9578283fd5b6111058a828b01610f01565b989b979a50959850939692959293505050565b6000806000806000806000806000806101208b8d031215611137578283fd5b6111418c8c610eea565b99506111508c60208d01610eea565b985061115f8c60408d01610eea565b975060608b0135965060808b0135955061117c8c60a08d01610eea565b945060c08b0135935060e08b013592506101008b013567ffffffffffffffff8111156111a6578283fd5b6111b28d828e01610f01565b915080935050809150509295989b9194979a5092959850565b6000806000604084860312156111df578283fd5b83356001600160a01b03811681146111f5578384fd5b9250602084013567ffffffffffffffff811115611210578283fd5b61121c86828701610f01565b9497909650939450505050565b60006020828403121561123a578081fd5b81518015158114610de9578182fd5b600080600080600060808688031215611260578081fd5b85359450602086013567ffffffffffffffff8082111561127e578283fd5b61128a89838a01610fb1565b95506112998960408a01610eea565b945060608801359150808211156112ae578283fd5b506112bb88828901610f01565b969995985093965092949392505050565b600080600080606085870312156112e1578384fd5b84359350602085013567ffffffffffffffff808211156112ff578485fd5b61130b88838901610fb1565b94506040870135915080821115611320578384fd5b5061132d87828801610f01565b95989497509550505050565b600081518084526113518160208601602086016118a0565b601f01601f19169290920160200192915050565b60609190911b6bffffffffffffffffffffffff1916815260140190565b6bffffffffffffffffffffffff19606094851b811682529290931b9091166014830152602882015260480190565b7fff0000000000000000000000000000000000000000000000000000000000000094909416845260609290921b6bffffffffffffffffffffffff191660018401526015830152603582015260550190565b600084825283516114198160208501602088016118a0565b60209201918201929092526040019392505050565b6000828483379101908152919050565b600082516114508184602087016118a0565b9190910192915050565b7f602d3d8160093d39f3363d3d373d3d3d3d363d73000000000000000000000000815260609190911b6bffffffffffffffffffffffff191660148201527f5af43d923d90803e602b57fd5bf3000000000000000000000000000000000000602882015260360190565b7f190100000000000000000000000000000000000000000000000000000000000081526002810192909252602282015260420190565b6001600160a01b039b8c168152998b1660208b0152978a1660408a0152959098166060880152608087019390935260a086019190915260c085015260e08401526101008301939093526101208201929092526101408101919091526101600190565b6001600160a01b03929092168252602082015260400190565b901515815260200190565b600083151582526040602083015261159a6040830184611339565b949350505050565b90815260200190565b9485526020850193909352604084019190915260608301526001600160a01b0316608082015260a00190565b93845260ff9290921660208401526040830152606082015260800190565b600060208252610de96020830184611339565b60208082526018908201527f45434453413a20696e76616c6964207369676e61747572650000000000000000604082015260600190565b60208082526011908201527f496e76616c6964207265636f7665726572000000000000000000000000000000604082015260600190565b6020808252601f908201527f45434453413a20696e76616c6964207369676e6174757265206c656e67746800604082015260600190565b6020808252600e908201527f6e6f6e6365206d69736d61746368000000000000000000000000000000000000604082015260600190565b6020808252600e908201527f496e76616c69642063616c6c6572000000000000000000000000000000000000604082015260600190565b60208082526022908201527f45434453413a20696e76616c6964207369676e6174757265202773272076616c604082015261756560f01b606082015260800190565b60208082526013908201527f53573a2072657175657374206578706972656400000000000000000000000000604082015260600190565b60208082526022908201527f45434453413a20696e76616c6964207369676e6174757265202776272076616c604082015261756560f01b606082015260800190565b60208082526012908201527f5369676e6174757265206d69736d617463680000000000000000000000000000604082015260600190565b60208082526013908201527f416c726561647920696e697469616c697a656400000000000000000000000000604082015260600190565b6020808252818101527f4e6f7420746865206f776e6572206f662074686520536d61727457616c6c6574604082015260600190565b60405181810167ffffffffffffffff8111828210171561189857600080fd5b604052919050565b60005b838110156118bb5781810151838201526020016118a3565b83811115610217575050600091015256fea2646970667358221220be548172237ce66439571e5f0886bf86597bc1380acba24782131da0a015f9fc64736f6c634300060c0033",
  "linkReferences": {},
  "deployedLinkReferences": {}
}