{
  "_format": "hh-sol-artifact-1",
  "contractName": "BoltzSmartWalletFactory",
  "sourceName": "contracts/factory/BoltzSmartWalletFactory.sol",
  "abi": [
    {
      "inputs": [
        {
          "internalType": "address",
          "name": "forwarderTemplate",
          "type": "address"
        }
      ],
      "stateMutability": "nonpayable",
      "type": "constructor"
    },
    {
      "anonymous": false,
      "inputs": [
        {
          "indexed": true,
          "internalType": "address",
          "name": "addr",
          "type": "address"
        },
        {
          "indexed": false,
          "internalType": "uint256",
          "name": "salt",
          "type": "uint256"
        }
      ],
      "name": "Deployed",
      "type": "event"
    },
    {
      "inputs": [],
      "name": "DATA_VERSION_HASH",
      "outputs": [
        {
          "internalType": "bytes32",
          "name": "",
          "type": "bytes32"
        }
      ],
      "stateMutability": "view",
      "type": "function"
    },
    {
      "inputs": [
        {
          "internalType": "address",
          "name": "owner",
          "type": "address"
        },
        {
          "internalType": "address",
          "name": "recoverer",
          "type": "address"
        },
        {
          "internalType": "uint256",
          "name": "index",
          "type": "uint256"
        },
        {
          "internalType": "bytes",
          "name": "sig",
          "type": "bytes"
        }
      ],
      "name": "createUserSmartWallet",
      "outputs": [],
      "stateMutability": "nonpayable",
      "type": "function"
    },
    {
      "inputs": [],
      "name": "domainSeparator",
      "outputs": [
        {
          "internalType": "bytes32",
          "name": "",
          "type": "bytes32"
        }
      ],
      "stateMutability": "view",
      "type": "function"
    },
    {
      "inputs": [],
      "name": "getCreationBytecode",
      "outputs": [
        {
          "internalType": "bytes",
          "name": "",
          "type": "bytes"
        }
      ],
      "stateMutability": "view",
      "type": "function"
    },
    {
      "inputs": [
        {
          "internalType": "address",
          "name": "owner",
          "type": "address"
        },
        {
          "internalType": "address",
          "name": "recoverer",
          "type": "address"
        },
        {
          "internalType": "uint256",
          "name": "index",
          "type": "uint256"
        }
      ],
      "name": "getSmartWalletAddress",
      "outputs": [
        {
          "internalType": "address",
          "name": "",
          "type": "address"
        }
      ],
      "stateMutability": "view",
      "type": "function"
    },
    {
      "inputs": [],
      "name": "masterCopy",
      "outputs": [
        {
          "internalType": "address",
          "name": "",
          "type": "address"
        }
      ],
      "stateMutability": "view",
      "type": "function"
    },
    {
      "inputs": [
        {
          "internalType": "address",
          "name": "from",
          "type": "address"
        }
      ],
      "name": "nonce",
      "outputs": [
        {
          "internalType": "uint256",
          "name": "",
          "type": "uint256"
        }
      ],
      "stateMutability": "view",
      "type": "function"
    },
    {
      "inputs": [
        {
          "components": [
            {
              "internalType": "address",
              "name": "relayHub",
              "type": "address"
            },
            {
              "internalType": "address",
              "name": "from",
              "type": "address"
            },
            {
              "internalType": "address",
              "name": "to",
              "type": "address"
            },
            {
              "internalType": "address",
              "name": "tokenContract",
              "type": "address"
            },
            {
              "internalType": "address",
              "name": "recoverer",
              "type": "address"
            },
            {
              "internalType": "uint256",
              "name": "value",
              "type": "uint256"
            },
            {
              "internalType": "uint256",
              "name": "nonce",
              "type": "uint256"
            },
            {
              "internalType": "uint256",
              "name": "tokenAmount",
              "type": "uint256"
            },
            {
              "internalType": "uint256",
              "name": "tokenGas",
              "type": "uint256"
            },
            {
              "internalType": "uint256",
              "name": "validUntilTime",
              "type": "uint256"
            },
            {
              "internalType": "uint256",
              "name": "index",
              "type": "uint256"
            },
            {
              "internalType": "bytes",
              "name": "data",
              "type": "bytes"
            }
          ],
          "internalType": "struct IForwarder.DeployRequest",
          "name": "req",
          "type": "tuple"
        },
        {
          "internalType": "bytes32",
          "name": "suffixData",
          "type": "bytes32"
        },
        {
          "internalType": "address",
          "name": "feesReceiver",
          "type": "address"
        },
        {
          "internalType": "bytes",
          "name": "sig",
          "type": "bytes"
        }
      ],
      "name": "relayedUserSmartWalletCreation",
      "outputs": [],
      "stateMutability": "nonpayable",
      "type": "function"
    },
    {
      "inputs": [],
      "name": "runtimeCodeHash",
      "outputs": [
        {
          "internalType": "bytes32",
          "name": "",
          "type": "bytes32"
        }
      ],
      "stateMutability": "view",
      "type": "function"
    }
  ],
  "bytecode": "0x60c06040527f8b73c3c69bb8fe3d512ecc4cf759cc79239f7b179b0ffacaa9a75d522b39400f7fd41b7f69f4d7734774d21b5548d74704ad02f9f1545db63927a1d58479c576c87fad7c5bef027816a800da1736444fb58a807ef4c9603b7848673f7e3a68eb14a561006f6100df565b30604051602001610084959493929190610111565b60408051601f19818403018152919052805160209091012060a0523480156100ab57600080fd5b5060405161150c38038061150c8339810160408190526100ca916100e3565b60601b6001600160601b03191660805261013d565b4690565b6000602082840312156100f4578081fd5b81516001600160a01b038116811461010a578182fd5b9392505050565b9485526020850193909352604084019190915260608301526001600160a01b0316608082015260a00190565b60805160601c60a05161139a6101726000398061061c52806106865250806102f152806103ee52806105b4525061139a6000f3fe608060405234801561001057600080fd5b50600436106100a35760003560e01c8063a619486e11610076578063dc89745f1161005b578063dc89745f1461011e578063f5e87b3914610131578063f698da2514610146576100a3565b8063a619486e1461010e578063b3104ef614610116576100a3565b806312c3754c146100a85780632046776e146100bd5780636088665e146100db57806370ae92d2146100fb575b600080fd5b6100bb6100b6366004610bd5565b61014e565b005b6100c56102de565b6040516100d291906110b6565b60405180910390f35b6100ee6100e9366004610b26565b61035e565b6040516100d29190610f83565b6100c5610109366004610b0b565b6103d1565b6100ee6103ec565b6100c5610410565b6100bb61012c366004610b66565b610434565b6101396105a1565b6040516100d291906110dd565b6100c561061a565b84516001600160a01b031633146101805760405162461bcd60e51b815260040161017790611195565b60405180910390fd5b6101c1858584848080601f01602080910402602001604051908101604052809392919081815260200183838082843760009201919091525061063e92505050565b61012085015115806101d7575042856101200151115b6101f35760405162461bcd60e51b815260040161017790611245565b6020808601516001600160a01b031660009081529081905260409020805460010190556102d66102216105a1565b60208088015160808901516101408a015160405161023f9401610d80565b6040516020818303038152906040528051906020012087602001518860600151878a60e001518b61010001518c604001518d60a001518e6101600151604051602401610292989796959493929190611058565b60408051601f198184030181529190526020810180517bffffffffffffffffffffffffffffffffffffffffffffffffffffffff1663301eb6f760e21b179052610714565b505050505050565b60006a363d3d373d3d3d3d363d7360a81b7f00000000000000000000000000000000000000000000000000000000000000007f5af43d923d90803e602b57fd5bf300000000000000000000000000000000000060405160200161034393929190610dae565b60405160208183030381529060405280519060200120905090565b600060ff60f81b3085858560405160200161037b93929190610d80565b604051602081830303815290604052805190602001206103996105a1565b80516020918201206040516103b19594939201610e05565b60408051601f198184030181529190528051602090910120949350505050565b6001600160a01b031660009081526020819052604090205490565b7f000000000000000000000000000000000000000000000000000000000000000081565b7fad7c5bef027816a800da1736444fb58a807ef4c9603b7848673f7e3a68eb14a581565b60003086868660405160200161044d9493929190610d45565b6040516020818303038152906040528051906020012090506000816040516020016104789190610e9f565b6040516020818303038152906040528051906020012090506104db6104d585858080601f01602080910402602001604051908101604052809392919081815260200183838082843760009201919091525086939250506107ea9050565b88610837565b6104f75760405162461bcd60e51b8152600401610177906111cc565b6060876000806000806000806040516024016105199796959493929190610f97565b60408051601f198184030181529190526020810180517bffffffffffffffffffffffffffffffffffffffffffffffffffffffff1663301eb6f760e21b17905290506105966105656105a1565b89898960405160200161057a93929190610d80565b6040516020818303038152906040528051906020012083610714565b505050505050505050565b60606a363d3d373d3d3d3d363d7360a81b7f00000000000000000000000000000000000000000000000000000000000000007f5af43d923d90803e602b57fd5bf300000000000000000000000000000000000060405160200161060693929190610f06565b604051602081830303815290604052905090565b7f000000000000000000000000000000000000000000000000000000000000000081565b60c08301516020808501516001600160a01b031660009081529081905260409020541461067d5760405162461bcd60e51b81526004016101779061115e565b6106f36106e9827f00000000000000000000000000000000000000000000000000000000000000006106af8787610892565b80516020918201206040516106c5939201610ed0565b604051602081830303815290604052805190602001206107ea90919063ffffffff16565b8460200151610837565b61070f5760405162461bcd60e51b8152600401610177906112be565b505050565b6000828451602086016000f59050803b61072d57600080fd5b60006060826001600160a01b0316846040516107499190610e83565b6000604051808303816000865af19150503d8060008114610786576040519150601f19603f3d011682016040523d82523d6000602084013e61078b565b606091505b50915091508161079d57805160208201fd5b826001600160a01b03167fb03c53b28e78a88e31607a27e1fa48234dce28d5d9d9ec7b295aeb02e674a1e18660001c6040516107d991906110b6565b60405180910390a250509392505050565b6000815160411461080d5760405162461bcd60e51b815260040161017790611127565b60208201516040830151606084015160001a61082b8682858561094e565b93505050505b92915050565b6000816001600160a01b0316836001600160a01b0316148015610877575073dcc703c0e500b653ca82273b7bfad8045d85a4706001600160a01b03841614155b801561088b57506001600160a01b03831615155b9392505050565b60607fcfc8dd5219e39f43cc81cdcbf3b09a47b13a20a7e09d743bc2266fb814ee2f01836000015184602001518560400151866060015187608001518860a001518960c001518a60e001518b61010001518c61012001518d61014001518e6101600151805190602001206040516020016109179c9b9a99989796959493929190610fed565b60408051601f198184030181529082905261093792918590602001610e56565b604051602081830303815290604052905092915050565b60007f7fffffffffffffffffffffffffffffff5d576e7357a4501ddfe92f46681b20a08211156109905760405162461bcd60e51b815260040161017790611203565b8360ff16601b14806109a557508360ff16601c145b6109c15760405162461bcd60e51b81526004016101779061127c565b6000600186868686604051600081526020016040526040516109e694939291906110bf565b6020604051602081039080840390855afa158015610a08573d6000803e3d6000fd5b5050604051601f1901519150506001600160a01b038116610a3b5760405162461bcd60e51b8152600401610177906110f0565b95945050505050565b80356001600160a01b038116811461083157600080fd5b60008083601f840112610a6c578182fd5b50813567ffffffffffffffff811115610a83578182fd5b602083019150836020828501011115610a9b57600080fd5b9250929050565b600082601f830112610ab2578081fd5b813567ffffffffffffffff811115610ac8578182fd5b610adb601f8201601f19166020016112f5565b9150808252836020828501011115610af257600080fd5b8060208401602084013760009082016020015292915050565b600060208284031215610b1c578081fd5b61088b8383610a44565b600080600060608486031215610b3a578182fd5b8335610b458161134c565b92506020840135610b558161134c565b929592945050506040919091013590565b600080600080600060808688031215610b7d578081fd5b610b878787610a44565b9450610b968760208801610a44565b935060408601359250606086013567ffffffffffffffff811115610bb8578182fd5b610bc488828901610a5b565b969995985093965092949392505050565b600080600080600060808688031215610bec578081fd5b853567ffffffffffffffff80821115610c03578283fd5b818801915061018080838b031215610c19578384fd5b610c22816112f5565b9050610c2e8a84610a44565b8152610c3d8a60208501610a44565b6020820152610c4f8a60408501610a44565b6040820152610c618a60608501610a44565b6060820152610c738a60808501610a44565b608082015260a083013560a082015260c083013560c082015260e083013560e08201526101008084013581830152506101208084013581830152506101408084013581830152506101608084013583811115610ccd578586fd5b610cd98c828701610aa2565b8284015250508097505060208801359550610cf78960408a01610a44565b94506060880135915080821115610d0c578283fd5b50610bc488828901610a5b565b60008151808452610d3181602086016020860161131c565b601f01601f19169290920160200192915050565b6bffffffffffffffffffffffff19606095861b8116825293851b841660148201529190931b9091166028820152603c810191909152605c0190565b6bffffffffffffffffffffffff19606094851b811682529290931b9091166014830152602882015260480190565b74ffffffffffffffffffffffffffffffffffffffffff1993909316835260609190911b6bffffffffffffffffffffffff1916600b83015271ffffffffffffffffffffffffffffffffffff1916601f820152602d0190565b7fff0000000000000000000000000000000000000000000000000000000000000094909416845260609290921b6bffffffffffffffffffffffff191660018401526015830152603582015260550190565b60008482528351610e6e81602085016020880161131c565b60209201918201929092526040019392505050565b60008251610e9581846020870161131c565b9190910192915050565b7f19457468657265756d205369676e6564204d6573736167653a0a3332000000008152601c810191909152603c0190565b7f190100000000000000000000000000000000000000000000000000000000000081526002810192909252602282015260420190565b7f602d3d8160093d39f30000000000000000000000000000000000000000000000815274ffffffffffffffffffffffffffffffffffffffffff1993909316600984015260609190911b6bffffffffffffffffffffffff1916601483015271ffffffffffffffffffffffffffffffffffff1916602882015260360190565b6001600160a01b0391909116815260200190565b6001600160a01b0397881681529587166020870152938616604086015260ff9283166060860152908216608085015290931660a083015290911660c082015261010060e082018190526000908201526101200190565b6001600160a01b039c8d1681529a8c1660208c0152988b1660408b0152968a1660608a015294909816608088015260a087019290925260c086015260e08501526101008401949094526101208301939093526101408201929092526101608101919091526101800190565b60006101006001600160a01b03808c168452808b166020850152808a16604085015288606085015287608085015280871660a0850152508460c08401528060e08401526110a781840185610d19565b9b9a5050505050505050505050565b90815260200190565b93845260ff9290921660208401526040830152606082015260800190565b60006020825261088b6020830184610d19565b60208082526018908201527f45434453413a20696e76616c6964207369676e61747572650000000000000000604082015260600190565b6020808252601f908201527f45434453413a20696e76616c6964207369676e6174757265206c656e67746800604082015260600190565b6020808252600e908201527f6e6f6e6365206d69736d61746368000000000000000000000000000000000000604082015260600190565b6020808252600e908201527f496e76616c69642063616c6c6572000000000000000000000000000000000000604082015260600190565b60208082526011908201527f496e76616c6964207369676e6174757265000000000000000000000000000000604082015260600190565b60208082526022908201527f45434453413a20696e76616c6964207369676e6174757265202773272076616c604082015261756560f01b606082015260800190565b60208082526013908201527f53573a2072657175657374206578706972656400000000000000000000000000604082015260600190565b60208082526022908201527f45434453413a20696e76616c6964207369676e6174757265202776272076616c604082015261756560f01b606082015260800190565b60208082526012908201527f5369676e6174757265206d69736d617463680000000000000000000000000000604082015260600190565b60405181810167ffffffffffffffff8111828210171561131457600080fd5b604052919050565b60005b8381101561133757818101518382015260200161131f565b83811115611346576000848401525b50505050565b6001600160a01b038116811461136157600080fd5b5056fea2646970667358221220b71263eea50ba309017f426338d036091a8df435a815beb595fcff5bea9e3d6b64736f6c634300060c0033",
  "linkReferences": {},
  "deployedLinkReferences": {}
}