{
  "_format": "hh-sol-artifact-1",
  "contractName": "BoltzDeployVerifier",
  "sourceName": "contracts/verifier/BoltzDeployVerifier.sol",
  "abi": [
    {
      "inputs": [
        {
          "internalType": "address",
          "name": "walletFactory",
          "type": "address"
        }
      ],
      "stateMutability": "nonpayable",
      "type": "constructor"
    },
    {
      "anonymous": false,
      "inputs": [
        {
          "indexed": true,
          "internalType": "address",
          "name": "previousOwner",
          "type": "address"
        },
        {
          "indexed": true,
          "internalType": "address",
          "name": "newOwner",
          "type": "address"
        }
      ],
      "name": "OwnershipTransferred",
      "type": "event"
    },
    {
      "inputs": [
        {
          "internalType": "address",
          "name": "destinationContract",
          "type": "address"
        }
      ],
      "name": "acceptContract",
      "outputs": [],
      "stateMutability": "nonpayable",
      "type": "function"
    },
    {
      "inputs": [
        {
          "internalType": "address",
          "name": "token",
          "type": "address"
        }
      ],
      "name": "acceptToken",
      "outputs": [],
      "stateMutability": "nonpayable",
      "type": "function"
    },
    {
      "inputs": [
        {
          "internalType": "uint256",
          "name": "",
          "type": "uint256"
        }
      ],
      "name": "acceptedContracts",
      "outputs": [
        {
          "internalType": "address",
          "name": "",
          "type": "address"
        }
      ],
      "stateMutability": "view",
      "type": "function"
    },
    {
      "inputs": [
        {
          "internalType": "uint256",
          "name": "",
          "type": "uint256"
        }
      ],
      "name": "acceptedTokens",
      "outputs": [
        {
          "internalType": "address",
          "name": "",
          "type": "address"
        }
      ],
      "stateMutability": "view",
      "type": "function"
    },
    {
      "inputs": [
        {
          "internalType": "address",
          "name": "destinationContract",
          "type": "address"
        }
      ],
      "name": "acceptsContract",
      "outputs": [
        {
          "internalType": "bool",
          "name": "",
          "type": "bool"
        }
      ],
      "stateMutability": "view",
      "type": "function"
    },
    {
      "inputs": [
        {
          "internalType": "address",
          "name": "token",
          "type": "address"
        }
      ],
      "name": "acceptsToken",
      "outputs": [
        {
          "internalType": "bool",
          "name": "",
          "type": "bool"
        }
      ],
      "stateMutability": "view",
      "type": "function"
    },
    {
      "inputs": [
        {
          "internalType": "address",
          "name": "",
          "type": "address"
        }
      ],
      "name": "contracts",
      "outputs": [
        {
          "internalType": "bool",
          "name": "",
          "type": "bool"
        }
      ],
      "stateMutability": "view",
      "type": "function"
    },
    {
      "inputs": [
        {
          "internalType": "address",
          "name": "destinationContract",
          "type": "address"
        }
      ],
      "name": "destinationContractValidation",
      "outputs": [],
      "stateMutability": "view",
      "type": "function"
    },
    {
      "inputs": [],
      "name": "getAcceptedContracts",
      "outputs": [
        {
          "internalType": "address[]",
          "name": "",
          "type": "address[]"
        }
      ],
      "stateMutability": "view",
      "type": "function"
    },
    {
      "inputs": [],
      "name": "getAcceptedTokens",
      "outputs": [
        {
          "internalType": "address[]",
          "name": "",
          "type": "address[]"
        }
      ],
      "stateMutability": "view",
      "type": "function"
    },
    {
      "inputs": [],
      "name": "owner",
      "outputs": [
        {
          "internalType": "address",
          "name": "",
          "type": "address"
        }
      ],
      "stateMutability": "view",
      "type": "function"
    },
    {
      "inputs": [
        {
          "internalType": "address",
          "name": "destinationContract",
          "type": "address"
        },
        {
          "internalType": "uint256",
          "name": "index",
          "type": "uint256"
        }
      ],
      "name": "removeContract",
      "outputs": [],
      "stateMutability": "nonpayable",
      "type": "function"
    },
    {
      "inputs": [
        {
          "internalType": "address",
          "name": "token",
          "type": "address"
        },
        {
          "internalType": "uint256",
          "name": "index",
          "type": "uint256"
        }
      ],
      "name": "removeToken",
      "outputs": [],
      "stateMutability": "nonpayable",
      "type": "function"
    },
    {
      "inputs": [
        {
          "internalType": "address",
          "name": "",
          "type": "address"
        }
      ],
      "name": "tokens",
      "outputs": [
        {
          "internalType": "bool",
          "name": "",
          "type": "bool"
        }
      ],
      "stateMutability": "view",
      "type": "function"
    },
    {
      "inputs": [
        {
          "internalType": "address",
          "name": "newOwner",
          "type": "address"
        }
      ],
      "name": "transferOwnership",
      "outputs": [],
      "stateMutability": "nonpayable",
      "type": "function"
    },
    {
      "inputs": [
        {
          "components": [
            {
              "components": [
                {
                  "internalType": "address",
                  "name": "relayHub",
                  "type": "address"
                },
                {
                  "internalType": "address",
                  "name": "from",
                  "type": "address"
                },
                {
                  "internalType": "address",
                  "name": "to",
                  "type": "address"
                },
                {
                  "internalType": "address",
                  "name": "tokenContract",
                  "type": "address"
                },
                {
                  "internalType": "address",
                  "name": "recoverer",
                  "type": "address"
                },
                {
                  "internalType": "uint256",
                  "name": "value",
                  "type": "uint256"
                },
                {
                  "internalType": "uint256",
                  "name": "nonce",
                  "type": "uint256"
                },
                {
                  "internalType": "uint256",
                  "name": "tokenAmount",
                  "type": "uint256"
                },
                {
                  "internalType": "uint256",
                  "name": "tokenGas",
                  "type": "uint256"
                },
                {
                  "internalType": "uint256",
                  "name": "validUntilTime",
                  "type": "uint256"
                },
                {
                  "internalType": "uint256",
                  "name": "index",
                  "type": "uint256"
                },
                {
                  "internalType": "bytes",
                  "name": "data",
                  "type": "bytes"
                }
              ],
              "internalType": "struct IForwarder.DeployRequest",
              "name": "request",
              "type": "tuple"
            },
            {
              "components": [
                {
                  "internalType": "uint256",
                  "name": "gasPrice",
                  "type": "uint256"
                },
                {
                  "internalType": "address",
                  "name": "feesReceiver",
                  "type": "address"
                },
                {
                  "internalType": "address",
                  "name": "callForwarder",
                  "type": "address"
                },
                {
                  "internalType": "address",
                  "name": "callVerifier",
                  "type": "address"
                }
              ],
              "internalType": "struct EnvelopingTypes.RelayData",
              "name": "relayData",
              "type": "tuple"
            }
          ],
          "internalType": "struct EnvelopingTypes.DeployRequest",
          "name": "relayRequest",
          "type": "tuple"
        },
        {
          "internalType": "bytes",
          "name": "signature",
          "type": "bytes"
        }
      ],
      "name": "verifyRelayedCall",
      "outputs": [
        {
          "internalType": "bytes",
          "name": "context",
          "type": "bytes"
        }
      ],
      "stateMutability": "nonpayable",
      "type": "function"
    },
    {
      "inputs": [],
      "name": "versionVerifier",
      "outputs": [
        {
          "internalType": "string",
          "name": "",
          "type": "string"
        }
      ],
      "stateMutability": "view",
      "type": "function"
    }
  ],
  "bytecode": "0x60a060405234801561001057600080fd5b50604051611abc380380611abc83398101604081905261002f9161008d565b600080546001600160a01b03191633178082556040516001600160a01b039190911691907f8be0079c531659141344cd1fd0a4f28419497f9722a3daafe3b4186f6b6457e0908290a360601b6001600160601b0319166080526100bb565b60006020828403121561009e578081fd5b81516001600160a01b03811681146100b4578182fd5b9392505050565b60805160601c6119e46100d8600039806105f752506119e46000f3fe608060405234801561001057600080fd5b506004361061011b5760003560e01c80637d2f1c28116100b257806393a7a3c711610081578063d3f1e80811610066578063d3f1e80814610248578063e486033914610250578063f2fde38b146102635761011b565b806393a7a3c71461022257806397623158146102355761011b565b80637d2f1c28146101e1578063868399a5146101f45780638cd3f064146102075780638da5cb5b1461021a5761011b565b806336c87754116100ee57806336c877541461017b5780633739d4561461019b5780635256a8ef146101ae57806369dc9ff3146101c15761011b565b806301171e3a1461012057806313baf1e6146101355780631dac0746146101485780632f75700614610166575b600080fd5b61013361012e3660046111b1565b610276565b005b6101336101433660046111b1565b6103e8565b610150610544565b60405161015d91906114a5565b60405180910390f35b61016e610564565b60405161015d9190611421565b61018e61018936600461135d565b6105c6565b60405161015d91906113c6565b6101506101a9366004611214565b6105ed565b6101336101bc366004611179565b61086c565b6101d46101cf366004611179565b610978565b60405161015d919061146e565b6101336101ef366004611179565b61098d565b6101d4610202366004611179565b6109c8565b610133610215366004611179565b6109e6565b61018e610b05565b6101d4610230366004611179565b610b14565b61018e61024336600461135d565b610b32565b61016e610b3f565b6101d461025e366004611179565b610b9f565b610133610271366004611179565b610bb4565b6000546001600160a01b031633146102a95760405162461bcd60e51b81526004016102a0906114b8565b60405180910390fd5b6001600160a01b03821660009081526003602052604090205460ff166102e15760405162461bcd60e51b81526004016102a09061185d565b600481815481106102ee57fe5b6000918252602090912001546001600160a01b038381169116146103245760405162461bcd60e51b81526004016102a0906115cb565b6001600160a01b0382166000908152600360205260409020805460ff1916905560048054600019810190811061035657fe5b600091825260209091200154600480546001600160a01b03909216918390811061037c57fe5b9060005260206000200160006101000a8154816001600160a01b0302191690836001600160a01b0316021790555060048054806103b557fe5b6000828152602090208101600019908101805473ffffffffffffffffffffffffffffffffffffffff191690550190555050565b6000546001600160a01b031633146104125760405162461bcd60e51b81526004016102a0906114b8565b6001600160a01b0382166104385760405162461bcd60e51b81526004016102a0906116de565b6001600160a01b03821660009081526001602052604090205460ff166104705760405162461bcd60e51b81526004016102a09061155d565b6002818154811061047d57fe5b6000918252602090912001546001600160a01b038381169116146104b35760405162461bcd60e51b81526004016102a090611594565b6001600160a01b0382166000908152600160205260409020805460ff191690556002805460001981019081106104e557fe5b600091825260209091200154600280546001600160a01b03909216918390811061050b57fe5b9060005260206000200160006101000a8154816001600160a01b0302191690836001600160a01b0316021790555060028054806103b557fe5b606060405180606001604052806024815260200161198b60249139905090565b606060028054806020026020016040519081016040528092919081815260200182805480156105bc57602002820191906000526020600020905b81546001600160a01b0316815260019091019060200180831161059e575b5050505050905090565b600281815481106105d357fe5b6000918252602090912001546001600160a01b0316905081565b6060600061061b857f0000000000000000000000000000000000000000000000000000000000000000610c6c565b905061063b61062a86806118e0565b6101ef906060810190604001611179565b600061064786806118e0565b60e00135111561081757600061065d86806118e0565b61066e906080810190606001611179565b6001600160a01b03161461079b576001600061068a87806118e0565b61069b906080810190606001611179565b6001600160a01b0316815260208101919091526040016000205460ff166106d45760405162461bcd60e51b81526004016102a0906114ef565b6106de85806118e0565b6106ef906080810190606001611179565b6001600160a01b03166370a08231826040518263ffffffff1660e01b815260040161071a91906113c6565b60206040518083038186803b15801561073257600080fd5b505afa158015610746573d6000803e3d6000fd5b505050506040513d601f19601f8201168201806040525081019061076a91906111fc565b61077486806118e0565b60e0013511156107965760405162461bcd60e51b81526004016102a090611639565b610817565b60006107da6107aa87806118e0565b6107b990610160810190611894565b6107c389806118e0565b6107d4906060810190604001611179565b85610db0565b90506001600160a01b0382163181016107f387806118e0565b60e0013511156108155760405162461bcd60e51b81526004016102a0906116a7565b505b8061082286806118e0565b60e0013561083087806118e0565b610841906080810190606001611179565b604051602001610853939291906113fe565b6040516020818303038152906040529150509392505050565b6000546001600160a01b031633146108965760405162461bcd60e51b81526004016102a0906114b8565b6001600160a01b03811615806108b057506108b081611110565b6108cc5760405162461bcd60e51b81526004016102a090611781565b6001600160a01b03811660009081526003602052604090205460ff16156109055760405162461bcd60e51b81526004016102a090611526565b6001600160a01b03166000818152600360205260408120805460ff191660019081179091556004805491820181559091527f8a35acfbc15ff81a39ae7d344fd709f28e8600b4aa8c65c6b64bfe7fe36bd19b01805473ffffffffffffffffffffffffffffffffffffffff19169091179055565b60036020526000908152604090205460ff1681565b6001600160a01b03811660009081526003602052604090205460ff166109c55760405162461bcd60e51b81526004016102a090611715565b50565b6001600160a01b031660009081526001602052604090205460ff1690565b6000546001600160a01b03163314610a105760405162461bcd60e51b81526004016102a0906114b8565b6001600160a01b038116610a365760405162461bcd60e51b81526004016102a0906116de565b610a3f81611110565b610a5b5760405162461bcd60e51b81526004016102a090611781565b6001600160a01b03811660009081526001602052604090205460ff1615610a945760405162461bcd60e51b81526004016102a0906117b8565b6001600160a01b031660008181526001602081905260408220805460ff1916821790556002805491820181559091527f405787fa12a823e0f2b7631cc41b3ba8828b3321ca811111fa75cd3aa3bb5ace01805473ffffffffffffffffffffffffffffffffffffffff19169091179055565b6000546001600160a01b031690565b6001600160a01b031660009081526003602052604090205460ff1690565b600481815481106105d357fe5b606060048054806020026020016040519081016040528092919081815260200182805480156105bc576020028201919060005260206000209081546001600160a01b0316815260019091019060200180831161059e575050505050905090565b60016020526000908152604090205460ff1681565b6000546001600160a01b03163314610bde5760405162461bcd60e51b81526004016102a0906114b8565b6001600160a01b038116610c045760405162461bcd60e51b81526004016102a090611602565b600080546040516001600160a01b03808516939216917f8be0079c531659141344cd1fd0a4f28419497f9722a3daafe3b4186f6b6457e091a36000805473ffffffffffffffffffffffffffffffffffffffff19166001600160a01b0392909216919091179055565b60006001600160a01b038216610c886080850160608601611179565b6001600160a01b031614610cae5760405162461bcd60e51b81526004016102a09061174a565b6000610cc06080850160608601611179565b6001600160a01b0316636088665e610cd886806118e0565b610ce9906040810190602001611179565b610cf387806118e0565b610d049060a0810190608001611179565b610d0e88806118e0565b61014001356040518463ffffffff1660e01b8152600401610d31939291906113da565b60206040518083038186803b158015610d4957600080fd5b505afa158015610d5d573d6000803e3d6000fd5b505050506040513d601f19601f82011682018060405250810190610d819190611195565b9050610d8c81611110565b15610da95760405162461bcd60e51b81526004016102a090611670565b9392505050565b600080610df286868080601f0160208091040260200160405190810160405280939291908181526020018383808284376000920182905250925061111c915050565b9050610dfc611124565b7fffffffff0000000000000000000000000000000000000000000000000000000082167fc3c37fbc000000000000000000000000000000000000000000000000000000001415610ebb57610e4e611152565b610e5b876004818b61191d565b810190610e6891906112ac565b90506040518060a001604052808260000151815260200182602001518152602001866001600160a01b0316815260200182604001516001600160a01b031681526020018260600151815250915050610f3e565b7fffffffff0000000000000000000000000000000000000000000000000000000082167fcd413efa000000000000000000000000000000000000000000000000000000001415610f2657610f12866004818a61191d565b810190610f1f91906112fb565b9050610f3e565b60405162461bcd60e51b81526004016102a0906117ef565b80516040518691600091600291610f57916020016113a1565b60408051601f1981840301815290829052610f71916113aa565b602060405180830381855afa158015610f8e573d6000803e3d6000fd5b5050506040513d601f19601f82011682018060405250810190610fb191906111fc565b90506000826001600160a01b0316638b2f8f828386602001518760400151886060015189608001516040518663ffffffff1660e01b8152600401610ff9959493929190611479565b60206040518083038186803b15801561101157600080fd5b505afa158015611025573d6000803e3d6000fd5b505050506040513d601f19601f8201168201806040525081019061104991906111fc565b6040517feb84e7f20000000000000000000000000000000000000000000000000000000081529091506001600160a01b0384169063eb84e7f2906110919084906004016113a1565b602060405180830381600087803b1580156110ab57600080fd5b505af11580156110bf573d6000803e3d6000fd5b505050506040513d601f19601f820116820180604052508101906110e391906111dc565b6110ff5760405162461bcd60e51b81526004016102a090611826565b505050602001519695505050505050565b3b63ffffffff16151590565b016020015190565b6040805160a08101825260008082526020820181905291810182905260608101829052608081019190915290565b60408051608081018252600080825260208201819052918101829052606081019190915290565b60006020828403121561118a578081fd5b8135610da981611975565b6000602082840312156111a6578081fd5b8151610da981611975565b600080604083850312156111c3578081fd5b82356111ce81611975565b946020939093013593505050565b6000602082840312156111ed578081fd5b81518015158114610da9578182fd5b60006020828403121561120d578081fd5b5051919050565b600080600060408486031215611228578081fd5b833567ffffffffffffffff8082111561123f578283fd5b9085019060a08288031215611252578283fd5b90935060208501359080821115611267578283fd5b818601915086601f83011261127a578283fd5b813581811115611288578384fd5b876020828501011115611299578384fd5b6020830194508093505050509250925092565b6000608082840312156112bd578081fd5b6112c760806118f6565b823581526020830135602082015260408301356112e381611975565b60408201526060928301359281019290925250919050565b600060a0828403121561130c578081fd5b61131660a06118f6565b8235815260208301356020820152604083013561133281611975565b6040820152606083013561134581611975565b60608201526080928301359281019290925250919050565b60006020828403121561136e578081fd5b5035919050565b6000815180845261138d816020860160208601611945565b601f01601f19169290920160200192915050565b90815260200190565b600082516113bc818460208701611945565b9190910192915050565b6001600160a01b0391909116815260200190565b6001600160a01b039384168152919092166020820152604081019190915260600190565b6001600160a01b0393841681526020810192909252909116604082015260600190565b6020808252825182820181905260009190848201906040850190845b818110156114625783516001600160a01b03168352928401929184019160010161143d565b50909695505050505050565b901515815260200190565b94855260208501939093526001600160a01b039182166040850152166060830152608082015260a00190565b600060208252610da96020830184611375565b60208082526017908201527f43616c6c6572206973206e6f7420746865206f776e6572000000000000000000604082015260600190565b6020808252601a908201527f546f6b656e20636f6e7472616374206e6f7420616c6c6f776564000000000000604082015260600190565b6020808252601c908201527f436f6e747261637420697320616c726561647920616363657074656400000000604082015260600190565b60208082526015908201527f546f6b656e206973206e6f742061636365707465640000000000000000000000604082015260600190565b60208082526011908201527f57726f6e6720746f6b656e20696e646578000000000000000000000000000000604082015260600190565b60208082526014908201527f57726f6e6720636f6e747261637420696e646578000000000000000000000000604082015260600190565b60208082526019908201527f4f776e657220697320746865207a65726f206164647265737300000000000000604082015260600190565b60208082526015908201527f546f6b656e2062616c616e636520746f6f206c6f770000000000000000000000604082015260600190565b60208082526017908201527f4164647265737320616c72656164792063726561746564000000000000000000604082015260600190565b60208082526016908201527f4e61746976652062616c616e636520746f6f206c6f7700000000000000000000604082015260600190565b6020808252601c908201527f546f6b656e2063616e6e6f74206265207a65726f206164647265737300000000604082015260600190565b6020808252818101527f44657374696e6174696f6e20636f6e7472616374206e6f7420616c6c6f776564604082015260600190565b6020808252600f908201527f496e76616c696420666163746f72790000000000000000000000000000000000604082015260600190565b60208082526019908201527f41646472657373206973206e6f74206120636f6e747261637400000000000000604082015260600190565b60208082526019908201527f546f6b656e20697320616c726561647920616363657074656400000000000000604082015260600190565b60208082526012908201527f4d6574686f64206e6f7420616c6c6f7765640000000000000000000000000000604082015260600190565b6020808252601a908201527f56657269666965723a207377617020686173206e6f2052425443000000000000604082015260600190565b60208082526018908201527f436f6e7472616374206973206e6f742061636365707465640000000000000000604082015260600190565b6000808335601e198436030181126118aa578283fd5b83018035915067ffffffffffffffff8211156118c4578283fd5b6020019150368190038213156118d957600080fd5b9250929050565b6000823561017e198336030181126113bc578182fd5b60405181810167ffffffffffffffff8111828210171561191557600080fd5b604052919050565b6000808585111561192c578182fd5b83861115611938578182fd5b5050820193919092039150565b60005b83811015611960578181015183820152602001611948565b8381111561196f576000848401525b50505050565b6001600160a01b03811681146109c557600080fdfe7269662e656e76656c6f70696e672e746f6b656e2e69766572696669657240322e302e31a26469706673582212203d0e55ccdc657673d45397c2bf14e6d9236a1d50eaca133c49422fb59821540e64736f6c634300060c0033",
  "linkReferences": {},
  "deployedLinkReferences": {}
}