{
  "_format": "hh-sol-artifact-1",
  "contractName": "CustomSmartWalletFactory",
  "sourceName": "contracts/factory/CustomSmartWalletFactory.sol",
  "abi": [
    {
      "inputs": [
        {
          "internalType": "address",
          "name": "forwarderTemplate",
          "type": "address"
        }
      ],
      "stateMutability": "nonpayable",
      "type": "constructor"
    },
    {
      "anonymous": false,
      "inputs": [
        {
          "indexed": true,
          "internalType": "address",
          "name": "addr",
          "type": "address"
        },
        {
          "indexed": false,
          "internalType": "uint256",
          "name": "salt",
          "type": "uint256"
        }
      ],
      "name": "Deployed",
      "type": "event"
    },
    {
      "inputs": [],
      "name": "DATA_VERSION_HASH",
      "outputs": [
        {
          "internalType": "bytes32",
          "name": "",
          "type": "bytes32"
        }
      ],
      "stateMutability": "view",
      "type": "function"
    },
    {
      "inputs": [
        {
          "internalType": "address",
          "name": "owner",
          "type": "address"
        },
        {
          "internalType": "address",
          "name": "recoverer",
          "type": "address"
        },
        {
          "internalType": "address",
          "name": "logic",
          "type": "address"
        },
        {
          "internalType": "uint256",
          "name": "index",
          "type": "uint256"
        },
        {
          "internalType": "bytes",
          "name": "initParams",
          "type": "bytes"
        },
        {
          "internalType": "bytes",
          "name": "sig",
          "type": "bytes"
        }
      ],
      "name": "createUserSmartWallet",
      "outputs": [],
      "stateMutability": "nonpayable",
      "type": "function"
    },
    {
      "inputs": [],
      "name": "domainSeparator",
      "outputs": [
        {
          "internalType": "bytes32",
          "name": "",
          "type": "bytes32"
        }
      ],
      "stateMutability": "view",
      "type": "function"
    },
    {
      "inputs": [],
      "name": "getCreationBytecode",
      "outputs": [
        {
          "internalType": "bytes",
          "name": "",
          "type": "bytes"
        }
      ],
      "stateMutability": "view",
      "type": "function"
    },
    {
      "inputs": [
        {
          "internalType": "address",
          "name": "owner",
          "type": "address"
        },
        {
          "internalType": "address",
          "name": "recoverer",
          "type": "address"
        },
        {
          "internalType": "address",
          "name": "logic",
          "type": "address"
        },
        {
          "internalType": "bytes32",
          "name": "initParamsHash",
          "type": "bytes32"
        },
        {
          "internalType": "uint256",
          "name": "index",
          "type": "uint256"
        }
      ],
      "name": "getSmartWalletAddress",
      "outputs": [
        {
          "internalType": "address",
          "name": "",
          "type": "address"
        }
      ],
      "stateMutability": "view",
      "type": "function"
    },
    {
      "inputs": [],
      "name": "masterCopy",
      "outputs": [
        {
          "internalType": "address",
          "name": "",
          "type": "address"
        }
      ],
      "stateMutability": "view",
      "type": "function"
    },
    {
      "inputs": [
        {
          "internalType": "address",
          "name": "from",
          "type": "address"
        }
      ],
      "name": "nonce",
      "outputs": [
        {
          "internalType": "uint256",
          "name": "",
          "type": "uint256"
        }
      ],
      "stateMutability": "view",
      "type": "function"
    },
    {
      "inputs": [
        {
          "components": [
            {
              "internalType": "address",
              "name": "relayHub",
              "type": "address"
            },
            {
              "internalType": "address",
              "name": "from",
              "type": "address"
            },
            {
              "internalType": "address",
              "name": "to",
              "type": "address"
            },
            {
              "internalType": "address",
              "name": "tokenContract",
              "type": "address"
            },
            {
              "internalType": "address",
              "name": "recoverer",
              "type": "address"
            },
            {
              "internalType": "uint256",
              "name": "value",
              "type": "uint256"
            },
            {
              "internalType": "uint256",
              "name": "gas",
              "type": "uint256"
            },
            {
              "internalType": "uint256",
              "name": "nonce",
              "type": "uint256"
            },
            {
              "internalType": "uint256",
              "name": "tokenAmount",
              "type": "uint256"
            },
            {
              "internalType": "uint256",
              "name": "tokenGas",
              "type": "uint256"
            },
            {
              "internalType": "uint256",
              "name": "validUntilTime",
              "type": "uint256"
            },
            {
              "internalType": "uint256",
              "name": "index",
              "type": "uint256"
            },
            {
              "internalType": "bytes",
              "name": "data",
              "type": "bytes"
            }
          ],
          "internalType": "struct IForwarder.DeployRequest",
          "name": "req",
          "type": "tuple"
        },
        {
          "internalType": "bytes32",
          "name": "suffixData",
          "type": "bytes32"
        },
        {
          "internalType": "address",
          "name": "feesReceiver",
          "type": "address"
        },
        {
          "internalType": "bytes",
          "name": "sig",
          "type": "bytes"
        }
      ],
      "name": "relayedUserSmartWalletCreation",
      "outputs": [],
      "stateMutability": "nonpayable",
      "type": "function"
    },
    {
      "inputs": [],
      "name": "runtimeCodeHash",
      "outputs": [
        {
          "internalType": "bytes32",
          "name": "",
          "type": "bytes32"
        }
      ],
      "stateMutability": "view",
      "type": "function"
    }
  ],
  "bytecode": "0x60c06040527f8b73c3c69bb8fe3d512ecc4cf759cc79239f7b179b0ffacaa9a75d522b39400f7fd41b7f69f4d7734774d21b5548d74704ad02f9f1545db63927a1d58479c576c87fad7c5bef027816a800da1736444fb58a807ef4c9603b7848673f7e3a68eb14a561006f6100df565b30604051602001610084959493929190610111565b60408051601f19818403018152919052805160209091012060a0523480156100ab57600080fd5b5060405161163d38038061163d8339810160408190526100ca916100e3565b60601b6001600160601b03191660805261013d565b4690565b6000602082840312156100f4578081fd5b81516001600160a01b038116811461010a578182fd5b9392505050565b9485526020850193909352604084019190915260608301526001600160a01b0316608082015260a00190565b60805160601c60a0516114cb610172600039806106535280610847525080610161528061038352806105eb52506114cb6000f3fe608060405234801561001057600080fd5b50600436106100a35760003560e01c8063b131fcba11610076578063c63ae75b1161005b578063c63ae75b1461011e578063f5e87b3914610131578063f698da2514610146576100a3565b8063b131fcba14610103578063b3104ef614610116576100a3565b80632046776e146100a857806370ae92d2146100c657806375caeafa146100d9578063a619486e146100ee575b600080fd5b6100b061014e565b6040516100bd91906111c8565b60405180910390f35b6100b06100d4366004610b55565b6101ce565b6100ec6100e7366004610bc7565b6101e9565b005b6100f6610381565b6040516100bd919061107c565b6100ec610111366004610c72565b6103a5565b6100b061053b565b6100f661012c366004610b70565b61055f565b6101396105d8565b6040516100bd91906111ef565b6100b0610651565b60006a363d3d373d3d3d3d363d7360a81b7f00000000000000000000000000000000000000000000000000000000000000007f5af43d923d90803e602b57fd5bf30000000000000000000000000000000000006040516020016101b393929190610e97565b60405160208183030381529060405280519060200120905090565b6001600160a01b031660009081526020819052604090205490565b6000308989898989896040516020016102089796959493929190610dfb565b6040516020818303038152906040528051906020012090506000816040516020016102339190610f98565b60405160208183030381529060405280519060200120905061029661029085858080601f01602080910402602001604051908101604052809392919081815260200183838082843760009201919091525086939250506106759050565b8b6106c2565b6102bb5760405162461bcd60e51b81526004016102b2906112de565b60405180910390fd5b60608a896000806000808c8c6040516024016102de989796959493929190611090565b60408051601f198184030181529190526020810180517bffffffffffffffffffffffffffffffffffffffffffffffffffffffff1663736ee38d60e11b179052905061037361032a6105d8565b8c8c8c8b8b60405161033d929190610f6c565b604051908190038120610357949392918f90602001610e54565b604051602081830303815290604052805190602001208361071d565b505050505050505050505050565b7f000000000000000000000000000000000000000000000000000000000000000081565b84516001600160a01b031633146103ce5760405162461bcd60e51b81526004016102b2906112a7565b61040f858584848080601f0160208091040260200160405190810160405280939291908181526020018383808284376000920191909152506107ff92505050565b6101408501511580610425575042856101400151115b6104415760405162461bcd60e51b81526004016102b290611357565b6020808601516001600160a01b0316600090815290819052604090208054600101905561053361046f6105d8565b866020015187608001518860400151896101800151805190602001208a61016001516040516020016104a5959493929190610e54565b60408051601f198184030181528282528051602091820120908a0151918a015160608b01516101008c01516101208d01516101808e015194966104ef96958d939291602401611173565b60408051601f198184030181529190526020810180517bffffffffffffffffffffffffffffffffffffffffffffffffffffffff1663736ee38d60e11b17905261071d565b505050505050565b7fad7c5bef027816a800da1736444fb58a807ef4c9603b7848673f7e3a68eb14a581565b600060ff60f81b308787878787604051602001610580959493929190610e54565b6040516020818303038152906040528051906020012061059e6105d8565b80516020918201206040516105b69594939201610eee565b60408051601f1981840301815291905280516020909101209695505050505050565b60606a363d3d373d3d3d3d363d7360a81b7f00000000000000000000000000000000000000000000000000000000000000007f5af43d923d90803e602b57fd5bf300000000000000000000000000000000000060405160200161063d93929190610fff565b604051602081830303815290604052905090565b7f000000000000000000000000000000000000000000000000000000000000000081565b600081516041146106985760405162461bcd60e51b81526004016102b290611239565b60208201516040830151606084015160001a6106b6868285856108d5565b93505050505b92915050565b6000816001600160a01b0316836001600160a01b0316148015610702575073dcc703c0e500b653ca82273b7bfad8045d85a4706001600160a01b03841614155b801561071657506001600160a01b03831615155b9392505050565b6000828451602086016000f59050803b61073657600080fd5b6000816001600160a01b0316836040516107509190610f7c565b6000604051808303816000865af19150503d806000811461078d576040519150601f19603f3d011682016040523d82523d6000602084013e610792565b606091505b50509050806107b35760405162461bcd60e51b81526004016102b290611407565b816001600160a01b03167fb03c53b28e78a88e31607a27e1fa48234dce28d5d9d9ec7b295aeb02e674a1e18560001c6040516107ef91906111c8565b60405180910390a2509392505050565b60e08301516020808501516001600160a01b031660009081529081905260409020541461083e5760405162461bcd60e51b81526004016102b290611270565b6108b46108aa827f000000000000000000000000000000000000000000000000000000000000000061087087876109cb565b8051602091820120604051610886939201610fc9565b6040516020818303038152906040528051906020012061067590919063ffffffff16565b84602001516106c2565b6108d05760405162461bcd60e51b81526004016102b2906113d0565b505050565b60007f7fffffffffffffffffffffffffffffff5d576e7357a4501ddfe92f46681b20a08211156109175760405162461bcd60e51b81526004016102b290611315565b8360ff16601b148061092c57508360ff16601c145b6109485760405162461bcd60e51b81526004016102b29061138e565b60006001868686866040516000815260200160405260405161096d94939291906111d1565b6020604051602081039080840390855afa15801561098f573d6000803e3d6000fd5b5050604051601f1901519150506001600160a01b0381166109c25760405162461bcd60e51b81526004016102b290611202565b95945050505050565b60607f28eb953705f6353a30a2942571815fad1b64ae5de65dcb52ef0ebd7d8a820535836000015184602001518560400151866060015187608001518860a001518960c001518a60e001518b61010001518c61012001518d61014001518e61016001518f610180015180519060200120604051602001610a579d9c9b9a999897969594939291906110ff565b60408051601f1981840301815290829052610a7792918590602001610f3f565b604051602081830303815290604052905092915050565b80356001600160a01b03811681146106bc57600080fd5b60008083601f840112610ab6578182fd5b50813567ffffffffffffffff811115610acd578182fd5b602083019150836020828501011115610ae557600080fd5b9250929050565b600082601f830112610afc578081fd5b813567ffffffffffffffff811115610b12578182fd5b610b25601f8201601f191660200161143e565b9150808252836020828501011115610b3c57600080fd5b8060208401602084013760009082016020015292915050565b600060208284031215610b66578081fd5b6107168383610a8e565b600080600080600060a08688031215610b87578081fd5b610b918787610a8e565b9450610ba08760208801610a8e565b9350610baf8760408801610a8e565b94979396509394606081013594506080013592915050565b60008060008060008060008060c0898b031215610be2578283fd5b610bec8a8a610a8e565b9750610bfb8a60208b01610a8e565b9650610c0a8a60408b01610a8e565b955060608901359450608089013567ffffffffffffffff80821115610c2d578485fd5b610c398c838d01610aa5565b909650945060a08b0135915080821115610c51578384fd5b50610c5e8b828c01610aa5565b999c989b5096995094979396929594505050565b600080600080600060808688031215610c89578081fd5b853567ffffffffffffffff80821115610ca0578283fd5b81880191506101a080838b031215610cb6578384fd5b610cbf8161143e565b9050610ccb8a84610a8e565b8152610cda8a60208501610a8e565b6020820152610cec8a60408501610a8e565b6040820152610cfe8a60608501610a8e565b6060820152610d108a60808501610a8e565b608082015260a0838101359082015260c0808401359082015260e0808401359082015261010080840135908201526101208084013590820152610140808401359082015261016080840135908201526101808084013583811115610d72578586fd5b610d7e8c828701610aec565b8284015250508097505060208801359550610d9c8960408a01610a8e565b94506060880135915080821115610db1578283fd5b50610dbe88828901610aa5565b969995985093965092949392505050565b60008151808452610de7816020860160208601611465565b601f01601f19169290920160200192915050565b60006bffffffffffffffffffffffff19808a60601b168352808960601b166014840152808860601b166028840152808760601b16603c840152508460508301528284607084013791016070019081529695505050505050565b6bffffffffffffffffffffffff19606096871b8116825294861b851660148201529290941b9092166028820152603c810191909152605c810191909152607c0190565b74ffffffffffffffffffffffffffffffffffffffffff1993909316835260609190911b6bffffffffffffffffffffffff1916600b83015271ffffffffffffffffffffffffffffffffffff1916601f820152602d0190565b7fff0000000000000000000000000000000000000000000000000000000000000094909416845260609290921b6bffffffffffffffffffffffff191660018401526015830152603582015260550190565b60008482528351610f57816020850160208801611465565b60209201918201929092526040019392505050565b6000828483379101908152919050565b60008251610f8e818460208701611465565b9190910192915050565b7f19457468657265756d205369676e6564204d6573736167653a0a3332000000008152601c810191909152603c0190565b7f190100000000000000000000000000000000000000000000000000000000000081526002810192909252602282015260420190565b7f602d3d8160093d39f30000000000000000000000000000000000000000000000815274ffffffffffffffffffffffffffffffffffffffffff1993909316600984015260609190911b6bffffffffffffffffffffffff1916601483015271ffffffffffffffffffffffffffffffffffff1916602882015260360190565b6001600160a01b0391909116815260200190565b60006001600160a01b03808b168352808a166020840152808916604084015280881660608401525060ff8616608083015260ff851660a083015260e060c08301528260e0830152610100838582850137828401810191909152601f909201601f19160101979650505050505050565b6001600160a01b039d8e1681529b8d1660208d0152998c1660408c0152978b1660608b015295909916608089015260a088019390935260c087019190915260e08601526101008501526101208401949094526101408301939093526101608201929092526101808101919091526101a00190565b60006001600160a01b03808a168352808916602084015280881660408401528087166060840152508460808301528360a083015260e060c08301526111bb60e0830184610dcf565b9998505050505050505050565b90815260200190565b93845260ff9290921660208401526040830152606082015260800190565b6000602082526107166020830184610dcf565b60208082526018908201527f45434453413a20696e76616c6964207369676e61747572650000000000000000604082015260600190565b6020808252601f908201527f45434453413a20696e76616c6964207369676e6174757265206c656e67746800604082015260600190565b6020808252600e908201527f6e6f6e6365206d69736d61746368000000000000000000000000000000000000604082015260600190565b6020808252600e908201527f496e76616c69642063616c6c6572000000000000000000000000000000000000604082015260600190565b60208082526011908201527f496e76616c6964207369676e6174757265000000000000000000000000000000604082015260600190565b60208082526022908201527f45434453413a20696e76616c6964207369676e6174757265202773272076616c604082015261756560f01b606082015260800190565b60208082526013908201527f53573a2072657175657374206578706972656400000000000000000000000000604082015260600190565b60208082526022908201527f45434453413a20696e76616c6964207369676e6174757265202776272076616c604082015261756560f01b606082015260800190565b60208082526012908201527f5369676e6174757265206d69736d617463680000000000000000000000000000604082015260600190565b60208082526017908201527f556e61626c6520746f20696e697469616c697a65205357000000000000000000604082015260600190565b60405181810167ffffffffffffffff8111828210171561145d57600080fd5b604052919050565b60005b83811015611480578181015183820152602001611468565b8381111561148f576000848401525b5050505056fea26469706673582212208a70ffbf9dd6d296b0a2d0e20dc1a97c123e32de69f5d9cb80d2eb5a359a9c5c64736f6c634300060c0033",
  "linkReferences": {},
  "deployedLinkReferences": {}
}