{
  "_format": "hh-sol-artifact-1",
  "contractName": "DeployVerifier",
  "sourceName": "contracts/verifier/DeployVerifier.sol",
  "abi": [
    {
      "inputs": [
        {
          "internalType": "address",
          "name": "walletFactory",
          "type": "address"
        }
      ],
      "stateMutability": "nonpayable",
      "type": "constructor"
    },
    {
      "anonymous": false,
      "inputs": [
        {
          "indexed": true,
          "internalType": "address",
          "name": "previousOwner",
          "type": "address"
        },
        {
          "indexed": true,
          "internalType": "address",
          "name": "newOwner",
          "type": "address"
        }
      ],
      "name": "OwnershipTransferred",
      "type": "event"
    },
    {
      "inputs": [
        {
          "internalType": "address",
          "name": "token",
          "type": "address"
        }
      ],
      "name": "acceptToken",
      "outputs": [],
      "stateMutability": "nonpayable",
      "type": "function"
    },
    {
      "inputs": [
        {
          "internalType": "uint256",
          "name": "",
          "type": "uint256"
        }
      ],
      "name": "acceptedTokens",
      "outputs": [
        {
          "internalType": "address",
          "name": "",
          "type": "address"
        }
      ],
      "stateMutability": "view",
      "type": "function"
    },
    {
      "inputs": [
        {
          "internalType": "address",
          "name": "token",
          "type": "address"
        }
      ],
      "name": "acceptsToken",
      "outputs": [
        {
          "internalType": "bool",
          "name": "",
          "type": "bool"
        }
      ],
      "stateMutability": "view",
      "type": "function"
    },
    {
      "inputs": [],
      "name": "getAcceptedTokens",
      "outputs": [
        {
          "internalType": "address[]",
          "name": "",
          "type": "address[]"
        }
      ],
      "stateMutability": "view",
      "type": "function"
    },
    {
      "inputs": [],
      "name": "owner",
      "outputs": [
        {
          "internalType": "address",
          "name": "",
          "type": "address"
        }
      ],
      "stateMutability": "view",
      "type": "function"
    },
    {
      "inputs": [
        {
          "internalType": "address",
          "name": "token",
          "type": "address"
        },
        {
          "internalType": "uint256",
          "name": "index",
          "type": "uint256"
        }
      ],
      "name": "removeToken",
      "outputs": [],
      "stateMutability": "nonpayable",
      "type": "function"
    },
    {
      "inputs": [
        {
          "internalType": "address",
          "name": "",
          "type": "address"
        }
      ],
      "name": "tokens",
      "outputs": [
        {
          "internalType": "bool",
          "name": "",
          "type": "bool"
        }
      ],
      "stateMutability": "view",
      "type": "function"
    },
    {
      "inputs": [
        {
          "internalType": "address",
          "name": "newOwner",
          "type": "address"
        }
      ],
      "name": "transferOwnership",
      "outputs": [],
      "stateMutability": "nonpayable",
      "type": "function"
    },
    {
      "inputs": [
        {
          "components": [
            {
              "components": [
                {
                  "internalType": "address",
                  "name": "relayHub",
                  "type": "address"
                },
                {
                  "internalType": "address",
                  "name": "from",
                  "type": "address"
                },
                {
                  "internalType": "address",
                  "name": "to",
                  "type": "address"
                },
                {
                  "internalType": "address",
                  "name": "tokenContract",
                  "type": "address"
                },
                {
                  "internalType": "address",
                  "name": "recoverer",
                  "type": "address"
                },
                {
                  "internalType": "uint256",
                  "name": "value",
                  "type": "uint256"
                },
                {
                  "internalType": "uint256",
                  "name": "gas",
                  "type": "uint256"
                },
                {
                  "internalType": "uint256",
                  "name": "nonce",
                  "type": "uint256"
                },
                {
                  "internalType": "uint256",
                  "name": "tokenAmount",
                  "type": "uint256"
                },
                {
                  "internalType": "uint256",
                  "name": "tokenGas",
                  "type": "uint256"
                },
                {
                  "internalType": "uint256",
                  "name": "validUntilTime",
                  "type": "uint256"
                },
                {
                  "internalType": "uint256",
                  "name": "index",
                  "type": "uint256"
                },
                {
                  "internalType": "bytes",
                  "name": "data",
                  "type": "bytes"
                }
              ],
              "internalType": "struct IForwarder.DeployRequest",
              "name": "request",
              "type": "tuple"
            },
            {
              "components": [
                {
                  "internalType": "uint256",
                  "name": "gasPrice",
                  "type": "uint256"
                },
                {
                  "internalType": "address",
                  "name": "feesReceiver",
                  "type": "address"
                },
                {
                  "internalType": "address",
                  "name": "callForwarder",
                  "type": "address"
                },
                {
                  "internalType": "address",
                  "name": "callVerifier",
                  "type": "address"
                }
              ],
              "internalType": "struct EnvelopingTypes.RelayData",
              "name": "relayData",
              "type": "tuple"
            }
          ],
          "internalType": "struct EnvelopingTypes.DeployRequest",
          "name": "relayRequest",
          "type": "tuple"
        },
        {
          "internalType": "bytes",
          "name": "signature",
          "type": "bytes"
        }
      ],
      "name": "verifyRelayedCall",
      "outputs": [
        {
          "internalType": "bytes",
          "name": "context",
          "type": "bytes"
        }
      ],
      "stateMutability": "nonpayable",
      "type": "function"
    },
    {
      "inputs": [],
      "name": "versionVerifier",
      "outputs": [
        {
          "internalType": "string",
          "name": "",
          "type": "string"
        }
      ],
      "stateMutability": "view",
      "type": "function"
    }
  ],
  "bytecode": "0x60a060405234801561001057600080fd5b50604051610f18380380610f1883398101604081905261002f9161008d565b600080546001600160a01b03191633178082556040516001600160a01b039190911691907f8be0079c531659141344cd1fd0a4f28419497f9722a3daafe3b4186f6b6457e0908290a360601b6001600160601b0319166080526100bb565b60006020828403121561009e578081fd5b81516001600160a01b03811681146100b4578182fd5b9392505050565b60805160601c610e406100d86000398061058e5250610e406000f3fe608060405234801561001057600080fd5b50600436106100be5760003560e01c80638cd3f064116100765780638f49ea101161005b5780638f49ea1014610166578063e486033914610179578063f2fde38b1461018c576100be565b80638cd3f0641461014b5780638da5cb5b1461015e576100be565b80632f757006116100a75780632f757006146100f657806336c877541461010b578063868399a51461012b576100be565b806313baf1e6146100c35780631dac0746146100d8575b600080fd5b6100d66100d136600461094d565b61019f565b005b6100e0610337565b6040516100ed9190610b3e565b60405180910390f35b6100fe610357565b6040516100ed9190610ae6565b61011e610119366004610a10565b6103b9565b6040516100ed9190610a8b565b61013e610139366004610915565b6103e0565b6040516100ed9190610b33565b6100d6610159366004610915565b6103fe565b61011e61051d565b6100e0610174366004610978565b61052c565b61013e610187366004610915565b6106f8565b6100d661019a366004610915565b61070d565b6000546001600160a01b031633146101d25760405162461bcd60e51b81526004016101c990610b51565b60405180910390fd5b6001600160a01b0382166101f85760405162461bcd60e51b81526004016101c990610cd2565b6001600160a01b03821660009081526001602052604090205460ff166102305760405162461bcd60e51b81526004016101c990610bf6565b6002818154811061023d57fe5b6000918252602090912001546001600160a01b038381169116146102735760405162461bcd60e51b81526004016101c990610c2d565b6001600160a01b0382166000908152600160205260409020805460ff191690556002805460001981019081106102a557fe5b600091825260209091200154600280546001600160a01b0390921691839081106102cb57fe5b9060005260206000200160006101000a8154816001600160a01b0302191690836001600160a01b03160217905550600280548061030457fe5b6000828152602090208101600019908101805473ffffffffffffffffffffffffffffffffffffffff191690550190555050565b6060604051806060016040528060248152602001610de760249139905090565b606060028054806020026020016040519081016040528092919081815260200182805480156103af57602002820191906000526020600020905b81546001600160a01b03168152600190910190602001808311610391575b5050505050905090565b600281815481106103c657fe5b6000918252602090912001546001600160a01b0316905081565b6001600160a01b031660009081526001602052604090205460ff1690565b6000546001600160a01b031633146104285760405162461bcd60e51b81526004016101c990610b51565b6001600160a01b03811661044e5760405162461bcd60e51b81526004016101c990610cd2565b610457816107c5565b6104735760405162461bcd60e51b81526004016101c990610d40565b6001600160a01b03811660009081526001602052604090205460ff16156104ac5760405162461bcd60e51b81526004016101c990610d77565b6001600160a01b031660008181526001602081905260408220805460ff1916821790556002805491820181559091527f405787fa12a823e0f2b7631cc41b3ba8828b3321ca811111fa75cd3aa3bb5ace01805473ffffffffffffffffffffffffffffffffffffffff19169091179055565b6000546001600160a01b031690565b60606001600061053c8680610dae565b61054d906080810190606001610915565b6001600160a01b0316815260208101919091526040016000205460ff166105865760405162461bcd60e51b81526004016101c990610b88565b60006105b2857f00000000000000000000000000000000000000000000000000000000000000006107d1565b905060006105c08680610dae565b6105d1906080810190606001610915565b6001600160a01b0316146106a2576105e98580610dae565b6105fa906080810190606001610915565b6001600160a01b03166370a08231826040518263ffffffff1660e01b81526004016106259190610a8b565b60206040518083038186803b15801561063d57600080fd5b505afa158015610651573d6000803e3d6000fd5b505050506040513d601f19601f820116820180604052508101906106759190610a28565b61067f8680610dae565b610100013511156106a25760405162461bcd60e51b81526004016101c990610bbf565b806106ad8680610dae565b61010001356106bc8780610dae565b6106cd906080810190606001610915565b6040516020016106df93929190610ac3565b6040516020818303038152906040529150509392505050565b60016020526000908152604090205460ff1681565b6000546001600160a01b031633146107375760405162461bcd60e51b81526004016101c990610b51565b6001600160a01b03811661075d5760405162461bcd60e51b81526004016101c990610c64565b600080546040516001600160a01b03808516939216917f8be0079c531659141344cd1fd0a4f28419497f9722a3daafe3b4186f6b6457e091a36000805473ffffffffffffffffffffffffffffffffffffffff19166001600160a01b0392909216919091179055565b3b63ffffffff16151590565b60006001600160a01b0382166107ed6080850160608601610915565b6001600160a01b0316146108135760405162461bcd60e51b81526004016101c990610d09565b60006108256080850160608601610915565b6001600160a01b0316636088665e61083d8680610dae565b61084e906040810190602001610915565b6108588780610dae565b6108699060a0810190608001610915565b6108738880610dae565b61016001356040518463ffffffff1660e01b815260040161089693929190610a9f565b60206040518083038186803b1580156108ae57600080fd5b505afa1580156108c2573d6000803e3d6000fd5b505050506040513d601f19601f820116820180604052508101906108e69190610931565b90506108f1816107c5565b1561090e5760405162461bcd60e51b81526004016101c990610c9b565b9392505050565b600060208284031215610926578081fd5b813561090e81610dce565b600060208284031215610942578081fd5b815161090e81610dce565b6000806040838503121561095f578081fd5b823561096a81610dce565b946020939093013593505050565b60008060006040848603121561098c578081fd5b833567ffffffffffffffff808211156109a3578283fd5b9085019060a082880312156109b6578283fd5b909350602085013590808211156109cb578283fd5b818601915086601f8301126109de578283fd5b8135818111156109ec578384fd5b8760208285010111156109fd578384fd5b6020830194508093505050509250925092565b600060208284031215610a21578081fd5b5035919050565b600060208284031215610a39578081fd5b5051919050565b60008151808452815b81811015610a6557602081850181015186830182015201610a49565b81811115610a765782602083870101525b50601f01601f19169290920160200192915050565b6001600160a01b0391909116815260200190565b6001600160a01b039384168152919092166020820152604081019190915260600190565b6001600160a01b0393841681526020810192909252909116604082015260600190565b6020808252825182820181905260009190848201906040850190845b81811015610b275783516001600160a01b031683529284019291840191600101610b02565b50909695505050505050565b901515815260200190565b60006020825261090e6020830184610a40565b60208082526017908201527f43616c6c6572206973206e6f7420746865206f776e6572000000000000000000604082015260600190565b6020808252601a908201527f546f6b656e20636f6e7472616374206e6f7420616c6c6f776564000000000000604082015260600190565b6020808252600f908201527f62616c616e636520746f6f206c6f770000000000000000000000000000000000604082015260600190565b60208082526015908201527f546f6b656e206973206e6f742061636365707465640000000000000000000000604082015260600190565b60208082526011908201527f57726f6e6720746f6b656e20696e646578000000000000000000000000000000604082015260600190565b60208082526019908201527f4f776e657220697320746865207a65726f206164647265737300000000000000604082015260600190565b60208082526017908201527f4164647265737320616c72656164792063726561746564000000000000000000604082015260600190565b6020808252601c908201527f546f6b656e2063616e6e6f74206265207a65726f206164647265737300000000604082015260600190565b6020808252600f908201527f496e76616c696420666163746f72790000000000000000000000000000000000604082015260600190565b60208082526019908201527f41646472657373206973206e6f74206120636f6e747261637400000000000000604082015260600190565b60208082526019908201527f546f6b656e20697320616c726561647920616363657074656400000000000000604082015260600190565b6000823561019e19833603018112610dc4578182fd5b9190910192915050565b6001600160a01b0381168114610de357600080fd5b5056fe7269662e656e76656c6f70696e672e746f6b656e2e69766572696669657240322e302e31a2646970667358221220db128b246de55979bf11fb5c28e27300f6a5b0f24d5d6336e78eb5bdd178adfd64736f6c634300060c0033",
  "linkReferences": {},
  "deployedLinkReferences": {}
}