{
  "_format": "hh-sol-artifact-1",
  "contractName": "MinimalBoltzSmartWallet",
  "sourceName": "contracts/smartwallet/MinimalBoltzSmartWallet.sol",
  "abi": [
    {
      "inputs": [
        {
          "internalType": "address",
          "name": "owner",
          "type": "address"
        },
        {
          "internalType": "address",
          "name": "feesReceiver",
          "type": "address"
        },
        {
          "internalType": "uint256",
          "name": "feesAmount",
          "type": "uint256"
        },
        {
          "internalType": "uint256",
          "name": "feesGas",
          "type": "uint256"
        },
        {
          "internalType": "address",
          "name": "to",
          "type": "address"
        },
        {
          "internalType": "uint256",
          "name": "gasLimit",
          "type": "uint256"
        },
        {
          "internalType": "bytes",
          "name": "data",
          "type": "bytes"
        }
      ],
      "name": "initialize",
      "outputs": [],
      "stateMutability": "nonpayable",
      "type": "function"
    },
    {
      "stateMutability": "payable",
      "type": "receive"
    }
  ],
  "bytecode": "0x60806040526000805460ff1916905534801561001a57600080fd5b506105288061002a6000396000f3fe6080604052600436106100225760003560e01c80639f18fa5a1461002e57610029565b3661002957005b600080fd5b34801561003a57600080fd5b506100df600480360360e081101561005157600080fd5b6001600160a01b038235811692602081013582169260408201359260608301359260808101359091169160a0820135919081019060e0810160c08201356401000000008111156100a057600080fd5b8201836020820111156100b257600080fd5b803590602001918460018302840111640100000000831117156100d457600080fd5b5090925090506100e1565b005b60005460ff1615610139576040805162461bcd60e51b815260206004820152601360248201527f416c726561647920696e697469616c697a656400000000000000000000000000604482015290519081900360640190fd5b6000805460ff19166001179055604080516020601f84018190048102820181019092528281526101839184908490819084018382808284376000920191909152506103f192505050565b600060606001600160a01b038616156102d1578461020757856001600160a01b03168484604051808383808284376040519201945060009350909150508083038183865af19150503d80600081146101f7576040519150601f19603f3d011682016040523d82523d6000602084013e6101fc565b606091505b509092509050610271565b856001600160a01b03168585856040518083838082843760405192019450600093509091505080830381838787f1925050503d8060008114610265576040519150601f19603f3d011682016040523d82523d6000602084013e61026a565b606091505b5090925090505b816102d15780516102c9576040805162461bcd60e51b815260206004820152601160248201527f556e61626c6520746f2065786563757465000000000000000000000000000000604482015290519081900360640190fd5b805160208201fd5b87156103a8576040516001600160a01b038a169088908a906000818181858888f193505050503d8060008114610323576040519150601f19603f3d011682016040523d82523d6000602084013e610328565b606091505b509092509050818015610357575080511580610357575080806020019051602081101561035457600080fd5b50515b6103a8576040805162461bcd60e51b815260206004820152601c60248201527f556e61626c6520746f2070617920666f72206465706c6f796d656e7400000000604482015290519081900360640190fd5b47156103e5576040516001600160a01b038b16904780156108fc02916000818181858888f193505050501580156103e3573d6000803e3d6000fd5b505b50505050505050505050565b60006103fe8260006104ea565b90507fffffffff0000000000000000000000000000000000000000000000000000000081167fc3c37fbc000000000000000000000000000000000000000000000000000000001480159061049457507fffffffff0000000000000000000000000000000000000000000000000000000081167fcd413efa0000000000000000000000000000000000000000000000000000000014155b156104e6576040805162461bcd60e51b815260206004820152601260248201527f4d6574686f64206e6f7420616c6c6f7765640000000000000000000000000000604482015290519081900360640190fd5b5050565b01602001519056fea2646970667358221220027e4db29893333c6994f3216e2b442d312712bd4e097fb0e181db3de517589364736f6c634300060c0033",
  "linkReferences": {},
  "deployedLinkReferences": {}
}