{
  "_format": "hh-sol-artifact-1",
  "contractName": "MinimalBoltzSmartWalletFactory",
  "sourceName": "contracts/factory/MinimalBoltzSmartWalletFactory.sol",
  "abi": [
    {
      "inputs": [
        {
          "internalType": "address",
          "name": "forwarderTemplate",
          "type": "address"
        }
      ],
      "stateMutability": "nonpayable",
      "type": "constructor"
    },
    {
      "anonymous": false,
      "inputs": [
        {
          "indexed": true,
          "internalType": "address",
          "name": "addr",
          "type": "address"
        },
        {
          "indexed": false,
          "internalType": "uint256",
          "name": "salt",
          "type": "uint256"
        }
      ],
      "name": "Deployed",
      "type": "event"
    },
    {
      "inputs": [],
      "name": "DATA_VERSION_HASH",
      "outputs": [
        {
          "internalType": "bytes32",
          "name": "",
          "type": "bytes32"
        }
      ],
      "stateMutability": "view",
      "type": "function"
    },
    {
      "inputs": [],
      "name": "domainSeparator",
      "outputs": [
        {
          "internalType": "bytes32",
          "name": "",
          "type": "bytes32"
        }
      ],
      "stateMutability": "view",
      "type": "function"
    },
    {
      "inputs": [],
      "name": "getCreationBytecode",
      "outputs": [
        {
          "internalType": "bytes",
          "name": "",
          "type": "bytes"
        }
      ],
      "stateMutability": "view",
      "type": "function"
    },
    {
      "inputs": [
        {
          "internalType": "address",
          "name": "owner",
          "type": "address"
        },
        {
          "internalType": "address",
          "name": "recoverer",
          "type": "address"
        },
        {
          "internalType": "uint256",
          "name": "index",
          "type": "uint256"
        }
      ],
      "name": "getSmartWalletAddress",
      "outputs": [
        {
          "internalType": "address",
          "name": "",
          "type": "address"
        }
      ],
      "stateMutability": "view",
      "type": "function"
    },
    {
      "inputs": [],
      "name": "masterCopy",
      "outputs": [
        {
          "internalType": "address",
          "name": "",
          "type": "address"
        }
      ],
      "stateMutability": "view",
      "type": "function"
    },
    {
      "inputs": [
        {
          "internalType": "address",
          "name": "from",
          "type": "address"
        }
      ],
      "name": "nonce",
      "outputs": [
        {
          "internalType": "uint256",
          "name": "",
          "type": "uint256"
        }
      ],
      "stateMutability": "view",
      "type": "function"
    },
    {
      "inputs": [
        {
          "components": [
            {
              "internalType": "address",
              "name": "relayHub",
              "type": "address"
            },
            {
              "internalType": "address",
              "name": "from",
              "type": "address"
            },
            {
              "internalType": "address",
              "name": "to",
              "type": "address"
            },
            {
              "internalType": "address",
              "name": "tokenContract",
              "type": "address"
            },
            {
              "internalType": "address",
              "name": "recoverer",
              "type": "address"
            },
            {
              "internalType": "uint256",
              "name": "value",
              "type": "uint256"
            },
            {
              "internalType": "uint256",
              "name": "gas",
              "type": "uint256"
            },
            {
              "internalType": "uint256",
              "name": "nonce",
              "type": "uint256"
            },
            {
              "internalType": "uint256",
              "name": "tokenAmount",
              "type": "uint256"
            },
            {
              "internalType": "uint256",
              "name": "tokenGas",
              "type": "uint256"
            },
            {
              "internalType": "uint256",
              "name": "validUntilTime",
              "type": "uint256"
            },
            {
              "internalType": "uint256",
              "name": "index",
              "type": "uint256"
            },
            {
              "internalType": "bytes",
              "name": "data",
              "type": "bytes"
            }
          ],
          "internalType": "struct IForwarder.DeployRequest",
          "name": "req",
          "type": "tuple"
        },
        {
          "internalType": "bytes32",
          "name": "suffixData",
          "type": "bytes32"
        },
        {
          "internalType": "address",
          "name": "feesReceiver",
          "type": "address"
        },
        {
          "internalType": "bytes",
          "name": "sig",
          "type": "bytes"
        }
      ],
      "name": "relayedUserSmartWalletCreation",
      "outputs": [],
      "stateMutability": "nonpayable",
      "type": "function"
    },
    {
      "inputs": [],
      "name": "runtimeCodeHash",
      "outputs": [
        {
          "internalType": "bytes32",
          "name": "",
          "type": "bytes32"
        }
      ],
      "stateMutability": "view",
      "type": "function"
    }
  ],
  "bytecode": "0x60c06040527f8b73c3c69bb8fe3d512ecc4cf759cc79239f7b179b0ffacaa9a75d522b39400f7fd41b7f69f4d7734774d21b5548d74704ad02f9f1545db63927a1d58479c576c87fad7c5bef027816a800da1736444fb58a807ef4c9603b7848673f7e3a68eb14a561006f6100df565b30604051602001610084959493929190610111565b60408051601f19818403018152919052805160209091012060a0523480156100ab57600080fd5b5060405161123a38038061123a8339810160408190526100ca916100e3565b60601b6001600160601b03191660805261013d565b4690565b6000602082840312156100f4578081fd5b81516001600160a01b038116811461010a578182fd5b9392505050565b9485526020850193909352604084019190915260608301526001600160a01b0316608082015260a00190565b60805160601c60a0516110c86101726000398061049552806104ff5250806101335280610230528061042d52506110c86000f3fe608060405234801561001057600080fd5b50600436106100885760003560e01c8063b131fcba1161005b578063b131fcba146100e6578063b3104ef6146100fb578063f5e87b3914610103578063f698da251461011857610088565b80632046776e1461008d5780636088665e146100ab57806370ae92d2146100cb578063a619486e146100de575b600080fd5b610095610120565b6040516100a29190610e1b565b60405180910390f35b6100be6100b93660046109a5565b6101a0565b6040516100a29190610d40565b6100956100d936600461098a565b610213565b6100be61022e565b6100f96100f43660046109e5565b610252565b005b6100956103f6565b61010b61041a565b6040516100a29190610e42565b610095610493565b60006a363d3d373d3d3d3d363d7360a81b7f00000000000000000000000000000000000000000000000000000000000000007f5af43d923d90803e602b57fd5bf300000000000000000000000000000000000060405160200161018593929190610b9c565b60405160208183030381529060405280519060200120905090565b600060ff60f81b308585856040516020016101bd93929190610b6e565b604051602081830303815290604052805190602001206101db61041a565b80516020918201206040516101f39594939201610bf3565b60408051601f198184030181529190528051602090910120949350505050565b6001600160a01b031660009081526020819052604090205490565b7f000000000000000000000000000000000000000000000000000000000000000081565b84516001600160a01b031633146102845760405162461bcd60e51b815260040161027b90610efa565b60405180910390fd5b6102c5858584848080601f0160208091040260200160405190810160405280939291908181526020018383808284376000920191909152506104b792505050565b61014085015115806102db575042856101400151115b6102f75760405162461bcd60e51b815260040161027b90610f73565b6020808601516001600160a01b031660009081529081905260409020805460010190556103ee61032561041a565b60208088015160808901516101608a01516040516103439401610b6e565b604051602081830303815290604052805190602001208760200151868961010001518a61012001518b604001518c60c001518d61018001516040516024016103919796959493929190610dc8565b60408051601f198184030181529190526020810180517bffffffffffffffffffffffffffffffffffffffffffffffffffffffff167f9f18fa5a0000000000000000000000000000000000000000000000000000000017905261058d565b505050505050565b7fad7c5bef027816a800da1736444fb58a807ef4c9603b7848673f7e3a68eb14a581565b60606a363d3d373d3d3d3d363d7360a81b7f00000000000000000000000000000000000000000000000000000000000000007f5af43d923d90803e602b57fd5bf300000000000000000000000000000000000060405160200161047f93929190610cc3565b604051602081830303815290604052905090565b7f000000000000000000000000000000000000000000000000000000000000000081565b60e08301516020808501516001600160a01b03166000908152908190526040902054146104f65760405162461bcd60e51b815260040161027b90610ec3565b61056c610562827f00000000000000000000000000000000000000000000000000000000000000006105288787610663565b805160209182012060405161053e939201610c8d565b6040516020818303038152906040528051906020012061072790919063ffffffff16565b8460200151610772565b6105885760405162461bcd60e51b815260040161027b90610fec565b505050565b6000828451602086016000f59050803b6105a657600080fd5b60006060826001600160a01b0316846040516105c29190610c71565b6000604051808303816000865af19150503d80600081146105ff576040519150601f19603f3d011682016040523d82523d6000602084013e610604565b606091505b50915091508161061657805160208201fd5b826001600160a01b03167fb03c53b28e78a88e31607a27e1fa48234dce28d5d9d9ec7b295aeb02e674a1e18660001c6040516106529190610e1b565b60405180910390a250509392505050565b60607f28eb953705f6353a30a2942571815fad1b64ae5de65dcb52ef0ebd7d8a820535836000015184602001518560400151866060015187608001518860a001518960c001518a60e001518b61010001518c61012001518d61014001518e61016001518f6101800151805190602001206040516020016106ef9d9c9b9a99989796959493929190610d54565b60408051601f198184030181529082905261070f92918590602001610c44565b60405160208183030381529060405290505b92915050565b6000815160411461074a5760405162461bcd60e51b815260040161027b90610e8c565b60208201516040830151606084015160001a610768868285856107cd565b9695505050505050565b6000816001600160a01b0316836001600160a01b03161480156107b2575073dcc703c0e500b653ca82273b7bfad8045d85a4706001600160a01b03841614155b80156107c657506001600160a01b03831615155b9392505050565b60007f7fffffffffffffffffffffffffffffff5d576e7357a4501ddfe92f46681b20a082111561080f5760405162461bcd60e51b815260040161027b90610f31565b8360ff16601b148061082457508360ff16601c145b6108405760405162461bcd60e51b815260040161027b90610faa565b6000600186868686604051600081526020016040526040516108659493929190610e24565b6020604051602081039080840390855afa158015610887573d6000803e3d6000fd5b5050604051601f1901519150506001600160a01b0381166108ba5760405162461bcd60e51b815260040161027b90610e55565b95945050505050565b80356001600160a01b038116811461072157600080fd5b60008083601f8401126108eb578182fd5b50813567ffffffffffffffff811115610902578182fd5b60208301915083602082850101111561091a57600080fd5b9250929050565b600082601f830112610931578081fd5b813567ffffffffffffffff811115610947578182fd5b61095a601f8201601f1916602001611023565b915080825283602082850101111561097157600080fd5b8060208401602084013760009082016020015292915050565b60006020828403121561099b578081fd5b6107c683836108c3565b6000806000606084860312156109b9578182fd5b83356109c48161107a565b925060208401356109d48161107a565b929592945050506040919091013590565b6000806000806000608086880312156109fc578081fd5b853567ffffffffffffffff80821115610a13578283fd5b81880191506101a080838b031215610a29578384fd5b610a3281611023565b9050610a3e8a846108c3565b8152610a4d8a602085016108c3565b6020820152610a5f8a604085016108c3565b6040820152610a718a606085016108c3565b6060820152610a838a608085016108c3565b608082015260a0838101359082015260c0808401359082015260e0808401359082015261010080840135908201526101208084013590820152610140808401359082015261016080840135908201526101808084013583811115610ae5578586fd5b610af18c828701610921565b8284015250508097505060208801359550610b0f8960408a016108c3565b94506060880135915080821115610b24578283fd5b50610b31888289016108da565b969995985093965092949392505050565b60008151808452610b5a81602086016020860161104a565b601f01601f19169290920160200192915050565b6bffffffffffffffffffffffff19606094851b811682529290931b9091166014830152602882015260480190565b74ffffffffffffffffffffffffffffffffffffffffff1993909316835260609190911b6bffffffffffffffffffffffff1916600b83015271ffffffffffffffffffffffffffffffffffff1916601f820152602d0190565b7fff0000000000000000000000000000000000000000000000000000000000000094909416845260609290921b6bffffffffffffffffffffffff191660018401526015830152603582015260550190565b60008482528351610c5c81602085016020880161104a565b60209201918201929092526040019392505050565b60008251610c8381846020870161104a565b9190910192915050565b7f190100000000000000000000000000000000000000000000000000000000000081526002810192909252602282015260420190565b7f602d3d8160093d39f30000000000000000000000000000000000000000000000815274ffffffffffffffffffffffffffffffffffffffffff1993909316600984015260609190911b6bffffffffffffffffffffffff1916601483015271ffffffffffffffffffffffffffffffffffff1916602882015260360190565b6001600160a01b0391909116815260200190565b6001600160a01b039d8e1681529b8d1660208d0152998c1660408c0152978b1660608b015295909916608089015260a088019390935260c087019190915260e08601526101008501526101208401949094526101408301939093526101608201929092526101808101919091526101a00190565b60006001600160a01b03808a16835280891660208401528760408401528660608401528086166080840152508360a083015260e060c0830152610e0e60e0830184610b42565b9998505050505050505050565b90815260200190565b93845260ff9290921660208401526040830152606082015260800190565b6000602082526107c66020830184610b42565b60208082526018908201527f45434453413a20696e76616c6964207369676e61747572650000000000000000604082015260600190565b6020808252601f908201527f45434453413a20696e76616c6964207369676e6174757265206c656e67746800604082015260600190565b6020808252600e908201527f6e6f6e6365206d69736d61746368000000000000000000000000000000000000604082015260600190565b6020808252600e908201527f496e76616c69642063616c6c6572000000000000000000000000000000000000604082015260600190565b60208082526022908201527f45434453413a20696e76616c6964207369676e6174757265202773272076616c604082015261756560f01b606082015260800190565b60208082526013908201527f53573a2072657175657374206578706972656400000000000000000000000000604082015260600190565b60208082526022908201527f45434453413a20696e76616c6964207369676e6174757265202776272076616c604082015261756560f01b606082015260800190565b60208082526012908201527f5369676e6174757265206d69736d617463680000000000000000000000000000604082015260600190565b60405181810167ffffffffffffffff8111828210171561104257600080fd5b604052919050565b60005b8381101561106557818101518382015260200161104d565b83811115611074576000848401525b50505050565b6001600160a01b038116811461108f57600080fd5b5056fea264697066735822122070cce68fbca99a39334be9e71324e17c1fa86a54af64ab5098c5ecb0274123e864736f6c634300060c0033",
  "linkReferences": {},
  "deployedLinkReferences": {}
}