{
  "_format": "hh-sol-artifact-1",
  "contractName": "MinimalBoltzDeployVerifier",
  "sourceName": "contracts/verifier/MinimalBoltzDeployVerifier.sol",
  "abi": [
    {
      "inputs": [
        {
          "internalType": "address",
          "name": "walletFactory",
          "type": "address"
        }
      ],
      "stateMutability": "nonpayable",
      "type": "constructor"
    },
    {
      "anonymous": false,
      "inputs": [
        {
          "indexed": true,
          "internalType": "address",
          "name": "previousOwner",
          "type": "address"
        },
        {
          "indexed": true,
          "internalType": "address",
          "name": "newOwner",
          "type": "address"
        }
      ],
      "name": "OwnershipTransferred",
      "type": "event"
    },
    {
      "inputs": [
        {
          "internalType": "address",
          "name": "destinationContract",
          "type": "address"
        }
      ],
      "name": "acceptContract",
      "outputs": [],
      "stateMutability": "nonpayable",
      "type": "function"
    },
    {
      "inputs": [
        {
          "internalType": "uint256",
          "name": "",
          "type": "uint256"
        }
      ],
      "name": "acceptedContracts",
      "outputs": [
        {
          "internalType": "address",
          "name": "",
          "type": "address"
        }
      ],
      "stateMutability": "view",
      "type": "function"
    },
    {
      "inputs": [
        {
          "internalType": "address",
          "name": "destinationContract",
          "type": "address"
        }
      ],
      "name": "acceptsContract",
      "outputs": [
        {
          "internalType": "bool",
          "name": "",
          "type": "bool"
        }
      ],
      "stateMutability": "view",
      "type": "function"
    },
    {
      "inputs": [
        {
          "internalType": "address",
          "name": "",
          "type": "address"
        }
      ],
      "name": "contracts",
      "outputs": [
        {
          "internalType": "bool",
          "name": "",
          "type": "bool"
        }
      ],
      "stateMutability": "view",
      "type": "function"
    },
    {
      "inputs": [
        {
          "internalType": "address",
          "name": "destinationContract",
          "type": "address"
        }
      ],
      "name": "destinationContractValidation",
      "outputs": [],
      "stateMutability": "view",
      "type": "function"
    },
    {
      "inputs": [],
      "name": "getAcceptedContracts",
      "outputs": [
        {
          "internalType": "address[]",
          "name": "",
          "type": "address[]"
        }
      ],
      "stateMutability": "view",
      "type": "function"
    },
    {
      "inputs": [],
      "name": "owner",
      "outputs": [
        {
          "internalType": "address",
          "name": "",
          "type": "address"
        }
      ],
      "stateMutability": "view",
      "type": "function"
    },
    {
      "inputs": [
        {
          "internalType": "address",
          "name": "destinationContract",
          "type": "address"
        },
        {
          "internalType": "uint256",
          "name": "index",
          "type": "uint256"
        }
      ],
      "name": "removeContract",
      "outputs": [],
      "stateMutability": "nonpayable",
      "type": "function"
    },
    {
      "inputs": [
        {
          "internalType": "address",
          "name": "newOwner",
          "type": "address"
        }
      ],
      "name": "transferOwnership",
      "outputs": [],
      "stateMutability": "nonpayable",
      "type": "function"
    },
    {
      "inputs": [
        {
          "components": [
            {
              "components": [
                {
                  "internalType": "address",
                  "name": "relayHub",
                  "type": "address"
                },
                {
                  "internalType": "address",
                  "name": "from",
                  "type": "address"
                },
                {
                  "internalType": "address",
                  "name": "to",
                  "type": "address"
                },
                {
                  "internalType": "address",
                  "name": "tokenContract",
                  "type": "address"
                },
                {
                  "internalType": "address",
                  "name": "recoverer",
                  "type": "address"
                },
                {
                  "internalType": "uint256",
                  "name": "value",
                  "type": "uint256"
                },
                {
                  "internalType": "uint256",
                  "name": "gas",
                  "type": "uint256"
                },
                {
                  "internalType": "uint256",
                  "name": "nonce",
                  "type": "uint256"
                },
                {
                  "internalType": "uint256",
                  "name": "tokenAmount",
                  "type": "uint256"
                },
                {
                  "internalType": "uint256",
                  "name": "tokenGas",
                  "type": "uint256"
                },
                {
                  "internalType": "uint256",
                  "name": "validUntilTime",
                  "type": "uint256"
                },
                {
                  "internalType": "uint256",
                  "name": "index",
                  "type": "uint256"
                },
                {
                  "internalType": "bytes",
                  "name": "data",
                  "type": "bytes"
                }
              ],
              "internalType": "struct IForwarder.DeployRequest",
              "name": "request",
              "type": "tuple"
            },
            {
              "components": [
                {
                  "internalType": "uint256",
                  "name": "gasPrice",
                  "type": "uint256"
                },
                {
                  "internalType": "address",
                  "name": "feesReceiver",
                  "type": "address"
                },
                {
                  "internalType": "address",
                  "name": "callForwarder",
                  "type": "address"
                },
                {
                  "internalType": "address",
                  "name": "callVerifier",
                  "type": "address"
                }
              ],
              "internalType": "struct EnvelopingTypes.RelayData",
              "name": "relayData",
              "type": "tuple"
            }
          ],
          "internalType": "struct EnvelopingTypes.DeployRequest",
          "name": "relayRequest",
          "type": "tuple"
        },
        {
          "internalType": "bytes",
          "name": "signature",
          "type": "bytes"
        }
      ],
      "name": "verifyRelayedCall",
      "outputs": [
        {
          "internalType": "bytes",
          "name": "context",
          "type": "bytes"
        }
      ],
      "stateMutability": "nonpayable",
      "type": "function"
    },
    {
      "inputs": [],
      "name": "versionVerifier",
      "outputs": [
        {
          "internalType": "string",
          "name": "",
          "type": "string"
        }
      ],
      "stateMutability": "view",
      "type": "function"
    }
  ],
  "bytecode": "0x60a060405234801561001057600080fd5b5060405161153238038061153283398101604081905261002f9161008d565b600080546001600160a01b03191633178082556040516001600160a01b039190911691907f8be0079c531659141344cd1fd0a4f28419497f9722a3daafe3b4186f6b6457e0908290a360601b6001600160601b0319166080526100bb565b60006020828403121561009e578081fd5b81516001600160a01b03811681146100b4578182fd5b9392505050565b60805160601c61145a6100d8600039806104c2525061145a6000f3fe608060405234801561001057600080fd5b50600436106100c95760003560e01c80638da5cb5b11610081578063976231581161005b5780639762315814610182578063d3f1e80814610195578063f2fde38b146101aa576100c9565b80638da5cb5b146101475780638f49ea101461015c57806393a7a3c71461016f576100c9565b80635256a8ef116100b25780635256a8ef1461010157806369dc9ff3146101145780637d2f1c2814610134576100c9565b806301171e3a146100ce5780631dac0746146100e3575b600080fd5b6100e16100dc366004610d03565b6101bd565b005b6100eb61032f565b6040516100f89190610ff7565b60405180910390f35b6100e161010f366004610ccb565b61034f565b610127610122366004610ccb565b610459565b6040516100f89190610fc0565b6100e1610142366004610ccb565b61046e565b61014f6104a9565b6040516100f89190610f18565b6100eb61016a366004610d66565b6104b8565b61012761017d366004610ccb565b61065f565b61014f610190366004610eaf565b61067d565b61019d6106a4565b6040516100f89190610f73565b6100e16101b8366004610ccb565b610706565b6000546001600160a01b031633146101f05760405162461bcd60e51b81526004016101e79061100a565b60405180910390fd5b6001600160a01b03821660009081526001602052604090205460ff166102285760405162461bcd60e51b81526004016101e7906112d3565b6002818154811061023557fe5b6000918252602090912001546001600160a01b0383811691161461026b5760405162461bcd60e51b81526004016101e7906110af565b6001600160a01b0382166000908152600160205260409020805460ff1916905560028054600019810190811061029d57fe5b600091825260209091200154600280546001600160a01b0390921691839081106102c357fe5b9060005260206000200160006101000a8154816001600160a01b0302191690836001600160a01b0316021790555060028054806102fc57fe5b6000828152602090208101600019908101805473ffffffffffffffffffffffffffffffffffffffff191690550190555050565b606060405180606001604052806024815260200161140160249139905090565b6000546001600160a01b031633146103795760405162461bcd60e51b81526004016101e79061100a565b6001600160a01b03811615806103935750610393816107be565b6103af5760405162461bcd60e51b81526004016101e79061122e565b6001600160a01b03811660009081526001602052604090205460ff16156103e85760405162461bcd60e51b81526004016101e790611041565b6001600160a01b031660008181526001602081905260408220805460ff1916821790556002805491820181559091527f405787fa12a823e0f2b7631cc41b3ba8828b3321ca811111fa75cd3aa3bb5ace01805473ffffffffffffffffffffffffffffffffffffffff19169091179055565b60016020526000908152604090205460ff1681565b6001600160a01b03811660009081526001602052604090205460ff166104a65760405162461bcd60e51b81526004016101e7906111c2565b50565b6000546001600160a01b031690565b606060006104e6857f00000000000000000000000000000000000000000000000000000000000000006107ca565b905060006104f48680611356565b610505906060810190604001610ccb565b6001600160a01b0316141561052c5760405162461bcd60e51b81526004016101e79061118b565b61054a6105398680611356565b610142906060810190604001610ccb565b60006105896105598780611356565b6105689061018081019061130a565b6105728980611356565b610583906060810190604001610ccb565b8561090e565b905060006105978780611356565b6105a8906080810190606001610ccb565b6001600160a01b0316146105ce5760405162461bcd60e51b81526004016101e790611078565b6001600160a01b0382163181016105e58780611356565b610100013511156106085760405162461bcd60e51b81526004016101e790611154565b816106138780611356565b61010001356106228880611356565b610633906080810190606001610ccb565b60405160200161064593929190610f50565b604051602081830303815290604052925050509392505050565b6001600160a01b031660009081526001602052604090205460ff1690565b6002818154811061068a57fe5b6000918252602090912001546001600160a01b0316905081565b606060028054806020026020016040519081016040528092919081815260200182805480156106fc57602002820191906000526020600020905b81546001600160a01b031681526001909101906020018083116106de575b5050505050905090565b6000546001600160a01b031633146107305760405162461bcd60e51b81526004016101e79061100a565b6001600160a01b0381166107565760405162461bcd60e51b81526004016101e7906110e6565b600080546040516001600160a01b03808516939216917f8be0079c531659141344cd1fd0a4f28419497f9722a3daafe3b4186f6b6457e091a36000805473ffffffffffffffffffffffffffffffffffffffff19166001600160a01b0392909216919091179055565b3b63ffffffff16151590565b60006001600160a01b0382166107e66080850160608601610ccb565b6001600160a01b03161461080c5760405162461bcd60e51b81526004016101e7906111f7565b600061081e6080850160608601610ccb565b6001600160a01b0316636088665e6108368680611356565b610847906040810190602001610ccb565b6108518780611356565b6108629060a0810190608001610ccb565b61086c8880611356565b61016001356040518463ffffffff1660e01b815260040161088f93929190610f2c565b60206040518083038186803b1580156108a757600080fd5b505afa1580156108bb573d6000803e3d6000fd5b505050506040513d601f19601f820116820180604052508101906108df9190610ce7565b90506108ea816107be565b156109075760405162461bcd60e51b81526004016101e79061111d565b9392505050565b60008061095086868080601f01602080910402602001604051908101604052809392919081815260200183838082843760009201829052509250610c6e915050565b905061095a610c76565b7fffffffff0000000000000000000000000000000000000000000000000000000082167fc3c37fbc000000000000000000000000000000000000000000000000000000001415610a19576109ac610ca4565b6109b9876004818b611393565b8101906109c69190610dfe565b90506040518060a001604052808260000151815260200182602001518152602001866001600160a01b0316815260200182604001516001600160a01b031681526020018260600151815250915050610a9c565b7fffffffff0000000000000000000000000000000000000000000000000000000082167fcd413efa000000000000000000000000000000000000000000000000000000001415610a8457610a70866004818a611393565b810190610a7d9190610e4d565b9050610a9c565b60405162461bcd60e51b81526004016101e790611265565b80516040518691600091600291610ab591602001610ef3565b60408051601f1981840301815290829052610acf91610efc565b602060405180830381855afa158015610aec573d6000803e3d6000fd5b5050506040513d601f19601f82011682018060405250810190610b0f9190610d4e565b90506000826001600160a01b0316638b2f8f828386602001518760400151886060015189608001516040518663ffffffff1660e01b8152600401610b57959493929190610fcb565b60206040518083038186803b158015610b6f57600080fd5b505afa158015610b83573d6000803e3d6000fd5b505050506040513d601f19601f82011682018060405250810190610ba79190610d4e565b6040517feb84e7f20000000000000000000000000000000000000000000000000000000081529091506001600160a01b0384169063eb84e7f290610bef908490600401610ef3565b602060405180830381600087803b158015610c0957600080fd5b505af1158015610c1d573d6000803e3d6000fd5b505050506040513d601f19601f82011682018060405250810190610c419190610d2e565b610c5d5760405162461bcd60e51b81526004016101e79061129c565b505050602001519695505050505050565b016020015190565b6040805160a08101825260008082526020820181905291810182905260608101829052608081019190915290565b60408051608081018252600080825260208201819052918101829052606081019190915290565b600060208284031215610cdc578081fd5b8135610907816113eb565b600060208284031215610cf8578081fd5b8151610907816113eb565b60008060408385031215610d15578081fd5b8235610d20816113eb565b946020939093013593505050565b600060208284031215610d3f578081fd5b81518015158114610907578182fd5b600060208284031215610d5f578081fd5b5051919050565b600080600060408486031215610d7a578081fd5b833567ffffffffffffffff80821115610d91578283fd5b9085019060a08288031215610da4578283fd5b90935060208501359080821115610db9578283fd5b818601915086601f830112610dcc578283fd5b813581811115610dda578384fd5b876020828501011115610deb578384fd5b6020830194508093505050509250925092565b600060808284031215610e0f578081fd5b610e19608061136c565b82358152602083013560208201526040830135610e35816113eb565b60408201526060928301359281019290925250919050565b600060a08284031215610e5e578081fd5b610e6860a061136c565b82358152602083013560208201526040830135610e84816113eb565b60408201526060830135610e97816113eb565b60608201526080928301359281019290925250919050565b600060208284031215610ec0578081fd5b5035919050565b60008151808452610edf8160208601602086016113bb565b601f01601f19169290920160200192915050565b90815260200190565b60008251610f0e8184602087016113bb565b9190910192915050565b6001600160a01b0391909116815260200190565b6001600160a01b039384168152919092166020820152604081019190915260600190565b6001600160a01b0393841681526020810192909252909116604082015260600190565b6020808252825182820181905260009190848201906040850190845b81811015610fb45783516001600160a01b031683529284019291840191600101610f8f565b50909695505050505050565b901515815260200190565b94855260208501939093526001600160a01b039182166040850152166060830152608082015260a00190565b6000602082526109076020830184610ec7565b60208082526017908201527f43616c6c6572206973206e6f7420746865206f776e6572000000000000000000604082015260600190565b6020808252601c908201527f436f6e747261637420697320616c726561647920616363657074656400000000604082015260600190565b6020808252601a908201527f52425443206e656365737361727920666f72207061796d656e74000000000000604082015260600190565b60208082526014908201527f57726f6e6720636f6e747261637420696e646578000000000000000000000000604082015260600190565b60208082526019908201527f4f776e657220697320746865207a65726f206164647265737300000000000000604082015260600190565b60208082526017908201527f4164647265737320616c72656164792063726561746564000000000000000000604082015260600190565b60208082526016908201527f4e61746976652062616c616e636520746f6f206c6f7700000000000000000000604082015260600190565b6020808252601d908201527f5357206e65656473206120636f6e747261637420657865637574696f6e000000604082015260600190565b6020808252818101527f44657374696e6174696f6e20636f6e7472616374206e6f7420616c6c6f776564604082015260600190565b6020808252600f908201527f496e76616c696420666163746f72790000000000000000000000000000000000604082015260600190565b60208082526019908201527f41646472657373206973206e6f74206120636f6e747261637400000000000000604082015260600190565b60208082526012908201527f4d6574686f64206e6f7420616c6c6f7765640000000000000000000000000000604082015260600190565b6020808252601a908201527f56657269666965723a207377617020686173206e6f2052425443000000000000604082015260600190565b60208082526018908201527f436f6e7472616374206973206e6f742061636365707465640000000000000000604082015260600190565b6000808335601e19843603018112611320578283fd5b83018035915067ffffffffffffffff82111561133a578283fd5b60200191503681900382131561134f57600080fd5b9250929050565b6000823561019e19833603018112610f0e578182fd5b60405181810167ffffffffffffffff8111828210171561138b57600080fd5b604052919050565b600080858511156113a2578182fd5b838611156113ae578182fd5b5050820193919092039150565b60005b838110156113d65781810151838201526020016113be565b838111156113e5576000848401525b50505050565b6001600160a01b03811681146104a657600080fdfe7269662e656e76656c6f70696e672e746f6b656e2e69766572696669657240322e302e31a2646970667358221220f9c284eba572935368051439dee49b7bafd653a423095a362f8605a26180f76a64736f6c634300060c0033",
  "linkReferences": {},
  "deployedLinkReferences": {}
}