{
  "_format": "hh-sol-artifact-1",
  "contractName": "RelayHub",
  "sourceName": "contracts/RelayHub.sol",
  "abi": [
    {
      "inputs": [
        {
          "internalType": "address",
          "name": "_penalizer",
          "type": "address"
        },
        {
          "internalType": "uint256",
          "name": "_maxWorkerCount",
          "type": "uint256"
        },
        {
          "internalType": "uint256",
          "name": "_minimumEntryDepositValue",
          "type": "uint256"
        },
        {
          "internalType": "uint256",
          "name": "_minimumUnstakeDelay",
          "type": "uint256"
        },
        {
          "internalType": "uint256",
          "name": "_minimumStake",
          "type": "uint256"
        }
      ],
      "stateMutability": "nonpayable",
      "type": "constructor"
    },
    {
      "anonymous": false,
      "inputs": [
        {
          "indexed": true,
          "internalType": "address",
          "name": "relayWorker",
          "type": "address"
        },
        {
          "indexed": false,
          "internalType": "address",
          "name": "sender",
          "type": "address"
        },
        {
          "indexed": false,
          "internalType": "uint256",
          "name": "reward",
          "type": "uint256"
        }
      ],
      "name": "Penalized",
      "type": "event"
    },
    {
      "anonymous": false,
      "inputs": [
        {
          "indexed": true,
          "internalType": "address",
          "name": "relayManager",
          "type": "address"
        },
        {
          "indexed": false,
          "internalType": "string",
          "name": "relayUrl",
          "type": "string"
        }
      ],
      "name": "RelayServerRegistered",
      "type": "event"
    },
    {
      "anonymous": false,
      "inputs": [
        {
          "indexed": true,
          "internalType": "address",
          "name": "relayManager",
          "type": "address"
        },
        {
          "indexed": false,
          "internalType": "address[]",
          "name": "newRelayWorkers",
          "type": "address[]"
        },
        {
          "indexed": false,
          "internalType": "uint256",
          "name": "workersCount",
          "type": "uint256"
        }
      ],
      "name": "RelayWorkersAdded",
      "type": "event"
    },
    {
      "anonymous": false,
      "inputs": [
        {
          "indexed": true,
          "internalType": "address",
          "name": "relayManager",
          "type": "address"
        },
        {
          "indexed": false,
          "internalType": "address[]",
          "name": "relayWorkers",
          "type": "address[]"
        },
        {
          "indexed": false,
          "internalType": "uint256",
          "name": "workersCount",
          "type": "uint256"
        }
      ],
      "name": "RelayWorkersDisabled",
      "type": "event"
    },
    {
      "anonymous": false,
      "inputs": [
        {
          "indexed": true,
          "internalType": "address",
          "name": "relayManager",
          "type": "address"
        },
        {
          "indexed": true,
          "internalType": "address",
          "name": "owner",
          "type": "address"
        },
        {
          "indexed": false,
          "internalType": "uint256",
          "name": "stake",
          "type": "uint256"
        },
        {
          "indexed": false,
          "internalType": "uint256",
          "name": "unstakeDelay",
          "type": "uint256"
        }
      ],
      "name": "StakeAdded",
      "type": "event"
    },
    {
      "anonymous": false,
      "inputs": [
        {
          "indexed": true,
          "internalType": "address",
          "name": "relayManager",
          "type": "address"
        },
        {
          "indexed": true,
          "internalType": "address",
          "name": "beneficiary",
          "type": "address"
        },
        {
          "indexed": false,
          "internalType": "uint256",
          "name": "reward",
          "type": "uint256"
        }
      ],
      "name": "StakePenalized",
      "type": "event"
    },
    {
      "anonymous": false,
      "inputs": [
        {
          "indexed": true,
          "internalType": "address",
          "name": "relayManager",
          "type": "address"
        },
        {
          "indexed": true,
          "internalType": "address",
          "name": "owner",
          "type": "address"
        },
        {
          "indexed": false,
          "internalType": "uint256",
          "name": "withdrawBlock",
          "type": "uint256"
        }
      ],
      "name": "StakeUnlocked",
      "type": "event"
    },
    {
      "anonymous": false,
      "inputs": [
        {
          "indexed": true,
          "internalType": "address",
          "name": "relayManager",
          "type": "address"
        },
        {
          "indexed": true,
          "internalType": "address",
          "name": "owner",
          "type": "address"
        },
        {
          "indexed": false,
          "internalType": "uint256",
          "name": "amount",
          "type": "uint256"
        }
      ],
      "name": "StakeWithdrawn",
      "type": "event"
    },
    {
      "anonymous": false,
      "inputs": [
        {
          "indexed": true,
          "internalType": "address",
          "name": "relayManager",
          "type": "address"
        },
        {
          "indexed": false,
          "internalType": "address",
          "name": "relayWorker",
          "type": "address"
        },
        {
          "indexed": false,
          "internalType": "bytes32",
          "name": "relayRequestSigHash",
          "type": "bytes32"
        },
        {
          "indexed": false,
          "internalType": "bytes",
          "name": "relayedCallReturnValue",
          "type": "bytes"
        }
      ],
      "name": "TransactionRelayed",
      "type": "event"
    },
    {
      "anonymous": false,
      "inputs": [
        {
          "indexed": true,
          "internalType": "address",
          "name": "relayManager",
          "type": "address"
        },
        {
          "indexed": false,
          "internalType": "address",
          "name": "relayWorker",
          "type": "address"
        },
        {
          "indexed": false,
          "internalType": "bytes32",
          "name": "relayRequestSigHash",
          "type": "bytes32"
        },
        {
          "indexed": false,
          "internalType": "bytes",
          "name": "reason",
          "type": "bytes"
        }
      ],
      "name": "TransactionRelayedButRevertedByRecipient",
      "type": "event"
    },
    {
      "anonymous": false,
      "inputs": [
        {
          "indexed": false,
          "internalType": "bytes",
          "name": "returnValue",
          "type": "bytes"
        }
      ],
      "name": "TransactionResult",
      "type": "event"
    },
    {
      "inputs": [
        {
          "internalType": "address[]",
          "name": "newRelayWorkers",
          "type": "address[]"
        }
      ],
      "name": "addRelayWorkers",
      "outputs": [],
      "stateMutability": "nonpayable",
      "type": "function"
    },
    {
      "inputs": [
        {
          "components": [
            {
              "components": [
                {
                  "internalType": "address",
                  "name": "relayHub",
                  "type": "address"
                },
                {
                  "internalType": "address",
                  "name": "from",
                  "type": "address"
                },
                {
                  "internalType": "address",
                  "name": "to",
                  "type": "address"
                },
                {
                  "internalType": "address",
                  "name": "tokenContract",
                  "type": "address"
                },
                {
                  "internalType": "address",
                  "name": "recoverer",
                  "type": "address"
                },
                {
                  "internalType": "uint256",
                  "name": "value",
                  "type": "uint256"
                },
                {
                  "internalType": "uint256",
                  "name": "gas",
                  "type": "uint256"
                },
                {
                  "internalType": "uint256",
                  "name": "nonce",
                  "type": "uint256"
                },
                {
                  "internalType": "uint256",
                  "name": "tokenAmount",
                  "type": "uint256"
                },
                {
                  "internalType": "uint256",
                  "name": "tokenGas",
                  "type": "uint256"
                },
                {
                  "internalType": "uint256",
                  "name": "validUntilTime",
                  "type": "uint256"
                },
                {
                  "internalType": "uint256",
                  "name": "index",
                  "type": "uint256"
                },
                {
                  "internalType": "bytes",
                  "name": "data",
                  "type": "bytes"
                }
              ],
              "internalType": "struct IForwarder.DeployRequest",
              "name": "request",
              "type": "tuple"
            },
            {
              "components": [
                {
                  "internalType": "uint256",
                  "name": "gasPrice",
                  "type": "uint256"
                },
                {
                  "internalType": "address",
                  "name": "feesReceiver",
                  "type": "address"
                },
                {
                  "internalType": "address",
                  "name": "callForwarder",
                  "type": "address"
                },
                {
                  "internalType": "address",
                  "name": "callVerifier",
                  "type": "address"
                }
              ],
              "internalType": "struct EnvelopingTypes.RelayData",
              "name": "relayData",
              "type": "tuple"
            }
          ],
          "internalType": "struct EnvelopingTypes.DeployRequest",
          "name": "deployRequest",
          "type": "tuple"
        },
        {
          "internalType": "bytes",
          "name": "signature",
          "type": "bytes"
        }
      ],
      "name": "deployCall",
      "outputs": [],
      "stateMutability": "nonpayable",
      "type": "function"
    },
    {
      "inputs": [
        {
          "internalType": "address[]",
          "name": "relayWorkers",
          "type": "address[]"
        }
      ],
      "name": "disableRelayWorkers",
      "outputs": [],
      "stateMutability": "nonpayable",
      "type": "function"
    },
    {
      "inputs": [
        {
          "internalType": "address",
          "name": "relayManager",
          "type": "address"
        }
      ],
      "name": "getRelayInfo",
      "outputs": [
        {
          "components": [
            {
              "internalType": "address",
              "name": "manager",
              "type": "address"
            },
            {
              "internalType": "bool",
              "name": "currentlyStaked",
              "type": "bool"
            },
            {
              "internalType": "bool",
              "name": "registered",
              "type": "bool"
            },
            {
              "internalType": "string",
              "name": "url",
              "type": "string"
            }
          ],
          "internalType": "struct IRelayHub.RelayManagerData",
          "name": "relayManagerData",
          "type": "tuple"
        }
      ],
      "stateMutability": "view",
      "type": "function"
    },
    {
      "inputs": [
        {
          "internalType": "address",
          "name": "relayManager",
          "type": "address"
        }
      ],
      "name": "getStakeInfo",
      "outputs": [
        {
          "components": [
            {
              "internalType": "uint256",
              "name": "stake",
              "type": "uint256"
            },
            {
              "internalType": "uint256",
              "name": "unstakeDelay",
              "type": "uint256"
            },
            {
              "internalType": "uint256",
              "name": "withdrawBlock",
              "type": "uint256"
            },
            {
              "internalType": "address payable",
              "name": "owner",
              "type": "address"
            }
          ],
          "internalType": "struct IRelayHub.StakeInfo",
          "name": "stakeInfo",
          "type": "tuple"
        }
      ],
      "stateMutability": "view",
      "type": "function"
    },
    {
      "inputs": [
        {
          "internalType": "address",
          "name": "relayManager",
          "type": "address"
        }
      ],
      "name": "isRelayManagerStaked",
      "outputs": [
        {
          "internalType": "bool",
          "name": "",
          "type": "bool"
        }
      ],
      "stateMutability": "view",
      "type": "function"
    },
    {
      "inputs": [],
      "name": "maxWorkerCount",
      "outputs": [
        {
          "internalType": "uint256",
          "name": "",
          "type": "uint256"
        }
      ],
      "stateMutability": "view",
      "type": "function"
    },
    {
      "inputs": [],
      "name": "minimumEntryDepositValue",
      "outputs": [
        {
          "internalType": "uint256",
          "name": "",
          "type": "uint256"
        }
      ],
      "stateMutability": "view",
      "type": "function"
    },
    {
      "inputs": [],
      "name": "minimumStake",
      "outputs": [
        {
          "internalType": "uint256",
          "name": "",
          "type": "uint256"
        }
      ],
      "stateMutability": "view",
      "type": "function"
    },
    {
      "inputs": [],
      "name": "minimumUnstakeDelay",
      "outputs": [
        {
          "internalType": "uint256",
          "name": "",
          "type": "uint256"
        }
      ],
      "stateMutability": "view",
      "type": "function"
    },
    {
      "inputs": [
        {
          "internalType": "address",
          "name": "relayWorker",
          "type": "address"
        },
        {
          "internalType": "address payable",
          "name": "beneficiary",
          "type": "address"
        }
      ],
      "name": "penalize",
      "outputs": [],
      "stateMutability": "nonpayable",
      "type": "function"
    },
    {
      "inputs": [],
      "name": "penalizer",
      "outputs": [
        {
          "internalType": "address",
          "name": "",
          "type": "address"
        }
      ],
      "stateMutability": "view",
      "type": "function"
    },
    {
      "inputs": [
        {
          "internalType": "string",
          "name": "url",
          "type": "string"
        }
      ],
      "name": "registerRelayServer",
      "outputs": [],
      "stateMutability": "nonpayable",
      "type": "function"
    },
    {
      "inputs": [
        {
          "components": [
            {
              "components": [
                {
                  "internalType": "address",
                  "name": "relayHub",
                  "type": "address"
                },
                {
                  "internalType": "address",
                  "name": "from",
                  "type": "address"
                },
                {
                  "internalType": "address",
                  "name": "to",
                  "type": "address"
                },
                {
                  "internalType": "address",
                  "name": "tokenContract",
                  "type": "address"
                },
                {
                  "internalType": "uint256",
                  "name": "value",
                  "type": "uint256"
                },
                {
                  "internalType": "uint256",
                  "name": "gas",
                  "type": "uint256"
                },
                {
                  "internalType": "uint256",
                  "name": "nonce",
                  "type": "uint256"
                },
                {
                  "internalType": "uint256",
                  "name": "tokenAmount",
                  "type": "uint256"
                },
                {
                  "internalType": "uint256",
                  "name": "tokenGas",
                  "type": "uint256"
                },
                {
                  "internalType": "uint256",
                  "name": "validUntilTime",
                  "type": "uint256"
                },
                {
                  "internalType": "bytes",
                  "name": "data",
                  "type": "bytes"
                }
              ],
              "internalType": "struct IForwarder.ForwardRequest",
              "name": "request",
              "type": "tuple"
            },
            {
              "components": [
                {
                  "internalType": "uint256",
                  "name": "gasPrice",
                  "type": "uint256"
                },
                {
                  "internalType": "address",
                  "name": "feesReceiver",
                  "type": "address"
                },
                {
                  "internalType": "address",
                  "name": "callForwarder",
                  "type": "address"
                },
                {
                  "internalType": "address",
                  "name": "callVerifier",
                  "type": "address"
                }
              ],
              "internalType": "struct EnvelopingTypes.RelayData",
              "name": "relayData",
              "type": "tuple"
            }
          ],
          "internalType": "struct EnvelopingTypes.RelayRequest",
          "name": "relayRequest",
          "type": "tuple"
        },
        {
          "internalType": "bytes",
          "name": "signature",
          "type": "bytes"
        }
      ],
      "name": "relayCall",
      "outputs": [
        {
          "internalType": "bool",
          "name": "destinationCallSuccess",
          "type": "bool"
        }
      ],
      "stateMutability": "nonpayable",
      "type": "function"
    },
    {
      "inputs": [
        {
          "internalType": "address",
          "name": "",
          "type": "address"
        }
      ],
      "name": "relayData",
      "outputs": [
        {
          "internalType": "address",
          "name": "manager",
          "type": "address"
        },
        {
          "internalType": "bool",
          "name": "currentlyStaked",
          "type": "bool"
        },
        {
          "internalType": "bool",
          "name": "registered",
          "type": "bool"
        },
        {
          "internalType": "string",
          "name": "url",
          "type": "string"
        }
      ],
      "stateMutability": "view",
      "type": "function"
    },
    {
      "inputs": [
        {
          "internalType": "address",
          "name": "relayManager",
          "type": "address"
        },
        {
          "internalType": "uint256",
          "name": "unstakeDelay",
          "type": "uint256"
        }
      ],
      "name": "stakeForAddress",
      "outputs": [],
      "stateMutability": "payable",
      "type": "function"
    },
    {
      "inputs": [
        {
          "internalType": "address",
          "name": "",
          "type": "address"
        }
      ],
      "name": "stakes",
      "outputs": [
        {
          "internalType": "uint256",
          "name": "stake",
          "type": "uint256"
        },
        {
          "internalType": "uint256",
          "name": "unstakeDelay",
          "type": "uint256"
        },
        {
          "internalType": "uint256",
          "name": "withdrawBlock",
          "type": "uint256"
        },
        {
          "internalType": "address payable",
          "name": "owner",
          "type": "address"
        }
      ],
      "stateMutability": "view",
      "type": "function"
    },
    {
      "inputs": [
        {
          "internalType": "address",
          "name": "relayManager",
          "type": "address"
        }
      ],
      "name": "unlockStake",
      "outputs": [],
      "stateMutability": "nonpayable",
      "type": "function"
    },
    {
      "inputs": [],
      "name": "versionHub",
      "outputs": [
        {
          "internalType": "string",
          "name": "",
          "type": "string"
        }
      ],
      "stateMutability": "view",
      "type": "function"
    },
    {
      "inputs": [
        {
          "internalType": "address",
          "name": "relayManager",
          "type": "address"
        }
      ],
      "name": "withdrawStake",
      "outputs": [],
      "stateMutability": "nonpayable",
      "type": "function"
    },
    {
      "inputs": [
        {
          "internalType": "address",
          "name": "",
          "type": "address"
        }
      ],
      "name": "workerCount",
      "outputs": [
        {
          "internalType": "uint256",
          "name": "",
          "type": "uint256"
        }
      ],
      "stateMutability": "view",
      "type": "function"
    },
    {
      "inputs": [
        {
          "internalType": "address",
          "name": "",
          "type": "address"
        }
      ],
      "name": "workerToManager",
      "outputs": [
        {
          "internalType": "bytes32",
          "name": "",
          "type": "bytes32"
        }
      ],
      "stateMutability": "view",
      "type": "function"
    }
  ],
  "bytecode": "0x60c0604052601e60808190527f322e302e312b656e76656c6f70696e672e6875622e6972656c6179687562000060a090815262000040916005919062000100565b503480156200004e57600080fd5b506040516200283c3803806200283c83398101604081905262000071916200019c565b600084118015620000825750600081115b80156200008f5750600083115b80156200009c5750600082115b620000c45760405162461bcd60e51b8152600401620000bb90620001f1565b60405180910390fd5b600480546001600160a01b0319166001600160a01b03969096169590951790945560039290925560019190915560009190915560025562000228565b828054600181600116156101000203166002900490600052602060002090601f016020900481019282601f106200014357805160ff191683800117855562000173565b8280016001018555821562000173579182015b828111156200017357825182559160200191906001019062000156565b506200018192915062000185565b5090565b5b8082111562000181576000815560010162000186565b600080600080600060a08688031215620001b4578081fd5b85516001600160a01b0381168114620001cb578182fd5b602087015160408801516060890151608090990151929a91995097965090945092505050565b60208082526017908201527f696e76616c69642068756220696e697420706172616d73000000000000000000604082015260600190565b61260480620002386000396000f3fe6080604052600436106101755760003560e01c8063c2da0786116100cb578063c5a716cc1161007f578063e5fad97811610059578063e5fad9781461041a578063ebcd31ac1461042f578063ec5ffac21461044f57610175565b8063c5a716cc146103a8578063ca998f56146103d8578063d904c732146103f857610175565b8063c425c6a5116100b0578063c425c6a514610346578063c4464b2914610366578063c4775a681461038657610175565b8063c2da0786146102f9578063c34531531461031957610175565b80634a1ce5991161012d5780635d2fb768116101075780635d2fb768146102b157806371116320146102c4578063c23a5cea146102d957610175565b80634a1ce599146102445780634b84219e14610264578063528ab2ad1461029157610175565b8063194ac3071161015e578063194ac307146101d55780631c9faa89146102025780632ad311b51461021757610175565b806316934fc41461017a57806317014457146101b3575b600080fd5b34801561018657600080fd5b5061019a610195366004611899565b610464565b6040516101aa94939291906124d6565b60405180910390f35b3480156101bf57600080fd5b506101d36101ce366004611a78565b610494565b005b3480156101e157600080fd5b506101f56101f0366004611899565b610549565b6040516101aa9190611c9b565b34801561020e57600080fd5b506101f561055b565b34801561022357600080fd5b50610237610232366004611899565b610561565b6040516101aa9190611c90565b34801561025057600080fd5b506101d361025f366004611899565b6105a6565b34801561027057600080fd5b5061028461027f366004611899565b610681565b6040516101aa919061244e565b34801561029d57600080fd5b506102376102ac366004611ade565b610777565b6101d36102bf3660046118ed565b6108e9565b3480156102d057600080fd5b506101f5610ac5565b3480156102e557600080fd5b506101d36102f4366004611899565b610acb565b34801561030557600080fd5b506101d3610314366004611918565b610c09565b34801561032557600080fd5b50610339610334366004611899565b610d7b565b6040516101aa9190612494565b34801561035257600080fd5b506101d3610361366004611a38565b610dd6565b34801561037257600080fd5b506101d3610381366004611918565b610ec0565b34801561039257600080fd5b5061039b611020565b6040516101aa9190611bb9565b3480156103b457600080fd5b506103c86103c3366004611899565b61102f565b6040516101aa9493929190611bfe565b3480156103e457600080fd5b506101f56103f3366004611899565b6110f5565b34801561040457600080fd5b5061040d611107565b6040516101aa9190611dff565b34801561042657600080fd5b506101f5611195565b34801561043b57600080fd5b506101d361044a3660046118b5565b61119b565b34801561045b57600080fd5b506101f5611332565b6008602052600090815260409020805460018201546002830154600390930154919290916001600160a01b031684565b336000908152600660205260409020546001808216146104cf5760405162461bcd60e51b81526004016104c69061225a565b60405180910390fd5b600481901c3332146104f35760405162461bcd60e51b81526004016104c690611e12565b6104fc81611338565b3a602086013511156105205760405162461bcd60e51b81526004016104c690611eec565b6000606061052f878787611396565b915091508161054057805160208201fd5b50505050505050565b60076020526000908152604090205481565b60025481565b6001600160a01b038116600090815260086020526040812081548154108015906105915750600154816001015410155b801561059f57506002810154155b9392505050565b6001600160a01b038082166000908152600860205260409020600381015490911633146105e55760405162461bcd60e51b81526004016104c6906122ff565b6002810154156106075760405162461bcd60e51b81526004016104c690611eb5565b60018101546106179043906114c9565b600282019081556001600160a01b03831660008181526009602052604090819020805460ff60a01b191690559154915133927f9ffc6168de1eb7f1d16200f614753cd7edce5a2186aab1c612199dd7316cd7c4916106759190611c9b565b60405180910390a35050565b610689611746565b6001600160a01b0380831660009081526009602090815260409182902082516080810184528154948516815260ff600160a01b86048116151582850152600160a81b909504909416151584840152600180820180548551601f600260001995841615610100029590950190921693909304908101859004850283018501909552848252919360608601939192918301828280156107675780601f1061073c57610100808354040283529160200191610767565b820191906000526020600020905b81548152906001019060200180831161074a57829003601f168201915b5050505050815250509050919050565b60003332146107985760405162461bcd60e51b81526004016104c690611e12565b3a602085013511156107bc5760405162461bcd60e51b81526004016104c690611eec565b336000908152600660205260409020546001808216146107ee5760405162461bcd60e51b81526004016104c69061225a565b600481901c6107fc81611338565b6000606061080b8888886114f7565b90965090925090508161082057805160208201fd5b841561088457826001600160a01b03167fdf198d2c3963f45c88b865617cc67ce19c4857c2e764157f09d482bebc7d2694338989604051610862929190611b8d565b60405190819003812061087792918690611bcd565b60405180910390a26108de565b826001600160a01b03167f1b6a6ede6c95fbbcfcda7be07a07972d087a6bcd66b05a460c44408b580c649b3389896040516108c0929190611b8d565b6040519081900381206108d592918690611bcd565b60405180910390a25b505050509392505050565b6001600160a01b03808316600090815260086020526040902060038101549091161580610922575060038101546001600160a01b031633145b61093e5760405162461bcd60e51b81526004016104c6906122ff565b6001548210156109605760405162461bcd60e51b81526004016104c69061206d565b80600101548210156109845760405162461bcd60e51b81526004016104c6906120a4565b336001600160a01b03841614156109ad5760405162461bcd60e51b81526004016104c690612036565b336000908152600860205260409020600301546001600160a01b0316156109e65760405162461bcd60e51b81526004016104c6906120d9565b60038101546001600160a01b0316610a1a57600254341015610a1a5760405162461bcd60e51b81526004016104c690612291565b60038101805473ffffffffffffffffffffffffffffffffffffffff1990811633178255825434018355600183018481556001600160a01b0386811660008181526009602052604090819020805460ff60a01b199616831795909516600160a01b179094559354855492549351911693927fef7c8dfef14cbefdf829b8f066b068b677992411137321d64b3ed4538c2b363792610ab8929091906124c8565b60405180910390a3505050565b60015481565b6001600160a01b03808216600090815260086020526040902060038101549091163314610b0a5760405162461bcd60e51b81526004016104c6906122ff565b6000816002015411610b2e5760405162461bcd60e51b81526004016104c690612147565b4381600201541115610b525760405162461bcd60e51b81526004016104c690611f5a565b80546001600160a01b0383166000908152600860205260408082208281556001810183905560028101839055600301805473ffffffffffffffffffffffffffffffffffffffff1916905551339183156108fc02918491818181858888f19350505050158015610bc5573d6000803e3d6000fd5b50336001600160a01b0316836001600160a01b03167fb7c918e0e249f999e965cafeb6c664271b3f4317d296461500e71da39f0cbda383604051610ab89190611c9b565b33600081815260076020526040902080548301908190556003541015610c415760405162461bcd60e51b81526004016104c6906121ec565b610c4a81611338565b6001740ffffffffffffffffffffffffffffffffffffffff0600483901b161760005b83811015610d20576000600681878785818110610c8557fe5b9050602002016020810190610c9a9190611899565b6001600160a01b03166001600160a01b031681526020019081526020016000205414610cd85760405162461bcd60e51b81526004016104c690611e47565b8160066000878785818110610ce957fe5b9050602002016020810190610cfe9190611899565b6001600160a01b03168152602081019190915260400160002055600101610c6c565b506001600160a01b038216600081815260076020526040908190205490517febf4a9bffb39f7c5dbf3f65540183b9381ae226ac3d0a45b4cad484713bd4a2891610d6d9188918891611c3a565b60405180910390a250505050565b610d8361176c565b506001600160a01b03908116600090815260086020908152604091829020825160808101845281548152600182015492810192909252600281015492820192909252600390910154909116606082015290565b610ddf33611338565b33600090815260076020526040902054610e0b5760405162461bcd60e51b81526004016104c690612110565b336000818152600960205260409020805473ffffffffffffffffffffffffffffffffffffffff19169091178155610e4690600101838361179d565b50336000818152600960205260409081902080547fffffffffffffffffffff00ffffffffffffffffffffffffffffffffffffffffff16600160a81b179055517f2eac352dc0e358bc5310067728e308674f806dbea7538355fd9da0ba0e9078ef90610eb49085908590611de3565b60405180910390a25050565b3360009081526007602052604090205481811015610ef05760405162461bcd60e51b81526004016104c690611fc8565b3360008181526007602052604090208383039055610f0d90611338565b3360041b600181179060005b84811015610fcd578260066000888885818110610f3257fe5b9050602002016020810190610f479190611899565b6001600160a01b03166001600160a01b031681526020019081526020016000205414610f855760405162461bcd60e51b81526004016104c690612223565b8160066000888885818110610f9657fe5b9050602002016020810190610fab9190611899565b6001600160a01b03168152602081019190915260400160002055600101610f19565b5033600081815260076020526040908190205490517f8649769f616f939414e9f75b3c6397d707076c7d0bba032dbcef34e3509cce83916110119189918991611c3a565b60405180910390a25050505050565b6004546001600160a01b031681565b6009602090815260009182526040918290208054600180830180548651601f6002600019958416156101000295909501909216939093049081018690048602830186019096528582526001600160a01b0383169560ff600160a01b8504811696600160a81b9095041694938301828280156110eb5780601f106110c0576101008083540402835291602001916110eb565b820191906000526020600020905b8154815290600101906020018083116110ce57829003601f168201915b5050505050905084565b60066020526000908152604090205481565b6005805460408051602060026001851615610100026000190190941693909304601f8101849004840282018401909252818152929183018282801561118d5780601f106111625761010080835404028352916020019161118d565b820191906000526020600020905b81548152906001019060200180831161117057829003601f168201915b505050505081565b60035481565b6004546001600160a01b031633146111c55760405162461bcd60e51b81526004016104c69061217e565b6001600160a01b0380831660009081526006602052604090205460041c9081166112015760405162461bcd60e51b81526004016104c6906122c8565b6001600160a01b03811660009081526008602052604090208054806112385760405162461bcd60e51b81526004016104c6906121b5565b6000808355611248826002611659565b90506000611256838361168b565b6001600160a01b038616600090815260096020526040808220805460ff60a01b19169055519192509083156108fc0290849083818181858288f193505050501580156112a6573d6000803e3d6000fd5b506040516001600160a01b0387169082156108fc029083906000818181858888f193505050501580156112dd573d6000803e3d6000fd5b50856001600160a01b0316856001600160a01b03167f2f2ba0bf4c9bedc2210a4da5b5811c2a4fd28e62c51bb90c3ea6fdce00808eb0836040516113219190611c9b565b60405180910390a350505050505050565b60005481565b6001600160a01b038116600090815260086020526040812090548154108015906113685750600154816001015410155b801561137657506002810154155b6113925760405162461bcd60e51b81526004016104c690611f23565b5050565b600060606113a960808601868301611899565b6001600160a01b03167fb131fcba000000000000000000000000000000000000000000000000000000006113dd87806124fa565b6113e9886020016116b3565b6113f960608a0160408b01611899565b888860405160240161140f959493929190612336565b60408051601f198184030181529181526020820180517bffffffffffffffffffffffffffffffffffffffffffffffffffffffff167fffffffff0000000000000000000000000000000000000000000000000000000090941693909317909252905161147a9190611b9d565b6000604051808303816000865af19150503d80600081146114b7576040519150601f19603f3d011682016040523d82523d6000602084013e6114bc565b606091505b5090969095509350505050565b6000828201838110156114ee5760405162461bcd60e51b81526004016104c690611e7e565b90505b92915050565b600080606061150b60808701878301611899565b6001600160a01b03167f75a6dad700000000000000000000000000000000000000000000000000000000611541602089016116b3565b61154b8980612510565b61155b60608b0160408c01611899565b8989604051602401611571959493929190611ca4565b60408051601f198184030181529181526020820180517bffffffffffffffffffffffffffffffffffffffffffffffffffffffff167fffffffff000000000000000000000000000000000000000000000000000000009094169390931790925290516115dc9190611b9d565b6000604051808303816000865af19150503d8060008114611619576040519150601f19603f3d011682016040523d82523d6000602084013e61161e565b606091505b5090935090508215611644578080602001905181019061163e9190611987565b90925090505b61165081610400611739565b93509350939050565b600080821161167a5760405162461bcd60e51b81526004016104c690611fff565b81838161168357fe5b049392505050565b6000828211156116ad5760405162461bcd60e51b81526004016104c690611f91565b50900390565b60007f5ac7e082f84953f36d641103da716f31c3a2eb7cb983e2cd032f2c7b261031dd82356116e86040850160208601611899565b6116f86060860160408701611899565b6117086080870160608801611899565b60405160200161171c959493929190611db5565b604051602081830303815290604052805190602001209050919050565b8082511115611392579052565b604080516080810182526000808252602082018190529181019190915260608082015290565b604051806080016040528060008152602001600081526020016000815260200160006001600160a01b031681525090565b828054600181600116156101000203166002900490600052602060002090601f016020900481019282601f106117de5782800160ff1982351617855561180b565b8280016001018555821561180b579182015b8281111561180b5782358255916020019190600101906117f0565b5061181792915061181b565b5090565b5b80821115611817576000815560010161181c565b80356114f1816125a8565b60008083601f84011261184c578182fd5b50813567ffffffffffffffff811115611863578182fd5b60208301915083602082850101111561187b57600080fd5b9250929050565b600060a08284031215611893578081fd5b50919050565b6000602082840312156118aa578081fd5b81356114ee816125a8565b600080604083850312156118c7578081fd5b82356118d2816125a8565b915060208301356118e2816125a8565b809150509250929050565b600080604083850312156118ff578182fd5b823561190a816125a8565b946020939093013593505050565b6000806020838503121561192a578182fd5b823567ffffffffffffffff80821115611941578384fd5b818501915085601f830112611954578384fd5b813581811115611962578485fd5b8660208083028501011115611975578485fd5b60209290920196919550909350505050565b60008060408385031215611999578182fd5b82516119a4816125c0565b602084015190925067ffffffffffffffff808211156119c1578283fd5b818501915085601f8301126119d4578283fd5b8151818111156119e2578384fd5b604051601f8201601f191681016020018381118282101715611a02578586fd5b604052818152838201602001881015611a19578485fd5b611a2a826020830160208701612578565b809450505050509250929050565b60008060208385031215611a4a578182fd5b823567ffffffffffffffff811115611a60578283fd5b611a6c8582860161183b565b90969095509350505050565b600080600060408486031215611a8c578081fd5b833567ffffffffffffffff80821115611aa3578283fd5b611aaf87838801611882565b94506020860135915080821115611ac4578283fd5b50611ad18682870161183b565b9497909650939450505050565b600080600060408486031215611af2578283fd5b833567ffffffffffffffff80821115611b09578485fd5b611b1587838801611882565b94506020860135915080821115611ac4578384fd5b6001600160a01b03169052565b60008284528282602086013780602084860101526020601f19601f85011685010190509392505050565b60008151808452611b79816020860160208601612578565b601f01601f19169290920160200192915050565b6000828483379101908152919050565b60008251611baf818460208701612578565b9190910192915050565b6001600160a01b0391909116815260200190565b60006001600160a01b038516825283602083015260606040830152611bf56060830184611b61565b95945050505050565b60006001600160a01b03861682528415156020830152831515604083015260806060830152611c306080830184611b61565b9695505050505050565b6040808252810183905260008460608301825b86811015611c7d5760208335611c62816125a8565b6001600160a01b031683529283019290910190600101611c4d565b5060209390930193909352509392505050565b901515815260200190565b90815260200190565b60008682526080602083015260208601611cca60808401611cc5838a611830565b611b2a565b611cd48188612526565b9050611ce360a0840182611b2a565b50611cf16040870187612526565b611cfe60c0840182611b2a565b50611d0c6060870187612526565b611d1960e0840182611b2a565b5061010060808701358184015261012060a08801358185015261014060c08901358186015261016060e08a013581870152838a0135610180870152828a01356101a0870152611d6a828b018b612533565b94509250806101c08701525050611d866101e085018383611b37565b915050611d966040840187611b2a565b8281036060840152611da9818587611b37565b98975050505050505050565b94855260208501939093526001600160a01b0391821660408501528116606084015216608082015260a00190565b600060208252611df7602083018486611b37565b949350505050565b60006020825261059f6020830184611b61565b6020808252818101527f52656c6179576f726b65722063616e6e6f74206265206120636f6e7472616374604082015260600190565b60208082526019908201527f7468697320776f726b6572206861732061206d616e6167657200000000000000604082015260600190565b6020808252601b908201527f536166654d6174683a206164646974696f6e206f766572666c6f770000000000604082015260600190565b6020808252600f908201527f616c72656164792070656e64696e670000000000000000000000000000000000604082015260600190565b60208082526011908201527f496e76616c696420676173207072696365000000000000000000000000000000604082015260600190565b60208082526017908201527f52656c61794d616e61676572206e6f74207374616b6564000000000000000000604082015260600190565b60208082526015908201527f5769746864726177616c206973206e6f74206475650000000000000000000000604082015260600190565b6020808252601e908201527f536166654d6174683a207375627472616374696f6e206f766572666c6f770000604082015260600190565b6020808252601b908201527f696e76616c6964207175616e74697479206f6620776f726b6572730000000000604082015260600190565b6020808252601a908201527f536166654d6174683a206469766973696f6e206279207a65726f000000000000604082015260600190565b6020808252601a908201527f63616c6c6572206973207468652072656c61794d616e61676572000000000000604082015260600190565b60208082526017908201527f756e7374616b6544656c617920697320746f6f206c6f77000000000000000000604082015260600190565b6020808252818101527f756e7374616b6544656c61792063616e6e6f7420626520646563726561736564604082015260600190565b6020808252601f908201527f73656e64657220697320612072656c61794d616e6167657220697473656c6600604082015260600190565b60208082526010908201527f6e6f2072656c617920776f726b65727300000000000000000000000000000000604082015260600190565b6020808252601b908201527f5769746864726177616c206973206e6f74207363686564756c65640000000000604082015260600190565b6020808252600d908201527f4e6f742070656e616c697a657200000000000000000000000000000000000000604082015260600190565b60208082526016908201527f556e7374616b65642072656c6179206d616e6167657200000000000000000000604082015260600190565b60208082526010908201527f746f6f206d616e7920776f726b65727300000000000000000000000000000000604082015260600190565b60208082526011908201527f496e636f7272656374204d616e61676572000000000000000000000000000000604082015260600190565b60208082526015908201527f4e6f7420616e20656e61626c656420776f726b65720000000000000000000000604082015260600190565b6020808252601a908201527f496e73756666696369656e7420696e697469616c207374616b65000000000000604082015260600190565b60208082526014908201527f556e6b6e6f776e2072656c617920776f726b6572000000000000000000000000604082015260600190565b60208082526009908201527f6e6f74206f776e65720000000000000000000000000000000000000000000000604082015260600190565b6000608082526020870161235160808401611cc5838b611830565b61235b8189612526565b905061236a60a0840182611b2a565b506123786040880188612526565b61238560c0840182611b2a565b506123936060880188612526565b6123a060e0840182611b2a565b506123ae6080880188612526565b6101006123bd81850183611b2a565b610120915060a08901358285015261014060c08a01358186015261016060e08b013581870152610180838c0135818801526101a09350848c013584880152828c01356101c0880152818c01356101e088015261241b818d018d612533565b9550925050508161020086015261243761022086018483611b37565b92505050866020840152611d966040840187611b2a565b6000602082526001600160a01b0383511660208301526020830151151560408301526040830151151560608301526060830151608080840152611df760a0840182611b61565b8151815260208083015190820152604080830151908201526060918201516001600160a01b03169181019190915260800190565b918252602082015260400190565b938452602084019290925260408301526001600160a01b0316606082015260800190565b6000823561019e19833603018112611baf578182fd5b6000823561015e19833603018112611baf578182fd5b600082356114ee816125a8565b6000808335601e19843603018112612549578283fd5b830160208101925035905067ffffffffffffffff81111561256957600080fd5b80360383131561187b57600080fd5b60005b8381101561259357818101518382015260200161257b565b838111156125a2576000848401525b50505050565b6001600160a01b03811681146125bd57600080fd5b50565b80151581146125bd57600080fdfea26469706673582212205a7bd2e9a0bfdd6a8f948ae13b02829c14817ef1389ea4423426775b5fc52cc664736f6c634300060c0033",
  "linkReferences": {},
  "deployedLinkReferences": {}
}