{
  "_format": "hh-sol-artifact-1",
  "contractName": "SmartWalletFactory",
  "sourceName": "contracts/factory/SmartWalletFactory.sol",
  "abi": [
    {
      "inputs": [
        {
          "internalType": "address",
          "name": "forwarderTemplate",
          "type": "address"
        }
      ],
      "stateMutability": "nonpayable",
      "type": "constructor"
    },
    {
      "anonymous": false,
      "inputs": [
        {
          "indexed": true,
          "internalType": "address",
          "name": "addr",
          "type": "address"
        },
        {
          "indexed": false,
          "internalType": "uint256",
          "name": "salt",
          "type": "uint256"
        }
      ],
      "name": "Deployed",
      "type": "event"
    },
    {
      "inputs": [],
      "name": "DATA_VERSION_HASH",
      "outputs": [
        {
          "internalType": "bytes32",
          "name": "",
          "type": "bytes32"
        }
      ],
      "stateMutability": "view",
      "type": "function"
    },
    {
      "inputs": [
        {
          "internalType": "address",
          "name": "owner",
          "type": "address"
        },
        {
          "internalType": "address",
          "name": "recoverer",
          "type": "address"
        },
        {
          "internalType": "uint256",
          "name": "index",
          "type": "uint256"
        },
        {
          "internalType": "bytes",
          "name": "sig",
          "type": "bytes"
        }
      ],
      "name": "createUserSmartWallet",
      "outputs": [],
      "stateMutability": "nonpayable",
      "type": "function"
    },
    {
      "inputs": [],
      "name": "domainSeparator",
      "outputs": [
        {
          "internalType": "bytes32",
          "name": "",
          "type": "bytes32"
        }
      ],
      "stateMutability": "view",
      "type": "function"
    },
    {
      "inputs": [],
      "name": "getCreationBytecode",
      "outputs": [
        {
          "internalType": "bytes",
          "name": "",
          "type": "bytes"
        }
      ],
      "stateMutability": "view",
      "type": "function"
    },
    {
      "inputs": [
        {
          "internalType": "address",
          "name": "owner",
          "type": "address"
        },
        {
          "internalType": "address",
          "name": "recoverer",
          "type": "address"
        },
        {
          "internalType": "uint256",
          "name": "index",
          "type": "uint256"
        }
      ],
      "name": "getSmartWalletAddress",
      "outputs": [
        {
          "internalType": "address",
          "name": "",
          "type": "address"
        }
      ],
      "stateMutability": "view",
      "type": "function"
    },
    {
      "inputs": [],
      "name": "masterCopy",
      "outputs": [
        {
          "internalType": "address",
          "name": "",
          "type": "address"
        }
      ],
      "stateMutability": "view",
      "type": "function"
    },
    {
      "inputs": [
        {
          "internalType": "address",
          "name": "from",
          "type": "address"
        }
      ],
      "name": "nonce",
      "outputs": [
        {
          "internalType": "uint256",
          "name": "",
          "type": "uint256"
        }
      ],
      "stateMutability": "view",
      "type": "function"
    },
    {
      "inputs": [
        {
          "components": [
            {
              "internalType": "address",
              "name": "relayHub",
              "type": "address"
            },
            {
              "internalType": "address",
              "name": "from",
              "type": "address"
            },
            {
              "internalType": "address",
              "name": "to",
              "type": "address"
            },
            {
              "internalType": "address",
              "name": "tokenContract",
              "type": "address"
            },
            {
              "internalType": "address",
              "name": "recoverer",
              "type": "address"
            },
            {
              "internalType": "uint256",
              "name": "value",
              "type": "uint256"
            },
            {
              "internalType": "uint256",
              "name": "gas",
              "type": "uint256"
            },
            {
              "internalType": "uint256",
              "name": "nonce",
              "type": "uint256"
            },
            {
              "internalType": "uint256",
              "name": "tokenAmount",
              "type": "uint256"
            },
            {
              "internalType": "uint256",
              "name": "tokenGas",
              "type": "uint256"
            },
            {
              "internalType": "uint256",
              "name": "validUntilTime",
              "type": "uint256"
            },
            {
              "internalType": "uint256",
              "name": "index",
              "type": "uint256"
            },
            {
              "internalType": "bytes",
              "name": "data",
              "type": "bytes"
            }
          ],
          "internalType": "struct IForwarder.DeployRequest",
          "name": "req",
          "type": "tuple"
        },
        {
          "internalType": "bytes32",
          "name": "suffixData",
          "type": "bytes32"
        },
        {
          "internalType": "address",
          "name": "feesReceiver",
          "type": "address"
        },
        {
          "internalType": "bytes",
          "name": "sig",
          "type": "bytes"
        }
      ],
      "name": "relayedUserSmartWalletCreation",
      "outputs": [],
      "stateMutability": "nonpayable",
      "type": "function"
    },
    {
      "inputs": [],
      "name": "runtimeCodeHash",
      "outputs": [
        {
          "internalType": "bytes32",
          "name": "",
          "type": "bytes32"
        }
      ],
      "stateMutability": "view",
      "type": "function"
    }
  ],
  "bytecode": "0x60c06040527f8b73c3c69bb8fe3d512ecc4cf759cc79239f7b179b0ffacaa9a75d522b39400f7fd41b7f69f4d7734774d21b5548d74704ad02f9f1545db63927a1d58479c576c87fad7c5bef027816a800da1736444fb58a807ef4c9603b7848673f7e3a68eb14a561006f6100df565b30604051602001610084959493929190610111565b60408051601f19818403018152919052805160209091012060a0523480156100ab57600080fd5b506040516114fa3803806114fa8339810160408190526100ca916100e3565b60601b6001600160601b03191660805261013d565b4690565b6000602082840312156100f4578081fd5b81516001600160a01b038116811461010a578182fd5b9392505050565b9485526020850193909352604084019190915260608301526001600160a01b0316608082015260a00190565b60805160601c60a05161138861017260003980610605528061066f525080610161528061025e528061059d52506113886000f3fe608060405234801561001057600080fd5b50600436106100a35760003560e01c8063b131fcba11610076578063dc89745f1161005b578063dc89745f1461011e578063f5e87b3914610131578063f698da2514610146576100a3565b8063b131fcba14610101578063b3104ef614610116576100a3565b80632046776e146100a85780636088665e146100c657806370ae92d2146100e6578063a619486e146100f9575b600080fd5b6100b061014e565b6040516100bd919061104d565b60405180910390f35b6100d96100d4366004610b22565b6101ce565b6040516100bd9190610f5b565b6100b06100f4366004610b07565b610241565b6100d961025c565b61011461010f366004610bd1565b610280565b005b6100b06103fe565b61011461012c366004610b62565b610422565b61013961058a565b6040516100bd9190611074565b6100b0610603565b60006a363d3d373d3d3d3d363d7360a81b7f00000000000000000000000000000000000000000000000000000000000000007f5af43d923d90803e602b57fd5bf30000000000000000000000000000000000006040516020016101b393929190610d86565b60405160208183030381529060405280519060200120905090565b600060ff60f81b308585856040516020016101eb93929190610d58565b6040516020818303038152906040528051906020012061020961058a565b80516020918201206040516102219594939201610ddd565b60408051601f198184030181529190528051602090910120949350505050565b6001600160a01b031660009081526020819052604090205490565b7f000000000000000000000000000000000000000000000000000000000000000081565b84516001600160a01b031633146102b25760405162461bcd60e51b81526004016102a99061114c565b60405180910390fd5b6102f3858584848080601f01602080910402602001604051908101604052809392919081815260200183838082843760009201919091525061062792505050565b6101408501511580610309575042856101400151115b6103255760405162461bcd60e51b81526004016102a9906111fc565b6020808601516001600160a01b031660009081529081905260409020805460010190556103f661035361058a565b60208088015160808901516101608a01516040516103719401610d58565b6040516020818303038152906040528051906020012087602001518860600151878a61010001518b61012001516040516024016103b2959493929190611019565b60408051601f198184030181529190526020810180517bffffffffffffffffffffffffffffffffffffffffffffffffffffffff166314d6c7d760e31b1790526106fd565b505050505050565b7fad7c5bef027816a800da1736444fb58a807ef4c9603b7848673f7e3a68eb14a581565b60003086868660405160200161043b9493929190610d1d565b6040516020818303038152906040528051906020012090506000816040516020016104669190610e77565b6040516020818303038152906040528051906020012090506104c96104c385858080601f01602080910402602001604051908101604052809392919081815260200183838082843760009201919091525086939250506107df9050565b8861082c565b6104e55760405162461bcd60e51b81526004016102a990611183565b606087600080600080604051602401610502959493929190610f6f565b60408051601f198184030181529190526020810180517bffffffffffffffffffffffffffffffffffffffffffffffffffffffff166314d6c7d760e31b179052905061057f61054e61058a565b89898960405160200161056393929190610d58565b60405160208183030381529060405280519060200120836106fd565b505050505050505050565b60606a363d3d373d3d3d3d363d7360a81b7f00000000000000000000000000000000000000000000000000000000000000007f5af43d923d90803e602b57fd5bf30000000000000000000000000000000000006040516020016105ef93929190610ede565b604051602081830303815290604052905090565b7f000000000000000000000000000000000000000000000000000000000000000081565b60e08301516020808501516001600160a01b03166000908152908190526040902054146106665760405162461bcd60e51b81526004016102a990611115565b6106dc6106d2827f00000000000000000000000000000000000000000000000000000000000000006106988787610887565b80516020918201206040516106ae939201610ea8565b604051602081830303815290604052805190602001206107df90919063ffffffff16565b846020015161082c565b6106f85760405162461bcd60e51b81526004016102a990611275565b505050565b6000828451602086016000f59050803b61071657600080fd5b6000816001600160a01b0316836040516107309190610e5b565b6000604051808303816000865af19150503d806000811461076d576040519150601f19603f3d011682016040523d82523d6000602084013e610772565b606091505b50509050806107935760405162461bcd60e51b81526004016102a9906112ac565b816001600160a01b03167fb03c53b28e78a88e31607a27e1fa48234dce28d5d9d9ec7b295aeb02e674a1e18560001c6040516107cf919061104d565b60405180910390a2509392505050565b600081516041146108025760405162461bcd60e51b81526004016102a9906110de565b60208201516040830151606084015160001a6108208682858561094a565b93505050505b92915050565b6000816001600160a01b0316836001600160a01b031614801561086c575073dcc703c0e500b653ca82273b7bfad8045d85a4706001600160a01b03841614155b801561088057506001600160a01b03831615155b9392505050565b60607f28eb953705f6353a30a2942571815fad1b64ae5de65dcb52ef0ebd7d8a820535836000015184602001518560400151866060015187608001518860a001518960c001518a60e001518b61010001518c61012001518d61014001518e61016001518f6101800151805190602001206040516020016109139d9c9b9a99989796959493929190610fa5565b60408051601f198184030181529082905261093392918590602001610e2e565b604051602081830303815290604052905092915050565b60007f7fffffffffffffffffffffffffffffff5d576e7357a4501ddfe92f46681b20a082111561098c5760405162461bcd60e51b81526004016102a9906111ba565b8360ff16601b14806109a157508360ff16601c145b6109bd5760405162461bcd60e51b81526004016102a990611233565b6000600186868686604051600081526020016040526040516109e29493929190611056565b6020604051602081039080840390855afa158015610a04573d6000803e3d6000fd5b5050604051601f1901519150506001600160a01b038116610a375760405162461bcd60e51b81526004016102a9906110a7565b95945050505050565b80356001600160a01b038116811461082657600080fd5b60008083601f840112610a68578182fd5b50813567ffffffffffffffff811115610a7f578182fd5b602083019150836020828501011115610a9757600080fd5b9250929050565b600082601f830112610aae578081fd5b813567ffffffffffffffff811115610ac4578182fd5b610ad7601f8201601f19166020016112e3565b9150808252836020828501011115610aee57600080fd5b8060208401602084013760009082016020015292915050565b600060208284031215610b18578081fd5b6108808383610a40565b600080600060608486031215610b36578182fd5b8335610b418161133a565b92506020840135610b518161133a565b929592945050506040919091013590565b600080600080600060808688031215610b79578081fd5b610b838787610a40565b9450610b928760208801610a40565b935060408601359250606086013567ffffffffffffffff811115610bb4578182fd5b610bc088828901610a57565b969995985093965092949392505050565b600080600080600060808688031215610be8578081fd5b853567ffffffffffffffff80821115610bff578283fd5b81880191506101a080838b031215610c15578384fd5b610c1e816112e3565b9050610c2a8a84610a40565b8152610c398a60208501610a40565b6020820152610c4b8a60408501610a40565b6040820152610c5d8a60608501610a40565b6060820152610c6f8a60808501610a40565b608082015260a0838101359082015260c0808401359082015260e0808401359082015261010080840135908201526101208084013590820152610140808401359082015261016080840135908201526101808084013583811115610cd1578586fd5b610cdd8c828701610a9e565b8284015250508097505060208801359550610cfb8960408a01610a40565b94506060880135915080821115610d10578283fd5b50610bc088828901610a57565b6bffffffffffffffffffffffff19606095861b8116825293851b841660148201529190931b9091166028820152603c810191909152605c0190565b6bffffffffffffffffffffffff19606094851b811682529290931b9091166014830152602882015260480190565b74ffffffffffffffffffffffffffffffffffffffffff1993909316835260609190911b6bffffffffffffffffffffffff1916600b83015271ffffffffffffffffffffffffffffffffffff1916601f820152602d0190565b7fff0000000000000000000000000000000000000000000000000000000000000094909416845260609290921b6bffffffffffffffffffffffff191660018401526015830152603582015260550190565b60008482528351610e4681602085016020880161130a565b60209201918201929092526040019392505050565b60008251610e6d81846020870161130a565b9190910192915050565b7f19457468657265756d205369676e6564204d6573736167653a0a3332000000008152601c810191909152603c0190565b7f190100000000000000000000000000000000000000000000000000000000000081526002810192909252602282015260420190565b7f602d3d8160093d39f30000000000000000000000000000000000000000000000815274ffffffffffffffffffffffffffffffffffffffffff1993909316600984015260609190911b6bffffffffffffffffffffffff1916601483015271ffffffffffffffffffffffffffffffffffff1916602882015260360190565b6001600160a01b0391909116815260200190565b6001600160a01b039586168152938516602085015291909316604083015260ff9283166060830152909116608082015260a00190565b6001600160a01b039d8e1681529b8d1660208d0152998c1660408c0152978b1660608b015295909916608089015260a088019390935260c087019190915260e08601526101008501526101208401949094526101408301939093526101608201929092526101808101919091526101a00190565b6001600160a01b03958616815293851660208501529190931660408301526060820192909252608081019190915260a00190565b90815260200190565b93845260ff9290921660208401526040830152606082015260800190565b600060208252825180602084015261109381604085016020870161130a565b601f01601f19169190910160400192915050565b60208082526018908201527f45434453413a20696e76616c6964207369676e61747572650000000000000000604082015260600190565b6020808252601f908201527f45434453413a20696e76616c6964207369676e6174757265206c656e67746800604082015260600190565b6020808252600e908201527f6e6f6e6365206d69736d61746368000000000000000000000000000000000000604082015260600190565b6020808252600e908201527f496e76616c69642063616c6c6572000000000000000000000000000000000000604082015260600190565b60208082526011908201527f496e76616c6964207369676e6174757265000000000000000000000000000000604082015260600190565b60208082526022908201527f45434453413a20696e76616c6964207369676e6174757265202773272076616c604082015261756560f01b606082015260800190565b60208082526013908201527f53573a2072657175657374206578706972656400000000000000000000000000604082015260600190565b60208082526022908201527f45434453413a20696e76616c6964207369676e6174757265202776272076616c604082015261756560f01b606082015260800190565b60208082526012908201527f5369676e6174757265206d69736d617463680000000000000000000000000000604082015260600190565b60208082526017908201527f556e61626c6520746f20696e697469616c697a65205357000000000000000000604082015260600190565b60405181810167ffffffffffffffff8111828210171561130257600080fd5b604052919050565b60005b8381101561132557818101518382015260200161130d565b83811115611334576000848401525b50505050565b6001600160a01b038116811461134f57600080fd5b5056fea264697066735822122056b281c748836b3ee5430d5739eaf85154c45e4c3d298ba1e03d25d7fe9fff8264736f6c634300060c0033",
  "linkReferences": {},
  "deployedLinkReferences": {}
}