{"abi":[{"type":"constructor","inputs":[{"name":"name","type":"string","internalType":"string"},{"name":"symbol","type":"string","internalType":"string"},{"name":"_decimals","type":"uint8","internalType":"uint8"},{"name":"initialSupply","type":"uint256","internalType":"uint256"}],"stateMutability":"nonpayable"},{"type":"function","name":"allowance","inputs":[{"name":"owner","type":"address","internalType":"address"},{"name":"spender","type":"address","internalType":"address"}],"outputs":[{"name":"","type":"uint256","internalType":"uint256"}],"stateMutability":"view"},{"type":"function","name":"approve","inputs":[{"name":"spender","type":"address","internalType":"address"},{"name":"amount","type":"uint256","internalType":"uint256"}],"outputs":[],"stateMutability":"nonpayable"},{"type":"function","name":"balanceOf","inputs":[{"name":"account","type":"address","internalType":"address"}],"outputs":[{"name":"","type":"uint256","internalType":"uint256"}],"stateMutability":"view"},{"type":"function","name":"decimals","inputs":[],"outputs":[{"name":"","type":"uint8","internalType":"uint8"}],"stateMutability":"view"},{"type":"function","name":"transfer","inputs":[{"name":"recipient","type":"address","internalType":"address"},{"name":"amount","type":"uint256","internalType":"uint256"}],"outputs":[],"stateMutability":"nonpayable"},{"type":"function","name":"transferFrom","inputs":[{"name":"sender","type":"address","internalType":"address"},{"name":"recipient","type":"address","internalType":"address"},{"name":"amount","type":"uint256","internalType":"uint256"}],"outputs":[],"stateMutability":"nonpayable"},{"type":"event","name":"Approval","inputs":[{"name":"owner","type":"address","indexed":true,"internalType":"address"},{"name":"spender","type":"address","indexed":true,"internalType":"address"},{"name":"value","type":"uint256","indexed":false,"internalType":"uint256"}],"anonymous":false},{"type":"event","name":"Transfer","inputs":[{"name":"from","type":"address","indexed":true,"internalType":"address"},{"name":"to","type":"address","indexed":true,"internalType":"address"},{"name":"value","type":"uint256","indexed":false,"internalType":"uint256"}],"anonymous":false}],"bytecode":{"object":"0x608060405234801561001057600080fd5b506040516115293803806115298339818101604052810190610032919061034d565b816000806101000a81548160ff021916908360ff160217905550836003908161005b9190610616565b50826004908161006b9190610616565b5080600160003373ffffffffffffffffffffffffffffffffffffffff1673ffffffffffffffffffffffffffffffffffffffff168152602001908152602001600020546100b79190610717565b600160003373ffffffffffffffffffffffffffffffffffffffff1673ffffffffffffffffffffffffffffffffffffffff168152602001908152602001600020819055503373ffffffffffffffffffffffffffffffffffffffff16600073ffffffffffffffffffffffffffffffffffffffff167fddf252ad1be2c89b69c2b068fc378daa952ba7f163c4a11628f55a4df523b3ef83604051610158919061075a565b60405180910390a350505050610775565b6000604051905090565b600080fd5b600080fd5b600080fd5b600080fd5b6000601f19601f8301169050919050565b7f4e487b7100000000000000000000000000000000000000000000000000000000600052604160045260246000fd5b6101d082610187565b810181811067ffffffffffffffff821117156101ef576101ee610198565b5b80604052505050565b6000610202610169565b905061020e82826101c7565b919050565b600067ffffffffffffffff82111561022e5761022d610198565b5b61023782610187565b9050602081019050919050565b60005b83811015610262578082015181840152602081019050610247565b60008484015250505050565b600061028161027c84610213565b6101f8565b90508281526020810184848401111561029d5761029c610182565b5b6102a8848285610244565b509392505050565b600082601f8301126102c5576102c461017d565b5b81516102d584826020860161026e565b91505092915050565b600060ff82169050919050565b6102f4816102de565b81146102ff57600080fd5b50565b600081519050610311816102eb565b92915050565b6000819050919050565b61032a81610317565b811461033557600080fd5b50565b60008151905061034781610321565b92915050565b6000806000806080858703121561036757610366610173565b5b600085015167ffffffffffffffff81111561038557610384610178565b5b610391878288016102b0565b945050602085015167ffffffffffffffff8111156103b2576103b1610178565b5b6103be878288016102b0565b93505060406103cf87828801610302565b92505060606103e087828801610338565b91505092959194509250565b600081519050919050565b7f4e487b7100000000000000000000000000000000000000000000000000000000600052602260045260246000fd5b6000600282049050600182168061043e57607f821691505b602082108103610451576104506103f7565b5b50919050565b60008190508160005260206000209050919050565b60006020601f8301049050919050565b600082821b905092915050565b6000600883026104b97fffffffffffffffffffffffffffffffffffffffffffffffffffffffffffffffff8261047c565b6104c3868361047c565b95508019841693508086168417925050509392505050565b6000819050919050565b60006105006104fb6104f684610317565b6104db565b610317565b9050919050565b6000819050919050565b61051a836104e5565b61052e61052682610507565b848454610489565b825550505050565b600090565b610543610536565b61054e818484610511565b505050565b60005b828110156105765761056b600082840161053b565b600181019050610556565b505050565b601f8211156105ca57828211156105c95761059581610457565b61059e8361046c565b6105a78561046c565b60208610156105b557600090505b8083016105c482840382610553565b505050505b5b505050565b600082821c905092915050565b60006105ed600019846008026105cf565b1980831691505092915050565b600061060683836105dc565b9150826002028217905092915050565b61061f826103ec565b67ffffffffffffffff81111561063857610637610198565b5b6106428254610426565b61064d82828561057b565b600060209050601f831160018114610680576000841561066e578287015190505b61067885826105fa565b8655506106e0565b601f19841661068e86610457565b60005b828110156106b657848901518255600182019150602085019450602081019050610691565b868310156106d357848901516106cf601f8916826105dc565b8355505b6001600288020188555050505b505050505050565b7f4e487b7100000000000000000000000000000000000000000000000000000000600052601160045260246000fd5b600061072282610317565b915061072d83610317565b9250828201905080821115610745576107446106e8565b5b92915050565b61075481610317565b82525050565b600060208201905061076f600083018461074b565b92915050565b610da5806107846000396000f3fe608060405234801561001057600080fd5b50600436106100625760003560e01c8063095ea7b31461006757806323b872dd14610083578063313ce5671461009f57806370a08231146100bd578063a9059cbb146100ed578063dd62ed3e14610109575b600080fd5b610081600480360381019061007c91906107fa565b610139565b005b61009d6004803603810190610098919061083a565b610148565b005b6100a7610233565b6040516100b491906108a9565b60405180910390f35b6100d760048036038101906100d291906108c4565b610244565b6040516100e49190610900565b60405180910390f35b610107600480360381019061010291906107fa565b61028d565b005b610123600480360381019061011e919061091b565b61029c565b6040516101309190610900565b60405180910390f35b610144338383610323565b5050565b6101538383836104ec565b6000600260008573ffffffffffffffffffffffffffffffffffffffff1673ffffffffffffffffffffffffffffffffffffffff16815260200190815260200160002060003373ffffffffffffffffffffffffffffffffffffffff1673ffffffffffffffffffffffffffffffffffffffff16815260200190815260200160002054905081811015610217576040517f08c379a000000000000000000000000000000000000000000000000000000000815260040161020e906109de565b60405180910390fd5b61022d843384846102289190610a2d565b610323565b50505050565b60008054906101000a900460ff1681565b6000600160008373ffffffffffffffffffffffffffffffffffffffff1673ffffffffffffffffffffffffffffffffffffffff168152602001908152602001600020549050919050565b6102983383836104ec565b5050565b6000600260008473ffffffffffffffffffffffffffffffffffffffff1673ffffffffffffffffffffffffffffffffffffffff16815260200190815260200160002060008373ffffffffffffffffffffffffffffffffffffffff1673ffffffffffffffffffffffffffffffffffffffff16815260200190815260200160002054905092915050565b600073ffffffffffffffffffffffffffffffffffffffff168373ffffffffffffffffffffffffffffffffffffffff1603610392576040517f08c379a000000000000000000000000000000000000000000000000000000000815260040161038990610ad3565b60405180910390fd5b600073ffffffffffffffffffffffffffffffffffffffff168273ffffffffffffffffffffffffffffffffffffffff1603610401576040517f08c379a00000000000000000000000000000000000000000000000000000000081526004016103f890610b65565b60405180910390fd5b80600260008573ffffffffffffffffffffffffffffffffffffffff1673ffffffffffffffffffffffffffffffffffffffff16815260200190815260200160002060008473ffffffffffffffffffffffffffffffffffffffff1673ffffffffffffffffffffffffffffffffffffffff168152602001908152602001600020819055508173ffffffffffffffffffffffffffffffffffffffff168373ffffffffffffffffffffffffffffffffffffffff167f8c5be1e5ebec7d5bd14f71427d1e84f3dd0314c0f7b2291e5b200ac8c7c3b925836040516104df9190610900565b60405180910390a3505050565b600073ffffffffffffffffffffffffffffffffffffffff168373ffffffffffffffffffffffffffffffffffffffff160361055b576040517f08c379a000000000000000000000000000000000000000000000000000000000815260040161055290610bf7565b60405180910390fd5b600073ffffffffffffffffffffffffffffffffffffffff168273ffffffffffffffffffffffffffffffffffffffff16036105ca576040517f08c379a00000000000000000000000000000000000000000000000000000000081526004016105c190610c89565b60405180910390fd5b6000600160008573ffffffffffffffffffffffffffffffffffffffff1673ffffffffffffffffffffffffffffffffffffffff16815260200190815260200160002054905081811015610651576040517f08c379a000000000000000000000000000000000000000000000000000000000815260040161064890610d1b565b60405180910390fd5b818161065d9190610a2d565b600160008673ffffffffffffffffffffffffffffffffffffffff1673ffffffffffffffffffffffffffffffffffffffff1681526020019081526020016000208190555081600160008573ffffffffffffffffffffffffffffffffffffffff1673ffffffffffffffffffffffffffffffffffffffff16815260200190815260200160002060008282546106ef9190610d3b565b925050819055508273ffffffffffffffffffffffffffffffffffffffff168473ffffffffffffffffffffffffffffffffffffffff167fddf252ad1be2c89b69c2b068fc378daa952ba7f163c4a11628f55a4df523b3ef846040516107539190610900565b60405180910390a350505050565b600080fd5b600073ffffffffffffffffffffffffffffffffffffffff82169050919050565b600061079182610766565b9050919050565b6107a181610786565b81146107ac57600080fd5b50565b6000813590506107be81610798565b92915050565b6000819050919050565b6107d7816107c4565b81146107e257600080fd5b50565b6000813590506107f4816107ce565b92915050565b6000806040838503121561081157610810610761565b5b600061081f858286016107af565b9250506020610830858286016107e5565b9150509250929050565b60008060006060848603121561085357610852610761565b5b6000610861868287016107af565b9350506020610872868287016107af565b9250506040610883868287016107e5565b9150509250925092565b600060ff82169050919050565b6108a38161088d565b82525050565b60006020820190506108be600083018461089a565b92915050565b6000602082840312156108da576108d9610761565b5b60006108e8848285016107af565b91505092915050565b6108fa816107c4565b82525050565b600060208201905061091560008301846108f1565b92915050565b6000806040838503121561093257610931610761565b5b6000610940858286016107af565b9250506020610951858286016107af565b9150509250929050565b600082825260208201905092915050565b7f45524332303a207472616e7366657220616d6f756e742065786365656473206160008201527f6c6c6f77616e6365000000000000000000000000000000000000000000000000602082015250565b60006109c860288361095b565b91506109d38261096c565b604082019050919050565b600060208201905081810360008301526109f7816109bb565b9050919050565b7f4e487b7100000000000000000000000000000000000000000000000000000000600052601160045260246000fd5b6000610a38826107c4565b9150610a43836107c4565b9250828203905081811115610a5b57610a5a6109fe565b5b92915050565b7f45524332303a20617070726f76652066726f6d20746865207a65726f2061646460008201527f7265737300000000000000000000000000000000000000000000000000000000602082015250565b6000610abd60248361095b565b9150610ac882610a61565b604082019050919050565b60006020820190508181036000830152610aec81610ab0565b9050919050565b7f45524332303a20617070726f766520746f20746865207a65726f20616464726560008201527f7373000000000000000000000000000000000000000000000000000000000000602082015250565b6000610b4f60228361095b565b9150610b5a82610af3565b604082019050919050565b60006020820190508181036000830152610b7e81610b42565b9050919050565b7f45524332303a207472616e736665722066726f6d20746865207a65726f20616460008201527f6472657373000000000000000000000000000000000000000000000000000000602082015250565b6000610be160258361095b565b9150610bec82610b85565b604082019050919050565b60006020820190508181036000830152610c1081610bd4565b9050919050565b7f45524332303a207472616e7366657220746f20746865207a65726f206164647260008201527f6573730000000000000000000000000000000000000000000000000000000000602082015250565b6000610c7360238361095b565b9150610c7e82610c17565b604082019050919050565b60006020820190508181036000830152610ca281610c66565b9050919050565b7f45524332303a207472616e7366657220616d6f756e742065786365656473206260008201527f616c616e63650000000000000000000000000000000000000000000000000000602082015250565b6000610d0560268361095b565b9150610d1082610ca9565b604082019050919050565b60006020820190508181036000830152610d3481610cf8565b9050919050565b6000610d46826107c4565b9150610d51836107c4565b9250828201905080821115610d6957610d686109fe565b5b9291505056fea264697066735822122051593b7b9fa231935130fbea7ceca5bf48aeeb8504836388bd3715e23c3a58a064736f6c63430008210033","linkReferences":{}},"methodIdentifiers":{"allowance(address,address)":"dd62ed3e","approve(address,uint256)":"095ea7b3","balanceOf(address)":"70a08231","decimals()":"313ce567","transfer(address,uint256)":"a9059cbb","transferFrom(address,address,uint256)":"23b872dd"},"id":0}