{"abi":[{"type":"constructor","inputs":[],"stateMutability":"nonpayable"},{"type":"function","name":"DOMAIN_SEPARATOR","inputs":[],"outputs":[{"name":"","type":"bytes32","internalType":"bytes32"}],"stateMutability":"view"},{"type":"function","name":"TYPEHASH_REFUND","inputs":[],"outputs":[{"name":"","type":"bytes32","internalType":"bytes32"}],"stateMutability":"view"},{"type":"function","name":"claim","inputs":[{"name":"preimage","type":"bytes32","internalType":"bytes32"},{"name":"amount","type":"uint256","internalType":"uint256"},{"name":"tokenAddress","type":"address","internalType":"address"},{"name":"claimAddress","type":"address","internalType":"address"},{"name":"refundAddress","type":"address","internalType":"address"},{"name":"timelock","type":"uint256","internalType":"uint256"}],"outputs":[],"stateMutability":"nonpayable"},{"type":"function","name":"claim","inputs":[{"name":"preimage","type":"bytes32","internalType":"bytes32"},{"name":"amount","type":"uint256","internalType":"uint256"},{"name":"tokenAddress","type":"address","internalType":"address"},{"name":"refundAddress","type":"address","internalType":"address"},{"name":"timelock","type":"uint256","internalType":"uint256"}],"outputs":[],"stateMutability":"nonpayable"},{"type":"function","name":"claimBatch","inputs":[{"name":"tokenAddress","type":"address","internalType":"address"},{"name":"preimages","type":"bytes32[]","internalType":"bytes32[]"},{"name":"amounts","type":"uint256[]","internalType":"uint256[]"},{"name":"refundAddresses","type":"address[]","internalType":"address[]"},{"name":"timelocks","type":"uint256[]","internalType":"uint256[]"}],"outputs":[],"stateMutability":"nonpayable"},{"type":"function","name":"hashValues","inputs":[{"name":"preimageHash","type":"bytes32","internalType":"bytes32"},{"name":"amount","type":"uint256","internalType":"uint256"},{"name":"tokenAddress","type":"address","internalType":"address"},{"name":"claimAddress","type":"address","internalType":"address"},{"name":"refundAddress","type":"address","internalType":"address"},{"name":"timelock","type":"uint256","internalType":"uint256"}],"outputs":[{"name":"","type":"bytes32","internalType":"bytes32"}],"stateMutability":"pure"},{"type":"function","name":"lock","inputs":[{"name":"preimageHash","type":"bytes32","internalType":"bytes32"},{"name":"amount","type":"uint256","internalType":"uint256"},{"name":"tokenAddress","type":"address","internalType":"address"},{"name":"claimAddress","type":"address","internalType":"address"},{"name":"timelock","type":"uint256","internalType":"uint256"}],"outputs":[],"stateMutability":"nonpayable"},{"type":"function","name":"lockPrepayMinerfee","inputs":[{"name":"preimageHash","type":"bytes32","internalType":"bytes32"},{"name":"amount","type":"uint256","internalType":"uint256"},{"name":"tokenAddress","type":"address","internalType":"address"},{"name":"claimAddress","type":"address","internalType":"address payable"},{"name":"timelock","type":"uint256","internalType":"uint256"}],"outputs":[],"stateMutability":"payable"},{"type":"function","name":"refund","inputs":[{"name":"preimageHash","type":"bytes32","internalType":"bytes32"},{"name":"amount","type":"uint256","internalType":"uint256"},{"name":"tokenAddress","type":"address","internalType":"address"},{"name":"claimAddress","type":"address","internalType":"address"},{"name":"refundAddress","type":"address","internalType":"address"},{"name":"timelock","type":"uint256","internalType":"uint256"}],"outputs":[],"stateMutability":"nonpayable"},{"type":"function","name":"refund","inputs":[{"name":"preimageHash","type":"bytes32","internalType":"bytes32"},{"name":"amount","type":"uint256","internalType":"uint256"},{"name":"tokenAddress","type":"address","internalType":"address"},{"name":"claimAddress","type":"address","internalType":"address"},{"name":"timelock","type":"uint256","internalType":"uint256"}],"outputs":[],"stateMutability":"nonpayable"},{"type":"function","name":"refundCooperative","inputs":[{"name":"preimageHash","type":"bytes32","internalType":"bytes32"},{"name":"amount","type":"uint256","internalType":"uint256"},{"name":"tokenAddress","type":"address","internalType":"address"},{"name":"claimAddress","type":"address","internalType":"address"},{"name":"timelock","type":"uint256","internalType":"uint256"},{"name":"v","type":"uint8","internalType":"uint8"},{"name":"r","type":"bytes32","internalType":"bytes32"},{"name":"s","type":"bytes32","internalType":"bytes32"}],"outputs":[],"stateMutability":"nonpayable"},{"type":"function","name":"swaps","inputs":[{"name":"","type":"bytes32","internalType":"bytes32"}],"outputs":[{"name":"","type":"bool","internalType":"bool"}],"stateMutability":"view"},{"type":"function","name":"version","inputs":[],"outputs":[{"name":"","type":"uint8","internalType":"uint8"}],"stateMutability":"view"},{"type":"event","name":"Claim","inputs":[{"name":"preimageHash","type":"bytes32","indexed":true,"internalType":"bytes32"},{"name":"preimage","type":"bytes32","indexed":false,"internalType":"bytes32"}],"anonymous":false},{"type":"event","name":"Lockup","inputs":[{"name":"preimageHash","type":"bytes32","indexed":true,"internalType":"bytes32"},{"name":"amount","type":"uint256","indexed":false,"internalType":"uint256"},{"name":"tokenAddress","type":"address","indexed":false,"internalType":"address"},{"name":"claimAddress","type":"address","indexed":false,"internalType":"address"},{"name":"refundAddress","type":"address","indexed":true,"internalType":"address"},{"name":"timelock","type":"uint256","indexed":false,"internalType":"uint256"}],"anonymous":false},{"type":"event","name":"Refund","inputs":[{"name":"preimageHash","type":"bytes32","indexed":true,"internalType":"bytes32"}],"anonymous":false}],"bytecode":{"object":"0x60c060405234801561001057600080fd5b50604080517f8b73c3c69bb8fe3d512ecc4cf759cc79239f7b179b0ffacaa9a75d522b39400f60208201527f53904d715aff4cbf81a576b4cc3901f2c5f3e7c245cad96f11bec6c197b05ea2918101919091527f13600b294191fc92924bb3ce4b969c1e7e2bab8f4c93c3fc6d0a51733df3c06060608201524660808201523060a082015260c00160408051601f1981840301815291905280516020909101206080527f170d759fe7da17205d54afcd1ce01fa24c1e02f75ffb117e59c0b25a855a944f60a05260805160a051611014610109600039600081816101e9015261060901526000818160fb015261068401526110146000f3fe6080604052600436106100c25760003560e01c806391644b2b1161007f578063bc586b2811610059578063bc586b281461021e578063cd413efa1461023e578063eb84e7f21461025e578063fb35dd961461029e57600080fd5b806391644b2b146101b7578063a9ab4d5b146101d7578063b8080ab81461020b57600080fd5b80630e5bbd59146100c75780633644e515146100e9578063365047211461013057806354fd4d50146101505780637beb9d6d146101775780638579dc5f14610197575b600080fd5b3480156100d357600080fd5b506100e76100e2366004610cb0565b6102be565b005b3480156100f557600080fd5b5061011d7f000000000000000000000000000000000000000000000000000000000000000081565b6040519081526020015b60405180910390f35b34801561013c57600080fd5b506100e761014b366004610d17565b610337565b34801561015c57600080fd5b50610165600481565b60405160ff9091168152602001610127565b34801561018357600080fd5b5061011d610192366004610cb0565b61034c565b3480156101a357600080fd5b506100e76101b2366004610db5565b6103b8565b3480156101c357600080fd5b506100e76101d2366004610d17565b61046a565b3480156101e357600080fd5b5061011d7f000000000000000000000000000000000000000000000000000000000000000081565b6100e7610219366004610d17565b6105c5565b34801561022a57600080fd5b506100e7610239366004610cb0565b6105dc565b34801561024a57600080fd5b506100e7610259366004610d17565b6105f5565b34801561026a57600080fd5b5061028e610279366004610ea1565b60006020819052908152604090205460ff1681565b6040519015158152602001610127565b3480156102aa57600080fd5b506100e76102b9366004610eba565b610603565b438111156103215760405162461bcd60e51b815260206004820152602560248201527f4552433230537761703a207377617020686173206e6f742074696d6564206f756044820152641d081e595d60da1b60648201526084015b60405180910390fd5b61032f8686868686866107b2565b505050505050565b6103458585858533866102be565b5050505050565b60408051602081018890529081018690526bffffffffffffffffffffffff19606086811b82168184015285811b8216607484015284901b166088820152609c810182905260009060bc016040516020818303038152906040528051906020012090509695505050505050565b60008060005b89811015610451578888828181106103d8576103d8610f3a565b9050602002013591506104458b8b838181106103f6576103f6610f3a565b90506020020135838e338b8b8781811061041257610412610f3a565b90506020020160208101906104279190610f50565b8a8a8881811061043957610439610f3a565b9050602002013561081e565b918101916001016103be565b5061045d8b3384610900565b5050505050505050505050565b600084116104cc5760405162461bcd60e51b815260206004820152602960248201527f4552433230537761703a206c6f636b656420616d6f756e74206d757374206e6f60448201526874206265207a65726f60b81b6064820152608401610318565b60006104dc86868686338761034c565b60008181526020819052604090205490915060ff161561053e5760405162461bcd60e51b815260206004820152601e60248201527f4552433230537761703a20737761702065786973747320616c726561647900006044820152606401610318565b60008181526020819052604090819020805460ff1916600117905551339087907fa98eaa2bd8230d87a1a4c356f5c1d41cb85ff88131122ec8b1931cb9d31ae145906105b19089908990899089909384526001600160a01b03928316602085015291166040830152606082015260800190565b60405180910390a361032f84333088610a2c565b6105d2858585858561046a565b6103458234610b64565b6105ea86868686868661081e565b61032f848487610900565b6103458585853386866105dc565b604080517f00000000000000000000000000000000000000000000000000000000000000006020808301919091528183018b9052606082018a90526001600160a01b038981166080840152881660a083015260c08083018890528351808403909101815260e08301909352825192019190912061190160f01b6101008301527f00000000000000000000000000000000000000000000000000000000000000006101028301526101228201526000906001906101420160408051601f198184030181528282528051602091820120600084529083018083525260ff871690820152606081018590526080810184905260a0016020604051602081039080840390855afa158015610717573d6000803e3d6000fd5b5050604051601f1901519150506001600160a01b0381161580159061074d5750856001600160a01b0316816001600160a01b0316145b6107995760405162461bcd60e51b815260206004820152601c60248201527f4552433230537761703a20696e76616c6964207369676e6174757265000000006044820152606401610318565b6107a789898989338a6107b2565b505050505050505050565b60006107c287878787878761034c565b90506107cd81610c1d565b600081815260208190526040808220805460ff191690555188917f3fbd469ec3a5ce074f975f76ce27e727ba21c99176917b97ae2e713695582a1291a2610815858488610900565b50505050505050565b600060028760405160200161083591815260200190565b60408051601f198184030181529082905261084f91610f74565b602060405180830381855afa15801561086c573d6000803e3d6000fd5b5050506040513d601f19601f8201168201806040525081019061088f9190610fa3565b905060006108a182888888888861034c565b90506108ac81610c1d565b60008181526020818152604091829020805460ff19169055905189815283917f5664142af3dcfc3dc3de45a43f75c746bd1d8c11170a5037fdf98bdb35775137910160405180910390a25050505050505050565b604080516001600160a01b038481166024830152604480830185905283518084039091018152606490920183526020820180516001600160e01b031663a9059cbb60e01b179052915160009283929087169161095c9190610f74565b6000604051808303816000865af19150503d8060008114610999576040519150601f19603f3d011682016040523d82523d6000602084013e61099e565b606091505b50915091508180156109c85750805115806109c85750808060200190518101906109c89190610fbc565b6103455760405162461bcd60e51b815260206004820152602f60248201527f5472616e7366657248656c7065723a20636f756c64206e6f74207472616e736660448201526e657220455243323020746f6b656e7360881b6064820152608401610318565b604080516001600160a01b0385811660248301528481166044830152606480830185905283518084039091018152608490920183526020820180516001600160e01b03166323b872dd60e01b1790529151600092839290881691610a909190610f74565b6000604051808303816000865af19150503d8060008114610acd576040519150601f19603f3d011682016040523d82523d6000602084013e610ad2565b606091505b5091509150818015610afc575080511580610afc575080806020019051810190610afc9190610fbc565b61032f5760405162461bcd60e51b815260206004820152603360248201527f5472616e7366657248656c7065723a20636f756c64206e6f74207472616e7366604482015272657246726f6d20455243323020746f6b656e7360681b6064820152608401610318565b6000826001600160a01b03168260405160006040518083038185875af1925050503d8060008114610bb1576040519150601f19603f3d011682016040523d82523d6000602084013e610bb6565b606091505b5050905080610c185760405162461bcd60e51b815260206004820152602860248201527f5472616e7366657248656c7065723a20636f756c64206e6f74207472616e736660448201526732b91022ba3432b960c11b6064820152608401610318565b505050565b60008181526020819052604090205460ff16610c985760405162461bcd60e51b815260206004820152603460248201527f4552433230537761703a207377617020686173206e6f20746f6b656e73206c6f60448201527318dad959081a5b881d1a194818dbdb9d1c9858dd60621b6064820152608401610318565b50565b6001600160a01b0381168114610c9857600080fd5b60008060008060008060c08789031215610cc957600080fd5b86359550602087013594506040870135610ce281610c9b565b93506060870135610cf281610c9b565b92506080870135610d0281610c9b565b9598949750929591949360a090920135925050565b600080600080600060a08688031215610d2f57600080fd5b85359450602086013593506040860135610d4881610c9b565b92506060860135610d5881610c9b565b949793965091946080013592915050565b60008083601f840112610d7b57600080fd5b50813567ffffffffffffffff811115610d9357600080fd5b6020830191508360208260051b8501011115610dae57600080fd5b9250929050565b600080600080600080600080600060a08a8c031215610dd357600080fd5b8935610dde81610c9b565b985060208a013567ffffffffffffffff811115610dfa57600080fd5b610e068c828d01610d69565b90995097505060408a013567ffffffffffffffff811115610e2657600080fd5b610e328c828d01610d69565b90975095505060608a013567ffffffffffffffff811115610e5257600080fd5b610e5e8c828d01610d69565b90955093505060808a013567ffffffffffffffff811115610e7e57600080fd5b610e8a8c828d01610d69565b915080935050809150509295985092959850929598565b600060208284031215610eb357600080fd5b5035919050565b600080600080600080600080610100898b031215610ed757600080fd5b88359750602089013596506040890135610ef081610c9b565b95506060890135610f0081610c9b565b94506080890135935060a089013560ff81168114610f1d57600080fd5b979a969950949793969295929450505060c08201359160e0013590565b634e487b7160e01b600052603260045260246000fd5b600060208284031215610f6257600080fd5b8135610f6d81610c9b565b9392505050565b6000825160005b81811015610f955760208186018101518583015201610f7b565b506000920191825250919050565b600060208284031215610fb557600080fd5b5051919050565b600060208284031215610fce57600080fd5b81518015158114610f6d57600080fdfea264697066735822122054a46e03203110cc78b128b95ecc40286f1259fd70441c79c7681bd71e93f79064736f6c634300081c0033","linkReferences":{}},"methodIdentifiers":{"DOMAIN_SEPARATOR()":"3644e515","TYPEHASH_REFUND()":"a9ab4d5b","claim(bytes32,uint256,address,address,address,uint256)":"bc586b28","claim(bytes32,uint256,address,address,uint256)":"cd413efa","claimBatch(address,bytes32[],uint256[],address[],uint256[])":"8579dc5f","hashValues(bytes32,uint256,address,address,address,uint256)":"7beb9d6d","lock(bytes32,uint256,address,address,uint256)":"91644b2b","lockPrepayMinerfee(bytes32,uint256,address,address,uint256)":"b8080ab8","refund(bytes32,uint256,address,address,address,uint256)":"0e5bbd59","refund(bytes32,uint256,address,address,uint256)":"36504721","refundCooperative(bytes32,uint256,address,address,uint256,uint8,bytes32,bytes32)":"fb35dd96","swaps(bytes32)":"eb84e7f2","version()":"54fd4d50"},"id":1}