{"abi":[{"type":"constructor","inputs":[],"stateMutability":"nonpayable"},{"type":"function","name":"DOMAIN_SEPARATOR","inputs":[],"outputs":[{"name":"","type":"bytes32","internalType":"bytes32"}],"stateMutability":"view"},{"type":"function","name":"TYPEHASH_REFUND","inputs":[],"outputs":[{"name":"","type":"bytes32","internalType":"bytes32"}],"stateMutability":"view"},{"type":"function","name":"claim","inputs":[{"name":"preimage","type":"bytes32","internalType":"bytes32"},{"name":"amount","type":"uint256","internalType":"uint256"},{"name":"refundAddress","type":"address","internalType":"address"},{"name":"timelock","type":"uint256","internalType":"uint256"}],"outputs":[],"stateMutability":"nonpayable"},{"type":"function","name":"claim","inputs":[{"name":"preimage","type":"bytes32","internalType":"bytes32"},{"name":"amount","type":"uint256","internalType":"uint256"},{"name":"claimAddress","type":"address","internalType":"address"},{"name":"refundAddress","type":"address","internalType":"address"},{"name":"timelock","type":"uint256","internalType":"uint256"}],"outputs":[],"stateMutability":"nonpayable"},{"type":"function","name":"claimBatch","inputs":[{"name":"preimages","type":"bytes32[]","internalType":"bytes32[]"},{"name":"amounts","type":"uint256[]","internalType":"uint256[]"},{"name":"refundAddresses","type":"address[]","internalType":"address[]"},{"name":"timelocks","type":"uint256[]","internalType":"uint256[]"}],"outputs":[],"stateMutability":"nonpayable"},{"type":"function","name":"hashValues","inputs":[{"name":"preimageHash","type":"bytes32","internalType":"bytes32"},{"name":"amount","type":"uint256","internalType":"uint256"},{"name":"claimAddress","type":"address","internalType":"address"},{"name":"refundAddress","type":"address","internalType":"address"},{"name":"timelock","type":"uint256","internalType":"uint256"}],"outputs":[{"name":"","type":"bytes32","internalType":"bytes32"}],"stateMutability":"pure"},{"type":"function","name":"lock","inputs":[{"name":"preimageHash","type":"bytes32","internalType":"bytes32"},{"name":"claimAddress","type":"address","internalType":"address"},{"name":"timelock","type":"uint256","internalType":"uint256"}],"outputs":[],"stateMutability":"payable"},{"type":"function","name":"lockPrepayMinerfee","inputs":[{"name":"preimageHash","type":"bytes32","internalType":"bytes32"},{"name":"claimAddress","type":"address","internalType":"address payable"},{"name":"timelock","type":"uint256","internalType":"uint256"},{"name":"prepayAmount","type":"uint256","internalType":"uint256"}],"outputs":[],"stateMutability":"payable"},{"type":"function","name":"refund","inputs":[{"name":"preimageHash","type":"bytes32","internalType":"bytes32"},{"name":"amount","type":"uint256","internalType":"uint256"},{"name":"claimAddress","type":"address","internalType":"address"},{"name":"timelock","type":"uint256","internalType":"uint256"}],"outputs":[],"stateMutability":"nonpayable"},{"type":"function","name":"refund","inputs":[{"name":"preimageHash","type":"bytes32","internalType":"bytes32"},{"name":"amount","type":"uint256","internalType":"uint256"},{"name":"claimAddress","type":"address","internalType":"address"},{"name":"refundAddress","type":"address","internalType":"address"},{"name":"timelock","type":"uint256","internalType":"uint256"}],"outputs":[],"stateMutability":"nonpayable"},{"type":"function","name":"refundCooperative","inputs":[{"name":"preimageHash","type":"bytes32","internalType":"bytes32"},{"name":"amount","type":"uint256","internalType":"uint256"},{"name":"claimAddress","type":"address","internalType":"address"},{"name":"timelock","type":"uint256","internalType":"uint256"},{"name":"v","type":"uint8","internalType":"uint8"},{"name":"r","type":"bytes32","internalType":"bytes32"},{"name":"s","type":"bytes32","internalType":"bytes32"}],"outputs":[],"stateMutability":"nonpayable"},{"type":"function","name":"swaps","inputs":[{"name":"","type":"bytes32","internalType":"bytes32"}],"outputs":[{"name":"","type":"bool","internalType":"bool"}],"stateMutability":"view"},{"type":"function","name":"version","inputs":[],"outputs":[{"name":"","type":"uint8","internalType":"uint8"}],"stateMutability":"view"},{"type":"event","name":"Claim","inputs":[{"name":"preimageHash","type":"bytes32","indexed":true,"internalType":"bytes32"},{"name":"preimage","type":"bytes32","indexed":false,"internalType":"bytes32"}],"anonymous":false},{"type":"event","name":"Lockup","inputs":[{"name":"preimageHash","type":"bytes32","indexed":true,"internalType":"bytes32"},{"name":"amount","type":"uint256","indexed":false,"internalType":"uint256"},{"name":"claimAddress","type":"address","indexed":false,"internalType":"address"},{"name":"refundAddress","type":"address","indexed":true,"internalType":"address"},{"name":"timelock","type":"uint256","indexed":false,"internalType":"uint256"}],"anonymous":false},{"type":"event","name":"Refund","inputs":[{"name":"preimageHash","type":"bytes32","indexed":true,"internalType":"bytes32"}],"anonymous":false}],"bytecode":{"object":"0x60c060405234801561001057600080fd5b50604080517f8b73c3c69bb8fe3d512ecc4cf759cc79239f7b179b0ffacaa9a75d522b39400f60208201527f0f435efbd794bc89b372127f0e96dcc927b729642a259c9b4dcbab48b107caec918101919091527f13600b294191fc92924bb3ce4b969c1e7e2bab8f4c93c3fc6d0a51733df3c06060608201524660808201523060a082015260c00160408051601f1981840301815291905280516020909101206080527f9e9b7110907661cf70aeef31f56954d657589e65e35455acf5737535f33a234160a05260805160a051610e1361010a600039600081816101cf015261051601526000818161010e01526105880152610e136000f3fe6080604052600436106100c25760003560e01c80638b2f8f821161007f578063c3c37fbc11610059578063c3c37fbc14610211578063cd413efa14610231578063eb84e7f214610251578063fe237d451461029157600080fd5b80638b2f8f821461019d578063a9ab4d5b146101bd578063c2c3a8c9146101f157600080fd5b80630899146b146100c757806335cd4ccb146100dc5780633644e515146100fc578063365047211461014357806354fd4d50146101635780636fa4ae601461018a575b600080fd5b6100da6100d5366004610a84565b6102b1565b005b3480156100e857600080fd5b506100da6100f7366004610abc565b6102c2565b34801561010857600080fd5b506101307f000000000000000000000000000000000000000000000000000000000000000081565b6040519081526020015b60405180910390f35b34801561014f57600080fd5b506100da61015e366004610afb565b6102d5565b34801561016f57600080fd5b50610178600481565b60405160ff909116815260200161013a565b6100da610198366004610b4d565b61034c565b3480156101a957600080fd5b506101306101b8366004610afb565b6103e0565b3480156101c957600080fd5b506101307f000000000000000000000000000000000000000000000000000000000000000081565b3480156101fd57600080fd5b506100da61020c366004610bd6565b610441565b34801561021d57600080fd5b506100da61022c366004610abc565b6104f0565b34801561023d57600080fd5b506100da61024c366004610afb565b6104f9565b34801561025d57600080fd5b5061028161026c366004610cad565b60006020819052908152604090205460ff1681565b604051901515815260200161013a565b34801561029d57600080fd5b506100da6102ac366004610cc6565b610510565b6102bd833484846106b3565b505050565b6102cf84848433856102d5565b50505050565b438111156103385760405162461bcd60e51b815260206004820152602560248201527f4574686572537761703a207377617020686173206e6f742074696d6564206f756044820152641d081e595d60da1b60648201526084015b60405180910390fd5b61034585858585856107f5565b5050505050565b8034116103c15760405162461bcd60e51b815260206004820152603d60248201527f4574686572537761703a2073656e7420616d6f756e74206d757374206265206760448201527f726561746572207468616e207468652070726570617920616d6f756e74000000606482015260840161032f565b6103d6846103cf8334610d34565b85856106b3565b6102cf838261085e565b60408051602081018790529081018590526bffffffffffffffffffffffff19606085811b82168184015284901b1660748201526088810182905260009060a80160405160208183030381529060405280519060200120905095945050505050565b60008060005b898110156104d95788888281811061046157610461610d5b565b9050602002013591506104cd8b8b8381811061047f5761047f610d5b565b9050602002013583338a8a8681811061049a5761049a610d5b565b90506020020160208101906104af9190610d71565b8989878181106104c1576104c1610d5b565b90506020020135610912565b91810191600101610447565b506104e4338361085e565b50505050505050505050565b6102cf84843385855b6105068585858585610912565b610345838561085e565b604080517f00000000000000000000000000000000000000000000000000000000000000006020808301919091528183018a9052606082018990526001600160a01b038816608083015260a08083018890528351808403909101815260c08301909352825192019190912061190160f01b60e08301527f000000000000000000000000000000000000000000000000000000000000000060e28301526101028201526000906001906101220160408051601f198184030181528282528051602091820120600084529083018083525260ff871690820152606081018590526080810184905260a0016020604051602081039080840390855afa15801561061a573d6000803e3d6000fd5b5050604051601f1901519150506001600160a01b038116158015906106505750856001600160a01b0316816001600160a01b0316145b61069c5760405162461bcd60e51b815260206004820152601c60248201527f4574686572537761703a20696e76616c6964207369676e617475726500000000604482015260640161032f565b6106a988888833896107f5565b5050505050505050565b600083116107155760405162461bcd60e51b815260206004820152602960248201527f4574686572537761703a206c6f636b656420616d6f756e74206d757374206e6f60448201526874206265207a65726f60b81b606482015260840161032f565b600061072485858533866103e0565b60008181526020819052604090205490915060ff16156107865760405162461bcd60e51b815260206004820152601e60248201527f4574686572537761703a20737761702065786973747320616c72656164790000604482015260640161032f565b60008181526020818152604091829020805460ff1916600117905581518681526001600160a01b03861691810191909152908101839052339086907f15b4b8206809535e547317cd5cedc86cff6e7d203551f93701786ddaf14fd9f99060600160405180910390a35050505050565b600061080486868686866103e0565b905061080f816109f2565b600081815260208190526040808220805460ff191690555187917f3fbd469ec3a5ce074f975f76ce27e727ba21c99176917b97ae2e713695582a1291a2610856838661085e565b505050505050565b6000826001600160a01b03168260405160006040518083038185875af1925050503d80600081146108ab576040519150601f19603f3d011682016040523d82523d6000602084013e6108b0565b606091505b50509050806102bd5760405162461bcd60e51b815260206004820152602860248201527f5472616e7366657248656c7065723a20636f756c64206e6f74207472616e736660448201526732b91022ba3432b960c11b606482015260840161032f565b600060028660405160200161092991815260200190565b60408051601f198184030181529082905261094391610d95565b602060405180830381855afa158015610960573d6000803e3d6000fd5b5050506040513d601f19601f820116820180604052508101906109839190610dc4565b9050600061099482878787876103e0565b905061099f816109f2565b60008181526020818152604091829020805460ff19169055905188815283917f5664142af3dcfc3dc3de45a43f75c746bd1d8c11170a5037fdf98bdb35775137910160405180910390a250505050505050565b60008181526020819052604090205460ff16610a6c5760405162461bcd60e51b815260206004820152603360248201527f4574686572537761703a207377617020686173206e6f204574686572206c6f636044820152721ad959081a5b881d1a194818dbdb9d1c9858dd606a1b606482015260840161032f565b50565b6001600160a01b0381168114610a6c57600080fd5b600080600060608486031215610a9957600080fd5b833592506020840135610aab81610a6f565b929592945050506040919091013590565b60008060008060808587031215610ad257600080fd5b84359350602085013592506040850135610aeb81610a6f565b9396929550929360600135925050565b600080600080600060a08688031215610b1357600080fd5b85359450602086013593506040860135610b2c81610a6f565b92506060860135610b3c81610a6f565b949793965091946080013592915050565b60008060008060808587031215610b6357600080fd5b843593506020850135610b7581610a6f565b93969395505050506040820135916060013590565b60008083601f840112610b9c57600080fd5b50813567ffffffffffffffff811115610bb457600080fd5b6020830191508360208260051b8501011115610bcf57600080fd5b9250929050565b6000806000806000806000806080898b031215610bf257600080fd5b883567ffffffffffffffff811115610c0957600080fd5b610c158b828c01610b8a565b909950975050602089013567ffffffffffffffff811115610c3557600080fd5b610c418b828c01610b8a565b909750955050604089013567ffffffffffffffff811115610c6157600080fd5b610c6d8b828c01610b8a565b909550935050606089013567ffffffffffffffff811115610c8d57600080fd5b610c998b828c01610b8a565b999c989b5096995094979396929594505050565b600060208284031215610cbf57600080fd5b5035919050565b600080600080600080600060e0888a031215610ce157600080fd5b87359650602088013595506040880135610cfa81610a6f565b945060608801359350608088013560ff81168114610d1757600080fd5b9699959850939692959460a0840135945060c09093013592915050565b81810381811115610d5557634e487b7160e01b600052601160045260246000fd5b92915050565b634e487b7160e01b600052603260045260246000fd5b600060208284031215610d8357600080fd5b8135610d8e81610a6f565b9392505050565b6000825160005b81811015610db65760208186018101518583015201610d9c565b506000920191825250919050565b600060208284031215610dd657600080fd5b505191905056fea2646970667358221220d3f45deb49d50ee252ba890fcc7dfed0d68276518f921315390bf3ed984fb91064736f6c634300081c0033","linkReferences":{}},"methodIdentifiers":{"DOMAIN_SEPARATOR()":"3644e515","TYPEHASH_REFUND()":"a9ab4d5b","claim(bytes32,uint256,address,address,uint256)":"cd413efa","claim(bytes32,uint256,address,uint256)":"c3c37fbc","claimBatch(bytes32[],uint256[],address[],uint256[])":"c2c3a8c9","hashValues(bytes32,uint256,address,address,uint256)":"8b2f8f82","lock(bytes32,address,uint256)":"0899146b","lockPrepayMinerfee(bytes32,address,uint256,uint256)":"6fa4ae60","refund(bytes32,uint256,address,address,uint256)":"36504721","refund(bytes32,uint256,address,uint256)":"35cd4ccb","refundCooperative(bytes32,uint256,address,uint256,uint8,bytes32,bytes32)":"fe237d45","swaps(bytes32)":"eb84e7f2","version()":"54fd4d50"},"id":2}