{"abi":[{"type":"function","name":"calls","inputs":[],"outputs":[{"name":"","type":"uint256","internalType":"uint256"}],"stateMutability":"view"},{"type":"function","name":"mockTarget","inputs":[{"name":"value","type":"uint256","internalType":"uint256"}],"outputs":[],"stateMutability":"payable"},{"type":"function","name":"revertTarget","inputs":[],"outputs":[],"stateMutability":"pure"}],"bytecode":{"object":"0x6080604052348015600f57600080fd5b5061029b8061001f6000396000f3fe6080604052600436106100345760003560e01c8063305f72b7146100395780637c1484bb14610064578063cf18f69c1461007b575b600080fd5b34801561004557600080fd5b5061004e610097565b60405161005b919061010c565b60405180910390f35b34801561007057600080fd5b5061007961009d565b005b61009560048036038101906100909190610158565b6100d8565b005b60005481565b6040517f08c379a00000000000000000000000000000000000000000000000000000000081526004016100cf906101e2565b60405180910390fd5b806000808282546100e99190610231565b9250508190555050565b6000819050919050565b610106816100f3565b82525050565b600060208201905061012160008301846100fd565b92915050565b600080fd5b610135816100f3565b811461014057600080fd5b50565b6000813590506101528161012c565b92915050565b60006020828403121561016e5761016d610127565b5b600061017c84828501610143565b91505092915050565b600082825260208201905092915050565b7f7265766572740000000000000000000000000000000000000000000000000000600082015250565b60006101cc600683610185565b91506101d782610196565b602082019050919050565b600060208201905081810360008301526101fb816101bf565b9050919050565b7f4e487b7100000000000000000000000000000000000000000000000000000000600052601160045260246000fd5b600061023c826100f3565b9150610247836100f3565b925082820190508082111561025f5761025e610202565b5b9291505056fea2646970667358221220353ab737a44a2db7c108e9f9b2b5d31179131e69bee4e5e53f6499b5ef2c4dcf64736f6c63430008210033","linkReferences":{}},"methodIdentifiers":{"calls()":"305f72b7","mockTarget(uint256)":"cf18f69c","revertTarget()":"7c1484bb"},"id":65}