{"abi":[{"type":"constructor","inputs":[{"name":"token","type":"address","internalType":"contract TestERC20"}],"stateMutability":"nonpayable"},{"type":"function","name":"swap","inputs":[],"outputs":[],"stateMutability":"payable"}],"bytecode":{"object":"0x60a060405234801561001057600080fd5b50604051610321380380610321833981810160405281019061003291906100e1565b8073ffffffffffffffffffffffffffffffffffffffff1660808173ffffffffffffffffffffffffffffffffffffffff16815250505061010e565b600080fd5b600073ffffffffffffffffffffffffffffffffffffffff82169050919050565b600061009c82610071565b9050919050565b60006100ae82610091565b9050919050565b6100be816100a3565b81146100c957600080fd5b50565b6000815190506100db816100b5565b92915050565b6000602082840312156100f7576100f661006c565b5b6000610105848285016100cc565b91505092915050565b6080516101f96101286000396000602f01526101f96000f3fe60806040526004361061001e5760003560e01c80638119c06514610023575b600080fd5b61002b61002d565b005b7f000000000000000000000000000000000000000000000000000000000000000073ffffffffffffffffffffffffffffffffffffffff1663a9059cbb33346040518363ffffffff1660e01b8152600401610088929190610130565b6020604051808303816000875af11580156100a7573d6000803e3d6000fd5b505050506040513d601f19601f820116820180604052508101906100cb9190610196565b6100d457600080fd5b565b600073ffffffffffffffffffffffffffffffffffffffff82169050919050565b6000610101826100d6565b9050919050565b610111816100f6565b82525050565b6000819050919050565b61012a81610117565b82525050565b60006040820190506101456000830185610108565b6101526020830184610121565b9392505050565b600080fd5b60008115159050919050565b6101738161015e565b811461017e57600080fd5b50565b6000815190506101908161016a565b92915050565b6000602082840312156101ac576101ab610159565b5b60006101ba84828501610181565b9150509291505056fea2646970667358221220ab165a4fb85e9d723e7a8dc87e675e4d0322c630f3843f3ebaefa7fd485d3dc064736f6c634300081e0033","linkReferences":{}},"methodIdentifiers":{"swap()":"8119c065"},"id":61}