{"abi":[{"type":"constructor","inputs":[{"name":"inputToken","type":"address","internalType":"contract TestERC20"},{"name":"outputToken","type":"address","internalType":"contract TestERC20"}],"stateMutability":"nonpayable"},{"type":"function","name":"swap","inputs":[{"name":"amount","type":"uint256","internalType":"uint256"}],"outputs":[],"stateMutability":"nonpayable"}],"bytecode":{"object":"0x60c060405234801561001057600080fd5b506040516104cb3803806104cb83398181016040528101906100329190610116565b8173ffffffffffffffffffffffffffffffffffffffff1660808173ffffffffffffffffffffffffffffffffffffffff16815250508073ffffffffffffffffffffffffffffffffffffffff1660a08173ffffffffffffffffffffffffffffffffffffffff16815250505050610156565b600080fd5b600073ffffffffffffffffffffffffffffffffffffffff82169050919050565b60006100d1826100a6565b9050919050565b60006100e3826100c6565b9050919050565b6100f3816100d8565b81146100fe57600080fd5b50565b600081519050610110816100ea565b92915050565b6000806040838503121561012d5761012c6100a1565b5b600061013b85828601610101565b925050602061014c85828601610101565b9150509250929050565b60805160a051610352610179600039600060f701526000604e01526103526000f3fe608060405234801561001057600080fd5b506004361061002b5760003560e01c806394b918de14610030575b600080fd5b61004a600480360381019061004591906101da565b61004c565b005b7f000000000000000000000000000000000000000000000000000000000000000073ffffffffffffffffffffffffffffffffffffffff166323b872dd3330846040518463ffffffff1660e01b81526004016100a993929190610257565b6020604051808303816000875af11580156100c8573d6000803e3d6000fd5b505050506040513d601f19601f820116820180604052508101906100ec91906102c6565b6100f557600080fd5b7f000000000000000000000000000000000000000000000000000000000000000073ffffffffffffffffffffffffffffffffffffffff1663a9059cbb33836040518363ffffffff1660e01b81526004016101509291906102f3565b6020604051808303816000875af115801561016f573d6000803e3d6000fd5b505050506040513d601f19601f8201168201806040525081019061019391906102c6565b61019c57600080fd5b50565b600080fd5b6000819050919050565b6101b7816101a4565b81146101c257600080fd5b50565b6000813590506101d4816101ae565b92915050565b6000602082840312156101f0576101ef61019f565b5b60006101fe848285016101c5565b91505092915050565b600073ffffffffffffffffffffffffffffffffffffffff82169050919050565b600061023282610207565b9050919050565b61024281610227565b82525050565b610251816101a4565b82525050565b600060608201905061026c6000830186610239565b6102796020830185610239565b6102866040830184610248565b949350505050565b60008115159050919050565b6102a38161028e565b81146102ae57600080fd5b50565b6000815190506102c08161029a565b92915050565b6000602082840312156102dc576102db61019f565b5b60006102ea848285016102b1565b91505092915050565b60006040820190506103086000830185610239565b6103156020830184610248565b939250505056fea26469706673582212204acbcb2d87eff0a25785fb787faa54fee9ae737fafb57d57df9c9d20fc8e72e464736f6c63430008210033","linkReferences":{}},"methodIdentifiers":{"swap(uint256)":"94b918de"},"id":65}