{"abi":[{"type":"constructor","inputs":[{"name":"swapContract","type":"address","internalType":"address"}],"stateMutability":"nonpayable"},{"type":"receive","stateMutability":"payable"},{"type":"function","name":"DOMAIN_SEPARATOR","inputs":[],"outputs":[{"name":"","type":"bytes32","internalType":"bytes32"}],"stateMutability":"view"},{"type":"function","name":"SWAP_CONTRACT","inputs":[],"outputs":[{"name":"","type":"address","internalType":"contract EtherSwap"}],"stateMutability":"view"},{"type":"function","name":"TYPEHASH_CLAIM","inputs":[],"outputs":[{"name":"","type":"bytes32","internalType":"bytes32"}],"stateMutability":"view"},{"type":"function","name":"TYPEHASH_CLAIM_CALL","inputs":[],"outputs":[{"name":"","type":"bytes32","internalType":"bytes32"}],"stateMutability":"view"},{"type":"function","name":"VERSION","inputs":[],"outputs":[{"name":"","type":"uint8","internalType":"uint8"}],"stateMutability":"view"},{"type":"function","name":"claimCall","inputs":[{"name":"claim","type":"tuple","internalType":"struct Router.Claim","components":[{"name":"preimage","type":"bytes32","internalType":"bytes32"},{"name":"amount","type":"uint256","internalType":"uint256"},{"name":"refundAddress","type":"address","internalType":"address"},{"name":"timelock","type":"uint256","internalType":"uint256"},{"name":"v","type":"uint8","internalType":"uint8"},{"name":"r","type":"bytes32","internalType":"bytes32"},{"name":"s","type":"bytes32","internalType":"bytes32"}]},{"name":"callee","type":"address","internalType":"address"},{"name":"callData","type":"bytes","internalType":"bytes"}],"outputs":[],"stateMutability":"nonpayable"},{"type":"function","name":"claimCall","inputs":[{"name":"claim","type":"tuple","internalType":"struct Router.Claim","components":[{"name":"preimage","type":"bytes32","internalType":"bytes32"},{"name":"amount","type":"uint256","internalType":"uint256"},{"name":"refundAddress","type":"address","internalType":"address"},{"name":"timelock","type":"uint256","internalType":"uint256"},{"name":"v","type":"uint8","internalType":"uint8"},{"name":"r","type":"bytes32","internalType":"bytes32"},{"name":"s","type":"bytes32","internalType":"bytes32"}]},{"name":"callee","type":"address","internalType":"address"},{"name":"callData","type":"bytes","internalType":"bytes"},{"name":"v","type":"uint8","internalType":"uint8"},{"name":"r","type":"bytes32","internalType":"bytes32"},{"name":"s","type":"bytes32","internalType":"bytes32"}],"outputs":[],"stateMutability":"nonpayable"},{"type":"function","name":"claimExecute","inputs":[{"name":"claim","type":"tuple","internalType":"struct Router.Claim","components":[{"name":"preimage","type":"bytes32","internalType":"bytes32"},{"name":"amount","type":"uint256","internalType":"uint256"},{"name":"refundAddress","type":"address","internalType":"address"},{"name":"timelock","type":"uint256","internalType":"uint256"},{"name":"v","type":"uint8","internalType":"uint8"},{"name":"r","type":"bytes32","internalType":"bytes32"},{"name":"s","type":"bytes32","internalType":"bytes32"}]},{"name":"calls","type":"tuple[]","internalType":"struct Router.Call[]","components":[{"name":"target","type":"address","internalType":"address"},{"name":"value","type":"uint256","internalType":"uint256"},{"name":"callData","type":"bytes","internalType":"bytes"}]},{"name":"token","type":"address","internalType":"address"},{"name":"minAmountOut","type":"uint256","internalType":"uint256"}],"outputs":[],"stateMutability":"nonpayable"},{"type":"function","name":"claimExecute","inputs":[{"name":"claim","type":"tuple","internalType":"struct Router.Claim","components":[{"name":"preimage","type":"bytes32","internalType":"bytes32"},{"name":"amount","type":"uint256","internalType":"uint256"},{"name":"refundAddress","type":"address","internalType":"address"},{"name":"timelock","type":"uint256","internalType":"uint256"},{"name":"v","type":"uint8","internalType":"uint8"},{"name":"r","type":"bytes32","internalType":"bytes32"},{"name":"s","type":"bytes32","internalType":"bytes32"}]},{"name":"calls","type":"tuple[]","internalType":"struct Router.Call[]","components":[{"name":"target","type":"address","internalType":"address"},{"name":"value","type":"uint256","internalType":"uint256"},{"name":"callData","type":"bytes","internalType":"bytes"}]},{"name":"token","type":"address","internalType":"address"},{"name":"minAmountOut","type":"uint256","internalType":"uint256"},{"name":"destination","type":"address","internalType":"address"},{"name":"v","type":"uint8","internalType":"uint8"},{"name":"r","type":"bytes32","internalType":"bytes32"},{"name":"s","type":"bytes32","internalType":"bytes32"}],"outputs":[],"stateMutability":"nonpayable"},{"type":"error","name":"CallFailed","inputs":[{"name":"index","type":"uint256","internalType":"uint256"}]},{"type":"error","name":"ClaimInvalidAddress","inputs":[]},{"type":"error","name":"InsufficientBalance","inputs":[]}],"bytecode":{"object":"0x60c06040527f8b73c3c69bb8fe3d512ecc4cf759cc79239f7b179b0ffacaa9a75d522b39400f7f3f0593d90c203cedd52beaf1f2e33ef6958a48ee6bc9180eb653d00d34ee618d7fc89efdaa54c0f20c7adf612882df0950f5a951637e0307cdcb4c672f298b8bc6463060405160200161007d959493929190610174565b6040516020818303038152906040528051906020012060a0908152503480156100a557600080fd5b50604051611c38380380611c3883398181016040528101906100c791906101f8565b8073ffffffffffffffffffffffffffffffffffffffff1660808173ffffffffffffffffffffffffffffffffffffffff168152505050610225565b6000819050919050565b61011481610101565b82525050565b6000819050919050565b61012d8161011a565b82525050565b600073ffffffffffffffffffffffffffffffffffffffff82169050919050565b600061015e82610133565b9050919050565b61016e81610153565b82525050565b600060a082019050610189600083018861010b565b610196602083018761010b565b6101a3604083018661010b565b6101b06060830185610124565b6101bd6080830184610165565b9695505050505050565b600080fd5b6101d581610153565b81146101e057600080fd5b50565b6000815190506101f2816101cc565b92915050565b60006020828403121561020e5761020d6101c7565b5b600061021c848285016101e3565b91505092915050565b60805160a0516119d961025f6000396000818161033e01528181610364015261063c0152600081816107af01526107fe01526119d96000f3fe60806040526004361061008a5760003560e01c8063891d608011610059578063891d60801461013e578063a7b77acb14610167578063cf3afa5114610190578063ebb7af92146101bb578063ffa1ad74146101e657610091565b80633503c73d146100965780633644e515146100bf5780635b2acb70146100ea57806373e09a781461011357610091565b3661009157005b600080fd5b3480156100a257600080fd5b506100bd60048036038101906100b89190610e2a565b610211565b005b3480156100cb57600080fd5b506100d461033c565b6040516100e19190610eb9565b60405180910390f35b3480156100f657600080fd5b50610111600480360381019061010c9190610f39565b610360565b005b34801561011f57600080fd5b5061012861058b565b6040516101359190610eb9565b60405180910390f35b34801561014a57600080fd5b5061016560048036038101906101609190611079565b6105af565b005b34801561017357600080fd5b5061018e60048036038101906101899190611104565b610638565b005b34801561019c57600080fd5b506101a56107ad565b6040516101b2919061123f565b60405180910390f35b3480156101c757600080fd5b506101d06107d1565b6040516101dd9190610eb9565b60405180910390f35b3480156101f257600080fd5b506101fb6107f5565b6040516102089190611269565b60405180910390f35b3373ffffffffffffffffffffffffffffffffffffffff16610231856107fa565b73ffffffffffffffffffffffffffffffffffffffff161461027e576040517f8fdad36100000000000000000000000000000000000000000000000000000000815260040160405180910390fd5b60008373ffffffffffffffffffffffffffffffffffffffff16856020013584846040516102ac9291906112c3565b60006040518083038185875af1925050503d80600081146102e9576040519150601f19603f3d011682016040523d82523d6000602084013e6102ee565b606091505b50509050806103355760006040517f3f9a3b4800000000000000000000000000000000000000000000000000000000815260040161032c9190611317565b60405180910390fd5b5050505050565b7f000000000000000000000000000000000000000000000000000000000000000081565b60017f00000000000000000000000000000000000000000000000000000000000000007f19ac9140b08b00506c1962f90ff8781be79b2632dcbd9e86df54bcbd18cc62f989600001358989896040516103ba9291906112c3565b60405180910390206040516020016103d59493929190611341565b604051602081830303815290604052805190602001206040516020016103fc9291906113fe565b60405160208183030381529060405280519060200120848484604051600081526020016040526040516104329493929190611435565b6020604051602081039080840390855afa158015610454573d6000803e3d6000fd5b5050506020604051035173ffffffffffffffffffffffffffffffffffffffff1661047d886107fa565b73ffffffffffffffffffffffffffffffffffffffff16146104ca576040517f8fdad36100000000000000000000000000000000000000000000000000000000815260040160405180910390fd5b60008673ffffffffffffffffffffffffffffffffffffffff16886020013587876040516104f89291906112c3565b60006040518083038185875af1925050503d8060008114610535576040519150601f19603f3d011682016040523d82523d6000602084013e61053a565b606091505b50509050806105815760006040517f3f9a3b480000000000000000000000000000000000000000000000000000000081526004016105789190611317565b60405180910390fd5b5050505050505050565b7f19ac9140b08b00506c1962f90ff8781be79b2632dcbd9e86df54bcbd18cc62f981565b3373ffffffffffffffffffffffffffffffffffffffff166105cf866107fa565b73ffffffffffffffffffffffffffffffffffffffff161461061c576040517f8fdad36100000000000000000000000000000000000000000000000000000000815260040160405180910390fd5b61062684846108e3565b610631338383610a09565b5050505050565b60017f00000000000000000000000000000000000000000000000000000000000000007fa47e6983ae363f2a4c612ca9d2c8acd221ad9a6dd1ae17020ccfa05f14074fcf8b60000135898989604051602001610698959493929190611489565b604051602081830303815290604052805190602001206040516020016106bf9291906113fe565b60405160208183030381529060405280519060200120848484604051600081526020016040526040516106f59493929190611435565b6020604051602081039080840390855afa158015610717573d6000803e3d6000fd5b5050506020604051035173ffffffffffffffffffffffffffffffffffffffff166107408a6107fa565b73ffffffffffffffffffffffffffffffffffffffff161461078d576040517f8fdad36100000000000000000000000000000000000000000000000000000000815260040160405180910390fd5b61079788886108e3565b6107a2848787610a09565b505050505050505050565b7f000000000000000000000000000000000000000000000000000000000000000081565b7fa47e6983ae363f2a4c612ca9d2c8acd221ad9a6dd1ae17020ccfa05f14074fcf81565b600181565b60007f000000000000000000000000000000000000000000000000000000000000000073ffffffffffffffffffffffffffffffffffffffff16633648a8078360000135846020013585604001602081019061085591906114dc565b866060013587608001602081019061086d9190611509565b8860a001358960c001356040518863ffffffff1660e01b81526004016108999796959493929190611536565b6020604051808303816000875af11580156108b8573d6000803e3d6000fd5b505050506040513d601f19601f820116820180604052508101906108dc91906115ba565b9050919050565b60008282905090503660005b82811015610a025784848281811061090a576109096115e7565b5b905060200281019061091c9190611625565b9150600082600001602081019061093391906114dc565b73ffffffffffffffffffffffffffffffffffffffff16836020013584806040019061095e919061164d565b60405161096c9291906112c3565b60006040518083038185875af1925050503d80600081146109a9576040519150601f19603f3d011682016040523d82523d6000602084013e6109ae565b606091505b50509050806109f457816040517f3f9a3b480000000000000000000000000000000000000000000000000000000081526004016109eb91906116b0565b60405180910390fd5b5080806001019150506108ef565b5050505050565b60008073ffffffffffffffffffffffffffffffffffffffff168373ffffffffffffffffffffffffffffffffffffffff1603610a4657479050610ac3565b8273ffffffffffffffffffffffffffffffffffffffff166370a08231306040518263ffffffff1660e01b8152600401610a7f91906116cb565b602060405180830381865afa158015610a9c573d6000803e3d6000fd5b505050506040513d601f19601f82011682018060405250810190610ac091906116fb565b90505b81811015610afd576040517ff4d678b800000000000000000000000000000000000000000000000000000000815260040160405180910390fd5b600073ffffffffffffffffffffffffffffffffffffffff168373ffffffffffffffffffffffffffffffffffffffff1603610b4057610b3b8482610b52565b610b4c565b610b4b838583610c03565b5b50505050565b60008273ffffffffffffffffffffffffffffffffffffffff1682604051610b789061174e565b60006040518083038185875af1925050503d8060008114610bb5576040519150601f19603f3d011682016040523d82523d6000602084013e610bba565b606091505b5050905080610bfe576040517f08c379a0000000000000000000000000000000000000000000000000000000008152600401610bf5906117e6565b60405180910390fd5b505050565b6000808473ffffffffffffffffffffffffffffffffffffffff1663a9059cbb8585604051602401610c35929190611806565b6040516020818303038152906040529060e01b6020820180517bffffffffffffffffffffffffffffffffffffffffffffffffffffffff8381831617835250505050604051610c839190611895565b6000604051808303816000865af19150503d8060008114610cc0576040519150601f19603f3d011682016040523d82523d6000602084013e610cc5565b606091505b5091509150818015610cf35750600081511480610cf2575080806020019051810190610cf191906118e4565b5b5b610d32576040517f08c379a0000000000000000000000000000000000000000000000000000000008152600401610d2990611983565b60405180910390fd5b5050505050565b600080fd5b600080fd5b600080fd5b600060e08284031215610d5e57610d5d610d43565b5b81905092915050565b600073ffffffffffffffffffffffffffffffffffffffff82169050919050565b6000610d9282610d67565b9050919050565b610da281610d87565b8114610dad57600080fd5b50565b600081359050610dbf81610d99565b92915050565b600080fd5b600080fd5b600080fd5b60008083601f840112610dea57610de9610dc5565b5b8235905067ffffffffffffffff811115610e0757610e06610dca565b5b602083019150836001820283011115610e2357610e22610dcf565b5b9250929050565b6000806000806101208587031215610e4557610e44610d39565b5b6000610e5387828801610d48565b94505060e0610e6487828801610db0565b93505061010085013567ffffffffffffffff811115610e8657610e85610d3e565b5b610e9287828801610dd4565b925092505092959194509250565b6000819050919050565b610eb381610ea0565b82525050565b6000602082019050610ece6000830184610eaa565b92915050565b600060ff82169050919050565b610eea81610ed4565b8114610ef557600080fd5b50565b600081359050610f0781610ee1565b92915050565b610f1681610ea0565b8114610f2157600080fd5b50565b600081359050610f3381610f0d565b92915050565b6000806000806000806000610180888a031215610f5957610f58610d39565b5b6000610f678a828b01610d48565b97505060e0610f788a828b01610db0565b96505061010088013567ffffffffffffffff811115610f9a57610f99610d3e565b5b610fa68a828b01610dd4565b9550955050610120610fba8a828b01610ef8565b935050610140610fcc8a828b01610f24565b925050610160610fde8a828b01610f24565b91505092959891949750929550565b60008083601f84011261100357611002610dc5565b5b8235905067ffffffffffffffff8111156110205761101f610dca565b5b60208301915083602082028301111561103c5761103b610dcf565b5b9250929050565b6000819050919050565b61105681611043565b811461106157600080fd5b50565b6000813590506110738161104d565b92915050565b6000806000806000610140868803121561109657611095610d39565b5b60006110a488828901610d48565b95505060e086013567ffffffffffffffff8111156110c5576110c4610d3e565b5b6110d188828901610fed565b94509450506101006110e588828901610db0565b9250506101206110f788828901611064565b9150509295509295909350565b60008060008060008060008060006101c08a8c03121561112757611126610d39565b5b60006111358c828d01610d48565b99505060e08a013567ffffffffffffffff81111561115657611155610d3e565b5b6111628c828d01610fed565b98509850506101006111768c828d01610db0565b9650506101206111888c828d01611064565b95505061014061119a8c828d01610db0565b9450506101606111ac8c828d01610ef8565b9350506101806111be8c828d01610f24565b9250506101a06111d08c828d01610f24565b9150509295985092959850929598565b6000819050919050565b60006112056112006111fb84610d67565b6111e0565b610d67565b9050919050565b6000611217826111ea565b9050919050565b60006112298261120c565b9050919050565b6112398161121e565b82525050565b60006020820190506112546000830184611230565b92915050565b61126381610ed4565b82525050565b600060208201905061127e600083018461125a565b92915050565b600081905092915050565b82818337600083830152505050565b60006112aa8385611284565b93506112b783858461128f565b82840190509392505050565b60006112d082848661129e565b91508190509392505050565b6000819050919050565b60006113016112fc6112f7846112dc565b6111e0565b611043565b9050919050565b611311816112e6565b82525050565b600060208201905061132c6000830184611308565b92915050565b61133b81610d87565b82525050565b60006080820190506113566000830187610eaa565b6113636020830186610eaa565b6113706040830185611332565b61137d6060830184610eaa565b95945050505050565b600081905092915050565b7f1901000000000000000000000000000000000000000000000000000000000000600082015250565b60006113c7600283611386565b91506113d282611391565b600282019050919050565b6000819050919050565b6113f86113f382610ea0565b6113dd565b82525050565b6000611409826113ba565b915061141582856113e7565b60208201915061142582846113e7565b6020820191508190509392505050565b600060808201905061144a6000830187610eaa565b611457602083018661125a565b6114646040830185610eaa565b6114716060830184610eaa565b95945050505050565b61148381611043565b82525050565b600060a08201905061149e6000830188610eaa565b6114ab6020830187610eaa565b6114b86040830186611332565b6114c5606083018561147a565b6114d26080830184611332565b9695505050505050565b6000602082840312156114f2576114f1610d39565b5b600061150084828501610db0565b91505092915050565b60006020828403121561151f5761151e610d39565b5b600061152d84828501610ef8565b91505092915050565b600060e08201905061154b600083018a610eaa565b611558602083018961147a565b6115656040830188611332565b611572606083018761147a565b61157f608083018661125a565b61158c60a0830185610eaa565b61159960c0830184610eaa565b98975050505050505050565b6000815190506115b481610d99565b92915050565b6000602082840312156115d0576115cf610d39565b5b60006115de848285016115a5565b91505092915050565b7f4e487b7100000000000000000000000000000000000000000000000000000000600052603260045260246000fd5b600080fd5b600080fd5b600080fd5b60008235600160600383360303811261164157611640611616565b5b80830191505092915050565b6000808335600160200384360303811261166a57611669611616565b5b80840192508235915067ffffffffffffffff82111561168c5761168b61161b565b5b6020830192506001820236038313156116a8576116a7611620565b5b509250929050565b60006020820190506116c5600083018461147a565b92915050565b60006020820190506116e06000830184611332565b92915050565b6000815190506116f58161104d565b92915050565b60006020828403121561171157611710610d39565b5b600061171f848285016116e6565b91505092915050565b50565b6000611738600083611284565b915061174382611728565b600082019050919050565b60006117598261172b565b9150819050919050565b600082825260208201905092915050565b7f5472616e7366657248656c7065723a20636f756c64206e6f74207472616e736660008201527f6572204574686572000000000000000000000000000000000000000000000000602082015250565b60006117d0602883611763565b91506117db82611774565b604082019050919050565b600060208201905081810360008301526117ff816117c3565b9050919050565b600060408201905061181b6000830185611332565b611828602083018461147a565b9392505050565b600081519050919050565b60005b8381101561185857808201518184015260208101905061183d565b60008484015250505050565b600061186f8261182f565b6118798185611284565b935061188981856020860161183a565b80840191505092915050565b60006118a18284611864565b915081905092915050565b60008115159050919050565b6118c1816118ac565b81146118cc57600080fd5b50565b6000815190506118de816118b8565b92915050565b6000602082840312156118fa576118f9610d39565b5b6000611908848285016118cf565b91505092915050565b7f5472616e7366657248656c7065723a20636f756c64206e6f74207472616e736660008201527f657220455243323020746f6b656e730000000000000000000000000000000000602082015250565b600061196d602f83611763565b915061197882611911565b604082019050919050565b6000602082019050818103600083015261199c81611960565b905091905056fea2646970667358221220bc71084fd3c51e5954a96364ab004e20bfa53e10069e6fd4839b5cd28019e7da64736f6c634300081e0033","linkReferences":{}},"methodIdentifiers":{"DOMAIN_SEPARATOR()":"3644e515","SWAP_CONTRACT()":"cf3afa51","TYPEHASH_CLAIM()":"ebb7af92","TYPEHASH_CLAIM_CALL()":"73e09a78","VERSION()":"ffa1ad74","claimCall((bytes32,uint256,address,uint256,uint8,bytes32,bytes32),address,bytes)":"3503c73d","claimCall((bytes32,uint256,address,uint256,uint8,bytes32,bytes32),address,bytes,uint8,bytes32,bytes32)":"5b2acb70","claimExecute((bytes32,uint256,address,uint256,uint8,bytes32,bytes32),(address,uint256,bytes)[],address,uint256)":"891d6080","claimExecute((bytes32,uint256,address,uint256,uint8,bytes32,bytes32),(address,uint256,bytes)[],address,uint256,address,uint8,bytes32,bytes32)":"a7b77acb"},"id":3}