{"abi":[{"type":"constructor","inputs":[{"name":"swapContract","type":"address","internalType":"address"},{"name":"erc20SwapContract","type":"address","internalType":"address"}],"stateMutability":"nonpayable"},{"type":"receive","stateMutability":"payable"},{"type":"function","name":"DOMAIN_SEPARATOR","inputs":[],"outputs":[{"name":"","type":"bytes32","internalType":"bytes32"}],"stateMutability":"view"},{"type":"function","name":"ERC20_SWAP_CONTRACT","inputs":[],"outputs":[{"name":"","type":"address","internalType":"contract ERC20Swap"}],"stateMutability":"view"},{"type":"function","name":"SWAP_CONTRACT","inputs":[],"outputs":[{"name":"","type":"address","internalType":"contract EtherSwap"}],"stateMutability":"view"},{"type":"function","name":"TYPEHASH_CLAIM","inputs":[],"outputs":[{"name":"","type":"bytes32","internalType":"bytes32"}],"stateMutability":"view"},{"type":"function","name":"TYPEHASH_CLAIM_CALL","inputs":[],"outputs":[{"name":"","type":"bytes32","internalType":"bytes32"}],"stateMutability":"view"},{"type":"function","name":"VERSION","inputs":[],"outputs":[{"name":"","type":"uint8","internalType":"uint8"}],"stateMutability":"view"},{"type":"function","name":"claimCall","inputs":[{"name":"claim","type":"tuple","internalType":"struct Router.Claim","components":[{"name":"preimage","type":"bytes32","internalType":"bytes32"},{"name":"amount","type":"uint256","internalType":"uint256"},{"name":"refundAddress","type":"address","internalType":"address"},{"name":"timelock","type":"uint256","internalType":"uint256"},{"name":"v","type":"uint8","internalType":"uint8"},{"name":"r","type":"bytes32","internalType":"bytes32"},{"name":"s","type":"bytes32","internalType":"bytes32"}]},{"name":"callee","type":"address","internalType":"address"},{"name":"callData","type":"bytes","internalType":"bytes"}],"outputs":[],"stateMutability":"nonpayable"},{"type":"function","name":"claimCall","inputs":[{"name":"claim","type":"tuple","internalType":"struct Router.Claim","components":[{"name":"preimage","type":"bytes32","internalType":"bytes32"},{"name":"amount","type":"uint256","internalType":"uint256"},{"name":"refundAddress","type":"address","internalType":"address"},{"name":"timelock","type":"uint256","internalType":"uint256"},{"name":"v","type":"uint8","internalType":"uint8"},{"name":"r","type":"bytes32","internalType":"bytes32"},{"name":"s","type":"bytes32","internalType":"bytes32"}]},{"name":"callee","type":"address","internalType":"address"},{"name":"callData","type":"bytes","internalType":"bytes"},{"name":"v","type":"uint8","internalType":"uint8"},{"name":"r","type":"bytes32","internalType":"bytes32"},{"name":"s","type":"bytes32","internalType":"bytes32"}],"outputs":[],"stateMutability":"nonpayable"},{"type":"function","name":"claimERC20Call","inputs":[{"name":"claim","type":"tuple","internalType":"struct Router.Erc20Claim","components":[{"name":"preimage","type":"bytes32","internalType":"bytes32"},{"name":"amount","type":"uint256","internalType":"uint256"},{"name":"tokenAddress","type":"address","internalType":"address"},{"name":"refundAddress","type":"address","internalType":"address"},{"name":"timelock","type":"uint256","internalType":"uint256"},{"name":"v","type":"uint8","internalType":"uint8"},{"name":"r","type":"bytes32","internalType":"bytes32"},{"name":"s","type":"bytes32","internalType":"bytes32"}]},{"name":"callee","type":"address","internalType":"address"},{"name":"callData","type":"bytes","internalType":"bytes"},{"name":"v","type":"uint8","internalType":"uint8"},{"name":"r","type":"bytes32","internalType":"bytes32"},{"name":"s","type":"bytes32","internalType":"bytes32"}],"outputs":[],"stateMutability":"nonpayable"},{"type":"function","name":"claimERC20Call","inputs":[{"name":"claim","type":"tuple","internalType":"struct Router.Erc20Claim","components":[{"name":"preimage","type":"bytes32","internalType":"bytes32"},{"name":"amount","type":"uint256","internalType":"uint256"},{"name":"tokenAddress","type":"address","internalType":"address"},{"name":"refundAddress","type":"address","internalType":"address"},{"name":"timelock","type":"uint256","internalType":"uint256"},{"name":"v","type":"uint8","internalType":"uint8"},{"name":"r","type":"bytes32","internalType":"bytes32"},{"name":"s","type":"bytes32","internalType":"bytes32"}]},{"name":"callee","type":"address","internalType":"address"},{"name":"callData","type":"bytes","internalType":"bytes"}],"outputs":[],"stateMutability":"nonpayable"},{"type":"function","name":"claimERC20Execute","inputs":[{"name":"claim","type":"tuple","internalType":"struct Router.Erc20Claim","components":[{"name":"preimage","type":"bytes32","internalType":"bytes32"},{"name":"amount","type":"uint256","internalType":"uint256"},{"name":"tokenAddress","type":"address","internalType":"address"},{"name":"refundAddress","type":"address","internalType":"address"},{"name":"timelock","type":"uint256","internalType":"uint256"},{"name":"v","type":"uint8","internalType":"uint8"},{"name":"r","type":"bytes32","internalType":"bytes32"},{"name":"s","type":"bytes32","internalType":"bytes32"}]},{"name":"calls","type":"tuple[]","internalType":"struct Router.Call[]","components":[{"name":"target","type":"address","internalType":"address"},{"name":"value","type":"uint256","internalType":"uint256"},{"name":"callData","type":"bytes","internalType":"bytes"}]},{"name":"token","type":"address","internalType":"address"},{"name":"minAmountOut","type":"uint256","internalType":"uint256"},{"name":"destination","type":"address","internalType":"address"},{"name":"v","type":"uint8","internalType":"uint8"},{"name":"r","type":"bytes32","internalType":"bytes32"},{"name":"s","type":"bytes32","internalType":"bytes32"}],"outputs":[],"stateMutability":"nonpayable"},{"type":"function","name":"claimERC20Execute","inputs":[{"name":"claim","type":"tuple","internalType":"struct Router.Erc20Claim","components":[{"name":"preimage","type":"bytes32","internalType":"bytes32"},{"name":"amount","type":"uint256","internalType":"uint256"},{"name":"tokenAddress","type":"address","internalType":"address"},{"name":"refundAddress","type":"address","internalType":"address"},{"name":"timelock","type":"uint256","internalType":"uint256"},{"name":"v","type":"uint8","internalType":"uint8"},{"name":"r","type":"bytes32","internalType":"bytes32"},{"name":"s","type":"bytes32","internalType":"bytes32"}]},{"name":"calls","type":"tuple[]","internalType":"struct Router.Call[]","components":[{"name":"target","type":"address","internalType":"address"},{"name":"value","type":"uint256","internalType":"uint256"},{"name":"callData","type":"bytes","internalType":"bytes"}]},{"name":"token","type":"address","internalType":"address"},{"name":"minAmountOut","type":"uint256","internalType":"uint256"}],"outputs":[],"stateMutability":"nonpayable"},{"type":"function","name":"claimExecute","inputs":[{"name":"claim","type":"tuple","internalType":"struct Router.Claim","components":[{"name":"preimage","type":"bytes32","internalType":"bytes32"},{"name":"amount","type":"uint256","internalType":"uint256"},{"name":"refundAddress","type":"address","internalType":"address"},{"name":"timelock","type":"uint256","internalType":"uint256"},{"name":"v","type":"uint8","internalType":"uint8"},{"name":"r","type":"bytes32","internalType":"bytes32"},{"name":"s","type":"bytes32","internalType":"bytes32"}]},{"name":"calls","type":"tuple[]","internalType":"struct Router.Call[]","components":[{"name":"target","type":"address","internalType":"address"},{"name":"value","type":"uint256","internalType":"uint256"},{"name":"callData","type":"bytes","internalType":"bytes"}]},{"name":"token","type":"address","internalType":"address"},{"name":"minAmountOut","type":"uint256","internalType":"uint256"}],"outputs":[],"stateMutability":"nonpayable"},{"type":"function","name":"claimExecute","inputs":[{"name":"claim","type":"tuple","internalType":"struct Router.Claim","components":[{"name":"preimage","type":"bytes32","internalType":"bytes32"},{"name":"amount","type":"uint256","internalType":"uint256"},{"name":"refundAddress","type":"address","internalType":"address"},{"name":"timelock","type":"uint256","internalType":"uint256"},{"name":"v","type":"uint8","internalType":"uint8"},{"name":"r","type":"bytes32","internalType":"bytes32"},{"name":"s","type":"bytes32","internalType":"bytes32"}]},{"name":"calls","type":"tuple[]","internalType":"struct Router.Call[]","components":[{"name":"target","type":"address","internalType":"address"},{"name":"value","type":"uint256","internalType":"uint256"},{"name":"callData","type":"bytes","internalType":"bytes"}]},{"name":"token","type":"address","internalType":"address"},{"name":"minAmountOut","type":"uint256","internalType":"uint256"},{"name":"destination","type":"address","internalType":"address"},{"name":"v","type":"uint8","internalType":"uint8"},{"name":"r","type":"bytes32","internalType":"bytes32"},{"name":"s","type":"bytes32","internalType":"bytes32"}],"outputs":[],"stateMutability":"nonpayable"},{"type":"error","name":"CallFailed","inputs":[{"name":"index","type":"uint256","internalType":"uint256"}]},{"type":"error","name":"ClaimInvalidAddress","inputs":[]},{"type":"error","name":"InsufficientBalance","inputs":[]},{"type":"error","name":"SafeERC20FailedOperation","inputs":[{"name":"token","type":"address","internalType":"address"}]}],"bytecode":{"object":"0x60e06040527f8b73c3c69bb8fe3d512ecc4cf759cc79239f7b179b0ffacaa9a75d522b39400f7f3f0593d90c203cedd52beaf1f2e33ef6958a48ee6bc9180eb653d00d34ee618d7fad7c5bef027816a800da1736444fb58a807ef4c9603b7848673f7e3a68eb14a5463060405160200161007d9594939291906101a9565b6040516020818303038152906040528051906020012060c0908152503480156100a557600080fd5b50604051612a5b380380612a5b83398181016040528101906100c7919061022d565b8173ffffffffffffffffffffffffffffffffffffffff1660808173ffffffffffffffffffffffffffffffffffffffff16815250508073ffffffffffffffffffffffffffffffffffffffff1660a08173ffffffffffffffffffffffffffffffffffffffff1681525050505061026d565b6000819050919050565b61014981610136565b82525050565b6000819050919050565b6101628161014f565b82525050565b600073ffffffffffffffffffffffffffffffffffffffff82169050919050565b600061019382610168565b9050919050565b6101a381610188565b82525050565b600060a0820190506101be6000830188610140565b6101cb6020830187610140565b6101d86040830186610140565b6101e56060830185610159565b6101f2608083018461019a565b9695505050505050565b600080fd5b61020a81610188565b811461021557600080fd5b50565b60008151905061022781610201565b92915050565b60008060408385031215610244576102436101fc565b5b600061025285828601610218565b925050602061026385828601610218565b9150509250929050565b60805160a05160c0516127956102c66000396000818161035f015281816105fd01528181610623015281816109840152610b1d0152600081816103390152610f14015260008181610af7015261128001526127956000f3fe6080604052600436106100e15760003560e01c80639667434f1161007f578063da2271c311610059578063da2271c31461028f578063ebb7af92146102b8578063fe54c240146102e3578063ffa1ad741461030c576100e8565b80639667434f14610212578063a7b77acb1461023b578063cf3afa5114610264576100e8565b80633644e515116100bb5780633644e5151461016a5780635b2acb701461019557806373e09a78146101be578063891d6080146101e9576100e8565b80632067b7ca146100ed578063211f3440146101185780633503c73d14610141576100e8565b366100e857005b600080fd5b3480156100f957600080fd5b50610102610337565b60405161010f91906117dc565b60405180910390f35b34801561012457600080fd5b5061013f600480360381019061013a919061196e565b61035b565b005b34801561014d57600080fd5b5061016860048036038101906101639190611ac0565b6104d0565b005b34801561017657600080fd5b5061017f6105fb565b60405161018c9190611b45565b60405180910390f35b3480156101a157600080fd5b506101bc60048036038101906101b79190611b60565b61061f565b005b3480156101ca57600080fd5b506101d361084a565b6040516101e09190611b45565b60405180910390f35b3480156101f557600080fd5b50610210600480360381019061020b9190611c14565b61086e565b005b34801561021e57600080fd5b5061023960048036038101906102349190611c9f565b6108f7565b005b34801561024757600080fd5b50610262600480360381019061025d9190611d2b565b610980565b005b34801561027057600080fd5b50610279610af5565b6040516102869190611e28565b60405180910390f35b34801561029b57600080fd5b506102b660048036038101906102b19190611e43565b610b19565b005b3480156102c457600080fd5b506102cd610d80565b6040516102da9190611b45565b60405180910390f35b3480156102ef57600080fd5b5061030a60048036038101906103059190611ef8565b610da4565b005b34801561031857600080fd5b50610321610f0b565b60405161032e9190611f7e565b60405180910390f35b7f000000000000000000000000000000000000000000000000000000000000000081565b60017f00000000000000000000000000000000000000000000000000000000000000007fa47e6983ae363f2a4c612ca9d2c8acd221ad9a6dd1ae17020ccfa05f14074fcf8b600001358989896040516020016103bb959493929190611fb7565b604051602081830303815290604052805190602001206040516020016103e2929190612082565b604051602081830303815290604052805190602001208484846040516000815260200160405260405161041894939291906120b9565b6020604051602081039080840390855afa15801561043a573d6000803e3d6000fd5b5050506020604051035173ffffffffffffffffffffffffffffffffffffffff166104638a610f10565b73ffffffffffffffffffffffffffffffffffffffff16146104b0576040517f8fdad36100000000000000000000000000000000000000000000000000000000815260040160405180910390fd5b6104ba888861100d565b6104c5848787611133565b505050505050505050565b3373ffffffffffffffffffffffffffffffffffffffff166104f08561127c565b73ffffffffffffffffffffffffffffffffffffffff161461053d576040517f8fdad36100000000000000000000000000000000000000000000000000000000815260040160405180910390fd5b60008373ffffffffffffffffffffffffffffffffffffffff168560200135848460405161056b92919061213d565b60006040518083038185875af1925050503d80600081146105a8576040519150601f19603f3d011682016040523d82523d6000602084013e6105ad565b606091505b50509050806105f45760006040517f3f9a3b480000000000000000000000000000000000000000000000000000000081526004016105eb9190612191565b60405180910390fd5b5050505050565b7f000000000000000000000000000000000000000000000000000000000000000081565b60017f00000000000000000000000000000000000000000000000000000000000000007f19ac9140b08b00506c1962f90ff8781be79b2632dcbd9e86df54bcbd18cc62f9896000013589898960405161067992919061213d565b604051809103902060405160200161069494939291906121ac565b604051602081830303815290604052805190602001206040516020016106bb929190612082565b60405160208183030381529060405280519060200120848484604051600081526020016040526040516106f194939291906120b9565b6020604051602081039080840390855afa158015610713573d6000803e3d6000fd5b5050506020604051035173ffffffffffffffffffffffffffffffffffffffff1661073c8861127c565b73ffffffffffffffffffffffffffffffffffffffff1614610789576040517f8fdad36100000000000000000000000000000000000000000000000000000000815260040160405180910390fd5b60008673ffffffffffffffffffffffffffffffffffffffff16886020013587876040516107b792919061213d565b60006040518083038185875af1925050503d80600081146107f4576040519150601f19603f3d011682016040523d82523d6000602084013e6107f9565b606091505b50509050806108405760006040517f3f9a3b480000000000000000000000000000000000000000000000000000000081526004016108379190612191565b60405180910390fd5b5050505050505050565b7f19ac9140b08b00506c1962f90ff8781be79b2632dcbd9e86df54bcbd18cc62f981565b3373ffffffffffffffffffffffffffffffffffffffff1661088e8661127c565b73ffffffffffffffffffffffffffffffffffffffff16146108db576040517f8fdad36100000000000000000000000000000000000000000000000000000000815260040160405180910390fd5b6108e5848461100d565b6108f0338383611133565b5050505050565b3373ffffffffffffffffffffffffffffffffffffffff1661091786610f10565b73ffffffffffffffffffffffffffffffffffffffff1614610964576040517f8fdad36100000000000000000000000000000000000000000000000000000000815260040160405180910390fd5b61096e848461100d565b610979338383611133565b5050505050565b60017f00000000000000000000000000000000000000000000000000000000000000007fa47e6983ae363f2a4c612ca9d2c8acd221ad9a6dd1ae17020ccfa05f14074fcf8b600001358989896040516020016109e0959493929190611fb7565b60405160208183030381529060405280519060200120604051602001610a07929190612082565b6040516020818303038152906040528051906020012084848460405160008152602001604052604051610a3d94939291906120b9565b6020604051602081039080840390855afa158015610a5f573d6000803e3d6000fd5b5050506020604051035173ffffffffffffffffffffffffffffffffffffffff16610a888a61127c565b73ffffffffffffffffffffffffffffffffffffffff1614610ad5576040517f8fdad36100000000000000000000000000000000000000000000000000000000815260040160405180910390fd5b610adf888861100d565b610aea848787611133565b505050505050505050565b7f000000000000000000000000000000000000000000000000000000000000000081565b60017f00000000000000000000000000000000000000000000000000000000000000007f19ac9140b08b00506c1962f90ff8781be79b2632dcbd9e86df54bcbd18cc62f98960000135898989604051610b7392919061213d565b6040518091039020604051602001610b8e94939291906121ac565b60405160208183030381529060405280519060200120604051602001610bb5929190612082565b6040516020818303038152906040528051906020012084848460405160008152602001604052604051610beb94939291906120b9565b6020604051602081039080840390855afa158015610c0d573d6000803e3d6000fd5b5050506020604051035173ffffffffffffffffffffffffffffffffffffffff16610c3688610f10565b73ffffffffffffffffffffffffffffffffffffffff1614610c83576040517f8fdad36100000000000000000000000000000000000000000000000000000000815260040160405180910390fd5b610cc4868860200135896040016020810190610c9f91906121f1565b73ffffffffffffffffffffffffffffffffffffffff166113659092919063ffffffff16565b60008673ffffffffffffffffffffffffffffffffffffffff168686604051610ced92919061213d565b6000604051808303816000865af19150503d8060008114610d2a576040519150601f19603f3d011682016040523d82523d6000602084013e610d2f565b606091505b5050905080610d765760006040517f3f9a3b48000000000000000000000000000000000000000000000000000000008152600401610d6d9190612191565b60405180910390fd5b5050505050505050565b7fa47e6983ae363f2a4c612ca9d2c8acd221ad9a6dd1ae17020ccfa05f14074fcf81565b3373ffffffffffffffffffffffffffffffffffffffff16610dc485610f10565b73ffffffffffffffffffffffffffffffffffffffff1614610e11576040517f8fdad36100000000000000000000000000000000000000000000000000000000815260040160405180910390fd5b610e52838560200135866040016020810190610e2d91906121f1565b73ffffffffffffffffffffffffffffffffffffffff166113659092919063ffffffff16565b60008373ffffffffffffffffffffffffffffffffffffffff168383604051610e7b92919061213d565b6000604051808303816000865af19150503d8060008114610eb8576040519150601f19603f3d011682016040523d82523d6000602084013e610ebd565b606091505b5050905080610f045760006040517f3f9a3b48000000000000000000000000000000000000000000000000000000008152600401610efb9190612191565b60405180910390fd5b5050505050565b600281565b60007f000000000000000000000000000000000000000000000000000000000000000073ffffffffffffffffffffffffffffffffffffffff1663b2b78df883600001358460200135856040016020810190610f6b91906121f1565b866060016020810190610f7e91906121f1565b87608001358860a0016020810190610f96919061221e565b8960c001358a60e001356040518963ffffffff1660e01b8152600401610fc398979695949392919061224b565b6020604051808303816000875af1158015610fe2573d6000803e3d6000fd5b505050506040513d601f19601f8201168201806040525081019061100691906122de565b9050919050565b60008282905090503660005b8281101561112c578484828181106110345761103361230b565b5b90506020028101906110469190612349565b9150600082600001602081019061105d91906121f1565b73ffffffffffffffffffffffffffffffffffffffff1683602001358480604001906110889190612371565b60405161109692919061213d565b60006040518083038185875af1925050503d80600081146110d3576040519150601f19603f3d011682016040523d82523d6000602084013e6110d8565b606091505b505090508061111e57816040517f3f9a3b4800000000000000000000000000000000000000000000000000000000815260040161111591906123d4565b60405180910390fd5b508080600101915050611019565b5050505050565b60008073ffffffffffffffffffffffffffffffffffffffff168373ffffffffffffffffffffffffffffffffffffffff1603611170574790506111ed565b8273ffffffffffffffffffffffffffffffffffffffff166370a08231306040518263ffffffff1660e01b81526004016111a991906123ef565b602060405180830381865afa1580156111c6573d6000803e3d6000fd5b505050506040513d601f19601f820116820180604052508101906111ea919061241f565b90505b81811015611227576040517ff4d678b800000000000000000000000000000000000000000000000000000000815260040160405180910390fd5b600073ffffffffffffffffffffffffffffffffffffffff168373ffffffffffffffffffffffffffffffffffffffff160361126a576112658482611474565b611276565b611275838583611525565b5b50505050565b60007f000000000000000000000000000000000000000000000000000000000000000073ffffffffffffffffffffffffffffffffffffffff16633648a807836000013584602001358560400160208101906112d791906121f1565b86606001358760800160208101906112ef919061221e565b8860a001358960c001356040518863ffffffff1660e01b815260040161131b979695949392919061244c565b6020604051808303816000875af115801561133a573d6000803e3d6000fd5b505050506040513d601f19601f8201168201806040525081019061135e91906122de565b9050919050565b60008373ffffffffffffffffffffffffffffffffffffffff1663095ea7b384846040516024016113969291906124bb565b604051602081830303815290604052915060e01b6020820180517bffffffffffffffffffffffffffffffffffffffffffffffffffffffff838183161783525050505090506113e4848261165b565b61146e57611463848573ffffffffffffffffffffffffffffffffffffffff1663095ea7b386600060405160240161141c9291906124e4565b604051602081830303815290604052915060e01b6020820180517bffffffffffffffffffffffffffffffffffffffffffffffffffffffff83818316178352505050506116bb565b61146d84826116bb565b5b50505050565b60008273ffffffffffffffffffffffffffffffffffffffff168260405161149a90612533565b60006040518083038185875af1925050503d80600081146114d7576040519150601f19603f3d011682016040523d82523d6000602084013e6114dc565b606091505b5050905080611520576040517f08c379a0000000000000000000000000000000000000000000000000000000008152600401611517906125cb565b60405180910390fd5b505050565b6000808473ffffffffffffffffffffffffffffffffffffffff1663a9059cbb85856040516024016115579291906124bb565b6040516020818303038152906040529060e01b6020820180517bffffffffffffffffffffffffffffffffffffffffffffffffffffffff83818316178352505050506040516115a59190612651565b6000604051808303816000865af19150503d80600081146115e2576040519150601f19603f3d011682016040523d82523d6000602084013e6115e7565b606091505b5091509150818015611615575060008151148061161457508080602001905181019061161391906126a0565b5b5b611654576040517f08c379a000000000000000000000000000000000000000000000000000000000815260040161164b9061273f565b60405180910390fd5b5050505050565b6000806000806020600086516020880160008a5af192503d915060005190508280156116b057506000821461169357600181146116af565b60008673ffffffffffffffffffffffffffffffffffffffff163b115b5b935050505092915050565b600080602060008451602086016000885af1806116de576040513d6000823e3d81fd5b3d9250600051915050600082146116f9576001811415611715565b60008473ffffffffffffffffffffffffffffffffffffffff163b145b1561175757836040517f5274afe700000000000000000000000000000000000000000000000000000000815260040161174e91906123ef565b60405180910390fd5b50505050565b600073ffffffffffffffffffffffffffffffffffffffff82169050919050565b6000819050919050565b60006117a261179d6117988461175d565b61177d565b61175d565b9050919050565b60006117b482611787565b9050919050565b60006117c6826117a9565b9050919050565b6117d6816117bb565b82525050565b60006020820190506117f160008301846117cd565b92915050565b600080fd5b600080fd5b600080fd5b6000610100828403121561181d5761181c611801565b5b81905092915050565b600080fd5b600080fd5b600080fd5b60008083601f84011261184b5761184a611826565b5b8235905067ffffffffffffffff8111156118685761186761182b565b5b60208301915083602082028301111561188457611883611830565b5b9250929050565b60006118968261175d565b9050919050565b6118a68161188b565b81146118b157600080fd5b50565b6000813590506118c38161189d565b92915050565b6000819050919050565b6118dc816118c9565b81146118e757600080fd5b50565b6000813590506118f9816118d3565b92915050565b600060ff82169050919050565b611915816118ff565b811461192057600080fd5b50565b6000813590506119328161190c565b92915050565b6000819050919050565b61194b81611938565b811461195657600080fd5b50565b60008135905061196881611942565b92915050565b60008060008060008060008060006101e08a8c031215611991576119906117f7565b5b600061199f8c828d01611806565b9950506101008a013567ffffffffffffffff8111156119c1576119c06117fc565b5b6119cd8c828d01611835565b98509850506101206119e18c828d016118b4565b9650506101406119f38c828d016118ea565b955050610160611a058c828d016118b4565b945050610180611a178c828d01611923565b9350506101a0611a298c828d01611959565b9250506101c0611a3b8c828d01611959565b9150509295985092959850929598565b600060e08284031215611a6157611a60611801565b5b81905092915050565b60008083601f840112611a8057611a7f611826565b5b8235905067ffffffffffffffff811115611a9d57611a9c61182b565b5b602083019150836001820283011115611ab957611ab8611830565b5b9250929050565b6000806000806101208587031215611adb57611ada6117f7565b5b6000611ae987828801611a4b565b94505060e0611afa878288016118b4565b93505061010085013567ffffffffffffffff811115611b1c57611b1b6117fc565b5b611b2887828801611a6a565b925092505092959194509250565b611b3f81611938565b82525050565b6000602082019050611b5a6000830184611b36565b92915050565b6000806000806000806000610180888a031215611b8057611b7f6117f7565b5b6000611b8e8a828b01611a4b565b97505060e0611b9f8a828b016118b4565b96505061010088013567ffffffffffffffff811115611bc157611bc06117fc565b5b611bcd8a828b01611a6a565b9550955050610120611be18a828b01611923565b935050610140611bf38a828b01611959565b925050610160611c058a828b01611959565b91505092959891949750929550565b60008060008060006101408688031215611c3157611c306117f7565b5b6000611c3f88828901611a4b565b95505060e086013567ffffffffffffffff811115611c6057611c5f6117fc565b5b611c6c88828901611835565b9450945050610100611c80888289016118b4565b925050610120611c92888289016118ea565b9150509295509295909350565b60008060008060006101608688031215611cbc57611cbb6117f7565b5b6000611cca88828901611806565b95505061010086013567ffffffffffffffff811115611cec57611ceb6117fc565b5b611cf888828901611835565b9450945050610120611d0c888289016118b4565b925050610140611d1e888289016118ea565b9150509295509295909350565b60008060008060008060008060006101c08a8c031215611d4e57611d4d6117f7565b5b6000611d5c8c828d01611a4b565b99505060e08a013567ffffffffffffffff811115611d7d57611d7c6117fc565b5b611d898c828d01611835565b9850985050610100611d9d8c828d016118b4565b965050610120611daf8c828d016118ea565b955050610140611dc18c828d016118b4565b945050610160611dd38c828d01611923565b935050610180611de58c828d01611959565b9250506101a0611df78c828d01611959565b9150509295985092959850929598565b6000611e12826117a9565b9050919050565b611e2281611e07565b82525050565b6000602082019050611e3d6000830184611e19565b92915050565b60008060008060008060006101a0888a031215611e6357611e626117f7565b5b6000611e718a828b01611806565b975050610100611e838a828b016118b4565b96505061012088013567ffffffffffffffff811115611ea557611ea46117fc565b5b611eb18a828b01611a6a565b9550955050610140611ec58a828b01611923565b935050610160611ed78a828b01611959565b925050610180611ee98a828b01611959565b91505092959891949750929550565b6000806000806101408587031215611f1357611f126117f7565b5b6000611f2187828801611806565b945050610100611f33878288016118b4565b93505061012085013567ffffffffffffffff811115611f5557611f546117fc565b5b611f6187828801611a6a565b925092505092959194509250565b611f78816118ff565b82525050565b6000602082019050611f936000830184611f6f565b92915050565b611fa28161188b565b82525050565b611fb1816118c9565b82525050565b600060a082019050611fcc6000830188611b36565b611fd96020830187611b36565b611fe66040830186611f99565b611ff36060830185611fa8565b6120006080830184611f99565b9695505050505050565b600081905092915050565b7f1901000000000000000000000000000000000000000000000000000000000000600082015250565b600061204b60028361200a565b915061205682612015565b600282019050919050565b6000819050919050565b61207c61207782611938565b612061565b82525050565b600061208d8261203e565b9150612099828561206b565b6020820191506120a9828461206b565b6020820191508190509392505050565b60006080820190506120ce6000830187611b36565b6120db6020830186611f6f565b6120e86040830185611b36565b6120f56060830184611b36565b95945050505050565b600081905092915050565b82818337600083830152505050565b600061212483856120fe565b9350612131838584612109565b82840190509392505050565b600061214a828486612118565b91508190509392505050565b6000819050919050565b600061217b61217661217184612156565b61177d565b6118c9565b9050919050565b61218b81612160565b82525050565b60006020820190506121a66000830184612182565b92915050565b60006080820190506121c16000830187611b36565b6121ce6020830186611b36565b6121db6040830185611f99565b6121e86060830184611b36565b95945050505050565b600060208284031215612207576122066117f7565b5b6000612215848285016118b4565b91505092915050565b600060208284031215612234576122336117f7565b5b600061224284828501611923565b91505092915050565b600061010082019050612261600083018b611b36565b61226e602083018a611fa8565b61227b6040830189611f99565b6122886060830188611f99565b6122956080830187611fa8565b6122a260a0830186611f6f565b6122af60c0830185611b36565b6122bc60e0830184611b36565b9998505050505050505050565b6000815190506122d88161189d565b92915050565b6000602082840312156122f4576122f36117f7565b5b6000612302848285016122c9565b91505092915050565b7f4e487b7100000000000000000000000000000000000000000000000000000000600052603260045260246000fd5b600080fd5b600080fd5b600080fd5b6000823560016060038336030381126123655761236461233a565b5b80830191505092915050565b6000808335600160200384360303811261238e5761238d61233a565b5b80840192508235915067ffffffffffffffff8211156123b0576123af61233f565b5b6020830192506001820236038313156123cc576123cb612344565b5b509250929050565b60006020820190506123e96000830184611fa8565b92915050565b60006020820190506124046000830184611f99565b92915050565b600081519050612419816118d3565b92915050565b600060208284031215612435576124346117f7565b5b60006124438482850161240a565b91505092915050565b600060e082019050612461600083018a611b36565b61246e6020830189611fa8565b61247b6040830188611f99565b6124886060830187611fa8565b6124956080830186611f6f565b6124a260a0830185611b36565b6124af60c0830184611b36565b98975050505050505050565b60006040820190506124d06000830185611f99565b6124dd6020830184611fa8565b9392505050565b60006040820190506124f96000830185611f99565b6125066020830184612182565b9392505050565b50565b600061251d6000836120fe565b91506125288261250d565b600082019050919050565b600061253e82612510565b9150819050919050565b600082825260208201905092915050565b7f5472616e7366657248656c7065723a20636f756c64206e6f74207472616e736660008201527f6572204574686572000000000000000000000000000000000000000000000000602082015250565b60006125b5602883612548565b91506125c082612559565b604082019050919050565b600060208201905081810360008301526125e4816125a8565b9050919050565b600081519050919050565b60005b838110156126145780820151818401526020810190506125f9565b60008484015250505050565b600061262b826125eb565b61263581856120fe565b93506126458185602086016125f6565b80840191505092915050565b600061265d8284612620565b915081905092915050565b60008115159050919050565b61267d81612668565b811461268857600080fd5b50565b60008151905061269a81612674565b92915050565b6000602082840312156126b6576126b56117f7565b5b60006126c48482850161268b565b91505092915050565b7f5472616e7366657248656c7065723a20636f756c64206e6f74207472616e736660008201527f657220455243323020746f6b656e730000000000000000000000000000000000602082015250565b6000612729602f83612548565b9150612734826126cd565b604082019050919050565b600060208201905081810360008301526127588161271c565b905091905056fea264697066735822122042325501f135dc4255028de6c1da9914644dc57e9248f32506e8b6b4ee5b102164736f6c63430008210033","linkReferences":{}},"methodIdentifiers":{"DOMAIN_SEPARATOR()":"3644e515","ERC20_SWAP_CONTRACT()":"2067b7ca","SWAP_CONTRACT()":"cf3afa51","TYPEHASH_CLAIM()":"ebb7af92","TYPEHASH_CLAIM_CALL()":"73e09a78","VERSION()":"ffa1ad74","claimCall((bytes32,uint256,address,uint256,uint8,bytes32,bytes32),address,bytes)":"3503c73d","claimCall((bytes32,uint256,address,uint256,uint8,bytes32,bytes32),address,bytes,uint8,bytes32,bytes32)":"5b2acb70","claimERC20Call((bytes32,uint256,address,address,uint256,uint8,bytes32,bytes32),address,bytes)":"fe54c240","claimERC20Call((bytes32,uint256,address,address,uint256,uint8,bytes32,bytes32),address,bytes,uint8,bytes32,bytes32)":"da2271c3","claimERC20Execute((bytes32,uint256,address,address,uint256,uint8,bytes32,bytes32),(address,uint256,bytes)[],address,uint256)":"9667434f","claimERC20Execute((bytes32,uint256,address,address,uint256,uint8,bytes32,bytes32),(address,uint256,bytes)[],address,uint256,address,uint8,bytes32,bytes32)":"211f3440","claimExecute((bytes32,uint256,address,uint256,uint8,bytes32,bytes32),(address,uint256,bytes)[],address,uint256)":"891d6080","claimExecute((bytes32,uint256,address,uint256,uint8,bytes32,bytes32),(address,uint256,bytes)[],address,uint256,address,uint8,bytes32,bytes32)":"a7b77acb"},"id":5}