{"abi":[{"type":"constructor","inputs":[{"name":"_DOMAIN_SEPARATOR","type":"bytes32","internalType":"bytes32"},{"name":"_TYPEHASH","type":"bytes32","internalType":"bytes32"}],"stateMutability":"nonpayable"},{"type":"function","name":"DOMAIN_SEPARATOR","inputs":[],"outputs":[{"name":"","type":"bytes32","internalType":"bytes32"}],"stateMutability":"view"},{"type":"function","name":"TYPEHASH","inputs":[],"outputs":[{"name":"","type":"bytes32","internalType":"bytes32"}],"stateMutability":"view"},{"type":"function","name":"getTypedDataHash","inputs":[{"name":"message","type":"bytes32","internalType":"bytes32"}],"outputs":[{"name":"","type":"bytes32","internalType":"bytes32"}],"stateMutability":"view"},{"type":"function","name":"hashERC20SwapRefund","inputs":[{"name":"preimageHash","type":"bytes32","internalType":"bytes32"},{"name":"amount","type":"uint256","internalType":"uint256"},{"name":"tokenAddress","type":"address","internalType":"address"},{"name":"claimAddress","type":"address","internalType":"address"},{"name":"timelock","type":"uint256","internalType":"uint256"}],"outputs":[{"name":"","type":"bytes32","internalType":"bytes32"}],"stateMutability":"view"},{"type":"function","name":"hashEtherSwapRefund","inputs":[{"name":"preimageHash","type":"bytes32","internalType":"bytes32"},{"name":"amount","type":"uint256","internalType":"uint256"},{"name":"claimAddress","type":"address","internalType":"address"},{"name":"timelock","type":"uint256","internalType":"uint256"}],"outputs":[{"name":"","type":"bytes32","internalType":"bytes32"}],"stateMutability":"view"}],"bytecode":{"object":"0x60c060405234801561001057600080fd5b506040516103c23803806103c283398101604081905261002f9161003d565b60809190915260a052610061565b6000806040838503121561005057600080fd5b505080516020909101519092909150565b60805160a0516103296100996000396000818160700152818161012401526101c601526000818160fd015261016401526103296000f3fe608060405234801561001057600080fd5b50600436106100575760003560e01c8063289941a51461005c5780633644e515146100f85780633b639e6f1461011f578063a981b0c514610146578063ff240fe2146101b2575b600080fd5b6100e661006a36600461024f565b604080517f00000000000000000000000000000000000000000000000000000000000000006020820152908101869052606081018590526001600160a01b038085166080830152831660a082015260c0810182905260009060e00160405160208183030381529060405280519060200120905095945050505050565b60405190815260200160405180910390f35b6100e67f000000000000000000000000000000000000000000000000000000000000000081565b6100e67f000000000000000000000000000000000000000000000000000000000000000081565b6100e661015436600461029d565b60405161190160f01b60208201527f0000000000000000000000000000000000000000000000000000000000000000602282015260428101829052600090606201604051602081830303815290604052805190602001209050919050565b6100e66101c03660046102b6565b604080517f00000000000000000000000000000000000000000000000000000000000000006020820152908101859052606081018490526001600160a01b038316608082015260a0810182905260009060c001604051602081830303815290604052805190602001209050949350505050565b80356001600160a01b038116811461024a57600080fd5b919050565b600080600080600060a0868803121561026757600080fd5b853594506020860135935061027e60408701610233565b925061028c60608701610233565b949793965091946080013592915050565b6000602082840312156102af57600080fd5b5035919050565b600080600080608085870312156102cc57600080fd5b84359350602085013592506102e360408601610233565b939692955092936060013592505056fea26469706673582212208c9fb730198ee2c026db45c7f6bc45470702238ee2e347d5f3d04b4fbdae6f4664736f6c634300081c0033","linkReferences":{}},"methodIdentifiers":{"DOMAIN_SEPARATOR()":"3644e515","TYPEHASH()":"3b639e6f","getTypedDataHash(bytes32)":"a981b0c5","hashERC20SwapRefund(bytes32,uint256,address,address,uint256)":"289941a5","hashEtherSwapRefund(bytes32,uint256,address,uint256)":"ff240fe2"},"id":53}