{"abi":[{"type":"constructor","inputs":[{"name":"configFilePath","type":"string","internalType":"string"},{"name":"writeToFile","type":"bool","internalType":"bool"}],"stateMutability":"nonpayable"},{"type":"function","name":"get","inputs":[{"name":"key","type":"string","internalType":"string"}],"outputs":[{"name":"","type":"tuple","internalType":"struct Variable","components":[{"name":"ty","type":"tuple","internalType":"struct Type","components":[{"name":"kind","type":"uint8","internalType":"enum TypeKind"},{"name":"isArray","type":"bool","internalType":"bool"}]},{"name":"data","type":"bytes","internalType":"bytes"}]}],"stateMutability":"view"},{"type":"function","name":"get","inputs":[{"name":"chain_id","type":"uint256","internalType":"uint256"},{"name":"key","type":"string","internalType":"string"}],"outputs":[{"name":"","type":"tuple","internalType":"struct Variable","components":[{"name":"ty","type":"tuple","internalType":"struct Type","components":[{"name":"kind","type":"uint8","internalType":"enum TypeKind"},{"name":"isArray","type":"bool","internalType":"bool"}]},{"name":"data","type":"bytes","internalType":"bytes"}]}],"stateMutability":"view"},{"type":"function","name":"getChainIds","inputs":[],"outputs":[{"name":"","type":"uint256[]","internalType":"uint256[]"}],"stateMutability":"view"},{"type":"function","name":"getRpcUrl","inputs":[],"outputs":[{"name":"","type":"string","internalType":"string"}],"stateMutability":"view"},{"type":"function","name":"getRpcUrl","inputs":[{"name":"chainId","type":"uint256","internalType":"uint256"}],"outputs":[{"name":"","type":"string","internalType":"string"}],"stateMutability":"view"},{"type":"function","name":"resolveChainId","inputs":[{"name":"aliasOrId","type":"string","internalType":"string"}],"outputs":[{"name":"","type":"uint256","internalType":"uint256"}],"stateMutability":"view"},{"type":"function","name":"set","inputs":[{"name":"chainId","type":"uint256","internalType":"uint256"},{"name":"key","type":"string","internalType":"string"},{"name":"value","type":"int256","internalType":"int256"}],"outputs":[],"stateMutability":"nonpayable"},{"type":"function","name":"set","inputs":[{"name":"chainId","type":"uint256","internalType":"uint256"},{"name":"key","type":"string","internalType":"string"},{"name":"value","type":"bytes32[]","internalType":"bytes32[]"}],"outputs":[],"stateMutability":"nonpayable"},{"type":"function","name":"set","inputs":[{"name":"chainId","type":"uint256","internalType":"uint256"},{"name":"key","type":"string","internalType":"string"},{"name":"value","type":"uint256","internalType":"uint256"}],"outputs":[],"stateMutability":"nonpayable"},{"type":"function","name":"set","inputs":[{"name":"key","type":"string","internalType":"string"},{"name":"value","type":"bytes","internalType":"bytes"}],"outputs":[],"stateMutability":"nonpayable"},{"type":"function","name":"set","inputs":[{"name":"key","type":"string","internalType":"string"},{"name":"value","type":"bytes32","internalType":"bytes32"}],"outputs":[],"stateMutability":"nonpayable"},{"type":"function","name":"set","inputs":[{"name":"key","type":"string","internalType":"string"},{"name":"value","type":"int256","internalType":"int256"}],"outputs":[],"stateMutability":"nonpayable"},{"type":"function","name":"set","inputs":[{"name":"chainId","type":"uint256","internalType":"uint256"},{"name":"key","type":"string","internalType":"string"},{"name":"value","type":"bytes","internalType":"bytes"}],"outputs":[],"stateMutability":"nonpayable"},{"type":"function","name":"set","inputs":[{"name":"key","type":"string","internalType":"string"},{"name":"value","type":"string[]","internalType":"string[]"}],"outputs":[],"stateMutability":"nonpayable"},{"type":"function","name":"set","inputs":[{"name":"chainId","type":"uint256","internalType":"uint256"},{"name":"key","type":"string","internalType":"string"},{"name":"value","type":"address","internalType":"address"}],"outputs":[],"stateMutability":"nonpayable"},{"type":"function","name":"set","inputs":[{"name":"chainId","type":"uint256","internalType":"uint256"},{"name":"key","type":"string","internalType":"string"},{"name":"value","type":"address[]","internalType":"address[]"}],"outputs":[],"stateMutability":"nonpayable"},{"type":"function","name":"set","inputs":[{"name":"chainId","type":"uint256","internalType":"uint256"},{"name":"key","type":"string","internalType":"string"},{"name":"value","type":"string","internalType":"string"}],"outputs":[],"stateMutability":"nonpayable"},{"type":"function","name":"set","inputs":[{"name":"key","type":"string","internalType":"string"},{"name":"value","type":"uint256[]","internalType":"uint256[]"}],"outputs":[],"stateMutability":"nonpayable"},{"type":"function","name":"set","inputs":[{"name":"key","type":"string","internalType":"string"},{"name":"value","type":"address[]","internalType":"address[]"}],"outputs":[],"stateMutability":"nonpayable"},{"type":"function","name":"set","inputs":[{"name":"key","type":"string","internalType":"string"},{"name":"value","type":"uint256","internalType":"uint256"}],"outputs":[],"stateMutability":"nonpayable"},{"type":"function","name":"set","inputs":[{"name":"chainId","type":"uint256","internalType":"uint256"},{"name":"key","type":"string","internalType":"string"},{"name":"value","type":"int256[]","internalType":"int256[]"}],"outputs":[],"stateMutability":"nonpayable"},{"type":"function","name":"set","inputs":[{"name":"chainId","type":"uint256","internalType":"uint256"},{"name":"key","type":"string","internalType":"string"},{"name":"value","type":"bytes[]","internalType":"bytes[]"}],"outputs":[],"stateMutability":"nonpayable"},{"type":"function","name":"set","inputs":[{"name":"key","type":"string","internalType":"string"},{"name":"value","type":"address","internalType":"address"}],"outputs":[],"stateMutability":"nonpayable"},{"type":"function","name":"set","inputs":[{"name":"chainId","type":"uint256","internalType":"uint256"},{"name":"key","type":"string","internalType":"string"},{"name":"value","type":"bool","internalType":"bool"}],"outputs":[],"stateMutability":"nonpayable"},{"type":"function","name":"set","inputs":[{"name":"key","type":"string","internalType":"string"},{"name":"value","type":"bool","internalType":"bool"}],"outputs":[],"stateMutability":"nonpayable"},{"type":"function","name":"set","inputs":[{"name":"key","type":"string","internalType":"string"},{"name":"value","type":"bytes[]","internalType":"bytes[]"}],"outputs":[],"stateMutability":"nonpayable"},{"type":"function","name":"set","inputs":[{"name":"chainId","type":"uint256","internalType":"uint256"},{"name":"key","type":"string","internalType":"string"},{"name":"value","type":"bytes32","internalType":"bytes32"}],"outputs":[],"stateMutability":"nonpayable"},{"type":"function","name":"set","inputs":[{"name":"chainId","type":"uint256","internalType":"uint256"},{"name":"key","type":"string","internalType":"string"},{"name":"value","type":"string[]","internalType":"string[]"}],"outputs":[],"stateMutability":"nonpayable"},{"type":"function","name":"set","inputs":[{"name":"chainId","type":"uint256","internalType":"uint256"},{"name":"key","type":"string","internalType":"string"},{"name":"value","type":"uint256[]","internalType":"uint256[]"}],"outputs":[],"stateMutability":"nonpayable"},{"type":"function","name":"set","inputs":[{"name":"key","type":"string","internalType":"string"},{"name":"value","type":"int256[]","internalType":"int256[]"}],"outputs":[],"stateMutability":"nonpayable"},{"type":"function","name":"set","inputs":[{"name":"chainId","type":"uint256","internalType":"uint256"},{"name":"key","type":"string","internalType":"string"},{"name":"value","type":"bool[]","internalType":"bool[]"}],"outputs":[],"stateMutability":"nonpayable"},{"type":"function","name":"set","inputs":[{"name":"key","type":"string","internalType":"string"},{"name":"value","type":"bytes32[]","internalType":"bytes32[]"}],"outputs":[],"stateMutability":"nonpayable"},{"type":"function","name":"set","inputs":[{"name":"key","type":"string","internalType":"string"},{"name":"value","type":"string","internalType":"string"}],"outputs":[],"stateMutability":"nonpayable"},{"type":"function","name":"set","inputs":[{"name":"key","type":"string","internalType":"string"},{"name":"value","type":"bool[]","internalType":"bool[]"}],"outputs":[],"stateMutability":"nonpayable"},{"type":"function","name":"writeUpdatesBackToFile","inputs":[{"name":"enabled","type":"bool","internalType":"bool"}],"outputs":[],"stateMutability":"nonpayable"},{"type":"error","name":"AlreadyInitialized","inputs":[{"name":"key","type":"string","internalType":"string"}]},{"type":"error","name":"ChainNotInitialized","inputs":[{"name":"chainId","type":"uint256","internalType":"uint256"}]},{"type":"error","name":"InvalidChainKey","inputs":[{"name":"aliasOrId","type":"string","internalType":"string"}]},{"type":"error","name":"TypeMismatch","inputs":[{"name":"expected","type":"string","internalType":"string"},{"name":"actual","type":"string","internalType":"string"}]},{"type":"error","name":"UnableToParseVariable","inputs":[{"name":"key","type":"string","internalType":"string"}]},{"type":"error","name":"WriteToFileInForbiddenCtxt","inputs":[]}],"bytecode":{"object":"0x608060405234801561001057600080fd5b5060405161ad3338038061ad338339818101604052810190610032919061296f565b8080156100da57507f885cb69240a935d632d79c317109709ecfa91a80626ff3989d68f67f5b1dd12d60001c73ffffffffffffffffffffffffffffffffffffffff166364af255d60046040518263ffffffff1660e01b81526004016100979190612a42565b602060405180830381865afa1580156100b4573d6000803e3d6000fd5b505050506040513d601f19601f820116820180604052508101906100d89190612a5d565b155b15610111576040517f2ebcd21800000000000000000000000000000000000000000000000000000000815260040160405180910390fd5b81600090816101209190612cab565b5080600560006101000a81548160ff02191690831515021790555060007f885cb69240a935d632d79c317109709ecfa91a80626ff3989d68f67f5b1dd12d60001c73ffffffffffffffffffffffffffffffffffffffff1663ddd2128d7f885cb69240a935d632d79c317109709ecfa91a80626ff3989d68f67f5b1dd12d60001c73ffffffffffffffffffffffffffffffffffffffff166360f9bb11866040518263ffffffff1660e01b81526004016101d89190612dc7565b600060405180830381865afa1580156101f5573d6000803e3d6000fd5b505050506040513d6000823e3d601f19601f8201168201806040525081019061021e9190612de9565b6040518263ffffffff1660e01b815260040161023a9190612dc7565b6000604051808303816000875af1158015610259573d6000803e3d6000fd5b505050506040513d6000823e3d601f19601f820116820180604052508101906102829190612de9565b905060007f885cb69240a935d632d79c317109709ecfa91a80626ff3989d68f67f5b1dd12d60001c73ffffffffffffffffffffffffffffffffffffffff1663812a44b2836040518263ffffffff1660e01b81526004016102e29190612e7e565b600060405180830381865afa1580156102ff573d6000803e3d6000fd5b505050506040513d6000823e3d601f19601f820116820180604052508101906103289190612f99565b905060005b81518110156109b857600082828151811061034b5761034a612fe2565b5b6020026020010151905060007f885cb69240a935d632d79c317109709ecfa91a80626ff3989d68f67f5b1dd12d60001c73ffffffffffffffffffffffffffffffffffffffff1663812a44b286846040516020016103a89190613073565b6040516020818303038152906040526040518363ffffffff1660e01b81526004016103d4929190613099565b600060405180830381865afa1580156103f1573d6000803e3d6000fd5b505050506040513d6000823e3d601f19601f8201168201806040525081019061041a9190612f99565b510361042657506109ab565b6000610437826109c260201b60201c565b905060018290806001815401808255809150506001900390600052602060002001600090919091909150908161046d9190612cab565b507f885cb69240a935d632d79c317109709ecfa91a80626ff3989d68f67f5b1dd12d60001c73ffffffffffffffffffffffffffffffffffffffff16638bb8dd4386846040516020016104bf91906130f6565b6040516020818303038152906040526040518363ffffffff1660e01b81526004016104eb929190613099565b600060405180830381865afa92505050801561052a57506040513d6000823e3d601f19601f820116820180604052508101906105279190612de9565b60015b610698577f885cb69240a935d632d79c317109709ecfa91a80626ff3989d68f67f5b1dd12d60001c73ffffffffffffffffffffffffffffffffffffffff1663ddd2128d7f885cb69240a935d632d79c317109709ecfa91a80626ff3989d68f67f5b1dd12d60001c73ffffffffffffffffffffffffffffffffffffffff1663975a6ce9856040518263ffffffff1660e01b81526004016105c99190612dc7565b600060405180830381865afa1580156105e6573d6000803e3d6000fd5b505050506040513d6000823e3d601f19601f8201168201806040525081019061060f9190612de9565b6040518263ffffffff1660e01b815260040161062b9190612dc7565b6000604051808303816000875af115801561064a573d6000803e3d6000fd5b505050506040513d6000823e3d601f19601f820116820180604052508101906106739190612de9565b6002600083815260200190815260200160002090816106929190612cab565b5061075e565b7f885cb69240a935d632d79c317109709ecfa91a80626ff3989d68f67f5b1dd12d60001c73ffffffffffffffffffffffffffffffffffffffff1663ddd2128d826040518263ffffffff1660e01b81526004016106f49190612dc7565b6000604051808303816000875af1158015610713573d6000803e3d6000fd5b505050506040513d6000823e3d601f19601f8201168201806040525081019061073c9190612de9565b60026000848152602001908152602001600020908161075b9190612cab565b50505b6000600190505b600760ff168160ff16116109a75760008160ff16600781111561078b5761078a6129cb565b5b90506000846107b18360078111156107a6576107a56129cb565b5b610b5160201b60201c565b6040516020016107c2929190613151565b60405160208183030381529060405290507f885cb69240a935d632d79c317109709ecfa91a80626ff3989d68f67f5b1dd12d60001c73ffffffffffffffffffffffffffffffffffffffff1663812a44b289836040518363ffffffff1660e01b8152600401610831929190613099565b600060405180830381865afa92505050801561087057506040513d6000823e3d601f19601f8201168201806040525081019061086d9190612f99565b60015b156109925760005b815181101561098f57600082828151811061089657610895612fe2565b5b60200260200101519050600060078111156108b4576108b36129cb565b5b60046000898152602001908152602001600020826040516108d59190613193565b908152602001604051809103902060000160009054906101000a900460ff166007811115610906576109056129cb565b5b036109445761093f8b85836040516020016109229291906131aa565b604051602081830303815290604052898489610e6f60201b60201c565b610981565b806040517f7140fee00000000000000000000000000000000000000000000000000000000081526004016109789190612dc7565b60405180910390fd5b508080600101915050610878565b50505b5050808061099f90613219565b915050610765565b5050505b808060010191505061032d565b505050505061458d565b60007f885cb69240a935d632d79c317109709ecfa91a80626ff3989d68f67f5b1dd12d60001c73ffffffffffffffffffffffffffffffffffffffff1663fa91454d836040518263ffffffff1660e01b8152600401610a209190612dc7565b602060405180830381865afa925050508015610a5a57506040513d601f19601f82011682018060405250810190610a57919061326e565b60015b610b47577f885cb69240a935d632d79c317109709ecfa91a80626ff3989d68f67f5b1dd12d60001c73ffffffffffffffffffffffffffffffffffffffff16634cc1c2bb836040518263ffffffff1660e01b8152600401610aba9190612dc7565b600060405180830381865afa925050508015610af957506040513d6000823e3d601f19601f82011682018060405250810190610af69190613371565b60015b610b3a57816040517f97aa94df000000000000000000000000000000000000000000000000000000008152600401610b319190612dc7565b60405180910390fd5b8060200151915050610b4c565b809150505b919050565b606060016007811115610b6757610b666129cb565b5b826007811115610b7a57610b796129cb565b5b03610bbc576040518060400160405280600481526020017f626f6f6c000000000000000000000000000000000000000000000000000000008152509050610e6a565b60026007811115610bd057610bcf6129cb565b5b826007811115610be357610be26129cb565b5b03610c25576040518060400160405280600781526020017f61646472657373000000000000000000000000000000000000000000000000008152509050610e6a565b60036007811115610c3957610c386129cb565b5b826007811115610c4c57610c4b6129cb565b5b03610c8e576040518060400160405280600781526020017f62797465733332000000000000000000000000000000000000000000000000008152509050610e6a565b60046007811115610ca257610ca16129cb565b5b826007811115610cb557610cb46129cb565b5b03610cf7576040518060400160405280600481526020017f75696e74000000000000000000000000000000000000000000000000000000008152509050610e6a565b60056007811115610d0b57610d0a6129cb565b5b826007811115610d1e57610d1d6129cb565b5b03610d60576040518060400160405280600381526020017f696e7400000000000000000000000000000000000000000000000000000000008152509050610e6a565b60066007811115610d7457610d736129cb565b5b826007811115610d8757610d866129cb565b5b03610dc9576040518060400160405280600681526020017f737472696e6700000000000000000000000000000000000000000000000000008152509050610e6a565b600780811115610ddc57610ddb6129cb565b5b826007811115610def57610dee6129cb565b5b03610e31576040518060400160405280600581526020017f62797465730000000000000000000000000000000000000000000000000000008152509050610e6a565b6040518060400160405280600481526020017f6e6f6e650000000000000000000000000000000000000000000000000000000081525090505b919050565b600060016007811115610e8557610e846129cb565b5b826007811115610e9857610e976129cb565b5b03611203577f885cb69240a935d632d79c317109709ecfa91a80626ff3989d68f67f5b1dd12d60001c73ffffffffffffffffffffffffffffffffffffffff1663d30dced687876040518363ffffffff1660e01b8152600401610efb929190613099565b602060405180830381865afa925050508015610f3557506040513d601f19601f82011682018060405250810190610f329190612a5d565b60015b6110ef577f885cb69240a935d632d79c317109709ecfa91a80626ff3989d68f67f5b1dd12d60001c73ffffffffffffffffffffffffffffffffffffffff1663127cfe9a87876040518363ffffffff1660e01b8152600401610f97929190613099565b600060405180830381865afa925050508015610fd657506040513d6000823e3d601f19601f82011682018060405250810190610fd3919061347d565b60015b156110ea5780604051602001610fec9190613584565b604051602081830303815290604052600360008781526020019081526020016000208560405161101c9190613193565b90815260200160405180910390209081611036919061360c565b50604051806040016040528060016007811115611056576110556129cb565b5b81526020016001151581525060046000878152602001908152602001600020856040516110839190613193565b908152602001604051809103902060008201518160000160006101000a81548160ff021916908360078111156110bc576110bb6129cb565b5b021790555060208201518160000160016101000a81548160ff02191690831515021790555090505060019150505b6111fe565b8060405160200161110091906136ed565b60405160208183030381529060405260036000878152602001908152602001600020856040516111309190613193565b9081526020016040518091039020908161114a919061360c565b5060405180604001604052806001600781111561116a576111696129cb565b5b81526020016000151581525060046000878152602001908152602001600020856040516111979190613193565b908152602001604051809103902060008201518160000160006101000a81548160ff021916908360078111156111d0576111cf6129cb565b5b021790555060208201518160000160016101000a81548160ff02191690831515021790555090505060019150505b612778565b60026007811115611217576112166129cb565b5b82600781111561122a576112296129cb565b5b03611595577f885cb69240a935d632d79c317109709ecfa91a80626ff3989d68f67f5b1dd12d60001c73ffffffffffffffffffffffffffffffffffffffff166365e7c84487876040518363ffffffff1660e01b815260040161128d929190613099565b602060405180830381865afa9250505080156112c757506040513d601f19601f820116820180604052508101906112c49190613766565b60015b611481577f885cb69240a935d632d79c317109709ecfa91a80626ff3989d68f67f5b1dd12d60001c73ffffffffffffffffffffffffffffffffffffffff166365c428e787876040518363ffffffff1660e01b8152600401611329929190613099565b600060405180830381865afa92505050801561136857506040513d6000823e3d601f19601f820116820180604052508101906113659190613856565b60015b1561147c578060405160200161137e919061395d565b60405160208183030381529060405260036000878152602001908152602001600020856040516113ae9190613193565b908152602001604051809103902090816113c8919061360c565b506040518060400160405280600260078111156113e8576113e76129cb565b5b81526020016001151581525060046000878152602001908152602001600020856040516114159190613193565b908152602001604051809103902060008201518160000160006101000a81548160ff0219169083600781111561144e5761144d6129cb565b5b021790555060208201518160000160016101000a81548160ff02191690831515021790555090505060019150505b611590565b80604051602001611492919061398e565b60405160208183030381529060405260036000878152602001908152602001600020856040516114c29190613193565b908152602001604051809103902090816114dc919061360c565b506040518060400160405280600260078111156114fc576114fb6129cb565b5b81526020016000151581525060046000878152602001908152602001600020856040516115299190613193565b908152602001604051809103902060008201518160000160006101000a81548160ff02191690836007811115611562576115616129cb565b5b021790555060208201518160000160016101000a81548160ff02191690831515021790555090505060019150505b612777565b600360078111156115a9576115a86129cb565b5b8260078111156115bc576115bb6129cb565b5b03611927577f885cb69240a935d632d79c317109709ecfa91a80626ff3989d68f67f5b1dd12d60001c73ffffffffffffffffffffffffffffffffffffffff16638e21481087876040518363ffffffff1660e01b815260040161161f929190613099565b602060405180830381865afa92505050801561165957506040513d601f19601f8201168201806040525081019061165691906139df565b60015b611813577f885cb69240a935d632d79c317109709ecfa91a80626ff3989d68f67f5b1dd12d60001c73ffffffffffffffffffffffffffffffffffffffff16633e716f8187876040518363ffffffff1660e01b81526004016116bb929190613099565b600060405180830381865afa9250505080156116fa57506040513d6000823e3d601f19601f820116820180604052508101906116f79190613acf565b60015b1561180e57806040516020016117109190613bd6565b60405160208183030381529060405260036000878152602001908152602001600020856040516117409190613193565b9081526020016040518091039020908161175a919061360c565b5060405180604001604052806003600781111561177a576117796129cb565b5b81526020016001151581525060046000878152602001908152602001600020856040516117a79190613193565b908152602001604051809103902060008201518160000160006101000a81548160ff021916908360078111156117e0576117df6129cb565b5b021790555060208201518160000160016101000a81548160ff02191690831515021790555090505060019150505b611922565b806040516020016118249190613c07565b60405160208183030381529060405260036000878152602001908152602001600020856040516118549190613193565b9081526020016040518091039020908161186e919061360c565b5060405180604001604052806003600781111561188e5761188d6129cb565b5b81526020016000151581525060046000878152602001908152602001600020856040516118bb9190613193565b908152602001604051809103902060008201518160000160006101000a81548160ff021916908360078111156118f4576118f36129cb565b5b021790555060208201518160000160016101000a81548160ff02191690831515021790555090505060019150505b612776565b6004600781111561193b5761193a6129cb565b5b82600781111561194e5761194d6129cb565b5b03611cb9577f885cb69240a935d632d79c317109709ecfa91a80626ff3989d68f67f5b1dd12d60001c73ffffffffffffffffffffffffffffffffffffffff1663cc7b048787876040518363ffffffff1660e01b81526004016119b1929190613099565b602060405180830381865afa9250505080156119eb57506040513d601f19601f820116820180604052508101906119e8919061326e565b60015b611ba5577f885cb69240a935d632d79c317109709ecfa91a80626ff3989d68f67f5b1dd12d60001c73ffffffffffffffffffffffffffffffffffffffff1663b5df27c887876040518363ffffffff1660e01b8152600401611a4d929190613099565b600060405180830381865afa925050508015611a8c57506040513d6000823e3d601f19601f82011682018060405250810190611a899190613ce5565b60015b15611ba05780604051602001611aa29190613dec565b6040516020818303038152906040526003600087815260200190815260200160002085604051611ad29190613193565b90815260200160405180910390209081611aec919061360c565b50604051806040016040528060046007811115611b0c57611b0b6129cb565b5b8152602001600115158152506004600087815260200190815260200160002085604051611b399190613193565b908152602001604051809103902060008201518160000160006101000a81548160ff02191690836007811115611b7257611b716129cb565b5b021790555060208201518160000160016101000a81548160ff02191690831515021790555090505060019150505b611cb4565b80604051602001611bb69190613e1d565b6040516020818303038152906040526003600087815260200190815260200160002085604051611be69190613193565b90815260200160405180910390209081611c00919061360c565b50604051806040016040528060046007811115611c2057611c1f6129cb565b5b8152602001600015158152506004600087815260200190815260200160002085604051611c4d9190613193565b908152602001604051809103902060008201518160000160006101000a81548160ff02191690836007811115611c8657611c856129cb565b5b021790555060208201518160000160016101000a81548160ff02191690831515021790555090505060019150505b612775565b60056007811115611ccd57611ccc6129cb565b5b826007811115611ce057611cdf6129cb565b5b0361204b577f885cb69240a935d632d79c317109709ecfa91a80626ff3989d68f67f5b1dd12d60001c73ffffffffffffffffffffffffffffffffffffffff1663c135073987876040518363ffffffff1660e01b8152600401611d43929190613099565b602060405180830381865afa925050508015611d7d57506040513d601f19601f82011682018060405250810190611d7a9190613e6e565b60015b611f37577f885cb69240a935d632d79c317109709ecfa91a80626ff3989d68f67f5b1dd12d60001c73ffffffffffffffffffffffffffffffffffffffff1663d3522ae687876040518363ffffffff1660e01b8152600401611ddf929190613099565b600060405180830381865afa925050508015611e1e57506040513d6000823e3d601f19601f82011682018060405250810190611e1b9190613f5e565b60015b15611f325780604051602001611e349190614065565b6040516020818303038152906040526003600087815260200190815260200160002085604051611e649190613193565b90815260200160405180910390209081611e7e919061360c565b50604051806040016040528060056007811115611e9e57611e9d6129cb565b5b8152602001600115158152506004600087815260200190815260200160002085604051611ecb9190613193565b908152602001604051809103902060008201518160000160006101000a81548160ff02191690836007811115611f0457611f036129cb565b5b021790555060208201518160000160016101000a81548160ff02191690831515021790555090505060019150505b612046565b80604051602001611f489190614096565b6040516020818303038152906040526003600087815260200190815260200160002085604051611f789190613193565b90815260200160405180910390209081611f92919061360c565b50604051806040016040528060056007811115611fb257611fb16129cb565b5b8152602001600015158152506004600087815260200190815260200160002085604051611fdf9190613193565b908152602001604051809103902060008201518160000160006101000a81548160ff02191690836007811115612018576120176129cb565b5b021790555060208201518160000160016101000a81548160ff02191690831515021790555090505060019150505b612774565b60078081111561205e5761205d6129cb565b5b826007811115612071576120706129cb565b5b036123df577f885cb69240a935d632d79c317109709ecfa91a80626ff3989d68f67f5b1dd12d60001c73ffffffffffffffffffffffffffffffffffffffff1663d77bfdb987876040518363ffffffff1660e01b81526004016120d4929190613099565b600060405180830381865afa92505050801561211357506040513d6000823e3d601f19601f820116820180604052508101906121109190614152565b60015b6122cc577f885cb69240a935d632d79c317109709ecfa91a80626ff3989d68f67f5b1dd12d60001c73ffffffffffffffffffffffffffffffffffffffff1663b197c24787876040518363ffffffff1660e01b8152600401612175929190613099565b600060405180830381865afa9250505080156121b457506040513d6000823e3d601f19601f820116820180604052508101906121b1919061427c565b60015b156122c757806040516020016121ca91906143d1565b60405160208183030381529060405260036000878152602001908152602001600020856040516121fa9190613193565b90815260200160405180910390209081612214919061360c565b506040518060400160405280600780811115612233576122326129cb565b5b81526020016001151581525060046000878152602001908152602001600020856040516122609190613193565b908152602001604051809103902060008201518160000160006101000a81548160ff02191690836007811115612299576122986129cb565b5b021790555060208201518160000160016101000a81548160ff02191690831515021790555090505060019150505b6123da565b806040516020016122dd919061443d565b604051602081830303815290604052600360008781526020019081526020016000208560405161230d9190613193565b90815260200160405180910390209081612327919061360c565b506040518060400160405280600780811115612346576123456129cb565b5b81526020016000151581525060046000878152602001908152602001600020856040516123739190613193565b908152602001604051809103902060008201518160000160006101000a81548160ff021916908360078111156123ac576123ab6129cb565b5b021790555060208201518160000160016101000a81548160ff02191690831515021790555090505060019150505b612773565b600660078111156123f3576123f26129cb565b5b826007811115612406576124056129cb565b5b03612772577f885cb69240a935d632d79c317109709ecfa91a80626ff3989d68f67f5b1dd12d60001c73ffffffffffffffffffffffffffffffffffffffff16638bb8dd4387876040518363ffffffff1660e01b8152600401612469929190613099565b600060405180830381865afa9250505080156124a857506040513d6000823e3d601f19601f820116820180604052508101906124a59190612de9565b60015b612662577f885cb69240a935d632d79c317109709ecfa91a80626ff3989d68f67f5b1dd12d60001c73ffffffffffffffffffffffffffffffffffffffff16639f62928187876040518363ffffffff1660e01b815260040161250a929190613099565b600060405180830381865afa92505050801561254957506040513d6000823e3d601f19601f820116820180604052508101906125469190612f99565b60015b1561265d578060405160200161255f919061456b565b604051602081830303815290604052600360008781526020019081526020016000208560405161258f9190613193565b908152602001604051809103902090816125a9919061360c565b506040518060400160405280600660078111156125c9576125c86129cb565b5b81526020016001151581525060046000878152602001908152602001600020856040516125f69190613193565b908152602001604051809103902060008201518160000160006101000a81548160ff0219169083600781111561262f5761262e6129cb565b5b021790555060208201518160000160016101000a81548160ff02191690831515021790555090505060019150505b612771565b806040516020016126739190612dc7565b60405160208183030381529060405260036000878152602001908152602001600020856040516126a39190613193565b908152602001604051809103902090816126bd919061360c565b506040518060400160405280600660078111156126dd576126dc6129cb565b5b815260200160001515815250600460008781526020019081526020016000208560405161270a9190613193565b908152602001604051809103902060008201518160000160006101000a81548160ff02191690836007811115612743576127426129cb565b5b021790555060208201518160000160016101000a81548160ff02191690831515021790555090505060019150505b5b5b5b5b5b5b5b806127ba57826040517fea00fa130000000000000000000000000000000000000000000000000000000081526004016127b19190612dc7565b60405180910390fd5b505050505050565b6000604051905090565b600080fd5b600080fd5b600080fd5b600080fd5b6000601f19601f8301169050919050565b7f4e487b7100000000000000000000000000000000000000000000000000000000600052604160045260246000fd5b612829826127e0565b810181811067ffffffffffffffff82111715612848576128476127f1565b5b80604052505050565b600061285b6127c2565b90506128678282612820565b919050565b600067ffffffffffffffff821115612887576128866127f1565b5b612890826127e0565b9050602081019050919050565b60005b838110156128bb5780820151818401526020810190506128a0565b60008484015250505050565b60006128da6128d58461286c565b612851565b9050828152602081018484840111156128f6576128f56127db565b5b61290184828561289d565b509392505050565b600082601f83011261291e5761291d6127d6565b5b815161292e8482602086016128c7565b91505092915050565b60008115159050919050565b61294c81612937565b811461295757600080fd5b50565b60008151905061296981612943565b92915050565b60008060408385031215612986576129856127cc565b5b600083015167ffffffffffffffff8111156129a4576129a36127d1565b5b6129b085828601612909565b92505060206129c18582860161295a565b9150509250929050565b7f4e487b7100000000000000000000000000000000000000000000000000000000600052602160045260246000fd5b60098110612a0b57612a0a6129cb565b5b50565b6000819050612a1c826129fa565b919050565b6000612a2c82612a0e565b9050919050565b612a3c81612a21565b82525050565b6000602082019050612a576000830184612a33565b92915050565b600060208284031215612a7357612a726127cc565b5b6000612a818482850161295a565b91505092915050565b600081519050919050565b7f4e487b7100000000000000000000000000000000000000000000000000000000600052602260045260246000fd5b60006002820490506001821680612adc57607f821691505b602082108103612aef57612aee612a95565b5b50919050565b60008190508160005260206000209050919050565b60006020601f8301049050919050565b600082821b905092915050565b600060088302612b577fffffffffffffffffffffffffffffffffffffffffffffffffffffffffffffffff82612b1a565b612b618683612b1a565b95508019841693508086168417925050509392505050565b6000819050919050565b6000819050919050565b6000612ba8612ba3612b9e84612b79565b612b83565b612b79565b9050919050565b6000819050919050565b612bc283612b8d565b612bd6612bce82612baf565b848454612b27565b825550505050565b600090565b612beb612bde565b612bf6818484612bb9565b505050565b5b81811015612c1a57612c0f600082612be3565b600181019050612bfc565b5050565b601f821115612c5f57612c3081612af5565b612c3984612b0a565b81016020851015612c48578190505b612c5c612c5485612b0a565b830182612bfb565b50505b505050565b600082821c905092915050565b6000612c8260001984600802612c64565b1980831691505092915050565b6000612c9b8383612c71565b9150826002028217905092915050565b612cb482612a8a565b67ffffffffffffffff811115612ccd57612ccc6127f1565b5b612cd78254612ac4565b612ce2828285612c1e565b600060209050601f831160018114612d155760008415612d03578287015190505b612d0d8582612c8f565b865550612d75565b601f198416612d2386612af5565b60005b82811015612d4b57848901518255600182019150602085019450602081019050612d26565b86831015612d685784890151612d64601f891682612c71565b8355505b6001600288020188555050505b505050505050565b600082825260208201905092915050565b6000612d9982612a8a565b612da38185612d7d565b9350612db381856020860161289d565b612dbc816127e0565b840191505092915050565b60006020820190508181036000830152612de18184612d8e565b905092915050565b600060208284031215612dff57612dfe6127cc565b5b600082015167ffffffffffffffff811115612e1d57612e1c6127d1565b5b612e2984828501612909565b91505092915050565b7f2400000000000000000000000000000000000000000000000000000000000000600082015250565b6000612e68600183612d7d565b9150612e7382612e32565b602082019050919050565b60006040820190508181036000830152612e988184612d8e565b90508181036020830152612eab81612e5b565b905092915050565b600067ffffffffffffffff821115612ece57612ecd6127f1565b5b602082029050602081019050919050565b600080fd5b6000612ef7612ef284612eb3565b612851565b90508083825260208201905060208402830185811115612f1a57612f19612edf565b5b835b81811015612f6157805167ffffffffffffffff811115612f3f57612f3e6127d6565b5b808601612f4c8982612909565b85526020850194505050602081019050612f1c565b5050509392505050565b600082601f830112612f8057612f7f6127d6565b5b8151612f90848260208601612ee4565b91505092915050565b600060208284031215612faf57612fae6127cc565b5b600082015167ffffffffffffffff811115612fcd57612fcc6127d1565b5b612fd984828501612f6b565b91505092915050565b7f4e487b7100000000000000000000000000000000000000000000000000000000600052603260045260246000fd5b7f242e000000000000000000000000000000000000000000000000000000000000815250565b600081905092915050565b600061304d82612a8a565b6130578185613037565b935061306781856020860161289d565b80840191505092915050565b600061307e82613011565b60028201915061308e8284613042565b915081905092915050565b600060408201905081810360008301526130b38185612d8e565b905081810360208301526130c78184612d8e565b90509392505050565b7f2e656e64706f696e745f75726c00000000000000000000000000000000000000815250565b600061310182613011565b6002820191506131118284613042565b915061311c826130d0565b600d8201915081905092915050565b7f2e00000000000000000000000000000000000000000000000000000000000000815250565b600061315c82613011565b60028201915061316c8285613042565b91506131778261312b565b6001820191506131878284613042565b91508190509392505050565b600061319f8284613042565b915081905092915050565b60006131b68285613042565b91506131c18261312b565b6001820191506131d18284613042565b91508190509392505050565b7f4e487b7100000000000000000000000000000000000000000000000000000000600052601160045260246000fd5b600060ff82169050919050565b60006132248261320c565b915060ff8203613237576132366131dd565b5b600182019050919050565b61324b81612b79565b811461325657600080fd5b50565b60008151905061326881613242565b92915050565b600060208284031215613284576132836127cc565b5b600061329284828501613259565b91505092915050565b600080fd5b600080fd5b6000608082840312156132bb576132ba61329b565b5b6132c56080612851565b9050600082015167ffffffffffffffff8111156132e5576132e46132a0565b5b6132f184828501612909565b600083015250602061330584828501613259565b602083015250604082015167ffffffffffffffff811115613329576133286132a0565b5b61333584828501612909565b604083015250606082015167ffffffffffffffff811115613359576133586132a0565b5b61336584828501612909565b60608301525092915050565b600060208284031215613387576133866127cc565b5b600082015167ffffffffffffffff8111156133a5576133a46127d1565b5b6133b1848285016132a5565b91505092915050565b600067ffffffffffffffff8211156133d5576133d46127f1565b5b602082029050602081019050919050565b60006133f96133f4846133ba565b612851565b9050808382526020820190506020840283018581111561341c5761341b612edf565b5b835b818110156134455780613431888261295a565b84526020840193505060208101905061341e565b5050509392505050565b600082601f830112613464576134636127d6565b5b81516134748482602086016133e6565b91505092915050565b600060208284031215613493576134926127cc565b5b600082015167ffffffffffffffff8111156134b1576134b06127d1565b5b6134bd8482850161344f565b91505092915050565b600081519050919050565b600082825260208201905092915050565b6000819050602082019050919050565b6134fb81612937565b82525050565b600061350d83836134f2565b60208301905092915050565b6000602082019050919050565b6000613531826134c6565b61353b81856134d1565b9350613546836134e2565b8060005b8381101561357757815161355e8882613501565b975061356983613519565b92505060018101905061354a565b5085935050505092915050565b6000602082019050818103600083015261359e8184613526565b905092915050565b600081519050919050565b60008190508160005260206000209050919050565b601f821115613607576135d8816135b1565b6135e184612b0a565b810160208510156135f0578190505b6136046135fc85612b0a565b830182612bfb565b50505b505050565b613615826135a6565b67ffffffffffffffff81111561362e5761362d6127f1565b5b6136388254612ac4565b6136438282856135c6565b600060209050601f8311600181146136765760008415613664578287015190505b61366e8582612c8f565b8655506136d6565b601f198416613684866135b1565b60005b828110156136ac57848901518255600182019150602085019450602081019050613687565b868310156136c957848901516136c5601f891682612c71565b8355505b6001600288020188555050505b505050505050565b6136e781612937565b82525050565b600060208201905061370260008301846136de565b92915050565b600073ffffffffffffffffffffffffffffffffffffffff82169050919050565b600061373382613708565b9050919050565b61374381613728565b811461374e57600080fd5b50565b6000815190506137608161373a565b92915050565b60006020828403121561377c5761377b6127cc565b5b600061378a84828501613751565b91505092915050565b600067ffffffffffffffff8211156137ae576137ad6127f1565b5b602082029050602081019050919050565b60006137d26137cd84613793565b612851565b905080838252602082019050602084028301858111156137f5576137f4612edf565b5b835b8181101561381e578061380a8882613751565b8452602084019350506020810190506137f7565b5050509392505050565b600082601f83011261383d5761383c6127d6565b5b815161384d8482602086016137bf565b91505092915050565b60006020828403121561386c5761386b6127cc565b5b600082015167ffffffffffffffff81111561388a576138896127d1565b5b61389684828501613828565b91505092915050565b600081519050919050565b600082825260208201905092915050565b6000819050602082019050919050565b6138d481613728565b82525050565b60006138e683836138cb565b60208301905092915050565b6000602082019050919050565b600061390a8261389f565b61391481856138aa565b935061391f836138bb565b8060005b8381101561395057815161393788826138da565b9750613942836138f2565b925050600181019050613923565b5085935050505092915050565b6000602082019050818103600083015261397781846138ff565b905092915050565b61398881613728565b82525050565b60006020820190506139a3600083018461397f565b92915050565b6000819050919050565b6139bc816139a9565b81146139c757600080fd5b50565b6000815190506139d9816139b3565b92915050565b6000602082840312156139f5576139f46127cc565b5b6000613a03848285016139ca565b91505092915050565b600067ffffffffffffffff821115613a2757613a266127f1565b5b602082029050602081019050919050565b6000613a4b613a4684613a0c565b612851565b90508083825260208201905060208402830185811115613a6e57613a6d612edf565b5b835b81811015613a975780613a8388826139ca565b845260208401935050602081019050613a70565b5050509392505050565b600082601f830112613ab657613ab56127d6565b5b8151613ac6848260208601613a38565b91505092915050565b600060208284031215613ae557613ae46127cc565b5b600082015167ffffffffffffffff811115613b0357613b026127d1565b5b613b0f84828501613aa1565b91505092915050565b600081519050919050565b600082825260208201905092915050565b6000819050602082019050919050565b613b4d816139a9565b82525050565b6000613b5f8383613b44565b60208301905092915050565b6000602082019050919050565b6000613b8382613b18565b613b8d8185613b23565b9350613b9883613b34565b8060005b83811015613bc9578151613bb08882613b53565b9750613bbb83613b6b565b925050600181019050613b9c565b5085935050505092915050565b60006020820190508181036000830152613bf08184613b78565b905092915050565b613c01816139a9565b82525050565b6000602082019050613c1c6000830184613bf8565b92915050565b600067ffffffffffffffff821115613c3d57613c3c6127f1565b5b602082029050602081019050919050565b6000613c61613c5c84613c22565b612851565b90508083825260208201905060208402830185811115613c8457613c83612edf565b5b835b81811015613cad5780613c998882613259565b845260208401935050602081019050613c86565b5050509392505050565b600082601f830112613ccc57613ccb6127d6565b5b8151613cdc848260208601613c4e565b91505092915050565b600060208284031215613cfb57613cfa6127cc565b5b600082015167ffffffffffffffff811115613d1957613d186127d1565b5b613d2584828501613cb7565b91505092915050565b600081519050919050565b600082825260208201905092915050565b6000819050602082019050919050565b613d6381612b79565b82525050565b6000613d758383613d5a565b60208301905092915050565b6000602082019050919050565b6000613d9982613d2e565b613da38185613d39565b9350613dae83613d4a565b8060005b83811015613ddf578151613dc68882613d69565b9750613dd183613d81565b925050600181019050613db2565b5085935050505092915050565b60006020820190508181036000830152613e068184613d8e565b905092915050565b613e1781612b79565b82525050565b6000602082019050613e326000830184613e0e565b92915050565b6000819050919050565b613e4b81613e38565b8114613e5657600080fd5b50565b600081519050613e6881613e42565b92915050565b600060208284031215613e8457613e836127cc565b5b6000613e9284828501613e59565b91505092915050565b600067ffffffffffffffff821115613eb657613eb56127f1565b5b602082029050602081019050919050565b6000613eda613ed584613e9b565b612851565b90508083825260208201905060208402830185811115613efd57613efc612edf565b5b835b81811015613f265780613f128882613e59565b845260208401935050602081019050613eff565b5050509392505050565b600082601f830112613f4557613f446127d6565b5b8151613f55848260208601613ec7565b91505092915050565b600060208284031215613f7457613f736127cc565b5b600082015167ffffffffffffffff811115613f9257613f916127d1565b5b613f9e84828501613f30565b91505092915050565b600081519050919050565b600082825260208201905092915050565b6000819050602082019050919050565b613fdc81613e38565b82525050565b6000613fee8383613fd3565b60208301905092915050565b6000602082019050919050565b600061401282613fa7565b61401c8185613fb2565b935061402783613fc3565b8060005b8381101561405857815161403f8882613fe2565b975061404a83613ffa565b92505060018101905061402b565b5085935050505092915050565b6000602082019050818103600083015261407f8184614007565b905092915050565b61409081613e38565b82525050565b60006020820190506140ab6000830184614087565b92915050565b600067ffffffffffffffff8211156140cc576140cb6127f1565b5b6140d5826127e0565b9050602081019050919050565b60006140f56140f0846140b1565b612851565b905082815260208101848484011115614111576141106127db565b5b61411c84828561289d565b509392505050565b600082601f830112614139576141386127d6565b5b81516141498482602086016140e2565b91505092915050565b600060208284031215614168576141676127cc565b5b600082015167ffffffffffffffff811115614186576141856127d1565b5b61419284828501614124565b91505092915050565b600067ffffffffffffffff8211156141b6576141b56127f1565b5b602082029050602081019050919050565b60006141da6141d58461419b565b612851565b905080838252602082019050602084028301858111156141fd576141fc612edf565b5b835b8181101561424457805167ffffffffffffffff811115614222576142216127d6565b5b80860161422f8982614124565b855260208501945050506020810190506141ff565b5050509392505050565b600082601f830112614263576142626127d6565b5b81516142738482602086016141c7565b91505092915050565b600060208284031215614292576142916127cc565b5b600082015167ffffffffffffffff8111156142b0576142af6127d1565b5b6142bc8482850161424e565b91505092915050565b600081519050919050565b600082825260208201905092915050565b6000819050602082019050919050565b600082825260208201905092915050565b600061430d826135a6565b61431781856142f1565b935061432781856020860161289d565b614330816127e0565b840191505092915050565b60006143478383614302565b905092915050565b6000602082019050919050565b6000614367826142c5565b61437181856142d0565b935083602082028501614383856142e1565b8060005b858110156143bf57848403895281516143a0858261433b565b94506143ab8361434f565b925060208a01995050600181019050614387565b50829750879550505050505092915050565b600060208201905081810360008301526143eb818461435c565b905092915050565b600082825260208201905092915050565b600061440f826135a6565b61441981856143f3565b935061442981856020860161289d565b614432816127e0565b840191505092915050565b600060208201905081810360008301526144578184614404565b905092915050565b600081519050919050565b600082825260208201905092915050565b6000819050602082019050919050565b600082825260208201905092915050565b60006144a782612a8a565b6144b1818561448b565b93506144c181856020860161289d565b6144ca816127e0565b840191505092915050565b60006144e1838361449c565b905092915050565b6000602082019050919050565b60006145018261445f565b61450b818561446a565b93508360208202850161451d8561447b565b8060005b85811015614559578484038952815161453a85826144d5565b9450614545836144e9565b925060208a01995050600181019050614521565b50829750879550505050505092915050565b6000602082019050818103600083015261458581846144f6565b905092915050565b6167978061459c6000396000f3fe608060405234801561001057600080fd5b50600436106102115760003560e01c8063805da4ad11610125578063cf1cfa99116100ad578063de0fc9b31161007c578063de0fc9b3146105b2578063e298d00b146105ce578063e6053250146105ea578063e942b51614610606578063fa3c074a1461062257610211565b8063cf1cfa9914610542578063cf72a2f31461055e578063d6698dc41461057a578063db0075df1461059657610211565b806393dbe6e0116100f457806393dbe6e0146104b6578063a815ff15146104d2578063b3a64001146104ee578063ba0ff22c1461050a578063c91ca7ba1461052657610211565b8063805da4ad1461043257806388c63d45146104625780638a42ebe91461047e5780638be199241461049a57610211565b806343ec8b6a116101a857806361141c971161017757806361141c971461037e578063655609501461039a578063693ec85e146103b65780637b8fed81146103e65780637df3ef121461040257610211565b806343ec8b6a1461030c5780634d85ce801461032a57806359b39526146103465780635eba0df01461036257610211565b80632b29c0fa116101e45780632b29c0fa146102885780632e3196a5146102a45780632ef8ba74146102c05780633f3a7588146102dc57610211565b806307d79d9a1461021657806308f7b4b2146102325780631d7763231461024e57806322dc48fd1461026c575b600080fd5b610230600480360381019061022b9190613ef7565b61063e565b005b61024c60048036038101906102479190614064565b6107bb565b005b610256610a2d565b60405161026391906141ad565b60405180910390f35b610286600480360381019061028191906141cf565b610bb7565b005b6102a2600480360381019061029d91906142df565b610d34565b005b6102be60048036038101906102b99190614357565b610dd4565b005b6102da60048036038101906102d591906143b3565b610e74565b005b6102f660048036038101906102f1919061440f565b610f14565b6040516103039190614467565b60405180910390f35b6103146110a3565b6040516103219190614501565b60405180910390f35b610344600480360381019061033f9190614523565b6111d7565b005b610360600480360381019061035b919061468f565b61135b565b005b61037c60048036038101906103779190614765565b6113fb565b005b61039860048036038101906103939190614897565b611580565b005b6103b460048036038101906103af9190614922565b6117f2565b005b6103d060048036038101906103cb919061440f565b6118d6565b6040516103dd9190614b00565b60405180910390f35b61040060048036038101906103fb9190614be5565b611980565b005b61041c60048036038101906104179190614c5d565b611a20565b6040516104299190614501565b60405180910390f35b61044c60048036038101906104479190614c8a565b611ac5565b6040516104599190614b00565b60405180910390f35b61047c60048036038101906104779190614ce6565b611c30565b005b61049860048036038101906104939190614d5e565b611cd0565b005b6104b460048036038101906104af9190614e7d565b611d70565b005b6104d060048036038101906104cb9190614fe9565b611fda565b005b6104ec60048036038101906104e79190615074565b61224b565b005b610508600480360381019061050391906150fc565b6122eb565b005b610524600480360381019061051f919061516b565b612468565b005b610540600480360381019061053b91906151c7565b612508565b005b61055c6004803603810190610557919061523f565b6125a8565b005b610578600480360381019061057391906152ae565b61272d565b005b610594600480360381019061058f9190615339565b6128fe565b005b6105b060048036038101906105ab9190615366565b6129fa565b005b6105cc60048036038101906105c791906153f1565b612c64565b005b6105e860048036038101906105e3919061552c565b612d04565b005b61060460048036038101906105ff91906155b7565b612f6e565b005b610620600480360381019061061b919061562f565b61300e565b005b61063c600480360381019061063791906156a7565b6130ae565b005b600060405180604001604052806005600781111561065f5761065e6149ad565b5b815260200160001515815250905061067884848361314e565b81604051602001610689919061572e565b60405160208183030381529060405260036000868152602001908152602001600020846040516106b99190615785565b908152602001604051809103902090816106d391906159a8565b50600560009054906101000a900460ff16156107b5576107b48461070c83600001516007811115610707576107066149ad565b5b6132b4565b857f885cb69240a935d632d79c317109709ecfa91a80626ff3989d68f67f5b1dd12d60001c73ffffffffffffffffffffffffffffffffffffffff1663a322c40e876040518263ffffffff1660e01b8152600401610769919061572e565b600060405180830381865afa158015610786573d6000803e3d6000fd5b505050506040513d6000823e3d601f19601f820116820180604052508101906107af9190615aea565b6135d2565b5b50505050565b60006040518060400160405280600360078111156107dc576107db6149ad565b5b81526020016001151581525090506107f584848361314e565b816040516020016108069190615bf1565b60405160208183030381529060405260036000868152602001908152602001600020846040516108369190615785565b9081526020016040518091039020908161085091906159a8565b50600560009054906101000a900460ff1615610a275760006040518060400160405280600181526020017f5b00000000000000000000000000000000000000000000000000000000000000815250905060005b83518110156109d857816109717f885cb69240a935d632d79c317109709ecfa91a80626ff3989d68f67f5b1dd12d60001c73ffffffffffffffffffffffffffffffffffffffff1663b11a19e887858151811061090257610901615c13565b5b60200260200101516040518263ffffffff1660e01b81526004016109269190615c51565b600060405180830381865afa158015610943573d6000803e3d6000fd5b505050506040513d6000823e3d601f19601f8201168201806040525081019061096c9190615aea565b6136a2565b604051602001610982929190615c6c565b6040516020818303038152906040529150600184516109a19190615cbf565b8110156109cb57816040516020016109b99190615d19565b60405160208183030381529060405291505b80806001019150506108a3565b50806040516020016109ea9190615d65565b6040516020818303038152906040529050610a2585610a1e84600001516007811115610a1957610a186149ad565b5b6132b4565b86846135d2565b505b50505050565b606060006001805480602002602001604051908101604052809291908181526020016000905b82821015610aff578382906000526020600020018054610a72906157cb565b80601f0160208091040260200160405190810160405280929190818152602001828054610a9e906157cb565b8015610aeb5780601f10610ac057610100808354040283529160200191610aeb565b820191906000526020600020905b815481529060010190602001808311610ace57829003601f168201915b505050505081526020019060010190610a53565b5050505090506000815167ffffffffffffffff811115610b2257610b21613d96565b5b604051908082528060200260200182016040528015610b505781602001602082028036833780820191505090505b50905060005b8251811015610bae57610b82838281518110610b7557610b74615c13565b5b6020026020010151610f14565b828281518110610b9557610b94615c13565b5b6020026020010181815250508080600101915050610b56565b50809250505090565b6000604051806040016040528060046007811115610bd857610bd76149ad565b5b8152602001600015158152509050610bf184848361314e565b81604051602001610c029190614467565b6040516020818303038152906040526003600086815260200190815260200160002084604051610c329190615785565b90815260200160405180910390209081610c4c91906159a8565b50600560009054906101000a900460ff1615610d2e57610d2d84610c8583600001516007811115610c8057610c7f6149ad565b5b6132b4565b857f885cb69240a935d632d79c317109709ecfa91a80626ff3989d68f67f5b1dd12d60001c73ffffffffffffffffffffffffffffffffffffffff16636900a3ae876040518263ffffffff1660e01b8152600401610ce29190614467565b600060405180830381865afa158015610cff573d6000803e3d6000fd5b505050506040513d6000823e3d601f19601f82011682018060405250810190610d289190615aea565b6135d2565b5b50505050565b610dd07f885cb69240a935d632d79c317109709ecfa91a80626ff3989d68f67f5b1dd12d60001c73ffffffffffffffffffffffffffffffffffffffff16633408e4706040518163ffffffff1660e01b8152600401602060405180830381865afa158015610da5573d6000803e3d6000fd5b505050506040513d601f19601f82011682018060405250810190610dc99190615da0565b83836111d7565b5050565b610e707f885cb69240a935d632d79c317109709ecfa91a80626ff3989d68f67f5b1dd12d60001c73ffffffffffffffffffffffffffffffffffffffff16633408e4706040518163ffffffff1660e01b8152600401602060405180830381865afa158015610e45573d6000803e3d6000fd5b505050506040513d601f19601f82011682018060405250810190610e699190615da0565b83836125a8565b5050565b610f107f885cb69240a935d632d79c317109709ecfa91a80626ff3989d68f67f5b1dd12d60001c73ffffffffffffffffffffffffffffffffffffffff16633408e4706040518163ffffffff1660e01b8152600401602060405180830381865afa158015610ee5573d6000803e3d6000fd5b505050506040513d601f19601f82011682018060405250810190610f099190615da0565b838361063e565b5050565b60007f885cb69240a935d632d79c317109709ecfa91a80626ff3989d68f67f5b1dd12d60001c73ffffffffffffffffffffffffffffffffffffffff1663fa91454d836040518263ffffffff1660e01b8152600401610f729190614501565b602060405180830381865afa925050508015610fac57506040513d601f19601f82011682018060405250810190610fa99190615da0565b60015b611099577f885cb69240a935d632d79c317109709ecfa91a80626ff3989d68f67f5b1dd12d60001c73ffffffffffffffffffffffffffffffffffffffff16634cc1c2bb836040518263ffffffff1660e01b815260040161100c9190614501565b600060405180830381865afa92505050801561104b57506040513d6000823e3d601f19601f820116820180604052508101906110489190615ea3565b60015b61108c57816040517f97aa94df0000000000000000000000000000000000000000000000000000000081526004016110839190614501565b60405180910390fd5b806020015191505061109e565b809150505b919050565b6060600260007f885cb69240a935d632d79c317109709ecfa91a80626ff3989d68f67f5b1dd12d60001c73ffffffffffffffffffffffffffffffffffffffff16633408e4706040518163ffffffff1660e01b8152600401602060405180830381865afa158015611117573d6000803e3d6000fd5b505050506040513d601f19601f8201168201806040525081019061113b9190615da0565b81526020019081526020016000208054611154906157cb565b80601f0160208091040260200160405190810160405280929190818152602001828054611180906157cb565b80156111cd5780601f106111a2576101008083540402835291602001916111cd565b820191906000526020600020905b8154815290600101906020018083116111b057829003601f168201915b5050505050905090565b600060405180604001604052806007808111156111f7576111f66149ad565b5b815260200160001515815250905061121084848361314e565b816040516020016112219190615f36565b60405160208183030381529060405260036000868152602001908152602001600020846040516112519190615785565b9081526020016040518091039020908161126b91906159a8565b50600560009054906101000a900460ff161561135557611354846112a48360000151600781111561129f5761129e6149ad565b5b6132b4565b8561134f7f885cb69240a935d632d79c317109709ecfa91a80626ff3989d68f67f5b1dd12d60001c73ffffffffffffffffffffffffffffffffffffffff166371aad10d886040518263ffffffff1660e01b81526004016113049190615f36565b600060405180830381865afa158015611321573d6000803e3d6000fd5b505050506040513d6000823e3d601f19601f8201168201806040525081019061134a9190615aea565b6136a2565b6135d2565b5b50505050565b6113f77f885cb69240a935d632d79c317109709ecfa91a80626ff3989d68f67f5b1dd12d60001c73ffffffffffffffffffffffffffffffffffffffff16633408e4706040518163ffffffff1660e01b8152600401602060405180830381865afa1580156113cc573d6000803e3d6000fd5b505050506040513d601f19601f820116820180604052508101906113f09190615da0565b838361272d565b5050565b600060405180604001604052806002600781111561141c5761141b6149ad565b5b815260200160001515815250905061143584848361314e565b816040516020016114469190615f67565b60405160208183030381529060405260036000868152602001908152602001600020846040516114769190615785565b9081526020016040518091039020908161149091906159a8565b50600560009054906101000a900460ff161561157a57611579846114c9836000015160078111156114c4576114c36149ad565b5b6132b4565b856115747f885cb69240a935d632d79c317109709ecfa91a80626ff3989d68f67f5b1dd12d60001c73ffffffffffffffffffffffffffffffffffffffff166356ca623e886040518263ffffffff1660e01b81526004016115299190615f67565b600060405180830381865afa158015611546573d6000803e3d6000fd5b505050506040513d6000823e3d601f19601f8201168201806040525081019061156f9190615aea565b6136a2565b6135d2565b5b50505050565b60006040518060400160405280600260078111156115a1576115a06149ad565b5b81526020016001151581525090506115ba84848361314e565b816040516020016115cb9190616040565b60405160208183030381529060405260036000868152602001908152602001600020846040516115fb9190615785565b9081526020016040518091039020908161161591906159a8565b50600560009054906101000a900460ff16156117ec5760006040518060400160405280600181526020017f5b00000000000000000000000000000000000000000000000000000000000000815250905060005b835181101561179d57816117367f885cb69240a935d632d79c317109709ecfa91a80626ff3989d68f67f5b1dd12d60001c73ffffffffffffffffffffffffffffffffffffffff166356ca623e8785815181106116c7576116c6615c13565b5b60200260200101516040518263ffffffff1660e01b81526004016116eb9190615f67565b600060405180830381865afa158015611708573d6000803e3d6000fd5b505050506040513d6000823e3d601f19601f820116820180604052508101906117319190615aea565b6136a2565b604051602001611747929190615c6c565b6040516020818303038152906040529150600184516117669190615cbf565b811015611790578160405160200161177e9190615d19565b60405160208183030381529060405291505b8080600101915050611668565b50806040516020016117af9190615d65565b60405160208183030381529060405290506117ea856117e3846000015160078111156117de576117dd6149ad565b5b6132b4565b86846135d2565b505b50505050565b6000604051806040016040528060066007811115611813576118126149ad565b5b815260200160001515815250905061182c84848361314e565b8160405160200161183d9190614501565b604051602081830303815290604052600360008681526020019081526020016000208460405161186d9190615785565b9081526020016040518091039020908161188791906159a8565b50600560009054906101000a900460ff16156118d0576118cf846118c0836000015160078111156118bb576118ba6149ad565b5b6132b4565b856118ca866136a2565b6135d2565b5b50505050565b6118de613ce3565b6119797f885cb69240a935d632d79c317109709ecfa91a80626ff3989d68f67f5b1dd12d60001c73ffffffffffffffffffffffffffffffffffffffff16633408e4706040518163ffffffff1660e01b8152600401602060405180830381865afa15801561194f573d6000803e3d6000fd5b505050506040513d601f19601f820116820180604052508101906119739190615da0565b83611ac5565b9050919050565b611a1c7f885cb69240a935d632d79c317109709ecfa91a80626ff3989d68f67f5b1dd12d60001c73ffffffffffffffffffffffffffffffffffffffff16633408e4706040518163ffffffff1660e01b8152600401602060405180830381865afa1580156119f1573d6000803e3d6000fd5b505050506040513d601f19601f82011682018060405250810190611a159190615da0565b83836129fa565b5050565b6060600260008381526020019081526020016000208054611a40906157cb565b80601f0160208091040260200160405190810160405280929190818152602001828054611a6c906157cb565b8015611ab95780601f10611a8e57610100808354040283529160200191611ab9565b820191906000526020600020905b815481529060010190602001808311611a9c57829003601f168201915b50505050509050919050565b611acd613ce3565b60405180604001604052806004600086815260200190815260200160002084604051611af99190615785565b90815260200160405180910390206040518060400160405290816000820160009054906101000a900460ff166007811115611b3757611b366149ad565b5b6007811115611b4957611b486149ad565b5b81526020016000820160019054906101000a900460ff16151515158152505081526020016003600086815260200190815260200160002084604051611b8e9190615785565b90815260200160405180910390208054611ba7906157cb565b80601f0160208091040260200160405190810160405280929190818152602001828054611bd3906157cb565b8015611c205780601f10611bf557610100808354040283529160200191611c20565b820191906000526020600020905b815481529060010190602001808311611c0357829003601f168201915b5050505050815250905092915050565b611ccc7f885cb69240a935d632d79c317109709ecfa91a80626ff3989d68f67f5b1dd12d60001c73ffffffffffffffffffffffffffffffffffffffff16633408e4706040518163ffffffff1660e01b8152600401602060405180830381865afa158015611ca1573d6000803e3d6000fd5b505050506040513d601f19601f82011682018060405250810190611cc59190615da0565b8383611580565b5050565b611d6c7f885cb69240a935d632d79c317109709ecfa91a80626ff3989d68f67f5b1dd12d60001c73ffffffffffffffffffffffffffffffffffffffff16633408e4706040518163ffffffff1660e01b8152600401602060405180830381865afa158015611d41573d6000803e3d6000fd5b505050506040513d601f19601f82011682018060405250810190611d659190615da0565b8383610bb7565b5050565b6000604051806040016040528060056007811115611d9157611d906149ad565b5b8152602001600115158152509050611daa84848361314e565b81604051602001611dbb9190616120565b6040516020818303038152906040526003600086815260200190815260200160002084604051611deb9190615785565b90815260200160405180910390209081611e0591906159a8565b50600560009054906101000a900460ff1615611fd45760006040518060400160405280600181526020017f5b00000000000000000000000000000000000000000000000000000000000000815250905060005b8351811015611f8557817f885cb69240a935d632d79c317109709ecfa91a80626ff3989d68f67f5b1dd12d60001c73ffffffffffffffffffffffffffffffffffffffff1663a322c40e868481518110611eb457611eb3615c13565b5b60200260200101516040518263ffffffff1660e01b8152600401611ed8919061572e565b600060405180830381865afa158015611ef5573d6000803e3d6000fd5b505050506040513d6000823e3d601f19601f82011682018060405250810190611f1e9190615aea565b604051602001611f2f929190615c6c565b604051602081830303815290604052915060018451611f4e9190615cbf565b811015611f785781604051602001611f669190615d19565b60405160208183030381529060405291505b8080600101915050611e58565b5080604051602001611f979190615d65565b6040516020818303038152906040529050611fd285611fcb84600001516007811115611fc657611fc56149ad565b5b6132b4565b86846135d2565b505b50505050565b60006040518060400160405280600780811115611ffa57611ff96149ad565b5b815260200160011515815250905061201384848361314e565b816040516020016120249190616204565b60405160208183030381529060405260036000868152602001908152602001600020846040516120549190615785565b9081526020016040518091039020908161206e91906159a8565b50600560009054906101000a900460ff16156122455760006040518060400160405280600181526020017f5b00000000000000000000000000000000000000000000000000000000000000815250905060005b83518110156121f6578161218f7f885cb69240a935d632d79c317109709ecfa91a80626ff3989d68f67f5b1dd12d60001c73ffffffffffffffffffffffffffffffffffffffff166371aad10d8785815181106121205761211f615c13565b5b60200260200101516040518263ffffffff1660e01b81526004016121449190615f36565b600060405180830381865afa158015612161573d6000803e3d6000fd5b505050506040513d6000823e3d601f19601f8201168201806040525081019061218a9190615aea565b6136a2565b6040516020016121a0929190615c6c565b6040516020818303038152906040529150600184516121bf9190615cbf565b8110156121e957816040516020016121d79190615d19565b60405160208183030381529060405291505b80806001019150506120c1565b50806040516020016122089190615d65565b60405160208183030381529060405290506122438561223c84600001516007811115612237576122366149ad565b5b6132b4565b86846135d2565b505b50505050565b6122e77f885cb69240a935d632d79c317109709ecfa91a80626ff3989d68f67f5b1dd12d60001c73ffffffffffffffffffffffffffffffffffffffff16633408e4706040518163ffffffff1660e01b8152600401602060405180830381865afa1580156122bc573d6000803e3d6000fd5b505050506040513d601f19601f820116820180604052508101906122e09190615da0565b83836113fb565b5050565b600060405180604001604052806001600781111561230c5761230b6149ad565b5b815260200160001515815250905061232584848361314e565b816040516020016123369190616235565b60405160208183030381529060405260036000868152602001908152602001600020846040516123669190615785565b9081526020016040518091039020908161238091906159a8565b50600560009054906101000a900460ff161561246257612461846123b9836000015160078111156123b4576123b36149ad565b5b6132b4565b857f885cb69240a935d632d79c317109709ecfa91a80626ff3989d68f67f5b1dd12d60001c73ffffffffffffffffffffffffffffffffffffffff166371dce7da876040518263ffffffff1660e01b81526004016124169190616235565b600060405180830381865afa158015612433573d6000803e3d6000fd5b505050506040513d6000823e3d601f19601f8201168201806040525081019061245c9190615aea565b6135d2565b5b50505050565b6125047f885cb69240a935d632d79c317109709ecfa91a80626ff3989d68f67f5b1dd12d60001c73ffffffffffffffffffffffffffffffffffffffff16633408e4706040518163ffffffff1660e01b8152600401602060405180830381865afa1580156124d9573d6000803e3d6000fd5b505050506040513d601f19601f820116820180604052508101906124fd9190615da0565b83836122eb565b5050565b6125a47f885cb69240a935d632d79c317109709ecfa91a80626ff3989d68f67f5b1dd12d60001c73ffffffffffffffffffffffffffffffffffffffff16633408e4706040518163ffffffff1660e01b8152600401602060405180830381865afa158015612579573d6000803e3d6000fd5b505050506040513d601f19601f8201168201806040525081019061259d9190615da0565b8383611fda565b5050565b60006040518060400160405280600360078111156125c9576125c86149ad565b5b81526020016000151581525090506125e284848361314e565b816040516020016125f39190615c51565b60405160208183030381529060405260036000868152602001908152602001600020846040516126239190615785565b9081526020016040518091039020908161263d91906159a8565b50600560009054906101000a900460ff1615612727576127268461267683600001516007811115612671576126706149ad565b5b6132b4565b856127217f885cb69240a935d632d79c317109709ecfa91a80626ff3989d68f67f5b1dd12d60001c73ffffffffffffffffffffffffffffffffffffffff1663b11a19e8886040518263ffffffff1660e01b81526004016126d69190615c51565b600060405180830381865afa1580156126f3573d6000803e3d6000fd5b505050506040513d6000823e3d601f19601f8201168201806040525081019061271c9190615aea565b6136a2565b6135d2565b5b50505050565b600060405180604001604052806006600781111561274e5761274d6149ad565b5b815260200160011515815250905061276784848361314e565b81604051602001612778919061635c565b60405160208183030381529060405260036000868152602001908152602001600020846040516127a89190615785565b908152602001604051809103902090816127c291906159a8565b50600560009054906101000a900460ff16156128f85760006040518060400160405280600181526020017f5b00000000000000000000000000000000000000000000000000000000000000815250905060005b83518110156128a9578161284285838151811061283557612834615c13565b5b60200260200101516136a2565b604051602001612853929190615c6c565b6040516020818303038152906040529150600184516128729190615cbf565b81101561289c578160405160200161288a9190615d19565b60405160208183030381529060405291505b8080600101915050612815565b50806040516020016128bb9190615d65565b60405160208183030381529060405290506128f6856128ef846000015160078111156128ea576128e96149ad565b5b6132b4565b86846135d2565b505b50505050565b8080156129a657507f885cb69240a935d632d79c317109709ecfa91a80626ff3989d68f67f5b1dd12d60001c73ffffffffffffffffffffffffffffffffffffffff166364af255d60046040518263ffffffff1660e01b815260040161296391906163c6565b602060405180830381865afa158015612980573d6000803e3d6000fd5b505050506040513d601f19601f820116820180604052508101906129a491906163f6565b155b156129dd576040517f2ebcd21800000000000000000000000000000000000000000000000000000000815260040160405180910390fd5b80600560006101000a81548160ff02191690831515021790555050565b6000604051806040016040528060046007811115612a1b57612a1a6149ad565b5b8152602001600115158152509050612a3484848361314e565b81604051602001612a4591906141ad565b6040516020818303038152906040526003600086815260200190815260200160002084604051612a759190615785565b90815260200160405180910390209081612a8f91906159a8565b50600560009054906101000a900460ff1615612c5e5760006040518060400160405280600181526020017f5b00000000000000000000000000000000000000000000000000000000000000815250905060005b8351811015612c0f57817f885cb69240a935d632d79c317109709ecfa91a80626ff3989d68f67f5b1dd12d60001c73ffffffffffffffffffffffffffffffffffffffff16636900a3ae868481518110612b3e57612b3d615c13565b5b60200260200101516040518263ffffffff1660e01b8152600401612b629190614467565b600060405180830381865afa158015612b7f573d6000803e3d6000fd5b505050506040513d6000823e3d601f19601f82011682018060405250810190612ba89190615aea565b604051602001612bb9929190615c6c565b604051602081830303815290604052915060018451612bd89190615cbf565b811015612c025781604051602001612bf09190615d19565b60405160208183030381529060405291505b8080600101915050612ae2565b5080604051602001612c219190615d65565b6040516020818303038152906040529050612c5c85612c5584600001516007811115612c5057612c4f6149ad565b5b6132b4565b86846135d2565b505b50505050565b612d007f885cb69240a935d632d79c317109709ecfa91a80626ff3989d68f67f5b1dd12d60001c73ffffffffffffffffffffffffffffffffffffffff16633408e4706040518163ffffffff1660e01b8152600401602060405180830381865afa158015612cd5573d6000803e3d6000fd5b505050506040513d601f19601f82011682018060405250810190612cf99190615da0565b8383611d70565b5050565b6000604051806040016040528060016007811115612d2557612d246149ad565b5b8152602001600115158152509050612d3e84848361314e565b81604051602001612d4f91906164d2565b6040516020818303038152906040526003600086815260200190815260200160002084604051612d7f9190615785565b90815260200160405180910390209081612d9991906159a8565b50600560009054906101000a900460ff1615612f685760006040518060400160405280600181526020017f5b00000000000000000000000000000000000000000000000000000000000000815250905060005b8351811015612f1957817f885cb69240a935d632d79c317109709ecfa91a80626ff3989d68f67f5b1dd12d60001c73ffffffffffffffffffffffffffffffffffffffff166371dce7da868481518110612e4857612e47615c13565b5b60200260200101516040518263ffffffff1660e01b8152600401612e6c9190616235565b600060405180830381865afa158015612e89573d6000803e3d6000fd5b505050506040513d6000823e3d601f19601f82011682018060405250810190612eb29190615aea565b604051602001612ec3929190615c6c565b604051602081830303815290604052915060018451612ee29190615cbf565b811015612f0c5781604051602001612efa9190615d19565b60405160208183030381529060405291505b8080600101915050612dec565b5080604051602001612f2b9190615d65565b6040516020818303038152906040529050612f6685612f5f84600001516007811115612f5a57612f596149ad565b5b6132b4565b86846135d2565b505b50505050565b61300a7f885cb69240a935d632d79c317109709ecfa91a80626ff3989d68f67f5b1dd12d60001c73ffffffffffffffffffffffffffffffffffffffff16633408e4706040518163ffffffff1660e01b8152600401602060405180830381865afa158015612fdf573d6000803e3d6000fd5b505050506040513d601f19601f820116820180604052508101906130039190615da0565b83836107bb565b5050565b6130aa7f885cb69240a935d632d79c317109709ecfa91a80626ff3989d68f67f5b1dd12d60001c73ffffffffffffffffffffffffffffffffffffffff16633408e4706040518163ffffffff1660e01b8152600401602060405180830381865afa15801561307f573d6000803e3d6000fd5b505050506040513d601f19601f820116820180604052508101906130a39190615da0565b83836117f2565b5050565b61314a7f885cb69240a935d632d79c317109709ecfa91a80626ff3989d68f67f5b1dd12d60001c73ffffffffffffffffffffffffffffffffffffffff16633408e4706040518163ffffffff1660e01b8152600401602060405180830381865afa15801561311f573d6000803e3d6000fd5b505050506040513d601f19601f820116820180604052508101906131439190615da0565b8383612d04565b5050565b600060046000858152602001908152602001600020836040516131719190615785565b90815260200160405180910390206040518060400160405290816000820160009054906101000a900460ff1660078111156131af576131ae6149ad565b5b60078111156131c1576131c06149ad565b5b81526020016000820160019054906101000a900460ff1615151515815250509050600060078111156131f6576131f56149ad565b5b8160000151600781111561320d5761320c6149ad565b5b0361329a578160046000868152602001908152602001600020846040516132349190615785565b908152602001604051809103902060008201518160000160006101000a81548160ff0219169083600781111561326d5761326c6149ad565b5b021790555060208201518160000160016101000a81548160ff0219169083151502179055509050506132ae565b6132ad82826136cb90919063ffffffff16565b5b50505050565b6060600160078111156132ca576132c96149ad565b5b8260078111156132dd576132dc6149ad565b5b0361331f576040518060400160405280600481526020017f626f6f6c0000000000000000000000000000000000000000000000000000000081525090506135cd565b60026007811115613333576133326149ad565b5b826007811115613346576133456149ad565b5b03613388576040518060400160405280600781526020017f616464726573730000000000000000000000000000000000000000000000000081525090506135cd565b6003600781111561339c5761339b6149ad565b5b8260078111156133af576133ae6149ad565b5b036133f1576040518060400160405280600781526020017f627974657333320000000000000000000000000000000000000000000000000081525090506135cd565b60046007811115613405576134046149ad565b5b826007811115613418576134176149ad565b5b0361345a576040518060400160405280600481526020017f75696e740000000000000000000000000000000000000000000000000000000081525090506135cd565b6005600781111561346e5761346d6149ad565b5b826007811115613481576134806149ad565b5b036134c3576040518060400160405280600381526020017f696e74000000000000000000000000000000000000000000000000000000000081525090506135cd565b600660078111156134d7576134d66149ad565b5b8260078111156134ea576134e96149ad565b5b0361352c576040518060400160405280600681526020017f737472696e67000000000000000000000000000000000000000000000000000081525090506135cd565b60078081111561353f5761353e6149ad565b5b826007811115613552576135516149ad565b5b03613594576040518060400160405280600581526020017f627974657300000000000000000000000000000000000000000000000000000081525090506135cd565b6040518060400160405280600481526020017f6e6f6e650000000000000000000000000000000000000000000000000000000081525090505b919050565b60006135dd8561372c565b905060008185856040516020016135f693929190616540565b60405160208183030381529060405290507f885cb69240a935d632d79c317109709ecfa91a80626ff3989d68f67f5b1dd12d60001c73ffffffffffffffffffffffffffffffffffffffff166351ac6a33846000846040518463ffffffff1660e01b815260040161366893929190616637565b600060405180830381600087803b15801561368257600080fd5b505af1158015613696573d6000803e3d6000fd5b50505050505050505050565b6060816040516020016136b591906166a9565b6040516020818303038152906040529050919050565b6136d582826138f2565b613728576136e281613942565b6136eb83613942565b6040517fb02cf71d00000000000000000000000000000000000000000000000000000000815260040161371f9291906166de565b60405180910390fd5b5050565b606060005b6001805490508110156138af57826137ee6001838154811061375657613755615c13565b5b90600052602060002001805461376b906157cb565b80601f0160208091040260200160405190810160405280929190818152602001828054613797906157cb565b80156137e45780601f106137b9576101008083540402835291602001916137e4565b820191906000526020600020905b8154815290600101906020018083116137c757829003601f168201915b5050505050610f14565b036138a2576001818154811061380757613806615c13565b5b90600052602060002001805461381c906157cb565b80601f0160208091040260200160405190810160405280929190818152602001828054613848906157cb565b80156138955780601f1061386a57610100808354040283529160200191613895565b820191906000526020600020905b81548152906001019060200180831161387857829003601f168201915b50505050509150506138ed565b8080600101915050613731565b50816040517f3ff29f060000000000000000000000000000000000000000000000000000000081526004016138e49190614467565b60405180910390fd5b919050565b60008160000151600781111561390b5761390a6149ad565b5b83600001516007811115613922576139216149ad565b5b14801561393a57508160200151151583602001511515145b905092915050565b6060600061395383600001516139c5565b90508260200151158061398e575060006007811115613975576139746149ad565b5b8360000151600781111561398c5761398b6149ad565b5b145b1561399c57809150506139c0565b806040516020016139ad919061673b565b6040516020818303038152906040529150505b919050565b6060600160078111156139db576139da6149ad565b5b8260078111156139ee576139ed6149ad565b5b03613a30576040518060400160405280600481526020017f626f6f6c000000000000000000000000000000000000000000000000000000008152509050613cde565b60026007811115613a4457613a436149ad565b5b826007811115613a5757613a566149ad565b5b03613a99576040518060400160405280600781526020017f61646472657373000000000000000000000000000000000000000000000000008152509050613cde565b60036007811115613aad57613aac6149ad565b5b826007811115613ac057613abf6149ad565b5b03613b02576040518060400160405280600781526020017f62797465733332000000000000000000000000000000000000000000000000008152509050613cde565b60046007811115613b1657613b156149ad565b5b826007811115613b2957613b286149ad565b5b03613b6b576040518060400160405280600781526020017f75696e74323536000000000000000000000000000000000000000000000000008152509050613cde565b60056007811115613b7f57613b7e6149ad565b5b826007811115613b9257613b916149ad565b5b03613bd4576040518060400160405280600681526020017f696e7432353600000000000000000000000000000000000000000000000000008152509050613cde565b60066007811115613be857613be76149ad565b5b826007811115613bfb57613bfa6149ad565b5b03613c3d576040518060400160405280600681526020017f737472696e6700000000000000000000000000000000000000000000000000008152509050613cde565b600780811115613c5057613c4f6149ad565b5b826007811115613c6357613c626149ad565b5b03613ca5576040518060400160405280600581526020017f62797465730000000000000000000000000000000000000000000000000000008152509050613cde565b6040518060400160405280600481526020017f6e6f6e650000000000000000000000000000000000000000000000000000000081525090505b919050565b6040518060400160405280613cf6613d03565b8152602001606081525090565b604051806040016040528060006007811115613d2257613d216149ad565b5b81526020016000151581525090565b6000604051905090565b600080fd5b600080fd5b6000819050919050565b613d5881613d45565b8114613d6357600080fd5b50565b600081359050613d7581613d4f565b92915050565b600080fd5b600080fd5b6000601f19601f8301169050919050565b7f4e487b7100000000000000000000000000000000000000000000000000000000600052604160045260246000fd5b613dce82613d85565b810181811067ffffffffffffffff82111715613ded57613dec613d96565b5b80604052505050565b6000613e00613d31565b9050613e0c8282613dc5565b919050565b600067ffffffffffffffff821115613e2c57613e2b613d96565b5b613e3582613d85565b9050602081019050919050565b82818337600083830152505050565b6000613e64613e5f84613e11565b613df6565b905082815260208101848484011115613e8057613e7f613d80565b5b613e8b848285613e42565b509392505050565b600082601f830112613ea857613ea7613d7b565b5b8135613eb8848260208601613e51565b91505092915050565b6000819050919050565b613ed481613ec1565b8114613edf57600080fd5b50565b600081359050613ef181613ecb565b92915050565b600080600060608486031215613f1057613f0f613d3b565b5b6000613f1e86828701613d66565b935050602084013567ffffffffffffffff811115613f3f57613f3e613d40565b5b613f4b86828701613e93565b9250506040613f5c86828701613ee2565b9150509250925092565b600067ffffffffffffffff821115613f8157613f80613d96565b5b602082029050602081019050919050565b600080fd5b6000819050919050565b613faa81613f97565b8114613fb557600080fd5b50565b600081359050613fc781613fa1565b92915050565b6000613fe0613fdb84613f66565b613df6565b9050808382526020820190506020840283018581111561400357614002613f92565b5b835b8181101561402c57806140188882613fb8565b845260208401935050602081019050614005565b5050509392505050565b600082601f83011261404b5761404a613d7b565b5b813561405b848260208601613fcd565b91505092915050565b60008060006060848603121561407d5761407c613d3b565b5b600061408b86828701613d66565b935050602084013567ffffffffffffffff8111156140ac576140ab613d40565b5b6140b886828701613e93565b925050604084013567ffffffffffffffff8111156140d9576140d8613d40565b5b6140e586828701614036565b9150509250925092565b600081519050919050565b600082825260208201905092915050565b6000819050602082019050919050565b61412481613d45565b82525050565b6000614136838361411b565b60208301905092915050565b6000602082019050919050565b600061415a826140ef565b61416481856140fa565b935061416f8361410b565b8060005b838110156141a0578151614187888261412a565b975061419283614142565b925050600181019050614173565b5085935050505092915050565b600060208201905081810360008301526141c7818461414f565b905092915050565b6000806000606084860312156141e8576141e7613d3b565b5b60006141f686828701613d66565b935050602084013567ffffffffffffffff81111561421757614216613d40565b5b61422386828701613e93565b925050604061423486828701613d66565b9150509250925092565b600067ffffffffffffffff82111561425957614258613d96565b5b61426282613d85565b9050602081019050919050565b600061428261427d8461423e565b613df6565b90508281526020810184848401111561429e5761429d613d80565b5b6142a9848285613e42565b509392505050565b600082601f8301126142c6576142c5613d7b565b5b81356142d684826020860161426f565b91505092915050565b600080604083850312156142f6576142f5613d3b565b5b600083013567ffffffffffffffff81111561431457614313613d40565b5b61432085828601613e93565b925050602083013567ffffffffffffffff81111561434157614340613d40565b5b61434d858286016142b1565b9150509250929050565b6000806040838503121561436e5761436d613d3b565b5b600083013567ffffffffffffffff81111561438c5761438b613d40565b5b61439885828601613e93565b92505060206143a985828601613fb8565b9150509250929050565b600080604083850312156143ca576143c9613d3b565b5b600083013567ffffffffffffffff8111156143e8576143e7613d40565b5b6143f485828601613e93565b925050602061440585828601613ee2565b9150509250929050565b60006020828403121561442557614424613d3b565b5b600082013567ffffffffffffffff81111561444357614442613d40565b5b61444f84828501613e93565b91505092915050565b61446181613d45565b82525050565b600060208201905061447c6000830184614458565b92915050565b600081519050919050565b600082825260208201905092915050565b60005b838110156144bc5780820151818401526020810190506144a1565b60008484015250505050565b60006144d382614482565b6144dd818561448d565b93506144ed81856020860161449e565b6144f681613d85565b840191505092915050565b6000602082019050818103600083015261451b81846144c8565b905092915050565b60008060006060848603121561453c5761453b613d3b565b5b600061454a86828701613d66565b935050602084013567ffffffffffffffff81111561456b5761456a613d40565b5b61457786828701613e93565b925050604084013567ffffffffffffffff81111561459857614597613d40565b5b6145a4868287016142b1565b9150509250925092565b600067ffffffffffffffff8211156145c9576145c8613d96565b5b602082029050602081019050919050565b60006145ed6145e8846145ae565b613df6565b905080838252602082019050602084028301858111156146105761460f613f92565b5b835b8181101561465757803567ffffffffffffffff81111561463557614634613d7b565b5b8086016146428982613e93565b85526020850194505050602081019050614612565b5050509392505050565b600082601f83011261467657614675613d7b565b5b81356146868482602086016145da565b91505092915050565b600080604083850312156146a6576146a5613d3b565b5b600083013567ffffffffffffffff8111156146c4576146c3613d40565b5b6146d085828601613e93565b925050602083013567ffffffffffffffff8111156146f1576146f0613d40565b5b6146fd85828601614661565b9150509250929050565b600073ffffffffffffffffffffffffffffffffffffffff82169050919050565b600061473282614707565b9050919050565b61474281614727565b811461474d57600080fd5b50565b60008135905061475f81614739565b92915050565b60008060006060848603121561477e5761477d613d3b565b5b600061478c86828701613d66565b935050602084013567ffffffffffffffff8111156147ad576147ac613d40565b5b6147b986828701613e93565b92505060406147ca86828701614750565b9150509250925092565b600067ffffffffffffffff8211156147ef576147ee613d96565b5b602082029050602081019050919050565b600061481361480e846147d4565b613df6565b9050808382526020820190506020840283018581111561483657614835613f92565b5b835b8181101561485f578061484b8882614750565b845260208401935050602081019050614838565b5050509392505050565b600082601f83011261487e5761487d613d7b565b5b813561488e848260208601614800565b91505092915050565b6000806000606084860312156148b0576148af613d3b565b5b60006148be86828701613d66565b935050602084013567ffffffffffffffff8111156148df576148de613d40565b5b6148eb86828701613e93565b925050604084013567ffffffffffffffff81111561490c5761490b613d40565b5b61491886828701614869565b9150509250925092565b60008060006060848603121561493b5761493a613d3b565b5b600061494986828701613d66565b935050602084013567ffffffffffffffff81111561496a57614969613d40565b5b61497686828701613e93565b925050604084013567ffffffffffffffff81111561499757614996613d40565b5b6149a386828701613e93565b9150509250925092565b7f4e487b7100000000000000000000000000000000000000000000000000000000600052602160045260246000fd5b600881106149ed576149ec6149ad565b5b50565b60008190506149fe826149dc565b919050565b6000614a0e826149f0565b9050919050565b614a1e81614a03565b82525050565b60008115159050919050565b614a3981614a24565b82525050565b604082016000820151614a556000850182614a15565b506020820151614a686020850182614a30565b50505050565b600081519050919050565b600082825260208201905092915050565b6000614a9582614a6e565b614a9f8185614a79565b9350614aaf81856020860161449e565b614ab881613d85565b840191505092915050565b6000606083016000830151614adb6000860182614a3f565b5060208301518482036040860152614af38282614a8a565b9150508091505092915050565b60006020820190508181036000830152614b1a8184614ac3565b905092915050565b600067ffffffffffffffff821115614b3d57614b3c613d96565b5b602082029050602081019050919050565b6000614b61614b5c84614b22565b613df6565b90508083825260208201905060208402830185811115614b8457614b83613f92565b5b835b81811015614bad5780614b998882613d66565b845260208401935050602081019050614b86565b5050509392505050565b600082601f830112614bcc57614bcb613d7b565b5b8135614bdc848260208601614b4e565b91505092915050565b60008060408385031215614bfc57614bfb613d3b565b5b600083013567ffffffffffffffff811115614c1a57614c19613d40565b5b614c2685828601613e93565b925050602083013567ffffffffffffffff811115614c4757614c46613d40565b5b614c5385828601614bb7565b9150509250929050565b600060208284031215614c7357614c72613d3b565b5b6000614c8184828501613d66565b91505092915050565b60008060408385031215614ca157614ca0613d3b565b5b6000614caf85828601613d66565b925050602083013567ffffffffffffffff811115614cd057614ccf613d40565b5b614cdc85828601613e93565b9150509250929050565b60008060408385031215614cfd57614cfc613d3b565b5b600083013567ffffffffffffffff811115614d1b57614d1a613d40565b5b614d2785828601613e93565b925050602083013567ffffffffffffffff811115614d4857614d47613d40565b5b614d5485828601614869565b9150509250929050565b60008060408385031215614d7557614d74613d3b565b5b600083013567ffffffffffffffff811115614d9357614d92613d40565b5b614d9f85828601613e93565b9250506020614db085828601613d66565b9150509250929050565b600067ffffffffffffffff821115614dd557614dd4613d96565b5b602082029050602081019050919050565b6000614df9614df484614dba565b613df6565b90508083825260208201905060208402830185811115614e1c57614e1b613f92565b5b835b81811015614e455780614e318882613ee2565b845260208401935050602081019050614e1e565b5050509392505050565b600082601f830112614e6457614e63613d7b565b5b8135614e74848260208601614de6565b91505092915050565b600080600060608486031215614e9657614e95613d3b565b5b6000614ea486828701613d66565b935050602084013567ffffffffffffffff811115614ec557614ec4613d40565b5b614ed186828701613e93565b925050604084013567ffffffffffffffff811115614ef257614ef1613d40565b5b614efe86828701614e4f565b9150509250925092565b600067ffffffffffffffff821115614f2357614f22613d96565b5b602082029050602081019050919050565b6000614f47614f4284614f08565b613df6565b90508083825260208201905060208402830185811115614f6a57614f69613f92565b5b835b81811015614fb157803567ffffffffffffffff811115614f8f57614f8e613d7b565b5b808601614f9c89826142b1565b85526020850194505050602081019050614f6c565b5050509392505050565b600082601f830112614fd057614fcf613d7b565b5b8135614fe0848260208601614f34565b91505092915050565b60008060006060848603121561500257615001613d3b565b5b600061501086828701613d66565b935050602084013567ffffffffffffffff81111561503157615030613d40565b5b61503d86828701613e93565b925050604084013567ffffffffffffffff81111561505e5761505d613d40565b5b61506a86828701614fbb565b9150509250925092565b6000806040838503121561508b5761508a613d3b565b5b600083013567ffffffffffffffff8111156150a9576150a8613d40565b5b6150b585828601613e93565b92505060206150c685828601614750565b9150509250929050565b6150d981614a24565b81146150e457600080fd5b50565b6000813590506150f6816150d0565b92915050565b60008060006060848603121561511557615114613d3b565b5b600061512386828701613d66565b935050602084013567ffffffffffffffff81111561514457615143613d40565b5b61515086828701613e93565b9250506040615161868287016150e7565b9150509250925092565b6000806040838503121561518257615181613d3b565b5b600083013567ffffffffffffffff8111156151a05761519f613d40565b5b6151ac85828601613e93565b92505060206151bd858286016150e7565b9150509250929050565b600080604083850312156151de576151dd613d3b565b5b600083013567ffffffffffffffff8111156151fc576151fb613d40565b5b61520885828601613e93565b925050602083013567ffffffffffffffff81111561522957615228613d40565b5b61523585828601614fbb565b9150509250929050565b60008060006060848603121561525857615257613d3b565b5b600061526686828701613d66565b935050602084013567ffffffffffffffff81111561528757615286613d40565b5b61529386828701613e93565b92505060406152a486828701613fb8565b9150509250925092565b6000806000606084860312156152c7576152c6613d3b565b5b60006152d586828701613d66565b935050602084013567ffffffffffffffff8111156152f6576152f5613d40565b5b61530286828701613e93565b925050604084013567ffffffffffffffff81111561532357615322613d40565b5b61532f86828701614661565b9150509250925092565b60006020828403121561534f5761534e613d3b565b5b600061535d848285016150e7565b91505092915050565b60008060006060848603121561537f5761537e613d3b565b5b600061538d86828701613d66565b935050602084013567ffffffffffffffff8111156153ae576153ad613d40565b5b6153ba86828701613e93565b925050604084013567ffffffffffffffff8111156153db576153da613d40565b5b6153e786828701614bb7565b9150509250925092565b6000806040838503121561540857615407613d3b565b5b600083013567ffffffffffffffff81111561542657615425613d40565b5b61543285828601613e93565b925050602083013567ffffffffffffffff81111561545357615452613d40565b5b61545f85828601614e4f565b9150509250929050565b600067ffffffffffffffff82111561548457615483613d96565b5b602082029050602081019050919050565b60006154a86154a384615469565b613df6565b905080838252602082019050602084028301858111156154cb576154ca613f92565b5b835b818110156154f457806154e088826150e7565b8452602084019350506020810190506154cd565b5050509392505050565b600082601f83011261551357615512613d7b565b5b8135615523848260208601615495565b91505092915050565b60008060006060848603121561554557615544613d3b565b5b600061555386828701613d66565b935050602084013567ffffffffffffffff81111561557457615573613d40565b5b61558086828701613e93565b925050604084013567ffffffffffffffff8111156155a1576155a0613d40565b5b6155ad868287016154fe565b9150509250925092565b600080604083850312156155ce576155cd613d3b565b5b600083013567ffffffffffffffff8111156155ec576155eb613d40565b5b6155f885828601613e93565b925050602083013567ffffffffffffffff81111561561957615618613d40565b5b61562585828601614036565b9150509250929050565b6000806040838503121561564657615645613d3b565b5b600083013567ffffffffffffffff81111561566457615663613d40565b5b61567085828601613e93565b925050602083013567ffffffffffffffff81111561569157615690613d40565b5b61569d85828601613e93565b9150509250929050565b600080604083850312156156be576156bd613d3b565b5b600083013567ffffffffffffffff8111156156dc576156db613d40565b5b6156e885828601613e93565b925050602083013567ffffffffffffffff81111561570957615708613d40565b5b615715858286016154fe565b9150509250929050565b61572881613ec1565b82525050565b6000602082019050615743600083018461571f565b92915050565b600081905092915050565b600061575f82614482565b6157698185615749565b935061577981856020860161449e565b80840191505092915050565b60006157918284615754565b915081905092915050565b7f4e487b7100000000000000000000000000000000000000000000000000000000600052602260045260246000fd5b600060028204905060018216806157e357607f821691505b6020821081036157f6576157f561579c565b5b50919050565b60008190508160005260206000209050919050565b60006020601f8301049050919050565b600082821b905092915050565b60006008830261585e7fffffffffffffffffffffffffffffffffffffffffffffffffffffffffffffffff82615821565b6158688683615821565b95508019841693508086168417925050509392505050565b6000819050919050565b60006158a56158a061589b84613d45565b615880565b613d45565b9050919050565b6000819050919050565b6158bf8361588a565b6158d36158cb826158ac565b84845461582e565b825550505050565b600090565b6158e86158db565b6158f38184846158b6565b505050565b5b818110156159175761590c6000826158e0565b6001810190506158f9565b5050565b601f82111561595c5761592d816157fc565b61593684615811565b81016020851015615945578190505b61595961595185615811565b8301826158f8565b50505b505050565b600082821c905092915050565b600061597f60001984600802615961565b1980831691505092915050565b6000615998838361596e565b9150826002028217905092915050565b6159b182614a6e565b67ffffffffffffffff8111156159ca576159c9613d96565b5b6159d482546157cb565b6159df82828561591b565b600060209050601f831160018114615a125760008415615a00578287015190505b615a0a858261598c565b865550615a72565b601f198416615a20866157fc565b60005b82811015615a4857848901518255600182019150602085019450602081019050615a23565b86831015615a655784890151615a61601f89168261596e565b8355505b6001600288020188555050505b505050505050565b6000615a8d615a8884613e11565b613df6565b905082815260208101848484011115615aa957615aa8613d80565b5b615ab484828561449e565b509392505050565b600082601f830112615ad157615ad0613d7b565b5b8151615ae1848260208601615a7a565b91505092915050565b600060208284031215615b0057615aff613d3b565b5b600082015167ffffffffffffffff811115615b1e57615b1d613d40565b5b615b2a84828501615abc565b91505092915050565b600081519050919050565b600082825260208201905092915050565b6000819050602082019050919050565b615b6881613f97565b82525050565b6000615b7a8383615b5f565b60208301905092915050565b6000602082019050919050565b6000615b9e82615b33565b615ba88185615b3e565b9350615bb383615b4f565b8060005b83811015615be4578151615bcb8882615b6e565b9750615bd683615b86565b925050600181019050615bb7565b5085935050505092915050565b60006020820190508181036000830152615c0b8184615b93565b905092915050565b7f4e487b7100000000000000000000000000000000000000000000000000000000600052603260045260246000fd5b615c4b81613f97565b82525050565b6000602082019050615c666000830184615c42565b92915050565b6000615c788285615754565b9150615c848284615754565b91508190509392505050565b7f4e487b7100000000000000000000000000000000000000000000000000000000600052601160045260246000fd5b6000615cca82613d45565b9150615cd583613d45565b9250828203905081811115615ced57615cec615c90565b5b92915050565b7f2c00000000000000000000000000000000000000000000000000000000000000815250565b6000615d258284615754565b9150615d3082615cf3565b60018201915081905092915050565b7f5d00000000000000000000000000000000000000000000000000000000000000815250565b6000615d718284615754565b9150615d7c82615d3f565b60018201915081905092915050565b600081519050615d9a81613d4f565b92915050565b600060208284031215615db657615db5613d3b565b5b6000615dc484828501615d8b565b91505092915050565b600080fd5b600080fd5b600060808284031215615ded57615dec615dcd565b5b615df76080613df6565b9050600082015167ffffffffffffffff811115615e1757615e16615dd2565b5b615e2384828501615abc565b6000830152506020615e3784828501615d8b565b602083015250604082015167ffffffffffffffff811115615e5b57615e5a615dd2565b5b615e6784828501615abc565b604083015250606082015167ffffffffffffffff811115615e8b57615e8a615dd2565b5b615e9784828501615abc565b60608301525092915050565b600060208284031215615eb957615eb8613d3b565b5b600082015167ffffffffffffffff811115615ed757615ed6613d40565b5b615ee384828501615dd7565b91505092915050565b600082825260208201905092915050565b6000615f0882614a6e565b615f128185615eec565b9350615f2281856020860161449e565b615f2b81613d85565b840191505092915050565b60006020820190508181036000830152615f508184615efd565b905092915050565b615f6181614727565b82525050565b6000602082019050615f7c6000830184615f58565b92915050565b600081519050919050565b600082825260208201905092915050565b6000819050602082019050919050565b615fb781614727565b82525050565b6000615fc98383615fae565b60208301905092915050565b6000602082019050919050565b6000615fed82615f82565b615ff78185615f8d565b935061600283615f9e565b8060005b8381101561603357815161601a8882615fbd565b975061602583615fd5565b925050600181019050616006565b5085935050505092915050565b6000602082019050818103600083015261605a8184615fe2565b905092915050565b600081519050919050565b600082825260208201905092915050565b6000819050602082019050919050565b61609781613ec1565b82525050565b60006160a9838361608e565b60208301905092915050565b6000602082019050919050565b60006160cd82616062565b6160d7818561606d565b93506160e28361607e565b8060005b838110156161135781516160fa888261609d565b9750616105836160b5565b9250506001810190506160e6565b5085935050505092915050565b6000602082019050818103600083015261613a81846160c2565b905092915050565b600081519050919050565b600082825260208201905092915050565b6000819050602082019050919050565b600061617a8383614a8a565b905092915050565b6000602082019050919050565b600061619a82616142565b6161a4818561614d565b9350836020820285016161b68561615e565b8060005b858110156161f257848403895281516161d3858261616e565b94506161de83616182565b925060208a019950506001810190506161ba565b50829750879550505050505092915050565b6000602082019050818103600083015261621e818461618f565b905092915050565b61622f81614a24565b82525050565b600060208201905061624a6000830184616226565b92915050565b600081519050919050565b600082825260208201905092915050565b6000819050602082019050919050565b600082825260208201905092915050565b600061629882614482565b6162a2818561627c565b93506162b281856020860161449e565b6162bb81613d85565b840191505092915050565b60006162d2838361628d565b905092915050565b6000602082019050919050565b60006162f282616250565b6162fc818561625b565b93508360208202850161630e8561626c565b8060005b8581101561634a578484038952815161632b85826162c6565b9450616336836162da565b925060208a01995050600181019050616312565b50829750879550505050505092915050565b6000602082019050818103600083015261637681846162e7565b905092915050565b6009811061638f5761638e6149ad565b5b50565b60008190506163a08261637e565b919050565b60006163b082616392565b9050919050565b6163c0816163a5565b82525050565b60006020820190506163db60008301846163b7565b92915050565b6000815190506163f0816150d0565b92915050565b60006020828403121561640c5761640b613d3b565b5b600061641a848285016163e1565b91505092915050565b600081519050919050565b600082825260208201905092915050565b6000819050602082019050919050565b600061645b8383614a30565b60208301905092915050565b6000602082019050919050565b600061647f82616423565b616489818561642e565b93506164948361643f565b8060005b838110156164c55781516164ac888261644f565b97506164b783616467565b925050600181019050616498565b5085935050505092915050565b600060208201905081810360008301526164ec8184616474565b905092915050565b7f242e000000000000000000000000000000000000000000000000000000000000815250565b7f2e00000000000000000000000000000000000000000000000000000000000000815250565b600061654b826164f4565b60028201915061655b8286615754565b91506165668261651a565b6001820191506165768285615754565b91506165818261651a565b6001820191506165918284615754565b9150819050949350505050565b60008190508160005260206000209050919050565b600081546165c0816157cb565b6165ca818661448d565b945060018216600081146165e557600181146165fb5761662e565b60ff19831686528115156020028601935061662e565b6166048561659e565b60005b8381101561662657815481890152600182019150602081019050616607565b808801955050505b50505092915050565b6000606082019050818103600083015261665181866144c8565b9050818103602083015261666581856165b3565b9050818103604083015261667981846144c8565b9050949350505050565b7f2200000000000000000000000000000000000000000000000000000000000000815250565b60006166b482616683565b6001820191506166c48284615754565b91506166cf82616683565b60018201915081905092915050565b600060408201905081810360008301526166f881856144c8565b9050818103602083015261670c81846144c8565b90509392505050565b7f5b5d000000000000000000000000000000000000000000000000000000000000815250565b60006167478284615754565b915061675282616715565b6002820191508190509291505056fea2646970667358221220a1069d14f773db98240b6198f05b1f625a47cf5308225e82b3aa9f1d8f8eae1864736f6c634300081e0033","linkReferences":{}},"methodIdentifiers":{"get(string)":"693ec85e","get(uint256,string)":"805da4ad","getChainIds()":"1d776323","getRpcUrl()":"43ec8b6a","getRpcUrl(uint256)":"7df3ef12","resolveChainId(string)":"3f3a7588","set(string,address)":"a815ff15","set(string,address[])":"88c63d45","set(string,bool)":"ba0ff22c","set(string,bool[])":"fa3c074a","set(string,bytes)":"2b29c0fa","set(string,bytes32)":"2e3196a5","set(string,bytes32[])":"e6053250","set(string,bytes[])":"c91ca7ba","set(string,int256)":"2ef8ba74","set(string,int256[])":"de0fc9b3","set(string,string)":"e942b516","set(string,string[])":"59b39526","set(string,uint256)":"8a42ebe9","set(string,uint256[])":"7b8fed81","set(uint256,string,address)":"5eba0df0","set(uint256,string,address[])":"61141c97","set(uint256,string,bool)":"b3a64001","set(uint256,string,bool[])":"e298d00b","set(uint256,string,bytes)":"4d85ce80","set(uint256,string,bytes32)":"cf1cfa99","set(uint256,string,bytes32[])":"08f7b4b2","set(uint256,string,bytes[])":"93dbe6e0","set(uint256,string,int256)":"07d79d9a","set(uint256,string,int256[])":"8be19924","set(uint256,string,string)":"65560950","set(uint256,string,string[])":"cf72a2f3","set(uint256,string,uint256)":"22dc48fd","set(uint256,string,uint256[])":"db0075df","writeUpdatesBackToFile(bool)":"d6698dc4"},"id":13}