{"abi":[{"type":"constructor","inputs":[{"name":"name","type":"string","internalType":"string"},{"name":"symbol","type":"string","internalType":"string"},{"name":"initialDecimals","type":"uint8","internalType":"uint8"},{"name":"initialSupply","type":"uint256","internalType":"uint256"}],"stateMutability":"nonpayable"},{"type":"function","name":"allowance","inputs":[{"name":"owner","type":"address","internalType":"address"},{"name":"spender","type":"address","internalType":"address"}],"outputs":[{"name":"","type":"uint256","internalType":"uint256"}],"stateMutability":"view"},{"type":"function","name":"approve","inputs":[{"name":"spender","type":"address","internalType":"address"},{"name":"value","type":"uint256","internalType":"uint256"}],"outputs":[{"name":"","type":"bool","internalType":"bool"}],"stateMutability":"nonpayable"},{"type":"function","name":"balanceOf","inputs":[{"name":"account","type":"address","internalType":"address"}],"outputs":[{"name":"","type":"uint256","internalType":"uint256"}],"stateMutability":"view"},{"type":"function","name":"decimals","inputs":[],"outputs":[{"name":"","type":"uint8","internalType":"uint8"}],"stateMutability":"view"},{"type":"function","name":"name","inputs":[],"outputs":[{"name":"","type":"string","internalType":"string"}],"stateMutability":"view"},{"type":"function","name":"symbol","inputs":[],"outputs":[{"name":"","type":"string","internalType":"string"}],"stateMutability":"view"},{"type":"function","name":"tokenDecimals","inputs":[],"outputs":[{"name":"","type":"uint8","internalType":"uint8"}],"stateMutability":"view"},{"type":"function","name":"totalSupply","inputs":[],"outputs":[{"name":"","type":"uint256","internalType":"uint256"}],"stateMutability":"view"},{"type":"function","name":"transfer","inputs":[{"name":"to","type":"address","internalType":"address"},{"name":"value","type":"uint256","internalType":"uint256"}],"outputs":[{"name":"","type":"bool","internalType":"bool"}],"stateMutability":"nonpayable"},{"type":"function","name":"transferFrom","inputs":[{"name":"from","type":"address","internalType":"address"},{"name":"to","type":"address","internalType":"address"},{"name":"value","type":"uint256","internalType":"uint256"}],"outputs":[{"name":"","type":"bool","internalType":"bool"}],"stateMutability":"nonpayable"},{"type":"event","name":"Approval","inputs":[{"name":"owner","type":"address","indexed":true,"internalType":"address"},{"name":"spender","type":"address","indexed":true,"internalType":"address"},{"name":"value","type":"uint256","indexed":false,"internalType":"uint256"}],"anonymous":false},{"type":"event","name":"Transfer","inputs":[{"name":"from","type":"address","indexed":true,"internalType":"address"},{"name":"to","type":"address","indexed":true,"internalType":"address"},{"name":"value","type":"uint256","indexed":false,"internalType":"uint256"}],"anonymous":false},{"type":"error","name":"ERC20InsufficientAllowance","inputs":[{"name":"spender","type":"address","internalType":"address"},{"name":"allowance","type":"uint256","internalType":"uint256"},{"name":"needed","type":"uint256","internalType":"uint256"}]},{"type":"error","name":"ERC20InsufficientBalance","inputs":[{"name":"sender","type":"address","internalType":"address"},{"name":"balance","type":"uint256","internalType":"uint256"},{"name":"needed","type":"uint256","internalType":"uint256"}]},{"type":"error","name":"ERC20InvalidApprover","inputs":[{"name":"approver","type":"address","internalType":"address"}]},{"type":"error","name":"ERC20InvalidReceiver","inputs":[{"name":"receiver","type":"address","internalType":"address"}]},{"type":"error","name":"ERC20InvalidSender","inputs":[{"name":"sender","type":"address","internalType":"address"}]},{"type":"error","name":"ERC20InvalidSpender","inputs":[{"name":"spender","type":"address","internalType":"address"}]}],"bytecode":{"object":"0x608060405234801561001057600080fd5b506040516118723803806118728339818101604052810190610032919061051b565b8383816003908161004391906107d1565b50806004908161005391906107d1565b50505081600560006101000a81548160ff021916908360ff160217905550610081338261008a60201b60201c565b505050506109c3565b600073ffffffffffffffffffffffffffffffffffffffff168273ffffffffffffffffffffffffffffffffffffffff16036100fc5760006040517fec442f050000000000000000000000000000000000000000000000000000000081526004016100f391906108e4565b60405180910390fd5b61010e6000838361011260201b60201c565b5050565b600073ffffffffffffffffffffffffffffffffffffffff168373ffffffffffffffffffffffffffffffffffffffff1603610164578060026000828254610158919061092e565b92505081905550610237565b60008060008573ffffffffffffffffffffffffffffffffffffffff1673ffffffffffffffffffffffffffffffffffffffff168152602001908152602001600020549050818110156101f0578381836040517fe450d38c0000000000000000000000000000000000000000000000000000000081526004016101e793929190610971565b60405180910390fd5b8181036000808673ffffffffffffffffffffffffffffffffffffffff1673ffffffffffffffffffffffffffffffffffffffff16815260200190815260200160002081905550505b600073ffffffffffffffffffffffffffffffffffffffff168273ffffffffffffffffffffffffffffffffffffffff160361028057806002600082825403925050819055506102cd565b806000808473ffffffffffffffffffffffffffffffffffffffff1673ffffffffffffffffffffffffffffffffffffffff168152602001908152602001600020600082825401925050819055505b8173ffffffffffffffffffffffffffffffffffffffff168373ffffffffffffffffffffffffffffffffffffffff167fddf252ad1be2c89b69c2b068fc378daa952ba7f163c4a11628f55a4df523b3ef8360405161032a91906109a8565b60405180910390a3505050565b6000604051905090565b600080fd5b600080fd5b600080fd5b600080fd5b6000601f19601f8301169050919050565b7f4e487b7100000000000000000000000000000000000000000000000000000000600052604160045260246000fd5b61039e82610355565b810181811067ffffffffffffffff821117156103bd576103bc610366565b5b80604052505050565b60006103d0610337565b90506103dc8282610395565b919050565b600067ffffffffffffffff8211156103fc576103fb610366565b5b61040582610355565b9050602081019050919050565b60005b83811015610430578082015181840152602081019050610415565b60008484015250505050565b600061044f61044a846103e1565b6103c6565b90508281526020810184848401111561046b5761046a610350565b5b610476848285610412565b509392505050565b600082601f8301126104935761049261034b565b5b81516104a384826020860161043c565b91505092915050565b600060ff82169050919050565b6104c2816104ac565b81146104cd57600080fd5b50565b6000815190506104df816104b9565b92915050565b6000819050919050565b6104f8816104e5565b811461050357600080fd5b50565b600081519050610515816104ef565b92915050565b6000806000806080858703121561053557610534610341565b5b600085015167ffffffffffffffff81111561055357610552610346565b5b61055f8782880161047e565b945050602085015167ffffffffffffffff8111156105805761057f610346565b5b61058c8782880161047e565b935050604061059d878288016104d0565b92505060606105ae87828801610506565b91505092959194509250565b600081519050919050565b7f4e487b7100000000000000000000000000000000000000000000000000000000600052602260045260246000fd5b6000600282049050600182168061060c57607f821691505b60208210810361061f5761061e6105c5565b5b50919050565b60008190508160005260206000209050919050565b60006020601f8301049050919050565b600082821b905092915050565b6000600883026106877fffffffffffffffffffffffffffffffffffffffffffffffffffffffffffffffff8261064a565b610691868361064a565b95508019841693508086168417925050509392505050565b6000819050919050565b60006106ce6106c96106c4846104e5565b6106a9565b6104e5565b9050919050565b6000819050919050565b6106e8836106b3565b6106fc6106f4826106d5565b848454610657565b825550505050565b600090565b610711610704565b61071c8184846106df565b505050565b5b8181101561074057610735600082610709565b600181019050610722565b5050565b601f8211156107855761075681610625565b61075f8461063a565b8101602085101561076e578190505b61078261077a8561063a565b830182610721565b50505b505050565b600082821c905092915050565b60006107a86000198460080261078a565b1980831691505092915050565b60006107c18383610797565b9150826002028217905092915050565b6107da826105ba565b67ffffffffffffffff8111156107f3576107f2610366565b5b6107fd82546105f4565b610808828285610744565b600060209050601f83116001811461083b5760008415610829578287015190505b61083385826107b5565b86555061089b565b601f19841661084986610625565b60005b828110156108715784890151825560018201915060208501945060208101905061084c565b8683101561088e578489015161088a601f891682610797565b8355505b6001600288020188555050505b505050505050565b600073ffffffffffffffffffffffffffffffffffffffff82169050919050565b60006108ce826108a3565b9050919050565b6108de816108c3565b82525050565b60006020820190506108f960008301846108d5565b92915050565b7f4e487b7100000000000000000000000000000000000000000000000000000000600052601160045260246000fd5b6000610939826104e5565b9150610944836104e5565b925082820190508082111561095c5761095b6108ff565b5b92915050565b61096b816104e5565b82525050565b600060608201905061098660008301866108d5565b6109936020830185610962565b6109a06040830184610962565b949350505050565b60006020820190506109bd6000830184610962565b92915050565b610ea0806109d26000396000f3fe608060405234801561001057600080fd5b506004361061009e5760003560e01c80633b97e856116100665780633b97e8561461015d57806370a082311461017b57806395d89b41146101ab578063a9059cbb146101c9578063dd62ed3e146101f95761009e565b806306fdde03146100a3578063095ea7b3146100c157806318160ddd146100f157806323b872dd1461010f578063313ce5671461013f575b600080fd5b6100ab610229565b6040516100b89190610af4565b60405180910390f35b6100db60048036038101906100d69190610baf565b6102bb565b6040516100e89190610c0a565b60405180910390f35b6100f96102de565b6040516101069190610c34565b60405180910390f35b61012960048036038101906101249190610c4f565b6102e8565b6040516101369190610c0a565b60405180910390f35b610147610317565b6040516101549190610cbe565b60405180910390f35b61016561032e565b6040516101729190610cbe565b60405180910390f35b61019560048036038101906101909190610cd9565b610341565b6040516101a29190610c34565b60405180910390f35b6101b3610389565b6040516101c09190610af4565b60405180910390f35b6101e360048036038101906101de9190610baf565b61041b565b6040516101f09190610c0a565b60405180910390f35b610213600480360381019061020e9190610d06565b61043e565b6040516102209190610c34565b60405180910390f35b60606003805461023890610d75565b80601f016020809104026020016040519081016040528092919081815260200182805461026490610d75565b80156102b15780601f10610286576101008083540402835291602001916102b1565b820191906000526020600020905b81548152906001019060200180831161029457829003601f168201915b5050505050905090565b6000806102c66104c5565b90506102d38185856104cd565b600191505092915050565b6000600254905090565b6000806102f36104c5565b90506103008582856104df565b61030b858585610574565b60019150509392505050565b6000600560009054906101000a900460ff16905090565b600560009054906101000a900460ff1681565b60008060008373ffffffffffffffffffffffffffffffffffffffff1673ffffffffffffffffffffffffffffffffffffffff168152602001908152602001600020549050919050565b60606004805461039890610d75565b80601f01602080910402602001604051908101604052809291908181526020018280546103c490610d75565b80156104115780601f106103e657610100808354040283529160200191610411565b820191906000526020600020905b8154815290600101906020018083116103f457829003601f168201915b5050505050905090565b6000806104266104c5565b9050610433818585610574565b600191505092915050565b6000600160008473ffffffffffffffffffffffffffffffffffffffff1673ffffffffffffffffffffffffffffffffffffffff16815260200190815260200160002060008373ffffffffffffffffffffffffffffffffffffffff1673ffffffffffffffffffffffffffffffffffffffff16815260200190815260200160002054905092915050565b600033905090565b6104da8383836001610668565b505050565b60006104eb848461043e565b90507fffffffffffffffffffffffffffffffffffffffffffffffffffffffffffffffff81101561056e578181101561055e578281836040517ffb8f41b200000000000000000000000000000000000000000000000000000000815260040161055593929190610db5565b60405180910390fd5b61056d84848484036000610668565b5b50505050565b600073ffffffffffffffffffffffffffffffffffffffff168373ffffffffffffffffffffffffffffffffffffffff16036105e65760006040517f96c6fd1e0000000000000000000000000000000000000000000000000000000081526004016105dd9190610dec565b60405180910390fd5b600073ffffffffffffffffffffffffffffffffffffffff168273ffffffffffffffffffffffffffffffffffffffff16036106585760006040517fec442f0500000000000000000000000000000000000000000000000000000000815260040161064f9190610dec565b60405180910390fd5b61066383838361083f565b505050565b600073ffffffffffffffffffffffffffffffffffffffff168473ffffffffffffffffffffffffffffffffffffffff16036106da5760006040517fe602df050000000000000000000000000000000000000000000000000000000081526004016106d19190610dec565b60405180910390fd5b600073ffffffffffffffffffffffffffffffffffffffff168373ffffffffffffffffffffffffffffffffffffffff160361074c5760006040517f94280d620000000000000000000000000000000000000000000000000000000081526004016107439190610dec565b60405180910390fd5b81600160008673ffffffffffffffffffffffffffffffffffffffff1673ffffffffffffffffffffffffffffffffffffffff16815260200190815260200160002060008573ffffffffffffffffffffffffffffffffffffffff1673ffffffffffffffffffffffffffffffffffffffff168152602001908152602001600020819055508015610839578273ffffffffffffffffffffffffffffffffffffffff168473ffffffffffffffffffffffffffffffffffffffff167f8c5be1e5ebec7d5bd14f71427d1e84f3dd0314c0f7b2291e5b200ac8c7c3b925846040516108309190610c34565b60405180910390a35b50505050565b600073ffffffffffffffffffffffffffffffffffffffff168373ffffffffffffffffffffffffffffffffffffffff16036108915780600260008282546108859190610e36565b92505081905550610964565b60008060008573ffffffffffffffffffffffffffffffffffffffff1673ffffffffffffffffffffffffffffffffffffffff1681526020019081526020016000205490508181101561091d578381836040517fe450d38c00000000000000000000000000000000000000000000000000000000815260040161091493929190610db5565b60405180910390fd5b8181036000808673ffffffffffffffffffffffffffffffffffffffff1673ffffffffffffffffffffffffffffffffffffffff16815260200190815260200160002081905550505b600073ffffffffffffffffffffffffffffffffffffffff168273ffffffffffffffffffffffffffffffffffffffff16036109ad57806002600082825403925050819055506109fa565b806000808473ffffffffffffffffffffffffffffffffffffffff1673ffffffffffffffffffffffffffffffffffffffff168152602001908152602001600020600082825401925050819055505b8173ffffffffffffffffffffffffffffffffffffffff168373ffffffffffffffffffffffffffffffffffffffff167fddf252ad1be2c89b69c2b068fc378daa952ba7f163c4a11628f55a4df523b3ef83604051610a579190610c34565b60405180910390a3505050565b600081519050919050565b600082825260208201905092915050565b60005b83811015610a9e578082015181840152602081019050610a83565b60008484015250505050565b6000601f19601f8301169050919050565b6000610ac682610a64565b610ad08185610a6f565b9350610ae0818560208601610a80565b610ae981610aaa565b840191505092915050565b60006020820190508181036000830152610b0e8184610abb565b905092915050565b600080fd5b600073ffffffffffffffffffffffffffffffffffffffff82169050919050565b6000610b4682610b1b565b9050919050565b610b5681610b3b565b8114610b6157600080fd5b50565b600081359050610b7381610b4d565b92915050565b6000819050919050565b610b8c81610b79565b8114610b9757600080fd5b50565b600081359050610ba981610b83565b92915050565b60008060408385031215610bc657610bc5610b16565b5b6000610bd485828601610b64565b9250506020610be585828601610b9a565b9150509250929050565b60008115159050919050565b610c0481610bef565b82525050565b6000602082019050610c1f6000830184610bfb565b92915050565b610c2e81610b79565b82525050565b6000602082019050610c496000830184610c25565b92915050565b600080600060608486031215610c6857610c67610b16565b5b6000610c7686828701610b64565b9350506020610c8786828701610b64565b9250506040610c9886828701610b9a565b9150509250925092565b600060ff82169050919050565b610cb881610ca2565b82525050565b6000602082019050610cd36000830184610caf565b92915050565b600060208284031215610cef57610cee610b16565b5b6000610cfd84828501610b64565b91505092915050565b60008060408385031215610d1d57610d1c610b16565b5b6000610d2b85828601610b64565b9250506020610d3c85828601610b64565b9150509250929050565b7f4e487b7100000000000000000000000000000000000000000000000000000000600052602260045260246000fd5b60006002820490506001821680610d8d57607f821691505b602082108103610da057610d9f610d46565b5b50919050565b610daf81610b3b565b82525050565b6000606082019050610dca6000830186610da6565b610dd76020830185610c25565b610de46040830184610c25565b949350505050565b6000602082019050610e016000830184610da6565b92915050565b7f4e487b7100000000000000000000000000000000000000000000000000000000600052601160045260246000fd5b6000610e4182610b79565b9150610e4c83610b79565b9250828201905080821115610e6457610e63610e07565b5b9291505056fea2646970667358221220a5424d8d602c92e92a13bbc4f1a81a77dfa73075d5c681afb331482e25ac76bb64736f6c634300081e0033","linkReferences":{}},"methodIdentifiers":{"allowance(address,address)":"dd62ed3e","approve(address,uint256)":"095ea7b3","balanceOf(address)":"70a08231","decimals()":"313ce567","name()":"06fdde03","symbol()":"95d89b41","tokenDecimals()":"3b97e856","totalSupply()":"18160ddd","transfer(address,uint256)":"a9059cbb","transferFrom(address,address,uint256)":"23b872dd"},"id":4}