{
  "contracts/MultiEscrow.sol": {
    "MultiEscrow": {
      "abi": [
        {
          "anonymous": false,
          "inputs": [
            {
              "indexed": false,
              "internalType": "string",
              "name": "tradeId",
              "type": "string"
            },
            {
              "indexed": false,
              "internalType": "address",
              "name": "seller",
              "type": "address"
            },
            {
              "indexed": false,
              "internalType": "address",
              "name": "buyer",
              "type": "address"
            },
            {
              "indexed": false,
              "internalType": "uint256",
              "name": "amount",
              "type": "uint256"
            },
            {
              "indexed": false,
              "internalType": "uint256",
              "name": "fractionForwarded",
              "type": "uint256"
            }
          ],
          "name": "Arbitrated",
          "type": "event"
        },
        {
          "anonymous": false,
          "inputs": [
            {
              "indexed": false,
              "internalType": "string",
              "name": "tradeId",
              "type": "string"
            },
            {
              "indexed": false,
              "internalType": "address",
              "name": "seller",
              "type": "address"
            },
            {
              "indexed": false,
              "internalType": "address",
              "name": "buyer",
              "type": "address"
            },
            {
              "indexed": false,
              "internalType": "uint256",
              "name": "amount",
              "type": "uint256"
            }
          ],
          "name": "Claimed",
          "type": "event"
        },
        {
          "anonymous": false,
          "inputs": [
            {
              "indexed": false,
              "internalType": "string",
              "name": "message",
              "type": "string"
            }
          ],
          "name": "DebugLog",
          "type": "event"
        },
        {
          "anonymous": false,
          "inputs": [
            {
              "indexed": false,
              "internalType": "string",
              "name": "tradeId",
              "type": "string"
            },
            {
              "indexed": false,
              "internalType": "address",
              "name": "buyer",
              "type": "address"
            },
            {
              "indexed": false,
              "internalType": "address",
              "name": "seller",
              "type": "address"
            },
            {
              "indexed": false,
              "internalType": "address",
              "name": "arbiter",
              "type": "address"
            },
            {
              "indexed": false,
              "internalType": "uint256",
              "name": "timelock",
              "type": "uint256"
            },
            {
              "indexed": false,
              "internalType": "uint256",
              "name": "escrowFee",
              "type": "uint256"
            }
          ],
          "name": "TradeCreated",
          "type": "event"
        },
        {
          "inputs": [
            {
              "internalType": "string",
              "name": "tradeId",
              "type": "string"
            },
            {
              "internalType": "uint256",
              "name": "factor",
              "type": "uint256"
            }
          ],
          "name": "arbitrate",
          "outputs": [],
          "stateMutability": "nonpayable",
          "type": "function"
        },
        {
          "inputs": [
            {
              "internalType": "string",
              "name": "tradeId",
              "type": "string"
            }
          ],
          "name": "claim",
          "outputs": [],
          "stateMutability": "nonpayable",
          "type": "function"
        },
        {
          "inputs": [
            {
              "internalType": "string",
              "name": "tradeId",
              "type": "string"
            },
            {
              "internalType": "address",
              "name": "_buyer",
              "type": "address"
            },
            {
              "internalType": "address",
              "name": "_seller",
              "type": "address"
            },
            {
              "internalType": "address",
              "name": "_arbiter",
              "type": "address"
            },
            {
              "internalType": "uint256",
              "name": "_timelock",
              "type": "uint256"
            },
            {
              "internalType": "uint256",
              "name": "_escrowFee",
              "type": "uint256"
            }
          ],
          "name": "createTrade",
          "outputs": [],
          "stateMutability": "payable",
          "type": "function"
        },
        {
          "inputs": [
            {
              "internalType": "string",
              "name": "",
              "type": "string"
            }
          ],
          "name": "trades",
          "outputs": [
            {
              "internalType": "address",
              "name": "buyer",
              "type": "address"
            },
            {
              "internalType": "address",
              "name": "seller",
              "type": "address"
            },
            {
              "internalType": "address",
              "name": "arbiter",
              "type": "address"
            },
            {
              "internalType": "uint256",
              "name": "amount",
              "type": "uint256"
            },
            {
              "internalType": "uint256",
              "name": "timelock",
              "type": "uint256"
            },
            {
              "internalType": "uint256",
              "name": "escrowFee",
              "type": "uint256"
            }
          ],
          "stateMutability": "view",
          "type": "function"
        }
      ],
      "evm": {
        "bytecode": {
          "linkReferences": {},
          "object": "6080604052348015600f57600080fd5b506117b98061001f6000396000f3fe60806040526004361061003f5760003560e01c806347a04100146100445780639499f40314610086578063d9dc7620146100af578063f3fe12c9146100cb575b600080fd5b34801561005057600080fd5b5061006b60048036038101906100669190610d5f565b6100f4565b60405161007d96959493929190610e02565b60405180910390f35b34801561009257600080fd5b506100ad60048036038101906100a89190610e8f565b6101a6565b005b6100c960048036038101906100c49190610f17565b61057c565b005b3480156100d757600080fd5b506100f260048036038101906100ed9190610d5f565b610903565b005b6000818051602081018201805184825260208301602085012081835280955050505050506000915090508060000160009054906101000a900473ffffffffffffffffffffffffffffffffffffffff16908060010160009054906101000a900473ffffffffffffffffffffffffffffffffffffffff16908060020160009054906101000a900473ffffffffffffffffffffffffffffffffffffffff16908060030154908060040154908060050154905086565b816000816040516101b79190611031565b908152602001604051809103902060020160009054906101000a900473ffffffffffffffffffffffffffffffffffffffff1673ffffffffffffffffffffffffffffffffffffffff163373ffffffffffffffffffffffffffffffffffffffff1614610256576040517f08c379a000000000000000000000000000000000000000000000000000000000815260040161024d906110cb565b60405180910390fd5b600080846040516102679190611031565b908152602001604051809103902090506000831180156102875750600183105b6102c6576040517f08c379a00000000000000000000000000000000000000000000000000000000081526004016102bd90611137565b60405180910390fd5b60006064826005015483600301546102de9190611186565b6102e891906111f7565b905060008183600301546102fc9190611228565b905060006001868361030e9190611186565b61031891906111f7565b9050600081111561038f578360010160009054906101000a900473ffffffffffffffffffffffffffffffffffffffff1673ffffffffffffffffffffffffffffffffffffffff166108fc829081150290604051600060405180830381858888f1935050505015801561038d573d6000803e3d6000fd5b505b828161039b919061125c565b8460030160008282546103ae9190611228565b925050819055506000846003015490506000811115610433578460000160009054906101000a900473ffffffffffffffffffffffffffffffffffffffff1673ffffffffffffffffffffffffffffffffffffffff166108fc829081150290604051600060405180830381858888f19350505050158015610431573d6000803e3d6000fd5b505b600085600301819055507fda52b70f3482b0760cf0fbc377496021f9c36eebe5710285c3edd737a135dacd888660010160009054906101000a900473ffffffffffffffffffffffffffffffffffffffff168760000160009054906101000a900473ffffffffffffffffffffffffffffffffffffffff16868b6040516104bc9594939291906112c9565b60405180910390a16000886040516104d49190611031565b9081526020016040518091039020600080820160006101000a81549073ffffffffffffffffffffffffffffffffffffffff02191690556001820160006101000a81549073ffffffffffffffffffffffffffffffffffffffff02191690556002820160006101000a81549073ffffffffffffffffffffffffffffffffffffffff021916905560038201600090556004820160009055600582016000905550505050505050505050565b7f4be5e2ddd7b814bfc07153581bbbda6ea3d62d61c270f9788cae2f0297e18ae86040516105a99061136f565b60405180910390a160006001106105f5576040517f08c379a00000000000000000000000000000000000000000000000000000000081526004016105ec906113db565b60405180910390fd5b600073ffffffffffffffffffffffffffffffffffffffff1660008760405161061d9190611031565b908152602001604051809103902060000160009054906101000a900473ffffffffffffffffffffffffffffffffffffffff1673ffffffffffffffffffffffffffffffffffffffff16146106a5576040517f08c379a000000000000000000000000000000000000000000000000000000000815260040161069c90611447565b60405180910390fd5b600034116106e8576040517f08c379a00000000000000000000000000000000000000000000000000000000081526004016106df906114d9565b60405180910390fd5b6000821161072b576040517f08c379a000000000000000000000000000000000000000000000000000000000815260040161072290611545565b60405180910390fd5b6040518060c001604052808673ffffffffffffffffffffffffffffffffffffffff1681526020018573ffffffffffffffffffffffffffffffffffffffff1681526020018473ffffffffffffffffffffffffffffffffffffffff16815260200160008152602001834261079d919061125c565b8152602001828152506000876040516107b69190611031565b908152602001604051809103902060008201518160000160006101000a81548173ffffffffffffffffffffffffffffffffffffffff021916908373ffffffffffffffffffffffffffffffffffffffff16021790555060208201518160010160006101000a81548173ffffffffffffffffffffffffffffffffffffffff021916908373ffffffffffffffffffffffffffffffffffffffff16021790555060408201518160020160006101000a81548173ffffffffffffffffffffffffffffffffffffffff021916908373ffffffffffffffffffffffffffffffffffffffff160217905550606082015181600301556080820151816004015560a082015181600501559050507f70c32ba1a3e7ddf23296dc9e251f1c54bcf8aa48365a9001ea9c0621927505e68686868686866040516108f396959493929190611565565b60405180910390a1505050505050565b600080826040516109149190611031565b908152602001604051809103902090508060010160009054906101000a900473ffffffffffffffffffffffffffffffffffffffff1673ffffffffffffffffffffffffffffffffffffffff163373ffffffffffffffffffffffffffffffffffffffff16146109b6576040517f08c379a00000000000000000000000000000000000000000000000000000000081526004016109ad9061163f565b60405180910390fd5b6212750081600401546109c9919061125c565b4211610a0a576040517f08c379a0000000000000000000000000000000000000000000000000000000008152600401610a01906116ab565b60405180910390fd5b6000816003015411610a51576040517f08c379a0000000000000000000000000000000000000000000000000000000008152600401610a4890611717565b60405180910390fd5b8060010160009054906101000a900473ffffffffffffffffffffffffffffffffffffffff1673ffffffffffffffffffffffffffffffffffffffff166108fc82600301549081150290604051600060405180830381858888f19350505050158015610abf573d6000803e3d6000fd5b50600081600301819055507fad0c006487cb4960db6b4c33e9c3af90353d172ab27ed6d48158abf220956508828260010160009054906101000a900473ffffffffffffffffffffffffffffffffffffffff168360000160009054906101000a900473ffffffffffffffffffffffffffffffffffffffff168460030154604051610b4b9493929190611737565b60405180910390a1600082604051610b639190611031565b9081526020016040518091039020600080820160006101000a81549073ffffffffffffffffffffffffffffffffffffffff02191690556001820160006101000a81549073ffffffffffffffffffffffffffffffffffffffff02191690556002820160006101000a81549073ffffffffffffffffffffffffffffffffffffffff021916905560038201600090556004820160009055600582016000905550505050565b6000604051905090565b600080fd5b600080fd5b600080fd5b600080fd5b6000601f19601f8301169050919050565b7f4e487b7100000000000000000000000000000000000000000000000000000000600052604160045260246000fd5b610c6c82610c23565b810181811067ffffffffffffffff82111715610c8b57610c8a610c34565b5b80604052505050565b6000610c9e610c05565b9050610caa8282610c63565b919050565b600067ffffffffffffffff821115610cca57610cc9610c34565b5b610cd382610c23565b9050602081019050919050565b82818337600083830152505050565b6000610d02610cfd84610caf565b610c94565b905082815260208101848484011115610d1e57610d1d610c1e565b5b610d29848285610ce0565b509392505050565b600082601f830112610d4657610d45610c19565b5b8135610d56848260208601610cef565b91505092915050565b600060208284031215610d7557610d74610c0f565b5b600082013567ffffffffffffffff811115610d9357610d92610c14565b5b610d9f84828501610d31565b91505092915050565b600073ffffffffffffffffffffffffffffffffffffffff82169050919050565b6000610dd382610da8565b9050919050565b610de381610dc8565b82525050565b6000819050919050565b610dfc81610de9565b82525050565b600060c082019050610e176000830189610dda565b610e246020830188610dda565b610e316040830187610dda565b610e3e6060830186610df3565b610e4b6080830185610df3565b610e5860a0830184610df3565b979650505050505050565b610e6c81610de9565b8114610e7757600080fd5b50565b600081359050610e8981610e63565b92915050565b60008060408385031215610ea657610ea5610c0f565b5b600083013567ffffffffffffffff811115610ec457610ec3610c14565b5b610ed085828601610d31565b9250506020610ee185828601610e7a565b9150509250929050565b610ef481610dc8565b8114610eff57600080fd5b50565b600081359050610f1181610eeb565b92915050565b60008060008060008060c08789031215610f3457610f33610c0f565b5b600087013567ffffffffffffffff811115610f5257610f51610c14565b5b610f5e89828a01610d31565b9650506020610f6f89828a01610f02565b9550506040610f8089828a01610f02565b9450506060610f9189828a01610f02565b9350506080610fa289828a01610e7a565b92505060a0610fb389828a01610e7a565b9150509295509295509295565b600081519050919050565b600081905092915050565b60005b83811015610ff4578082015181840152602081019050610fd9565b60008484015250505050565b600061100b82610fc0565b6110158185610fcb565b9350611025818560208601610fd6565b80840191505092915050565b600061103d8284611000565b915081905092915050565b600082825260208201905092915050565b7f4f6e6c7920617262697465722063616e2063616c6c20746869732066756e637460008201527f696f6e0000000000000000000000000000000000000000000000000000000000602082015250565b60006110b5602383611048565b91506110c082611059565b604082019050919050565b600060208201905081810360008301526110e4816110a8565b9050919050565b7f466163746f72206d757374206265206265747765656e203020616e6420310000600082015250565b6000611121601e83611048565b915061112c826110eb565b602082019050919050565b6000602082019050818103600083015261115081611114565b9050919050565b7f4e487b7100000000000000000000000000000000000000000000000000000000600052601160045260246000fd5b600061119182610de9565b915061119c83610de9565b92508282026111aa81610de9565b915082820484148315176111c1576111c0611157565b5b5092915050565b7f4e487b7100000000000000000000000000000000000000000000000000000000600052601260045260246000fd5b600061120282610de9565b915061120d83610de9565b92508261121d5761121c6111c8565b5b828204905092915050565b600061123382610de9565b915061123e83610de9565b925082820390508181111561125657611255611157565b5b92915050565b600061126782610de9565b915061127283610de9565b925082820190508082111561128a57611289611157565b5b92915050565b600061129b82610fc0565b6112a58185611048565b93506112b5818560208601610fd6565b6112be81610c23565b840191505092915050565b600060a08201905081810360008301526112e38188611290565b90506112f26020830187610dda565b6112ff6040830186610dda565b61130c6060830185610df3565b6113196080830184610df3565b9695505050505050565b7f547261646543726561746564206576656e7420656d6974746564000000000000600082015250565b6000611359601a83611048565b915061136482611323565b602082019050919050565b600060208201905081810360008301526113888161134c565b9050919050565b7f73616e69747920636865636b0000000000000000000000000000000000000000600082015250565b60006113c5600c83611048565b91506113d08261138f565b602082019050919050565b600060208201905081810360008301526113f4816113b8565b9050919050565b7f547261646520494420616c726561647920657869737473000000000000000000600082015250565b6000611431601783611048565b915061143c826113fb565b602082019050919050565b6000602082019050818103600083015261146081611424565b9050919050565b7f4d7573742073656e642066756e647320746f2063726561746520616e2065736360008201527f726f7720636f6e74726163740000000000000000000000000000000000000000602082015250565b60006114c3602c83611048565b91506114ce82611467565b604082019050919050565b600060208201905081810360008301526114f2816114b6565b9050919050565b7f54696d656c6f636b206d7573742062652067726561746572207468616e203000600082015250565b600061152f601f83611048565b915061153a826114f9565b602082019050919050565b6000602082019050818103600083015261155e81611522565b9050919050565b600060c082019050818103600083015261157f8189611290565b905061158e6020830188610dda565b61159b6040830187610dda565b6115a86060830186610dda565b6115b56080830185610df3565b6115c260a0830184610df3565b979650505050505050565b7f4f6e6c79207468652073656c6c65722063616e20636c61696d2074686520667560008201527f6e64730000000000000000000000000000000000000000000000000000000000602082015250565b6000611629602383611048565b9150611634826115cd565b604082019050919050565b600060208201905081810360008301526116588161161c565b9050919050565b7f436c61696d20706572696f6420686173206e6f74207374617274656420796574600082015250565b6000611695602083611048565b91506116a08261165f565b602082019050919050565b600060208201905081810360008301526116c481611688565b9050919050565b7f4e6f2066756e647320746f20636c61696d000000000000000000000000000000600082015250565b6000611701601183611048565b915061170c826116cb565b602082019050919050565b60006020820190508181036000830152611730816116f4565b9050919050565b600060808201905081810360008301526117518187611290565b90506117606020830186610dda565b61176d6040830185610dda565b61177a6060830184610df3565b9594505050505056fea264697066735822122054205369129a22902a6d3534723332f808b2778c4c0075a4cc2fad2f42a47a3964736f6c634300081c0033",
          "opcodes": "PUSH1 0x80 PUSH1 0x40 MSTORE CALLVALUE DUP1 ISZERO PUSH1 0xF JUMPI PUSH1 0x0 DUP1 REVERT JUMPDEST POP PUSH2 0x17B9 DUP1 PUSH2 0x1F PUSH1 0x0 CODECOPY PUSH1 0x0 RETURN INVALID PUSH1 0x80 PUSH1 0x40 MSTORE PUSH1 0x4 CALLDATASIZE LT PUSH2 0x3F JUMPI PUSH1 0x0 CALLDATALOAD PUSH1 0xE0 SHR DUP1 PUSH4 0x47A04100 EQ PUSH2 0x44 JUMPI DUP1 PUSH4 0x9499F403 EQ PUSH2 0x86 JUMPI DUP1 PUSH4 0xD9DC7620 EQ PUSH2 0xAF JUMPI DUP1 PUSH4 0xF3FE12C9 EQ PUSH2 0xCB JUMPI JUMPDEST PUSH1 0x0 DUP1 REVERT JUMPDEST CALLVALUE DUP1 ISZERO PUSH2 0x50 JUMPI PUSH1 0x0 DUP1 REVERT JUMPDEST POP PUSH2 0x6B PUSH1 0x4 DUP1 CALLDATASIZE SUB DUP2 ADD SWAP1 PUSH2 0x66 SWAP2 SWAP1 PUSH2 0xD5F JUMP JUMPDEST PUSH2 0xF4 JUMP JUMPDEST PUSH1 0x40 MLOAD PUSH2 0x7D SWAP7 SWAP6 SWAP5 SWAP4 SWAP3 SWAP2 SWAP1 PUSH2 0xE02 JUMP JUMPDEST PUSH1 0x40 MLOAD DUP1 SWAP2 SUB SWAP1 RETURN JUMPDEST CALLVALUE DUP1 ISZERO PUSH2 0x92 JUMPI PUSH1 0x0 DUP1 REVERT JUMPDEST POP PUSH2 0xAD PUSH1 0x4 DUP1 CALLDATASIZE SUB DUP2 ADD SWAP1 PUSH2 0xA8 SWAP2 SWAP1 PUSH2 0xE8F JUMP JUMPDEST PUSH2 0x1A6 JUMP JUMPDEST STOP JUMPDEST PUSH2 0xC9 PUSH1 0x4 DUP1 CALLDATASIZE SUB DUP2 ADD SWAP1 PUSH2 0xC4 SWAP2 SWAP1 PUSH2 0xF17 JUMP JUMPDEST PUSH2 0x57C JUMP JUMPDEST STOP JUMPDEST CALLVALUE DUP1 ISZERO PUSH2 0xD7 JUMPI PUSH1 0x0 DUP1 REVERT JUMPDEST POP PUSH2 0xF2 PUSH1 0x4 DUP1 CALLDATASIZE SUB DUP2 ADD SWAP1 PUSH2 0xED SWAP2 SWAP1 PUSH2 0xD5F JUMP JUMPDEST PUSH2 0x903 JUMP JUMPDEST STOP JUMPDEST PUSH1 0x0 DUP2 DUP1 MLOAD PUSH1 0x20 DUP2 ADD DUP3 ADD DUP1 MLOAD DUP5 DUP3 MSTORE PUSH1 0x20 DUP4 ADD PUSH1 0x20 DUP6 ADD KECCAK256 DUP2 DUP4 MSTORE DUP1 SWAP6 POP POP POP POP POP POP PUSH1 0x0 SWAP2 POP SWAP1 POP DUP1 PUSH1 0x0 ADD PUSH1 0x0 SWAP1 SLOAD SWAP1 PUSH2 0x100 EXP SWAP1 DIV PUSH20 0xFFFFFFFFFFFFFFFFFFFFFFFFFFFFFFFFFFFFFFFF AND SWAP1 DUP1 PUSH1 0x1 ADD PUSH1 0x0 SWAP1 SLOAD SWAP1 PUSH2 0x100 EXP SWAP1 DIV PUSH20 0xFFFFFFFFFFFFFFFFFFFFFFFFFFFFFFFFFFFFFFFF AND SWAP1 DUP1 PUSH1 0x2 ADD PUSH1 0x0 SWAP1 SLOAD SWAP1 PUSH2 0x100 EXP SWAP1 DIV PUSH20 0xFFFFFFFFFFFFFFFFFFFFFFFFFFFFFFFFFFFFFFFF AND SWAP1 DUP1 PUSH1 0x3 ADD SLOAD SWAP1 DUP1 PUSH1 0x4 ADD SLOAD SWAP1 DUP1 PUSH1 0x5 ADD SLOAD SWAP1 POP DUP7 JUMP JUMPDEST DUP2 PUSH1 0x0 DUP2 PUSH1 0x40 MLOAD PUSH2 0x1B7 SWAP2 SWAP1 PUSH2 0x1031 JUMP JUMPDEST SWAP1 DUP2 MSTORE PUSH1 0x20 ADD PUSH1 0x40 MLOAD DUP1 SWAP2 SUB SWAP1 KECCAK256 PUSH1 0x2 ADD PUSH1 0x0 SWAP1 SLOAD SWAP1 PUSH2 0x100 EXP SWAP1 DIV PUSH20 0xFFFFFFFFFFFFFFFFFFFFFFFFFFFFFFFFFFFFFFFF AND PUSH20 0xFFFFFFFFFFFFFFFFFFFFFFFFFFFFFFFFFFFFFFFF AND CALLER PUSH20 0xFFFFFFFFFFFFFFFFFFFFFFFFFFFFFFFFFFFFFFFF AND EQ PUSH2 0x256 JUMPI PUSH1 0x40 MLOAD PUSH32 0x8C379A000000000000000000000000000000000000000000000000000000000 DUP2 MSTORE PUSH1 0x4 ADD PUSH2 0x24D SWAP1 PUSH2 0x10CB JUMP JUMPDEST PUSH1 0x40 MLOAD DUP1 SWAP2 SUB SWAP1 REVERT JUMPDEST PUSH1 0x0 DUP1 DUP5 PUSH1 0x40 MLOAD PUSH2 0x267 SWAP2 SWAP1 PUSH2 0x1031 JUMP JUMPDEST SWAP1 DUP2 MSTORE PUSH1 0x20 ADD PUSH1 0x40 MLOAD DUP1 SWAP2 SUB SWAP1 KECCAK256 SWAP1 POP PUSH1 0x0 DUP4 GT DUP1 ISZERO PUSH2 0x287 JUMPI POP PUSH1 0x1 DUP4 LT JUMPDEST PUSH2 0x2C6 JUMPI PUSH1 0x40 MLOAD PUSH32 0x8C379A000000000000000000000000000000000000000000000000000000000 DUP2 MSTORE PUSH1 0x4 ADD PUSH2 0x2BD SWAP1 PUSH2 0x1137 JUMP JUMPDEST PUSH1 0x40 MLOAD DUP1 SWAP2 SUB SWAP1 REVERT JUMPDEST PUSH1 0x0 PUSH1 0x64 DUP3 PUSH1 0x5 ADD SLOAD DUP4 PUSH1 0x3 ADD SLOAD PUSH2 0x2DE SWAP2 SWAP1 PUSH2 0x1186 JUMP JUMPDEST PUSH2 0x2E8 SWAP2 SWAP1 PUSH2 0x11F7 JUMP JUMPDEST SWAP1 POP PUSH1 0x0 DUP2 DUP4 PUSH1 0x3 ADD SLOAD PUSH2 0x2FC SWAP2 SWAP1 PUSH2 0x1228 JUMP JUMPDEST SWAP1 POP PUSH1 0x0 PUSH1 0x1 DUP7 DUP4 PUSH2 0x30E SWAP2 SWAP1 PUSH2 0x1186 JUMP JUMPDEST PUSH2 0x318 SWAP2 SWAP1 PUSH2 0x11F7 JUMP JUMPDEST SWAP1 POP PUSH1 0x0 DUP2 GT ISZERO PUSH2 0x38F JUMPI DUP4 PUSH1 0x1 ADD PUSH1 0x0 SWAP1 SLOAD SWAP1 PUSH2 0x100 EXP SWAP1 DIV PUSH20 0xFFFFFFFFFFFFFFFFFFFFFFFFFFFFFFFFFFFFFFFF AND PUSH20 0xFFFFFFFFFFFFFFFFFFFFFFFFFFFFFFFFFFFFFFFF AND PUSH2 0x8FC DUP3 SWAP1 DUP2 ISZERO MUL SWAP1 PUSH1 0x40 MLOAD PUSH1 0x0 PUSH1 0x40 MLOAD DUP1 DUP4 SUB DUP2 DUP6 DUP9 DUP9 CALL SWAP4 POP POP POP POP ISZERO DUP1 ISZERO PUSH2 0x38D JUMPI RETURNDATASIZE PUSH1 0x0 DUP1 RETURNDATACOPY RETURNDATASIZE PUSH1 0x0 REVERT JUMPDEST POP JUMPDEST DUP3 DUP2 PUSH2 0x39B SWAP2 SWAP1 PUSH2 0x125C JUMP JUMPDEST DUP5 PUSH1 0x3 ADD PUSH1 0x0 DUP3 DUP3 SLOAD PUSH2 0x3AE SWAP2 SWAP1 PUSH2 0x1228 JUMP JUMPDEST SWAP3 POP POP DUP2 SWAP1 SSTORE POP PUSH1 0x0 DUP5 PUSH1 0x3 ADD SLOAD SWAP1 POP PUSH1 0x0 DUP2 GT ISZERO PUSH2 0x433 JUMPI DUP5 PUSH1 0x0 ADD PUSH1 0x0 SWAP1 SLOAD SWAP1 PUSH2 0x100 EXP SWAP1 DIV PUSH20 0xFFFFFFFFFFFFFFFFFFFFFFFFFFFFFFFFFFFFFFFF AND PUSH20 0xFFFFFFFFFFFFFFFFFFFFFFFFFFFFFFFFFFFFFFFF AND PUSH2 0x8FC DUP3 SWAP1 DUP2 ISZERO MUL SWAP1 PUSH1 0x40 MLOAD PUSH1 0x0 PUSH1 0x40 MLOAD DUP1 DUP4 SUB DUP2 DUP6 DUP9 DUP9 CALL SWAP4 POP POP POP POP ISZERO DUP1 ISZERO PUSH2 0x431 JUMPI RETURNDATASIZE PUSH1 0x0 DUP1 RETURNDATACOPY RETURNDATASIZE PUSH1 0x0 REVERT JUMPDEST POP JUMPDEST PUSH1 0x0 DUP6 PUSH1 0x3 ADD DUP2 SWAP1 SSTORE POP PUSH32 0xDA52B70F3482B0760CF0FBC377496021F9C36EEBE5710285C3EDD737A135DACD DUP9 DUP7 PUSH1 0x1 ADD PUSH1 0x0 SWAP1 SLOAD SWAP1 PUSH2 0x100 EXP SWAP1 DIV PUSH20 0xFFFFFFFFFFFFFFFFFFFFFFFFFFFFFFFFFFFFFFFF AND DUP8 PUSH1 0x0 ADD PUSH1 0x0 SWAP1 SLOAD SWAP1 PUSH2 0x100 EXP SWAP1 DIV PUSH20 0xFFFFFFFFFFFFFFFFFFFFFFFFFFFFFFFFFFFFFFFF AND DUP7 DUP12 PUSH1 0x40 MLOAD PUSH2 0x4BC SWAP6 SWAP5 SWAP4 SWAP3 SWAP2 SWAP1 PUSH2 0x12C9 JUMP JUMPDEST PUSH1 0x40 MLOAD DUP1 SWAP2 SUB SWAP1 LOG1 PUSH1 0x0 DUP9 PUSH1 0x40 MLOAD PUSH2 0x4D4 SWAP2 SWAP1 PUSH2 0x1031 JUMP JUMPDEST SWAP1 DUP2 MSTORE PUSH1 0x20 ADD PUSH1 0x40 MLOAD DUP1 SWAP2 SUB SWAP1 KECCAK256 PUSH1 0x0 DUP1 DUP3 ADD PUSH1 0x0 PUSH2 0x100 EXP DUP2 SLOAD SWAP1 PUSH20 0xFFFFFFFFFFFFFFFFFFFFFFFFFFFFFFFFFFFFFFFF MUL NOT AND SWAP1 SSTORE PUSH1 0x1 DUP3 ADD PUSH1 0x0 PUSH2 0x100 EXP DUP2 SLOAD SWAP1 PUSH20 0xFFFFFFFFFFFFFFFFFFFFFFFFFFFFFFFFFFFFFFFF MUL NOT AND SWAP1 SSTORE PUSH1 0x2 DUP3 ADD PUSH1 0x0 PUSH2 0x100 EXP DUP2 SLOAD SWAP1 PUSH20 0xFFFFFFFFFFFFFFFFFFFFFFFFFFFFFFFFFFFFFFFF MUL NOT AND SWAP1 SSTORE PUSH1 0x3 DUP3 ADD PUSH1 0x0 SWAP1 SSTORE PUSH1 0x4 DUP3 ADD PUSH1 0x0 SWAP1 SSTORE PUSH1 0x5 DUP3 ADD PUSH1 0x0 SWAP1 SSTORE POP POP POP POP POP POP POP POP POP POP JUMP JUMPDEST PUSH32 0x4BE5E2DDD7B814BFC07153581BBBDA6EA3D62D61C270F9788CAE2F0297E18AE8 PUSH1 0x40 MLOAD PUSH2 0x5A9 SWAP1 PUSH2 0x136F JUMP JUMPDEST PUSH1 0x40 MLOAD DUP1 SWAP2 SUB SWAP1 LOG1 PUSH1 0x0 PUSH1 0x1 LT PUSH2 0x5F5 JUMPI PUSH1 0x40 MLOAD PUSH32 0x8C379A000000000000000000000000000000000000000000000000000000000 DUP2 MSTORE PUSH1 0x4 ADD PUSH2 0x5EC SWAP1 PUSH2 0x13DB JUMP JUMPDEST PUSH1 0x40 MLOAD DUP1 SWAP2 SUB SWAP1 REVERT JUMPDEST PUSH1 0x0 PUSH20 0xFFFFFFFFFFFFFFFFFFFFFFFFFFFFFFFFFFFFFFFF AND PUSH1 0x0 DUP8 PUSH1 0x40 MLOAD PUSH2 0x61D SWAP2 SWAP1 PUSH2 0x1031 JUMP JUMPDEST SWAP1 DUP2 MSTORE PUSH1 0x20 ADD PUSH1 0x40 MLOAD DUP1 SWAP2 SUB SWAP1 KECCAK256 PUSH1 0x0 ADD PUSH1 0x0 SWAP1 SLOAD SWAP1 PUSH2 0x100 EXP SWAP1 DIV PUSH20 0xFFFFFFFFFFFFFFFFFFFFFFFFFFFFFFFFFFFFFFFF AND PUSH20 0xFFFFFFFFFFFFFFFFFFFFFFFFFFFFFFFFFFFFFFFF AND EQ PUSH2 0x6A5 JUMPI PUSH1 0x40 MLOAD PUSH32 0x8C379A000000000000000000000000000000000000000000000000000000000 DUP2 MSTORE PUSH1 0x4 ADD PUSH2 0x69C SWAP1 PUSH2 0x1447 JUMP JUMPDEST PUSH1 0x40 MLOAD DUP1 SWAP2 SUB SWAP1 REVERT JUMPDEST PUSH1 0x0 CALLVALUE GT PUSH2 0x6E8 JUMPI PUSH1 0x40 MLOAD PUSH32 0x8C379A000000000000000000000000000000000000000000000000000000000 DUP2 MSTORE PUSH1 0x4 ADD PUSH2 0x6DF SWAP1 PUSH2 0x14D9 JUMP JUMPDEST PUSH1 0x40 MLOAD DUP1 SWAP2 SUB SWAP1 REVERT JUMPDEST PUSH1 0x0 DUP3 GT PUSH2 0x72B JUMPI PUSH1 0x40 MLOAD PUSH32 0x8C379A000000000000000000000000000000000000000000000000000000000 DUP2 MSTORE PUSH1 0x4 ADD PUSH2 0x722 SWAP1 PUSH2 0x1545 JUMP JUMPDEST PUSH1 0x40 MLOAD DUP1 SWAP2 SUB SWAP1 REVERT JUMPDEST PUSH1 0x40 MLOAD DUP1 PUSH1 0xC0 ADD PUSH1 0x40 MSTORE DUP1 DUP7 PUSH20 0xFFFFFFFFFFFFFFFFFFFFFFFFFFFFFFFFFFFFFFFF AND DUP2 MSTORE PUSH1 0x20 ADD DUP6 PUSH20 0xFFFFFFFFFFFFFFFFFFFFFFFFFFFFFFFFFFFFFFFF AND DUP2 MSTORE PUSH1 0x20 ADD DUP5 PUSH20 0xFFFFFFFFFFFFFFFFFFFFFFFFFFFFFFFFFFFFFFFF AND DUP2 MSTORE PUSH1 0x20 ADD PUSH1 0x0 DUP2 MSTORE PUSH1 0x20 ADD DUP4 TIMESTAMP PUSH2 0x79D SWAP2 SWAP1 PUSH2 0x125C JUMP JUMPDEST DUP2 MSTORE PUSH1 0x20 ADD DUP3 DUP2 MSTORE POP PUSH1 0x0 DUP8 PUSH1 0x40 MLOAD PUSH2 0x7B6 SWAP2 SWAP1 PUSH2 0x1031 JUMP JUMPDEST SWAP1 DUP2 MSTORE PUSH1 0x20 ADD PUSH1 0x40 MLOAD DUP1 SWAP2 SUB SWAP1 KECCAK256 PUSH1 0x0 DUP3 ADD MLOAD DUP2 PUSH1 0x0 ADD PUSH1 0x0 PUSH2 0x100 EXP DUP2 SLOAD DUP2 PUSH20 0xFFFFFFFFFFFFFFFFFFFFFFFFFFFFFFFFFFFFFFFF MUL NOT AND SWAP1 DUP4 PUSH20 0xFFFFFFFFFFFFFFFFFFFFFFFFFFFFFFFFFFFFFFFF AND MUL OR SWAP1 SSTORE POP PUSH1 0x20 DUP3 ADD MLOAD DUP2 PUSH1 0x1 ADD PUSH1 0x0 PUSH2 0x100 EXP DUP2 SLOAD DUP2 PUSH20 0xFFFFFFFFFFFFFFFFFFFFFFFFFFFFFFFFFFFFFFFF MUL NOT AND SWAP1 DUP4 PUSH20 0xFFFFFFFFFFFFFFFFFFFFFFFFFFFFFFFFFFFFFFFF AND MUL OR SWAP1 SSTORE POP PUSH1 0x40 DUP3 ADD MLOAD DUP2 PUSH1 0x2 ADD PUSH1 0x0 PUSH2 0x100 EXP DUP2 SLOAD DUP2 PUSH20 0xFFFFFFFFFFFFFFFFFFFFFFFFFFFFFFFFFFFFFFFF MUL NOT AND SWAP1 DUP4 PUSH20 0xFFFFFFFFFFFFFFFFFFFFFFFFFFFFFFFFFFFFFFFF AND MUL OR SWAP1 SSTORE POP PUSH1 0x60 DUP3 ADD MLOAD DUP2 PUSH1 0x3 ADD SSTORE PUSH1 0x80 DUP3 ADD MLOAD DUP2 PUSH1 0x4 ADD SSTORE PUSH1 0xA0 DUP3 ADD MLOAD DUP2 PUSH1 0x5 ADD SSTORE SWAP1 POP POP PUSH32 0x70C32BA1A3E7DDF23296DC9E251F1C54BCF8AA48365A9001EA9C0621927505E6 DUP7 DUP7 DUP7 DUP7 DUP7 DUP7 PUSH1 0x40 MLOAD PUSH2 0x8F3 SWAP7 SWAP6 SWAP5 SWAP4 SWAP3 SWAP2 SWAP1 PUSH2 0x1565 JUMP JUMPDEST PUSH1 0x40 MLOAD DUP1 SWAP2 SUB SWAP1 LOG1 POP POP POP POP POP POP JUMP JUMPDEST PUSH1 0x0 DUP1 DUP3 PUSH1 0x40 MLOAD PUSH2 0x914 SWAP2 SWAP1 PUSH2 0x1031 JUMP JUMPDEST SWAP1 DUP2 MSTORE PUSH1 0x20 ADD PUSH1 0x40 MLOAD DUP1 SWAP2 SUB SWAP1 KECCAK256 SWAP1 POP DUP1 PUSH1 0x1 ADD PUSH1 0x0 SWAP1 SLOAD SWAP1 PUSH2 0x100 EXP SWAP1 DIV PUSH20 0xFFFFFFFFFFFFFFFFFFFFFFFFFFFFFFFFFFFFFFFF AND PUSH20 0xFFFFFFFFFFFFFFFFFFFFFFFFFFFFFFFFFFFFFFFF AND CALLER PUSH20 0xFFFFFFFFFFFFFFFFFFFFFFFFFFFFFFFFFFFFFFFF AND EQ PUSH2 0x9B6 JUMPI PUSH1 0x40 MLOAD PUSH32 0x8C379A000000000000000000000000000000000000000000000000000000000 DUP2 MSTORE PUSH1 0x4 ADD PUSH2 0x9AD SWAP1 PUSH2 0x163F JUMP JUMPDEST PUSH1 0x40 MLOAD DUP1 SWAP2 SUB SWAP1 REVERT JUMPDEST PUSH3 0x127500 DUP2 PUSH1 0x4 ADD SLOAD PUSH2 0x9C9 SWAP2 SWAP1 PUSH2 0x125C JUMP JUMPDEST TIMESTAMP GT PUSH2 0xA0A JUMPI PUSH1 0x40 MLOAD PUSH32 0x8C379A000000000000000000000000000000000000000000000000000000000 DUP2 MSTORE PUSH1 0x4 ADD PUSH2 0xA01 SWAP1 PUSH2 0x16AB JUMP JUMPDEST PUSH1 0x40 MLOAD DUP1 SWAP2 SUB SWAP1 REVERT JUMPDEST PUSH1 0x0 DUP2 PUSH1 0x3 ADD SLOAD GT PUSH2 0xA51 JUMPI PUSH1 0x40 MLOAD PUSH32 0x8C379A000000000000000000000000000000000000000000000000000000000 DUP2 MSTORE PUSH1 0x4 ADD PUSH2 0xA48 SWAP1 PUSH2 0x1717 JUMP JUMPDEST PUSH1 0x40 MLOAD DUP1 SWAP2 SUB SWAP1 REVERT JUMPDEST DUP1 PUSH1 0x1 ADD PUSH1 0x0 SWAP1 SLOAD SWAP1 PUSH2 0x100 EXP SWAP1 DIV PUSH20 0xFFFFFFFFFFFFFFFFFFFFFFFFFFFFFFFFFFFFFFFF AND PUSH20 0xFFFFFFFFFFFFFFFFFFFFFFFFFFFFFFFFFFFFFFFF AND PUSH2 0x8FC DUP3 PUSH1 0x3 ADD SLOAD SWAP1 DUP2 ISZERO MUL SWAP1 PUSH1 0x40 MLOAD PUSH1 0x0 PUSH1 0x40 MLOAD DUP1 DUP4 SUB DUP2 DUP6 DUP9 DUP9 CALL SWAP4 POP POP POP POP ISZERO DUP1 ISZERO PUSH2 0xABF JUMPI RETURNDATASIZE PUSH1 0x0 DUP1 RETURNDATACOPY RETURNDATASIZE PUSH1 0x0 REVERT JUMPDEST POP PUSH1 0x0 DUP2 PUSH1 0x3 ADD DUP2 SWAP1 SSTORE POP PUSH32 0xAD0C006487CB4960DB6B4C33E9C3AF90353D172AB27ED6D48158ABF220956508 DUP3 DUP3 PUSH1 0x1 ADD PUSH1 0x0 SWAP1 SLOAD SWAP1 PUSH2 0x100 EXP SWAP1 DIV PUSH20 0xFFFFFFFFFFFFFFFFFFFFFFFFFFFFFFFFFFFFFFFF AND DUP4 PUSH1 0x0 ADD PUSH1 0x0 SWAP1 SLOAD SWAP1 PUSH2 0x100 EXP SWAP1 DIV PUSH20 0xFFFFFFFFFFFFFFFFFFFFFFFFFFFFFFFFFFFFFFFF AND DUP5 PUSH1 0x3 ADD SLOAD PUSH1 0x40 MLOAD PUSH2 0xB4B SWAP5 SWAP4 SWAP3 SWAP2 SWAP1 PUSH2 0x1737 JUMP JUMPDEST PUSH1 0x40 MLOAD DUP1 SWAP2 SUB SWAP1 LOG1 PUSH1 0x0 DUP3 PUSH1 0x40 MLOAD PUSH2 0xB63 SWAP2 SWAP1 PUSH2 0x1031 JUMP JUMPDEST SWAP1 DUP2 MSTORE PUSH1 0x20 ADD PUSH1 0x40 MLOAD DUP1 SWAP2 SUB SWAP1 KECCAK256 PUSH1 0x0 DUP1 DUP3 ADD PUSH1 0x0 PUSH2 0x100 EXP DUP2 SLOAD SWAP1 PUSH20 0xFFFFFFFFFFFFFFFFFFFFFFFFFFFFFFFFFFFFFFFF MUL NOT AND SWAP1 SSTORE PUSH1 0x1 DUP3 ADD PUSH1 0x0 PUSH2 0x100 EXP DUP2 SLOAD SWAP1 PUSH20 0xFFFFFFFFFFFFFFFFFFFFFFFFFFFFFFFFFFFFFFFF MUL NOT AND SWAP1 SSTORE PUSH1 0x2 DUP3 ADD PUSH1 0x0 PUSH2 0x100 EXP DUP2 SLOAD SWAP1 PUSH20 0xFFFFFFFFFFFFFFFFFFFFFFFFFFFFFFFFFFFFFFFF MUL NOT AND SWAP1 SSTORE PUSH1 0x3 DUP3 ADD PUSH1 0x0 SWAP1 SSTORE PUSH1 0x4 DUP3 ADD PUSH1 0x0 SWAP1 SSTORE PUSH1 0x5 DUP3 ADD PUSH1 0x0 SWAP1 SSTORE POP POP POP POP JUMP JUMPDEST PUSH1 0x0 PUSH1 0x40 MLOAD SWAP1 POP SWAP1 JUMP JUMPDEST PUSH1 0x0 DUP1 REVERT JUMPDEST PUSH1 0x0 DUP1 REVERT JUMPDEST PUSH1 0x0 DUP1 REVERT JUMPDEST PUSH1 0x0 DUP1 REVERT JUMPDEST PUSH1 0x0 PUSH1 0x1F NOT PUSH1 0x1F DUP4 ADD AND SWAP1 POP SWAP2 SWAP1 POP JUMP JUMPDEST PUSH32 0x4E487B7100000000000000000000000000000000000000000000000000000000 PUSH1 0x0 MSTORE PUSH1 0x41 PUSH1 0x4 MSTORE PUSH1 0x24 PUSH1 0x0 REVERT JUMPDEST PUSH2 0xC6C DUP3 PUSH2 0xC23 JUMP JUMPDEST DUP2 ADD DUP2 DUP2 LT PUSH8 0xFFFFFFFFFFFFFFFF DUP3 GT OR ISZERO PUSH2 0xC8B JUMPI PUSH2 0xC8A PUSH2 0xC34 JUMP JUMPDEST JUMPDEST DUP1 PUSH1 0x40 MSTORE POP POP POP JUMP JUMPDEST PUSH1 0x0 PUSH2 0xC9E PUSH2 0xC05 JUMP JUMPDEST SWAP1 POP PUSH2 0xCAA DUP3 DUP3 PUSH2 0xC63 JUMP JUMPDEST SWAP2 SWAP1 POP JUMP JUMPDEST PUSH1 0x0 PUSH8 0xFFFFFFFFFFFFFFFF DUP3 GT ISZERO PUSH2 0xCCA JUMPI PUSH2 0xCC9 PUSH2 0xC34 JUMP JUMPDEST JUMPDEST PUSH2 0xCD3 DUP3 PUSH2 0xC23 JUMP JUMPDEST SWAP1 POP PUSH1 0x20 DUP2 ADD SWAP1 POP SWAP2 SWAP1 POP JUMP JUMPDEST DUP3 DUP2 DUP4 CALLDATACOPY PUSH1 0x0 DUP4 DUP4 ADD MSTORE POP POP POP JUMP JUMPDEST PUSH1 0x0 PUSH2 0xD02 PUSH2 0xCFD DUP5 PUSH2 0xCAF JUMP JUMPDEST PUSH2 0xC94 JUMP JUMPDEST SWAP1 POP DUP3 DUP2 MSTORE PUSH1 0x20 DUP2 ADD DUP5 DUP5 DUP5 ADD GT ISZERO PUSH2 0xD1E JUMPI PUSH2 0xD1D PUSH2 0xC1E JUMP JUMPDEST JUMPDEST PUSH2 0xD29 DUP5 DUP3 DUP6 PUSH2 0xCE0 JUMP JUMPDEST POP SWAP4 SWAP3 POP POP POP JUMP JUMPDEST PUSH1 0x0 DUP3 PUSH1 0x1F DUP4 ADD SLT PUSH2 0xD46 JUMPI PUSH2 0xD45 PUSH2 0xC19 JUMP JUMPDEST JUMPDEST DUP2 CALLDATALOAD PUSH2 0xD56 DUP5 DUP3 PUSH1 0x20 DUP7 ADD PUSH2 0xCEF JUMP JUMPDEST SWAP2 POP POP SWAP3 SWAP2 POP POP JUMP JUMPDEST PUSH1 0x0 PUSH1 0x20 DUP3 DUP5 SUB SLT ISZERO PUSH2 0xD75 JUMPI PUSH2 0xD74 PUSH2 0xC0F JUMP JUMPDEST JUMPDEST PUSH1 0x0 DUP3 ADD CALLDATALOAD PUSH8 0xFFFFFFFFFFFFFFFF DUP2 GT ISZERO PUSH2 0xD93 JUMPI PUSH2 0xD92 PUSH2 0xC14 JUMP JUMPDEST JUMPDEST PUSH2 0xD9F DUP5 DUP3 DUP6 ADD PUSH2 0xD31 JUMP JUMPDEST SWAP2 POP POP SWAP3 SWAP2 POP POP JUMP JUMPDEST PUSH1 0x0 PUSH20 0xFFFFFFFFFFFFFFFFFFFFFFFFFFFFFFFFFFFFFFFF DUP3 AND SWAP1 POP SWAP2 SWAP1 POP JUMP JUMPDEST PUSH1 0x0 PUSH2 0xDD3 DUP3 PUSH2 0xDA8 JUMP JUMPDEST SWAP1 POP SWAP2 SWAP1 POP JUMP JUMPDEST PUSH2 0xDE3 DUP2 PUSH2 0xDC8 JUMP JUMPDEST DUP3 MSTORE POP POP JUMP JUMPDEST PUSH1 0x0 DUP2 SWAP1 POP SWAP2 SWAP1 POP JUMP JUMPDEST PUSH2 0xDFC DUP2 PUSH2 0xDE9 JUMP JUMPDEST DUP3 MSTORE POP POP JUMP JUMPDEST PUSH1 0x0 PUSH1 0xC0 DUP3 ADD SWAP1 POP PUSH2 0xE17 PUSH1 0x0 DUP4 ADD DUP10 PUSH2 0xDDA JUMP JUMPDEST PUSH2 0xE24 PUSH1 0x20 DUP4 ADD DUP9 PUSH2 0xDDA JUMP JUMPDEST PUSH2 0xE31 PUSH1 0x40 DUP4 ADD DUP8 PUSH2 0xDDA JUMP JUMPDEST PUSH2 0xE3E PUSH1 0x60 DUP4 ADD DUP7 PUSH2 0xDF3 JUMP JUMPDEST PUSH2 0xE4B PUSH1 0x80 DUP4 ADD DUP6 PUSH2 0xDF3 JUMP JUMPDEST PUSH2 0xE58 PUSH1 0xA0 DUP4 ADD DUP5 PUSH2 0xDF3 JUMP JUMPDEST SWAP8 SWAP7 POP POP POP POP POP POP POP JUMP JUMPDEST PUSH2 0xE6C DUP2 PUSH2 0xDE9 JUMP JUMPDEST DUP2 EQ PUSH2 0xE77 JUMPI PUSH1 0x0 DUP1 REVERT JUMPDEST POP JUMP JUMPDEST PUSH1 0x0 DUP2 CALLDATALOAD SWAP1 POP PUSH2 0xE89 DUP2 PUSH2 0xE63 JUMP JUMPDEST SWAP3 SWAP2 POP POP JUMP JUMPDEST PUSH1 0x0 DUP1 PUSH1 0x40 DUP4 DUP6 SUB SLT ISZERO PUSH2 0xEA6 JUMPI PUSH2 0xEA5 PUSH2 0xC0F JUMP JUMPDEST JUMPDEST PUSH1 0x0 DUP4 ADD CALLDATALOAD PUSH8 0xFFFFFFFFFFFFFFFF DUP2 GT ISZERO PUSH2 0xEC4 JUMPI PUSH2 0xEC3 PUSH2 0xC14 JUMP JUMPDEST JUMPDEST PUSH2 0xED0 DUP6 DUP3 DUP7 ADD PUSH2 0xD31 JUMP JUMPDEST SWAP3 POP POP PUSH1 0x20 PUSH2 0xEE1 DUP6 DUP3 DUP7 ADD PUSH2 0xE7A JUMP JUMPDEST SWAP2 POP POP SWAP3 POP SWAP3 SWAP1 POP JUMP JUMPDEST PUSH2 0xEF4 DUP2 PUSH2 0xDC8 JUMP JUMPDEST DUP2 EQ PUSH2 0xEFF JUMPI PUSH1 0x0 DUP1 REVERT JUMPDEST POP JUMP JUMPDEST PUSH1 0x0 DUP2 CALLDATALOAD SWAP1 POP PUSH2 0xF11 DUP2 PUSH2 0xEEB JUMP JUMPDEST SWAP3 SWAP2 POP POP JUMP JUMPDEST PUSH1 0x0 DUP1 PUSH1 0x0 DUP1 PUSH1 0x0 DUP1 PUSH1 0xC0 DUP8 DUP10 SUB SLT ISZERO PUSH2 0xF34 JUMPI PUSH2 0xF33 PUSH2 0xC0F JUMP JUMPDEST JUMPDEST PUSH1 0x0 DUP8 ADD CALLDATALOAD PUSH8 0xFFFFFFFFFFFFFFFF DUP2 GT ISZERO PUSH2 0xF52 JUMPI PUSH2 0xF51 PUSH2 0xC14 JUMP JUMPDEST JUMPDEST PUSH2 0xF5E DUP10 DUP3 DUP11 ADD PUSH2 0xD31 JUMP JUMPDEST SWAP7 POP POP PUSH1 0x20 PUSH2 0xF6F DUP10 DUP3 DUP11 ADD PUSH2 0xF02 JUMP JUMPDEST SWAP6 POP POP PUSH1 0x40 PUSH2 0xF80 DUP10 DUP3 DUP11 ADD PUSH2 0xF02 JUMP JUMPDEST SWAP5 POP POP PUSH1 0x60 PUSH2 0xF91 DUP10 DUP3 DUP11 ADD PUSH2 0xF02 JUMP JUMPDEST SWAP4 POP POP PUSH1 0x80 PUSH2 0xFA2 DUP10 DUP3 DUP11 ADD PUSH2 0xE7A JUMP JUMPDEST SWAP3 POP POP PUSH1 0xA0 PUSH2 0xFB3 DUP10 DUP3 DUP11 ADD PUSH2 0xE7A JUMP JUMPDEST SWAP2 POP POP SWAP3 SWAP6 POP SWAP3 SWAP6 POP SWAP3 SWAP6 JUMP JUMPDEST PUSH1 0x0 DUP2 MLOAD SWAP1 POP SWAP2 SWAP1 POP JUMP JUMPDEST PUSH1 0x0 DUP2 SWAP1 POP SWAP3 SWAP2 POP POP JUMP JUMPDEST PUSH1 0x0 JUMPDEST DUP4 DUP2 LT ISZERO PUSH2 0xFF4 JUMPI DUP1 DUP3 ADD MLOAD DUP2 DUP5 ADD MSTORE PUSH1 0x20 DUP2 ADD SWAP1 POP PUSH2 0xFD9 JUMP JUMPDEST PUSH1 0x0 DUP5 DUP5 ADD MSTORE POP POP POP POP JUMP JUMPDEST PUSH1 0x0 PUSH2 0x100B DUP3 PUSH2 0xFC0 JUMP JUMPDEST PUSH2 0x1015 DUP2 DUP6 PUSH2 0xFCB JUMP JUMPDEST SWAP4 POP PUSH2 0x1025 DUP2 DUP6 PUSH1 0x20 DUP7 ADD PUSH2 0xFD6 JUMP JUMPDEST DUP1 DUP5 ADD SWAP2 POP POP SWAP3 SWAP2 POP POP JUMP JUMPDEST PUSH1 0x0 PUSH2 0x103D DUP3 DUP5 PUSH2 0x1000 JUMP JUMPDEST SWAP2 POP DUP2 SWAP1 POP SWAP3 SWAP2 POP POP JUMP JUMPDEST PUSH1 0x0 DUP3 DUP3 MSTORE PUSH1 0x20 DUP3 ADD SWAP1 POP SWAP3 SWAP2 POP POP JUMP JUMPDEST PUSH32 0x4F6E6C7920617262697465722063616E2063616C6C20746869732066756E6374 PUSH1 0x0 DUP3 ADD MSTORE PUSH32 0x696F6E0000000000000000000000000000000000000000000000000000000000 PUSH1 0x20 DUP3 ADD MSTORE POP JUMP JUMPDEST PUSH1 0x0 PUSH2 0x10B5 PUSH1 0x23 DUP4 PUSH2 0x1048 JUMP JUMPDEST SWAP2 POP PUSH2 0x10C0 DUP3 PUSH2 0x1059 JUMP JUMPDEST PUSH1 0x40 DUP3 ADD SWAP1 POP SWAP2 SWAP1 POP JUMP JUMPDEST PUSH1 0x0 PUSH1 0x20 DUP3 ADD SWAP1 POP DUP2 DUP2 SUB PUSH1 0x0 DUP4 ADD MSTORE PUSH2 0x10E4 DUP2 PUSH2 0x10A8 JUMP JUMPDEST SWAP1 POP SWAP2 SWAP1 POP JUMP JUMPDEST PUSH32 0x466163746F72206D757374206265206265747765656E203020616E6420310000 PUSH1 0x0 DUP3 ADD MSTORE POP JUMP JUMPDEST PUSH1 0x0 PUSH2 0x1121 PUSH1 0x1E DUP4 PUSH2 0x1048 JUMP JUMPDEST SWAP2 POP PUSH2 0x112C DUP3 PUSH2 0x10EB JUMP JUMPDEST PUSH1 0x20 DUP3 ADD SWAP1 POP SWAP2 SWAP1 POP JUMP JUMPDEST PUSH1 0x0 PUSH1 0x20 DUP3 ADD SWAP1 POP DUP2 DUP2 SUB PUSH1 0x0 DUP4 ADD MSTORE PUSH2 0x1150 DUP2 PUSH2 0x1114 JUMP JUMPDEST SWAP1 POP SWAP2 SWAP1 POP JUMP JUMPDEST PUSH32 0x4E487B7100000000000000000000000000000000000000000000000000000000 PUSH1 0x0 MSTORE PUSH1 0x11 PUSH1 0x4 MSTORE PUSH1 0x24 PUSH1 0x0 REVERT JUMPDEST PUSH1 0x0 PUSH2 0x1191 DUP3 PUSH2 0xDE9 JUMP JUMPDEST SWAP2 POP PUSH2 0x119C DUP4 PUSH2 0xDE9 JUMP JUMPDEST SWAP3 POP DUP3 DUP3 MUL PUSH2 0x11AA DUP2 PUSH2 0xDE9 JUMP JUMPDEST SWAP2 POP DUP3 DUP3 DIV DUP5 EQ DUP4 ISZERO OR PUSH2 0x11C1 JUMPI PUSH2 0x11C0 PUSH2 0x1157 JUMP JUMPDEST JUMPDEST POP SWAP3 SWAP2 POP POP JUMP JUMPDEST PUSH32 0x4E487B7100000000000000000000000000000000000000000000000000000000 PUSH1 0x0 MSTORE PUSH1 0x12 PUSH1 0x4 MSTORE PUSH1 0x24 PUSH1 0x0 REVERT JUMPDEST PUSH1 0x0 PUSH2 0x1202 DUP3 PUSH2 0xDE9 JUMP JUMPDEST SWAP2 POP PUSH2 0x120D DUP4 PUSH2 0xDE9 JUMP JUMPDEST SWAP3 POP DUP3 PUSH2 0x121D JUMPI PUSH2 0x121C PUSH2 0x11C8 JUMP JUMPDEST JUMPDEST DUP3 DUP3 DIV SWAP1 POP SWAP3 SWAP2 POP POP JUMP JUMPDEST PUSH1 0x0 PUSH2 0x1233 DUP3 PUSH2 0xDE9 JUMP JUMPDEST SWAP2 POP PUSH2 0x123E DUP4 PUSH2 0xDE9 JUMP JUMPDEST SWAP3 POP DUP3 DUP3 SUB SWAP1 POP DUP2 DUP2 GT ISZERO PUSH2 0x1256 JUMPI PUSH2 0x1255 PUSH2 0x1157 JUMP JUMPDEST JUMPDEST SWAP3 SWAP2 POP POP JUMP JUMPDEST PUSH1 0x0 PUSH2 0x1267 DUP3 PUSH2 0xDE9 JUMP JUMPDEST SWAP2 POP PUSH2 0x1272 DUP4 PUSH2 0xDE9 JUMP JUMPDEST SWAP3 POP DUP3 DUP3 ADD SWAP1 POP DUP1 DUP3 GT ISZERO PUSH2 0x128A JUMPI PUSH2 0x1289 PUSH2 0x1157 JUMP JUMPDEST JUMPDEST SWAP3 SWAP2 POP POP JUMP JUMPDEST PUSH1 0x0 PUSH2 0x129B DUP3 PUSH2 0xFC0 JUMP JUMPDEST PUSH2 0x12A5 DUP2 DUP6 PUSH2 0x1048 JUMP JUMPDEST SWAP4 POP PUSH2 0x12B5 DUP2 DUP6 PUSH1 0x20 DUP7 ADD PUSH2 0xFD6 JUMP JUMPDEST PUSH2 0x12BE DUP2 PUSH2 0xC23 JUMP JUMPDEST DUP5 ADD SWAP2 POP POP SWAP3 SWAP2 POP POP JUMP JUMPDEST PUSH1 0x0 PUSH1 0xA0 DUP3 ADD SWAP1 POP DUP2 DUP2 SUB PUSH1 0x0 DUP4 ADD MSTORE PUSH2 0x12E3 DUP2 DUP9 PUSH2 0x1290 JUMP JUMPDEST SWAP1 POP PUSH2 0x12F2 PUSH1 0x20 DUP4 ADD DUP8 PUSH2 0xDDA JUMP JUMPDEST PUSH2 0x12FF PUSH1 0x40 DUP4 ADD DUP7 PUSH2 0xDDA JUMP JUMPDEST PUSH2 0x130C PUSH1 0x60 DUP4 ADD DUP6 PUSH2 0xDF3 JUMP JUMPDEST PUSH2 0x1319 PUSH1 0x80 DUP4 ADD DUP5 PUSH2 0xDF3 JUMP JUMPDEST SWAP7 SWAP6 POP POP POP POP POP POP JUMP JUMPDEST PUSH32 0x547261646543726561746564206576656E7420656D6974746564000000000000 PUSH1 0x0 DUP3 ADD MSTORE POP JUMP JUMPDEST PUSH1 0x0 PUSH2 0x1359 PUSH1 0x1A DUP4 PUSH2 0x1048 JUMP JUMPDEST SWAP2 POP PUSH2 0x1364 DUP3 PUSH2 0x1323 JUMP JUMPDEST PUSH1 0x20 DUP3 ADD SWAP1 POP SWAP2 SWAP1 POP JUMP JUMPDEST PUSH1 0x0 PUSH1 0x20 DUP3 ADD SWAP1 POP DUP2 DUP2 SUB PUSH1 0x0 DUP4 ADD MSTORE PUSH2 0x1388 DUP2 PUSH2 0x134C JUMP JUMPDEST SWAP1 POP SWAP2 SWAP1 POP JUMP JUMPDEST PUSH32 0x73616E69747920636865636B0000000000000000000000000000000000000000 PUSH1 0x0 DUP3 ADD MSTORE POP JUMP JUMPDEST PUSH1 0x0 PUSH2 0x13C5 PUSH1 0xC DUP4 PUSH2 0x1048 JUMP JUMPDEST SWAP2 POP PUSH2 0x13D0 DUP3 PUSH2 0x138F JUMP JUMPDEST PUSH1 0x20 DUP3 ADD SWAP1 POP SWAP2 SWAP1 POP JUMP JUMPDEST PUSH1 0x0 PUSH1 0x20 DUP3 ADD SWAP1 POP DUP2 DUP2 SUB PUSH1 0x0 DUP4 ADD MSTORE PUSH2 0x13F4 DUP2 PUSH2 0x13B8 JUMP JUMPDEST SWAP1 POP SWAP2 SWAP1 POP JUMP JUMPDEST PUSH32 0x547261646520494420616C726561647920657869737473000000000000000000 PUSH1 0x0 DUP3 ADD MSTORE POP JUMP JUMPDEST PUSH1 0x0 PUSH2 0x1431 PUSH1 0x17 DUP4 PUSH2 0x1048 JUMP JUMPDEST SWAP2 POP PUSH2 0x143C DUP3 PUSH2 0x13FB JUMP JUMPDEST PUSH1 0x20 DUP3 ADD SWAP1 POP SWAP2 SWAP1 POP JUMP JUMPDEST PUSH1 0x0 PUSH1 0x20 DUP3 ADD SWAP1 POP DUP2 DUP2 SUB PUSH1 0x0 DUP4 ADD MSTORE PUSH2 0x1460 DUP2 PUSH2 0x1424 JUMP JUMPDEST SWAP1 POP SWAP2 SWAP1 POP JUMP JUMPDEST PUSH32 0x4D7573742073656E642066756E647320746F2063726561746520616E20657363 PUSH1 0x0 DUP3 ADD MSTORE PUSH32 0x726F7720636F6E74726163740000000000000000000000000000000000000000 PUSH1 0x20 DUP3 ADD MSTORE POP JUMP JUMPDEST PUSH1 0x0 PUSH2 0x14C3 PUSH1 0x2C DUP4 PUSH2 0x1048 JUMP JUMPDEST SWAP2 POP PUSH2 0x14CE DUP3 PUSH2 0x1467 JUMP JUMPDEST PUSH1 0x40 DUP3 ADD SWAP1 POP SWAP2 SWAP1 POP JUMP JUMPDEST PUSH1 0x0 PUSH1 0x20 DUP3 ADD SWAP1 POP DUP2 DUP2 SUB PUSH1 0x0 DUP4 ADD MSTORE PUSH2 0x14F2 DUP2 PUSH2 0x14B6 JUMP JUMPDEST SWAP1 POP SWAP2 SWAP1 POP JUMP JUMPDEST PUSH32 0x54696D656C6F636B206D7573742062652067726561746572207468616E203000 PUSH1 0x0 DUP3 ADD MSTORE POP JUMP JUMPDEST PUSH1 0x0 PUSH2 0x152F PUSH1 0x1F DUP4 PUSH2 0x1048 JUMP JUMPDEST SWAP2 POP PUSH2 0x153A DUP3 PUSH2 0x14F9 JUMP JUMPDEST PUSH1 0x20 DUP3 ADD SWAP1 POP SWAP2 SWAP1 POP JUMP JUMPDEST PUSH1 0x0 PUSH1 0x20 DUP3 ADD SWAP1 POP DUP2 DUP2 SUB PUSH1 0x0 DUP4 ADD MSTORE PUSH2 0x155E DUP2 PUSH2 0x1522 JUMP JUMPDEST SWAP1 POP SWAP2 SWAP1 POP JUMP JUMPDEST PUSH1 0x0 PUSH1 0xC0 DUP3 ADD SWAP1 POP DUP2 DUP2 SUB PUSH1 0x0 DUP4 ADD MSTORE PUSH2 0x157F DUP2 DUP10 PUSH2 0x1290 JUMP JUMPDEST SWAP1 POP PUSH2 0x158E PUSH1 0x20 DUP4 ADD DUP9 PUSH2 0xDDA JUMP JUMPDEST PUSH2 0x159B PUSH1 0x40 DUP4 ADD DUP8 PUSH2 0xDDA JUMP JUMPDEST PUSH2 0x15A8 PUSH1 0x60 DUP4 ADD DUP7 PUSH2 0xDDA JUMP JUMPDEST PUSH2 0x15B5 PUSH1 0x80 DUP4 ADD DUP6 PUSH2 0xDF3 JUMP JUMPDEST PUSH2 0x15C2 PUSH1 0xA0 DUP4 ADD DUP5 PUSH2 0xDF3 JUMP JUMPDEST SWAP8 SWAP7 POP POP POP POP POP POP POP JUMP JUMPDEST PUSH32 0x4F6E6C79207468652073656C6C65722063616E20636C61696D20746865206675 PUSH1 0x0 DUP3 ADD MSTORE PUSH32 0x6E64730000000000000000000000000000000000000000000000000000000000 PUSH1 0x20 DUP3 ADD MSTORE POP JUMP JUMPDEST PUSH1 0x0 PUSH2 0x1629 PUSH1 0x23 DUP4 PUSH2 0x1048 JUMP JUMPDEST SWAP2 POP PUSH2 0x1634 DUP3 PUSH2 0x15CD JUMP JUMPDEST PUSH1 0x40 DUP3 ADD SWAP1 POP SWAP2 SWAP1 POP JUMP JUMPDEST PUSH1 0x0 PUSH1 0x20 DUP3 ADD SWAP1 POP DUP2 DUP2 SUB PUSH1 0x0 DUP4 ADD MSTORE PUSH2 0x1658 DUP2 PUSH2 0x161C JUMP JUMPDEST SWAP1 POP SWAP2 SWAP1 POP JUMP JUMPDEST PUSH32 0x436C61696D20706572696F6420686173206E6F74207374617274656420796574 PUSH1 0x0 DUP3 ADD MSTORE POP JUMP JUMPDEST PUSH1 0x0 PUSH2 0x1695 PUSH1 0x20 DUP4 PUSH2 0x1048 JUMP JUMPDEST SWAP2 POP PUSH2 0x16A0 DUP3 PUSH2 0x165F JUMP JUMPDEST PUSH1 0x20 DUP3 ADD SWAP1 POP SWAP2 SWAP1 POP JUMP JUMPDEST PUSH1 0x0 PUSH1 0x20 DUP3 ADD SWAP1 POP DUP2 DUP2 SUB PUSH1 0x0 DUP4 ADD MSTORE PUSH2 0x16C4 DUP2 PUSH2 0x1688 JUMP JUMPDEST SWAP1 POP SWAP2 SWAP1 POP JUMP JUMPDEST PUSH32 0x4E6F2066756E647320746F20636C61696D000000000000000000000000000000 PUSH1 0x0 DUP3 ADD MSTORE POP JUMP JUMPDEST PUSH1 0x0 PUSH2 0x1701 PUSH1 0x11 DUP4 PUSH2 0x1048 JUMP JUMPDEST SWAP2 POP PUSH2 0x170C DUP3 PUSH2 0x16CB JUMP JUMPDEST PUSH1 0x20 DUP3 ADD SWAP1 POP SWAP2 SWAP1 POP JUMP JUMPDEST PUSH1 0x0 PUSH1 0x20 DUP3 ADD SWAP1 POP DUP2 DUP2 SUB PUSH1 0x0 DUP4 ADD MSTORE PUSH2 0x1730 DUP2 PUSH2 0x16F4 JUMP JUMPDEST SWAP1 POP SWAP2 SWAP1 POP JUMP JUMPDEST PUSH1 0x0 PUSH1 0x80 DUP3 ADD SWAP1 POP DUP2 DUP2 SUB PUSH1 0x0 DUP4 ADD MSTORE PUSH2 0x1751 DUP2 DUP8 PUSH2 0x1290 JUMP JUMPDEST SWAP1 POP PUSH2 0x1760 PUSH1 0x20 DUP4 ADD DUP7 PUSH2 0xDDA JUMP JUMPDEST PUSH2 0x176D PUSH1 0x40 DUP4 ADD DUP6 PUSH2 0xDDA JUMP JUMPDEST PUSH2 0x177A PUSH1 0x60 DUP4 ADD DUP5 PUSH2 0xDF3 JUMP JUMPDEST SWAP6 SWAP5 POP POP POP POP POP JUMP INVALID LOG2 PUSH5 0x6970667358 0x22 SLT KECCAK256 SLOAD KECCAK256 MSTORE8 PUSH10 0x129A22902A6D35347233 ORIGIN 0xF8 ADDMOD 0xB2 PUSH24 0x8C4C0075A4CC2FAD2F42A47A3964736F6C634300081C0033 "
        },
        "methodIdentifiers": {
          "arbitrate(string,uint256)": "9499f403",
          "claim(string)": "f3fe12c9",
          "createTrade(string,address,address,address,uint256,uint256)": "d9dc7620",
          "trades(string)": "47a04100"
        }
      }
    }
  }
}